S00E00007370656564332E73726563D2
S11300000C94A10A0C94BE0A0C94040C0C94BE0A21
S11300100C94D20B0C94BE0A0C94BE0A0C94BE0A27
S11300200C94BE0A0C94E90B0C949A0B0C94BE0A23
S11300300C94BE0A0C94BE0A0C94BE0A0C94BE0A1C
S11300400C94BE0A0C94BE0A0C94BE0A0C94BE0A0C
S11300500C94BE0A211741176117B017FF171B181C
S113006037185318A218C218DE18FC1808190B19EF
S1130070C5194D1A0C000000F01F00FC7F00FEFFA4
S1130080000FE00107C00107C00107C0010FE00134
S1130090FEFF00FC7F00F01F000C000000F01F00BA
S11300A0FC7F00FEFF000FE00107C00107C001074D
S11300B0C0010FE001FEFF00FC7F00F01F000C00F8
S11300C00000F01F00FC7F00FEFF000FE00107C0EE
S11300D00107C00107C0010FE001FEFF00FC7F0023
S11300E0F01F000C000000F01F00FC7F00FEFF006A
S11300F00FE00107C00107C00107C0010FE001FEC6
S1130100FF00FC7F00F01F000C000000F01F00FC4B
S11301107F00FEFF000FE00107C00107C00107C018
S1130120010FE001FEFF00FC7F00F01F000C000047
S113013000F01F00FC7F00FEFF000FE00107C0017C
S113014007C00107C0010FE001FEFF00FC7F00F0C3
S11301501F000C000000F01F00FC7F00FEFF000FDA
S1130160E00107C00107C00107C0010FE001FEFF65
S113017000FC7F00F01F000C000000F01F00FC7F5B
S113018000FEFF000FE00107C00107C00107C00126
S11301900FE001FEFF00FC7F00F01F000C000000D8
S11301A0F01F00FC7F00FEFF000FE00107C0010705
S11301B0C00107C0010FE001FEFF00FC7F00F01F3B
S11301C0000C000000F01F00FC7F00FEFF000FE0A9
S11301D00107C00107C00107C0010FE001FEFF00D5
S11301E0FC7F00F01F000C000000F01F00FC7F00EB
S11301F0FEFF000FE00107C00107C00107C0010FA7
S1130200E001FEFF00FC7F00F01F000C000000F086
S11302101F00FC7F00FEFF000FE00107C00107C0C4
S11302200107C0010FE001FEFF00FC7F00F01F008A
S11302300C000000F01F00FC7F00FEFF000FE00137
S113024007C00107C00107C0010FE001FEFF00FC69
S11302507F00F01F000C000000F01F00FC7F00FE78
S1130260FF000FE00107C00107C00107C0010FE054
S113027001FEFF00FC7F00F01F000400000000C02E
S11302800100C00100C001000000000000000000E7
S11302900000000000000000000000000000000C4E
S11302A000800100F801C0FF01FC7F00FF07003F50
S11302B00000030000000000000000000000000037
S11302C0000000000C000000F01F00FC7F00FEFF97
S11302D0000FE00107C00107C00107C0010FE001E2
S11302E0FEFF00FC7F00F01F000C00000000000077
S11302F06000007000007800003C00001E0000FF59
S1130300FF01FFFF01FFFF010000000000000C00DF
S113031000003880013CE0013EF0010FF80107FCC9
S11303200107DE0107CF018FC701FEC301FEC10132
S113033078C0010C0000001838001E78001EF80078
S11303400FE001C7C101C7C101E7C101FFE3017E9D
S1130350FF003C7F00003E000C000000003E0080D7
S11303603F00C03F00F039007838003E3800FFFFFE
S113037001FFFF01FFFF010038000038000C0000FE
S113038000803900FC7900FFF900FFE001E7C001BB
S1130390E7C001E7C001E7E101C7FF00877F000074
S11303A01F000C000000F01F00FC7F00FEFF008E09
S11303B0E301C7C101C7C101C7C101CFE3019EFF6A
S11303C0009E7F00183E000C00000007000007009C
S11303D00007E00107FC0187FF01E71F00F70300A6
S11303E0FF00003F00001F00000700000C00000099
S11303F0783C00FEFE00FEFF00CFE70187C30187C3
S1130400C30187C301CFE701FEFF00FEFE00783C75
S1130410000C000000F83000FCF300FEF3008FE74E
S11304200107C70107C70107C7018FE300FEFF00EB
S1130430FC7F00F01F001200FE7F00C0FFFF07F8E2
S1130440FFFF1FFC01803F3E00007C0E0000700F88
S11304500000F0070000E0070000E0070000E00FE4
S11304600000F00E0000703E00007CFC01803FF8AC
S1130470FFFF1FE0FFFF0300FE7F000000000012EB
S113048000FE7F00C0FFFF07F8FFFF1FFC01803F55
S11304903E00007C0E0000700F0000F0070000E03A
S11304A0070000E0070000E00F0000F00E000070FD
S11304B03E00007CFC01803FF8FFFF1FE0FFFF03CC
S11304C000FE7F00000000001200FE7F00C0FFFF5E
S11304D007F8FFFF1FFC01803F3E00007C0E000078
S11304E0700F0000F0070000E0070000E0070000C4
S11304F0E00F0000F00E0000703E00007CFC018064
S11305003FF8FFFF1FE0FFFF0300FE7F0000000035
S1130510001200FE7F00C0FFFF07F8FFFF1FFC0171
S1130520803F3E00007C0E0000700F0000F00700CA
S113053000E0070000E0070000E00F0000F00E00FC
S113054000703E00007CFC01803FF8FFFF1FE0FFCD
S1130550FF0300FE7F00000000001200FE7F00C0C9
S1130560FFFF07F8FFFF1FFC01803F3E00007C0EE9
S11305700000700F0000F0070000E0070000E00733
S11305800000E00F0000F00E0000703E00007CFC54
S113059001803FF8FFFF1FE0FFFF0300FE7F000024
S11305A00000001200FE7F00C0FFFF07F8FFFF1FDE
S11305B0FC01803F3E00007C0E0000700F0000F044
S11305C0070000E0070000E0070000E00F0000F073
S11305D00E0000703E00007CFC01803FF8FFFF1F0E
S11305E0E0FFFF0300FE7F00000000001200FE7F1A
S11305F000C0FFFF07F8FFFF1FFC01803F3E000023
S11306007C0E0000700F0000F0070000E0070000FF
S1130610E0070000E00F0000F00E0000703E000054
S11306207CFC01803FF8FFFF1FE0FFFF0300FE7F1B
S113063000000000001200FE7F00C0FFFF07F8FF6B
S1130640FF1FFC01803F3E00007C0E0000700F0085
S113065000F0070000E0070000E0070000E00F00E2
S113066000F00E0000703E00007CFC01803FF8FFAB
S1130670FF1FE0FFFF0300FE7F00000000001200E8
S1130680FE7F00C0FFFF07F8FFFF1FFC01803F3E15
S113069000007C0E0000700F0000F0070000E0076F
S11306A00000E0070000E00F0000F00E0000703EC4
S11306B000007CFC01803FF8FFFF1FE0FFFF030008
S11306C0FE7F00000000001200FE7F00C0FFFF0755
S11306D0F8FFFF1FFC01803F3E00007C0E0000700D
S11306E00F0000F0070000E0070000E0070000E052
S11306F00F0000F00E0000703E00007CFC01803F03
S1130700F8FFFF1FE0FFFF0300FE7F000000000072
S11307101200FE7F00C0FFFF07F8FFFF1FFC0180EF
S11307203F3E00007C0E0000700F0000F007000048
S1130730E0070000E0070000E00F0000F00E0000FA
S1130740703E00007CFC01803FF8FFFF1FE0FFFFCC
S11307500300FE7F00000000001200FE7F00C0FFC7
S1130760FF07F8FFFF1FFC01803F3E00007C0E00E6
S113077000700F0000F0070000E0070000E0070031
S113078000E00F0000F00E0000703E00007CFC0151
S1130790803FF8FFFF1FE0FFFF0300FE7F00000023
S11307A000001200FE7F00C0FFFF07F8FFFF1FFCE0
S11307B001803F3E00007C0E0000700F0000F00737
S11307C00000E0070000E0070000E00F0000F00E6A
S11307D00000703E00007CFC01803FF8FFFF1FE03A
S11307E0FFFF0300FE7F00000000001200FE7F00F8
S11307F0C0FFFF07F8FFFF1FFC01803F3E00007CA5
S11308000E0000700F0000F0070000E0070000E099
S1130810070000E00F0000F00E0000703E00007CB6
S1130820FC01803FF8FFFF1FE0FFFF0300FE7F0095
S113083000000000090000000000000000000000AB
S113084000000000F0000000F0000000F0000000D4
S11308500000000000000000000000000000000094
S11308600000000000000000000000000000000084
S1130870000000000000000000000000001200FE64
S11308807F00C0FFFF07F8FFFF1FFC01803F3E0011
S1130890007C0E0000700F0000F0070000E007006D
S11308A000E0070000E00F0000F00E0000703E00C2
S11308B0007CFC01803FF8FFFF1FE0FFFF0300FE08
S11308C07F00000000001200FE7F00C0FFFF07F859
S11308D0FFFF1FFC01803F3E00007C0E0000700FF4
S11308E00000F0070000E0070000E0070000E00F50
S11308F00000F00E0000703E00007CFC01803FF818
S1130900FFFF1FE0FFFF0300FE7F00000000001256
S1130910000000000000000000000000000E0000C5
S11309200007000080030000C0030000E001000095
S1130930F8000000FEFFFFFFFFFFFFFFFFFFFFFFC8
S113094000000000000000000000000000000000A3
S1130950000000000000000012C00100E0F00100EF
S1130960F8FC0100FE3C0000FF1E0080EF0F00C0F9
S1130970E70700E0E10700F0E0070078E007003C4B
S1130980E007001FE00F800FE01EC007E03EF80301
S1130990E0FCFF00E0F07F00E0C00F00E00000009A
S11309A00012C0008003F000800FFC00801F3E0096
S11309B0003E1E0000780F0000F007E000E007E0B2
S11309C000E007E000E007E000E00FF000E00EF8D0
S11309D001703EFC0378FCBF073EF89FFF1FE00751
S11309E0FE0F0000F80300000000120000F00000F9
S11309F000FC000000FF0000C0FF0000F0E7000062
S1130A00F8E100007EE000801FE000E007E000F86D
S1130A1001E0007E00E000FFFFFFFFFFFFFFFFFF9C
S1130A20FFFFFF0000E0000000E0000000E0000025
S1130A3000E0001200C0800300FF800FF8FF811F58
S1130A40FFFF003EFF780078073800F0071C00E045
S1130A50071C00E0071C00E0071C00E0073C00F056
S1130A60073800700778007C07F0013F07E0FF1F9C
S1130A7007C0FF070000FE01000000001200FC7F19
S1130A8000C0FFFF07F0FFFF0FF880073E3CC001E6
S1130A90781EE000700E7000F0077000E007700030
S1130AA0E0077000E0077000E00FF000F00EE001D6
S1130AB0783EC0073EFC80FF1FF800FF0FE000FCFB
S1130AC001000000001207000000070000000700FA
S1130AD0000007000000070000F80700C0FF07003F
S1130AE0FCFF0780FF0707E03F0007F8070007FE49
S1130AF00000871F0000E7070000F70100007F00E7
S1130B0000001F0000000F000000000000001200A1
S1130B1000F803E007FE0FF81FFF1FFCBF0F3E3E67
S1130B20FC03780EF0017007E000E007E000E00746
S1130B30E000E007E000E00FE000E00EF001703EAE
S1130B40FC0378FCBF0F3EF81FFF1FE007FE0F00F9
S1130B5000F8030000000012C03F0007F0FF001F70
S1130B60F8FF013F7CE0037C1E8007700F000FF04C
S1130B700F000EE007000EE007000EE007000EE095
S1130B8007000E700E0007781E80033C7CE0811F76
S1130B90F0FFFF0FE0FFFF0300FE3F000000000036
S1130BA00500000000000500005F000005000700CC
S1130BB0070005147F147F1405242A7F2A120523B5
S1130BC013086462053649562050050807030000DF
S1130BD005001C224100050041221C000514083EAA
S1130BE008140508083E08080500B0700000050850
S1130BF008080808050060600000052010080402C9
S1130C00053E5149453E0500427F40000572494971
S1130C104946052141494D33051814127F10052713
S1130C2045454539053C4A494931054121110907E2
S1130C3005364949493605464949291E0500001427
S1130C40000005004034000005081422410005148A
S1130C50141414140541221408000502015909064C
S1130C60053E415D594E057C1211127C057F4949B0
S1130C704936053E41414122057F4141413E057FC0
S1130C8049494949057F09090909053E414151730B
S1130C90057F0808087F0500417F41000520404189
S1130CA03F01057F08142241057F40404040057FF5
S1130CB0020C027F057F0408107F053E4141413E3E
S1130CC0057F09090906053E4151215E057F091981
S1130CD029460526494949320501017F0101053F9D
S1130CE04040403F051F2040201F053F4038403F03
S1130CF0056314081463050304780403056151496A
S1130D00454305007F414100050204081020050009
S1130D1041417F0005040201020405404040404077
S1130D2005070B000000052054547840057F284433
S1130D30443805384444442805384444287F053859
S1130D40545454180500087E09020518A4A49C787C
S1130D50057F080404780500447D400005204040D8
S1130D603D00057F102844000500417F4000057CBC
S1130D7004780478057C080404780538444444382D
S1130D8005FC182424180518242418FC057C0804E0
S1130D9004080548545454240504043F4424053CE1
S1130DA04040207C051C2040201C053C4030403C39
S1130DB0054428102844054C9090907C05446454C4
S1130DC04C4405000836410005000077000005008A
S1130DD04136080005040204080405007F417F0031
S1130DE000000000000000000000000000000000FF
S1130DF00000000080C0E0F0F8FCFEFFFFFF0000F0
S1130E0000000000000000000000000000000000DE
S1130E1000000000000000000000000000000000CE
S1130E2000000000000000000000000000000000BE
S1130E3000000000000000000000000000000000AE
S1130E40000000000000000080C0E0F0F8FCFEFF9D
S1130E50FFFFFFFFFFFFFFFFFFFFC0C0C0C0C0C018
S1130E60C0C0C0C0C0C0C0C0C0C0C0C0C0C0C0C07E
S1130E70C0C0C0C0C0C0C0C0C0C0C0C0C0C0C0C06E
S1130E80C0C0C0C0C0C0C0C0C0C0C0C0C0C0C0C05E
S1130E90C0C0C0C0C0C0C0C00000000080C0E0F03E
S1130EA0F8FCFEFFFFFFFFFFFFFFFFFFFFFFFFFF59
S1130EB0FFFFFFFFFFFFFFFFFFFFFFFFFFFFFFFF3E
S1130EC0FFFFFFFFFFFFFFFFFFFFFFFFFFFFFFFF2E
S1130ED0FFFFFFFFFFFFFFFFFFFFFFFFFFFFFFFF1E
S1130EE0FFFFFFFFFFFFFFFFFFFFFFFFFFFFFFFF0E
S1130EF0FFFFFFFF081C3E7FFFFFFFFFFFFFFFFF19
S1130F00FFFFFFFFFFFFFFFFFFFFFFFFFFFFFFFFED
S1130F10FFFFFFFFFFFFFFFFFFFFFFFFFFFFFFFFDD
S1130F20FFFFFFFFFFFFFFFFFFFFFFFFFFFFFFFFCD
S1130F30FFFFFFFFFFFFFFFFFFFFFFFFFFFFFFFFBD
S1130F40FFFFFFFFFFFFFFFFFFFFFFFFFFFFFFFFAD
S1130F5000000000000103070F1F3F7FFFFFFFFF9A
S1130F60FFFFFFFFFFFFFFFFFFFFFFFFFFFFFFFF8D
S1130F70FFFFFFFFFFFFFFFFFFFFFFFFFFFFFFFF7D
S1130F80FFFFFFFFFFFFFFFFFFFFFFFFFFFFFFFF6D
S1130F90FFFFFFFFFFFFFFFFFFFFFFFFFFFFFFFF5D
S1130FA0FFFFFFFFFFFFFFFFFFFFFFFF0000000049
S1130FB00000000000000000000103070F1F3F7F36
S1130FC0FFFFFFFFFFFFFFFFFFFF01010101010121
S1130FD001010101010101010101010101010101FD
S1130FE001010101010101010101010101010101ED
S1130FF001010101010101010101010101010101DD
S113100001010101010101010000000000000000D4
S113101000000000000000000000000000010307C1
S11310200F1F3F7F7F7F00000000000000000000D2
S113103000000000000000000000000000000000AC
S1131040000000000000000000000000000000009C
S1131050000000000000000000000000000000008C
S1131060000000000000000000000000000000007C
S1131070000000000000000000000000000000006C
S1131080000000000000000000000000000000005C
S1131090000000000000000000000000000000004C
S11310A00000FFFFFFFEFCF8F0E0C080000000003D
S11310B0000000000000000000000000000000002C
S11310C0C0C0C0C0C0C0C0C0C0C0C0C0C0C0C0C01C
S11310D0C0C0C0C0C0C0C0C0C0C0C0C0C0C0C0C00C
S11310E0C0C0C0C0C0C0C0C0C0C0C0C0C0C0C0C0FC
S11310F0C0C0C0C0C0C0C0C0C0C0C0C0C0C0FFFF6E
S1131100FFFFFFFFFFFFFFFFFFFEFCF8F0E0C080E2
S1131110000000000000000000000000FFFFFFFFCF
S1131120FFFFFFFFFFFFFFFFFFFFFFFFFFFFFFFFCB
S1131130FFFFFFFFFFFFFFFFFFFFFFFFFFFFFFFFBB
S1131140FFFFFFFFFFFFFFFFFFFFFFFFFFFFFFFFAB
S1131150FFFFFFFFFFFFFFFFFFFFFFFFFFFFFFFF9B
S1131160FFFFFFFFFFFFFFFFFFFFFFFFFFFEFCF896
S1131170F0E0C08000000000FFFFFFFFFFFFFFFF63
S1131180FFFFFFFFFFFFFFFFFFFFFFFFFFFFFFFF6B
S1131190FFFFFFFFFFFFFFFFFFFFFFFFFFFFFFFF5B
S11311A0FFFFFFFFFFFFFFFFFFFFFFFFFFFFFFFF4B
S11311B0FFFFFFFFFFFFFFFFFFFFFFFFFFFFFFFF3B
S11311C0FFFFFFFFFFFFFFFFFFFFFFFFFFFFFFFF2B
S11311D07F3E1C08FFFFFFFFFFFFFFFFFFFFFFFF36
S11311E0FFFFFFFFFFFFFFFFFFFFFFFFFFFFFFFF0B
S11311F0FFFFFFFFFFFFFFFFFFFFFFFFFFFFFFFFFB
S1131200FFFFFFFFFFFFFFFFFFFFFFFFFFFFFFFFEA
S1131210FFFFFFFFFFFFFFFFFFFFFFFFFFFFFFFFDA
S1131220FFFFFFFF7F3F1F0F0703010000000000C7
S1131230010101010101010101010101010101019A
S1131240010101010101010101010101010101018A
S1131250010101010101010101010101010101017A
S11312600101010101010101010101010101FFFF6E
S1131270FFFFFFFFFFFFFFFF7F3F1F0F070301007B
S1131280000000000000000000000000000000005A
S1131290000000000000000000000000000000004A
S11312A0000000000000000000000000000000003A
S11312B0000000000000000000000000000000002A
S11312C0000000000000000000007F7F7F3F1F0F30
S11312D007030100000000000000000000000000FF
S11312E00000000000000000008080808084FCFE7C
S11312F0FEFEFEFEFEFEFEFC0000000000000000FC
S1131300000080C0E0F0F8FCFCFEFEFFFFFFFFFFE2
S1131310FFFFFFFFFFFFFFFFFFFFFFFEFEFCFCF8E8
S1131320F0E0C08000000000000000000000FCFEAF
S1131330FEFEFEFEFEFEFEFC8080808080001F3FDD
S11313403F3F3F3F7FFFFFFFFFFFFFFFFFF9F0E05D
S1131350C0800000000000FEFFFFFFFFFFFFFFFF53
S1131360FFFFFFFFFFFFFFFFFFFFFFFFFFFFFFFF89
S1131370FFFFFFFFFFFFFFFFFFFFFE000000000075
S113138080C0E0F0F9FFFFFFFFFFFFFFFF7F3F3F5B
S11313903F3F3F1F00000000000000000103070F53
S11313A01F3F7F7F7F7F7F7F7F7E0000007FFFFF67
S11313B0FFFFFF3F1F1F1F1F1F1F1F3FFFFFFFFFD9
S11313C0FFFF3F1F1F1F1F1F1F1F3FFFFFFFFFFFC9
S11313D07F0000007E7F7F7F7F7F7F7F3F1F0F071F
S11313E003010000000000000000000000000000F5
S11313F00000000000000080C0E0F0F0F0F0F0F029
S1131400F0F000000101FFFFFFF0E0E0E0E0E0E0C9
S1131410E0F00F0F0F0F0F0FF0E0E0E0E0E0E0E08E
S1131420F0FFFFFF01010000F0F0F0F0F0F0F0F049
S1131430E0C0800000000000000000000000000088
S11314400000C0E0E0E0E0E0F0F8FCFEFFFFFFFF9A
S1131450FFFF7F3F1F0F0703000000000303031F6C
S11314601F1FFFFFFFFFFFFFFCF8F8F8F8FCFFFF6A
S1131470FFFFFFFF1F1F1F030303000000000307FC
S11314800F1F3F7FFFFFFFFFFFFFFEFCF8F0E0E0D0
S1131490E0E0E0C000000000070F0F0F0F0FFFFF98
S11314A0FFFFFFFFFFFFFFFC000000000000000043
S11314B000000000003E7E7EF0F0E0878783030397
S11314C003030303838787E0F0F07E7E3E00000081
S11314D000000000000000000000FCFFFFFFFFFF11
S11314E0FFFFFFFF0F0F0F0F0F07000000000000AA
S11314F000000000000101010101010101000000E0
S113150000000000000000000000000000000001D6
S113151003070F0F0F0F0F0F0F0F0F0F070301001C
S113152000000000000000000000000000000000B7
S1131530000101010101010101000000000000009F
S1131540000011241FBECFE5D8E0DEBFCDBF12E0FE
S1131550A0E6B0E0EEE8FFE402C005900D92A237E9
S1131560B107D9F726E0A2E7B2E001C01D92A63B7D
S1131570B207E1F70E945E150C94C5270C94000095
S11315802F923F920F931F93CF93DF93D10117961E
S11315908C911797815016968C931697882384F113
S11315A014960D911C911597E0E0F0E0682F082E39
S11315B0000C770B9801260F371FE9012881022EB2
S11315C0000C330B1616170694F490E0A901440F8F
S11315D0551F220F331F220F331F220F331F240FD7
S11315E0351F9F5F492F50E0461757077CF3E20FE2
S11315F0F31F815016968C9316978823BCF602C06D
S1131600E0E0F0E0CF01DF91CF911F910F913F9087
S11316102F9008958AEF80937C0086E080937B006E
S113162080E090E0A0E8BFE3809377009093780097
S1131630A0937900B0937A0083E393E3A3E3BFE339
S11316408093730090937400A0937500B093760018
S113165083E393E3A3EABFE380936F009093700066
S1131660A0937100B093720080E094E090936E00B8
S113167080936D0090936C0080936B008EEB80934D
S11316806A0086E98093690080E690E090936800A0
S11316908093670082E080936600089590917E02B3
S11316A0992381F090919E029F5F90939E022091D6
S11316B09C0230919D022F5F3F4F30939D022093F7
S11316C09C020FC090919E02915090939E02209193
S11316D09C0230919D022150310930939D02209348
S11316E09C0290919E02992324F497E090939E0289
S11316F006C090919E02983014F010929E029BB303
S1131700907F823051F4E0919E020E2E000CFF0B6C
S1131710EF59FD4F8081982B0BC0813049F4E09143
S11317209E020E2E000CFF0BE759FD4F8081982B73
S11317309BBB08951F920F920FB60F9211242F9303
S11317403F934F935F936F937F938F939F93AF9345
S1131750BF93EF93FF93809166000E944E0B2091FC
S11317609C0230919D0280918602909187022817F5
S1131770390739F410929F0213BE1CBE89B78D7FBE
S113178089BFFF91EF91BF91AF919F918F917F910D
S11317906F915F914F913F912F910F900FBE0F90DA
S11317A01F9018951F920F920FB60F9211248F93CA
S11317B09F938091A6029091A70201969093A7020D
S11317C08093A6029F918F910F900FBE0F901F9050
S11317D018951F920F920FB60F9211248F939F9317
S11317E080918502882349F080917C0290917D024A
S11317F0019690937D0280937C029F918F910F902C
S11318000FBE0F901F9018951F920F920FB60F9254
S113181011242F933F934F935F938F939F93AF9391
S1131820BF9380918402882351F14091A602509184
S1131830A70224B53FEF349FC001359F900D1124BA
S1131840820F911D9093A5028093A40214BC109260
S1131850A7021092A6028091A0029091A102A091E9
S1131860A202B091A3020196A11DB11D8093A00212
S11318709093A102A093A202B093A30207C089B7D8
S1131880806889BF14BC81E080938402BF91AF91CA
S11318909F918F915F914F913F912F910F900FBE28
S11318A00F901F9018958F929F92AF92BF92CF92F4
S11318B0DF92EF92FF920F93CF93DF938091850293
S11318C08111D8C00E94B61E0FEF27E144E26BE0FD
S11318D08AE00E943C1E24E146E26EE085E20E941A
S11318E03C1E80918202909183028936910534F0E6
S11318F025E140E16DE08CE00E94BA1E80918202F5
S1131900909183028E3691053CF00FEF25E146E17C
S11319106DE082E10E94BA1E80918202909183025E
S1131920833791053CF00FEF25E14CE16DE088E150
S11319300E94BA1E80918202909183028837910599
S11319403CF00FEF25E142E26DE08EE10E94BA1E09
S11319506FE08BE20E94251B20E048E065E080EA0E
S11319609BE00E94961F6091820270918302072E71
S1131970000C880B990B0E94752420E030E040E2B3
S113198051E40E94CB232AE030E040E050E00E9482
S1131990C5228FE790E00E942C2120E040E262E122
S11319A086E394E00E94961F6FE184E00E94251B69
S11319B08090780290907902A0907A02B0907B0295
S11319C084E688169104A104B10470F0C501B40141
S11319D02AE030E040E050E00E94F825211531056E
S11319E04105510529F440C024E630E040E050E0D0
S11319F0C0E00F2EFAE0CF2ED12CE12CF12CF02DEB
S1131A00CA01B901A70196010E94F825CF5F2115EB
S1131A10310541055105A1F784E688169104A10416
S1131A20B10418F5D4E0C0E081E890E00E942C21D4
S1131A30CF5FCD17CCF360917802709179028091D9
S1131A407A0290917B020E94732420E030E048ECFB
S1131A5052E40E94CB232AE030E040E050E00E94B0
S1131A60C5220E94E51A06C0C0E0D6E0DC1B1D16A4
S1131A7014F7D9CFDF91CF910F91FF90EF90DF90C2
S1131A80CF90BF90AF909F908F900895209188023F
S1131A903091890240918A0250918B0260918C02AC
S1131AA070918D0280918E0290918F020E94CB23BF
S1131AB00E944424709387026093860220919C02C2
S1131AC030919D02C901861B970B99F01AF0109270
S1131AD07E0203C081E080937E0281E080939F02B6
S1131AE083B78D6083BF809169008CBF89B78260A2
S1131AF089BF0895B59B04C0B69B02C0B7992AC09C
S1131B00B5990DC08FE99FE00197F1F700C000007F
S1131B1086B385FB992790F981E08927089596B3C8
S1131B20892F807496FD0AC0EFE9FFE03197F1F741
S1131B3000C00000B69913C082E00895B7990CC0A4
S1131B408FE99FE00197F1F700C00000B79906C044
S1131B5083E0089580E0089580E0089580E008958A
S1131B6080916600813029F42091670030916800EB
S1131B7006C02091670030916800220F331F109235
S1131B809D0210929C0210929E02C90133230CF410
S1131B90039695958795959587959093870280935D
S1131BA0860281E080937E0280939F0283B78D60DA
S1131BB083BF809169008CBF89B7826089BF80919F
S1131BC09F028111FCCF4FEF82E597E041508040A6
S1131BD09040E1F700C0000030939D0220939C02E6
S1131BE0109287021092860210927E0281E0809306
S1131BF09F0283B78D6083BF809169008CBF89B7D2
S1131C00826089BF80919F028111FCCF10929D0256
S1131C1010929C02109287021092860281E08093B7
S1131C207D000895882381F00E94B61E67E086E156
S1131C300E94251B2FEF47E36CE584E690E10E94A8
S1131C40D81C0E94E51A08950E94B61E67E086E13A
S1131C500E94251B2FEF47E36CE580EE9DE00E9478
S1131C60D81C0E94E51A08950E94B61E67E08BE115
S1131C700E94251B2FEF44E366E588EE92E10E9463
S1131C80D81C0E94E51A0895B4990DC0B39B0BC0EB
S1131C9080E00E94120E81E08093850210927D0202
S1131CA010927C0221C0B3990DC0B49B0BC081E09B
S1131CB00E94120E81E08093850210927D021092A0
S1131CC07C0212C0B4990CC0B3990AC00E94340EAD
S1131CD081E08093850210927D0210927C0204C000
S1131CE0809185028823E9F0B39B09C0B49B07C0A7
S1131CF00E94B61E0E94E51A89B7846089BF80914C
S1131D007C0290917D028D32914058F010928502B0
S1131D1010927D0210927C0289B78B7F89BF0E944A
S1131D20530C089587B970E0161617068CF420E05A
S1131D3030E080E090E0369A3699FECF44B155B158
S1131D40840F951F2F5F3F4F26173707A1F702C057
S1131D5080E090E00E94E425CB0108950F931F9347
S1131D606AE084E00E94920EBC01990F880B990BE3
S1131D700E9475242AE939E94CEC52E40E94CB23F1
S1131D8020E030E040E250E40E942A2520E030E0E8
S1131D9040EC50E40E942A250E943D247093810265
S1131DA060938002209182023091830226173707C4
S1131DB051F0709383026093820280917E008111BE
S1131DC002C00E94530C6091A0027091A102809104
S1131DD0A2029091A3020E9473240E94972520914D
S1131DE090023091910240919202509193020E948C
S1131DF02A2520E030E040E251E40E94CB230E94F7
S1131E0044246093740270937502809376029093D5
S1131E107702009178021091790220917A02309130
S1131E207B02601771078207930771F06093780251
S1131E307093790280937A0290937B0280917E0062
S1131E40811102C00E94530C1F910F9108958F922B
S1131E509F92AF92BF92EF92FF921F93CF93DF9323
S1131E60EC01E62E413009F06AC060E00E94782758
S1131E70F12CCE0DDF1D60916D0070916E00CE01CE
S1131E800E949527CE0DDF1D60916B0070916C0050
S1131E90CE010E949527CE0DDF1D60916A00CE0110
S1131EA00E947827CE0DDF1D60916900CE010E944B
S1131EB07827CE0DDF1D6091670070916800CE0118
S1131EC00E949527CE0DDF1D60917C00CE010E94FB
S1131ED07827CE0DDF1D60917B00CE010E9478270C
S1131EE0CE0DDF1D60916600CE010E947827CE0DD5
S1131EF0DF1D4091730050917400609175007091E2
S1131F007600CE010E948927CE0DDF1D4091770017
S1131F10509178006091790070917A00CE010E940E
S1131F20892740916F005091700060917100709109
S1131F307200C7018C0F9D1F0E948927AFC04111F9
S1131F40A9C0E62EF12CCE0DDF1DCE010E94722712
S1131F5090936E0080936D00CE0DDF1DCE010E9424
S1131F60722790936C0080936B00CE0DDF1DCE0121
S1131F700E94642780936A00CE0DDF1DCE010E946B
S1131F80642780936900CE0DDF1DCE010E94722765
S1131F909093680080936700CE0DDF1DCE010E94F0
S1131FA0642780937C00CE0DDF1DCE010E94642740
S1131FB080937B00CE0DDF1DCE010E9464278093A9
S1131FC06600CE0DDF1DCE010E946C276093730066
S1131FD0709374008093750090937600CE0DDF1D8E
S1131FE0CE010E946C2760937700709378008093F1
S1131FF0790090937A00C7018C0F9D1F0E946C2773
S113200060936F00709370008093710090937200DE
S113201045C0F12C11E0CE010E946C278090A002F3
S11320209090A102A090A202B090A30286169706F7
S1132030A806B90650F46093A0027093A10280939D
S1132040A2029093A30210937F021F5FCE0DDF1DA7
S1132050153609F723C0433009F54091A002509189
S1132060A1026091A2027091A30280917F029E015D
S11320708E9D200D311D1124C9010E949B27809142
S11320807F028F5F843618F480937F0207C010921A
S11320907F0204C0423009F4BCCFDDCFDF91CF9181
S11320A01F91FF90EF90BF90AF909F908F900895F5
S11320B0CF92DF92EF92FF92CF932BED3FE049E472
S11320C050E4609173007091740080917500909158
S11320D076000E942A256B017C0160917B0070E0F0
S11320E080E090E00E9475249B01AC01C701B60119
S11320F00E94CB236093900270939102809392028A
S1132100909393028DEB97E3A6E8B7E38093940250
S113211090939502A0939602B0939702D09AD19A85
S1132120D29AD39A8C9A8D9ADB9AD89AC59AC69ADF
S1132130C79A379A309A319A329A88E090E00E948E
S11321406427882389F00E940A0B41E064E088E058
S113215090E00E94270FC4E643E064E080E890E04A
S11321600E94270FC150C1F740E064E088E090E08E
S11321700E94270F80917F02843610F010927F0214
S113218042E064E080E890E00E94270F85B58E600D
S113219085BD8EEF83BD83EA8FBD8BE08EBD8091BC
S11321A06D0090916E009BBD8ABD80916B009091F3
S11321B06C0099BD88BD2091660080916700909164
S11321C06800289FB001299F700D112480E090E0E1
S11321D00E9473249B01AC0160E070E084EB93E403
S11321E00E94CB2320916F003091700040917100C8
S11321F0509172000E94CB236093880270938902ED
S113220080938A0290938B020E942E1B0E94B61E1A
S113221080917C000E940F1B0E94E51A78948091A3
S11322207D00811102C00E94B00D85B7886085BF12
S11322308BB780688BBFCF91FF90EF90DF90CF90EA
S11322400895CF938091A6029091A702853B9105B2
S113225030F189B78F7789BF14BC1092A70210920E
S1132260A6021092A5021092A40210928C0210925F
S11322708D0210928E0210928F021092840210929C
S113228098021092990210929A0210929B02F8946A
S113229043E064E080E890E00E94270F7894809106
S11322A0A4029091A502892BE1F16091A40270919E
S11322B0A50280E090E00E94732420919402309162
S11322C0950240919602509197020E942A259B0103
S11322D0AC0160E070E080E89FE30E94CB23609350
S11322E098027093990280939A0290939B0226E637
S11322F036E646E650E40E942A259B01AC01609133
S113230090027091910280919202909193020E94A6
S11323102A2560938C0270938D0280938E02909391
S11323208F02C0916A006C2F70E080E090E00E9400
S1132330752420918C0230918D0240918E0250912F
S11323408F020E94C623882374F46C2F70E080E00F
S113235090E00E94732460938C0270938D028093AA
S11323608E0290938F02CF9108952F923F924F92B5
S11323705F926F927F928F929F92AF92BF92CF9211
S1132380DF92EF92FF920F931F93CF93DF93CDB71A
S1132390DEB72C970FB6F894DEBF0FBECDBF5A013F
S11323A0D22E9C838B837A83698320E048E065E0A6
S11323B080EA9BE00E94961F0E94B61E81E00E9464
S11323C0901B8AE00E94191BC8010E942C2188E1FD
S11323D00E941E1B8AE50E94191B83E890E00E945C
S11323E02C2184E20E941E1B8AE50E94191B88E8A6
S11323F090E00E942C2180E30E941E1B8AE50E942B
S1132400191B8DE890E00E942C21DD2009F467C09F
S11324102D2D30E012161306CCF480E001E010E01C
S1132420A801440F551F3801660C771C660C771CF5
S1132430660C771C8A01060D171D8F5F482F082E26
S1132440000C550B421753075CF302C001E010E087
S113245020E048E065E080EA9BE00E94961F88E265
S11324600E941E1B86E00E94191B82E990E00E94D4
S11324702C212801612C712CC301B2010E94732408
S113248069877A878B879C8769817A8180E090E06D
S11324900E94732429853A854B855C850E94CB2351
S11324A0A30192010E94C52282E30E941E1B86E0C2
S11324B00E94191B87E990E00E942C216B817C818A
S11324C080E090E00E94732429853A854B855C85E1
S11324D00E94CB23A30192010E94C52220C088E25E
S11324E00E941E1B86E00E94191B82E990E00E9454
S11324F02C2169817A8180E090E00E94602182E34E
S11325000E941E1B86E00E94191B87E990E00E942E
S11325102C216B817C8180E090E00E94602184E129
S11325200E941E1B85E00E94191B20E041E16CE023
S113253084E790E00E94961FA114B10491F09501E4
S113254000E0ADECBCEC0E9420269C01369527955A
S113255036952795369527950F5F2115310589F70F
S113256001C000E02B813C8118862115310509F456
S1132570DBC111E001C0182FADECBCEC0E94202699
S11325809C0136952795369527953695279581E0B4
S1132590810F2115310579F71887E12EF12CC70138
S11325A00E9443269E838D831F8297011216130671
S11325B00CF04CC0F50160E070E080E0402F50E08A
S11325C06417750774F50D811E81080F111D87FDB1
S11325D01A959F01ADECBCEC0E9420269695879538
S11325E096958795969587959C01220F331F880FA2
S11325F0991F880F991F880F991F820F931F9F019E
S1132600281B390BD8012C939F01ADECBCEC0E9424
S11326102026FC01F695E795F695E795F695E7955E
S113262007C0AD81BE81A80FB11D87FDBA951C926C
S11326308F818F5F8F83682F082E000C770B18858E
S1132640212F30E0621773070CF4BACF21503109FF
S11326500DE0209F202D112405E0020F11501F834F
S113266011231CF1ED2CF12CED81FE81E10FF11D04
S113267017FDFA956081062E000C770B880B990BD9
S11326800E9460218F81082E000C990B8E159F05E6
S113269039F4DD2029F08FE592E00E942C210B5FB4
S11326A01F8111501F831123FCF64CE0400F24E2DC
S11326B064E1802F0E94BF1E0E94E51A0E947A0DD9
S11326C08111FCCF00E0ED2CF12C0F2EFDE0CF2E7C
S11326D0F02D0F2EF3EF5F2EF02D0F2EF9E06F2E5D
S11326E0F02D0E947A0D882309F412C1813009F07B
S11326F078C00F5F202F002E000C330B888590E0EC
S11327002817390709F0BCC00E947A0D8111FCCF4B
S113271024E241E164E185E00E94BF1E10E00E94D2
S11327207A0D882399F1833021F411507AF512E05F
S11327302DC0823029F41F5F133044F110E026C00D
S1132740813021F5111116C000E021E244E765E172
S113275086E50E943C1E2DE244E761E286E50E9484
S11327603C1E29E344E76DE286E50E943C1E0E947C
S1132770E51A86C0113009F4D4C0123039F49E0130
S11327802F5F3F4F19010E94C00AE4C000E021E21C
S113279044E765E186E50E943C1E2DE244E761E2E0
S11327A086E50E943C1E29E344E76DE286E50E942B
S11327B03C1E612F660F610F660F660F21E2260F24
S11327C06B5E0FEF44E786E50E943C1E0E94E51A0B
S11327D00E947A0D8111FCCF0E947A0D8823E1F3C7
S11327E09ECF833031F5802E002E000C9908ED81A8
S11327F0FE81E80DF91D708081E0870D8083ED81F5
S1132800FE81E80DF91D80818A300CF01082CE0122
S113281001961C010E94C00A2B813C8128173907AC
S113282008F48CC029813A818217930708F486C082
S113283027C0823029F5802E002E000C9908ED81E6
S1132840FE81E80DF91D70808FEF870D8083ED8187
S1132850FE81E80DF91D808188230CF46082DE017D
S113286011961D010E94C00A2B813C81281739074B
S113287008F46AC029813A818217930708F464C076
S113288084E10E941E1B85E00E94191B88858150EB
S11328908F83882304F1ED81FE81E80FF11D87FD0C
S11328A0FA956081062E000C770B880B990B0E9419
S11328B060218F81082E000C990B8E159F0531F431
S11328C0DD2021F08FE592E00E942C218F81815040
S11328D08F83882304F788858150059D902D1124CA
S11328E08C9D900D112485E0890FDD2049F0202F67
S11328F0002E000C330B2E153F0514F48AE0890FCB
S11329004CE0480F24E264E10E94BF1E0E94E51AD5
S11329100E947A0D8111FCCF0E947A0D8823E1F385
S1132920E0CE8A2D9B2D16C080E090E00E944326C5
S11329309E838D838FEF8F8308EFB7CEED81FE8169
S1132940E80DF91D70829CCFED81FE81E80DF91D23
S1132950708296CF2C960FB6F894DEBF0FBECDBF13
S1132960DF91CF911F910F91FF90EF90DF90CF9067
S1132970BF90AF909F908F907F906F905F904F909B
S11329803F902F9008950E94B61E20E048E065E035
S113299080EA9BE00E94961F81E00E94901B84E0E5
S11329A00E94191B8CE990E00E942C218AE10E946C
S11329B0191B60918C0270918D0280918E0290910E
S11329C08F022AE030E040E050E00E94C52282E01D
S11329D00E94901B84E00E94191B80EA90E00E94F0
S11329E02C218AE10E94191B60919802709199022E
S11329F080919A0290919B022AE030E040E050E0FE
S1132A000E94C52283E00E94901B84E00E94191B4F
S1132A1084EA90E00E942C218AE10E94191B6091B3
S1132A209C0270919D02072E000C880B990B0E944A
S1132A30602184E00E94901B84E00E94191B88EAB4
S1132A4090E00E942C218AE10E94191B6091860269
S1132A507091870280E090E00E94602185E00E94EE
S1132A60901B84E00E94191B8CEA90E00E942C21A8
S1132A708AE10E94191B60919E02062E000C770BBE
S1132A80880B990B0E94602186E00E94901B84E0D1
S1132A900E94191B80EB90E00E942C218AE10E9485
S1132AA0191B6091A0027091A1028091A2029091E1
S1132AB0A3020E9460210E94E51A08950E94581002
S1132AC080917E00811102C00E94530C0E94AE0EC0
S1132AD00E9421110E94460D80917E00811103C045
S1132AE00E94440E02C00E94C3140E947A0D8823DF
S1132AF069F30E947C15EACF80917302863054F00A
S1132B00809172028F5F80937202109273028230FE
S1132B10D9F424C088235CF480917202815080939C
S1132B20720295E090937302823071F408C0809130
S1132B307202823049F48091730284307CF01092E6
S1132B407202109273020AC080917202882334F4D4
S1132B5082E08093720283E0809373020E94B61E27
S1132B6020E048E065E080EA9BE00E94961F8091A7
S1132B707202811189C08AE00E94191B81E00E94BF
S1132B80901B84EB90E00E942C2185E50E94191B88
S1132B9060916B0070916C0080E090E00E94602175
S1132BA08AE00E94191B82E00E94901B8DEB90E04A
S1132BB00E942C2185E50E94191B60916D00709183
S1132BC06E0080E090E00E9460218AE00E94191B60
S1132BD083E00E94901B87EC90E00E942C2185E505
S1132BE00E94191B609173007091740080917500AC
S1132BF09091760028EE33E040E050E00E94C52238
S1132C008AE00E94191B84E00E94901B8FEC90E0E4
S1132C100E942C2185E50E94191B60917700709118
S1132C2078008091790090917A0028EE33E040E0BA
S1132C3050E00E94C5228AE00E94191B85E00E9490
S1132C40901B85ED90E00E942C2185E50E94191BC4
S1132C5060917B0070E080E090E00E9460218AE057
S1132C600E94191B86E00E94901B8DED90E00E944B
S1132C702C2185E50E94191B6091660070E080E0BC
S1132C8090E00E946021AAC0813009F07AC08AE0F5
S1132C900E94191B81E00E94901B87EE90E00E9425
S1132CA02C2185E50E94191B60916A0070E080E088
S1132CB090E00E9460218AE00E94191B82E00E9439
S1132CC0901B81EF90E00E942C2185E50E94191B46
S1132CD060916F007091700080917100909172000A
S1132CE028EE33E040E050E00E94C5228AE00E94D2
S1132CF0191B83E00E94901B89EF90E00E942C2115
S1132D0085E50E94191B609167007091680080E05E
S1132D1090E00E9460218AE00E94191B84E00E94D6
S1132D20901B82E091E00E942C2185E50E94191BF2
S1132D306091690070E080E090E00E9460218AE088
S1132D400E94191B85E00E94901B8EE091E00E9476
S1132D502C2185E50E94191B60917C0070E080E0C5
S1132D6090E00E9460218AE00E94191B86E00E9484
S1132D70901B8BE191E00E942C2185E50E94191B98
S1132D802DC0823059F58AE00E94191B81E00E940F
S1132D90901B86E291E00E942C2185E50E94191B7C
S1132DA08AE00E94191B82E00E94901B86E391E056
S1132DB00E942C218AE00E94191B83E00E94901B30
S1132DC085E491E00E942C218AE00E94191B84E092
S1132DD00E94901B83E591E00E942C216091730274
S1132DE0660F660F660F2FE0260F695F4FE780E0DE
S1132DF00E94BF1E0E94E51A0E947A0D8111FCCF29
S1132E000E947A0D8823E1F3813009F04CC380914C
S1132E107202082E000C990BFC01EE0FFF1FE80F45
S1132E20F91FEE0FFF1F80917302E80FF11D87FD5C
S1132E30FA95E031F10508F045C3E65DFF4F0C94C7
S1132E401A2640916B0050916C0008E511E020E0D7
S1132E5060E070E080E094E00E94B51120916B0086
S1132E6030916C008217930709F42CC390936C0083
S1132E7080936B0041E064E088E090E00E94270FBB
S1132E8021C340916D0050916E0007E611E020E0EF
S1132E9060E070E080E094E00E94B51120916D0044
S1132EA030916E008217930709F40CC390936E005F
S1132EB080936D0041E064E088E090E00E94270F79
S1132EC001C320E030E04AE754E46091730070915C
S1132ED0740080917500909176000E942A250E94CA
S1132EE0442407E711E023E0AB0166E970E08CEDD0
S1132EF095E00E94B511BC0180E090E00E9473242B
S1132F006B017C0120E030E04AE754E460917300F7
S1132F107091740080917500909176000E942A252A
S1132F209B01AC01C701B6010E94C623882309F4A2
S1132F30C9C220E030E04AE754E4C701B6010E9468
S1132F40CB23609373007093740080937500909307
S1132F50760041E064E088E090E00E94270FB2C26E
S1132F6020E030E04AE754E4609177007091780003
S1132F708091790090917A000E942A250E9444242D
S1132F800AE811E023E0AB0166E970E088EE93E023
S1132F900E94B511BC0180E090E00E9473246B0193
S1132FA07C0120E030E04AE754E4609177007091BE
S1132FB078008091790090917A000E942A259B01E3
S1132FC0AC01C701B6010E94C623882309F47AC262
S1132FD020E030E04AE754E4C701B6010E94CB2365
S1132FE060937700709378008093790090937A00CF
S1132FF041E064E088E090E00E94270F63C24091C2
S11330007B0050E005E911E020E061E070E080E140
S113301090E00E94B51120917B0030E08217930765
S113302009F450C280937B0041E064E088E090E0C2
S11330300E94270F47C24091660050E006EA11E063
S113304020E061E070E082E090E00E94B511209100
S1133050660030E08217930709F434C28093660057
S113306041E064E088E090E00E94270F2BC2409189
S11330706A0050E005EB11E020E068E270E080E9CE
S113308091E00E94B51120916A0030E08217930705
S113309009F418C280936A0041E064E088E090E09B
S11330A00E94270F0FC220E030E04AE754E4609109
S11330B06F007091700080917100909172000E9475
S11330C02A250E94442403EC11E023E0AB0164E6CA
S11330D070E080EA9FE00E94B511BC0180E090E0BE
S11330E00E9473246B017C0120E030E04AE754E441
S11330F060916F00709170008091710090917200E6
S11331000E942A259B01AC01C701B6010E94C62377
S1133110882309F4D7C120E030E04AE754E4C7012A
S1133120B6010E94CB2360936F007093700080936C
S113313071009093720041E064E088E090E00E94A6
S1133140270FC0C1409167005091680004ED11E061
S113315020E060E170E080E991E00E94B5112091E7
S11331606700309168008217930709F4ABC190930C
S113317068008093670041E064E088E090E00E948A
S1133180270FA0C14091690050E008EE11E020E053
S113319062E370E08FEF90E00E94B5112091690026
S11331A030E08217930709F48DC18093690041E0F0
S11331B064E088E090E00E94270F84C140917C0085
S11331C050E00EE011E020E06AE070E08FEF90E064
S11331D00E94B51120917C0030E08217930709F416
S11331E071C180937C000E940F1B41E064E088E081
S11331F090E00E94270F66C190917E0081E08927AC
S113320080937E000E947A0D8111FCCF0E945E158E
S11332100E94B00D57C10E94B61E82E00E94901B0E
S11332208DE20E94191B86EF91E00E942C2184E01C
S11332300E94901B82E20E94191B8CEF91E00E9475
S11332402C2186E00E94901B8CE10E94191B86E0D1
S113325092E00E942C2184E50E94191B89E092E0EF
S11332600E942C21F12C0F2EFBE3EF2EF02D14E104
S1133270D9E6C1E0FE9C802D11244EE2480F0FEFE9
S113328029E36DE28C5E0E943C1EF11003C04D2FB9
S11332908FE402C04EE2812F00E029E36DE20E9438
S11332A03C1E0E94E51A0E947A0D8111FCCF0E94F7
S11332B07A0D9EEF980F923030F4FC260E947A0D1E
S11332C08111FCCFD7CF813091F7FF2009F4FAC0E8
S11332D00E94B61E81E00E94901B88E00E94191B88
S11332E08DE092E00E942C2183E00E94901B82E0FA
S11332F00E94191B8FE192E00E942C210E94E51A82
S11333001092A0021092A1021092A2021092A302A3
S1133310C12CD12C7601C39443E064E080E890E0B2
S11333200E94270F83E50E94191BC701B6010E9462
S113333060218DE292E00E942C2164E670E080E03E
S113334090E00E9460210E94E51A8FEFC81AD80A03
S1133350E80AF80A85E6C816D104E104F104E1F6A6
S113336086E00E94901B8DE20E94191B8FE292E07E
S11333700E942C210E94E51A0E947A0D8111FCCF33
S11333800E947A0D8823E1F39DC00E94B61E82E05C
S11333900E94901B88E20E94191B85E392E00E9420
S11333A02C2184E00E94901B84E10E94191B8DE370
S11333B092E00E942C2186E00E94901B8CE10E94E6
S11333C0191B86E092E00E942C2184E50E94191BBF
S11333D089E092E00E942C21F12C0F2EFBE3EF2ECA
S11333E0F02DC4E119E6D1E0FE9C802D11244EE2BB
S11333F0480F0FEF29E36DE28C5E0E943C1EF11032
S113340003C0412F8FE402C04EE28C2F00E029E379
S11334106DE20E943C1E0E94E51A0E947A0D811101
S1133420FCCF0E947A0D9EEF980F923030F4FD2667
S11334300E947A0D8111FCCFD7CF813091F7FF2004
S113344009F440C00E94B61E83E00E94901B88E0ED
S11334500E94191B8DE492E00E942C210E94E51A1F
S11334600E940A0B41E064E088E090E00E94270F8C
S113347085E00E94901B8DE20E94191B8FE292E06E
S11334800E942C210E94E51A0E947A0D8111FCCF22
S11334900E947A0D8823E1F315C00E947A0D8111F0
S11334A0FCCF0E945E15823031F4809173028F5FED
S11334B08093730207C0833029F480917302815092
S11334C0809373020E947A0D8823E1F30E947C1595
S11334D066956695669590E8699FB0011124680F1A
S11334E0711DFB01EE54FD4F40830895669566956A
S11334F0669590E8699FB0011124680F711DFB0166
S1133500EE54FD4F80810895FF920F931F93CF9344
S1133510DF93C82F062F172FF42E0E9442230E94F8
S11335203F23883031F0803121F081E08093A8027C
S113353033C088E70E9450230E943F23883131F032
S1133540803221F081E08093A80226C08C2F0E9453
S113355050230E943F23883219F4F11007C01AC087
S11335608033D9F381E08093A80216C0C02FD12FF5
S11335708E010F5F1F4FFA940F0D111D89910E9448
S113358050230E943F23883211F0803319F4C0176E
S1133590D107A1F71092A8020E944A23DF91CF918C
S11335A01F910F91FF900895CF93DF931F92CDB792
S11335B0DEB7898341E0BE016F5F7F4F80E00E94E8
S11335C0841A0F90DF91CF910895CF93DF9381E216
S11335D00E94D41A80E00E94D41A8FE70E94D41A61
S11335E082E20E94D41A80E00E94D41A87E00E94EA
S11335F0D41AC0E0D0E0BE0162957295707F762740
S1133600607F76276E547D4F40E180E40E94841AE7
S11336102196C034D10579F7DF91CF910895CF93E6
S1133620C82F81E80E94D41A8C2F0E94D41ACF91FB
S11336300895882314F08093A90208959091AA0212
S1133640903410F48093AA020895CF93C62F0E9459
S1133650191B8C2F0E941E1BCF9108950E943523A5
S11336608EEA0E94D41A85ED0E94D41A80EF0E943B
S1133670D41A88EA0E94D41A8FE30E94D41A83EDE4
S11336800E94D41A80E00E94D41A8DE80E94D41AB1
S113369084E10E94D41A80E40E94D41A80E20E9439
S11336A0D41A80E00E94D41A81EA0E94D41A88ECC9
S11336B00E94D41A8AED0E94D41A82E10E94D41A7C
S11336C081E80E94D41A8FEF0E94D41A89ED0E94D7
S11336D0D41A81EF0E94D41A8BED0E94D41A80E28E
S11336E00E94D41A84EA0E94D41A86EA0E94D41A48
S11336F08EE20E94D41A8FEA0E94D41A60E080E01D
S11337000E94251B86EA8093AB021092B0021092AD
S1133710AF021092AE021092AA021092A90208956A
S1133720883028F4880F880F880F8093AA020895A0
S11337308091A90208958F929F92AF92BF92CF92E7
S1133740DF92EF92FF920F931F93CF93DF93062F95
S1133750142F0E94251BD091AA02C091A9026D2F9B
S11337608C2F0E94761A1F3F91F4902F9770812C12
S1133770912C540183947501640104C0CC0CDD1CAC
S1133780EE1CFF1C9A95D2F7482F4C2913C00770E2
S1133790C12CD12C7601C394B701A60104C0440FF7
S11337A0551F661F771F0A95D2F78A019B01009562
S11337B0482F40236D2F8C2F0E94681ADF91CF91E0
S11337C01F910F91FF90EF90DF90CF90BF90AF903B
S11337D09F908F9008953F924F925F926F927F9245
S11337E08F929F92AF92BF92CF92DF92EF92FF920D
S11337F00F931F93CF93DF93982E88230CF4C6C0A6
S113380044230CF4C3C0603408F0C0C0203408F072
S1133810BDC011E0812E861A820E181B140F462F8C
S11338204770762E741AE82CF12C88E090E0841B03
S11338309109E816F9067CF488E090E08E199F0956
S11338402FEF30E0590102C0B594A7948A95E2F7AE
S11338508A2D682C04C088E0682E641A8FEFA82E85
S1133860B12C02C0AA0CBB1C4A95E2F73A2C672D76
S1133870892D0E94251B1123C9F1512C0F2EFAEA20
S1133880CF2EF2E0DF2EF02DC9EAD2E0A094F601AB
S11338904080B880642D8B2D0E94761A0F3F19F456
S11338A0482F432902C0482F4A219B2D9F5F9883AC
S11338B0642D8B2D0E94681A53945112E8CF16C0C0
S11338C0C85F6C2F892D0E94251B1123F1F07A2CDF
S11338D0F6016081F2018081982F9F5F9083402FD1
S11338E00E94681A7394711681F0F2CFC72D67187D
S11338F0A12C0F2EFAEACF2EF2E0DF2EF02D0F2EA0
S1133900F9EA4F2EF2E05F2EF02D262D2C0FE22F38
S1133910F0E0CF010896E816F90694F62815B0F5FC
S1133920EE1AFF0A8FEF90E09C0102C0220F331FB2
S1133930EA94E2F77901E0946C2F685F892D0E9484
S1133940251B112319F1B12C0F2EFAEACF2EF2E028
S1133950DF2EF02DC9EAD2E09E2C9094F601A080CF
S1133960F8806A2D8F2D0E94761A0F3F19F4482F84
S11339704E2902C0482F49219F2D9F5F98836A2DAD
S11339808F2D0E94681AB394B112E8CFDF91CF91C2
S11339901F910F91FF90EF90DF90CF90BF90AF9069
S11339A09F908F907F906F905F904F903F9008957D
S11339B02F923F924F925F926F927F928F929F923B
S11339C0AF92BF92CF92DF92EF92FF920F931F9329
S11339D0CF93DF93CDB7DEB72C970FB6F894DEBF45
S11339E00FBECDBF5C01662E29832091A9022F83CF
S11339F03091AA023A87822F860F1AF480E8682E43
S1133A00621A842F90E007969595879595958795EA
S1133A10959587958D839E839A859695969596958B
S1133A20890F893048F02D813E81285F3F4FA901DD
S1133A30481B51095E834D834A8457E045228D819A
S1133A409E81892B09F4FAC09A859C83712C262CBB
S1133A50312C512C88E090E0FC01E419F109FB833E
S1133A60EA830F2EFAEACF2EF2E0DF2EF02D09EAD8
S1133A7012E06C818F810E94251B39862886729CF6
S1133A80C001739C900D11247C01E218F308662098
S1133A9009F43CC09C012A0D3B1D852C3C872B87D7
S1133AA0EB85FC859490042C01C0990C0A94EAF7E8
S1133AB0772079F0F501EE0DFF1D2FEFE21AF20ADF
S1133AC0849190E00A8002C0959587950A94E2F764
S1133AD0982A3981313039F4F6016081F801808106
S1133AE00E94761A982AF6016081F8018081982F45
S1133AF09F5F9083492D0E94681A83942B853C858F
S1133B002F5F3F4F3C872B878610CACFE1EBF2E053
S1133B108081882341F0F6016081F80180810E9450
S1133B20761A482F01C0452DF6016081F801808185
S1133B300E94681AFC81F85FFC837394872D90E0DF
S1133B402D813E818217930708F493CF22303105EB
S1133B5008F474C06F2F8F810E94251B272D30E03D
S1133B602150310948855985249FC001259F900D16
S1133B70349F900D1124662009F43EC04501880E3F
S1133B80991E65015FEFC51AD50A6A94C60CD11C4B
S1133B90C80ED91E0F2EFAEAEF2EF2E0FF2EF02DFA
S1133BA009EA12E088E090E05C01A418B10834014D
S1133BB0F7018080F8019080682D892D0E94761A83
S1133BC0F301449150E00A2C02C0559547950A949C
S1133BD0E2F7482BF981F13009F4482B892D8F5FE6
S1133BE0F8018083682D892D0E94681AFFEF6F1AEF
S1133BF07F0A6C147D04E1F68091B102882399F068
S1133C00813041F46091AA028091A9020E94761A3F
S1133C10482F0AC06091AA028091A9020E94761AD4
S1133C20482F409501C040E06091AA02E9EAF2E021
S1133C308081982F9F5F90830E94681A0E94981B2E
S1133C406A850E94251B2C960FB6F894DEBF0FBE22
S1133C50CDBFDF91CF911F910F91FF90EF90DF9037
S1133C60CF90BF90AF909F908F907F906F905F9018
S1133C704F903F902F900895DF92EF92FF920F9311
S1133C801F93CF93DF93E82E162FD42EF22ED02F2E
S1133C9088230CF449C044230CF446C0603408F073
S1133CA043C08FE3821708F43FC04E1500F11CC0D7
S1133CB04D2F612F8C2F0E949B1BCF5F0C17C0F7D9
S1133CC0DE14D8F017C04D2F6F2D8C2F0E949B1B34
S1133CD0CF5F0C17C0F7F11698F01CC00D2F4D2DB7
S1133CE08D2D0E94EB1B20C0042FCE2DE1CF0E2D75
S1133CF0C42FDECF0D2DCE2DE6CF0E2DCD2DE3CF4F
S1133D000D2F212F4E2D6F2D8E2D0E94EB1B212F59
S1133D106F2DE4CF0D2F2F2D4E2D612F8E2D0E9450
S1133D20EB1B2F2D612FDACFDF91CF911F910F91D4
S1133D30FF90EF90DF9008950F931F93CF93DF933D
S1133D40182FD0E000E00BC0412F6D2F8C2F0E9464
S1133D50681ACF5FC038C1F7D85FD03411F0C02FD4
S1133D60F3CFDF91CF911F910F91089580E00E94CE
S1133D709C1E08950F930E94EB1B0F9108952F92A0
S1133D803F925F926F927F928F929F92AF92BF9277
S1133D90CF92DF92EF92FF920F931F93CF93DF9313
S1133DA0C82E81E0D82EDC18D40EB82EB61AB20E66
S1133DB0462F4770A62EA41A0B2D10E088E090E041
S1133DC0841B9109081719077CF488E090E0801B94
S1133DD0910B2FEF30E0B90102C0759567958A9574
S1133DE0E2F7CB015B2C04C088E0582E541A8FEF05
S1133DF0682E01C0660C4A95EAF76A2D8C2D0E9444
S1133E00251BDD20D9F1812C0F2EFAEAEF2EF2E0EA
S1133E10FF2EF02DC9EAD2E0F70170809880672D5B
S1133E20892D0E94761A992D9F5F9883482F4625E5
S1133E30672D892D0E94681A83948D10EDCF1EC0C2
S1133E40C85F6C2F8C2D0E94251BDD2039F1672C57
S1133E50F7015080F1018080652D882D0E94761A2B
S1133E60982D9F5FF1019083482F4095652D882DF3
S1133E700E94681A63946D1489F0EACFCA2D5A1807
S1133E80A52C712C0F2EFAEAEF2EF2E0FF2EF02D66
S1133E900F2EF9EA2F2EF2E03F2EF02D8A2D8C0FF3
S1133EA0E82FF0E0DF0118960A171B074CF68B1574
S1133EB058F50E1B1F0B8FEF90E09C0102C0220FE0
S1133EC0331F0A95E2F7B22EB0946C2F685F8C2DE5
S1133ED00E94251BDD20C1F0E12C0AEA12E0C9EAA8
S1133EE0D2E0F801C080F8806C2D8F2D0E94761AE4
S1133EF09F2D9F5F9883482F4B256C2D8F2D0E94FB
S1133F00681AE394ED10EDCFDF91CF911F910F91DB
S1133F10FF90EF90DF90CF90BF90AF909F908F90E5
S1133F207F906F905F903F902F9008956623F4F0F8
S1133F304034E0F42230D0F49093AD028093AC028C
S1133F406093AE024093AF0250E041505109CA0160
S1133F5099230CF40796959587959595879595954E
S1133F6087958F5F8093B0022093B10208952F92BA
S1133F703F924F925F926F927F928F929F92AF92F5
S1133F80BF92CF92DF92EF92FF920F931F93CF9342
S1133F90DF93CDB7DEB72B970FB6F894DEBF0FBE15
S1133FA0CDBF2091A9022C833091AA023F83909126
S1133FB0B00280522091AE02299F900111242F5FFC
S1133FC03F4F829FA001839F500D1124598748873A
S1133FD04F5F5F4F5E834D83E091AC02F091AD0281
S1133FE0A885B985EA0FFB1F54907F80B7E07B2238
S1133FF0992309F492C0EF81EB83312C212C88E0C2
S113400090E09C01271931093A8329830F2EF1EBA3
S11340108F2EF2E09F2EF02D0F2EFAEAAF2EF2E053
S1134020BF2EF02D09EA12E0672C752C6B818C8170
S11340300E94251B4D815E81430D511D5B874A877C
S11340407A0151E0E51AF108772009F44FC00F2EE8
S1134050F0EBCF2EF2E0DF2EF02D832D362C672CE3
S1134060722C582EACEAB2E02D913C91EA85FB8586
S1134070E20FF31FE4914E2E032C01C0440C0A946A
S1134080EAF7552081F0F901EE0DFF1D249130E08F
S1134090098002C0359527950A94E2F7422AF60171
S11340A08081E80EF11CD4018C91813039F4F50142
S11340B06081D8018C910E94761A482AF5016081AA
S11340C0D8018C91982F9F5F9C93442D0E94681A6D
S11340D0F60180812A853B85280F311D3B872A877D
S11340E073947610BFCF762C632C352CD4018C912D
S11340F0811107C0422DF5016081D8018C910E9485
S1134100681ABB81B85FBB8333948091B0023816C0
S113411008F48CCF572C762C03C0EF81EB83312C21
S11341202F81229526952695237030E08091AF0249
S1134130829586958695837090E0FF818F0F911DFF
S11341402817390709F469C06B818C810E94251BEB
S113415028853985230D311D3A832983552009F497
S113416051C0312C0F2EFAEAAF2EF2E0BF2EF02D03
S113417009EA12E00F2EFCEACF2EF2E0DF2EF02D3A
S113418088E090E0AC01471951093A010F2EF1EB98
S1134190EF2EF2E0FF2EF02D0F2EF0EB8F2EF2E03B
S11341A09F2EF02DD5012C90F8014080622D842D96
S11341B00E94761AD601ED91FC9129813A81E20F91
S11341C0F31F449150E0062C02C0559547950A947C
S11341D0E2F7482BD7019C91913009F4482B842DA8
S11341E08F5FF8018083622D842D0E94681AD401A8
S11341F08C91E981FA81E80FF11DFA83E983339404
S11342003510D0CF8091B102811107C040E0609198
S1134210AA028091A9020E94681A8C818F5F6F8123
S1134220850D0E94251B2B960FB6F894DEBF0FBE9A
S1134230CDBFDF91CF911F910F91FF90EF90DF9051
S1134240CF90BF90AF909F908F907F906F905F9032
S11342504F903F902F900895EF92FF920F931F93EA
S1134260CF93DF93EC018881882319F19091A902FF
S11342702091AE0230E0290F311D20383105CCF4F5
S113428021960F2EF9EAEF2EF2E0FF2EF02D0EEA22
S113429012E00AC0F7019081F801208130E0290F73
S11342A0311D203831052CF40E94B71F89918111EA
S11342B0F1CFDF91CF911F910F91FF90EF9008956F
S11342C00F931F93CF93DF93CDB7DEB72C970FB621
S11342D0F894DEBF0FBECDBF611571058105910550
S11342E021F480E30E94B71F45C161157105810562
S11342F020E8920709F43EC1FE0131962CE0DF016B
S11343001D922A95E9F720E32B872A872987288796
S11343102F832E832D832C832B832A832983992314
S11343205CF49B01AC0188279927DC01821B930B69
S1134330A40BB50B41E003C0DC01CB0140E08130AC
S11343403AEC93073AE9A3073BE3B30794F02A81D5
S11343502F5F01C0232F9A5CAA49BB43322F3F5FD2
S113436081305AEC95075AE9A5075BE3B50794F742
S11343702A83811521EE920725EFA20725E0B207D3
S113438094F02B812F5F01C0232F915EA54FB54080
S1134390322F3F5F811551EE950755EFA50755E084
S11343A0B50794F72B83803826E9920728E9A207FA
S11343B0B10594F02C812F5F01C0232F80589649BA
S11343C0A849B109322F3F5F803856E9950758E96B
S11343D0A507B10594F72C83803422E492072FE0DB
S11343E0A207B10594F02D812F5F01C0232F8054C3
S11343F09244AF40B109322F3F5F803452E49507B5
S11344005FE0A507B10594F72D83803A26E892076B
S113441021E0A207B10594F02E812F5F01C0232F64
S1134420805A9648A140B109322F3F5F803A56E83E
S1134430950751E0A507B10594F72E83803127E253
S11344409207A105B1058CF02F812F5F01C0232FA6
S113445080519742A109B109322F3F5F803157E261
S11344609507A105B1059CF72F83883E23E09207A9
S1134470A105B1058CF028852F5F01C0232F885E2C
S11344809340A109B109322F3F5F883E53E095075D
S1134490A105B1059CF7288784369105A105B105CE
S11344A084F029852F5F01C0232F84569109A10927
S11344B0B109322F3F5F84369105A105B105A4F7F8
S11344C029878A309105A105B1057CF02A852F5FE3
S11344D001C0232F0A97A109B109322F3F5F8A3007
S11344E09105A105B105ACF72A87181619061A0615
S11344F01B065CF45B858C019D01015011092109A7
S11345003109D9F7652F680F6B878981803361F48E
S113451080E08F5FE1E0F0E0EC0FFD1FE80FF11D9C
S113452090819033B1F301C080E0442331F0815095
S1134530FE01E80FF11D9DE291834AE0481B20E053
S113454090E0E1E0F0E0EC0FFD1FE20FF11DDF0170
S1134550A80FB91F3C9130832F5F421790F7E1E019
S1134560F0E0EC0FFD1FE20FF11D1082CE01019669
S11345700E942C212C960FB6F894DEBF0FBECDBF3F
S1134580DF91CF911F910F9108958F929F92AF92D7
S1134590BF92CF92DF92EF92FF926B017C014901AF
S11345A05A0120E030E0A9010E94C62381110AC00B
S11345B080E30E94B71F8EE20E94B71F80E30E942F
S11345C0B71F4AC020E030E040E05FECC701B6010D
S11345D00E94252588230CF43FC020E030E040E011
S11345E05FE4C701B6010E94C6238823ACF520E02E
S11345F030E0A901C701B6010E94C62388233CF418
S1134600F7FAF094F7F8F0948DE20E94B71FC7010F
S1134610B6010E943D240E9460218EE20E94B71FD1
S1134620C701B6010E9444240E9473249B01AC017B
S1134630C701B6010E9459236B017C01C501B40175
S11346400E9473249B01AC01C701B6010E942A2574
S11346500E943D240E946021FF90EF90DF90CF9054
S1134660BF90AF909F908F900895A19AA09AA99A15
S1134670A89A11B88CE080B984E086BF089581B10E
S1134680887F089584EA86BF06B607FEFDCF0E94A0
S11346903F23089585ED86BF06B604FCFDCF08953B
S11346A083B984E886BF06B607FEFDCF0E943F2388
S11346B008955058BB27AA270E9471230C94EB2419
S11346C00E94DD2438F00E94E42420F039F49F3F56
S11346D019F426F40C94DA240EF4E095E7FB0C9418
S11346E0D424E92F0E94FC2458F3BA1762077307F5
S11346F08407950720F079F4A6F50C941E250EF492
S1134700E0950B2EBA2FA02D0B01B90190010C01DD
S1134710CA01A0011124FF27591B99F0593F50F4F5
S1134720503E68F11A16F040A22F232F342F44274D
S1134730585FF3CF469537952795A795F040539545
S1134740C9F77EF41F16BA0B620B730B840BBAF015
S11347509150A1F0FF0FBB1F661F771F881FC2F780
S11347600EC0BA0F621F731F841F48F48795779594
S11347706795B795F7959E3F08F0B0CF9395880F4E
S113478008F09927EE0F9795879508950E94B02415
S113479008F481E008950E94DF230C94EB240E9426
S11347A0E42458F00E94DD2440F029F45F3F29F00E
S11347B00C94D42451110C941F250C94DA240E94D7
S11347C0FC2468F39923B1F3552391F3951B550BFE
S11347D0BB27AA2762177307840738F09F5F5F4FD0
S11347E0220F331F441FAA1FA9F335D00E2E3AF00F
S11347F0E0E832D091505040E695001CCAF72BD027
S1134800FE2F29D0660F771F881FBB1F2617370777
S11348104807AB07B0E809F0BB0B802DBF01FF27A9
S113482093585F4F3AF09E3F510578F00C94D4248E
S11348300C941F255F3FE4F3983ED4F38695779557
S11348406795B795F7959F5FC9F7880F911D969562
S1134850879597F90895E1E0660F771F881FBB1FBE
S1134860621773078407BA0720F0621B730B840B6B
S1134870BA0BEE1F88F7E09508950E9444246894CB
S1134880B1110C941F2508950E94042588F09F57A8
S113489098F0B92F9927B751B0F0E1F0660F771F60
S11348A0881F991F1AF0BA95C9F714C0B13091F056
S11348B00E941E25B1E008950C941E25672F782FC1
S11348C08827B85F39F0B93FCCF38695779567951B
S11348D0B395D9F73EF490958095709561957F4F87
S11348E08F4F9F4F0895E89409C097FB3EF490952D
S11348F08095709561957F4F8F4F9F4F9923A9F0B5
S1134900F92F96E9BB279395F69587957795679543
S1134910B795F111F8CFFAF4BB0F11F460FF1BC087
S11349206F5F7F4F8F4F9F4F16C0882311F096E91A
S113493011C0772321F09EE8872F762F05C06623C8
S113494071F096E8862F70E060E02AF09A95660F81
S1134950771F881FDAF7880F9695879597F908953A
S1134960990F0008550FAA0BE0E8FEEF161617067C
S1134970E807F907C0F012161306E407F50798F0E4
S1134980621B730B840B950B39F40A2661F0232BFD
S1134990242B252B21F408950A2609F4A140A69579
S11349A08FEF811D811D089597F99F6780E870E05E
S11349B060E008959FEF80EC089500240A94161691
S11349C0170618060906089500240A9412161306F9
S11349D0140605060895092E0394000C11F4882387
S11349E052F0BB0F40F4BF2B11F460FF04C06F5FA3
S11349F07F4F8F4F9F4F089557FD9058440F551F79
S1134A0059F05F3F71F04795880F97FB991F61F04C
S1134A109F3F79F087950895121613061406551FC3
S1134A20F2CF4695F1DF08C0161617061806991F2F
S1134A30F1CF86957105610508940895E894BB2724
S1134A4066277727CB0197F908950E94B02408F4CC
S1134A508FEF08950E943D250C94EB240E94DD24E1
S1134A6038F00E94E42420F0952311F00C94D4240F
S1134A700C94DA2411240C941F250E94FC2470F356
S1134A80959FC1F3950F50E0551F629FF001729FEF
S1134A90BB27F00DB11D639FAA27F00DB11DAA1FFE
S1134AA0649F6627B00DA11D661F829F2227B00D4B
S1134AB0A11D621F739FB00DA11D621F839FA00DD6
S1134AC0611D221F749F3327A00D611D231F849F26
S1134AD0600D211D822F762F6A2F11249F5750407D
S1134AE09AF0F1F088234AF0EE0FFF1FBB1F661FF8
S1134AF0771F881F91505040A9F79E3F510580F0C1
S1134B000C94D4240C941F255F3FE4F3983ED4F313
S1134B10869577956795B795F795E7959F5FC1F764
S1134B20FE2B880F911D9695879597F908950E94FD
S1134B300425E8F09E37E8F09639B8F49E3848F436
S1134B40672F782F8827985FF9CF86957795679593
S1134B5093959539D0F3B62FB1706B0F711D811DEC
S1134B6020F487957795679593950C94BB250C94C1
S1134B70D6250C941F25882371F4772321F09850AF
S1134B80872B762F07C0662311F499270DC0905107
S1134B90862B70E060E02AF09A95660F771F881FD5
S1134BA0DAF7880F9695879597F908959F3F31F026
S1134BB0915020F4879577956795B795880F911D47
S1134BC09695879597F9089597FB072E16F4009408
S1134BD007D077FD09D00E942F2607FC05D03EF4AC
S1134BE0909581959F4F0895709561957F4F089595
S1134BF0A1E21A2EAA1BBB1BFD010DC0AA1FBB1FDD
S1134C00EE1FFF1FA217B307E407F50720F0A21B4E
S1134C10B30BE40BF50B661F771F881F991F1A94BB
S1134C2069F760957095809590959B01AC01BD01E5
S1134C30CF010895EE0FFF1F0590F491E02D099424
S1134C40A29FB001B39FC001A39F700D811D1124C9
S1134C50911DB29F700D811D1124911D0895AA1BF1
S1134C60BB1B51E107C0AA1FBB1FA617B70710F053
S1134C70A61BB70B881F991F5A95A9F78095909585
S1134C80BC01CD0108950F931F93CF93DF9382301E
S1134C90910510F482E090E0E091B406F091B5063D
S1134CA020E030E0A0E0B0E0309719F1408151817C
S1134CB00281138148175907C8F08417950769F4CE
S1134CC0109731F012960C93129713961C9327C0E9
S1134CD00093B4061093B50622C02115310519F0CE
S1134CE04217530718F49A01BD01EF01DF01F801DF
S1134CF0DBCF21153105F9F0281B390B24303105A0
S1134D0080F48A819B816115710521F0FB019383F5
S1134D10828304C09093B5068093B406FE01329654
S1134D2044C0FE01E20FF31F819391932250310995
S1134D30398328833AC02091B2063091B306232BDD
S1134D4041F420916200309163003093B3062093C4
S1134D50B20620916000309161002115310541F4C3
S1134D602DB73EB74091640050916500241B350B6C
S1134D70E091B206F091B306E217F307A0F42E1BFC
S1134D803F0B2817390778F0AC014E5F5F4F2417AB
S1134D90350748F04E0F5F1F5093B3064093B20699
S1134DA08193919302C0E0E0F0E0CF01DF91CF91D5
S1134DB01F910F910895CF93DF93009709F481C059
S1134DC0FC01329713821282A091B406B091B50609
S1134DD0109781F420813181820F931F2091B206B4
S1134DE03091B3062817390751F5F093B306E093D1
S1134DF0B20667C0ED0120E030E0CE17DF0740F4D3
S1134E004A815B819E0141155105F1F0EA01F5CF1C
S1134E10D383C28340815181840F951FC817D9075A
S1134E2059F488819981840F951F02969183808318
S1134E308A819B81938382832115310529F4F09320
S1134E40B506E093B4063DC0E901FB83EA834991CA
S1134E505991C40FD51FEC17FD0761F4808191812E
S1134E60840F951F0296E901998388838281938137
S1134E709B838A83E0E0F0E012968D919C911397D6
S1134E80009719F0FD01DC01F7CF8D919C911197EA
S1134E909D012E5F3F4F820F931F2091B2063091E8
S1134EA0B3062817390769F4309729F41092B50628
S1134EB01092B40602C013821282B093B306A09378
S1134EC0B206DF91CF910895E199FECF9FBB8EBBCF
S1134ED0E09A99278DB30895A6E1B0E044E050E04C
S1134EE00C94AA27A8E1B0E042E050E00C94AA2771
S1134EF0262FE199FECF9FBB8EBBE09A01970DB29E
S1134F00021631F02DBB0FB6F894E29AE19A0FBE67
S1134F1008950396272F0E9479270E947827252F2A
S1134F200E947927242F0C9479270196272F0E9419
S1134F3079270C947827242F0E94B927252F0E94C3
S1134F40B9270C94A3270E94B827272F0C94B927BC
S1134F50DC01CB01FC01E199FECF06C0FFBBEEBB37
S1134F60E09A31960DB20D9241505040B8F7089531
S1134F70262FE199FECF9FBB8EBB2DBB0FB6F894B5
S1114F80E29AE19A0FBE01960895F894FFCFCD
S1134F8E0000B606200002600096BE000400043342
S1134F9E33A33F3333333F0000803F06FA010156FB
S1134FAE00300045646974004261636B005361769E
S1134FBE65006D696E3A006D61783A005370640055
S1134FCE46727100537470006E537400506873000F
S1134FDE545274004469616C2050574D00417272F2
S1134FEE6F772050574D00576865656C204400520A
S1134FFE6174696F004D61676E65747300537465F7
S113500E70206D6F6465004D617820737065656402
S113501E004465672F6B6D6800534D207374657083
S113502E73005374657020696E7465722E004C4360
S113503E4420636F6E7472617374004465627567A5
S113504E206D6F64650043616C69627261746520E2
S113505E6172726F77004F646F6D65746572207242
S113506E65736574004C6F61642064656661756C6C
S113507E74730045786974004469616C206C6967C7
S113508E68742050574D004172726F77206C6967B7
S113509E68742050574D00576865656C20446961EB
S11350AE6D6574657220286D2900476561722072E2
S11350BE6174696F004D61676E657473206F6E2045
S11350CE776865656C00312D66756C6C2C20322DFD
S11350DE68616C66004D6178696D756D20737065DD
S11350EE6564004465677265657320706572206B34
S11350FE6D2F680053746570706572206D6F746FD8
S113510E72207374657073005374657020696E74C5
S113511E657276616C005245534554004F444F4DB1
S113512E455445523F004E4F005945530052455386
S113513E4554494E47204F444F4D45544552004324
S113514E656C6C7320636C6561726564002F00443A
S113515E4F4E452100524553544F52450044454647
S113516E41554C542076616C7565733F004C4F412C
S113517E44494E472044454641554C54532E2E2EF9
S113518E0005060A020100080406020004060200D5
S105519E040007
S9030000FC
