:100000000C94B0080C94CD080C949B090C94CD086A
:100010000C9469090C94CD080C94CD080C94CD086F
:100020000C94CD080C9480090C9431090C94CD08E3
:100030000C94CD080C94CD080C94CD080C94CD08EC
:100040000C94CD080C94CD080C94CD080C94CD08DC
:100050000C94CD081200FE7F00C0FFFF07F8FFFFE1
:100060001FFC01803F3E00007C0E0000700F00006E
:10007000F0070000E0070000E0070000E00F0000CC
:10008000F00E0000703E00007CFC01803FF8FFFF96
:100090001FE0FFFF0300FE7F00000000001200FED3
:1000A0007F00C0FFFF07F8FFFF1FFC01803F3E00FD
:1000B000007C0E0000700F0000F0070000E0070059
:1000C00000E0070000E00F0000F00E0000703E00AE
:1000D000007CFC01803FF8FFFF1FE0FFFF0300FEF4
:1000E0007F00000000001200FE7F00C0FFFF07F845
:1000F000FFFF1FFC01803F3E00007C0E0000700FE0
:100100000000F0070000E0070000E0070000E00F3B
:100110000000F00E0000703E00007CFC01803FF803
:10012000FFFF1FE0FFFF0300FE7F00000000001242
:1001300000FE7F00C0FFFF07F8FFFF1FFC01803FAC
:100140003E00007C0E0000700F0000F0070000E091
:10015000070000E0070000E00F0000F00E00007054
:100160003E00007CFC01803FF8FFFF1FE0FFFF0323
:1001700000FE7F00000000001200FE7F00C0FFFFB5
:1001800007F8FFFF1FFC01803F3E00007C0E0000CF
:10019000700F0000F0070000E0070000E00700001B
:1001A000E00F0000F00E0000703E00007CFC0180BB
:1001B0003FF8FFFF1FE0FFFF0300FE7F000000008D
:1001C000001200FE7F00C0FFFF07F8FFFF1FFC01C9
:1001D000803F3E00007C0E0000700F0000F0070022
:1001E00000E0070000E0070000E00F0000F00E0054
:1001F00000703E00007CFC01803FF8FFFF1FE0FF25
:10020000FF0300FE7F00000000001200FE7F00C020
:10021000FFFF07F8FFFF1FFC01803F3E00007C0E40
:100220000000700F0000F0070000E0070000E0078A
:100230000000E00F0000F00E0000703E00007CFCAB
:1002400001803FF8FFFF1FE0FFFF0300FE7F00007B
:100250000000001200FE7F00C0FFFF07F8FFFF1F35
:10026000FC01803F3E00007C0E0000700F0000F09B
:10027000070000E0070000E0070000E00F0000F0CA
:100280000E0000703E00007CFC01803FF8FFFF1F65
:10029000E0FFFF0300FE7F00000000001200FE7F71
:1002A00000C0FFFF07F8FFFF1FFC01803F3E00007A
:1002B0007C0E0000700F0000F0070000E007000057
:1002C000E0070000E00F0000F00E0000703E0000AC
:1002D0007CFC01803FF8FFFF1FE0FFFF0300FE7F73
:1002E00000000000001200FE7F00C0FFFF07F8FFC3
:1002F000FF1FFC01803F3E00007C0E0000700F00DD
:1003000000F0070000E0070000E0070000E00F0039
:1003100000F00E0000703E00007CFC01803FF8FF02
:10032000FF1FE0FFFF0300FE7F000000000012003F
:10033000FE7F00C0FFFF07F8FFFF1FFC01803F3E6C
:1003400000007C0E0000700F0000F0070000E007C6
:100350000000E0070000E00F0000F00E0000703E1B
:1003600000007CFC01803FF8FFFF1FE0FFFF03005F
:10037000FE7F00000000001200FE7F00C0FFFF07AC
:10038000F8FFFF1FFC01803F3E00007C0E00007064
:100390000F0000F0070000E0070000E0070000E0A9
:1003A0000F0000F00E0000703E00007CFC01803F5A
:1003B000F8FFFF1FE0FFFF0300FE7F0000000000CA
:1003C0001200FE7F00C0FFFF07F8FFFF1FFC018047
:1003D0003F3E00007C0E0000700F0000F0070000A0
:1003E000E0070000E0070000E00F0000F00E000052
:1003F000703E00007CFC01803FF8FFFF1FE0FFFF24
:100400000300FE7F00000000001200FE7F00C0FF1E
:10041000FF07F8FFFF1FFC01803F3E00007C0E003D
:1004200000700F0000F0070000E0070000E0070088
:1004300000E00F0000F00E0000703E00007CFC01A8
:10044000803FF8FFFF1FE0FFFF0300FE7F0000007A
:100450000000090000000000000000000000000093
:100460000000F0000000F0000000F00000000000BC
:10047000000000000000000000000000000000007C
:10048000000000000000000000000000000000006C
:1004900000000000000000000000001200FE7F00CD
:1004A000C0FFFF07F8FFFF1FFC01803F3E00007CFC
:1004B0000E0000700F0000F0070000E0070000E0F1
:1004C000070000E00F0000F00E0000703E00007C0E
:1004D000FC01803FF8FFFF1FE0FFFF0300FE7F00ED
:1004E000000000001200FE7F00C0FFFF07F8FFFFC2
:1004F0001FFC01803F3E00007C0E0000700F0000DA
:10050000F0070000E0070000E0070000E00F000037
:10051000F00E0000703E00007CFC01803FF8FFFF01
:100520001FE0FFFF0300FE7F00000000001200003C
:1005300000000000000000000000000E00000007A6
:10054000000080030000C0030000E0010000F8008C
:100550000000FEFFFFFFFFFFFFFFFFFFFFFF0000A8
:10056000000000000000000000000000000000008B
:1005700000000000000012C00100E0F00100F8FCE3
:100580000100FE3C0000FF1E0080EF0F00C0E707E7
:1005900000E0E10700F0E0070078E007003CE0073A
:1005A000001FE00F800FE01EC007E03EF803E0FCF4
:1005B000FF00E0F07F00E0C00F00E000000000124C
:1005C000C0008003F000800FFC00801F3E00003E52
:1005D0001E0000780F0000F007E000E007E000E0F8
:1005E00007E000E007E000E00FF000E00EF8017027
:1005F0003EFC0378FCBF073EF89FFF1FE007FE0F9D
:100600000000F80300000000120000F0000000FCF1
:10061000000000FF0000C0FF0000F0E70000F8E16C
:1006200000007EE000801FE000E007E000F801E04D
:10063000007E00E000FFFFFFFFFFFFFFFFFFFFFF67
:10064000FF0000E0000000E0000000E0000000E02B
:10065000001200C0800300FF800FF8FF811FFFFF22
:10066000003EFF780078073800F0071C00E0071C08
:1006700000E0071C00E0071C00E0073C00F0073822
:1006800000700778007C07F0013F07E0FF1F07C0FC
:10069000FF070000FE01000000001200FC7F00C008
:1006A000FFFF07F0FFFF0FF880073E3CC001781EF8
:1006B000E000700E7000F0077000E0077000E007C7
:1006C0007000E0077000E00FF000F00EE001783EEF
:1006D000C0073EFC80FF1FF800FF0FE000FC010098
:1006E00000000012070000000700000007000000E3
:1006F00007000000070000F80700C0FF0700FCFF2C
:100700000780FF0707E03F0007F8070007FE00002B
:10071000871F0000E7070000F70100007F000000CE
:100720001F0000000F00000000000000120000F891
:1007300003E007FE0FF81FFF1FFCBF0F3E3EFC0348
:10074000780EF0017007E000E007E000E007E0004D
:10075000E007E000E00FE000E00EF001703EFC0377
:1007600078FCBF0F3EF81FFF1FE007FE0F0000F8E8
:10077000030000000012C03F0007F0FF001FF8FF59
:10078000013F7CE0037C1E8007700F000FF00F001C
:100790000EE007000EE007000EE007000EE0070085
:1007A0000E700E0007781E80033C7CE0811FF0FF76
:1007B000FF0FE0FFFF0300FE3F000000000000000D
:1007C0000000000000000000000000000000000029
:1007D000000080C0E0F0F8FCFEFFFFFF000000001A
:1007E0000000000000000000000000000000000009
:1007F00000000000000000000000000000000000F9
:1008000000000000000000000000000000000000E8
:1008100000000000000000000000000000000000D8
:1008200000000000000080C0E0F0F8FCFEFFFFFFC9
:10083000FFFFFFFFFFFFFFFFC0C0C0C0C0C0C0C0C0
:10084000C0C0C0C0C0C0C0C0C0C0C0C0C0C0C0C0A8
:10085000C0C0C0C0C0C0C0C0C0C0C0C0C0C0C0C098
:10086000C0C0C0C0C0C0C0C0C0C0C0C0C0C0C0C088
:10087000C0C0C0C0C0C00000000080C0E0F0F8FCF4
:10088000FEFFFFFFFFFFFFFFFFFFFFFFFFFFFFFF79
:10089000FFFFFFFFFFFFFFFFFFFFFFFFFFFFFFFF68
:1008A000FFFFFFFFFFFFFFFFFFFFFFFFFFFFFFFF58
:1008B000FFFFFFFFFFFFFFFFFFFFFFFFFFFFFFFF48
:1008C000FFFFFFFFFFFFFFFFFFFFFFFFFFFFFFFF38
:1008D000FFFF081C3E7FFFFFFFFFFFFFFFFFFFFF43
:1008E000FFFFFFFFFFFFFFFFFFFFFFFFFFFFFFFF18
:1008F000FFFFFFFFFFFFFFFFFFFFFFFFFFFFFFFF08
:10090000FFFFFFFFFFFFFFFFFFFFFFFFFFFFFFFFF7
:10091000FFFFFFFFFFFFFFFFFFFFFFFFFFFFFFFFE7
:10092000FFFFFFFFFFFFFFFFFFFFFFFFFFFF0000D5
:100930000000000103070F1F3F7FFFFFFFFFFFFFC6
:10094000FFFFFFFFFFFFFFFFFFFFFFFFFFFFFFFFB7
:10095000FFFFFFFFFFFFFFFFFFFFFFFFFFFFFFFFA7
:10096000FFFFFFFFFFFFFFFFFFFFFFFFFFFFFFFF97
:10097000FFFFFFFFFFFFFFFFFFFFFFFFFFFFFFFF87
:10098000FFFFFFFFFFFFFFFFFFFF00000000000071
:10099000000000000000000103070F1F3F7FFFFF62
:1009A000FFFFFFFFFFFFFFFF010101010101010147
:1009B0000101010101010101010101010101010127
:1009C0000101010101010101010101010101010117
:1009D0000101010101010101010101010101010107
:1009E0000101010101010000000000000000000001
:1009F00000000000000000000000000103070F1FBE
:100A00003F7F7F7F0000000000000000000000002A
:100A100000000000000000000000000000000000D6
:100A200000000000000000000000000000000000C6
:100A300000000000000000000000000000000000B6
:100A400000000000000000000000000000000000A6
:100A50000000000000000000000000000000000096
:100A60000000000000000000000000000000000086
:100A70000000000000000000000000000000000076
:100A8000FFFFFFFEFCF8F0E0C08000000000000067
:100A90000000000000000000000000000000C0C0D6
:100AA000C0C0C0C0C0C0C0C0C0C0C0C0C0C0C0C046
:100AB000C0C0C0C0C0C0C0C0C0C0C0C0C0C0C0C036
:100AC000C0C0C0C0C0C0C0C0C0C0C0C0C0C0C0C026
:100AD000C0C0C0C0C0C0C0C0C0C0C0C0FFFFFFFF1A
:100AE000FFFFFFFFFFFFFFFEFCF8F0E0C08000000B
:100AF00000000000000000000000FFFFFFFFFFFFFC
:100B0000FFFFFFFFFFFFFFFFFFFFFFFFFFFFFFFFF5
:100B1000FFFFFFFFFFFFFFFFFFFFFFFFFFFFFFFFE5
:100B2000FFFFFFFFFFFFFFFFFFFFFFFFFFFFFFFFD5
:100B3000FFFFFFFFFFFFFFFFFFFFFFFFFFFFFFFFC5
:100B4000FFFFFFFFFFFFFFFFFFFFFFFEFCF8F0E0EE
:100B5000C08000000000FFFFFFFFFFFFFFFFFFFF5F
:100B6000FFFFFFFFFFFFFFFFFFFFFFFFFFFFFFFF95
:100B7000FFFFFFFFFFFFFFFFFFFFFFFFFFFFFFFF85
:100B8000FFFFFFFFFFFFFFFFFFFFFFFFFFFFFFFF75
:100B9000FFFFFFFFFFFFFFFFFFFFFFFFFFFFFFFF65
:100BA000FFFFFFFFFFFFFFFFFFFFFFFFFFFF7F3E96
:100BB0001C08FFFFFFFFFFFFFFFFFFFFFFFFFFFF1F
:100BC000FFFFFFFFFFFFFFFFFFFFFFFFFFFFFFFF35
:100BD000FFFFFFFFFFFFFFFFFFFFFFFFFFFFFFFF25
:100BE000FFFFFFFFFFFFFFFFFFFFFFFFFFFFFFFF15
:100BF000FFFFFFFFFFFFFFFFFFFFFFFFFFFFFFFF05
:100C0000FFFF7F3F1F0F07030100000000000101ED
:100C100001010101010101010101010101010101C4
:100C200001010101010101010101010101010101B4
:100C300001010101010101010101010101010101A4
:100C4000010101010101010101010101FFFFFFFF9C
:100C5000FFFFFFFFFFFF7F3F1F0F070301000000A3
:100C60000000000000000000000000000000000084
:100C70000000000000000000000000000000000074
:100C80000000000000000000000000000000000064
:100C90000000000000000000000000000000000054
:100CA00000000000000000007F7F7F3F1F0F070350
:100CB0000100000000000000000000000000000033
:100CC000000000000000008080808084FCFEFEFEAA
:100CD000FEFEFEFEFEFC0000000000000000000022
:100CE00080C0E0F0F8FCFCFEFEFFFFFFFFFFFFFF0F
:100CF000FFFFFFFFFFFFFFFFFFFEFEFCFCF8F0E041
:100D0000C08000000000000000000000FCFEFEFEAD
:100D1000FEFEFEFEFEFC8080808080001F3F3F3F85
:100D20003F3F7FFFFFFFFFFFFFFFFFF9F0E0C080C5
:100D30000000000000FEFFFFFFFFFFFFFFFFFFFFBF
:100D4000FFFFFFFFFFFFFFFFFFFFFFFFFFFFFFFFB3
:100D5000FFFFFFFFFFFFFFFFFE000000000080C05D
:100D6000E0F0F9FFFFFFFFFFFFFFFF7F3F3F3F3F47
:100D70003F1F00000000000000000103070F1F3F9D
:100D80007F7F7F7F7F7F7F7E0000007FFFFFFFFFF1
:100D9000FF3F1F1F1F1F1F1F1F3FFFFFFFFFFFFF03
:100DA0003F1F1F1F1F1F1F1F3FFFFFFFFFFF7F0072
:100DB00000007E7F7F7F7F7F7F7F3F1F0F070301C4
:100DC0000000000000000000000000000000000023
:100DD000000000000080C0E0F0F0F0F0F0F0F0F073
:100DE00000000101FFFFFFF0E0E0E0E0E0E0E0F004
:100DF0000F0F0F0F0F0FF0E0E0E0E0E0E0E0F0FF9A
:100E0000FFFF01010000F0F0F0F0F0F0F0F0E0C0C2
:100E10008000000000000000000000000000000052
:100E2000C0E0E0E0E0E0F0F8FCFEFFFFFFFFFFFFC6
:100E30007F3F1F0F0703000000000303031F1F1F56
:100E4000FFFFFFFFFFFFFCF8F8F8F8FCFFFFFFFFD4
:100E5000FFFF1F1F1F0303030000000003070F1FF6
:100E60003F7FFFFFFFFFFFFFFEFCF8F0E0E0E0E068
:100E7000E0C000000000070F0F0F0F0FFFFFFFFF84
:100E8000FFFFFFFFFFFC000000000000000000006B
:100E90000000003E7E7EF0F0E087878303030303BB
:100EA0000303838787E0F0F07E7E3E0000000000B1
:100EB0000000000000000000FCFFFFFFFFFFFFFF3D
:100EC000FFFF0F0F0F0F0F070000000000000000D2
:100ED000000000010101010101010100000000000A
:100EE00000000000000000000000000000010307F7
:100EF0000F0F0F0F0F0F0F0F0F0F07030100000051
:100F000000000000000000000000000000000001E0
:100F100001010101010101000000000000000000CA
:100F20000500000000000500005F0000050007004C
:100F3000070005147F147F1405242A7F2A12052335
:100F4000130864620536495620500508070300005F
:100F500005001C224100050041221C000514083E2A
:100F600008140508083E08080500B07000000508D0
:100F70000808080805006060000005201008040249
:100F8000053E5149453E0500427F400005724949F2
:100F90004946052141494D33051814127F10052794
:100FA00045454539053C4A49493105412111090763
:100FB00005364949493605464949291E05000014A8
:100FC000000005004034000005081422410005140B
:100FD00014141414054122140800050201590906CD
:100FE000053E415D594E057C1211127C057F494931
:100FF0004936053E41414122057F4141413E057F41
:1010000049494949057F09090909053E414151738B
:10101000057F0808087F0500417F41000520404109
:101020003F01057F08142241057F40404040057F75
:10103000020C027F057F0408107F053E4141413EBE
:10104000057F09090906053E4151215E057F091901
:1010500029460526494949320501017F0101053F1D
:101060004040403F051F2040201F053F4038403F83
:1010700005631408146305030478040305615149EA
:10108000454305007F41410005020408102005008A
:1010900041417F00050402010204054040404040F8
:1010A00005070B000000052054547840057F2844B4
:1010B000443805384444442805384444287F0538DA
:1010C000545454180500087E09020518A4A49C78FD
:1010D000057F080404780500447D40000520404059
:1010E0003D00057F102844000500417F4000057C3D
:1010F00004780478057C08040478053844444438AE
:1011000005FC182424180518242418FC057C080460
:1011100004080548545454240504043F4424053C61
:101120004040207C051C2040201C053C4030403CB9
:10113000054428102844054C9090907C0544645444
:101140004C4405000836410005000077000005000A
:101150004136080005040204080405007F417F00B1
:1011600011241FBECFE5D8E0DEBFCDBF10E0A0E662
:10117000B0E0E0E6FBE302C005900D92A63FB107A8
:10118000D9F725E0A6EFB0E001C01D92A433B20765
:10119000E1F70E9404110C94AE1D0C940000909194
:1011A0000C01992381F0909120019F5F9093200181
:1011B00020911E0130911F012F5F3F4F30931F017F
:1011C00020931E010FC09091200191509093200117
:1011D00020911E0130911F012150310930931F01D0
:1011E00020931E0181110EC08091200188231CF4E0
:1011F00083E08093200180912001843034F11092AB
:10120000200123C08130E1F48091200188231CF467
:1012100087E0809320018091200188302CF010928B
:10122000200102C08BBB0895E09120018BB3807F29
:101230000E2E000CFF0BE651FF4F9081892BF2CF51
:10124000809120018BB3807FEDCFE09120018BB3A3
:10125000807F0E2E000CFF0BEE50FF4F9081892BEC
:10126000E1CF1F920F920FB60F9211242F933F934D
:101270004F935F936F937F938F939F93AF93BF939E
:10128000EF93FF93809160000E94CF0820911E0190
:1012900030911F0180911001909111012817390799
:1012A00039F41092210113BE1CBE89B78D7F89BF0E
:1012B000FF91EF91BF91AF919F918F917F916F912E
:1012C0005F914F913F912F910F900FBE0F901F9004
:1012D00018951F920F920FB60F9211248F939F9320
:1012E0008091280190912901019690932901809382
:1012F00028019F918F910F900FBE0F901F9018950E
:101300001F920F920FB60F9211248F939F9380918B
:101310000F01882349F080910A0190910B010196F9
:1013200090930B0180930A019F918F910F900FBEB4
:101330000F901F9018951F920F920FB60F921124C5
:101340002F933F934F935F938F939F93AF93BF934D
:1013500080910E01882369F1409128015091290163
:1013600024B534E1349FC001359F900D1124820FC4
:10137000911D909327018093260114BC109229019E
:101380001092280181E08093780080912201909151
:101390002301A0912401B09125010196A11DB11D49
:1013A0008093220190932301A0932401B0932501FF
:1013B00007C089B7806889BF14BC81E080930E01A3
:1013C000BF91AF919F918F915F914F913F912F91DD
:1013D0000F900FBE0F901F9018958F929F92AF9213
:1013E000BF92CF92DF92EF92FF920F931F93CF9312
:1013F000DF9380910F018111FAC00E94B0160FEFA8
:1014000027E144E26BE08AE00E94361624E146E2DE
:101410006EE085E20E9436168091FB009091FC0000
:101420008936910534F025E140E16DE08CE00E94C1
:10143000B4168091FB009091FC008E3691053CF033
:101440000FEF25E146E16DE082E10E94B416809144
:10145000FB009091FC00833791053CF00FEF25E1F4
:101460004CE16DE088E10E94B4168091FB00909100
:10147000FC00883791053CF00FEF25E142E26DE07A
:101480008EE10E94B4166FE08BE20E948A1220E087
:1014900048E065E080E29FE00E94B9166091FB00A1
:1014A0007091FC00072E000C880B990B0E94981B72
:1014B00020E030E040E251E40E94EE1A2AE030E001
:1014C00040E050E00E94E81986EA90E00E944F1840
:1014D00020E040E262E184E590E00E94B9166FE10D
:1014E00084E00E948A128090060190900701A090EB
:1014F0000801B090090184E688169104A104B104A2
:1015000070F0C501B4012AE030E040E050E00E94F4
:101510001B1D211531054105510529F45FC024E645
:1015200030E040E050E0C0E00F2EFAE0CF2ED12CAA
:10153000E12CF12CF02DCA01B901A70196010E94FE
:101540003D1DCF5F2115310541055105A1F784E609
:1015500088169104A104B10408F041C004E010E031
:10156000C0E0D0E089E790E00E944F182196C017B4
:10157000D107C4F3609106017091070180910801C1
:10158000909109010E94961B20E030E048EC52E463
:101590000E94EE1A2AE030E040E050E00E94E81994
:1015A00020E048E065E080E29FE00E94B91660E03C
:1015B00080E40E948A12609112017091130180915F
:1015C0001401909115012AE030E040E050E00E94C3
:1015D000E8190E944A120E944A1209C0C0E006E0BF
:1015E00010E00C1B11091016110624F6B9CFDF917B
:1015F000CF911F910F91FF90EF90DF90CF90BF9010
:10160000AF909F908F90089580916000811119C0D4
:101610002091FE003091FF004091000150910101A6
:101620006091120170911301809114019091150144
:101630000E94EE1A0E94671B7093110160931001C3
:101640001AC08130C1F42091FE003091FF0040911A
:10165000000150910101609112017091130180917C
:101660001401909115010E94EE1A0E94671B70935D
:1016700011016093100180911E0190911F01209132
:10168000100130911101821B930B181619061CF4DE
:1016900010920C0105C021E020930C01892B71F000
:1016A00081E08093210183B78D6083BF80916300C7
:1016B0008CBF89B7826089BF0E94ED090895B59BF0
:1016C00008C0B69B06C0B79B04C01092FD0080E026
:1016D0000895B59913C08091FD0081113DC02FEF91
:1016E00080E792E0215080409040E1F700C0000088
:1016F000B59904C081E08093FD002EC0B69913C057
:101700008091FD00811126C02FEF80E792E02150EB
:1017100080409040E1F700C00000B69904C082E02C
:101720008093FD0017C0B79912C08091FD00811110
:101730000EC02FEF80E792E0215080409040E1F70B
:1017400000C00000B79903C083E08093FD00809142
:10175000FD00089586B3FBCFB69BFCCFE4CF80910C
:10176000F700882314F41092F7008091F600863079
:1017700044F08091F7008F5F8093F7001092F6009D
:1017800019C088235CF48091F70081508093F700A2
:1017900095E09093F600823069F408C08091F700DC
:1017A000823041F48091F600823024F01092F700EC
:1017B0001092F6000E94B0168091F600880F880FF4
:1017C000880F2FE0280F67E0680F0FEF45E080E0FB
:1017D0000E94B4168091F600880F880F880F2FE0C2
:1017E000280F67E0680F4FE78AE70E94B416609100
:1017F000F600660F660F660F6A5F262F4FE780E0E0
:101800000E94A1156091F600660F660F660F605F7B
:10181000262F4FE780E00E94A11521E048E065E017
:1018200080E29FE00E94B9168091F700811194C078
:101830008AE00E947E1281E00E94F5128BE790E020
:101840000E944F188BE40E947E1260916600709196
:10185000670080E090E00E9483188AE00E947E1278
:1018600082E00E94F51283E890E00E944F188BE41A
:101870000E947E12609168007091690080E090E0A3
:101880000E9483188AE00E947E1283E00E94F51273
:101890008BE890E00E944F188BE40E947E126091CA
:1018A0006E0070916F00809170009091710024E63D
:1018B00030E040E050E00E94E8198AE00E947E1289
:1018C00084E00E94F51282E990E00E944F188BE4B8
:1018D0000E947E126091720070917300809174007A
:1018E0009091750024E630E040E050E00E94E81955
:1018F0008AE00E947E1285E00E94F51288E990E05D
:101900000E944F188BE40E947E126091760070E076
:1019100080E090E00E9483188AE00E947E1286E0B8
:101920000E94F51280EA90E00E944F188BE40E941A
:101930007E126091640070E080E090E00E94981B4D
:1019400020E030E040E251E40E94EE1A2AE030E06C
:1019500040E050E00E94E8198091F700813009F0E2
:1019600065C08AE00E947E1281E00E94F51288EA3A
:1019700090E00E944F188BE40E947E1260916500F7
:1019800070E080E090E00E9483188AE00E947E125E
:1019900082E00E94F51282EB90E00E944F188BE4E7
:1019A0000E947E1260916A0070916B0080916C00C1
:1019B00090916D0028EE33E040E050E00E94E8197D
:1019C0008AE00E947E1283E00E94F5128AEB90E08A
:1019D0000E944F188BE40E947E126091610070910A
:1019E000620080E090E00E9483188AE00E947E12EC
:1019F00084E00E94F5128DEB90E00E944F188BE47A
:101A00000E947E126091630070E080E090E00E948E
:101A100083188AE00E947E1285E00E94F51283EC12
:101A200090E00E944F188BE40E947E128091F70094
:101A30008230A1F48AE00E947E1281E00E94F512B9
:101A40008DEC90E00E944F188AE00E947E1282E0A6
:101A50000E94F5128CED90E00E944F180E944A12ED
:101A60000E945F0B8823E1F3823031F48091F6000D
:101A70008F5F8093F60007C0833029F48091F600D1
:101A800081508093F6000E945F0B8111FCCF0E9471
:101A9000AF0B80916000811105C0209161003091F1
:101AA000620006C02091610030916200220F331F56
:101AB00010921F0110921E0110922001C9013323C0
:101AC0000CF40396959587959595879590931101BC
:101AD0008093100181E080930C018093210183B7F2
:101AE0008D6083BF809163008CBF89B7826089BF9E
:101AF000809121018111FCCF4FEF82E597E04150A9
:101B000080409040E1F700C0000030931F01209317
:101B10001E01109211011092100110920C0181E02F
:101B20008093210183B78D6083BF809163008CBF58
:101B300089B7826089BF809121018111FCCF109209
:101B40001F0110921E01109211011092100181E0EC
:101B500080930D010895882381F00E94B01667E0FC
:101B600086E10E948A122FEF47E36CE582E49AE057
:101B70000E943D140E944A1208950E94B01667E028
:101B800086E10E948A122FEF47E36CE58EEB97E027
:101B90000E943D140E944A1208950E94B01667E008
:101BA0008BE10E948A122FEF44E366E586EC9CE00D
:101BB0000E943D140E944A120895B4990CC0B39B30
:101BC0000AC080E00E94AB0D81E080930F0110926B
:101BD0000B0110920A01B3990FC0B49B0DC081E0B4
:101BE0000E94AB0D81E080930F0110920B011092C7
:101BF0000A01B49B31C033C0B4990CC0B3990AC078
:101C00000E94CD0D81E080930F0110920B01109284
:101C10000A0125C080910F01882319F1B39B09C0E7
:101C2000B49B07C00E94B0160E944A1289B7846014
:101C300089BF80910A0190910B018D32914088F00B
:101C400010920F0110920B0110920A0189B78B7F3D
:101C500089BF0E94ED090895B399E0CFD1CFB39920
:101C6000DFCF089587B970E0161617068CF420E0D0
:101C700030E080E090E0369A3699FECF44B155B11D
:101C8000840F951F2F5F3F4F26173707A1F702C01C
:101C900080E090E00E94071DCB0108958F929F92F3
:101CA000AF92BF92EF92FF921F93CF93DF93EC011D
:101CB000E62E413009F078C060E00E94841DF12CCE
:101CC000CE0DDF1D6091680070916900CE010E9409
:101CD000991DCE0DDF1D6091660070916700CE01E9
:101CE0000E94991DCE0DDF1D60916500CE010E94FE
:101CF000841DCE0DDF1D60916400CE010E94841D05
:101D0000CE0DDF1D60916300CE010E94841DCE0DBB
:101D1000DF1D6091610070916200CE010E94991DEB
:101D2000CE0DDF1D60917700CE010E94841DCE0D87
:101D3000DF1D60917600CE010E94841DCE0DDF1D57
:101D400060916000CE010E94841DCE0DDF1D409188
:101D50006E0050916F006091700070917100CE0123
:101D60000E94911DCE0DDF1D4091720050917300B5
:101D70006091740070917500CE010E94911DCE0D8E
:101D8000DF1D40916A0050916B0060916C00709172
:101D90006D00CE010E94911D6091F800C7018C0F6B
:101DA0009D1F0E94841DBBC04111B5C0E62EF12CC1
:101DB000CE0DDF1DCE010E947E1D909369008093A1
:101DC0006800CE0DDF1DCE010E947E1D909367003E
:101DD00080936600CE0DDF1DCE010E94701D8093A2
:101DE0006500CE0DDF1DCE010E94701D8093640042
:101DF000CE0DDF1DCE010E94701D80936300CE0DBD
:101E0000DF1DCE010E947E1D9093620080936100D1
:101E1000CE0DDF1DCE010E94701D80937700CE0D88
:101E2000DF1DCE010E94701D80937600CE0DDF1D58
:101E3000CE010E94701D80936000CE0DDF1DCE018B
:101E40000E94781D60936E0070936F008093700005
:101E500090937100CE0DDF1DCE010E94781D60931E
:101E60007200709373008093740090937500CE0D90
:101E7000DF1DCE010E94781D60936A0070936B0095
:101E800080936C0090936D00C7018C0F9D1F0E9482
:101E9000701D8093F80043C0F12C13E3CE010E9423
:101EA000781D8090220190902301A0902401B09091
:101EB000250186169706A806B90640F4609322010C
:101EC0007093230180932401909325011150CE0D2E
:101ED000DF1D1111E3CF23C0433009F540912201EA
:101EE0005091230160912401709125018091F800A7
:101EF0009E018E9D200D311D1124C9010E94911D4E
:101F00008091F8008F5F853618F48093F80007C041
:101F10001092F80004C0423009F4BECFDDCFDF914B
:101F2000CF911F91FF90EF90BF90AF909F908F90B7
:101F30000895CF92DF92EF92FF92CF932BED3FE087
:101F400049E450E460916E0070916F0080917000E0
:101F5000909171000E944D1C6B017C016091760094
:101F600070E080E090E00E94981B9B01AC01C701EB
:101F7000B6010E94EE1A60931601709317018093C8
:101F80001801909319018DEB97E3A6E8B7E38093CE
:101F90001A0190931B01A0931C01B0931D01D39AC9
:101FA000D09AD29AD19A8C9A8D9ADB9AD89AC59A5D
:101FB000C69AC79A379A309A319A329A88E090E056
:101FC0000E94701D882379F041E064E088E090E091
:101FD0000E944E0EC3E343E064E080E890E00E947C
:101FE0004E0EC150C1F740E064E088E090E00E94EE
:101FF0004E0E42E064E080E890E00E944E0E85B50F
:102000008E6085BD84E183BD83EA8FBD8BE08EBD8C
:1020100080916800909169009BBD8ABD80916600A7
:102020009091670099BD88BD80916000811123C0A7
:10203000609161007091620080E090E00E94961BC8
:102040009B01AC0160E070E084EB93E40E94EE1A27
:1020500020916A0030916B0040916C0050916D00AE
:102060000E94EE1A6093FE007093FF0080930001BF
:102070009093010124C0813011F56091610070914D
:10208000620080E090E00E94961B9B01AC0160E042
:1020900070E084E393E40E94EE1A20916A0030918C
:1020A0006B0040916C0050916D000E94EE1A60939D
:1020B000FE007093FF0080930001909301010E9445
:1020C00093120E94B016809177000E9474120E94B1
:1020D0004A12789480910D01811102C00E94490D2D
:1020E00085B7886085BF8BB780688BBFCF91FF9025
:1020F000EF90DF90CF900895CF9380912801909139
:102100002901893E9340E4F043E064E080E890E0F8
:102110000E944E0E89B78F7789BF14BC1092290197
:10212000109228011092270110922601109212019C
:1021300010921301109214011092150110920E01C9
:10214000809178008823D1F1809126019091270118
:10215000892BA1F16091260170912701072E000CB7
:10216000880B990B0E94981B20911A0130911B013A
:1021700040911C0150911D010E944D1C9B01AC011E
:1021800060E070E080E89FE30E94EE1A26E636E603
:1021900046E650E40E944D1C209116013091170133
:1021A00040911801509119010E944D1C6093120139
:1021B000709313018093140190931501C0916500F1
:1021C0006C2F70E080E090E00E94981B209112013B
:1021D0003091130140911401509115010E94E91AA8
:1021E000882374F46C2F70E080E090E00E94961BCE
:1021F0006093120170931301809314019093150161
:1022000010927800CF9108950E94990F0E941411A6
:102210000E947C100E94040B0E94DD0D0E945F0B47
:102220008823A1F30E94AF0B0F931F936AE084E011
:102230000E94320EBC01990F880B990B0E94981BCB
:102240002AE939E94CEC52E40E94EE1A20E030E031
:1022500040E250E40E944D1C20E030E040EC50E4AD
:102260000E944D1C0E94601B7093FA006093F9005D
:102270004091640050E0641775070CF041C0F89479
:102280001FBC1EBCDB9AD89ADA9AD99A6091F800E2
:102290008CE390E00E94841D8091640090E0209186
:1022A000F9003091FA002817390744F56AE084E014
:1022B0000E94320EBC01990F880B990B0E94981B4B
:1022C0002AE939E94CEC52E40E94EE1A20E030E0B1
:1022D00040E250E40E944D1C20E030E040EC50E42D
:1022E0000E944D1C0E94601B7093FA006093F900DD
:1022F0002091640030E062177307C4F20E94041159
:102300004091FB005091FC006417750731F0709309
:10231000FC006093FB000E94ED0960912201709126
:10232000230180912401909125010E94961B0E9417
:10233000BA1C20911601309117014091180150915B
:1023400019010E944D1C20E030E040E251E40E945F
:10235000EE1A0E94671B6093020170930301809341
:10236000040190930501009106011091070120914D
:10237000080130910901601771078207930751F036
:1023800060930601709307018093080190930901FF
:102390000E94ED091F910F910895669566956695C7
:1023A00090E8699FB0011124680F711DFB01EC5C7E
:1023B000FE4F4083089566956695669590E8699FFF
:1023C000B0011124680F711DFB01EC5CFE4F808190
:1023D0000895FF920F931F93CF93DF93C82F062F7B
:1023E000172FF42E0E94651A0E94621A883031F06D
:1023F000803121F081E080932A0133C088E70E9478
:10240000731A0E94621A883131F0803221F081E023
:1024100080932A0126C08C2F0E94731A0E94621A90
:10242000883219F4F11007C01AC08033D9F381E063
:1024300080932A0116C0C02FD12F8E010F5F1F4F2E
:10244000FA940F0D111D89910E94731A0E94621A4D
:10245000883211F0803319F4C017D107A1F7109218
:102460002A010E946D1ADF91CF911F910F91FF9069
:102470000895CF93DF931F92CDB7DEB7898341E0F4
:10248000BE016F5F7F4F80E00E94E9110F90DF91E6
:10249000CF910895CF93DF9381E20E94391280E0BB
:1024A0000E9439128FE70E94391282E20E9439128B
:1024B00080E00E94391287E00E943912C0E0D0E02B
:1024C000BE0162957295707F7627607F76276C5C7F
:1024D0007E4F40E180E40E94E9112196C034D1058D
:1024E00079F7DF91CF910895CF93C82F81E80E94AB
:1024F00039128C2F0E943912CF910895882314F03D
:1025000080932B01089590912C01903410F48093C6
:102510002C010895CF93C62F0E947E128C2F0E940B
:102520008312CF9108950E94581A8EEA0E943912A0
:1025300085ED0E94391280EF0E94391288EA0E94CC
:1025400039128FE30E94391283ED0E94391280E024
:102550000E9439128DE80E94391284E10E943912DA
:1025600080E40E94391280E20E94391280E00E94C9
:10257000391281EA0E94391288EC0E9439128AEDE0
:102580000E94391282E10E94391281E80E943912B8
:102590008FEF0E94391289ED0E94391281EF0E945B
:1025A00039128BED0E94391280E20E94391284EABE
:1025B0000E94391286EA0E9439128EE20E94391274
:1025C0008FEA0E94391260E080E00E948A1286EA57
:1025D00080932D011092320110923101109230013E
:1025E00010922C0110922B010895883028F4880F46
:1025F000880F880F80932C01089580912B010895F6
:102600008F929F92AF92BF92CF92DF92EF92FF9202
:102610000F931F93CF93DF93062F142F0E948A12DC
:10262000D0912C01C0912B016D2F8C2F0E94DB11BA
:102630001F3F91F4902F9770812C912C540183941B
:102640007501640104C0CC0CDD1CEE1CFF1C9A95C6
:10265000D2F7482F4C2913C00770C12CD12C76011A
:10266000C394B701A60104C0440F551F661F771F0E
:102670000A95D2F78A019B010095482F40236D2FC0
:102680008C2F0E94CD11DF91CF911F910F91FF9060
:10269000EF90DF90CF90BF90AF909F908F90089574
:1026A0003F924F925F926F927F928F929F92AF92E2
:1026B000BF92CF92DF92EF92FF920F931F93CF932F
:1026C000DF93982E88230CF4C6C044230CF4C3C0B7
:1026D000603408F0C0C0203408F0BDC011E0812E85
:1026E000861A820E181B140F462F4770762E741A06
:1026F000E82CF12C88E090E0841B9109E816F9069B
:102700007CF488E090E08E199F092FEF30E05901AA
:1027100002C0B594A7948A95E2F78A2D682C04C06C
:1027200088E0682E641A8FEFA82EB12C02C0AA0C84
:10273000BB1C4A95E2F73A2C672D892D0E948A121C
:102740001123C9F1512C0F2EFCE2CF2EF1E0DF2E28
:10275000F02DCBE2D1E0A094F6014080B880642D4A
:102760008B2D0E94DB110F3F19F4482F432902C023
:10277000482F4A219B2D9F5F9883642D8B2D0E94AB
:10278000CD1153945112E8CF16C0C85F6C2F892D1C
:102790000E948A121123F1F07A2CF6016081F20175
:1027A0008081982F9F5F9083402F0E94CD1173945A
:1027B000711681F0F2CFC72D6718A12C0F2EFCE205
:1027C000CF2EF1E0DF2EF02D0F2EFBE24F2EF1E0A9
:1027D0005F2EF02D262D2C0FE22FF0E0CF01089672
:1027E000E816F90694F62815B0F5EE1AFF0A8FEFF1
:1027F00090E09C0102C0220F331FEA94E2F77901B6
:10280000E0946C2F685F892D0E948A12112319F1C0
:10281000B12C0F2EFCE2CF2EF1E0DF2EF02DCBE21B
:10282000D1E09E2C9094F601A080F8806A2D8F2D27
:102830000E94DB110F3F19F4482F4E2902C0482F88
:1028400049219F2D9F5F98836A2D8F2D0E94CD1166
:10285000B394B112E8CFDF91CF911F910F91FF9008
:10286000EF90DF90CF90BF90AF909F908F907F9030
:102870006F905F904F903F9008952F923F924F92AC
:102880005F926F927F928F929F92AF92BF92CF9200
:10289000DF92EF92FF920F931F93CF93DF93CDB709
:1028A000DEB72C970FB6F894DEBF0FBECDBF5C012C
:1028B000662E298320912B012F8330912C013A879A
:1028C000822F860F1AF480E8682E621A842F90E017
:1028D00007969595879595958795959587958D8379
:1028E0009E839A85969596959695890F893048F09E
:1028F0002D813E81285F3F4FA901481B51095E830E
:102900004D834A8457E045228D819E81892B09F4AD
:10291000FAC09A859C83712C262C312C512C88E08E
:1029200090E0FC01E419F109FB83EA830F2EFCE23D
:10293000CF2EF1E0DF2EF02D0BE211E06C818F81C4
:102940000E948A1239862886729CC001739C900D61
:1029500011247C01E218F308662009F43CC09C01B4
:102960002A0D3B1D852C3C872B87EB85FC8594909D
:10297000042C01C0990C0A94EAF7772079F0F5014C
:10298000EE0DFF1D2FEFE21AF20A849190E00A800B
:1029900002C0959587950A94E2F7982A39813130DB
:1029A00039F4F6016081F80180810E94DB11982AD8
:1029B000F6016081F8018081982F9F5F9083492DF7
:1029C0000E94CD1183942B853C852F5F3F4F3C8720
:1029D0002B878610CACFE3E3F1E08081882341F0A2
:1029E000F6016081F80180810E94DB11482F01C04F
:1029F000452DF6016081F80180810E94CD11FC8196
:102A0000F85FFC837394872D90E02D813E818217BF
:102A1000930708F493CF2230310508F474C06F2F68
:102A20008F810E948A12272D30E02150310948857C
:102A30005985249FC001259F900D349F900D11242E
:102A4000662009F43EC04501880E991E65015FEFBE
:102A5000C51AD50A6A94C60CD11CC80ED91E0F2EF1
:102A6000FCE2EF2EF1E0FF2EF02D0BE211E088E00A
:102A700090E05C01A418B1083401F7018080F801EE
:102A80009080682D892D0E94DB11F301449150E064
:102A90000A2C02C0559547950A94E2F7482BF98114
:102AA000F13009F4482B892D8F5FF8018083682D60
:102AB000892D0E94CD11FFEF6F1A7F0A6C147D04DF
:102AC000E1F680913301882399F0813041F46091DF
:102AD0002C0180912B010E94DB11482F0AC06091CC
:102AE0002C0180912B010E94DB11482F409501C0E1
:102AF00040E060912C01EBE2F1E08081982F9F5F34
:102B000090830E94CD110E94FD126A850E948A1254
:102B10002C960FB6F894DEBF0FBECDBFDF91CF91DC
:102B20001F910F91FF90EF90DF90CF90BF90AF90EB
:102B30009F908F907F906F905F904F903F902F90DD
:102B40000895BF92CF92DF92EF92FF920F931F935F
:102B5000CF93DF93C82FF62E142F88230CF47CC05C
:102B600044230CF479C08FE3861708F475C0203431
:102B700008F072C0C4130AC0261710F4F22E262FD4
:102B80004C2F6F2D8C2F0E94501366C062130CC007
:102B90004C1708F45DC0402F6F2D8C2F0E9400133E
:102BA000CF5F1C17C0F758C0261728F4A62FB0E037
:102BB000A21BB10904C0A22FB0E0A61BB1091C17CB
:102BC00028F4EC2FF0E0E11BF10904C0E12FF0E064
:102BD000EC1BF109EE24E394EA17FB070CF0E12C5F
:102BE000EE2031F0812F122F282F8C2FCF2DF82E91
:102BF0001C1730F48F2DF22E282F8C2FC12F182F59
:102C0000C12ECC1AF21638F4D22EDF18DC2DD69550
:102C1000BB24B39406C0DF2CD21ADC2DD695BB247E
:102C2000BA941C17C8F0EE2031F0402F6C2F8F2D76
:102C30000E94001305C0402F6F2D8C2F0E9400139F
:102C4000DD1912F4FB0CDC0DCF5F1C1760F704C01C
:102C50008C2FC42F182F9FCFDF91CF911F910F91F1
:102C6000FF90EF90DF90CF90BF900895DF92EF92AA
:102C7000FF920F931F93CF93DF93E82E162FD42E3E
:102C8000F22ED02F88230CF449C044230CF446C004
:102C9000603408F043C08FE3821708F43FC04E153C
:102CA00000F11CC04D2F612F8C2F0E940013CF5FAD
:102CB0000C17C0F7DE14D8F017C04D2F6F2D8C2FD6
:102CC0000E940013CF5F0C17C0F7F11698F01CC0DC
:102CD0000D2F4D2D8D2D0E94501320C0042FCE2D71
:102CE000E1CF0E2DC42FDECF0D2DCE2DE6CF0E2D34
:102CF000CD2DE3CF0D2F212F4E2D6F2D8E2D0E9428
:102D00005013212F6F2DE4CF0D2F2F2D4E2D612F1E
:102D10008E2D0E9450132F2D612FDACFDF91CF918E
:102D20001F910F91FF90EF90DF9008950F931F93E5
:102D3000CF93DF93182FD0E000E00BC0412F6D2F11
:102D40008C2F0E94CD11CF5FC038C1F7D85FD0342F
:102D500011F0C02FF3CFDF91CF911F910F91089504
:102D600080E00E94961608950F930E9450130F91D1
:102D700008956623F4F04034E0F42230D0F49093C8
:102D80002F0180932E01609330014093310150E078
:102D900041505109CA0199230CF4079695958795DE
:102DA00095958795959587958F5F809332012093B0
:102DB000330108952F923F924F925F926F927F92CC
:102DC0008F929F92AF92BF92CF92DF92EF92FF923B
:102DD0000F931F93CF93DF93CDB7DEB72B970FB62B
:102DE000F894DEBF0FBECDBF20912B012C83309114
:102DF0002C013F8390913201805220913001299F14
:102E0000900111242F5F3F4F829FA001839F500D9F
:102E10001124598748874F5F5F4F5E834D83E09150
:102E20002E01F0912F01A885B985EA0FFB1F549060
:102E30007F80B7E07B22992309F492C0EF81EB8376
:102E4000312C212C88E090E09C01271931093A832C
:102E500029830F2EF3E38F2EF1E09F2EF02D0F2EFE
:102E6000FCE2AF2EF1E0BF2EF02D0BE211E0672C5B
:102E7000752C6B818C810E948A124D815E81430D7D
:102E8000511D5B874A877A0151E0E51AF1087720E6
:102E900009F44FC00F2EF2E3CF2EF1E0DF2EF02D1C
:102EA000832D362C672C722C582EAEE2B1E02D917A
:102EB0003C91EA85FB85E20FF31FE4914E2E032C33
:102EC00001C0440C0A94EAF7552081F0F901EE0D97
:102ED000FF1D249130E0098002C0359527950A94A2
:102EE000E2F7422AF6018081E80EF11CD4018C91B0
:102EF000813039F4F5016081D8018C910E94DB1199
:102F0000482AF5016081D8018C91982F9F5F9C938E
:102F1000442D0E94CD11F60180812A853B85280F22
:102F2000311D3B872A8773947610BFCF762C632C94
:102F3000352CD4018C91811107C0422DF50160819F
:102F4000D8018C910E94CD11BB81B85FBB833394B3
:102F500080913201381608F48CCF572C762C03C0A0
:102F6000EF81EB83312C2F812295269526952370B6
:102F700030E080913101829586958695837090E04E
:102F8000FF818F0F911D2817390709F469C06B81E4
:102F90008C810E948A1228853985230D311D3A8340
:102FA0002983552009F451C0312C0F2EFCE2AF2E9D
:102FB000F1E0BF2EF02D0BE211E00F2EFEE2CF2E3E
:102FC000F1E0DF2EF02D88E090E0AC0147195109C7
:102FD0003A010F2EF3E3EF2EF1E0FF2EF02D0F2E2E
:102FE000F2E38F2EF1E09F2EF02DD5012C90F80109
:102FF0004080622D842D0E94DB11D601ED91FC9161
:1030000029813A81E20FF31F449150E0062C02C05F
:10301000559547950A94E2F7482BD7019C9191303A
:1030200009F4482B842D8F5FF8018083622D842D55
:103030000E94CD11D4018C91E981FA81E80FF11D34
:10304000FA83E98333943510D0CF80913301811115
:1030500007C040E060912C0180912B010E94CD11AE
:103060008C818F5F6F81850D0E948A122B960FB61F
:10307000F894DEBF0FBECDBFDF91CF911F910F91AE
:10308000FF90EF90DF90CF90BF90AF909F908F9088
:103090007F906F905F904F903F902F900895EF92A8
:1030A000FF920F931F93CF93DF93EC0188818823C6
:1030B00019F190912B012091300130E0290F311D41
:1030C00020383105CCF421960F2EFBE2EF2EF1E0F3
:1030D000FF2EF02D00E311E00AC0F7019081F80106
:1030E000208130E0290F311D203831052CF40E9459
:1030F000DA1689918111F1CFDF91CF911F910F9154
:10310000FF90EF9008950F931F93CF93DF93CDB768
:10311000DEB72C970FB6F894DEBF0FBECDBF61159A
:1031200071058105910521F480E30E94DA1645C1FD
:1031300061157105810520E8920709F43EC1FE0181
:1031400031962CE0DF011D922A95E9F720E32B87C9
:103150002A87298728872F832E832D832C832B83EF
:103160002A83298399235CF49B01AC018827992742
:10317000DC01821B930BA40BB50B41E003C0DC0107
:10318000CB0140E081303AEC93073AE9A3073BE3F7
:10319000B30794F02A812F5F01C0232F9A5CAA49BC
:1031A000BB43322F3F5F81305AEC95075AE9A507A0
:1031B0005BE3B50794F72A83811521EE920725EF8B
:1031C000A20725E0B20794F02B812F5F01C0232FC7
:1031D000915EA54FB540322F3F5F811551EE9507A7
:1031E00055EFA50755E0B50794F72B83803826E9FE
:1031F000920728E9A207B10594F02C812F5F01C046
:10320000232F80589649A849B109322F3F5F803853
:1032100056E9950758E9A507B10594F72C83803442
:1032200022E492072FE0A207B10594F02D812F5FD1
:1032300001C0232F80549244AF40B109322F3F5F29
:10324000803452E495075FE0A507B10594F72D831C
:10325000803A26E8920721E0A207B10594F02E817A
:103260002F5F01C0232F805A9648A140B109322F09
:103270003F5F803A56E8950751E0A507B10594F7FE
:103280002E83803127E29207A105B1058CF02F81B2
:103290002F5F01C0232F80519742A109B109322F1E
:1032A0003F5F803157E29507A105B1059CF72F8359
:1032B000883E23E09207A105B1058CF028852F5F99
:1032C00001C0232F885E9340A109B109322F3F5FCF
:1032D000883E53E09507A105B1059CF72887843601
:1032E0009105A105B10584F029852F5F01C0232F29
:1032F00084569109A109B109322F3F5F84369105A7
:10330000A105B105A4F729878A309105A105B1056A
:103310007CF02A852F5F01C0232F0A97A109B109EC
:10332000322F3F5F8A309105A105B105ACF72A879E
:10333000181619061A061B065CF45B858C019D01A4
:103340000150110921093109D9F7652F680F6B87E1
:103350008981803361F480E08F5FE1E0F0E0EC0F81
:10336000FD1FE80FF11D90819033B1F301C080E0A3
:10337000442331F08150FE01E80FF11D9DE291835D
:103380004AE0481B20E090E0E1E0F0E0EC0FFD1F98
:10339000E20FF11DDF01A80FB91F3C9130832F5FB1
:1033A000421790F7E1E0F0E0EC0FFD1FE20FF11D96
:1033B0001082CE0101960E944F182C960FB6F894F9
:1033C000DEBF0FBECDBFDF91CF911F910F9108954A
:1033D0008F929F92AF92BF92CF92DF92EF92FF9225
:1033E0006B017C0149015A0120E030E0A9010E94F3
:1033F000E91A81110AC080E30E94DA168EE20E9467
:10340000DA1680E30E94DA164AC020E030E040E09D
:103410005FECC701B6010E94481C88230CF43FC032
:1034200020E030E040E05FE4C701B6010E94E91A05
:103430008823ACF520E030E0A901C701B6010E9465
:10344000E91A88233CF4F7FAF094F7F8F0948DE247
:103450000E94DA16C701B6010E94601B0E94831801
:103460008EE20E94DA16C701B6010E94671B0E9415
:10347000961B9B01AC01C701B6010E947C1A6B012F
:103480007C01C501B4010E94961B9B01AC01C701E0
:10349000B6010E944D1C0E94601B0E948318FF9081
:1034A000EF90DF90CF90BF90AF909F908F90089556
:1034B000A19AA09AA99AA89A11B88CE080B984E040
:1034C00086BF089581B1887F089584EA86BF06B6D5
:1034D00007FEFDCF0E94621A089585ED86BF06B6ED
:1034E00004FCFDCF089583B984E886BF06B607FEC5
:1034F000FDCF0E94621A08955058BB27AA270E9448
:10350000941A0C940E1C0E94001C38F00E94071C98
:1035100020F039F49F3F19F426F40C94FD1B0EF4AF
:10352000E095E7FB0C94F71BE92F0E941F1C58F352
:10353000BA17620773078407950720F079F4A6F598
:103540000C94411C0EF4E0950B2EBA2FA02D0B010C
:10355000B90190010C01CA01A0011124FF27591BD8
:1035600099F0593F50F4503E68F11A16F040A22FDE
:10357000232F342F4427585FF3CF4695379527954F
:10358000A795F0405395C9F77EF41F16BA0B620B4E
:10359000730B840BBAF09150A1F0FF0FBB1F661F95
:1035A000771F881FC2F70EC0BA0F621F731F841FD8
:1035B00048F4879577956795B795F7959E3F08F0FE
:1035C000B0CF9395880F08F09927EE0F97958795C0
:1035D00008950E94D31B08F481E008950E94021B05
:1035E0000C940E1C0E94071C58F00E94001C40F016
:1035F00029F45F3F29F00C94F71B51110C94421CE5
:103600000C94FD1B0E941F1C68F39923B1F35523F2
:1036100091F3951B550BBB27AA27621773078407E5
:1036200038F09F5F5F4F220F331F441FAA1FA9F37B
:1036300035D00E2E3AF0E0E832D091505040E69569
:10364000001CCAF72BD0FE2F29D0660F771F881FCA
:10365000BB1F261737074807AB07B0E809F0BB0BBD
:10366000802DBF01FF2793585F4F3AF09E3F5105D1
:1036700078F00C94F71B0C94421C5F3FE4F3983EE7
:10368000D4F3869577956795B795F7959F5FC9F7BA
:10369000880F911D9695879597F90895E1E0660F3B
:1036A000771F881FBB1F621773078407BA0720F0B4
:1036B000621B730B840BBA0BEE1F88F7E09508951D
:1036C0000E94671B6894B1110C94421C08950E94DB
:1036D000271C88F09F5798F0B92F9927B751B0F061
:1036E000E1F0660F771F881F991F1AF0BA95C9F786
:1036F00014C0B13091F00E94411CB1E008950C94C7
:10370000411C672F782F8827B85F39F0B93FCCF379
:10371000869577956795B395D9F73EF49095809502
:10372000709561957F4F8F4F9F4F0895E89409C022
:1037300097FB3EF490958095709561957F4F8F4FE4
:103740009F4F9923A9F0F92F96E9BB279395F695FA
:10375000879577956795B795F111F8CFFAF4BB0F78
:1037600011F460FF1BC06F5F7F4F8F4F9F4F16C0DC
:10377000882311F096E911C0772321F09EE8872F66
:10378000762F05C0662371F096E8862F70E060E022
:103790002AF09A95660F771F881FDAF7880F96959B
:1037A000879597F90895990F0008550FAA0BE0E83F
:1037B000FEEF16161706E807F907C0F012161306F3
:1037C000E407F50798F0621B730B840B950B39F433
:1037D0000A2661F0232B242B252B21F408950A2699
:1037E00009F4A140A6958FEF811D811D089597F9D9
:1037F0009F6780E870E060E008959FEF80EC089597
:1038000000240A94161617061806090608950024BF
:103810000A9412161306140605060895092E039439
:10382000000C11F4882352F0BB0F40F4BF2B11F4AD
:1038300060FF04C06F5F7F4F8F4F9F4F089557FD0C
:103840009058440F551F59F05F3F71F04795880F0E
:1038500097FB991F61F09F3F79F0879508951216A5
:1038600013061406551FF2CF4695F1DF08C0161651
:1038700017061806991FF1CF869571056105089402
:103880000895E894BB2766277727CB0197F9089519
:103890000E94D31B08F48FEF08950E94601C0C94C3
:1038A0000E1C0E94001C38F00E94071C20F095237B
:1038B00011F00C94F71B0C94FD1B11240C94421C6A
:1038C0000E941F1C70F3959FC1F3950F50E0551F88
:1038D000629FF001729FBB27F00DB11D639FAA2765
:1038E000F00DB11DAA1F649F6627B00DA11D661FB4
:1038F000829F2227B00DA11D621F739FB00DA11DD5
:10390000621F839FA00D611D221F749F3327A00D8E
:10391000611D231F849F600D211D822F762F6A2F2A
:1039200011249F5750409AF0F1F088234AF0EE0F8F
:10393000FF1FBB1F661F771F881F91505040A9F7BC
:103940009E3F510580F00C94F71B0C94421C5F3F86
:10395000E4F3983ED4F3869577956795B795F795F8
:10396000E7959F5FC1F7FE2B880F911D9695879570
:1039700097F908950E94271CE8F09E37E8F09639E1
:10398000B8F49E3848F4672F782F8827985FF9CFCE
:1039900086957795679593959539D0F3B62FB17045
:1039A0006B0F711D811D20F4879577956795939511
:1039B0000C94DE1C0C94F91C0C94421C882371F4AA
:1039C000772321F09850872B762F07C0662311F4B8
:1039D00099270DC09051862B70E060E02AF09A95EF
:1039E000660F771F881FDAF7880F9695879597F9E6
:1039F00008959F3F31F0915020F487957795679512
:103A0000B795880F911D9695879597F9089597FB1F
:103A1000072E16F4009407D077FD09D00E945C1D94
:103A200007FC05D03EF4909581959F4F08957095C1
:103A300061957F4F0895A1E21A2EAA1BBB1BFD01C1
:103A40000DC0AA1FBB1FEE1FFF1FA217B307E4077D
:103A5000F50720F0A21BB30BE40BF50B661F771FD5
:103A6000881F991F1A9469F76095709580959095B5
:103A70009B01AC01BD01CF010895052E97FB1EF4FB
:103A800000940E94541D57FD07D00E941B1D07FC87
:103A900003D04EF40C94541D5095409530952195CB
:103AA0003F4F4F4F5F4F089590958095709561956A
:103AB0007F4F8F4F9F4F0895AA1BBB1B51E107C03B
:103AC000AA1FBB1FA617B70710F0A61BB70B881FAE
:103AD000991F5A95A9F780959095BC01CD0108953D
:103AE000E199FECF9FBB8EBBE09A99278DB30895D5
:103AF000A6E1B0E044E050E00C94A01DA8E1B0E0E5
:103B000042E050E00C94A01D262FE199FECF9FBB10
:103B10008EBB2DBB0FB6F894E29AE19A0FBE0196C8
:103B20000895242F0E94851D252F0E94851D0C9429
:103B3000991D0E94841D272F0C94851DDC01CB014B
:103B4000FC01E199FECF06C0FFBBEEBBE09A3196C7
:103B50000DB20D9241505040B8F70895F894FFCF40
:103B60000160009650BE000400043333A33F33339A
:103B7000333F0000803F06FA0130004469675F5020
:103B8000574D004172725F50574D005765656C206C
:103B90004400526174696F004D61676E6574730013
:103BA00053646F776E2056004D61782073706565A1
:103BB00064004465672F6B6D6800534D2073746516
:103BC00070730043616C696272617465006F646F49
:103BD0006D65746572207265736574006C6F6164E5
:103BE0002064656661756C74730005060A02010045
:063BF0000804070E0108A5
:00000001FF
