S00E00007370656564332E73726563D2
S11300000C94A10A0C94BE0A0C94D60B0C94BE0A50
S11300100C94A40B0C94BE0A0C94BE0A0C94BE0A55
S11300200C94BE0A0C94BB0B0C946C0B0C94BE0A7F
S11300300C94BE0A0C94BE0A0C94BE0A0C94BE0A1C
S11300400C94BE0A0C94BE0A0C94BE0A0C94BE0A0C
S11300500C94BE0A8616A616C616151764178017C2
S11300609C17B81707182718431861186B186E18CF
S1130070961880180C000000F01F00FC7F00FEFFA3
S1130080000FE00107C00107C00107C0010FE00134
S1130090FEFF00FC7F00F01F000C000000F01F00BA
S11300A0FC7F00FEFF000FE00107C00107C001074D
S11300B0C0010FE001FEFF00FC7F00F01F000C00F8
S11300C00000F01F00FC7F00FEFF000FE00107C0EE
S11300D00107C00107C0010FE001FEFF00FC7F0023
S11300E0F01F000C000000F01F00FC7F00FEFF006A
S11300F00FE00107C00107C00107C0010FE001FEC6
S1130100FF00FC7F00F01F000C000000F01F00FC4B
S11301107F00FEFF000FE00107C00107C00107C018
S1130120010FE001FEFF00FC7F00F01F000C000047
S113013000F01F00FC7F00FEFF000FE00107C0017C
S113014007C00107C0010FE001FEFF00FC7F00F0C3
S11301501F000C000000F01F00FC7F00FEFF000FDA
S1130160E00107C00107C00107C0010FE001FEFF65
S113017000FC7F00F01F000C000000F01F00FC7F5B
S113018000FEFF000FE00107C00107C00107C00126
S11301900FE001FEFF00FC7F00F01F000C000000D8
S11301A0F01F00FC7F00FEFF000FE00107C0010705
S11301B0C00107C0010FE001FEFF00FC7F00F01F3B
S11301C0000C000000F01F00FC7F00FEFF000FE0A9
S11301D00107C00107C00107C0010FE001FEFF00D5
S11301E0FC7F00F01F000C000000F01F00FC7F00EB
S11301F0FEFF000FE00107C00107C00107C0010FA7
S1130200E001FEFF00FC7F00F01F000C000000F086
S11302101F00FC7F00FEFF000FE00107C00107C0C4
S11302200107C0010FE001FEFF00FC7F00F01F008A
S11302300C000000F01F00FC7F00FEFF000FE00137
S113024007C00107C00107C0010FE001FEFF00FC69
S11302507F00F01F000C000000F01F00FC7F00FE78
S1130260FF000FE00107C00107C00107C0010FE054
S113027001FEFF00FC7F00F01F000400000000C02E
S11302800100C00100C001000000000000000000E7
S11302900000000000000000000000000000000C4E
S11302A000800100F801C0FF01FC7F00FF07003F50
S11302B00000030000000000000000000000000037
S11302C0000000000C000000F01F00FC7F00FEFF97
S11302D0000FE00107C00107C00107C0010FE001E2
S11302E0FEFF00FC7F00F01F000C00000000000077
S11302F06000007000007800003C00001E0000FF59
S1130300FF01FFFF01FFFF010000000000000C00DF
S113031000003880013CE0013EF0010FF80107FCC9
S11303200107DE0107CF018FC701FEC301FEC10132
S113033078C0010C0000001838001E78001EF80078
S11303400FE001C7C101C7C101E7C101FFE3017E9D
S1130350FF003C7F00003E000C000000003E0080D7
S11303603F00C03F00F039007838003E3800FFFFFE
S113037001FFFF01FFFF010038000038000C0000FE
S113038000803900FC7900FFF900FFE001E7C001BB
S1130390E7C001E7C001E7E101C7FF00877F000074
S11303A01F000C000000F01F00FC7F00FEFF008E09
S11303B0E301C7C101C7C101C7C101CFE3019EFF6A
S11303C0009E7F00183E000C00000007000007009C
S11303D00007E00107FC0187FF01E71F00F70300A6
S11303E0FF00003F00001F00000700000C00000099
S11303F0783C00FEFE00FEFF00CFE70187C30187C3
S1130400C30187C301CFE701FEFF00FEFE00783C75
S1130410000C000000F83000FCF300FEF3008FE74E
S11304200107C70107C70107C7018FE300FEFF00EB
S1130430FC7F00F01F001200FE7F00C0FFFF07F8E2
S1130440FFFF1FFC01803F3E00007C0E0000700F88
S11304500000F0070000E0070000E0070000E00FE4
S11304600000F00E0000703E00007CFC01803FF8AC
S1130470FFFF1FE0FFFF0300FE7F000000000012EB
S113048000FE7F00C0FFFF07F8FFFF1FFC01803F55
S11304903E00007C0E0000700F0000F0070000E03A
S11304A0070000E0070000E00F0000F00E000070FD
S11304B03E00007CFC01803FF8FFFF1FE0FFFF03CC
S11304C000FE7F00000000001200FE7F00C0FFFF5E
S11304D007F8FFFF1FFC01803F3E00007C0E000078
S11304E0700F0000F0070000E0070000E0070000C4
S11304F0E00F0000F00E0000703E00007CFC018064
S11305003FF8FFFF1FE0FFFF0300FE7F0000000035
S1130510001200FE7F00C0FFFF07F8FFFF1FFC0171
S1130520803F3E00007C0E0000700F0000F00700CA
S113053000E0070000E0070000E00F0000F00E00FC
S113054000703E00007CFC01803FF8FFFF1FE0FFCD
S1130550FF0300FE7F00000000001200FE7F00C0C9
S1130560FFFF07F8FFFF1FFC01803F3E00007C0EE9
S11305700000700F0000F0070000E0070000E00733
S11305800000E00F0000F00E0000703E00007CFC54
S113059001803FF8FFFF1FE0FFFF0300FE7F000024
S11305A00000001200FE7F00C0FFFF07F8FFFF1FDE
S11305B0FC01803F3E00007C0E0000700F0000F044
S11305C0070000E0070000E0070000E00F0000F073
S11305D00E0000703E00007CFC01803FF8FFFF1F0E
S11305E0E0FFFF0300FE7F00000000001200FE7F1A
S11305F000C0FFFF07F8FFFF1FFC01803F3E000023
S11306007C0E0000700F0000F0070000E0070000FF
S1130610E0070000E00F0000F00E0000703E000054
S11306207CFC01803FF8FFFF1FE0FFFF0300FE7F1B
S113063000000000001200FE7F00C0FFFF07F8FF6B
S1130640FF1FFC01803F3E00007C0E0000700F0085
S113065000F0070000E0070000E0070000E00F00E2
S113066000F00E0000703E00007CFC01803FF8FFAB
S1130670FF1FE0FFFF0300FE7F00000000001200E8
S1130680FE7F00C0FFFF07F8FFFF1FFC01803F3E15
S113069000007C0E0000700F0000F0070000E0076F
S11306A00000E0070000E00F0000F00E0000703EC4
S11306B000007CFC01803FF8FFFF1FE0FFFF030008
S11306C0FE7F00000000001200FE7F00C0FFFF0755
S11306D0F8FFFF1FFC01803F3E00007C0E0000700D
S11306E00F0000F0070000E0070000E0070000E052
S11306F00F0000F00E0000703E00007CFC01803F03
S1130700F8FFFF1FE0FFFF0300FE7F000000000072
S11307101200FE7F00C0FFFF07F8FFFF1FFC0180EF
S11307203F3E00007C0E0000700F0000F007000048
S1130730E0070000E0070000E00F0000F00E0000FA
S1130740703E00007CFC01803FF8FFFF1FE0FFFFCC
S11307500300FE7F00000000001200FE7F00C0FFC7
S1130760FF07F8FFFF1FFC01803F3E00007C0E00E6
S113077000700F0000F0070000E0070000E0070031
S113078000E00F0000F00E0000703E00007CFC0151
S1130790803FF8FFFF1FE0FFFF0300FE7F00000023
S11307A000001200FE7F00C0FFFF07F8FFFF1FFCE0
S11307B001803F3E00007C0E0000700F0000F00737
S11307C00000E0070000E0070000E00F0000F00E6A
S11307D00000703E00007CFC01803FF8FFFF1FE03A
S11307E0FFFF0300FE7F00000000001200FE7F00F8
S11307F0C0FFFF07F8FFFF1FFC01803F3E00007CA5
S11308000E0000700F0000F0070000E0070000E099
S1130810070000E00F0000F00E0000703E00007CB6
S1130820FC01803FF8FFFF1FE0FFFF0300FE7F0095
S113083000000000090000000000000000000000AB
S113084000000000F0000000F0000000F0000000D4
S11308500000000000000000000000000000000094
S11308600000000000000000000000000000000084
S1130870000000000000000000000000001200FE64
S11308807F00C0FFFF07F8FFFF1FFC01803F3E0011
S1130890007C0E0000700F0000F0070000E007006D
S11308A000E0070000E00F0000F00E0000703E00C2
S11308B0007CFC01803FF8FFFF1FE0FFFF0300FE08
S11308C07F00000000001200FE7F00C0FFFF07F859
S11308D0FFFF1FFC01803F3E00007C0E0000700FF4
S11308E00000F0070000E0070000E0070000E00F50
S11308F00000F00E0000703E00007CFC01803FF818
S1130900FFFF1FE0FFFF0300FE7F00000000001256
S1130910000000000000000000000000000E0000C5
S11309200007000080030000C0030000E001000095
S1130930F8000000FEFFFFFFFFFFFFFFFFFFFFFFC8
S113094000000000000000000000000000000000A3
S1130950000000000000000012C00100E0F00100EF
S1130960F8FC0100FE3C0000FF1E0080EF0F00C0F9
S1130970E70700E0E10700F0E0070078E007003C4B
S1130980E007001FE00F800FE01EC007E03EF80301
S1130990E0FCFF00E0F07F00E0C00F00E00000009A
S11309A00012C0008003F000800FFC00801F3E0096
S11309B0003E1E0000780F0000F007E000E007E0B2
S11309C000E007E000E007E000E00FF000E00EF8D0
S11309D001703EFC0378FCBF073EF89FFF1FE00751
S11309E0FE0F0000F80300000000120000F00000F9
S11309F000FC000000FF0000C0FF0000F0E7000062
S1130A00F8E100007EE000801FE000E007E000F86D
S1130A1001E0007E00E000FFFFFFFFFFFFFFFFFF9C
S1130A20FFFFFF0000E0000000E0000000E0000025
S1130A3000E0001200C0800300FF800FF8FF811F58
S1130A40FFFF003EFF780078073800F0071C00E045
S1130A50071C00E0071C00E0071C00E0073C00F056
S1130A60073800700778007C07F0013F07E0FF1F9C
S1130A7007C0FF070000FE01000000001200FC7F19
S1130A8000C0FFFF07F0FFFF0FF880073E3CC001E6
S1130A90781EE000700E7000F0077000E007700030
S1130AA0E0077000E0077000E00FF000F00EE001D6
S1130AB0783EC0073EFC80FF1FF800FF0FE000FCFB
S1130AC001000000001207000000070000000700FA
S1130AD0000007000000070000F80700C0FF07003F
S1130AE0FCFF0780FF0707E03F0007F8070007FE49
S1130AF00000871F0000E7070000F70100007F00E7
S1130B0000001F0000000F000000000000001200A1
S1130B1000F803E007FE0FF81FFF1FFCBF0F3E3E67
S1130B20FC03780EF0017007E000E007E000E00746
S1130B30E000E007E000E00FE000E00EF001703EAE
S1130B40FC0378FCBF0F3EF81FFF1FE007FE0F00F9
S1130B5000F8030000000012C03F0007F0FF001F70
S1130B60F8FF013F7CE0037C1E8007700F000FF04C
S1130B700F000EE007000EE007000EE007000EE095
S1130B8007000E700E0007781E80033C7CE0811F76
S1130B90F0FFFF0FE0FFFF0300FE3F000000000036
S1130BA00500000000000500005F000005000700CC
S1130BB0070005147F147F1405242A7F2A120523B5
S1130BC013086462053649562050050807030000DF
S1130BD005001C224100050041221C000514083EAA
S1130BE008140508083E08080500B0700000050850
S1130BF008080808050060600000052010080402C9
S1130C00053E5149453E0500427F40000572494971
S1130C104946052141494D33051814127F10052713
S1130C2045454539053C4A494931054121110907E2
S1130C3005364949493605464949291E0500001427
S1130C40000005004034000005081422410005148A
S1130C50141414140541221408000502015909064C
S1130C60053E415D594E057C1211127C057F4949B0
S1130C704936053E41414122057F4141413E057FC0
S1130C8049494949057F09090909053E414151730B
S1130C90057F0808087F0500417F41000520404189
S1130CA03F01057F08142241057F40404040057FF5
S1130CB0020C027F057F0408107F053E4141413E3E
S1130CC0057F09090906053E4151215E057F091981
S1130CD029460526494949320501017F0101053F9D
S1130CE04040403F051F2040201F053F4038403F03
S1130CF0056314081463050304780403056151496A
S1130D00454305007F414100050204081020050009
S1130D1041417F0005040201020405404040404077
S1130D2005070B000000052054547840057F284433
S1130D30443805384444442805384444287F053859
S1130D40545454180500087E09020518A4A49C787C
S1130D50057F080404780500447D400005204040D8
S1130D603D00057F102844000500417F4000057CBC
S1130D7004780478057C080404780538444444382D
S1130D8005FC182424180518242418FC057C0804E0
S1130D9004080548545454240504043F4424053CE1
S1130DA04040207C051C2040201C053C4030403C39
S1130DB0054428102844054C9090907C05446454C4
S1130DC04C4405000836410005000077000005008A
S1130DD04136080005040204080405007F417F0031
S1130DE000000000000000000000000000000000FF
S1130DF00000000080C0E0F0F8FCFEFFFFFF0000F0
S1130E0000000000000000000000000000000000DE
S1130E1000000000000000000000000000000000CE
S1130E2000000000000000000000000000000000BE
S1130E3000000000000000000000000000000000AE
S1130E40000000000000000080C0E0F0F8FCFEFF9D
S1130E50FFFFFFFFFFFFFFFFFFFFC0C0C0C0C0C018
S1130E60C0C0C0C0C0C0C0C0C0C0C0C0C0C0C0C07E
S1130E70C0C0C0C0C0C0C0C0C0C0C0C0C0C0C0C06E
S1130E80C0C0C0C0C0C0C0C0C0C0C0C0C0C0C0C05E
S1130E90C0C0C0C0C0C0C0C00000000080C0E0F03E
S1130EA0F8FCFEFFFFFFFFFFFFFFFFFFFFFFFFFF59
S1130EB0FFFFFFFFFFFFFFFFFFFFFFFFFFFFFFFF3E
S1130EC0FFFFFFFFFFFFFFFFFFFFFFFFFFFFFFFF2E
S1130ED0FFFFFFFFFFFFFFFFFFFFFFFFFFFFFFFF1E
S1130EE0FFFFFFFFFFFFFFFFFFFFFFFFFFFFFFFF0E
S1130EF0FFFFFFFF081C3E7FFFFFFFFFFFFFFFFF19
S1130F00FFFFFFFFFFFFFFFFFFFFFFFFFFFFFFFFED
S1130F10FFFFFFFFFFFFFFFFFFFFFFFFFFFFFFFFDD
S1130F20FFFFFFFFFFFFFFFFFFFFFFFFFFFFFFFFCD
S1130F30FFFFFFFFFFFFFFFFFFFFFFFFFFFFFFFFBD
S1130F40FFFFFFFFFFFFFFFFFFFFFFFFFFFFFFFFAD
S1130F5000000000000103070F1F3F7FFFFFFFFF9A
S1130F60FFFFFFFFFFFFFFFFFFFFFFFFFFFFFFFF8D
S1130F70FFFFFFFFFFFFFFFFFFFFFFFFFFFFFFFF7D
S1130F80FFFFFFFFFFFFFFFFFFFFFFFFFFFFFFFF6D
S1130F90FFFFFFFFFFFFFFFFFFFFFFFFFFFFFFFF5D
S1130FA0FFFFFFFFFFFFFFFFFFFFFFFF0000000049
S1130FB00000000000000000000103070F1F3F7F36
S1130FC0FFFFFFFFFFFFFFFFFFFF01010101010121
S1130FD001010101010101010101010101010101FD
S1130FE001010101010101010101010101010101ED
S1130FF001010101010101010101010101010101DD
S113100001010101010101010000000000000000D4
S113101000000000000000000000000000010307C1
S11310200F1F3F7F7F7F00000000000000000000D2
S113103000000000000000000000000000000000AC
S1131040000000000000000000000000000000009C
S1131050000000000000000000000000000000008C
S1131060000000000000000000000000000000007C
S1131070000000000000000000000000000000006C
S1131080000000000000000000000000000000005C
S1131090000000000000000000000000000000004C
S11310A00000FFFFFFFEFCF8F0E0C080000000003D
S11310B0000000000000000000000000000000002C
S11310C0C0C0C0C0C0C0C0C0C0C0C0C0C0C0C0C01C
S11310D0C0C0C0C0C0C0C0C0C0C0C0C0C0C0C0C00C
S11310E0C0C0C0C0C0C0C0C0C0C0C0C0C0C0C0C0FC
S11310F0C0C0C0C0C0C0C0C0C0C0C0C0C0C0FFFF6E
S1131100FFFFFFFFFFFFFFFFFFFEFCF8F0E0C080E2
S1131110000000000000000000000000FFFFFFFFCF
S1131120FFFFFFFFFFFFFFFFFFFFFFFFFFFFFFFFCB
S1131130FFFFFFFFFFFFFFFFFFFFFFFFFFFFFFFFBB
S1131140FFFFFFFFFFFFFFFFFFFFFFFFFFFFFFFFAB
S1131150FFFFFFFFFFFFFFFFFFFFFFFFFFFFFFFF9B
S1131160FFFFFFFFFFFFFFFFFFFFFFFFFFFEFCF896
S1131170F0E0C08000000000FFFFFFFFFFFFFFFF63
S1131180FFFFFFFFFFFFFFFFFFFFFFFFFFFFFFFF6B
S1131190FFFFFFFFFFFFFFFFFFFFFFFFFFFFFFFF5B
S11311A0FFFFFFFFFFFFFFFFFFFFFFFFFFFFFFFF4B
S11311B0FFFFFFFFFFFFFFFFFFFFFFFFFFFFFFFF3B
S11311C0FFFFFFFFFFFFFFFFFFFFFFFFFFFFFFFF2B
S11311D07F3E1C08FFFFFFFFFFFFFFFFFFFFFFFF36
S11311E0FFFFFFFFFFFFFFFFFFFFFFFFFFFFFFFF0B
S11311F0FFFFFFFFFFFFFFFFFFFFFFFFFFFFFFFFFB
S1131200FFFFFFFFFFFFFFFFFFFFFFFFFFFFFFFFEA
S1131210FFFFFFFFFFFFFFFFFFFFFFFFFFFFFFFFDA
S1131220FFFFFFFF7F3F1F0F0703010000000000C7
S1131230010101010101010101010101010101019A
S1131240010101010101010101010101010101018A
S1131250010101010101010101010101010101017A
S11312600101010101010101010101010101FFFF6E
S1131270FFFFFFFFFFFFFFFF7F3F1F0F070301007B
S1131280000000000000000000000000000000005A
S1131290000000000000000000000000000000004A
S11312A0000000000000000000000000000000003A
S11312B0000000000000000000000000000000002A
S11312C0000000000000000000007F7F7F3F1F0F30
S11312D007030100000000000000000000000000FF
S11312E00000000000000000008080808084FCFE7C
S11312F0FEFEFEFEFEFEFEFC0000000000000000FC
S1131300000080C0E0F0F8FCFCFEFEFFFFFFFFFFE2
S1131310FFFFFFFFFFFFFFFFFFFFFFFEFEFCFCF8E8
S1131320F0E0C08000000000000000000000FCFEAF
S1131330FEFEFEFEFEFEFEFC8080808080001F3FDD
S11313403F3F3F3F7FFFFFFFFFFFFFFFFFF9F0E05D
S1131350C0800000000000FEFFFFFFFFFFFFFFFF53
S1131360FFFFFFFFFFFFFFFFFFFFFFFFFFFFFFFF89
S1131370FFFFFFFFFFFFFFFFFFFFFE000000000075
S113138080C0E0F0F9FFFFFFFFFFFFFFFF7F3F3F5B
S11313903F3F3F1F00000000000000000103070F53
S11313A01F3F7F7F7F7F7F7F7F7E0000007FFFFF67
S11313B0FFFFFF3F1F1F1F1F1F1F1F3FFFFFFFFFD9
S11313C0FFFF3F1F1F1F1F1F1F1F3FFFFFFFFFFFC9
S11313D07F0000007E7F7F7F7F7F7F7F3F1F0F071F
S11313E003010000000000000000000000000000F5
S11313F00000000000000080C0E0F0F0F0F0F0F029
S1131400F0F000000101FFFFFFF0E0E0E0E0E0E0C9
S1131410E0F00F0F0F0F0F0FF0E0E0E0E0E0E0E08E
S1131420F0FFFFFF01010000F0F0F0F0F0F0F0F049
S1131430E0C0800000000000000000000000000088
S11314400000C0E0E0E0E0E0F0F8FCFEFFFFFFFF9A
S1131450FFFF7F3F1F0F0703000000000303031F6C
S11314601F1FFFFFFFFFFFFFFCF8F8F8F8FCFFFF6A
S1131470FFFFFFFF1F1F1F030303000000000307FC
S11314800F1F3F7FFFFFFFFFFFFFFEFCF8F0E0E0D0
S1131490E0E0E0C000000000070F0F0F0F0FFFFF98
S11314A0FFFFFFFFFFFFFFFC000000000000000043
S11314B000000000003E7E7EF0F0E0878783030397
S11314C003030303838787E0F0F07E7E3E00000081
S11314D000000000000000000000FCFFFFFFFFFF11
S11314E0FFFFFFFF0F0F0F0F0F07000000000000AA
S11314F000000000000101010101010101000000E0
S113150000000000000000000000000000000001D6
S113151003070F0F0F0F0F0F0F0F0F0F070301001C
S113152000000000000000000000000000000000B7
S1131530000101010101010101000000000000009F
S1131540000011241FBECFE5D8E0DEBFCDBF11E0FF
S1131550A0E6B0E0E2E1FCE402C005900D92A63FF3
S1131560B107D9F726E0A6EFB1E001C01D92A73379
S1131570B207E1F70E9498180C9407260C94000017
S11315802F923F920F931F93CF93DF93D10117961E
S11315908C911797815016968C931697882384F113
S11315A014960D911C911597E0E0F0E0682F082E39
S11315B0000C770B9801260F371FE9012881022EB2
S11315C0000C330B1616170694F490E0A901440F8F
S11315D0551F220F331F220F331F220F331F240FD7
S11315E0351F9F5F492F50E0461757077CF3E20FE2
S11315F0F31F815016968C9316978823BCF602C06D
S1131600E0E0F0E0CF01DF91CF911F910F913F9087
S11316102F90089590910B02992381F090911F02CD
S11316209F5F90931F0220911D0230911E022F5F35
S11316303F4F30931E0220931D020FC090911F0252
S1131640915090931F0220911D0230911E0221504F
S1131650310930931E0220931D0281110EC0809126
S11316601F0288231CF483E080931F0280911F02D1
S1131670843034F110921F0223C08130E1F4809150
S11316801F0288231CF487E080931F0280911F02AD
S113169088302CF010921F0202C08BBB0895E09199
S11316A01F028BB3807F0E2E000CFF0BE651FE4F02
S11316B09081892BF2CF80911F028BB3807FEDCF75
S11316C0E0911F028BB3807F0E2E000CFF0BEE50B7
S11316D0FE4F9081892BE1CF1F920F920FB60F928C
S11316E011242F933F934F935F936F937F938F9323
S11316F09F93AF93BF93EF93FF93809166000E94F3
S11317000A0B20911D0230911E0280910F029091CC
S113171010022817390739F41092200213BE1CBE98
S113172089B78D7F89BFFF91EF91BF91AF919F9151
S11317308F917F916F915F914F913F912F910F9076
S11317400FBE0F901F9018951F920F920FB60F9215
S113175011248F939F9380912702909128020196E0
S113176090932802809327029F918F910F900FBE30
S11317700F901F9018951F920F920FB60F9211247D
S11317808F939F9380910E02882349F080910902E0
S113179090910A02019690930A02809309029F9104
S11317A08F910F900FBE0F901F9018951F920F925C
S11317B00FB60F9211242F933F934F935F938F9300
S11317C09F93AF93BF9380910D02882369F1409159
S11317D027025091280224B534E1349FC001359F7B
S11317E0900D1124820F911D90932602809325025F
S11317F014BC109228021092270281E080937D008D
S11318008091210290912202A0912302B09124029E
S11318100196A11DB11D8093210290932202A093F1
S11318202302B093240207C089B7806889BF14BC1F
S113183081E080930D02BF91AF919F918F915F9151
S11318404F913F912F910F900FBE0F901F901895BD
S11318508F929F92AF92BF92CF92DF92EF92FF92BC
S11318600F93CF93DF9380910E028111F3C00E94F6
S1131870F81C0FEF27E144E26BE08AE00E947E1C33
S113188024E146E26EE085E20E947E1C8091FB0129
S11318909091FC018936910534F025E140E16DE039
S11318A08CE00E94FC1C8091FB019091FC018E361F
S11318B091053CF00FEF25E146E16DE082E10E94E5
S11318C0FC1C8091FB019091FC01833791053CF055
S11318D00FEF25E14CE16DE088E10E94FC1C809152
S11318E0FB019091FC01883791053CF00FEF25E155
S11318F042E26DE08EE10E94FC1C6FE08BE20E94EC
S1131900671920E048E065E080EA9BE00E94D81D6A
S11319106091FB017091FC01072E000C880B990B60
S11319200E94B72220E030E040E251E40E940D2200
S11319302AE030E040E050E00E9407218EE790E08A
S11319400E946E1F20E040E262E186E394E00E9480
S1131950D81D6FE184E00E94671980900502909081
S11319600602A0900702B090080284E6881691044B
S1131970A104B10470F0C501B4012AE030E040E0F4
S113198050E00E943A24211531054105510529F4FE
S11319905BC024E630E040E050E0C0E00F2EFAE007
S11319A0CF2ED12CE12CF12CF02DCA01B901A701C5
S11319B096010E943A24CF5F211531054105510556
S11319C0A1F784E688169104A104B104F0F5D4E0EB
S11319D0C0E080E890E00E946E1FCF5FCD17CCF38B
S11319E060910502709106028091070290910802AD
S11319F00E94B52220E030E048EC52E40E940D221F
S1131A002AE030E040E050E00E94072120E048E076
S1131A1065E080EA9BE00E94D81D60E080E40E94BB
S1131A2067196091110270911202809113029091D2
S1131A3014022AE030E040E050E00E9407210E94B6
S1131A4027190E94271906C0C0E0D6E0DC1B1D162A
S1131A503CF6BECFDF91CF910F91FF90EF90DF90D6
S1131A60CF90BF90AF909F908F9008958091660023
S1131A70811119C02091FD013091FE014091FF01B7
S1131A805091000260911102709112028091130230
S1131A90909114020E940D220E94862270931002DB
S1131AA060930F021AC08130C1F42091FD0130917E
S1131AB0FE014091FF01509100026091110270916A
S1131AC0120280911302909114020E940D220E942E
S1131AD086227093100260930F0280911D029091F0
S1131AE01E0220910F0230911002821B930B1816D4
S1131AF019061CF410920B0205C021E020930B027E
S1131B00892B71F081E08093200283B78D6083BFBD
S1131B10809169008CBF89B7826089BF0E94280CBC
S1131B200895B59B04C0B69B02C0B7992AC0B59965
S1131B300DC08FE99FE00197F1F700C0000086B364
S1131B4085FB992790F981E08927089596B3892F19
S1131B50807496FD0AC0EFE9FFE03197F1F700C009
S1131B600000B69913C082E00895B7990CC08FE9BC
S1131B709FE00197F1F700C00000B79906C083E029
S1131B80089580E0089580E0089580E008958091AC
S1131B906600811105C0209167003091680006C07D
S1131BA02091670030916800220F331F10921E02AB
S1131BB010921D0210921F02C90133230CF40396E4
S1131BC095958795959587959093100280930F022C
S1131BD081E080930B028093200283B78D6083BFE2
S1131BE0809169008CBF89B7826089BF809120028F
S1131BF08111FCCF4FEF82E597E041508040904047
S1131C00E1F700C0000030931E0220931D021092E1
S1131C10100210920F0210920B0281E080932002B6
S1131C2083B78D6083BF809169008CBF89B7826060
S1131C3089BF809120028111FCCF10921E02109264
S1131C401D021092100210920F020895882381F051
S1131C500E94F81C67E086E10E9467192FEF47E3B2
S1131C606CE584E690E10E941A1B0E9427190895EE
S1131C700E94F81C67E086E10E9467192FEF47E392
S1131C806CE580EE9DE00E941A1B0E9427190895BE
S1131C900E94F81C67E08BE10E9467192FEF44E370
S1131CA066E588EE92E10E941A1B0E9427190895A6
S1131CB0B4990DC0B39B0BC080E00E94260E81E056
S1131CC080930E0210920A021092090221C0B39965
S1131CD00DC0B49B0BC081E00E94260E81E080936E
S1131CE00E0210920A021092090212C0B4990CC09A
S1131CF0B3990AC00E94480E81E080930E021092AC
S1131D000A021092090204C080910E028823E9F0AD
S1131D10B39B09C0B49B07C00E94F81C0E942719FA
S1131D2089B7846089BF8091090290910A028D323B
S1131D30914058F010920E0210920A021092090279
S1131D4089B78B7F89BF0E94280C089587B970E0FA
S1131D50161617068CF420E030E080E090E0369A06
S1131D603699FECF44B155B1840F951F2F5F3F4F75
S1131D7026173707A1F702C080E090E00E942624CE
S1131D80CB0108950F931F936AE084E00E94A60E8E
S1131D90BC01990F880B990B0E94B7222AE939E9F3
S1131DA04CEC52E40E940D2220E030E040E250E48A
S1131DB00E946C2320E030E040EC50E40E946C234D
S1131DC00E947F227093FA016093F9012091FB0134
S1131DD03091FC012617370731F07093FC016093B2
S1131DE0FB010E94280C60912102709122028091D3
S1131DF02302909124020E94B5220E94D9232091AB
S1131E0015023091160240911702509118020E9457
S1131E106C2320E030E040E251E40E940D220E9455
S1131E2086226093010270930202809303029093CE
S1131E3004020091050210910602209107023091DC
S1131E400802601771078207930751F06093050237
S1131E507093060280930702909308020E94280C54
S1131E601F910F9108958F929F92AF92BF92EF921C
S1131E70FF921F93CF93DF93EC01E62E413009F0DC
S1131E806AC060E00E94BA25F12CCE0DDF1D60917E
S1131E906D0070916E00CE010E94D725CE0DDF1D1E
S1131EA060916B0070916C00CE010E94D725CE0D1D
S1131EB0DF1D60916A00CE010E94BA25CE0DDF1DA0
S1131EC060916900CE010E94BA25CE0DDF1D60919C
S1131ED0670070916800CE010E94D725CE0DDF1DEA
S1131EE060917C00CE010E94BA25CE0DDF1D609169
S1131EF07B00CE010E94BA25CE0DDF1D60916600E5
S1131F00CE010E94BA25CE0DDF1D40917300509181
S1131F1074006091750070917600CE010E94CB250B
S1131F20CE0DDF1D409177005091780060917900CB
S1131F3070917A00CE010E94CB2540916F005091A0
S1131F4070006091710070917200C7018C0F9D1F29
S1131F500E94CB25AFC04111A9C0E62EF12CCE0DB5
S1131F60DF1DCE010E94B42590936E0080936D0016
S1131F70CE0DDF1DCE010E94B42590936C0080939A
S1131F806B00CE0DDF1DCE010E94A62580936A0052
S1131F90CE0DDF1DCE010E94A62580936900CE0DD3
S1131FA0DF1DCE010E94B4259093680080936700E2
S1131FB0CE0DDF1DCE010E94A62580937C00CE0DA0
S1131FC0DF1DCE010E94A62580937B00CE0DDF1D70
S1131FD0CE010E94A62580936600CE0DDF1DCE01A2
S1131FE00E94AE2560937300709374008093750013
S1131FF090937600CE0DDF1DCE010E94AE25609336
S11320007700709378008093790090937A00C701E9
S11320108C0F9D1F0E94AE2560936F00709370001B
S1132020809371009093720045C0F12C11E0CE01B1
S11320300E94AE258090210290902202A09023025B
S1132040B090240286169706A806B90650F4609349
S1132050210270932202809323029093240210930E
S1132060F8011F5FCE0DDF1D143309F723C0433081
S113207009F540912102509122026091230270914E
S113208024028091F8019E018E9D200D311D1124A2
S1132090C9010E94DD258091F8018F5F833318F414
S11320A08093F80107C01092F80104C0423009F48B
S11320B0BCCFDDCFDF91CF911F91FF90EF90BF9008
S11320C0AF909F908F900895CF92DF92EF92FF92FE
S11320D0CF932BED3FE049E450E46091730070919D
S11320E0740080917500909176000E946C236B01BE
S11320F07C0160917B0070E080E090E00E94B72258
S11321009B01AC01C701B6010E940D226093150228
S11321107093160280931702909318028DEB97E345
S1132120A6E8B7E38093190290931A02A0931B02C6
S1132130B0931C02D39AD09AD29AD19A8C9A8D9A3F
S1132140DB9AD89AC59AC69AC79A379A309A319A1E
S1132150329A88E090E00E94A625882379F041E035
S113216064E088E090E00E94330FC3E343E064E05E
S113217080E890E00E94330FC150C1F740E064E072
S113218088E090E00E94330F8091F801833310F0CF
S11321901092F80142E064E080E890E00E94330F7E
S11321A085B58E6085BD84E183BD83EA8FBD8BE0F8
S11321B08EBD80916D0090916E009BBD8ABD809113
S11321C06B0090916C0099BD88BD8091660081116F
S11321D023C0609167007091680080E090E00E94E5
S11321E0B5229B01AC0160E070E084EB93E40E94B3
S11321F00D2220916F003091700040917100509138
S113220072000E940D226093FD017093FE01809381
S1132210FF019093000224C0813011F560916700A2
S11322207091680080E090E00E94B5229B01AC01AF
S113223060E070E084E393E40E940D2220916F003B
S11322403091700040917100509172000E940D22F3
S11322506093FD017093FE018093FF01909300024F
S11322600E9470190E94F81C80917C000E945119F0
S11322700E942719789485B7886085BF8BB78068DA
S11322808BBFCF91FF90EF90DF90CF900895CF93C5
S1132290809127029091280281399140F4F089B706
S11322A08F7789BF14BC10922802109227021092D3
S11322B0260210922502109211021092120210921C
S11322C013021092140210920D02F89443E064E099
S11322D080E890E00E94330F789480917D008823F9
S11322E0D1F18091250290912602892BA1F1609170
S11322F0250270912602072E000C880B990B0E9470
S1132300B7222091190230911A0240911B02509178
S11323101C020E946C239B01AC0160E070E080E829
S11323209FE30E940D2226E636E646E650E40E942C
S11323306C2320911502309116024091170250919E
S113234018020E946C23609311027093120280930E
S1132350130290931402C0916A006C2F70E080E025
S113236090E00E94B7222091110230911202409114
S11323701302509114020E940822882374F46C2FD3
S113238070E080E090E00E94B522609311027093A7
S11323901202809313029093140210927D00CF9145
S11323A008952F923F924F925F926F927F928F92F5
S11323B09F92AF92BF92CF92DF92EF92FF920F93D0
S11323C01F93CF93DF93CDB7DEB72C970FB6F89456
S11323D0DEBF0FBECDBF5A01D22E9C838B837A837E
S11323E0698320E048E065E080EA9BE00E94D81D14
S11323F00E94F81C81E00E94D2198AE00E945B19B5
S1132400C8010E946E1F88E10E9460198AE50E943B
S11324105B1982E890E00E946E1F84E20E946019BA
S11324208AE50E945B1987E890E00E946E1F80E3B2
S11324300E9460198AE50E945B198CE890E00E9472
S11324406E1FDD2009F467C02D2D30E0121613062F
S1132450CCF480E001E010E0A801440F551F3801DE
S1132460660C771C660C771C660C771C8A01060DBB
S1132470171D8F5F482F082E000C550B421753076A
S11324805CF302C001E010E020E048E065E080EA8F
S11324909BE00E94D81D88E20E94601986E00E9499
S11324A05B1981E990E00E946E1F2801612C712C58
S11324B0C301B2010E94B52269877A878B879C8702
S11324C069817A8180E090E00E94B52229853A856D
S11324D04B855C850E940D22A30192010E94072175
S11324E082E30E94601986E00E945B1986E990E00D
S11324F00E946E1F6B817C8180E090E00E94B52277
S113250029853A854B855C850E940D22A3019201A1
S11325100E94072120C088E20E94601986E00E9480
S11325205B1981E990E00E946E1F69817A8180E0E5
S113253090E00E94A21F82E30E94601986E00E943C
S11325405B1986E990E00E946E1F6B817C8180E0BC
S113255090E00E94A21F84E10E94601985E00E941D
S11325605B1920E041E16CE084E790E00E94D81D13
S1132570A114B10491F0950100E0ADECBCEC0E9413
S113258062249C013695279536952795369527958F
S11325900F5F2115310589F701C000E02B813C81D3
S11325A018862115310509F4DBC111E001C0182F8B
S11325B0ADECBCEC0E9462249C01369527953695BF
S11325C027953695279581E0810F2115310579F7F7
S11325D01887E12EF12CC7010E9485249E838D83E8
S11325E01F829701121613060CF04CC0F50160E02F
S11325F070E080E0402F50E06417750774F50D819A
S11326001E81080F111D87FD1A959F01ADECBCECCE
S11326100E946224969587959695879596958795B9
S11326209C01220F331F880F991F880F991F880F51
S1132630991F820F931F9F01281B390BD8012C93DC
S11326409F01ADECBCEC0E946224FC01F695E79579
S1132650F695E795F695E79507C0AD81BE81A80F7D
S1132660B11D87FDBA951C928F818F5F8F83682F70
S1132670082E000C770B1885212F30E062177307A2
S11326800CF4BACF215031090DE0209F202D1124E4
S113269005E0020F11501F8311231CF1ED2CF12CC6
S11326A0ED81FE81E10FF11D17FDFA956081062E83
S11326B0000C770B880B990B0E94A21F8F81082EA8
S11326C0000C990B8E159F0539F4DD2029F08BE958
S11326D090E00E946E1F0B5F1F8111501F83112316
S11326E0FCF64CE0400F24E264E1802F0E94011DBF
S11326F00E9427190E94910D8111FCCF00E0ED2C5E
S1132700F12C0F2EFDE0CF2EF02D0F2EF3EF5F2EC8
S1132710F02D0F2EF9E06F2EF02D0E94910D8823DD
S113272009F412C1813009F078C00F5F202F002E08
S1132730000C330B888590E02817390709F0BCC0DA
S11327400E94910D8111FCCF24E241E164E185E016
S11327500E94011D10E00E94910D882399F183309D
S113276021F411507AF512E02DC0823029F41F5F54
S1132770133044F110E026C0813021F5111116C048
S113278000E021E244E765E186E50E947E1C2DE23B
S113279044E761E286E50E947E1C29E344E76DE29A
S11327A086E50E947E1C0E94271986C0113009F418
S11327B0D4C0123039F49E012F5F3F4F19010E949B
S11327C0C00AE4C000E021E244E765E186E50E9436
S11327D07E1C2DE244E761E286E50E947E1C29E32B
S11327E044E76DE286E50E947E1C612F660F610F4F
S11327F0660F660F21E2260F6B5E0FEF44E786E556
S11328000E947E1C0E9427190E94910D8111FCCF09
S11328100E94910D8823E1F39ECF833031F5802E01
S1132820002E000C9908ED81FE81E80DF91D7080E1
S113283081E0870D8083ED81FE81E80DF91D8081A3
S11328408A300CF01082CE0101961C010E94C00A4D
S11328502B813C812817390708F48CC029813A81DF
S11328608217930708F486C027C0823029F5802E8A
S1132870002E000C9908ED81FE81E80DF91D708091
S11328808FEF870D8083ED81FE81E80DF91D808136
S113289088230CF46082DE0111961D010E94C00A97
S11328A02B813C812817390708F46AC029813A81B1
S11328B08217930708F464C084E10E94601985E0DC
S11328C00E945B19888581508F83882304F1ED81F0
S11328D0FE81E80FF11D87FDFA956081062E000C3C
S11328E0770B880B990B0E94A21F8F81082E000C76
S11328F0990B8E159F0531F4DD2021F08BE990E0D2
S11329000E946E1F8F8181508F83882304F78885EE
S11329108150059D902D11248C9D900D112485E0EE
S1132920890FDD2049F0202F002E000C330B2E15CB
S11329303F0514F48AE0890F4CE0480F24E264E177
S11329400E94011D0E9427190E94910D8111FCCF44
S11329500E94910D8823E1F3E0CE8A2D9B2D16C0B1
S113296080E090E00E9485249E838D838FEF8F8387
S113297008EFB7CEED81FE81E80DF91D70829CCF82
S1132980ED81FE81E80DF91D708296CF2C960FB66D
S1132990F894DEBF0FBECDBFDF91CF911F910F9191
S11329A0FF90EF90DF90CF90BF90AF909F908F906B
S11329B07F906F905F904F903F902F9008950E946A
S11329C0910D8111FCCF8091F701863054F08091F4
S11329D0F6018F5F8093F6011092F7018230D9F4EB
S11329E024C088235CF48091F60181508093F60121
S11329F095E09093F701823071F408C08091F6015C
S1132A00823049F48091F70184307CF01092F60111
S1132A101092F7010AC08091F601882334F482E011
S1132A208093F60183E08093F7010E94F81C21E073
S1132A3048E065E080EA9BE00E94D81D8091F601A1
S1132A40811188C08AE00E945B1981E00E94D2193A
S1132A508DE990E00E946E1F8BE40E945B196091E7
S1132A606B0070916C0080E090E00E94A21F8AE0ED
S1132A700E945B1982E00E94D21986EA90E00E94CB
S1132A806E1F8BE40E945B1960916D0070916E0063
S1132A9080E090E00E94A21F8AE00E945B1983E01C
S1132AA00E94D21980EB90E00E946E1F8BE40E947A
S1132AB05B1960917300709174008091750090911E
S1132AC0760028EE33E040E050E00E9407218AE0DF
S1132AD00E945B1984E00E94D21988EB90E00E9466
S1132AE06E1F8BE40E945B196091770070917800EF
S1132AF08091790090917A0028EE33E040E050E034
S1132B000E9407218AE00E945B1985E00E94D21985
S1132B108EEB90E00E946E1F8BE40E945B19609123
S1132B207B0070E080E090E00E94A21F8AE00E9497
S1132B305B1986E00E94D21986EC90E00E946E1F19
S1132B408BE40E945B196091660070E080E090E085
S1132B500E94A21F8091F601813009F079C08AE0B9
S1132B600E945B1981E00E94D21980ED90E00E94DE
S1132B706E1F8BE40E945B1960916A0070E080E034
S1132B8090E00E94A21F8AE00E945B1982E00E94EA
S1132B90D2198AED90E00E946E1F8BE40E945B19AB
S1132BA060916F007091700080917100909172003B
S1132BB028EE33E040E050E00E9407218AE00E94C2
S1132BC05B1983E00E94D21982EE90E00E946E1F8E
S1132BD08BE40E945B19609167007091680080E04B
S1132BE090E00E94A21F8AE00E945B1984E00E9488
S1132BF0D2198BEE90E00E946E1F8BE40E945B1949
S1132C006091690070E080E090E00E94A21F8AE079
S1132C100E945B1985E00E94D21989EF90E00E941E
S1132C206E1F8BE40E945B1960917C0070E080E071
S1132C3090E00E94A21F8AE00E945B1986E00E9435
S1132C40D21986E091E00E946E1F8BE40E945B190A
S1132C508091F601823059F58AE00E945B1981E087
S1132C600E94D21981E191E00E946E1F8BE40E94C0
S1132C705B198AE00E945B1982E00E94D21981E20A
S1132C8091E00E946E1F8AE00E945B1983E00E941B
S1132C90D21980E391E00E946E1F8AE00E945B19C2
S1132CA084E00E94D2198EE391E00E946E1F60912D
S1132CB0F701660F660F660F2FE0260F695F4FE777
S1132CC080E00E94011D0E9427190E94910D882313
S1132CD0E1F3813009F01BC28091F601082E000C4B
S1132CE0990BFC01EE0FFF1FE80FF91FEE0FFF1FFA
S1132CF08091F701E80FF11D87FDFA95E031F105A8
S1132D0008F014C2E65DFF4F0C945C2440916B0004
S1132D1050916C0003E411E020E060E070E080E09A
S1132D2094E00E94D11120916B0030916C008217C5
S1132D30930709F4FBC190936C0080936B0041E00E
S1132D4064E088E090E00E94330FF0C140916D0090
S1132D5050916E0002E511E020E060E070E080E058
S1132D6094E00E94D11120916D0030916E00821781
S1132D70930709F4DBC190936E0080936D0041E0EA
S1132D8064E088E090E00E94330FD0C120E030E09E
S1132D904AE754E460917300709174008091750067
S1132DA0909176000E946C230E94862202E611E034
S1132DB023E0AB0166E970E08CED95E00E94D1114F
S1132DC0BC0180E090E00E94B5226B017C0120E010
S1132DD030E04AE754E4609173007091740080918C
S1132DE07500909176000E946C239B01AC01C70191
S1132DF0B6010E940822882309F498C120E030E03B
S1132E004AE754E4C701B6010E940D22609373009F
S1132E1070937400809375009093760041E064E0B1
S1132E2088E090E00E94330F81C120E030E04AE75F
S1132E3054E46091770070917800809179009091CA
S1132E407A000E946C230E94862205E711E023E0A9
S1132E50AB0166E970E088EE93E00E94D111BC01F9
S1132E6080E090E00E94B5226B017C0120E030E01C
S1132E704AE754E46091770070917800809179007A
S1132E8090917A000E946C239B01AC01C701B601AA
S1132E900E940822882309F449C120E030E04AE76F
S1132EA054E4C701B6010E940D2260937700709329
S1132EB078008093790090937A0041E064E088E0A0
S1132EC090E00E94330F32C140917B0050E000E853
S1132ED011E020E061E070E080E190E00E94D11117
S1132EE020917B0030E08217930709F41FC180937F
S1132EF07B0041E064E088E090E00E94330F16C15B
S1132F004091660050E005E911E020E060E070E0E7
S1132F1081E090E00E94D1112091660030E0821798
S1132F20930709F403C18093660041E064E088E0FC
S1132F3090E00E94330FFAC040916A0050E004EA26
S1132F4011E020E068E270E080E991E00E94D11194
S1132F5020916A0030E08217930709F4E7C0809358
S1132F606A0041E064E088E090E00E94330FDEC034
S1132F7020E030E04AE754E460916F007091700003
S1132F8080917100909172000E946C230E948622AD
S1132F9002EB11E023E0AB0164E670E080EA9FE01D
S1132FA00E94D111BC0180E090E00E94B5226B0127
S1132FB07C0120E030E04AE754E460916F007091B6
S1132FC0700080917100909172000E946C239B01AB
S1132FD0AC01C701B6010E940822882309F4A6C0E7
S1132FE020E030E04AE754E4C701B6010E940D2214
S1132FF060936F00709370008093710090937200DF
S113300041E064E088E090E00E94330F8FC040917B
S113301067005091680003EC11E020E060E170E08B
S113302080E991E00E94D1112091670030916800FD
S11330308217930709F47AC090936800809367001D
S113304041E064E088E090E00E94330F6FC040915B
S1133050690050E007ED11E020E062E370E084EFE6
S113306091E00E94D1112091690030E0821793070A
S113307009F45CC08093690041E064E088E090E07A
S11330800E94330F53C040917C0050E009EF10E0E0
S113309020E06AE070E08FEF90E00E94D11120916F
S11330A07C0030E08217930709F440C080937C00D1
S11330B00E94511941E064E088E090E00E94330FDF
S11330C035C081E080930C020E94910D8111FCCFE8
S11330D00E9498182BC00E94C70D28C0109221028C
S11330E0109222021092230210922402C3E343E0BE
S11330F064E080E890E00E94330FC150C1F716C02D
S11331000E94910D8111FCCF0E9498180FC082304B
S113311031F48091F7018F5F8093F70107C083300A
S113312029F48091F70181508093F7010E94DF1404
S11331300E9464100E94280C0E94C20E0E94471133
S11331400E94360D0E94580E0E94910D8823A1F30F
S11331500E94DF1466956695669590E8699FB001B4
S11331601124680F711DFB01ED5CFD4F4083089530
S113317066956695669590E8699FB0011124680F7D
S1133180711DFB01ED5CFD4F80810895FF920F934B
S11331901F93CF93DF93C82F062F172FF42E0E946F
S11331A084210E948121883031F0803121F081E036
S11331B08093290233C088E70E9492210E948121D2
S11331C0883131F0803221F081E08093290226C0D9
S11331D08C2F0E9492210E948121883219F4F110CF
S11331E007C01AC08033D9F381E08093290216C046
S11331F0C02FD12F8E010F5F1F4FFA940F0D111D99
S113320089910E9492210E948121883211F0803399
S113321019F4C017D107A1F7109229020E948C213A
S1133220DF91CF911F910F91FF900895CF93DF937A
S11332301F92CDB7DEB7898341E0BE016F5F7F4F38
S113324080E00E94C6180F90DF91CF910895CF932C
S1133250DF9381E20E94161980E00E9416198FE71D
S11332600E94161982E20E94161980E00E94161923
S113327087E00E941619C0E0D0E0BE016295729505
S1133280707F7627607F76276D5C7D4F40E180E418
S11332900E94C6182196C034D10579F7DF91CF91E9
S11332A00895CF93C82F81E80E9416198C2F0E948D
S11332B01619CF910895882314F080932A02089553
S11332C090912B02903410F480932B020895CF93A5
S11332D0C62F0E945B198C2F0E946019CF9108950C
S11332E00E9477218EEA0E94161985ED0E94161914
S11332F080EF0E94161988EA0E9416198FE30E9433
S1133300161983ED0E94161980E00E9416198DE8A3
S11333100E94161984E10E94161980E40E9416196D
S113332080E20E94161980E00E94161981EA0E9428
S1133330161988EC0E9416198AED0E94161982E16A
S11333400E94161981E80E9416198FEF0E9416191F
S113335089ED0E94161981EF0E9416198BED0E94C7
S1133360161980E20E94161984EA0E94161986EA48
S11333700E9416198EE20E9416198FEA0E941619ED
S113338060E080E00E94671986EA80932C02109224
S113339031021092300210922F0210922B021092DE
S11333A02A020895883028F4880F880F880F8093A4
S11333B02B02089580912A0208958F929F92AF92D2
S11333C0BF92CF92DF92EF92FF920F931F93CF930E
S11333D0DF93062F142F0E946719D0912B02C091FE
S11333E02A026D2F8C2F0E94B8181F3F91F4902F42
S11333F09770812C912C540183947501640104C04D
S1133400CC0CDD1CEE1CFF1C9A95D2F7482F4C29DE
S113341013C00770C12CD12C7601C394B701A60147
S113342004C0440F551F661F771F0A95D2F78A01FF
S11334309B010095482F40236D2F8C2F0E94AA18C2
S1133440DF91CF911F910F91FF90EF90DF90CF907C
S1133450BF90AF909F908F9008953F924F925F924C
S11334606F927F928F929F92AF92BF92CF92DF9290
S1133470EF92FF920F931F93CF93DF93982E88239D
S11334800CF4C6C044230CF4C3C0603408F0C0C0BC
S1133490203408F0BDC011E0812E861A820E181B5C
S11334A0140F462F4770762E741AE82CF12C88E0FE
S11334B090E0841B9109E816F9067CF488E090E01A
S11334C08E199F092FEF30E0590102C0B594A794DB
S11334D08A95E2F78A2D682C04C088E0682E641A65
S11334E08FEFA82EB12C02C0AA0CBB1C4A95E2F7A0
S11334F03A2C672D892D0E9467191123C9F1512C8B
S11335000F2EFBE2CF2EF2E0DF2EF02DCAE2D2E046
S1133510A094F6014080B880642D8B2D0E94B818C9
S11335200F3F19F4482F432902C0482F4A219B2DED
S11335309F5F9883642D8B2D0E94AA185394511277
S1133540E8CF16C0C85F6C2F892D0E94671911231C
S1133550F1F07A2CF6016081F2018081982F9F5F4F
S11335609083402F0E94AA187394711681F0F2CFB1
S1133570C72D6718A12C0F2EFBE2CF2EF2E0DF2E11
S1133580F02D0F2EFAE24F2EF2E05F2EF02D262DB5
S11335902C0FE22FF0E0CF010896E816F90694F616
S11335A02815B0F5EE1AFF0A8FEF90E09C0102C0D7
S11335B0220F331FEA94E2F77901E0946C2F685FDD
S11335C0892D0E946719112319F1B12C0F2EFBE2EA
S11335D0CF2EF2E0DF2EF02DCAE2D2E09E2C9094A2
S11335E0F601A080F8806A2D8F2D0E94B8180F3F35
S11335F019F4482F4E2902C0482F49219F2D9F5F5F
S113360098836A2D8F2D0E94AA18B394B112E8CF23
S1133610DF91CF911F910F91FF90EF90DF90CF90AA
S1133620BF90AF909F908F907F906F905F904F90DE
S11336303F9008952F923F924F925F926F927F92A4
S11336408F929F92AF92BF92CF92DF92EF92FF92AE
S11336500F931F93CF93DF93CDB7DEB72C970FB69D
S1133660F894DEBF0FBECDBF5C01662E2983209186
S11336702A022F8330912B023A87822F860F1AF465
S113368080E8682E621A842F90E0079695958795B6
S113369095958795959587958D839E839A8596951F
S11336A096959695890F893048F02D813E81285F43
S11336B03F4FA901481B51095E834D834A8457E05B
S11336C045228D819E81892B09F4FAC09A859C83B9
S11336D0712C262C312C512C88E090E0FC01E4194B
S11336E0F109FB83EA830F2EFBE2CF2EF2E0DF2EFB
S11336F0F02D0AE212E06C818F810E9467193986ED
S11337002886729CC001739C900D11247C01E218E0
S1133710F308662009F43CC09C012A0D3B1D852C4E
S11337203C872B87EB85FC859490042C01C0990C75
S11337300A94EAF7772079F0F501EE0DFF1D2FEFDB
S1133740E21AF20A849190E00A8002C09595879566
S11337500A94E2F7982A3981313039F4F60160810C
S1133760F80180810E94B818982AF6016081F80156
S11337708081982F9F5F9083492D0E94AA1883947B
S11337802B853C852F5F3F4F3C872B878610CACF04
S1133790E2E3F2E08081882341F0F6016081F801E0
S11337A080810E94B818482F01C0452DF601608120
S11337B0F80180810E94AA18FC81F85FFC8373944D
S11337C0872D90E02D813E818217930708F493CFD3
S11337D02230310508F474C06F2F8F810E9467195D
S11337E0272D30E02150310948855985249FC00197
S11337F0259F900D349F900D1124662009F43EC03E
S11338004501880E991E65015FEFC51AD50A6A94B1
S1133810C60CD11CC80ED91E0F2EFBE2EF2EF2E00F
S1133820FF2EF02D0AE212E088E090E05C01A4187B
S1133830B1083401F7018080F8019080682D892D4A
S11338400E94B818F301449150E00A2C02C0559527
S113385047950A94E2F7482BF981F13009F4482B93
S1133860892D8F5FF8018083682D892D0E94AA1805
S1133870FFEF6F1A7F0A6C147D04E1F68091320227
S1133880882399F0813041F460912B0280912A02BF
S11338900E94B818482F0AC060912B0280912A0216
S11338A00E94B818482F409501C040E060912B0257
S11338B0EAE2F2E08081982F9F5F90830E94AA1829
S11338C00E94DA196A850E9467192C960FB6F8943B
S11338D0DEBF0FBECDBFDF91CF911F910F91FF903F
S11338E0EF90DF90CF90BF90AF909F908F907F909C
S11338F06F905F904F903F902F900895DF92EF92DA
S1133900FF920F931F93CF93DF93E82E162FD42E9D
S1133910F22ED02F88230CF449C044230CF446C063
S1133920603408F043C08FE3821708F43FC04E159B
S113393000F11CC04D2F612F8C2F0E94DD19CF5F29
S11339400C17C0F7DE14D8F017C04D2F6F2D8C2F35
S11339500E94DD19CF5F0C17C0F7F11698F01CC058
S11339600D2F4D2D8D2D0E942D1A20C0042FCE2DEC
S1133970E1CF0E2DC42FDECF0D2DCE2DE6CF0E2D93
S1133980CD2DE3CF0D2F212F4E2D6F2D8E2D0E9487
S11339902D1A212F6F2DE4CF0D2F2F2D4E2D612F9A
S11339A08E2D0E942D1A2F2D612FDACFDF91CF910A
S11339B01F910F91FF90EF90DF9008950F931F9345
S11339C0CF93DF93182FD0E000E00BC0412F6D2F71
S11339D08C2F0E94AA18CF5FC038C1F7D85FD034AB
S11339E011F0C02FF3CFDF91CF911F910F91089564
S11339F080E00E94DE1C08950F930E942D1A0F91FF
S1133A0008952F923F925F926F927F928F929F922E
S1133A10AF92BF92CF92DF92EF92FF920F931F93D8
S1133A20CF93DF93C82E81E0D82EDC18D40EB82EA5
S1133A30B61AB20E462F4770A62EA41A0B2D10E00C
S1133A4088E090E0841B9109081719077CF488E04A
S1133A5090E0801B910B2FEF30E0B90102C0759507
S1133A6067958A95E2F7CB015B2C04C088E0582E59
S1133A70541A8FEF682E01C0660C4A95EAF76A2D36
S1133A808C2D0E946719DD20D9F1812C0F2EFBE2C9
S1133A90EF2EF2E0FF2EF02DCAE2D2E0F7017080A3
S1133AA09880672D892D0E94B818992D9F5F98835F
S1133AB0482F4625672D892D0E94AA1883948D10BE
S1133AC0EDCF1EC0C85F6C2F8C2D0E946719DD20BE
S1133AD039F1672CF7015080F1018080652D882D24
S1133AE00E94B818982D9F5FF1019083482F40954C
S1133AF0652D882D0E94AA1863946D1489F0EACF6D
S1133B00CA2D5A18A52C712C0F2EFBE2EF2EF2E0D1
S1133B10FF2EF02D0F2EFAE22F2EF2E03F2EF02D85
S1133B208A2D8C0FE82FF0E0DF0118960A171B0787
S1133B304CF68B1558F50E1B1F0B8FEF90E09C0174
S1133B4002C0220F331F0A95E2F7B22EB0946C2FF5
S1133B50685F8C2D0E946719DD20C1F0E12C0BE217
S1133B6012E0CAE2D2E0F801C080F8806C2D8F2DFB
S1133B700E94B8189F2D9F5F9883482F4B256C2D6A
S1133B808F2D0E94AA18E394ED10EDCFDF91CF9111
S1133B901F910F91FF90EF90DF90CF90BF90AF9067
S1133BA09F908F907F906F905F903F902F9008959B
S1133BB06623F4F04034E0F42230D0F490932E02E3
S1133BC080932D0260932F024093300250E04150C5
S1133BD05109CA0199230CF40796959587959595F3
S1133BE08795959587958F5F809331022093320254
S1133BF008952F923F924F925F926F927F928F928D
S1133C009F92AF92BF92CF92DF92EF92FF920F9367
S1133C101F93CF93DF93CDB7DEB72B970FB6F894EE
S1133C20DEBF0FBECDBF20912A022C8330912B0220
S1133C303F8390913102805220912F02299F90015D
S1133C4011242F5F3F4F829FA001839F500D1124A9
S1133C50598748874F5F5F4F5E834D83E0912D0204
S1133C60F0912E02A885B985EA0FFB1F54907F803E
S1133C70B7E07B22992309F492C0EF81EB83312CC6
S1133C80212C88E090E09C01271931093A8329838B
S1133C900F2EF2E38F2EF2E09F2EF02D0F2EFBE27B
S1133CA0AF2EF2E0BF2EF02D0AE212E0672C752C45
S1133CB06B818C810E9467194D815E81430D511D7A
S1133CC05B874A877A0151E0E51AF108772009F405
S1133CD04FC00F2EF1E3CF2EF2E0DF2EF02D832D17
S1133CE0362C672C722C582EADE2B2E02D913C910B
S1133CF0EA85FB85E20FF31FE4914E2E032C01C0ED
S1133D00440C0A94EAF7552081F0F901EE0DFF1DE9
S1133D10249130E0098002C0359527950A94E2F792
S1133D20422AF6018081E80EF11CD4018C91813085
S1133D3039F4F5016081D8018C910E94B818482AA1
S1133D40F5016081D8018C91982F9F5F9C93442D3D
S1133D500E94AA18F60180812A853B85280F311D0F
S1133D603B872A8773947610BFCF762C632C352C2F
S1133D70D4018C91811107C0422DF5016081D801D5
S1133D808C910E94AA18BB81B85FBB833394809145
S1133D903102381608F48CCF572C762C03C0EF81EF
S1133DA0EB83312C2F81229526952695237030E0C4
S1133DB080913002829586958695837090E0FF818C
S1133DC08F0F911D2817390709F469C06B818C8105
S1133DD00E94671928853985230D311D3A8329836B
S1133DE0552009F451C0312C0F2EFBE2AF2EF2E026
S1133DF0BF2EF02D0AE212E00F2EFDE2CF2EF2E0EC
S1133E00DF2EF02D88E090E0AC01471951093A010A
S1133E100F2EF2E3EF2EF2E0FF2EF02D0F2EF1E342
S1133E208F2EF2E09F2EF02DD5012C90F8014080CA
S1133E30622D842D0E94B818D601ED91FC91298140
S1133E403A81E20FF31F449150E0062C02C05595CD
S1133E5047950A94E2F7482BD7019C91913009F4D5
S1133E60482B842D8F5FF8018083622D842D0E945E
S1133E70AA18D4018C91E981FA81E80FF11DFA8323
S1133E80E98333943510D0CF80913202811107C079
S1133E9040E060912B0280912A020E94AA188C8132
S1133EA08F5F6F81850D0E9467192B960FB6F8946A
S1133EB0DEBF0FBECDBFDF91CF911F910F91FF9059
S1133EC0EF90DF90CF90BF90AF909F908F907F90B6
S1133ED06F905F904F903F902F900895EF92FF92D4
S1133EE00F931F93CF93DF93EC018881882319F1FB
S1133EF090912A0220912F0230E0290F311D2038A1
S1133F003105CCF421960F2EFAE2EF2EF2E0FF2ECB
S1133F10F02D0FE212E00AC0F7019081F801208130
S1133F2030E0290F311D203831052CF40E94F91D91
S1133F3089918111F1CFDF91CF911F910F91FF9062
S1133F40EF9008950F931F93CF93DF93CDB7DEB710
S1133F502C970FB6F894DEBF0FBECDBF6115710567
S1133F608105910521F480E30E94F91D45C1611585
S1133F707105810520E8920709F43EC1FE013196DE
S1133F802CE0DF011D922A95E9F720E32B872A878D
S1133F90298728872F832E832D832C832B832A83A1
S1133FA0298399235CF49B01AC0188279927DC01C0
S1133FB0821B930BA40BB50B41E003C0DC01CB01C6
S1133FC040E081303AEC93073AE9A3073BE3B307B7
S1133FD094F02A812F5F01C0232F9A5CAA49BB4326
S1133FE0322F3F5F81305AEC95075AE9A5075BE30E
S1133FF0B50794F72A83811521EE920725EFA207CE
S113400025E0B20794F02B812F5F01C0232F915E2E
S1134010A54FB540322F3F5F811551EE950755EFFF
S1134020A50755E0B50794F72B83803826E9920756
S113403028E9A207B10594F02C812F5F01C0232F3A
S113404080589649A849B109322F3F5F803856E914
S1134050950758E9A507B10594F72C83803422E429
S113406092072FE0A207B10594F02D812F5F01C0C4
S1134070232F80549244AF40B109322F3F5F8034E4
S113408052E495075FE0A507B10594F72D83803AC4
S113409026E8920721E0A207B10594F02E812F5F54
S11340A001C0232F805A9648A140B109322F3F5FA7
S11340B0803A56E8950751E0A507B10594F72E8399
S11340C0803127E29207A105B1058CF02F812F5F83
S11340D001C0232F80519742A109B109322F3F5FBC
S11340E0803157E29507A105B1059CF72F83883EDF
S11340F023E09207A105B1058CF028852F5F01C04C
S1134100232F885E9340A109B109322F3F5F883E77
S113411053E09507A105B1059CF7288784369105DE
S1134120A105B10584F029852F5F01C0232F845692
S11341309109A109B109322F3F5F84369105A10588
S1134140B105A4F729878A309105A105B1057CF052
S11341502A852F5F01C0232F0A97A109B109322FA5
S11341603F5F8A309105A105B105ACF72A8718167F
S113417019061A061B065CF45B858C019D0101502F
S1134180110921093109D9F7652F680F6B878981D6
S1134190803361F480E08F5FE1E0F0E0EC0FFD1F1D
S11341A0E80FF11D90819033B1F301C080E0442306
S11341B031F08150FE01E80FF11D9DE291834AE048
S11341C0481B20E090E0E1E0F0E0EC0FFD1FE20F7F
S11341D0F11DDF01A80FB91F3C9130832F5F4217F7
S11341E090F7E1E0F0E0EC0FFD1FE20FF11D10820B
S11341F0CE0101960E946E1F2C960FB6F894DEBF76
S11342000FBECDBFDF91CF911F910F9108958F9273
S11342109F92AF92BF92CF92DF92EF92FF926B0187
S11342207C0149015A0120E030E0A9010E940822E2
S113423081110AC080E30E94F91D8EE20E94F91DDB
S113424080E30E94F91D4AC020E030E040E05FECCA
S1134250C701B6010E94672388230CF43FC020E005
S113426030E040E05FE4C701B6010E9408228823E1
S1134270ACF520E030E0A901C701B6010E94082294
S113428088233CF4F7FAF094F7F8F0948DE20E9456
S1134290F91DC701B6010E947F220E94A21F8EE26F
S11342A00E94F91DC701B6010E9486220E94B52210
S11342B09B01AC01C701B6010E949B216B017C01EB
S11342C0C501B4010E94B5229B01AC01C701B6012E
S11342D00E946C230E947F220E94A21FFF90EF90F5
S11342E0DF90CF90BF90AF909F908F900895A19A48
S11342F0A09AA99AA89A11B88CE080B984E086BFE4
S1134300089581B1887F089584EA86BF06B607FEC2
S1134310FDCF0E948121089585ED86BF06B604FC79
S1134320FDCF089583B984E886BF06B607FEFDCFA6
S11343300E94812108955058BB27AA270E94B321C7
S11343400C942D230E941F2338F00E94262320F072
S113435039F49F3F19F426F40C941C230EF4E095D1
S1134360E7FB0C941623E92F0E943E2358F3BA1757
S1134370620773078407950720F079F4A6F50C9477
S113438060230EF4E0950B2EBA2FA02D0B01B9017A
S113439090010C01CA01A0011124FF27591B99F0B7
S11343A0593F50F4503E68F11A16F040A22F232FC3
S11343B0342F4427585FF3CF469537952795A79513
S11343C0F0405395C9F77EF41F16BA0B620B730BBA
S11343D0840BBAF09150A1F0FF0FBB1F661F771F2B
S11343E0881FC2F70EC0BA0F621F731F841F48F4E0
S11343F0879577956795B795F7959E3F08F0B0CF69
S11344009395880F08F09927EE0F9795879508954F
S11344100E94F22208F481E008950E9421220C9463
S11344202D230E94262358F00E941F2340F029F4D4
S11344305F3F29F00C94162351110C9461230C94C2
S11344401C230E943E2368F39923B1F3552391F36F
S1134450951B550BBB27AA2762177307840738F0EF
S11344609F5F5F4F220F331F441FAA1FA9F335D04C
S11344700E2E3AF0E0E832D091505040E695001C00
S1134480CAF72BD0FE2F29D0660F771F881FBB1FBA
S1134490261737074807AB07B0E809F0BB0B802D98
S11344A0BF01FF2793585F4F3AF09E3F510578F0C4
S11344B00C9416230C9461235F3FE4F3983ED4F3E9
S11344C0869577956795B795F7959F5FC9F7880F98
S11344D0911D9695879597F90895E1E0660F771FEA
S11344E0881FBB1F621773078407BA0720F0621B7B
S11344F0730B840BBA0BEE1F88F7E09508950E94A6
S113450086226894B1110C94612308950E94462375
S113451088F09F5798F0B92F9927B751B0F0E1F080
S1134520660F771F881F991F1AF0BA95C9F714C030
S1134530B13091F00E946023B1E008950C9460239F
S1134540672F782F8827B85F39F0B93FCCF3869569
S113455077956795B395D9F73EF4909580957095C6
S113456061957F4F8F4F9F4F0895E89409C097FB43
S11345703EF490958095709561957F4F8F4F9F4F36
S11345809923A9F0F92F96E9BB279395F69587957A
S113459077956795B795F111F8CFFAF4BB0F11F43D
S11345A060FF1BC06F5F7F4F8F4F9F4F16C08823E4
S11345B011F096E911C0772321F09EE8872F762F1A
S11345C005C0662371F096E8862F70E060E02AF05B
S11345D09A95660F771F881FDAF7880F9695879547
S11345E097F90895990F0008550FAA0BE0E8FEEF1C
S11345F016161706E807F907C0F012161306E407A3
S1134600F50798F0621B730B840B950B39F40A269B
S113461061F0232B242B252B21F408950A2609F479
S1134620A140A6958FEF811D811D089597F99F677D
S113463080E870E060E008959FEF80EC0895002426
S11346400A941616170618060906089500240A94F3
S113465012161306140605060895092E0394000C79
S113466011F4882352F0BB0F40F4BF2B11F460FF08
S113467004C06F5F7F4F8F4F9F4F089557FD905831
S1134680440F551F59F05F3F71F04795880F97FB12
S1134690991F61F09F3F79F08795089512161306CC
S11346A01406551FF2CF4695F1DF08C016161706FB
S11346B01806991FF1CF8695710561050894089530
S11346C0E894BB2766277727CB0197F908950E94C2
S11346D0F22208F48FEF08950E947F230C942D2377
S11346E00E941F2338F00E94262320F0952311F006
S11346F00C9416230C941C2311240C9461230E9403
S11347003E2370F3959FC1F3950F50E0551F629FB0
S1134710F001729FBB27F00DB11D639FAA27F00D16
S1134720B11DAA1F649F6627B00DA11D661F829F3D
S11347302227B00DA11D621F739FB00DA11D621F22
S1134740839FA00D611D221F749F3327A00D611D3F
S1134750231F849F600D211D822F762F6A2F112421
S11347609F5750409AF0F1F088234AF0EE0FFF1F54
S1134770BB1F661F771F881F91505040A9F79E3FAB
S1134780510580F00C9416230C9461235F3FE4F3ED
S1134790983ED4F3869577956795B795F795E79501
S11347A09F5FC1F7FE2B880F911D9695879597F90A
S11347B008950E944623E8F09E37E8F09639B8F44D
S11347C09E3848F4672F782F8827985FF9CF86950D
S11347D07795679593959539D0F3B62FB1706B0F94
S11347E0711D811D20F487957795679593950C9499
S11347F0FD230C9418240C946123882371F47723EB
S113480021F09850872B762F07C0662311F499273F
S11348100DC09051862B70E060E02AF09A95660FE7
S1134820771F881FDAF7880F9695879597F908956B
S11348309F3F31F0915020F4879577956795B79510
S1134840880F911D9695879597F9089597FB072EE4
S113485016F4009407D077FD09D00E94712407FC58
S113486005D03EF4909581959F4F0895709561957C
S11348707F4F0895A1E21A2EAA1BBB1BFD010DC098
S1134880AA1FBB1FEE1FFF1FA217B307E407F507FC
S113489020F0A21BB30BE40BF50B661F771F881FD8
S11348A0991F1A9469F760957095809590959B016E
S11348B0AC01BD01CF010895EE0FFF1F0590F491E7
S11348C0E02D0994A29FB001B39FC001A39F700D76
S11348D0811D1124911DB29F700D811D1124911D04
S11348E00895AA1BBB1B51E107C0AA1FBB1FA61733
S11348F0B70710F0A61BB70B881F991F5A95A9F785
S113490080959095BC01CD0108950F931F93CF938B
S1134910DF938230910510F482E090E0E091350657
S1134920F091360620E030E0A0E0B0E0309719F1D5
S1134930408151810281138148175907C8F08417B7
S1134940950769F4109731F012960C931297139609
S11349501C9327C0009335061093360622C02115F8
S1134960310519F04217530718F49A01BD01EF01FC
S1134970DF01F801DBCF21153105F9F0281B390BD4
S11349802430310580F48A819B816115710521F001
S1134990FB019383828304C090933606809335068B
S11349A0FE01329644C0FE01E20FF31F81939193FE
S11349B022503109398328833AC02091330630913B
S11349C03406232B41F4209162003091630030932C
S11349D03406209333062091600030916100211544
S11349E0310541F42DB73EB7409164005091650004
S11349F0241B350BE0913306F0913406E217F307DC
S1134A00A0F42E1B3F0B2817390778F0AC014E5F3A
S1134A105F4F2417350748F04E0F5F1F509334063D
S1134A20409333068193919302C0E0E0F0E0CF011C
S1134A30DF91CF911F910F910895CF93DF9300974A
S1134A4009F481C0FC01329713821282A0913506C9
S1134A50B0913606109781F420813181820F931F23
S1134A6020913306309134062817390751F5F09315
S1134A703406E093330667C0ED0120E030E0CE1742
S1134A80DF0740F44A815B819E0141155105F1F035
S1134A90EA01F5CFD383C28340815181840F951FEE
S1134AA0C817D90759F488819981840F951F0296F4
S1134AB0918380838A819B8193838283211531052D
S1134AC029F4F0933606E09335063DC0E901FB83F3
S1134AD0EA8349915991C40FD51FEC17FD0761F47E
S1134AE080819181840F951F0296E90199838883BF
S1134AF0828193819B838A83E0E0F0E012968D911A
S1134B009C911397009719F0FD01DC01F7CF8D916B
S1134B109C9111979D012E5F3F4F820F931F20910F
S1134B203306309134062817390769F4309729F48D
S1134B30109236061092350602C013821282B09388
S1134B403406A0933306DF91CF910895E199FECF07
S1134B509FBB8EBBE09A99278DB30895A6E1B0E080
S1134B6044E050E00C94EC25A8E1B0E042E050E0D1
S1134B700C94EC25262FE199FECF9FBB8EBBE09AC7
S1134B8001970DB2021631F02DBB0FB6F894E29ADC
S1134B90E19A0FBE08950396272F0E94BB250E9419
S1134BA0BA25252F0E94BB25242F0C94BB250196E2
S1134BB0272F0E94BB250C94BA25242F0E94FB2585
S1134BC0252F0E94FB250C94E5250E94FA25272F0A
S1134BD00C94FB25DC01CB01FC01E199FECF06C05E
S1134BE0FFBBEEBBE09A31960DB20D92415050409E
S1134BF0B8F70895262FE199FECF9FBB8EBB2DBB3E
S1134C000FB6F894E29AE19A0FBE01960895F894CB
S1054C10FFCFD0
S1134C1200003706200001600096BE000400043341
S1134C2233A33F3333333F0000803F06FA0156007B
S1134C32300045646974004261636B0053617665B8
S1134C42006D696E3A006D61783A002E0044696124
S1134C526C2050574D004172726F772050574D00AF
S1134C62576865656C204400526174696F004D6138
S1134C72676E6574730053746570206D6F646500AC
S1134C824D6178207370656564004465672F6B6DB0
S1134C926800534D207374657073005374657020FB
S1134CA2696E74657276616C004C434420636F6E66
S1134CB27472617374004465627567206D6F646514
S1134CC20043616C696272617465206172726F770C
S1134CD2004F646F6D65746572207265736574004C
S1134CE24C6F61642064656661756C747300457809
S1134CF26974004469616C206C6967687420505758
S1134D024D004172726F77206C6967687420505746
S1134D124D00576865656C204469616D6574657200
S1134D2220286D29004765617220726174696F00E1
S1134D324D61676E657473206F6E207468652077A9
S1134D426865656C00302D66756C6C2C20312D689D
S1134D52616C66004D6178696D756D20737065656F
S1134D6264004465677265657320706572206B6DBB
S1134D722F680053746570706572206D6F746F7262
S1134D822073746570730054696D6520626574776D
S1134D9265656E2073746570730005060A0201006E
S1094DA20804070E0108DD
S9030000FC
