S00E00007370656564332E73726563D2
S11300000C94A10A0C94BE0A0C94030C0C94BE0A22
S11300100C94D10B0C94BE0A0C94BE0A0C94BE0A28
S11300200C94BE0A0C94E80B0C94990B0C94BE0A25
S11300300C94BE0A0C94BE0A0C94BE0A0C94BE0A1C
S11300400C94BE0A0C94BE0A0C94BE0A0C94BE0A0C
S11300500C94BE0A181838185818A718F61812194C
S11300602E194A199919B919D519F319FF19021A30
S1130070BC1A441B0C000000F01F00FC7F00FEFFB4
S1130080000FE00107C00107C00107C0010FE00134
S1130090FEFF00FC7F00F01F000C000000F01F00BA
S11300A0FC7F00FEFF000FE00107C00107C001074D
S11300B0C0010FE001FEFF00FC7F00F01F000C00F8
S11300C00000F01F00FC7F00FEFF000FE00107C0EE
S11300D00107C00107C0010FE001FEFF00FC7F0023
S11300E0F01F000C000000F01F00FC7F00FEFF006A
S11300F00FE00107C00107C00107C0010FE001FEC6
S1130100FF00FC7F00F01F000C000000F01F00FC4B
S11301107F00FEFF000FE00107C00107C00107C018
S1130120010FE001FEFF00FC7F00F01F000C000047
S113013000F01F00FC7F00FEFF000FE00107C0017C
S113014007C00107C0010FE001FEFF00FC7F00F0C3
S11301501F000C000000F01F00FC7F00FEFF000FDA
S1130160E00107C00107C00107C0010FE001FEFF65
S113017000FC7F00F01F000C000000F01F00FC7F5B
S113018000FEFF000FE00107C00107C00107C00126
S11301900FE001FEFF00FC7F00F01F000C000000D8
S11301A0F01F00FC7F00FEFF000FE00107C0010705
S11301B0C00107C0010FE001FEFF00FC7F00F01F3B
S11301C0000C000000F01F00FC7F00FEFF000FE0A9
S11301D00107C00107C00107C0010FE001FEFF00D5
S11301E0FC7F00F01F000C000000F01F00FC7F00EB
S11301F0FEFF000FE00107C00107C00107C0010FA7
S1130200E001FEFF00FC7F00F01F000C000000F086
S11302101F00FC7F00FEFF000FE00107C00107C0C4
S11302200107C0010FE001FEFF00FC7F00F01F008A
S11302300C000000F01F00FC7F00FEFF000FE00137
S113024007C00107C00107C0010FE001FEFF00FC69
S11302507F00F01F000C000000F01F00FC7F00FE78
S1130260FF000FE00107C00107C00107C0010FE054
S113027001FEFF00FC7F00F01F000400000000C02E
S11302800100C00100C001000000000000000000E7
S11302900000000000000000000000000000000C4E
S11302A000800100F801C0FF01FC7F00FF07003F50
S11302B00000030000000000000000000000000037
S11302C0000000000C000000F01F00FC7F00FEFF97
S11302D0000FE00107C00107C00107C0010FE001E2
S11302E0FEFF00FC7F00F01F000C00000000000077
S11302F06000007000007800003C00001E0000FF59
S1130300FF01FFFF01FFFF010000000000000C00DF
S113031000003880013CE0013EF0010FF80107FCC9
S11303200107DE0107CF018FC701FEC301FEC10132
S113033078C0010C0000001838001E78001EF80078
S11303400FE001C7C101C7C101E7C101FFE3017E9D
S1130350FF003C7F00003E000C000000003E0080D7
S11303603F00C03F00F039007838003E3800FFFFFE
S113037001FFFF01FFFF010038000038000C0000FE
S113038000803900FC7900FFF900FFE001E7C001BB
S1130390E7C001E7C001E7E101C7FF00877F000074
S11303A01F000C000000F01F00FC7F00FEFF008E09
S11303B0E301C7C101C7C101C7C101CFE3019EFF6A
S11303C0009E7F00183E000C00000007000007009C
S11303D00007E00107FC0187FF01E71F00F70300A6
S11303E0FF00003F00001F00000700000C00000099
S11303F0783C00FEFE00FEFF00CFE70187C30187C3
S1130400C30187C301CFE701FEFF00FEFE00783C75
S1130410000C000000F83000FCF300FEF3008FE74E
S11304200107C70107C70107C7018FE300FEFF00EB
S1130430FC7F00F01F001200FE7F00C0FFFF07F8E2
S1130440FFFF1FFC01803F3E00007C0E0000700F88
S11304500000F0070000E0070000E0070000E00FE4
S11304600000F00E0000703E00007CFC01803FF8AC
S1130470FFFF1FE0FFFF0300FE7F000000000012EB
S113048000FE7F00C0FFFF07F8FFFF1FFC01803F55
S11304903E00007C0E0000700F0000F0070000E03A
S11304A0070000E0070000E00F0000F00E000070FD
S11304B03E00007CFC01803FF8FFFF1FE0FFFF03CC
S11304C000FE7F00000000001200FE7F00C0FFFF5E
S11304D007F8FFFF1FFC01803F3E00007C0E000078
S11304E0700F0000F0070000E0070000E0070000C4
S11304F0E00F0000F00E0000703E00007CFC018064
S11305003FF8FFFF1FE0FFFF0300FE7F0000000035
S1130510001200FE7F00C0FFFF07F8FFFF1FFC0171
S1130520803F3E00007C0E0000700F0000F00700CA
S113053000E0070000E0070000E00F0000F00E00FC
S113054000703E00007CFC01803FF8FFFF1FE0FFCD
S1130550FF0300FE7F00000000001200FE7F00C0C9
S1130560FFFF07F8FFFF1FFC01803F3E00007C0EE9
S11305700000700F0000F0070000E0070000E00733
S11305800000E00F0000F00E0000703E00007CFC54
S113059001803FF8FFFF1FE0FFFF0300FE7F000024
S11305A00000001200FE7F00C0FFFF07F8FFFF1FDE
S11305B0FC01803F3E00007C0E0000700F0000F044
S11305C0070000E0070000E0070000E00F0000F073
S11305D00E0000703E00007CFC01803FF8FFFF1F0E
S11305E0E0FFFF0300FE7F00000000001200FE7F1A
S11305F000C0FFFF07F8FFFF1FFC01803F3E000023
S11306007C0E0000700F0000F0070000E0070000FF
S1130610E0070000E00F0000F00E0000703E000054
S11306207CFC01803FF8FFFF1FE0FFFF0300FE7F1B
S113063000000000001200FE7F00C0FFFF07F8FF6B
S1130640FF1FFC01803F3E00007C0E0000700F0085
S113065000F0070000E0070000E0070000E00F00E2
S113066000F00E0000703E00007CFC01803FF8FFAB
S1130670FF1FE0FFFF0300FE7F00000000001200E8
S1130680FE7F00C0FFFF07F8FFFF1FFC01803F3E15
S113069000007C0E0000700F0000F0070000E0076F
S11306A00000E0070000E00F0000F00E0000703EC4
S11306B000007CFC01803FF8FFFF1FE0FFFF030008
S11306C0FE7F00000000001200FE7F00C0FFFF0755
S11306D0F8FFFF1FFC01803F3E00007C0E0000700D
S11306E00F0000F0070000E0070000E0070000E052
S11306F00F0000F00E0000703E00007CFC01803F03
S1130700F8FFFF1FE0FFFF0300FE7F000000000072
S11307101200FE7F00C0FFFF07F8FFFF1FFC0180EF
S11307203F3E00007C0E0000700F0000F007000048
S1130730E0070000E0070000E00F0000F00E0000FA
S1130740703E00007CFC01803FF8FFFF1FE0FFFFCC
S11307500300FE7F00000000001200FE7F00C0FFC7
S1130760FF07F8FFFF1FFC01803F3E00007C0E00E6
S113077000700F0000F0070000E0070000E0070031
S113078000E00F0000F00E0000703E00007CFC0151
S1130790803FF8FFFF1FE0FFFF0300FE7F00000023
S11307A000001200FE7F00C0FFFF07F8FFFF1FFCE0
S11307B001803F3E00007C0E0000700F0000F00737
S11307C00000E0070000E0070000E00F0000F00E6A
S11307D00000703E00007CFC01803FF8FFFF1FE03A
S11307E0FFFF0300FE7F00000000001200FE7F00F8
S11307F0C0FFFF07F8FFFF1FFC01803F3E00007CA5
S11308000E0000700F0000F0070000E0070000E099
S1130810070000E00F0000F00E0000703E00007CB6
S1130820FC01803FF8FFFF1FE0FFFF0300FE7F0095
S113083000000000090000000000000000000000AB
S113084000000000F0000000F0000000F0000000D4
S11308500000000000000000000000000000000094
S11308600000000000000000000000000000000084
S1130870000000000000000000000000001200FE64
S11308807F00C0FFFF07F8FFFF1FFC01803F3E0011
S1130890007C0E0000700F0000F0070000E007006D
S11308A000E0070000E00F0000F00E0000703E00C2
S11308B0007CFC01803FF8FFFF1FE0FFFF0300FE08
S11308C07F00000000001200FE7F00C0FFFF07F859
S11308D0FFFF1FFC01803F3E00007C0E0000700FF4
S11308E00000F0070000E0070000E0070000E00F50
S11308F00000F00E0000703E00007CFC01803FF818
S1130900FFFF1FE0FFFF0300FE7F00000000001256
S1130910000000000000000000000000000E0000C5
S11309200007000080030000C0030000E001000095
S1130930F8000000FEFFFFFFFFFFFFFFFFFFFFFFC8
S113094000000000000000000000000000000000A3
S1130950000000000000000012C00100E0F00100EF
S1130960F8FC0100FE3C0000FF1E0080EF0F00C0F9
S1130970E70700E0E10700F0E0070078E007003C4B
S1130980E007001FE00F800FE01EC007E03EF80301
S1130990E0FCFF00E0F07F00E0C00F00E00000009A
S11309A00012C0008003F000800FFC00801F3E0096
S11309B0003E1E0000780F0000F007E000E007E0B2
S11309C000E007E000E007E000E00FF000E00EF8D0
S11309D001703EFC0378FCBF073EF89FFF1FE00751
S11309E0FE0F0000F80300000000120000F00000F9
S11309F000FC000000FF0000C0FF0000F0E7000062
S1130A00F8E100007EE000801FE000E007E000F86D
S1130A1001E0007E00E000FFFFFFFFFFFFFFFFFF9C
S1130A20FFFFFF0000E0000000E0000000E0000025
S1130A3000E0001200C0800300FF800FF8FF811F58
S1130A40FFFF003EFF780078073800F0071C00E045
S1130A50071C00E0071C00E0071C00E0073C00F056
S1130A60073800700778007C07F0013F07E0FF1F9C
S1130A7007C0FF070000FE01000000001200FC7F19
S1130A8000C0FFFF07F0FFFF0FF880073E3CC001E6
S1130A90781EE000700E7000F0077000E007700030
S1130AA0E0077000E0077000E00FF000F00EE001D6
S1130AB0783EC0073EFC80FF1FF800FF0FE000FCFB
S1130AC001000000001207000000070000000700FA
S1130AD0000007000000070000F80700C0FF07003F
S1130AE0FCFF0780FF0707E03F0007F8070007FE49
S1130AF00000871F0000E7070000F70100007F00E7
S1130B0000001F0000000F000000000000001200A1
S1130B1000F803E007FE0FF81FFF1FFCBF0F3E3E67
S1130B20FC03780EF0017007E000E007E000E00746
S1130B30E000E007E000E00FE000E00EF001703EAE
S1130B40FC0378FCBF0F3EF81FFF1FE007FE0F00F9
S1130B5000F8030000000012C03F0007F0FF001F70
S1130B60F8FF013F7CE0037C1E8007700F000FF04C
S1130B700F000EE007000EE007000EE007000EE095
S1130B8007000E700E0007781E80033C7CE0811F76
S1130B90F0FFFF0FE0FFFF0300FE3F000000000036
S1130BA00500000000000500005F000005000700CC
S1130BB0070005147F147F1405242A7F2A120523B5
S1130BC013086462053649562050050807030000DF
S1130BD005001C224100050041221C000514083EAA
S1130BE008140508083E08080500B0700000050850
S1130BF008080808050060600000052010080402C9
S1130C00053E5149453E0500427F40000572494971
S1130C104946052141494D33051814127F10052713
S1130C2045454539053C4A494931054121110907E2
S1130C3005364949493605464949291E0500001427
S1130C40000005004034000005081422410005148A
S1130C50141414140541221408000502015909064C
S1130C60053E415D594E057C1211127C057F4949B0
S1130C704936053E41414122057F4141413E057FC0
S1130C8049494949057F09090909053E414151730B
S1130C90057F0808087F0500417F41000520404189
S1130CA03F01057F08142241057F40404040057FF5
S1130CB0020C027F057F0408107F053E4141413E3E
S1130CC0057F09090906053E4151215E057F091981
S1130CD029460526494949320501017F0101053F9D
S1130CE04040403F051F2040201F053F4038403F03
S1130CF0056314081463050304780403056151496A
S1130D00454305007F414100050204081020050009
S1130D1041417F0005040201020405404040404077
S1130D2005070B000000052054547840057F284433
S1130D30443805384444442805384444287F053859
S1130D40545454180500087E09020518A4A49C787C
S1130D50057F080404780500447D400005204040D8
S1130D603D00057F102844000500417F4000057CBC
S1130D7004780478057C080404780538444444382D
S1130D8005FC182424180518242418FC057C0804E0
S1130D9004080548545454240504043F4424053CE1
S1130DA04040207C051C2040201C053C4030403C39
S1130DB0054428102844054C9090907C05446454C4
S1130DC04C4405000836410005000077000005008A
S1130DD04136080005040204080405007F417F0031
S1130DE000000000000000000000000000000000FF
S1130DF00000000080C0E0F0F8FCFEFFFFFF0000F0
S1130E0000000000000000000000000000000000DE
S1130E1000000000000000000000000000000000CE
S1130E2000000000000000000000000000000000BE
S1130E3000000000000000000000000000000000AE
S1130E40000000000000000080C0E0F0F8FCFEFF9D
S1130E50FFFFFFFFFFFFFFFFFFFFC0C0C0C0C0C018
S1130E60C0C0C0C0C0C0C0C0C0C0C0C0C0C0C0C07E
S1130E70C0C0C0C0C0C0C0C0C0C0C0C0C0C0C0C06E
S1130E80C0C0C0C0C0C0C0C0C0C0C0C0C0C0C0C05E
S1130E90C0C0C0C0C0C0C0C00000000080C0E0F03E
S1130EA0F8FCFEFFFFFFFFFFFFFFFFFFFFFFFFFF59
S1130EB0FFFFFFFFFFFFFFFFFFFFFFFFFFFFFFFF3E
S1130EC0FFFFFFFFFFFFFFFFFFFFFFFFFFFFFFFF2E
S1130ED0FFFFFFFFFFFFFFFFFFFFFFFFFFFFFFFF1E
S1130EE0FFFFFFFFFFFFFFFFFFFFFFFFFFFFFFFF0E
S1130EF0FFFFFFFF081C3E7FFFFFFFFFFFFFFFFF19
S1130F00FFFFFFFFFFFFFFFFFFFFFFFFFFFFFFFFED
S1130F10FFFFFFFFFFFFFFFFFFFFFFFFFFFFFFFFDD
S1130F20FFFFFFFFFFFFFFFFFFFFFFFFFFFFFFFFCD
S1130F30FFFFFFFFFFFFFFFFFFFFFFFFFFFFFFFFBD
S1130F40FFFFFFFFFFFFFFFFFFFFFFFFFFFFFFFFAD
S1130F5000000000000103070F1F3F7FFFFFFFFF9A
S1130F60FFFFFFFFFFFFFFFFFFFFFFFFFFFFFFFF8D
S1130F70FFFFFFFFFFFFFFFFFFFFFFFFFFFFFFFF7D
S1130F80FFFFFFFFFFFFFFFFFFFFFFFFFFFFFFFF6D
S1130F90FFFFFFFFFFFFFFFFFFFFFFFFFFFFFFFF5D
S1130FA0FFFFFFFFFFFFFFFFFFFFFFFF0000000049
S1130FB00000000000000000000103070F1F3F7F36
S1130FC0FFFFFFFFFFFFFFFFFFFF01010101010121
S1130FD001010101010101010101010101010101FD
S1130FE001010101010101010101010101010101ED
S1130FF001010101010101010101010101010101DD
S113100001010101010101010000000000000000D4
S113101000000000000000000000000000010307C1
S11310200F1F3F7F7F7F00000000000000000000D2
S113103000000000000000000000000000000000AC
S1131040000000000000000000000000000000009C
S1131050000000000000000000000000000000008C
S1131060000000000000000000000000000000007C
S1131070000000000000000000000000000000006C
S1131080000000000000000000000000000000005C
S1131090000000000000000000000000000000004C
S11310A00000FFFFFFFEFCF8F0E0C080000000003D
S11310B0000000000000000000000000000000002C
S11310C0C0C0C0C0C0C0C0C0C0C0C0C0C0C0C0C01C
S11310D0C0C0C0C0C0C0C0C0C0C0C0C0C0C0C0C00C
S11310E0C0C0C0C0C0C0C0C0C0C0C0C0C0C0C0C0FC
S11310F0C0C0C0C0C0C0C0C0C0C0C0C0C0C0FFFF6E
S1131100FFFFFFFFFFFFFFFFFFFEFCF8F0E0C080E2
S1131110000000000000000000000000FFFFFFFFCF
S1131120FFFFFFFFFFFFFFFFFFFFFFFFFFFFFFFFCB
S1131130FFFFFFFFFFFFFFFFFFFFFFFFFFFFFFFFBB
S1131140FFFFFFFFFFFFFFFFFFFFFFFFFFFFFFFFAB
S1131150FFFFFFFFFFFFFFFFFFFFFFFFFFFFFFFF9B
S1131160FFFFFFFFFFFFFFFFFFFFFFFFFFFEFCF896
S1131170F0E0C08000000000FFFFFFFFFFFFFFFF63
S1131180FFFFFFFFFFFFFFFFFFFFFFFFFFFFFFFF6B
S1131190FFFFFFFFFFFFFFFFFFFFFFFFFFFFFFFF5B
S11311A0FFFFFFFFFFFFFFFFFFFFFFFFFFFFFFFF4B
S11311B0FFFFFFFFFFFFFFFFFFFFFFFFFFFFFFFF3B
S11311C0FFFFFFFFFFFFFFFFFFFFFFFFFFFFFFFF2B
S11311D07F3E1C08FFFFFFFFFFFFFFFFFFFFFFFF36
S11311E0FFFFFFFFFFFFFFFFFFFFFFFFFFFFFFFF0B
S11311F0FFFFFFFFFFFFFFFFFFFFFFFFFFFFFFFFFB
S1131200FFFFFFFFFFFFFFFFFFFFFFFFFFFFFFFFEA
S1131210FFFFFFFFFFFFFFFFFFFFFFFFFFFFFFFFDA
S1131220FFFFFFFF7F3F1F0F0703010000000000C7
S1131230010101010101010101010101010101019A
S1131240010101010101010101010101010101018A
S1131250010101010101010101010101010101017A
S11312600101010101010101010101010101FFFF6E
S1131270FFFFFFFFFFFFFFFF7F3F1F0F070301007B
S1131280000000000000000000000000000000005A
S1131290000000000000000000000000000000004A
S11312A0000000000000000000000000000000003A
S11312B0000000000000000000000000000000002A
S11312C0000000000000000000007F7F7F3F1F0F30
S11312D007030100000000000000000000000000FF
S11312E00000000000000000008080808084FCFE7C
S11312F0FEFEFEFEFEFEFEFC0000000000000000FC
S1131300000080C0E0F0F8FCFCFEFEFFFFFFFFFFE2
S1131310FFFFFFFFFFFFFFFFFFFFFFFEFEFCFCF8E8
S1131320F0E0C08000000000000000000000FCFEAF
S1131330FEFEFEFEFEFEFEFC8080808080001F3FDD
S11313403F3F3F3F7FFFFFFFFFFFFFFFFFF9F0E05D
S1131350C0800000000000FEFFFFFFFFFFFFFFFF53
S1131360FFFFFFFFFFFFFFFFFFFFFFFFFFFFFFFF89
S1131370FFFFFFFFFFFFFFFFFFFFFE000000000075
S113138080C0E0F0F9FFFFFFFFFFFFFFFF7F3F3F5B
S11313903F3F3F1F00000000000000000103070F53
S11313A01F3F7F7F7F7F7F7F7F7E0000007FFFFF67
S11313B0FFFFFF3F1F1F1F1F1F1F1F3FFFFFFFFFD9
S11313C0FFFF3F1F1F1F1F1F1F1F3FFFFFFFFFFFC9
S11313D07F0000007E7F7F7F7F7F7F7F3F1F0F071F
S11313E003010000000000000000000000000000F5
S11313F00000000000000080C0E0F0F0F0F0F0F029
S1131400F0F000000101FFFFFFF0E0E0E0E0E0E0C9
S1131410E0F00F0F0F0F0F0FF0E0E0E0E0E0E0E08E
S1131420F0FFFFFF01010000F0F0F0F0F0F0F0F049
S1131430E0C0800000000000000000000000000088
S11314400000C0E0E0E0E0E0F0F8FCFEFFFFFFFF9A
S1131450FFFF7F3F1F0F0703000000000303031F6C
S11314601F1FFFFFFFFFFFFFFCF8F8F8F8FCFFFF6A
S1131470FFFFFFFF1F1F1F030303000000000307FC
S11314800F1F3F7FFFFFFFFFFFFFFEFCF8F0E0E0D0
S1131490E0E0E0C000000000070F0F0F0F0FFFFF98
S11314A0FFFFFFFFFFFFFFFC000000000000000043
S11314B000000000003E7E7EF0F0E0878783030397
S11314C003030303838787E0F0F07E7E3E00000081
S11314D000000000000000000000FCFFFFFFFFFF11
S11314E0FFFFFFFF0F0F0F0F0F07000000000000AA
S11314F000000000000101010101010101000000E0
S113150000000000000000000000000000000001D6
S113151003070F0F0F0F0F0F0F0F0F0F070301001C
S113152000000000000000000000000000000000B7
S1131530000101010101010101000000000000009F
S1131540000011241FBECFE5D8E0DEBFCDBF12E0FE
S1131550A0E6B0E0ECE7F1E502C005900D92A636F6
S1131560B107D9F726E0A6E6B2E001C01D92A13C7E
S1131570B207E1F70E9455160C94BC280C940000A5
S11315802F923F920F931F93CF93DF93D101139622
S11315908C911397815012968C93129788237CF127
S11315A00D911C911197E0E0F0E0682F082E000CDB
S11315B0770B9801260F371FE9012881022E000CB2
S11315C0330B1616170694F490E0A901440F551F27
S11315D0220F331F220F331F220F331F240F351FF7
S11315E09F5F492F50E0461757077CF3E20FF31F24
S11315F0815012968C9312978823BCF602C0E0E0C7
S1131600F0E0CF01DF91CF911F910F913F902F9088
S113161008958AEF8093A30286E08093AD0280E070
S113162090E0A0E8BFE38093A4029093A502A09366
S1131630A602B093A70283E393E3A3E3BFE38093FB
S1131640AF029093B002A093B102B093B20283E3CD
S113165093E3A3EABFE380939F029093A002A09335
S1131660A102B093A20280E094E090939E02809342
S11316709D029093A9028093A8028EEB80939C0212
S113168086E98093AC0280E690E09093AB0280936D
S1131690AA0282E08093AE02089590917202992387
S11316A081F0909192029F5F909392022091900218
S11316B0309191022F5F3F4F30939102209390021B
S11316C00FC09091920291509093920220919002B7
S11316D0309191022150310930939102209390026C
S11316E090919202992324F497E09093920206C079
S11316F090919202983014F0109292029BB3907FD2
S1131700823051F4E09192020E2E000CFF0BEA5A43
S1131710FD4F8081982B0BC0813049F4E0919202F7
S11317200E2E000CFF0BE25AFD4F8081982B9BBBC1
S113173008951F920F920FB60F9211242F933F9387
S11317404F935F936F937F938F939F93AF93BF93C5
S1131750EF93FF938091AE020E944D0B2091900273
S11317603091910280917A0290917B022817390777
S113177039F41092930213BE1CBE89B78D7F89BFC2
S1131780FF91EF91BF91AF919F918F917F916F9155
S11317905F914F913F912F910F900FBE0F901F902B
S11317A018951F920F920FB60F9211248F939F9347
S11317B080919A0290919B02019690939B02809350
S11317C09A029F918F910F900FBE0F901F901895C2
S11317D01F920F920FB60F9211248F939F938091B3
S11317E07902882349F080917002909171020196E8
S11317F090937102809370029F918F910F900FBE0E
S11318000F901F9018951F920F920FB60F921124EC
S11318102F933F934F935F938F939F93AF93BF9374
S113182080917802882351F140919A0250919B0251
S113183024B53FEF349FC001359F900D1124820FD2
S1131840911D909399028093980214BC10929B026C
S113185010929A028091940290919502A09196021E
S1131860B09197020196A11DB11D809394029093AB
S11318709502A0939602B093970207C089B7806837
S113188089BF14BC81E080937802BF91AF919F918E
S11318908F915F914F913F912F910F900FBE0F90B9
S11318A01F9018958F929F92AF92BF92CF92DF9222
S11318B0EF92FF920F93CF93DF938091790281117E
S11318C0D8C00E94AD1F0FEF27E144E26BE08AE02D
S11318D00E94331F24E146E26EE085E20E94331F3A
S11318E080917602909177028936910534F025E152
S11318F040E16DE08CE00E94B11F809176029091EE
S113190077028E3691053CF00FEF25E146E16DE05C
S113191082E10E94B11F8091760290917702833711
S113192091053CF00FEF25E14CE16DE088E10E9468
S1131930B11F8091760290917702883791053CF02F
S11319400FEF25E142E26DE08EE10E94B11F6FE0EE
S11319508BE20E941C1C20E048E065E080EA9BE0EA
S11319600E948D206091760270917702072E000C00
S1131970880B990B0E946C2520E030E040E251E492
S11319800E94C2242AE030E040E050E00E94BC23E0
S113199088E690E00E94232220E040E262E186E3B0
S11319A094E00E948D206FE184E00E941C1C8090D2
S11319B06C0290906D02A0906E02B0906F0284E66B
S11319C088169104A104B10470F0C501B4012AE0A1
S11319D030E040E050E00E94EF262115310541053A
S11319E0510529F440C024E630E040E050E0C0E076
S11319F00F2EFAE0CF2ED12CE12CF12CF02DCA01C0
S1131A00B901A70196010E94EF26CF5F2115310588
S1131A1041055105A1F784E688169104A104B10497
S1131A2018F5D4E0C0E08AE690E00E942322CF5F5C
S1131A30CD17CCF360916C0270916D0280916E02AF
S1131A4090916F020E946A2520E030E048EC52E455
S1131A500E94C2242AE030E040E050E00E94BC230F
S1131A600E94DC1B06C0C0E0D6E0DC1B1D1614F788
S1131A70D9CFDF91CF910F91FF90EF90DF90CF906E
S1131A80BF90AF909F908F90089520917C023091E9
S1131A907D0240917E0250917F026091800270919C
S1131AA0810280918202909183020E94C2240E944A
S1131AB03B2570937B0260937A02209190023091CF
S1131AC09102C901861B970B99F01AF010927202C9
S1131AD003C081E08093720281E08093930283B714
S1131AE08D6083BF8091AC028CBF89B7826089BF4F
S1131AF00895B59B04C0B69B02C0B7992AC0B59996
S1131B000DC08FE99FE00197F1F700C0000086B394
S1131B1085FB992790F981E08927089596B3892F49
S1131B20807496FD0AC0EFE9FFE03197F1F700C039
S1131B300000B69913C082E00895B7990CC08FE9EC
S1131B409FE00197F1F700C00000B79906C083E059
S1131B50089580E0089580E0089580E0089510924B
S1131B60910210929002109292024091AE02209142
S1131B70AA023091AB02429FC001439F900D1124F1
S1131B80969587959695879590937B0280937A0294
S1131B9081E0809372028093930283B78D6083BF48
S1131BA08091AC028CBF89B7826089BF8091930217
S1131BB08111FCCF2FEF82E597E0215080409040C7
S1131BC0E1F700C000004091AE022091AA023091DA
S1131BD0AB02429FC001439F900D11249093910248
S1131BE08093900210927B0210927A0210927202F9
S1131BF081E08093930283B78D6083BF8091AC02B0
S1131C008CBF89B7826089BF809193028111FCCF18
S1131C10109291021092900210927B0210927A021A
S1131C2081E0809366000895882381F00E94AD1FAF
S1131C3067E086E10E941C1C2FEF47E36CE584E615
S1131C4090E10E94CF1D0E94DC1B08950E94AD1FED
S1131C5067E086E10E941C1C2FEF47E36CE580EEF1
S1131C609DE00E94CF1D0E94DC1B08950E94AD1FC1
S1131C7067E08BE10E941C1C2FEF44E366E588EECD
S1131C8092E10E94CF1D0E94DC1B0895B4990DC0FF
S1131C90B39B0BC080E00E94140E81E08093790214
S1131CA0109271021092700221C0B3990DC0B49BBE
S1131CB00BC081E00E94140E81E08093790210929F
S1131CC071021092700212C0B4990CC0B3990AC088
S1131CD00E94360E81E08093790210927102109274
S1131CE0700204C0809179028823E9F0B39B09C093
S1131CF0B49B07C00E94AD1F0E94DC1B89B784609F
S1131D0089BF80917002909171028D32914058F098
S1131D1010927902109271021092700289B78B7F2F
S1131D2089BF0E94520C089587B970E016161706F1
S1131D308CF420E030E080E090E0369A3699FECFD3
S1131D4044B155B1840F951F2F5F3F4F26173707B6
S1131D50A1F702C080E090E00E94DB26CB01089549
S1131D600F931F936AE084E00E94940EBC01990FC4
S1131D70880B990B0E946C252AE939E94CEC52E452
S1131D800E94C22420E030E040E250E40E94212678
S1131D9020E030E040EC50E40E9421260E943425EB
S1131DA070937502609374022091760230917702E9
S1131DB02617370751F0709377026093760280916B
S1131DC06700811102C00E94520C609194027091CC
S1131DD0950280919602909197020E946A250E9432
S1131DE08E26209184023091850240918602509182
S1131DF087020E94212620E030E040E251E40E9464
S1131E00C2240E943B256093680270936902809308
S1131E106A0290936B0200916C0210916D02209102
S1131E206E0230916F02601771078207930771F099
S1131E3060936C0270936D0280936E0290936F02B4
S1131E4080916700811102C00E94520C1F910F9172
S1131E5008958F929F92AF92BF92EF92FF921F9339
S1131E60CF93DF93EC01E62E413009F06AC060E0C5
S1131E700E946F28F12CCE0DDF1D60919D027091A0
S1131E809E02CE010E948C28CE0DDF1D6091A80217
S1131E907091A902CE010E948C28CE0DDF1D6091A5
S1131EA09C02CE010E946F28CE0DDF1D6091AC0212
S1131EB0CE010E946F28CE0DDF1D6091AA027091A1
S1131EC0AB02CE010E948C28CE0DDF1D6091A302CF
S1131ED0CE010E946F28CE0DDF1D6091AD02CE01B0
S1131EE00E946F28CE0DDF1D6091AE02CE010E94CC
S1131EF06F28CE0DDF1D4091AF025091B00260916A
S1131F00B1027091B202CE010E948028CE0DDF1D75
S1131F104091A4025091A5026091A6027091A7027B
S1131F20CE010E94802840919F025091A0026091AE
S1131F30A1027091A202C7018C0F9D1F0E948028EC
S1131F4058C1411152C1E62EF12CCE0DDF1DCE0138
S1131F500E946928813024E0920728F490939E021D
S1131F6080939D0206C080E094E090939E0280934B
S1131F709D02CE0DDF1DCE010E946928813034E020
S1131F80930728F49093A9028093A80206C080E0E6
S1131F9094E09093A9028093A802CE0DDF1DCE0198
S1131FA00E945B28843118F080939C0203C08EEB5E
S1131FB080939C02CE0DDF1DCE010E945B288233EC
S1131FC018F08093AC0203C086E98093AC02CE0D76
S1131FD0DF1DCE010E9469289C012051310921385E
S1131FE0314028F49093AB028093AA0206C080E6A5
S1131FF090E09093AB028093AA02CE0DDF1DCE0138
S11320000E945B28823318F08093A30203C086E900
S11320108093A302CE0DDF1DCE010E945B289FEFAB
S1132020980F903118F48093AD0203C086E080933A
S1132030AD02CE0DDF1DCE010E945B289FEF980FED
S1132040923018F48093AE0203C082E08093AE0213
S1132050CE0DDF1DCE010E9463284B015C0120E000
S113206030E040E050E40E941C2618169CF02AE957
S113207039E949E95EE3C501B4010E94BD2488231E
S11320804CF08092AF029092B002A092B102B09252
S1132090B2020CC083E393E3A3E3BFE38093AF02F4
S11320A09093B002A093B102B093B202CE0DDF1DA3
S11320B0CE010E9463284B015C0120E030E040E83F
S11320C05FE30E941C2618169CF02DEC3CEC4CECB3
S11320D05DE3C501B4010E94BD2488234CF08092C5
S11320E0A4029092A502A092A602B092A7020CC0EC
S11320F080E090E0A0E8BFE38093A4029093A5025F
S1132100A093A602B093A702C7018C0F9D1F0E9443
S113211063284B015C0120E030E040EA50E40E9477
S11321201C2618165CF02DEC3CEC4CEC5DE3C50170
S1132130B4010E94BD2488230CF04EC083E393E3D2
S1132140A3EABFE380939F029093A002A093A1020D
S1132150B093A2024EC0F12C11E0CE010E9463287C
S11321608090940290909502A0909602B09097026D
S113217086169706A806B90650F4609394027093E5
S113218095028093960290939702109373021F5FB7
S1132190CE0DDF1D153109F72CC0433051F54091A8
S11321A094025091950260919602709197028091E9
S11321B073029E018E9D200D311D1124C9010E94C0
S11321C09228809173028F5F843118F48093730294
S11321D010C0109273020DC080929F029092A002D0
S11321E0A092A102B092A20204C0423009F4B3CF7B
S11321F0D4CFDF91CF911F91FF90EF90BF90AF901C
S11322009F908F900895CF92DF92EF92FF92CF9399
S1132210D09AD19AD29AD39A8C9A8D9ADB9AD89AD8
S1132220C59AC69AC79A379A309A319A329A88E0F0
S113223090E00E945B28882389F00E94090B41E00A
S113224064E088E090E00E94290FC4E143E064E088
S113225080E890E00E94290FC150C1F740E064E09B
S113226088E090E00E94290F80917302843110F07D
S11322701092730242E064E080E890E00E94290F2B
S11322802091AF023091B0024091B1025091B2025C
S11322906091A4027091A5028091A6029091A70278
S11322A00E9421262BED3FE049E450E40E942126C0
S11322B06B017C016091AD0270E080E090E00E94CF
S11322C06C259B01AC01C701B6010E94C224609336
S11322D084027093850280938602909387028DEB2B
S11322E097E3A6E8B7E38093880290938902A093CA
S11322F08A02B0938B0285B58E6085BD8EEF83BD57
S113230083EA8FBD8BE08EBD80919D0290919E02E9
S11323109BBD8ABD8091A8029091A90299BD88BDF8
S11323202091AE028091AA029091AB02289FB00145
S1132330299F700D112480E090E00E946A259B0182
S1132340AC0160E070E084EB93E40E94C22420912D
S11323509F023091A0024091A1025091A2020E94DA
S1132360C22460937C0270937D0280937E029093DA
S11323707F020E94251C0E94AD1F8091A3020E942F
S1132380061C0E94DC1B789480916600811102C0B7
S11323900E94AF0D85B7886085BF8BB780688BBFFF
S11323A0CF91FF90EF90DF90CF900895CF938091DD
S11323B09A0290919B028536910570F020919A02C1
S11323C030919B024FEF429FC001439F900D112417
S11323D09093990280939802809198029091990227
S11323E0892BE1F1609198027091990280E090E06C
S11323F00E946A25209188023091890240918A02C4
S113240050918B020E9421269B01AC0160E070E098
S113241080E89FE30E94C22460938C0270938D0233
S113242080938E0290938F0226E636E646E650E4C9
S11324300E9421269B01AC01609184027091850267
S113244080918602909187020E94212660938002E7
S113245070938102809382029093830280919A0206
S113246090919B028B3F910530F189B78F7789BF9B
S113247014BC10929B0210929A021092990210922C
S1132480980210928002109281021092820210929D
S113249083021092780210928C0210928D02109294
S11324A08E0210928F02F89443E064E080E890E09A
S11324B00E94290F7894C0919C026C2F70E080E0F8
S11324C090E00E946C25209180023091810240911D
S11324D08202509183020E94BD24882374F46C2FDD
S11324E070E080E090E00E946A256093800270931F
S11324F081028093820290938302CF9108952F9258
S11325003F924F925F926F927F928F929F92AF927F
S1132510BF92CF92DF92EF92FF920F931F93CF93CC
S1132520DF93CDB7DEB72E970FB6F894DEBF0FBE9C
S1132530CDBF5C014B015A874987D22E20E048E089
S113254065E080EA9BE00E948D200E94AD1F81E03F
S11325500E94871C8AE00E94101CC8010E9423224A
S113256088E10E94151C8AE50E94101C8CE690E00C
S11325700E94232284E20E94151C8AE50E94101CFA
S113258081E790E00E94232280E30E94151C8AE5E3
S11325900E94101C86E790E00E942322DD2009F4AB
S11325A065C02D2D30E012161306CCF480E001E056
S11325B010E0A801440F551F2801440C551C440C7D
S11325C0551C440C551C8A01040D151D8F5F482FA2
S11325D0082E000C550B421753075CF302C001E0B0
S11325E010E020E048E065E080EA9BE00E948D2056
S11325F088E20E94151C86E00E94101C8BE790E084
S11326000E9423222801612C712CC301B2010E9473
S11326106A256D837E838F839887B40180E090E080
S11326200E946A252D813E814F8158850E94C224D3
S1132630A30192010E94BC2382E30E94151C86E040
S11326400E94101C80E890E00E942322B50180E0E3
S113265090E00E946A252D813E814F8158850E9419
S1132660C224A30192010E94BC231EC088E20E94DE
S1132670151C86E00E94101C8BE790E00E94232228
S1132680B40180E090E00E94572282E30E94151C6E
S113269086E00E94101C80E890E00E942322B5018D
S11326A080E090E00E94572229852B873A853C8759
S11326B01FEFAD86BE860F2EFDE0CF2EF02DED2C44
S11326C0F12C0F2EF3EF5F2EF02D84E10E94151CE8
S11326D085E00E94101C20E041E16CE084E790E07A
S11326E00E948D2089859A85892B99F02B853C85BC
S11326F0412CADECBCEC0E9417279C013695279524
S1132700369527953695279543942115310589F7F4
S113271001C0412C1C82A114B10409F4C2C12D854D
S11327203E8501E001C0082FADECBCEC0E941727E8
S11327309C0136952795369527953695279581E002
S1132740800F2115310579F70C83602E712CC3019C
S11327500E943A279A8389831B82161417040CF06B
S11327604EC0EB85FC8580E090E020E0442D50E0F5
S1132770841795077CF569807A80620E711C27FDA9
S11327807A949F01ADECBCEC0E941727969587952F
S113279096958795969587959C01220F331F880FF0
S11327A0991F880F991F880F991F820F931FDF01AC
S11327B0A81BB90BCD01D3018C939F01ADECBCECEC
S11327C00E941727FC01F695E795F695E795F6958F
S11327D0E79507C0A981BA81A20FB11D27FDBA955B
S11327E01C922B812F5F2B83822F022E000C990BBE
S11327F00C81602E712C861597050CF4B9CFB1E0CD
S11328006B1A71086C9C802D11240F2EF5E07F2E1D
S1132810F02D780E01500B83002314F1E981FA8125
S1132820E00FF11D07FDFA956081062E000C770B71
S1132830880B990B0E9457228B81082E000C990B50
S11328408E159F0541F4DD2031F084E592E00E946D
S1132850232225E0720E0B8101500B830023F4F632
S11328604CE0470D24E264E1872D0E94B61F0E94CC
S1132870DC1B0E94790D8111FCCF00E00E94790DD0
S1132880882309F402C1813009F08BC00F5F202F27
S1132890002E000C330B8C8190E02817390709F0C7
S11328A0ACC0CE0101961C010E94C00AA816B9064C
S11328B008F40BCF8815990508F407CF0E94790D09
S11328C08111FCCF24E241E164E185E00E94B61F5E
S11328D0712C0E94790D8823C9F1833039F47A94DC
S11328E07720A4F56894772471F830C0823031F4ED
S11328F0739492E0971554F5712C28C0813031F50A
S1132900711016C000E021E244E765E186E50E940B
S1132910331F2DE244E761E286E50E94331F29E379
S113292044E76DE286E50E94331F0E94DC1B65C00C
S1132930A1E07A1609F4B2C0B2E07B1207C09E018E
S11329402F5F3F4F19010E94C00AB7C000E021E287
S113295044E765E186E50E94331F2DE244E761E226
S113296086E50E94331F29E344E76DE286E50E9471
S1132970331F672D660F670D660F660F21E2260F62
S11329806B5E012F44E786E50E94331F0E94DC1B27
S11329900E94790D8111FCCF0E94790D8823E1F307
S11329A098CF8330A1F4E981FA81802F002E000CA6
S11329B0990BE80FF91F20812F5F2083E981FA81A9
S11329C0E80FF91F80818A30C4F0108216C082306B
S11329D0A1F4E981FA81802F002E000C990BE80FF5
S11329E0F91F208121502083E981FA81E80FF91F22
S11329F08081882314F439E0308384E10E94151C1B
S1132A0085E00E94101C8C8181508B83882304F103
S1132A10E981FA81E80FF11D87FDFA956081062EA0
S1132A20000C770B880B990B0E9457228B81082E80
S1132A30000C990B8E159F0531F4DD2021F084E5FF
S1132A4092E00E9423228B8181508B83882304F798
S1132A508C818150059D902D11248C9D900D112405
S1132A6085E0890FDD2049F0202F002E000C330B68
S1132A702E153F0514F48AE0890F4CE0480F24E238
S1132A8064E10E94B61F0E94DC1B0E94790D811133
S1132A90FCCF0E94790D8823E1F3F0CE89859A85D5
S1132AA00CC080E090E00E943A279A8389831B83BC
S1132AB00F2EF8EF7F2EF02DD3CE2E960FB6F8946E
S1132AC0DEBF0FBECDBFDF91CF911F910F91FF905D
S1132AD0EF90DF90CF90BF90AF909F908F907F90BA
S1132AE06F905F904F903F902F9008950E94AD1F7C
S1132AF020E048E065E080EA9BE00E948D2081E0D0
S1132B000E94871C84E00E94101C85E890E00E94CB
S1132B1023228AE10E94101C60918002709181023C
S1132B2080918202909183022AE030E040E050E0FC
S1132B300E94BC2380E40E94101C89E890E00E945B
S1132B4023228AE50E94101C609174027091750220
S1132B50072E000C880B990B0E946C2520E030E0B6
S1132B6040E251E40E94C22424E630E040E050E018
S1132B700E94BC2382E00E94871C84E00E94101CF7
S1132B808DE890E00E9423228AE10E94101C60914B
S1132B908C0270918D0280918E0290918F022AE0B6
S1132BA030E040E050E00E94BC2380E40E94101C0E
S1132BB081E990E00E9423228AE50E94101C609122
S1132BC098027091990280E090E00E94572283E07D
S1132BD00E94871C84E00E94101C85E990E00E94FA
S1132BE023228AE10E94101C60919002709191024C
S1132BF0072E000C880B990B0E94572280E40E9438
S1132C00101C89E990E00E9423228AE50E94101C8E
S1132C1060919A0270919B0280E090E00E9457229A
S1132C2084E00E94871C84E00E94101C8DE990E0DF
S1132C300E9423228AE10E94101C60917A02709102
S1132C407B0280E090E00E94572285E00E94871C6E
S1132C5084E00E94101C81EA90E00E9423228AE111
S1132C600E94101C60919202062E000C770B880BB8
S1132C70990B0E94572286E00E94871C84E00E94E0
S1132C80101C85EA90E00E9423228AE10E94101C15
S1132C9060919402709195028091960290919702AE
S1132CA00E9457220E94DC1B08950E940311809108
S1132CB06700811102C00E94520C0E94B00E0E9453
S1132CC0D6110E94450D80916700811103C00E94B6
S1132CD0460E02C00E9476150E94790D882369F37E
S1132CE00E947316EACF80916702863054F0809177
S1132CF066028F5F80936602109267028230D9F475
S1132D0024C088235CF4809166028150809366021B
S1132D1095E090936702823071F408C08091660256
S1132D20823049F48091670284307CF0109266020C
S1132D30109267020AC080916602882334F482E00C
S1132D408093660283E0809367020E94AD1F20E0B7
S1132D5048E065E080EA9BE00E948D208091660255
S1132D60811189C08AE00E94101C81E00E94871CA6
S1132D7089EA90E00E94232285E50E94101C60915C
S1132D80A8027091A90280E090E00E9457228AE094
S1132D900E94101C82E00E94871C82EB90E00E943B
S1132DA0232285E50E94101C60919D0270919E0271
S1132DB080E090E00E9457228AE00E94101C83E089
S1132DC00E94871C8CEB90E00E94232285E50E94E0
S1132DD0101C6091AF027091B0028091B102909189
S1132DE0B20228EE33E040E050E00E94BC238AE0C7
S1132DF00E94101C84E00E94871C84EC90E00E94D6
S1132E00232285E50E94101C6091A4027091A50202
S1132E108091A6029091A70228EE33E040E050E0B2
S1132E200E94BC238AE00E94101C85E00E94871C3B
S1132E308AEC90E00E94232285E50E94101C609198
S1132E40AD0270E080E090E00E9457228AE00E9488
S1132E50101C86E00E94871C82ED90E00E942322D1
S1132E6085E50E94101C6091AE0270E080E090E065
S1132E700E945722AAC0813009F07AC08AE00E94D9
S1132E80101C81E00E94871C8CED90E00E9423229C
S1132E9085E50E94101C60919C0270E080E090E047
S1132EA00E9457228AE00E94101C82E00E94871C24
S1132EB086EE90E00E94232285E50E94101C60911A
S1132EC09F027091A0028091A1029091A20228EE2B
S1132ED033E040E050E00E94BC238AE00E94101CD2
S1132EE083E00E94871C8EEE90E00E94232285E5F9
S1132EF00E94101C6091AA027091AB0280E090E0E5
S1132F000E9457228AE00E94101C84E00E94871CC1
S1132F1087EF90E00E94232285E50E94101C6091B7
S1132F20AC0270E080E090E00E9457228AE00E94A8
S1132F30101C85E00E94871C83E091E00E942322FC
S1132F4085E50E94101C6091A30270E080E090E08F
S1132F500E9457228AE00E94101C86E00E94871C6F
S1132F6080E191E00E94232285E50E94101C2DC07F
S1132F70823059F58AE00E94101C81E00E94871C6F
S1132F808BE191E00E94232285E50E94101C8AE0D7
S1132F900E94101C82E00E94871C8BE291E00E9438
S1132FA023228AE00E94101C83E00E94871C8AE38B
S1132FB091E00E9423228AE00E94101C84E00E9477
S1132FC0871C88E491E00E94232260916702660FC7
S1132FD0660F660F2FE0260F695F4FE780E00E94BF
S1132FE0B61F0E94DC1B0E94790D8111FCCF0E9448
S1132FF0790D8823E1F3813009F04CC38091660296
S1133000082E000C990BFC01EE0FFF1FE80FF91FAF
S1133010EE0FFF1F80916702E80FF11D87FDFA95FF
S1133020E031F10508F045C3E65DFF4F0C9411272C
S11330304091A8025091A9020DE411E020E060E063
S113304070E080E094E00E947F122091A802309109
S1133050A9028217930709F42CC39093A9028093C1
S1133060A80241E064E088E090E00E94290F21C3B7
S113307040919D0250919E020CE511E020E060E039
S113308070E080E094E00E947F1220919D023091D4
S11330909E028217930709F40CC390939E028093B7
S11330A09D0241E064E088E090E00E94290F01C3A2
S11330B020E030E04AE754E46091AF027091B0023E
S11330C08091B1029091B2020E9421260E943B2578
S11330D00CE611E023E0AB016CE271E080ED97E0D7
S11330E00E947F12BC0180E090E00E946A256B017F
S11330F07C0120E030E04AE754E46091AF02709133
S1133100B0028091B1029091B2020E9421269B01EB
S1133110AC01C701B6010E94BD24882309F4C9C2C9
S113312020E030E04AE754E4C701B6010E94C2241B
S11331306093AF027093B0028093B1029093B20295
S113314041E064E088E090E00E94290FB2C220E0F0
S113315030E04AE754E46091A4027091A5028091A2
S1133160A6029091A7020E9421260E943B250FE708
S113317011E023E0AB0164E670E088EE93E00E9486
S11331807F12BC0180E090E00E946A256B017C0103
S113319020E030E04AE754E46091A4027091A50273
S11331A08091A6029091A7020E9421269B01AC0166
S11331B0C701B6010E94BD24882309F47AC220E025
S11331C030E04AE754E4C701B6010E94C224609388
S11331D0A4027093A5028093A6029093A70241E0F3
S11331E064E088E090E00E94290F63C24091AD0240
S11331F050E00AE811E020E061E070E080E190E056
S11332000E947F122091AD0230E08217930709F4E7
S113321050C28093AD0241E064E088E090E00E94F7
S1133220290F47C24091AE0250E00BE911E020E0C3
S113323061E070E08FEF90E00E947F122091AE0277
S113324030E08217930709F434C28093AE0241E060
S113325064E088E090E00E94290F2BC240919C0218
S113326050E00AEA11E020E064E170E080E991E0D6
S11332700E947F1220919C0230E08217930709F488
S113328018C280939C0241E064E088E090E00E94D0
S1133290290F0FC220E030E04AE754E460919F0216
S11332A07091A0028091A1029091A2020E94212615
S11332B00E943B2508EB11E023E0AB0164E670E0DB
S11332C088E893E10E947F12BC0180E090E00E94B4
S11332D06A256B017C0120E030E04AE754E4609108
S11332E09F027091A0028091A1029091A2020E947B
S11332F021269B01AC01C701B6010E94BD2488238D
S113330009F4D7C120E030E04AE754E4C701B6012C
S11333100E94C22460939F027093A0028093A10232
S11333209093A20241E064E088E090E00E94290FBB
S1133330C0C14091AA025091AB0209EC11E020E017
S113334060E170E080E991E00E947F122091AA027E
S11333503091AB028217930709F4ABC19093AB028F
S11333608093AA0241E064E088E090E00E94290F83
S1133370A0C14091AC0250E00DED11E020E062E309
S113338070E08FEF90E00E947F122091AC0230E059
S11333908217930709F48DC18093AC0241E064E085
S11333A088E090E00E94290F84C14091A30250E07C
S11333B003E011E020E062E370E08FEF90E00E9410
S11333C07F122091A30230E08217930709F471C1A0
S11333D08093A3020E94061C41E064E088E090E030
S11333E00E94290F66C19091670081E0892780932C
S11333F067000E94790D8111FCCF0E9455160E942E
S1133400AF0D57C10E94AD1F82E00E94871C8DE260
S11334100E94101C8BEE91E00E94232284E00E9403
S1133420871C82E20E94101C81EF91E00E942322FB
S113343086E00E94871C8CE10E94101C8BEF91E0B7
S11334400E94232284E50E94101C8EEF91E00E94CA
S11334502322F12C0F2EFBE3EF2EF02D14E1D9E6FD
S1133460C1E0FE9C802D11244EE2480F0FEF29E3AA
S11334706DE28C5E0E94331FF11003C04D2F8FE468
S113348002C04EE2812F00E029E36DE20E94331F67
S11334900E94DC1B0E94790D8111FCCF0E94790DE2
S11334A09EEF980F923030F4FC260E94790D811122
S11334B0FCCFD7CF813091F7FF2009F4FAC00E94E6
S11334C0AD1F81E00E94871C88E00E94101C82E0EE
S11334D092E00E94232283E00E94871C82E00E94E3
S11334E0101C84E192E00E9423220E94DC1B1092B3
S11334F09402109295021092960210929702C12C97
S1133500D12C7601C39443E064E080E890E00E940B
S1133510290F83E50E94101CC701B6010E9457229F
S113352082E292E00E94232264E170E080E090E075
S11335300E9457220E94DC1B8FEFC81AD80AE80A9F
S1133540F80A85E1C816D104E104F104E1F686E045
S11335500E94871C8DE20E94101C84E292E00E946B
S113356023220E94DC1B0E94790D8111FCCF0E9452
S1133570790D8823E1F39DC00E94AD1F82E00E9473
S1133580871C88E20E94101C8AE292E00E94232297
S113359084E00E94871C84E10E94101C82E392E074
S11335A00E94232286E00E94871C8CE10E94101C4A
S11335B08BEF91E00E94232284E50E94101C8EEF81
S11335C091E00E942322F12C0F2EFBE3EF2EF02D2D
S11335D0C4E119E6D1E0FE9C802D11244EE2480F8F
S11335E00FEF29E36DE28C5E0E94331FF11003C0DC
S11335F0412F8FE402C04EE28C2F00E029E36DE2FC
S11336000E94331F0E94DC1B0E94790D8111FCCFA4
S11336100E94790D9EEF980F923030F4FD260E949F
S1133620790D8111FCCFD7CF813091F7FF2009F4B8
S113363040C00E94AD1F83E00E94871C88E00E9466
S1133640101C82E492E00E9423220E94DC1B0E9450
S1133650090B41E064E088E090E00E94290F85E0D6
S11336600E94871C8DE20E94101C84E292E00E945A
S113367023220E94DC1B0E94790D8111FCCF0E9441
S1133680790D8823E1F315C00E94790D8111FCCFD7
S11336900E945516823031F4809167028F5F8093C7
S11336A0670207C0833029F48091670281508093B8
S11336B067020E94790D8823E1F30E9473166695D0
S11336C06695669590E8699FB0011124680F711D95
S11336D0FB01E354FD4F4083089566956695669516
S11336E090E8699FB0011124680F711DFB01E35438
S11336F0FD4F80810895FF920F931F93CF93DF9323
S1133700C82F062F172FF42E0E9439240E94362426
S1133710883031F0803121F081E08093B30233C0EE
S113372088E70E9447240E943624883131F0803291
S113373021F081E08093B30226C08C2F0E9447249D
S11337400E943624883219F4F11007C01AC080335D
S1133750D9F381E08093B30216C0C02FD12F8E011C
S11337600F5F1F4FFA940F0D111D89910E9447247A
S11337700E943624883211F0803319F4C017D1071F
S1133780A1F71092B3020E944124DF91CF911F91BF
S11337900F91FF900895CF93DF931F92CDB7DEB7BB
S11337A0898341E0BE016F5F7F4F80E00E947B1BF5
S11337B00F90DF91CF910895CF93DF9381E20E9420
S11337C0CB1B80E00E94CB1B8FE70E94CB1B82E2C5
S11337D00E94CB1B80E00E94CB1B87E00E94CB1B86
S11337E0C0E0D0E0BE0162957295707F7627607F5D
S11337F0762763547D4F40E180E40E947B1B219631
S1133800C034D10579F7DF91CF910895CF93C82FB4
S113381081E80E94CB1B8C2F0E94CB1BCF91089573
S1133820882314F08093B40208959091B5029034E3
S113383010F48093B5020895CF93C62F0E94101CF4
S11338408C2F0E94151CCF9108950E942C248EEA7F
S11338500E94CB1B85ED0E94CB1B80EF0E94CB1BEB
S113386088EA0E94CB1B8FE30E94CB1B83ED0E944E
S1133870CB1B80E00E94CB1B8DE80E94CB1B84E114
S11338800E94CB1B80E40E94CB1B80E20E94CB1BD6
S113389080E00E94CB1B81EA0E94CB1B88EC0E9433
S11338A0CB1B8AED0E94CB1B82E10E94CB1B81E8DB
S11338B00E94CB1B8FEF0E94CB1B89ED0E94CB1B78
S11338C081EF0E94CB1B8BED0E94CB1B80E20E94F8
S11338D0CB1B84EA0E94CB1B86EA0E94CB1B8EE2A0
S11338E00E94CB1B8FEA0E94CB1B60E080E00E9409
S11338F01C1C86EA8093B6021092BB021092BA0294
S11339001092B9021092B5021092B4020895883050
S113391028F4880F880F880F8093B502089580914A
S1133920B40208958F929F92AF92BF92CF92DF928A
S1133930EF92FF920F931F93CF93DF93062F142FD1
S11339400E941C1CD091B502C091B4026D2F8C2F23
S11339500E946D1B1F3F91F4902F9770812C912C26
S1133960540183947501640104C0CC0CDD1CEE1C6D
S1133970FF1C9A95D2F7482F4C2913C00770C12C0D
S1133980D12C7601C394B701A60104C0440F551F7E
S1133990661F771F0A95D2F78A019B010095482F6D
S11339A040236D2F8C2F0E945F1BDF91CF911F91BD
S11339B00F91FF90EF90DF90CF90BF90AF909F90CA
S11339C08F9008953F924F925F926F927F928F9261
S11339D09F92AF92BF92CF92DF92EF92FF920F939A
S11339E01F93CF93DF93982E88230CF4C6C04423EF
S11339F00CF4C3C0603408F0C0C0203408F0BDC06B
S1133A0011E0812E861A820E181B140F462F477060
S1133A10762E741AE82CF12C88E090E0841B91092E
S1133A20E816F9067CF488E090E08E199F092FEFE0
S1133A3030E0590102C0B594A7948A95E2F78A2D23
S1133A40682C04C088E0682E641A8FEFA82EB12C6D
S1133A5002C0AA0CBB1C4A95E2F73A2C672D892DAB
S1133A600E941C1C1123C9F1512C0F2EF5EBCF2EF3
S1133A70F2E0DF2EF02DC4EBD2E0A094F6014080FA
S1133A80B880642D8B2D0E946D1B0F3F19F4482FB5
S1133A90432902C0482F4A219B2D9F5F9883642DA0
S1133AA08B2D0E945F1B53945112E8CF16C0C85F40
S1133AB06C2F892D0E941C1C1123F1F07A2CF60125
S1133AC06081F2018081982F9F5F9083402F0E9434
S1133AD05F1B7394711681F0F2CFC72D6718A12C68
S1133AE00F2EF5EBCF2EF2E0DF2EF02D0F2EF4EBA0
S1133AF04F2EF2E05F2EF02D262D2C0FE22FF0E05A
S1133B00CF010896E816F90694F62815B0F5EE1AD2
S1133B10FF0A8FEF90E09C0102C0220F331FEA944A
S1133B20E2F77901E0946C2F685F892D0E941C1CD8
S1133B30112319F1B12C0F2EF5EBCF2EF2E0DF2E6D
S1133B40F02DC4EBD2E09E2C9094F601A080F88076
S1133B506A2D8F2D0E946D1B0F3F19F4482F4E299B
S1133B6002C0482F49219F2D9F5F98836A2D8F2D76
S1133B700E945F1BB394B112E8CFDF91CF911F91E4
S1133B800F91FF90EF90DF90CF90BF90AF909F90F8
S1133B908F907F906F905F904F903F9008952F92F9
S1133BA03F924F925F926F927F928F929F92AF92C9
S1133BB0BF92CF92DF92EF92FF920F931F93CF9316
S1133BC0DF93CDB7DEB72C970FB6F894DEBF0FBEE8
S1133BD0CDBF5C01662E29832091B4022F833091DE
S1133BE0B5023A87822F860F1AF480E8682E621A8B
S1133BF0842F90E00796959587959595879595954B
S1133C0087958D839E839A85969596959695890F2B
S1133C10893048F02D813E81285F3F4FA901481B20
S1133C2051095E834D834A8457E045228D819E81EC
S1133C30892B09F4FAC09A859C83712C262C312C8B
S1133C40512C88E090E0FC01E419F109FB83EA833C
S1133C500F2EF5EBCF2EF2E0DF2EF02D04EB12E069
S1133C606C818F810E941C1C39862886729CC0013D
S1133C70739C900D11247C01E218F308662009F46A
S1133C803CC09C012A0D3B1D852C3C872B87EB8572
S1133C90FC859490042C01C0990C0A94EAF77720CF
S1133CA079F0F501EE0DFF1D2FEFE21AF20A84916F
S1133CB090E00A8002C0959587950A94E2F7982AC5
S1133CC03981313039F4F6016081F80180810E9434
S1133CD06D1B982AF6016081F8018081982F9F5FFF
S1133CE09083492D0E945F1B83942B853C852F5F15
S1133CF03F4F3C872B878610CACFECEBF2E08081E4
S1133D00882341F0F6016081F80180810E946D1BD7
S1133D10482F01C0452DF6016081F80180810E9481
S1133D205F1BFC81F85FFC837394872D90E02D81E9
S1133D303E818217930708F493CF2230310508F4AB
S1133D4074C06F2F8F810E941C1C272D30E02150DE
S1133D50310948855985249FC001259F900D349FC2
S1133D60900D1124662009F43EC04501880E991E69
S1133D7065015FEFC51AD50A6A94C60CD11CC80E3A
S1133D80D91E0F2EF5EBEF2EF2E0FF2EF02D04EBF3
S1133D9012E088E090E05C01A418B1083401F70156
S1133DA08080F8019080682D892D0E946D1BF3019D
S1133DB0449150E00A2C02C0559547950A94E2F7C5
S1133DC0482BF981F13009F4482B892D8F5FF801D4
S1133DD08083682D892D0E945F1BFFEF6F1A7F0A75
S1133DE06C147D04E1F68091BC02882399F0813043
S1133DF041F46091B5028091B4020E946D1B482F7A
S1133E000AC06091B5028091B4020E946D1B482FD4
S1133E10409501C040E06091B502E4EBF2E080819E
S1133E20982F9F5F90830E945F1B0E948F1C6A855E
S1133E300E941C1C2C960FB6F894DEBF0FBECDBF9B
S1133E40DF91CF911F910F91FF90EF90DF90CF9072
S1133E50BF90AF909F908F907F906F905F904F90A6
S1133E603F902F900895DF92EF92FF920F931F934C
S1133E70CF93DF93E82E162FD42EF22ED02F882343
S1133E800CF449C044230CF446C0603408F043C029
S1133E908FE3821708F43FC04E1500F11CC04D2F6C
S1133EA0612F8C2F0E94921CCF5F0C17C0F7DE1479
S1133EB0D8F017C04D2F6F2D8C2F0E94921CCF5F0E
S1133EC00C17C0F7F11698F01CC00D2F4D2D8D2D39
S1133ED00E94E21C20C0042FCE2DE1CF0E2DC42F52
S1133EE0DECF0D2DCE2DE6CF0E2DCD2DE3CF0D2F14
S1133EF0212F4E2D6F2D8E2D0E94E21C212F6F2D10
S1133F00E4CF0D2F2F2D4E2D612F8E2D0E94E21CFC
S1133F102F2D612FDACFDF91CF911F910F91FF9059
S1133F20EF90DF9008950F931F93CF93DF93182F93
S1133F30D0E000E00BC0412F6D2F8C2F0E945F1B3F
S1133F40CF5FC038C1F7D85FD03411F0C02FF3CFA2
S1133F50DF91CF911F910F91089580E00E94931FEC
S1133F6008950F930E94E21C0F9108952F923F929F
S1133F705F926F927F928F929F92AF92BF92CF92F5
S1133F80DF92EF92FF920F931F93CF93DF93C82E8C
S1133F9081E0D82EDC18D40EB82EB61AB20E462FF5
S1133FA04770A62EA41A0B2D10E088E090E0841B25
S1133FB09109081719077CF488E090E0801B910BA5
S1133FC02FEF30E0B90102C0759567958A95E2F745
S1133FD0CB015B2C04C088E0582E541A8FEF682E56
S1133FE001C0660C4A95EAF76A2D8C2D0E941C1CB0
S1133FF0DD20D9F1812C0F2EF5EBEF2EF2E0FF2E10
S1134000F02DC4EBD2E0F70170809880672D892DE4
S11340100E946D1B992D9F5F9883482F4625672D1D
S1134020892D0E945F1B83948D10EDCF1EC0C85F45
S11340306C2F8C2D0E941C1CDD2039F1672CF7019C
S11340405080F1018080652D882D0E946D1B982D74
S11340509F5FF1019083482F4095652D882D0E9424
S11340605F1B63946D1489F0EACFCA2D5A18A52CEE
S1134070712C0F2EF5EBEF2EF2E0FF2EF02D0F2E0C
S1134080F4EB2F2EF2E03F2EF02D8A2D8C0FE82F2B
S1134090F0E0DF0118960A171B074CF68B1558F54C
S11340A00E1B1F0B8FEF90E09C0102C0220F331FE9
S11340B00A95E2F7B22EB0946C2F685F8C2D0E94A3
S11340C01C1CDD20C1F0E12C05EB12E0C4EBD2E0B6
S11340D0F801C080F8806C2D8F2D0E946D1B9F2DE0
S11340E09F5F9883482F4B256C2D8F2D0E945F1B5B
S11340F0E394ED10EDCFDF91CF911F910F91FF90DD
S1134100EF90DF90CF90BF90AF909F908F907F9073
S11341106F905F903F902F9008956623F4F04034A1
S1134120E0F42230D0F49093B8028093B702609305
S1134130B9024093BA0250E041505109CA0199238F
S11341400CF40796959587959595879595958795FC
S11341508F5F8093BB022093BC0208952F923F92FD
S11341604F925F926F927F928F929F92AF92BF9283
S1134170CF92DF92EF92FF920F931F93CF93DF932F
S1134180CDB7DEB72B970FB6F894DEBF0FBECDBF09
S11341902091B4022C833091B5023F839091BB02ED
S11341A080522091B902299F900111242F5F3F4F23
S11341B0829FA001839F500D1124598748874F5F28
S11341C05F4F5E834D83E091B702F091B802A885FA
S11341D0B985EA0FFB1F54907F80B7E07B229923B7
S11341E009F492C0EF81EB83312C212C88E090E01C
S11341F09C01271931093A8329830F2EFCEB8F2E5A
S1134200F2E09F2EF02D0F2EF5EBAF2EF2E0BF2E35
S1134210F02D04EB12E0672C752C6B818C810E94CD
S11342201C1C4D815E81430D511D5B874A877A01B9
S113423051E0E51AF108772009F44FC00F2EFBEB8B
S1134240CF2EF2E0DF2EF02D832D362C672C722C2E
S1134250582EA7EBB2E02D913C91EA85FB85E20F45
S1134260F31FE4914E2E032C01C0440C0A94EAF788
S1134270552081F0F901EE0DFF1D249130E00980F5
S113428002C0359527950A94E2F7422AF601808107
S1134290E80EF11CD4018C91813039F4F501608170
S11342A0D8018C910E946D1B482AF5016081D801C8
S11342B08C91982F9F5F9C93442D0E945F1BF60165
S11342C080812A853B85280F311D3B872A8773947B
S11342D07610BFCF762C632C352CD4018C918111B0
S11342E007C0422DF5016081D8018C910E945F1BAB
S11342F0BB81B85FBB8333948091BB02381608F44A
S11343008CCF572C762C03C0EF81EB83312C2F817B
S1134310229526952695237030E08091BA028295E5
S113432086958695837090E0FF818F0F911D2817E5
S1134330390709F469C06B818C810E941C1C288593
S11343403985230D311D3A832983552009F451C041
S1134350312C0F2EF5EBAF2EF2E0BF2EF02D04EB37
S113436012E00F2EF7EBCF2EF2E0DF2EF02D88E0D7
S113437090E0AC01471951093A010F2EFCEBEF2EE6
S1134380F2E0FF2EF02D0F2EFBEB8F2EF2E09F2E8E
S1134390F02DD5012C90F8014080622D842D0E94CF
S11343A06D1BD601ED91FC9129813A81E20FF31F37
S11343B0449150E0062C02C0559547950A94E2F7C3
S11343C0482BD7019C91913009F4482B842D8F5FA1
S11343D0F8018083622D842D0E945F1BD4018C918F
S11343E0E981FA81E80FF11DFA83E98333943510EA
S11343F0D0CF8091BC02811107C040E06091B5022A
S11344008091B4020E945F1B8C818F5F6F81850D48
S11344100E941C1C2B960FB6F894DEBF0FBECDBFB6
S1134420DF91CF911F910F91FF90EF90DF90CF908C
S1134430BF90AF909F908F907F906F905F904F90C0
S11344403F902F900895EF92FF920F931F93CF9375
S1134450DF93EC018881882319F19091B4022091B3
S1134460B90230E0290F311D20383105CCF42196F2
S11344700F2EF4EBEF2EF2E0FF2EF02D09EB12E0FD
S11344800AC0F7019081F801208130E0290F311D25
S1134490203831052CF40E94AE2089918111F1CF8E
S11344A0DF91CF911F910F91FF90EF9008950F939B
S11344B01F93CF93DF93CDB7DEB72C970FB6F89445
S11344C0DEBF0FBECDBF611571058105910521F4D5
S11344D080E30E94AE2045C161157105810520E885
S11344E0920709F43EC1FE0131962CE0DF011D92D2
S11344F02A95E9F720E32B872A87298728872F83A2
S11345002E832D832C832B832A83298399235CF484
S11345109B01AC0188279927DC01821B930BA40B18
S1134520B50B41E003C0DC01CB0140E081303AEC43
S113453093073AE9A3073BE3B30794F02A812F5F7B
S113454001C0232F9A5CAA49BB43322F3F5F8130BD
S11345505AEC95075AE9A5075BE3B50794F72A8354
S1134560811521EE920725EFA20725E0B20794F00A
S11345702B812F5F01C0232F915EA54FB540322FB1
S11345803F5F811551EE950755EFA50755E0B50737
S113459094F72B83803826E9920728E9A207B1050E
S11345A094F02C812F5F01C0232F80589649A8498D
S11345B0B109322F3F5F803856E9950758E9A507BE
S11345C0B10594F72C83803422E492072FE0A207EC
S11345D0B10594F02D812F5F01C0232F80549244A4
S11345E0AF40B109322F3F5F803452E495075FE05A
S11345F0A507B10594F72D83803A26E8920721E0B8
S1134600A207B10594F02E812F5F01C0232F805A99
S11346109648A140B109322F3F5F803A56E895078A
S113462051E0A507B10594F72E83803127E2920764
S1134630A105B1058CF02F812F5F01C0232F80517C
S11346409742A109B109322F3F5F803157E29507A4
S1134650A105B1059CF72F83883E23E09207A105AD
S1134660B1058CF028852F5F01C0232F885E93400D
S1134670A109B109322F3F5F883E53E09507A10598
S1134680B1059CF7288784369105A105B10584F00E
S113469029852F5F01C0232F84569109A109B109EF
S11346A0322F3F5F84369105A105B105A4F7298710
S11346B08A309105A105B1057CF02A852F5F01C0E0
S11346C0232F0A97A109B109322F3F5F8A30910540
S11346D0A105B105ACF72A87181619061A061B0698
S11346E05CF45B858C019D0101501109210931099C
S11346F0D9F7652F680F6B878981803361F480E077
S11347008F5FE1E0F0E0EC0FFD1FE80FF11D9081F9
S11347109033B1F301C080E0442331F08150FE01B5
S1134720E80FF11D9DE291834AE0481B20E090E0F0
S1134730E1E0F0E0EC0FFD1FE20FF11DDF01A80F37
S1134740B91F3C9130832F5F421790F7E1E0F0E00E
S1134750EC0FFD1FE20FF11D1082CE0101960E94A5
S113476023222C960FB6F894DEBF0FBECDBFDF9187
S1134770CF911F910F9108958F929F92AF92BF9204
S1134780CF92DF92EF92FF926B017C0149015A01B3
S113479020E030E0A9010E94BD2481110AC080E319
S11347A00E94AE208EE20E94AE2080E30E94AE20E2
S11347B04AC020E030E040E05FECC701B6010E944F
S11347C01C2688230CF43FC020E030E040E05FE486
S11347D0C701B6010E94BD248823ACF520E030E077
S11347E0A901C701B6010E94BD2488233CF4F7FA4D
S11347F0F094F7F8F0948DE20E94AE20C701B60160
S11348000E9434250E9457228EE20E94AE20C701E6
S1134810B6010E943B250E946A259B01AC01C70199
S1134820B6010E9450246B017C01C501B4010E94B1
S11348306A259B01AC01C701B6010E9421260E9492
S113484034250E945722FF90EF90DF90CF90BF90C5
S1134850AF909F908F900895A19AA09AA99AA89A30
S113486011B88CE080B984E086BF089581B1887F57
S1134870089584EA86BF06B607FEFDCF0E9436245B
S1134880089585ED86BF06B604FCFDCF089583B96F
S113489084E886BF06B607FEFDCF0E94362408953D
S11348A05058BB27AA270E9468240C94E2250E9432
S11348B0D42538F00E94DB2520F039F49F3F19F409
S11348C026F40C94D1250EF4E095E7FB0C94CB254B
S11348D0E92F0E94F32558F3BA1762077307840778
S11348E0950720F079F4A6F50C9415260EF4E095BE
S11348F00B2EBA2FA02D0B01B90190010C01CA0196
S1134900A0011124FF27591B99F0593F50F4503E40
S113491068F11A16F040A22F232F342F4427585F32
S1134920F3CF469537952795A795F0405395C9F74A
S11349307EF41F16BA0B620B730B840BBAF0915002
S1134940A1F0FF0FBB1F661F771F881FC2F70EC0A1
S1134950BA0F621F731F841F48F487957795679574
S1134960B795F7959E3F08F0B0CF9395880F08F060
S11349709927EE0F9795879508950E94A72508F427
S113498081E008950E94D6240C94E2250E94DB2540
S113499058F00E94D42540F029F45F3F29F00C948C
S11349A0CB2551110C9416260C94D1250E94F32585
S11349B068F39923B1F3552391F3951B550BBB274A
S11349C0AA2762177307840738F09F5F5F4F220F8F
S11349D0331F441FAA1FA9F335D00E2E3AF0E0E886
S11349E032D091505040E695001CCAF72BD0FE2FD0
S11349F029D0660F771F881FBB1F26173707480764
S1134A00AB07B0E809F0BB0B802DBF01FF2793581B
S1134A105F4F3AF09E3F510578F00C94CB250C94EF
S1134A2016265F3FE4F3983ED4F386957795679511
S1134A30B795F7959F5FC9F7880F911D9695879550
S1134A4097F90895E1E0660F771F881FBB1F62176F
S1134A5073078407BA0720F0621B730B840BBA0B2D
S1134A60EE1F88F7E09508950E943B256894B111E4
S1134A700C94162608950E94FB2588F09F5798F001
S1134A80B92F9927B751B0F0E1F0660F771F881F4F
S1134A90991F1AF0BA95C9F714C0B13091F00E9469
S1134AA01526B1E008950C941526672F782F8827D2
S1134AB0B85F39F0B93FCCF3869577956795B39590
S1134AC0D9F73EF490958095709561957F4F8F4FFF
S1134AD09F4F0895E89409C097FB3EF49095809504
S1134AE0709561957F4F8F4F9F4F9923A9F0F92FB0
S1134AF096E9BB279395F695879577956795B7952E
S1134B00F111F8CFFAF4BB0F11F460FF1BC06F5F13
S1134B107F4F8F4F9F4F16C0882311F096E911C025
S1134B20772321F09EE8872F762F05C0662371F046
S1134B3096E8862F70E060E02AF09A95660F771F5A
S1134B40881FDAF7880F9695879597F90895990F36
S1134B500008550FAA0BE0E8FEEF16161706E80743
S1134B60F907C0F012161306E407F50798F0621B64
S1134B70730B840B950B39F40A2661F0232B242B39
S1134B80252B21F408950A2609F4A140A6958FEF58
S1134B90811D811D089597F99F6780E870E060E0AA
S1134BA008959FEF80EC089500240A9416161706C2
S1134BB018060906089500240A941216130614060A
S1134BC005060895092E0394000C11F4882352F06D
S1134BD0BB0F40F4BF2B11F460FF04C06F5F7F4F25
S1134BE08F4F9F4F089557FD9058440F551F59F00C
S1134BF05F3F71F04795880F97FB991F61F09F3FC6
S1134C0079F087950895121613061406551FF2CFEE
S1134C104695F1DF08C0161617061806991FF1CF3E
S1134C2086957105610508940895E894BB27662765
S1134C307727CB0197F908950E94A72508F48FEFF1
S1134C4008950E9434260C94E2250E94D42538F05D
S1134C500E94DB2520F0952311F00C94CB250C94B5
S1134C60D12511240C9416260E94F32570F3959FE8
S1134C70C1F3950F50E0551F629FF001729FBB274F
S1134C80F00DB11D639FAA27F00DB11DAA1F649FEB
S1134C906627B00DA11D661F829F2227B00DA11D9E
S1134CA0621F739FB00DA11D621F839FA00D611D24
S1134CB0221F749F3327A00D611D231F849F600D45
S1134CC0211D822F762F6A2F11249F5750409AF06E
S1134CD0F1F088234AF0EE0FFF1FBB1F661F771FFA
S1134CE0881F91505040A9F79E3F510580F00C94C5
S1134CF0CB250C9416265F3FE4F3983ED4F38695B7
S1134D0077956795B795F795E7959F5FC1F7FE2B64
S1134D10880F911D9695879597F908950E94FB2514
S1134D20E8F09E37E8F09639B8F49E3848F4672FD7
S1134D30782F8827985FF9CF86957795679593950F
S1134D409539D0F3B62FB1706B0F711D811D20F40E
S1134D5087957795679593950C94B2260C94CD26F8
S1134D600C941626882371F4772321F09850872B0E
S1134D70762F07C0662311F499270DC09051862B16
S1134D8070E060E02AF09A95660F771F881FDAF7C3
S1134D90880F9695879597F908959F3F31F0915024
S1134DA020F4879577956795B795880F911D96950B
S1134DB0879597F9089597FB072E16F4009407D06A
S1134DC077FD09D00E94262707FC05D03EF4909574
S1134DD081959F4F0895709561957F4F0895A1E245
S1134DE01A2EAA1BBB1BFD010DC0AA1FBB1FEE1F61
S1134DF0FF1FA217B307E407F50720F0A21BB30BAC
S1134E00E40BF50B661F771F881F991F1A9469F727
S1134E1060957095809590959B01AC01BD01CF0183
S1134E200895EE0FFF1F0590F491E02D0994A29FC1
S1134E30B001B39FC001A39F700D811D1124911D6A
S1134E40B29F700D811D1124911D0895AA1BBB1BD7
S1134E5051E107C0AA1FBB1FA617B70710F0A61B76
S1134E60B70B881F991F5A95A9F780959095BC0197
S1134E70CD0108950F931F93CF93DF938230910553
S1134E8010F482E090E0E091BF06F091C00620E0CB
S1134E9030E0A0E0B0E0309719F140815181028107
S1134EA0138148175907C8F08417950769F41097B8
S1134EB031F012960C93129713961C9327C000930B
S1134EC0BF061093C00622C02115310519F0421700
S1134ED0530718F49A01BD01EF01DF01F801DBCF9C
S1134EE021153105F9F0281B390B2430310580F4E4
S1134EF08A819B816115710521F0FB019383828373
S1134F0004C09093C0068093BF06FE01329644C04D
S1134F10FE01E20FF31F81939193225031093983EB
S1134F2028833AC02091BD063091BE06232B41F45C
S1134F3020916200309163003093BE062093BD0639
S1134F4020916000309161002115310541F42DB7A5
S1134F503EB74091640050916500241B350BE091ED
S1134F60BD06F091BE06E217F307A0F42E1B3F0B1B
S1134F702817390778F0AC014E5F5F4F24173507C7
S1134F8048F04E0F5F1F5093BE064093BD068193B9
S1134F90919302C0E0E0F0E0CF01DF91CF911F9147
S1134FA00F910895CF93DF93009709F481C0FC011A
S1134FB0329713821282A091BF06B091C006109757
S1134FC081F420813181820F931F2091BD0630919D
S1134FD0BE062817390751F5F093BE06E093BD06C7
S1134FE067C0ED0120E030E0CE17DF0740F44A81CE
S1134FF05B819E0141155105F1F0EA01F5CFD383A0
S1135000C28340815181840F951FC817D90759F471
S113501088819981840F951F0296918380838A8168
S11350209B81938382832115310529F4F093C00673
S1135030E093BF063DC0E901FB83EA83499159919E
S1135040C40FD51FEC17FD0761F480819181840F93
S1135050951F0296E90199838883828193819B83BA
S11350608A83E0E0F0E012968D919C91139700976B
S113507019F0FD01DC01F7CF8D919C9111979D01F1
S11350802E5F3F4F820F931F2091BD063091BE06C5
S11350902817390769F4309729F41092C006109242
S11350A0BF0602C013821282B093BE06A093BD064F
S11350B0DF91CF910895E199FECF9FBB8EBBE09A1B
S11350C099278DB30895A6E1B0E044E050E00C9434
S11350D0A128A8E1B0E042E050E00C94A128262FDA
S11350E0E199FECF9FBB8EBBE09A01970DB20216E9
S11350F031F02DBB0FB6F894E29AE19A0FBE0895F1
S11351000396272F0E9470280E946F28252F0E9443
S11351107028242F0C9470280196272F0E94702841
S11351200C946F28242F0E94B028252F0E94B028A9
S11351300C949A280E94AF28272F0C94B028DC01E5
S1135140CB01FC01E199FECF06C0FFBBEEBBE09AA8
S113515031960DB20D9241505040B8F70895262F64
S1135160E199FECF9FBB8EBB2DBB0FB6F894E29A9C
S10F5170E19A0FBE01960895F894FFCF59
S113517C0000C1062000010156003000456469742A
S113518C004261636B0053617665006D696E3A0091
S113519C6D61783A00537064005562740046727104
S11351AC005374500053747000537452006E537453
S11351BC0050687300545274004469616C20505759
S11351CC4D004172726F772050574D0057686565DA
S11351DC6C204400526174696F004D61676E657494
S11351EC730053746570206D6F6465004D61782095
S11351FC7370656564004465672F6B6D6800534D6F
S113520C207374657073005374657020696E7465D3
S113521C722E004C434420636F6E7472617374007D
S113522C4465627567206D6F64650043616C6962E7
S113523C72617465206172726F77004F646F6D6573
S113524C746572207265736574004C6F61642064BC
S113525C656661756C7473004578697400446961A2
S113526C6C206C696768742050574D004172726FE2
S113527C77206C696768742050574D0057686565D2
S113528C6C204469616D6574657220286D29004732
S113529C65617220726174696F004D61676E65742B
S11352AC73206F6E20776865656C00312D66756CA4
S11352BC6C2C20322D68616C66004D6178696D75BB
S11352CC6D20737065656400446567726565732051
S11352DC706572206B6D2F68005374657070657205
S11352EC206D6F746F7220737465707300537465E2
S11352FC7020696E74657276616C00524553455426
S113530C004F444F4D455445523F004E4F005945B4
S113531C53005245534554494E47204F444F4D4535
S113532C5445520043656C6C7320636C6561726503
S113533C64002F00444F4E452100524553544F52A4
S113534C450044454641554C542076616C75657353
S113535C3F004C4F4144494E472044454641554C2F
S113536C54532E2E2E0005060A02010008040602D0
S109537C00040602000417
S9030000FC
