:100000000C94B0080C94CD080C944D0B0C94CD08B6
:100010000C941B0B0C94CD080C94CD080C94CD08BB
:100020000C94CD080C94320B0C94E30A0C94CD087C
:100030000C94CD080C94CD080C94CD080C94CD08EC
:100040000C94CD080C94CD080C94CD080C94CD08DC
:100050000C94CD081200FE7F00C0FFFF07F8FFFFE1
:100060001FFC01803F3E00007C0E0000700F00006E
:10007000F0070000E0070000E0070000E00F0000CC
:10008000F00E0000703E00007CFC01803FF8FFFF96
:100090001FE0FFFF0300FE7F00000000001200FED3
:1000A0007F00C0FFFF07F8FFFF1FFC01803F3E00FD
:1000B000007C0E0000700F0000F0070000E0070059
:1000C00000E0070000E00F0000F00E0000703E00AE
:1000D000007CFC01803FF8FFFF1FE0FFFF0300FEF4
:1000E0007F00000000001200FE7F00C0FFFF07F845
:1000F000FFFF1FFC01803F3E00007C0E0000700FE0
:100100000000F0070000E0070000E0070000E00F3B
:100110000000F00E0000703E00007CFC01803FF803
:10012000FFFF1FE0FFFF0300FE7F00000000001242
:1001300000FE7F00C0FFFF07F8FFFF1FFC01803FAC
:100140003E00007C0E0000700F0000F0070000E091
:10015000070000E0070000E00F0000F00E00007054
:100160003E00007CFC01803FF8FFFF1FE0FFFF0323
:1001700000FE7F00000000001200FE7F00C0FFFFB5
:1001800007F8FFFF1FFC01803F3E00007C0E0000CF
:10019000700F0000F0070000E0070000E00700001B
:1001A000E00F0000F00E0000703E00007CFC0180BB
:1001B0003FF8FFFF1FE0FFFF0300FE7F000000008D
:1001C000001200FE7F00C0FFFF07F8FFFF1FFC01C9
:1001D000803F3E00007C0E0000700F0000F0070022
:1001E00000E0070000E0070000E00F0000F00E0054
:1001F00000703E00007CFC01803FF8FFFF1FE0FF25
:10020000FF0300FE7F00000000001200FE7F00C020
:10021000FFFF07F8FFFF1FFC01803F3E00007C0E40
:100220000000700F0000F0070000E0070000E0078A
:100230000000E00F0000F00E0000703E00007CFCAB
:1002400001803FF8FFFF1FE0FFFF0300FE7F00007B
:100250000000001200FE7F00C0FFFF07F8FFFF1F35
:10026000FC01803F3E00007C0E0000700F0000F09B
:10027000070000E0070000E0070000E00F0000F0CA
:100280000E0000703E00007CFC01803FF8FFFF1F65
:10029000E0FFFF0300FE7F00000000001200FE7F71
:1002A00000C0FFFF07F8FFFF1FFC01803F3E00007A
:1002B0007C0E0000700F0000F0070000E007000057
:1002C000E0070000E00F0000F00E0000703E0000AC
:1002D0007CFC01803FF8FFFF1FE0FFFF0300FE7F73
:1002E00000000000001200FE7F00C0FFFF07F8FFC3
:1002F000FF1FFC01803F3E00007C0E0000700F00DD
:1003000000F0070000E0070000E0070000E00F0039
:1003100000F00E0000703E00007CFC01803FF8FF02
:10032000FF1FE0FFFF0300FE7F000000000012003F
:10033000FE7F00C0FFFF07F8FFFF1FFC01803F3E6C
:1003400000007C0E0000700F0000F0070000E007C6
:100350000000E0070000E00F0000F00E0000703E1B
:1003600000007CFC01803FF8FFFF1FE0FFFF03005F
:10037000FE7F00000000001200FE7F00C0FFFF07AC
:10038000F8FFFF1FFC01803F3E00007C0E00007064
:100390000F0000F0070000E0070000E0070000E0A9
:1003A0000F0000F00E0000703E00007CFC01803F5A
:1003B000F8FFFF1FE0FFFF0300FE7F0000000000CA
:1003C0001200FE7F00C0FFFF07F8FFFF1FFC018047
:1003D0003F3E00007C0E0000700F0000F0070000A0
:1003E000E0070000E0070000E00F0000F00E000052
:1003F000703E00007CFC01803FF8FFFF1FE0FFFF24
:100400000300FE7F00000000001200FE7F00C0FF1E
:10041000FF07F8FFFF1FFC01803F3E00007C0E003D
:1004200000700F0000F0070000E0070000E0070088
:1004300000E00F0000F00E0000703E00007CFC01A8
:10044000803FF8FFFF1FE0FFFF0300FE7F0000007A
:100450000000090000000000000000000000000093
:100460000000F0000000F0000000F00000000000BC
:10047000000000000000000000000000000000007C
:10048000000000000000000000000000000000006C
:1004900000000000000000000000001200FE7F00CD
:1004A000C0FFFF07F8FFFF1FFC01803F3E00007CFC
:1004B0000E0000700F0000F0070000E0070000E0F1
:1004C000070000E00F0000F00E0000703E00007C0E
:1004D000FC01803FF8FFFF1FE0FFFF0300FE7F00ED
:1004E000000000001200FE7F00C0FFFF07F8FFFFC2
:1004F0001FFC01803F3E00007C0E0000700F0000DA
:10050000F0070000E0070000E0070000E00F000037
:10051000F00E0000703E00007CFC01803FF8FFFF01
:100520001FE0FFFF0300FE7F00000000001200003C
:1005300000000000000000000000000E00000007A6
:10054000000080030000C0030000E0010000F8008C
:100550000000FEFFFFFFFFFFFFFFFFFFFFFF0000A8
:10056000000000000000000000000000000000008B
:1005700000000000000012C00100E0F00100F8FCE3
:100580000100FE3C0000FF1E0080EF0F00C0E707E7
:1005900000E0E10700F0E0070078E007003CE0073A
:1005A000001FE00F800FE01EC007E03EF803E0FCF4
:1005B000FF00E0F07F00E0C00F00E000000000124C
:1005C000C0008003F000800FFC00801F3E00003E52
:1005D0001E0000780F0000F007E000E007E000E0F8
:1005E00007E000E007E000E00FF000E00EF8017027
:1005F0003EFC0378FCBF073EF89FFF1FE007FE0F9D
:100600000000F80300000000120000F0000000FCF1
:10061000000000FF0000C0FF0000F0E70000F8E16C
:1006200000007EE000801FE000E007E000F801E04D
:10063000007E00E000FFFFFFFFFFFFFFFFFFFFFF67
:10064000FF0000E0000000E0000000E0000000E02B
:10065000001200C0800300FF800FF8FF811FFFFF22
:10066000003EFF780078073800F0071C00E0071C08
:1006700000E0071C00E0071C00E0073C00F0073822
:1006800000700778007C07F0013F07E0FF1F07C0FC
:10069000FF070000FE01000000001200FC7F00C008
:1006A000FFFF07F0FFFF0FF880073E3CC001781EF8
:1006B000E000700E7000F0077000E0077000E007C7
:1006C0007000E0077000E00FF000F00EE001783EEF
:1006D000C0073EFC80FF1FF800FF0FE000FC010098
:1006E00000000012070000000700000007000000E3
:1006F00007000000070000F80700C0FF0700FCFF2C
:100700000780FF0707E03F0007F8070007FE00002B
:10071000871F0000E7070000F70100007F000000CE
:100720001F0000000F00000000000000120000F891
:1007300003E007FE0FF81FFF1FFCBF0F3E3EFC0348
:10074000780EF0017007E000E007E000E007E0004D
:10075000E007E000E00FE000E00EF001703EFC0377
:1007600078FCBF0F3EF81FFF1FE007FE0F0000F8E8
:10077000030000000012C03F0007F0FF001FF8FF59
:10078000013F7CE0037C1E8007700F000FF00F001C
:100790000EE007000EE007000EE007000EE0070085
:1007A0000E700E0007781E80033C7CE0811FF0FF76
:1007B000FF0FE0FFFF0300FE3F000000000000000D
:1007C0000000000000000000000000000000000029
:1007D000000080C0E0F0F8FCFEFFFFFF000000001A
:1007E0000000000000000000000000000000000009
:1007F00000000000000000000000000000000000F9
:1008000000000000000000000000000000000000E8
:1008100000000000000000000000000000000000D8
:1008200000000000000080C0E0F0F8FCFEFFFFFFC9
:10083000FFFFFFFFFFFFFFFFC0C0C0C0C0C0C0C0C0
:10084000C0C0C0C0C0C0C0C0C0C0C0C0C0C0C0C0A8
:10085000C0C0C0C0C0C0C0C0C0C0C0C0C0C0C0C098
:10086000C0C0C0C0C0C0C0C0C0C0C0C0C0C0C0C088
:10087000C0C0C0C0C0C00000000080C0E0F0F8FCF4
:10088000FEFFFFFFFFFFFFFFFFFFFFFFFFFFFFFF79
:10089000FFFFFFFFFFFFFFFFFFFFFFFFFFFFFFFF68
:1008A000FFFFFFFFFFFFFFFFFFFFFFFFFFFFFFFF58
:1008B000FFFFFFFFFFFFFFFFFFFFFFFFFFFFFFFF48
:1008C000FFFFFFFFFFFFFFFFFFFFFFFFFFFFFFFF38
:1008D000FFFF081C3E7FFFFFFFFFFFFFFFFFFFFF43
:1008E000FFFFFFFFFFFFFFFFFFFFFFFFFFFFFFFF18
:1008F000FFFFFFFFFFFFFFFFFFFFFFFFFFFFFFFF08
:10090000FFFFFFFFFFFFFFFFFFFFFFFFFFFFFFFFF7
:10091000FFFFFFFFFFFFFFFFFFFFFFFFFFFFFFFFE7
:10092000FFFFFFFFFFFFFFFFFFFFFFFFFFFF0000D5
:100930000000000103070F1F3F7FFFFFFFFFFFFFC6
:10094000FFFFFFFFFFFFFFFFFFFFFFFFFFFFFFFFB7
:10095000FFFFFFFFFFFFFFFFFFFFFFFFFFFFFFFFA7
:10096000FFFFFFFFFFFFFFFFFFFFFFFFFFFFFFFF97
:10097000FFFFFFFFFFFFFFFFFFFFFFFFFFFFFFFF87
:10098000FFFFFFFFFFFFFFFFFFFF00000000000071
:10099000000000000000000103070F1F3F7FFFFF62
:1009A000FFFFFFFFFFFFFFFF010101010101010147
:1009B0000101010101010101010101010101010127
:1009C0000101010101010101010101010101010117
:1009D0000101010101010101010101010101010107
:1009E0000101010101010000000000000000000001
:1009F00000000000000000000000000103070F1FBE
:100A00003F7F7F7F0000000000000000000000002A
:100A100000000000000000000000000000000000D6
:100A200000000000000000000000000000000000C6
:100A300000000000000000000000000000000000B6
:100A400000000000000000000000000000000000A6
:100A50000000000000000000000000000000000096
:100A60000000000000000000000000000000000086
:100A70000000000000000000000000000000000076
:100A8000FFFFFFFEFCF8F0E0C08000000000000067
:100A90000000000000000000000000000000C0C0D6
:100AA000C0C0C0C0C0C0C0C0C0C0C0C0C0C0C0C046
:100AB000C0C0C0C0C0C0C0C0C0C0C0C0C0C0C0C036
:100AC000C0C0C0C0C0C0C0C0C0C0C0C0C0C0C0C026
:100AD000C0C0C0C0C0C0C0C0C0C0C0C0FFFFFFFF1A
:100AE000FFFFFFFFFFFFFFFEFCF8F0E0C08000000B
:100AF00000000000000000000000FFFFFFFFFFFFFC
:100B0000FFFFFFFFFFFFFFFFFFFFFFFFFFFFFFFFF5
:100B1000FFFFFFFFFFFFFFFFFFFFFFFFFFFFFFFFE5
:100B2000FFFFFFFFFFFFFFFFFFFFFFFFFFFFFFFFD5
:100B3000FFFFFFFFFFFFFFFFFFFFFFFFFFFFFFFFC5
:100B4000FFFFFFFFFFFFFFFFFFFFFFFEFCF8F0E0EE
:100B5000C08000000000FFFFFFFFFFFFFFFFFFFF5F
:100B6000FFFFFFFFFFFFFFFFFFFFFFFFFFFFFFFF95
:100B7000FFFFFFFFFFFFFFFFFFFFFFFFFFFFFFFF85
:100B8000FFFFFFFFFFFFFFFFFFFFFFFFFFFFFFFF75
:100B9000FFFFFFFFFFFFFFFFFFFFFFFFFFFFFFFF65
:100BA000FFFFFFFFFFFFFFFFFFFFFFFFFFFF7F3E96
:100BB0001C08FFFFFFFFFFFFFFFFFFFFFFFFFFFF1F
:100BC000FFFFFFFFFFFFFFFFFFFFFFFFFFFFFFFF35
:100BD000FFFFFFFFFFFFFFFFFFFFFFFFFFFFFFFF25
:100BE000FFFFFFFFFFFFFFFFFFFFFFFFFFFFFFFF15
:100BF000FFFFFFFFFFFFFFFFFFFFFFFFFFFFFFFF05
:100C0000FFFF7F3F1F0F07030100000000000101ED
:100C100001010101010101010101010101010101C4
:100C200001010101010101010101010101010101B4
:100C300001010101010101010101010101010101A4
:100C4000010101010101010101010101FFFFFFFF9C
:100C5000FFFFFFFFFFFF7F3F1F0F070301000000A3
:100C60000000000000000000000000000000000084
:100C70000000000000000000000000000000000074
:100C80000000000000000000000000000000000064
:100C90000000000000000000000000000000000054
:100CA00000000000000000007F7F7F3F1F0F070350
:100CB0000100000000000000000000000000000033
:100CC000000000000000008080808084FCFEFEFEAA
:100CD000FEFEFEFEFEFC0000000000000000000022
:100CE00080C0E0F0F8FCFCFEFEFFFFFFFFFFFFFF0F
:100CF000FFFFFFFFFFFFFFFFFFFEFEFCFCF8F0E041
:100D0000C08000000000000000000000FCFEFEFEAD
:100D1000FEFEFEFEFEFC8080808080001F3F3F3F85
:100D20003F3F7FFFFFFFFFFFFFFFFFF9F0E0C080C5
:100D30000000000000FEFFFFFFFFFFFFFFFFFFFFBF
:100D4000FFFFFFFFFFFFFFFFFFFFFFFFFFFFFFFFB3
:100D5000FFFFFFFFFFFFFFFFFE000000000080C05D
:100D6000E0F0F9FFFFFFFFFFFFFFFF7F3F3F3F3F47
:100D70003F1F00000000000000000103070F1F3F9D
:100D80007F7F7F7F7F7F7F7E0000007FFFFFFFFFF1
:100D9000FF3F1F1F1F1F1F1F1F3FFFFFFFFFFFFF03
:100DA0003F1F1F1F1F1F1F1F3FFFFFFFFFFF7F0072
:100DB00000007E7F7F7F7F7F7F7F3F1F0F070301C4
:100DC0000000000000000000000000000000000023
:100DD000000000000080C0E0F0F0F0F0F0F0F0F073
:100DE00000000101FFFFFFF0E0E0E0E0E0E0E0F004
:100DF0000F0F0F0F0F0FF0E0E0E0E0E0E0E0F0FF9A
:100E0000FFFF01010000F0F0F0F0F0F0F0F0E0C0C2
:100E10008000000000000000000000000000000052
:100E2000C0E0E0E0E0E0F0F8FCFEFFFFFFFFFFFFC6
:100E30007F3F1F0F0703000000000303031F1F1F56
:100E4000FFFFFFFFFFFFFCF8F8F8F8FCFFFFFFFFD4
:100E5000FFFF1F1F1F0303030000000003070F1FF6
:100E60003F7FFFFFFFFFFFFFFEFCF8F0E0E0E0E068
:100E7000E0C000000000070F0F0F0F0FFFFFFFFF84
:100E8000FFFFFFFFFFFC000000000000000000006B
:100E90000000003E7E7EF0F0E087878303030303BB
:100EA0000303838787E0F0F07E7E3E0000000000B1
:100EB0000000000000000000FCFFFFFFFFFFFFFF3D
:100EC000FFFF0F0F0F0F0F070000000000000000D2
:100ED000000000010101010101010100000000000A
:100EE00000000000000000000000000000010307F7
:100EF0000F0F0F0F0F0F0F0F0F0F07030100000051
:100F000000000000000000000000000000000001E0
:100F100001010101010101000000000000000000CA
:100F20000500000000000500005F0000050007004C
:100F3000070005147F147F1405242A7F2A12052335
:100F4000130864620536495620500508070300005F
:100F500005001C224100050041221C000514083E2A
:100F600008140508083E08080500B07000000508D0
:100F70000808080805006060000005201008040249
:100F8000053E5149453E0500427F400005724949F2
:100F90004946052141494D33051814127F10052794
:100FA00045454539053C4A49493105412111090763
:100FB00005364949493605464949291E05000014A8
:100FC000000005004034000005081422410005140B
:100FD00014141414054122140800050201590906CD
:100FE000053E415D594E057C1211127C057F494931
:100FF0004936053E41414122057F4141413E057F41
:1010000049494949057F09090909053E414151738B
:10101000057F0808087F0500417F41000520404109
:101020003F01057F08142241057F40404040057F75
:10103000020C027F057F0408107F053E4141413EBE
:10104000057F09090906053E4151215E057F091901
:1010500029460526494949320501017F0101053F1D
:101060004040403F051F2040201F053F4038403F83
:1010700005631408146305030478040305615149EA
:10108000454305007F41410005020408102005008A
:1010900041417F00050402010204054040404040F8
:1010A00005070B000000052054547840057F2844B4
:1010B000443805384444442805384444287F0538DA
:1010C000545454180500087E09020518A4A49C78FD
:1010D000057F080404780500447D40000520404059
:1010E0003D00057F102844000500417F4000057C3D
:1010F00004780478057C08040478053844444438AE
:1011000005FC182424180518242418FC057C080460
:1011100004080548545454240504043F4424053C61
:101120004040207C051C2040201C053C4030403CB9
:10113000054428102844054C9090907C0544645444
:101140004C4405000836410005000077000005000A
:101150004136080005040204080405007F417F00B1
:1011600011241FBECFE5D8E0DEBFCDBF10E0A0E662
:10117000B0E0E4E6F9E302C005900D92A63FB107A6
:10118000D9F725E0A6EFB0E001C01D92A333B20766
:10119000E1F70E94E9100C94B01C0C940000CF926F
:1011A000DF92EF92FF92CF932BED3FE049E450E4C2
:1011B00060916D0070916E0080916F009091700051
:1011C0000E94601B6B017C016091750070E080E003
:1011D00090E00E94AC1A9B01AC01C701B6010E94CD
:1011E000111A60931701709318018093190190935D
:1011F0001A018DEB97E3A6E8B7E380931B01909368
:101200001C01A0931D01B0931E01D39AD09AD29ACB
:10121000D19A8C9A8D9ADB9AD89AC59AC69AC79A0F
:10122000379A309A319A329A88E090E00E94721C84
:10123000882309F46FC060E088E090E00E94861C7B
:10124000609167007091680080E190E00E949B1CB3
:10125000609165007091660088E190E00E949B1C9F
:101260006091640080E290E00E94861C60916300BF
:1012700088E290E00E94861C6091620080E390E02A
:101280000E94861C6091610088E390E00E94861CA9
:101290006091760080E490E00E94861C6091750069
:1012A00088E490E00E94861C6091600080E590E0F8
:1012B0000E94861C40916D0050916E0060916F00FD
:1012C0007091700088E590E00E94931C409171003D
:1012D00050917200609173007091740080E690E00C
:1012E0000E94931C4091690050916A0060916B00CC
:1012F00070916C0088E690E00E94931C40911F0161
:1013000050912001609121017091220180E790E0CD
:101310000E94931C80E190E00E94801C6C019093DD
:1013200068008093670088E190E00E94801C7C0147
:10133000909366008093650080E290E00E94721CAA
:101340008093640088E290E00E94721C80936300A6
:1013500080E390E00E94721C8093620088E390E03A
:101360000E94721C8093610080E490E00E94721CD5
:101370008093760088E490E00E94721C8093750050
:1013800080E590E00E94721CC82F8093600088E581
:1013900090E00E947A1C60936D0070936E008093C1
:1013A0006F009093700080E690E00E947A1C60933A
:1013B000710070937200809373009093740088E6BC
:1013C00090E00E947A1C6093690070936A00809399
:1013D0006B0090936C0080E790E00E947A1C609311
:1013E0001F0170932001809321019093220183EAD1
:1013F0008FBD8BE08EBDDBBCCABCF9BCE8BCC111A3
:1014000022C06091610070E080E090E00E94AC1A20
:101410009B01AC0160E070E084EB93E40E94111A40
:101420002091690030916A0040916B0050916C00EE
:101430000E94111A609300017093010180930201D0
:101440009093030123C0C13009F56091610070E001
:1014500080E090E00E94AC1A9B01AC0160E070E07B
:1014600084E393E40E94111A2091690030916A008C
:1014700040916B0050916C000E94111A6093000122
:1014800070930101809302019093030185B78860F6
:1014900085BF8BB780688BBF85B58E6085BD84E1C5
:1014A00083BD0E94BF110E94DC15809176000E94CE
:1014B000A0110E9476117894CF91FF90EF90DF9069
:1014C000CF9008959091FD009923A9F02091FE00FE
:1014D0003091FF002F5F3F4F3093FF002093FE00BD
:1014E0002091FB003091FC002F5F3F4F3093FC00B8
:1014F0002093FB0014C02091FE003091FF0021508A
:1015000031093093FF002093FE002091FB003091C1
:10151000FC00215031093093FC002093FB00811125
:1015200017C08091FE009091FF00992334F483E06E
:1015300090E09093FF008093FE008091FE009091D8
:10154000FF0004972CF11092FF001092FE0020C0C3
:10155000813081F58091FE009091FF00992334F451
:1015600087E090E09093FF008093FE008091FE0062
:101570009091FF000897BCF01092FF001092FE00BF
:1015800012C0F901E751FF4F8081982B9BBB089552
:10159000E091FE00F091FF009BB3907FEF50FF4F72
:1015A0008081982BF3CF2091FE003091FF009BB3F8
:1015B000907FE7CF2091FE003091FF009BB3907F9A
:1015C000813021F7DECF1F920F920FB60F921124B8
:1015D0002F933F934F935F936F937F938F939F933B
:1015E000AF93BF93EF93FF93809160000E94620AD4
:1015F0002091FB003091FC0080911001909111012D
:101600002817390739F41092120113BE1CBE89B78E
:101610008D7F89BFFF91EF91BF91AF919F918F9186
:101620007F916F915F914F913F912F910F900FBEDE
:101630000F901F9018951F920F920FB60F921124C2
:101640008F939F938091250190912601019690930D
:101650002601809325019F918F910F900FBE0F90CF
:101660001F9018951F920F920FB60F9211248F930F
:101670009F9380910F01882349F080910C019091F4
:101680000D01019690930D0180930C019F918F9114
:101690000F900FBE0F901F9018951F920F920FB6CC
:1016A0000F9211242F933F934F935F938F939F93A8
:1016B000AF93BF9380910E01811108C089B78068F4
:1016C00089BF14BC81E080930E012CC020912501BC
:1016D0003091260144B554E1529FC001539F900DB3
:1016E0001124840F911D909324018093230114BC35
:1016F000109226011092250181E08093770080915D
:101700001F0190912001A0912101B0912201019629
:10171000A11DB11D80931F0190932001A093210171
:10172000B0932201BF91AF919F918F915F914F91A3
:101730003F912F910F900FBE0F901F9018958F9291
:101740009F92AF92BF92CF92DF92EF92FF920F9350
:10175000CF93DF9380910F018111FDC00E94DC15B2
:101760000FEF27E144E26BE08AE00E94621524E17A
:1017700046E26EE085E20E9462158091F800909149
:10178000F9008936910534F025E140E16DE08CE007
:101790000E94E0158091F8009091F9008E36910535
:1017A0003CF00FEF25E146E16DE082E10E94E0159B
:1017B0008091F8009091F900833791053CF00FEF8C
:1017C00025E14CE16DE088E10E94E0158091F80090
:1017D0009091F900883791053CF00FEF25E142E246
:1017E0006DE08EE10E94E0156FE08BE20E94B61181
:1017F00020E048E065E080E29FE00E94E51560910E
:10180000F8007091F900882777FD8095982F0E9445
:10181000AC1A20E030E040E251E40E94111A2AE0C4
:1018200030E040E050E00E94141985EA90E00E9408
:101830007B1720E040E262E184E590E00E94E5153C
:101840006FE184E00E94B611809008019090090138
:10185000A0900A01B0900B0124E682169104A10425
:10186000B10468F424E630E040E050E0D0E00F2E10
:10187000FAE0CF2ED12CE12CF12CF02D0FC0C501B8
:10188000B4012AE030E040E050E00E94201C211525
:1018900031054105510551F7D0E012C0CA01B90127
:1018A000A70196010E94421CDF5F21153105410509
:1018B0005105A1F734E683169104A104B10450F058
:1018C00086E090E09C012D1B3109E9011C161D06E4
:1018D0007CF402C0C4E0D0E0E12CF12C88E790E079
:1018E0000E947B173FEFE31AF30AEC16FD06B4F3F0
:1018F000609108017091090180910A0190910B019A
:101900000E94AA1A20E030E048EC52E40E94111A2A
:101910002AE030E040E050E00E94141920E048E066
:1019200065E080E29FE00E94E51560E080E40E94AF
:10193000B61160911301709114018091150190917D
:1019400016012AE030E040E050E00E9414190E94A5
:1019500076110E947611DF91CF910F91FF90EF9059
:10196000DF90CF90BF90AF909F908F90089580911F
:101970006000811119C06091130170911401809170
:1019800015019091160120910001309101014091C3
:101990000201509103010E94111A0E94791A70935A
:1019A0001101609310011AC08130C1F460911301DC
:1019B0007091140180911501909116012091000100
:1019C0003091010140910201509103010E94111ACE
:1019D0000E94791A70931101609310018091FB00AD
:1019E0009091FC002091100130911101821B930B0A
:1019F000181619061CF41092FD0005C021E0209372
:101A0000FD00892B71F081E08093120183B78D6016
:101A100083BF809162008CBF89B7826089BF0E94BA
:101A20009F0B0895CF92DF92EF92FF92CF93809118
:101A3000250190912601893E9340B4F089B78F77B4
:101A400089BF14BC10922601109225011092240126
:101A5000109223011092130110921401109215019B
:101A60001092160110920E0180917700882309F4DC
:101A700046C08091230190912401892B09F43FC035
:101A8000809123019091240181399140C4F16091AA
:101A9000230170912401882777FD8095982F0E945B
:101AA000AC1A20911B0130911C0140911D015091F5
:101AB0001E010E94601B9B01AC0160E070E080E8A9
:101AC0009FE30E94111A26E636E646E650E40E949D
:101AD000601B20911701309118014091190150911C
:101AE0001A010E94601B462F572F682F792F4093B1
:101AF0001301509314016093150170931601C09166
:101B00006400C0901301D0901401E0901501F09092
:101B100016016C2F70E080E090E00E94AC1AA701E3
:101B200096010E940D1A882374F46C2F70E080E0F7
:101B300090E00E94AA1A609313017093140180939D
:101B400015019093160110927700CF91FF90EF90BE
:101B5000DF90CF900895B59B08C0B69B06C0B79B99
:101B600004C01092FA0080E00895B59912C08091E7
:101B7000FA0081110EC02FEF80E792E021508040E3
:101B80009040E1F700C00000B59903C081E0809368
:101B9000FA00B69912C08091FA0081110EC02FEFA1
:101BA00080E792E0215080409040E1F700C00000C3
:101BB000B69903C082E08093FA00B79912C0809171
:101BC000FA0081110EC02FEF80E792E02150804093
:101BD0009040E1F700C00000B79903C083E0809314
:101BE000FA008091FA00089580912701882314F467
:101BF0001092270180912801863044F080912701BE
:101C00008F5F80932701109228010AC0882344F433
:101C10008091270181508093270185E080932801DE
:101C200080912701823041F480912801823024F094
:101C300010922701109228010E94DC158091280142
:101C4000880F880F880F282F215F682F695F0FEF9B
:101C500045E080E00E94E01580912801880F880F00
:101C6000880F282F215F682F695F4FE78AE70E945E
:101C7000E01560912801660F660F660F6A5F262FD8
:101C80004FE780E00E94CD1460912801660F660F37
:101C9000660F605F262F4FE780E00E94CD1421E0A1
:101CA00048E065E080E29FE00E94E5158091270111
:101CB000811194C08AE00E94AA1181E00E94211241
:101CC0008AE790E00E947B178BE40E94AA11609142
:101CD00065007091660080E090E00E94AF178AE096
:101CE0000E94AA1182E00E94211282E890E00E94E4
:101CF0007B178BE40E94AA116091670070916800C5
:101D000080E090E00E94AF178AE00E94AA1183E071
:101D10000E9421128AE890E00E947B178BE40E94C7
:101D2000AA1160916D0070916E0080916F0090918A
:101D3000700024E630E040E050E00E9414198AE090
:101D40000E94AA1184E00E94211281E990E00E9481
:101D50007B178BE40E94AA11609171007091720050
:101D6000809173009091740024E630E040E050E0F0
:101D70000E9414198AE00E94AA1185E00E94211293
:101D800087E990E00E947B178BE40E94AA11609182
:101D9000750070E080E090E00E94AF178AE00E943A
:101DA000AA1186E00E9421128FE990E00E947B1721
:101DB0008BE40E94AA116091630070E080E090E0E3
:101DC0000E94AC1A20E030E040E251E40E94111A77
:101DD0002AE030E040E050E00E9414198091270191
:101DE000813009F064C08AE00E94AA1181E00E945B
:101DF000211287EA90E00E947B178BE40E94AA11CF
:101E00006091640070E080E090E00E94AF178AE08B
:101E10000E94AA1182E00E94211281EB90E00E94B0
:101E20007B178BE40E94AA116091690070916A008F
:101E300080916B0090916C0028EE33E040E050E020
:101E40000E9414198AE00E94AA1183E00E942112C4
:101E500089EB90E00E947B178BE40E94AA116091AD
:101E6000610070E080E090E00E94AF178AE00E947D
:101E7000AA1184E00E9421128CEB90E00E947B1753
:101E80008BE40E94AA116091620070E080E090E013
:101E90000E94AF178AE00E94AA1185E00E942112D9
:101EA00082EC90E00E947B178BE40E94AA11809143
:101EB00027018230A1F48AE00E94AA1181E00E94E9
:101EC00021128CEC90E00E947B178AE00E94AA11FC
:101ED00082E00E9421128BED90E00E947B170E940D
:101EE00076110E94AB0D8823E1F3823031F48091AA
:101EF00028018F5F8093280107C0833029F48091E7
:101F000028018150809328010E94AB0D8111FCCFE4
:101F10000E94F40D882381F00E94DC1567E086E1C1
:101F20000E94B6112FEF47E36CE582E49AE00E942D
:101F300069130E94761108950E94DC1567E086E11E
:101F40000E94B6112FEF47E36CE58EEB97E00E94FD
:101F500069130E94761108950E94DC1567E08BE1F9
:101F60000E94B6112FEF44E366E586EC9CE00E94E8
:101F700069130E9476110895B4990CC0B39B0AC0EE
:101F800080E00E948A0F81E080930F0110920D0182
:101F900010920C01B3990CC0B49B0AC081E00E945E
:101FA0008A0F81E080930F0110920D0110920C01B5
:101FB000B4990BC0B39909C00E94AC0F81E0809323
:101FC0000F0110920D0110920C0180910F018823D6
:101FD000E9F0B39B09C0B49B07C00E94DC150E94C6
:101FE000761189B7846089BF80910C0190910D01B1
:101FF0008D32914058F010920F0110920D01109205
:102000000C0189B78B7F89BF0E949F0B089587B908
:1020100070E0161617068CF420E030E080E090E0C7
:10202000369A3699FECF44B155B1840F951F2F5F74
:102030003F4F26173707A4F302C080E090E00E94CC
:102040000C1C862F972F08950F931F936AE084E04E
:102050000E940710BC01882777FD8095982F0E9469
:10206000AC1A2AE939E94CEC52E40E94111A20E03A
:1020700030E040E250E40E94601B20E030E040ECA1
:1020800050E40E94601B0E94791A7093F7006093DD
:10209000F6002091630030E0621773070CF048C02F
:1020A000F8941FBC1EBCDB9AD89ADA9AD99A409150
:1020B0001F0150912001609121017091220180E760
:1020C00090E00E94931C2091630030E08091F60024
:1020D0009091F700821793074CF56AE084E00E9424
:1020E0000710BC01882777FD8095982F0E94AC1AB5
:1020F0002AE939E94CEC52E40E94111A20E030E060
:1021000040E250E40E94601B20E030E040EC50E4EC
:102110000E94601B0E94791A7093F7006093F6008A
:102120002091630030E062177307BCF20E94E9104F
:102130008091F6009091F7002091F8003091F9001D
:102140008217930731F09093F9008093F8000E9472
:102150009F0B60911F01709120018091210190914E
:1021600022010E94AA1A0E94C31B209117013091DC
:1021700018014091190150911A010E94601B20E042
:1021800030E040E251E40E94111A0E947E1A6093EE
:10219000040170930501809306019093070100915B
:1021A00008011091090120910A0130910B0160177B
:1021B00071078207930751F060930801709309013A
:1021C00080930A0190930B010E949F0B1F910F9126
:1021D00008950E94CF080E9424100E94120D0E94B0
:1021E000B70C0E94BC0F0E94AB0D8823A1F30E9484
:1021F000F40D66956695669590E8699FB001112487
:10220000680F711DFB01ED5CFE4F408308956695DC
:102210006695669590E8699FB0011124680F711D5D
:10222000FB01ED5CFE4F80810895FF920F931F9399
:10223000CF93DF93C82F062F172FF42E0E949119EA
:102240000E948E19883031F0803121F081E0809336
:10225000290133C088E70E949F190E948E19883196
:1022600031F0803221F081E08093290126C08C2F4B
:102270000E949F190E948E19883219F4F11007C02C
:102280001AC08033D9F381E08093290116C0C02F92
:10229000D12F8E010F5F1F4FFA940F0D111D8991E1
:1022A0000E949F190E948E19883211F0803319F410
:1022B000C017D107A1F7109229010E949919DF9147
:1022C000CF911F910F91FF900895CF93DF931F92AD
:1022D000CDB7DEB7898341E0BE016F5F7F4F80E0FD
:1022E0000E9415110F90DF91CF910895CF93DF9346
:1022F00081E20E94651180E00E9465118FE70E94D3
:10230000651182E20E94651180E00E94651187E0FC
:102310000E946511C0E0D0E0BE0162957295707FA9
:102320007627607F76276D5C7E4F40E180E40E94D7
:1023300015112196C034D10579F7DF91CF91089519
:10234000CF93C82F81E80E9465118C2F0E946511E0
:10235000CF910895882314F080932A0108959091D5
:102360002B01903410F480932B010895CF93C62F46
:102370000E94AA118C2F0E94AF11CF9108950E9444
:1023800084198EEA0E94651185ED0E94651180EF27
:102390000E94651188EA0E9465118FE30E94651111
:1023A00083ED0E94651180E00E9465118DE80E9416
:1023B000651184E10E94651180E40E94651180E24C
:1023C0000E94651180E00E94651181EA0E946511FA
:1023D00088EC0E9465118AED0E94651182E10E94DD
:1023E000651181E80E9465118FEF0E94651189EDEA
:1023F0000E94651181EF0E9465118BED0E946511AD
:1024000080E20E94651184EA0E94651186EA0E94BA
:1024100065118EE20E9465118FEA0E94651160E0ED
:1024200080E00E94B61186EA80932C01109231015F
:102430001092300110922F0110922B0110922A015C
:102440000895883028F4880F880F880F80932B0117
:10245000089580912A0108958F929F92AF92BF9222
:10246000CF92DF92EF92FF920F931F93CF93DF9360
:10247000062F142F0E94B611D0912B01C0912A0172
:102480006D2F8C2F0E9407111F3F91F4902F977092
:10249000812C912C540183947501640104C0CC0CEF
:1024A000DD1CEE1CFF1C9A95D2F7482F4C2913C057
:1024B0000770C12CD12C7601C394B701A60104C0CA
:1024C000440F551F661F771F0A95D2F78A019B019B
:1024D0000095482F40236D2F8C2F0E94F910DF911B
:1024E000CF911F910F91FF90EF90DF90CF90BF9011
:1024F000AF909F908F9008953F924F925F926F920E
:102500007F928F929F92AF92BF92CF92DF92EF9283
:10251000FF920F931F93CF93DF93982E88230CF491
:10252000C6C044230CF4C3C0603408F0C0C02034DB
:1025300008F0BDC011E0812E861A820E181B140F00
:10254000462F4770762E741AE82CF12C88E090E024
:10255000841B9109E816F9067CF488E090E08E1956
:102560009F092FEF30E0590102C0B594A7948A95D6
:10257000E2F78A2D682C04C088E0682E641A8FEF79
:10258000A82EB12C02C0AA0CBB1C4A95E2F73A2C2B
:10259000672D892D0E94B6111123C9F1512C0F2EE0
:1025A000FBE2CF2EF1E0DF2EF02DCAE2D1E0A094C5
:1025B000F6014080B880642D8B2D0E9407110F3FDB
:1025C00019F4482F432902C0482F4A219B2D9F5FB1
:1025D0009883642D8B2D0E94F91053945112E8CFEB
:1025E00016C0C85F6C2F892D0E94B6111123F1F01F
:1025F0007A2CF6016081F2018081982F9F5F908391
:10260000402F0E94F9107394711681F0F2CFC72DFC
:102610006718A12C0F2EFBE2CF2EF1E0DF2EF02D5C
:102620000F2EFAE24F2EF1E05F2EF02D262D2C0F0B
:10263000E22FF0E0CF010896E816F90694F6281587
:10264000B0F5EE1AFF0A8FEF90E09C0102C0220F56
:10265000331FEA94E2F77901E0946C2F685F892DCB
:102660000E94B611112319F1B12C0F2EFBE2CF2ECF
:10267000F1E0DF2EF02DCAE2D1E09E2C9094F6011D
:10268000A080F8806A2D8F2D0E9407110F3F19F44A
:10269000482F4E2902C0482F49219F2D9F5F9883C4
:1026A0006A2D8F2D0E94F910B394B112E8CFDF91FB
:1026B000CF911F910F91FF90EF90DF90CF90BF903F
:1026C000AF909F908F907F906F905F904F903F90D2
:1026D00008952F923F924F925F926F927F928F92C6
:1026E0009F92AF92BF92CF92DF92EF92FF920F93A1
:1026F0001F93CF93DF93CDB7DEB72C970FB6F89427
:10270000DEBF0FBECDBF5C01662E298320912A015A
:102710002F8330912B013A87822F860F1AF480E89D
:10272000682E621A842F90E0079695958795959567
:102730008795959587958D839E839A859695969591
:102740009695890F893048F02D813E81285F3F4F53
:10275000A901481B51095E834D834A8457E04522F5
:102760008D819E81892B09F4FAC09A859C83712CF6
:10277000262C312C512C88E090E0FC01E419F10961
:10278000FB83EA830F2EFBE2CF2EF1E0DF2EF02D4C
:102790000AE211E06C818F810E94B6113986288689
:1027A000729CC001739C900D11247C01E218F30807
:1027B000662009F43CC09C012A0D3B1D852C3C87FA
:1027C0002B87EB85FC859490042C01C0990C0A940E
:1027D000EAF7772079F0F501EE0DFF1D2FEFE21AF1
:1027E000F20A849190E00A8002C0959587950A9438
:1027F000E2F7982A3981313039F4F6016081F80125
:1028000080810E940711982AF6016081F801808179
:10281000982F9F5F9083492D0E94F91083942B85F8
:102820003C852F5F3F4F3C872B878610CACFE2E362
:10283000F1E08081882341F0F6016081F801808118
:102840000E940711482F01C0452DF6016081F80153
:1028500080810E94F910FC81F85FFC837394872DBE
:1028600090E02D813E818217930708F493CF2230A8
:10287000310508F474C06F2F8F810E94B611272D87
:1028800030E02150310948855985249FC001259F9A
:10289000900D349F900D1124662009F43EC045012F
:1028A000880E991E65015FEFC51AD50A6A94C60C99
:1028B000D11CC80ED91E0F2EFBE2EF2EF1E0FF2E29
:1028C000F02D0AE211E088E090E05C01A418B10864
:1028D0003401F7018080F8019080682D892D0E94D5
:1028E0000711F301449150E00A2C02C05595479519
:1028F0000A94E2F7482BF981F13009F4482B892D2D
:102900008F5FF8018083682D892D0E94F910FFEFF9
:102910006F1A7F0A6C147D04E1F6809132018823DE
:1029200099F0813041F460912B0180912A010E943D
:102930000711482F0AC060912B0180912A010E9443
:102940000711482F409501C040E060912B01EAE259
:10295000F1E08081982F9F5F90830E94F9100E9480
:1029600029126A850E94B6112C960FB6F894DEBF24
:102970000FBECDBFDF91CF911F910F91FF90EF90D0
:10298000DF90CF90BF90AF909F908F907F906F908F
:102990005F904F903F902F900895BF92CF92DF921B
:1029A000EF92FF920F931F93CF93DF93C82FF62ED2
:1029B000142F88230CF47CC044230CF479C08FE3DB
:1029C000861708F475C0203408F072C0C4130AC01A
:1029D000261710F4F22E262F4C2F6F2D8C2F0E94CD
:1029E0007C1266C062130CC04C1708F45DC0402F07
:1029F0006F2D8C2F0E942C12CF5F1C17C0F758C070
:102A0000261728F4A62FB0E0A21BB10904C0A22FFC
:102A1000B0E0A61BB1091C1728F4EC2FF0E0E11B75
:102A2000F10904C0E12FF0E0EC1BF109EE24E3947E
:102A3000EA17FB070CF0E12CEE2031F0812F122F6A
:102A4000282F8C2FCF2DF82E1C1730F48F2DF22E1F
:102A5000282F8C2FC12F182FC12ECC1AF21638F424
:102A6000D22EDF18DC2DD695BB24B39406C0DF2C04
:102A7000D21ADC2DD695BB24BA941C17C8F0EE20D0
:102A800031F0402F6C2F8F2D0E942C1205C0402F4B
:102A90006F2D8C2F0E942C12DD1912F4FB0CDC0D13
:102AA000CF5F1C1760F704C08C2FC42F182F9FCF47
:102AB000DF91CF911F910F91FF90EF90DF90CF901A
:102AC000BF900895DF92EF92FF920F931F93CF93E1
:102AD000DF93E82E162FD42EF22ED02F88230CF45D
:102AE00049C044230CF446C0603408F043C08FE36F
:102AF000821708F43FC04E1500F11CC04D2F612F06
:102B00008C2F0E942C12CF5F0C17C0F7DE14D8F068
:102B100017C04D2F6F2D8C2F0E942C12CF5F0C17DA
:102B2000C0F7F11698F01CC00D2F4D2D8D2D0E9471
:102B30007C1220C0042FCE2DE1CF0E2DC42FDECF6E
:102B40000D2DCE2DE6CF0E2DCD2DE3CF0D2F212F28
:102B50004E2D6F2D8E2D0E947C12212F6F2DE4CFD4
:102B60000D2F2F2D4E2D612F8E2D0E947C122F2D7B
:102B7000612FDACFDF91CF911F910F91FF90EF90EE
:102B8000DF9008950F931F93CF93DF93182FD0E01A
:102B900000E00BC0412F6D2F8C2F0E94F910CF5FEA
:102BA000C038C1F7D85FD03411F0C02FF3CFDF9118
:102BB000CF911F910F91089580E00E94C215089552
:102BC0000F930E947C120F9108956623F4F0403415
:102BD000E0F42230D0F490932E0180932D01609385
:102BE0002F014093300150E041505109CA0199230F
:102BF0000CF4079695958795959587959595879566
:102C00008F5F809331012093320108952F923F927C
:102C10004F925F926F927F928F929F92AF92BF92EC
:102C2000CF92DF92EF92FF920F931F93CF93DF9398
:102C3000CDB7DEB72B970FB6F894DEBF0FBECDBF72
:102C400020912A012C8330912B013F8390913101F7
:102C5000805220912F01299F900111242F5F3F4F17
:102C6000829FA001839F500D1124598748874F5F91
:102C70005F4F5E834D83E0912D01F0912E01A88579
:102C8000B985EA0FFB1F54907F80B7E07B22992320
:102C900009F492C0EF81EB83312C212C88E090E085
:102CA0009C01271931093A8329830F2EF2E38F2ED5
:102CB000F1E09F2EF02D0F2EFBE2AF2EF1E0BF2EA4
:102CC000F02D0AE211E0672C752C6B818C810E943B
:102CD000B6114D815E81430D511D5B874A877A0194
:102CE00051E0E51AF108772009F44FC00F2EF1E307
:102CF000CF2EF1E0DF2EF02D832D362C672C722C99
:102D0000582EADE2B1E02D913C91EA85FB85E20FB2
:102D1000F31FE4914E2E032C01C0440C0A94EAF7F1
:102D2000552081F0F901EE0DFF1D249130E009805E
:102D300002C0359527950A94E2F7422AF601808170
:102D4000E80EF11CD4018C91813039F4F5016081D9
:102D5000D8018C910E940711482AF5016081D801A1
:102D60008C91982F9F5F9C93442D0E94F910F6013F
:102D700080812A853B85280F311D3B872A877394E4
:102D80007610BFCF762C632C352CD4018C91811119
:102D900007C0422DF5016081D8018C910E94F91085
:102DA000BB81B85FBB83339480913101381608F43E
:102DB0008CCF572C762C03C0EF81EB83312C2F81E5
:102DC000229526952695237030E0809130018295DA
:102DD00086958695837090E0FF818F0F911D28174F
:102DE000390709F469C06B818C810E94B61128856E
:102DF0003985230D311D3A832983552009F451C0AB
:102E0000312C0F2EFBE2AF2EF1E0BF2EF02D0AE2A7
:102E100011E00F2EFDE2CF2EF1E0DF2EF02D88E045
:102E200090E0AC01471951093A010F2EF2E3EF2E61
:102E3000F1E0FF2EF02D0F2EF1E38F2EF1E09F2E0B
:102E4000F02DD5012C90F8014080622D842D0E9438
:102E50000711D601ED91FC9129813A81E20FF31F10
:102E6000449150E0062C02C0559547950A94E2F72C
:102E7000482BD7019C91913009F4482B842D8F5F0A
:102E8000F8018083622D842D0E94F910D4018C9169
:102E9000E981FA81E80FF11DFA83E9833394351053
:102EA000D0CF80913201811107C040E060912B01A9
:102EB00080912A010E94F9108C818F5F6F81850DAE
:102EC0000E94B6112B960FB6F894DEBF0FBECDBF91
:102ED000DF91CF911F910F91FF90EF90DF90CF90F6
:102EE000BF90AF909F908F907F906F905F904F902A
:102EF0003F902F900895EF92FF920F931F93CF93DF
:102F0000DF93EC018881882319F190912A012091A7
:102F10002F0130E0290F311D20383105CCF42196E6
:102F20000F2EFAE2EF2EF1E0FF2EF02D0FE211E06E
:102F30000AC0F7019081F801208130E0290F311D8E
:102F4000203831052CF40E94061689918111F1CFA9
:102F5000DF91CF911F910F91FF90EF9008950F9304
:102F60001F93CF93DF93CDB7DEB72C970FB6F894AE
:102F7000DEBF0FBECDBF611571058105910521F43E
:102F800080E30E94061645C161157105810520E8A0
:102F9000920709F43EC1FE0131962CE0DF011D923B
:102FA0002A95E9F720E32B872A87298728872F830B
:102FB0002E832D832C832B832A83298399235CF4EE
:102FC0009B01AC0188279927DC01821B930BA40B82
:102FD000B50B41E003C0DC01CB0140E081303AECAD
:102FE00093073AE9A3073BE3B30794F02A812F5FE5
:102FF00001C0232F9A5CAA49BB43322F3F5F813027
:103000005AEC95075AE9A5075BE3B50794F72A83BD
:10301000811521EE920725EFA20725E0B20794F073
:103020002B812F5F01C0232F915EA54FB540322F1A
:103030003F5F811551EE950755EFA50755E0B507A0
:1030400094F72B83803826E9920728E9A207B10577
:1030500094F02C812F5F01C0232F80589649A849F6
:10306000B109322F3F5F803856E9950758E9A50727
:10307000B10594F72C83803422E492072FE0A20755
:10308000B10594F02D812F5F01C0232F805492440D
:10309000AF40B109322F3F5F803452E495075FE0C3
:1030A000A507B10594F72D83803A26E8920721E021
:1030B000A207B10594F02E812F5F01C0232F805A03
:1030C0009648A140B109322F3F5F803A56E89507F4
:1030D00051E0A507B10594F72E83803127E29207CE
:1030E000A105B1058CF02F812F5F01C0232F8051E6
:1030F0009742A109B109322F3F5F803157E295070E
:10310000A105B1059CF72F83883E23E09207A10516
:10311000B1058CF028852F5F01C0232F885E934076
:10312000A109B109322F3F5F883E53E09507A10501
:10313000B1059CF7288784369105A105B10584F077
:1031400029852F5F01C0232F84569109A109B10958
:10315000322F3F5F84369105A105B105A4F7298779
:103160008A309105A105B1057CF02A852F5F01C049
:10317000232F0A97A109B109322F3F5F8A309105A9
:10318000A105B105ACF72A87181619061A061B0601
:103190005CF45B858C019D01015011092109310905
:1031A000D9F7652F680F6B878981803361F480E0E0
:1031B0008F5FE1E0F0E0EC0FFD1FE80FF11D908163
:1031C0009033B1F301C080E0442331F08150FE011F
:1031D000E80FF11D9DE291834AE0481B20E090E05A
:1031E000E1E0F0E0EC0FFD1FE20FF11DDF01A80FA1
:1031F000B91F3C9130832F5F421790F7E1E0F0E078
:10320000EC0FFD1FE20FF11D1082CE0101960E940E
:103210007B172C960FB6F894DEBF0FBECDBFDF91A3
:10322000CF911F910F9108958F929F92AF92BF926D
:10323000CF92DF92EF92FF926B017C0149015A011C
:1032400020E030E0A9010E940D1A81110AC080E33C
:103250000E9406168EE20E94061680E30E94061661
:103260004AC020E030E040E05FECC701B6010E94B8
:103270005C1B88230CF43FC020E030E040E05FE4BA
:10328000C701B6010E940D1A8823ACF520E030E09A
:10329000A901C701B6010E940D1A88233CF4F7FA70
:1032A000F094F7F8F0948DE20E940616C701B6017B
:1032B0000E94791A0E94AF178EE20E940616C7017B
:1032C000B6010E947E1A0E94AA1A9B01AC01C70196
:1032D000B6010E94A8196B017C01C501B4010E94CE
:1032E000AA1A9B01AC01C701B6010E94601B0E9493
:1032F000791A0E94AF17FF90EF90DF90CF90BF90A8
:10330000AF909F908F900895A19AA09AA99AA89A99
:1033100011B88CE080B984E086BF089581B1887FC0
:10332000089584EA86BF06B607FEFDCF0E948E1977
:10333000089585ED86BF06B604FCFDCF089583B9D8
:1033400084E886BF06B607FEFDCF0E948E19089559
:103350005058BB27AA270ED075C166D130F06BD16B
:1033600020F031F49F3F11F41EF45BC10EF4E095A0
:10337000E7FB51C1E92F77D180F3BA1762077307D2
:103380008407950718F071F49EF58FC10EF4E0954F
:103390000B2EBA2FA02D0B01B90190010C01CA010F
:1033A000A0011124FF27591B99F0593F50F4503EBA
:1033B00068F11A16F040A22F232F342F4427585FAC
:1033C000F3CF469537952795A795F0405395C9F7C4
:1033D0007EF41F16BA0B620B730B840BBAF091507C
:1033E000A1F0FF0FBB1F661F771F881FC2F70EC01B
:1033F000BA0F621F731F841F48F4879577956795EE
:10340000B795F7959E3F08F0B3CF9395880F08F0D6
:103410009927EE0F979587950895D9D008F481E004
:1034200008950CD00FC107D140F0FED030F021F448
:103430005F3F19F0F0C0511139C1F3C014D198F3B6
:103440009923C9F35523B1F3951B550BBB27AA2725
:1034500062177307840738F09F5F5F4F220F331F97
:10346000441FAA1FA9F333D00E2E3AF0E0E830D063
:1034700091505040E695001CCAF729D0FE2F27D066
:10348000660F771F881FBB1F261737074807AB0734
:10349000B0E809F0BB0B802DBF01FF2793585F4FA9
:1034A0002AF09E3F510568F0B6C000C15F3FECF3C3
:1034B000983EDCF3869577956795B795F7959F5F6E
:1034C000C9F7880F911D9695879597F90895E1E0C2
:1034D000660F771F881FBB1F621773078407BA0721
:1034E00020F0621B730B840BBA0BEE1F88F7E0957C
:1034F000089504D06894B111D9C00895BCD088F063
:103500009F5790F0B92F9927B751A0F0D1F0660FCF
:10351000771F881F991F1AF0BA95C9F712C0B130EA
:1035200081F0C3D0B1E00895C0C0672F782F8827FD
:10353000B85F39F0B93FCCF3869577956795B39529
:10354000D9F73EF490958095709561957F4F8F4F98
:103550009F4F0895E89409C097FB3EF4909580959D
:10356000709561957F4F8F4F9F4F9923A9F0F92F49
:1035700096E9BB279395F695879577956795B795C7
:10358000F111F8CFFAF4BB0F11F460FF1BC06F5FAD
:103590007F4F8F4F9F4F16C0882311F096E911C0BF
:1035A000772321F09EE8872F762F05C0662371F0E0
:1035B00096E8862F70E060E02AF09A95660F771FF4
:1035C000881FDAF7880F9695879597F90895990FD0
:1035D0000008550FAA0BE0E8FEEF16161706E807DD
:1035E000F907C0F012161306E407F50798F0621BFE
:1035F000730B840B950B39F40A2661F0232B242BD3
:10360000252B21F408950A2609F4A140A6958FEFF1
:10361000811D811D089597F99F6780E870E060E043
:1036200008959FEF80EC089500240A94161617065B
:1036300018060906089500240A94121613061406A3
:1036400005060895092E0394000C11F4882352F006
:10365000BB0F40F4BF2B11F460FF04C06F5F7F4FBE
:103660008F4F9F4F089557FD9058440F551F59F0A5
:103670005F3F71F04795880F97FB991F61F09F3F5F
:1036800079F087950895121613061406551FF2CF88
:103690004695F1DF08C0161617061806991FF1CFD8
:1036A00086957105610508940895E894BB276627FF
:1036B0007727CB0197F908958ADF08F48FEF0895F3
:1036C0000BD0C0CFB1DF28F0B6DF18F0952309F09A
:1036D000A2CFA7CF1124EACFC6DFA0F3959FD1F3E5
:1036E000950F50E0551F629FF001729FBB27F00DB0
:1036F000B11D639FAA27F00DB11DAA1F649F662705
:10370000B00DA11D661F829F2227B00DA11D621F53
:10371000739FB00DA11D621F839FA00D611D221F0D
:10372000749F3327A00D611D231F849F600D211DF1
:10373000822F762F6A2F11249F5750408AF0E1F094
:1037400088234AF0EE0FFF1FBB1F661F771F881FDD
:1037500091505040A9F79E3F510570F05CCFA6CF25
:103760005F3FECF3983EDCF3869577956795B795C8
:10377000F795E7959F5FC1F7FE2B880F911D9695F2
:10378000879597F9089577DFE0F09E37D8F096395E
:10379000B8F49E3848F4672F782F8827985FF9CFC0
:1037A00086957795679593959539D0F3B62FB17037
:1037B0006B0F711D811D20F4879577956795939503
:1037C00002C01CC073CF882371F4772321F0985076
:1037D000872B762F07C0662311F499270DC09051CF
:1037E000862B70E060E02AF09A95660F771F881F9D
:1037F000DAF7880F9695879597F908959F3F31F0EE
:10380000915020F4879577956795B795880F911D0E
:103810009695879597F9089597FB072E16F40094CF
:1038200007D077FD09D00E945E1C07FC05D03EF44E
:10383000909581959F4F0895709561957F4F08955C
:10384000A1E21A2EAA1BBB1BFD010DC0AA1FBB1FA4
:10385000EE1FFF1FA217B307E407F50720F0A21B16
:10386000B30BE40BF50B661F771F881F991F1A9483
:1038700069F760957095809590959B01AC01BD01AD
:10388000CF010895052E97FB16F4009407D057FD3D
:103890000DD00E94201C07FC09D07EF490958095E5
:1038A000709561957F4F8F4F9F4F0895509540952C
:1038B000309521953F4F4F4F5F4F0895AA1BBB1B7B
:1038C00051E107C0AA1FBB1FA617B70710F0A61B20
:1038D000B70B881F991F5A95A9F780959095BC0141
:1038E000CD010895E199FECF9FBB8EBBE09A992749
:1038F0008DB30895A6E1B0E044E050E00C94A21C22
:10390000A8E1B0E042E050E00C94A21C262FE1991F
:10391000FECF9FBB8EBB2DBB0FB6F894E29AE19A07
:103920000FBE01960895242F0E94871C252F0E9408
:10393000871C0C949B1C0E94861C272F0C94871CB0
:10394000DC01CB01FC01E199FECF06C0FFBBEEBB61
:10395000E09A31960DB20D9241505040B8F708955B
:04396000F894FFCF09
:1039640001609650BE000400043333A33F33333365
:103974003F0000803F06FA0130004469675F5057FA
:103984004D004172725F50574D005765656C20447D
:1039940000526174696F004D61676E657473005302
:1039A400646F776E2056004D61782073706565648E
:1039B400004465672F6B6D6800534D207374657008
:1039C400730043616C696272617465006F646F6D4A
:1039D40065746572207265736574006C6F61642030
:1039E40064656661756C74730005060A020100085B
:0639F40004070E010800AB
:00000001FF
