S00E00007370656564332E73726563D2
S11300000C94B0080C94CD080C949B090C94CD0866
S11300100C9469090C94CD080C94CD080C94CD086B
S11300200C94CD080C9480090C9431090C94CD08DF
S11300300C94CD080C94CD080C94CD080C94CD08E8
S11300400C94CD080C94CD080C94CD080C94CD08D8
S11300500C94CD081200FE7F00C0FFFF07F8FFFFDD
S11300601FFC01803F3E00007C0E0000700F00006A
S1130070F0070000E0070000E0070000E00F0000C8
S1130080F00E0000703E00007CFC01803FF8FFFF92
S11300901FE0FFFF0300FE7F00000000001200FECF
S11300A07F00C0FFFF07F8FFFF1FFC01803F3E00F9
S11300B0007C0E0000700F0000F0070000E0070055
S11300C000E0070000E00F0000F00E0000703E00AA
S11300D0007CFC01803FF8FFFF1FE0FFFF0300FEF0
S11300E07F00000000001200FE7F00C0FFFF07F841
S11300F0FFFF1FFC01803F3E00007C0E0000700FDC
S11301000000F0070000E0070000E0070000E00F37
S11301100000F00E0000703E00007CFC01803FF8FF
S1130120FFFF1FE0FFFF0300FE7F0000000000123E
S113013000FE7F00C0FFFF07F8FFFF1FFC01803FA8
S11301403E00007C0E0000700F0000F0070000E08D
S1130150070000E0070000E00F0000F00E00007050
S11301603E00007CFC01803FF8FFFF1FE0FFFF031F
S113017000FE7F00000000001200FE7F00C0FFFFB1
S113018007F8FFFF1FFC01803F3E00007C0E0000CB
S1130190700F0000F0070000E0070000E007000017
S11301A0E00F0000F00E0000703E00007CFC0180B7
S11301B03FF8FFFF1FE0FFFF0300FE7F0000000089
S11301C0001200FE7F00C0FFFF07F8FFFF1FFC01C5
S11301D0803F3E00007C0E0000700F0000F007001E
S11301E000E0070000E0070000E00F0000F00E0050
S11301F000703E00007CFC01803FF8FFFF1FE0FF21
S1130200FF0300FE7F00000000001200FE7F00C01C
S1130210FFFF07F8FFFF1FFC01803F3E00007C0E3C
S11302200000700F0000F0070000E0070000E00786
S11302300000E00F0000F00E0000703E00007CFCA7
S113024001803FF8FFFF1FE0FFFF0300FE7F000077
S11302500000001200FE7F00C0FFFF07F8FFFF1F31
S1130260FC01803F3E00007C0E0000700F0000F097
S1130270070000E0070000E0070000E00F0000F0C6
S11302800E0000703E00007CFC01803FF8FFFF1F61
S1130290E0FFFF0300FE7F00000000001200FE7F6D
S11302A000C0FFFF07F8FFFF1FFC01803F3E000076
S11302B07C0E0000700F0000F0070000E007000053
S11302C0E0070000E00F0000F00E0000703E0000A8
S11302D07CFC01803FF8FFFF1FE0FFFF0300FE7F6F
S11302E000000000001200FE7F00C0FFFF07F8FFBF
S11302F0FF1FFC01803F3E00007C0E0000700F00D9
S113030000F0070000E0070000E0070000E00F0035
S113031000F00E0000703E00007CFC01803FF8FFFE
S1130320FF1FE0FFFF0300FE7F000000000012003B
S1130330FE7F00C0FFFF07F8FFFF1FFC01803F3E68
S113034000007C0E0000700F0000F0070000E007C2
S11303500000E0070000E00F0000F00E0000703E17
S113036000007CFC01803FF8FFFF1FE0FFFF03005B
S1130370FE7F00000000001200FE7F00C0FFFF07A8
S1130380F8FFFF1FFC01803F3E00007C0E00007060
S11303900F0000F0070000E0070000E0070000E0A5
S11303A00F0000F00E0000703E00007CFC01803F56
S11303B0F8FFFF1FE0FFFF0300FE7F0000000000C6
S11303C01200FE7F00C0FFFF07F8FFFF1FFC018043
S11303D03F3E00007C0E0000700F0000F00700009C
S11303E0E0070000E0070000E00F0000F00E00004E
S11303F0703E00007CFC01803FF8FFFF1FE0FFFF20
S11304000300FE7F00000000001200FE7F00C0FF1A
S1130410FF07F8FFFF1FFC01803F3E00007C0E0039
S113042000700F0000F0070000E0070000E0070084
S113043000E00F0000F00E0000703E00007CFC01A4
S1130440803FF8FFFF1FE0FFFF0300FE7F00000076
S1130450000009000000000000000000000000008F
S11304600000F0000000F0000000F00000000000B8
S11304700000000000000000000000000000000078
S11304800000000000000000000000000000000068
S113049000000000000000000000001200FE7F00C9
S11304A0C0FFFF07F8FFFF1FFC01803F3E00007CF8
S11304B00E0000700F0000F0070000E0070000E0ED
S11304C0070000E00F0000F00E0000703E00007C0A
S11304D0FC01803FF8FFFF1FE0FFFF0300FE7F00E9
S11304E0000000001200FE7F00C0FFFF07F8FFFFBE
S11304F01FFC01803F3E00007C0E0000700F0000D6
S1130500F0070000E0070000E0070000E00F000033
S1130510F00E0000703E00007CFC01803FF8FFFFFD
S11305201FE0FFFF0300FE7F000000000012000038
S113053000000000000000000000000E00000007A2
S1130540000080030000C0030000E0010000F80088
S11305500000FEFFFFFFFFFFFFFFFFFFFFFF0000A4
S11305600000000000000000000000000000000087
S113057000000000000012C00100E0F00100F8FCDF
S11305800100FE3C0000FF1E0080EF0F00C0E707E3
S113059000E0E10700F0E0070078E007003CE00736
S11305A0001FE00F800FE01EC007E03EF803E0FCF0
S11305B0FF00E0F07F00E0C00F00E0000000001248
S11305C0C0008003F000800FFC00801F3E00003E4E
S11305D01E0000780F0000F007E000E007E000E0F4
S11305E007E000E007E000E00FF000E00EF8017023
S11305F03EFC0378FCBF073EF89FFF1FE007FE0F99
S11306000000F80300000000120000F0000000FCED
S1130610000000FF0000C0FF0000F0E70000F8E168
S113062000007EE000801FE000E007E000F801E049
S1130630007E00E000FFFFFFFFFFFFFFFFFFFFFF63
S1130640FF0000E0000000E0000000E0000000E027
S1130650001200C0800300FF800FF8FF811FFFFF1E
S1130660003EFF780078073800F0071C00E0071C04
S113067000E0071C00E0071C00E0073C00F007381E
S113068000700778007C07F0013F07E0FF1F07C0F8
S1130690FF070000FE01000000001200FC7F00C004
S11306A0FFFF07F0FFFF0FF880073E3CC001781EF4
S11306B0E000700E7000F0077000E0077000E007C3
S11306C07000E0077000E00FF000F00EE001783EEB
S11306D0C0073EFC80FF1FF800FF0FE000FC010094
S11306E000000012070000000700000007000000DF
S11306F007000000070000F80700C0FF0700FCFF28
S11307000780FF0707E03F0007F8070007FE000027
S1130710871F0000E7070000F70100007F000000CA
S11307201F0000000F00000000000000120000F88D
S113073003E007FE0FF81FFF1FFCBF0F3E3EFC0344
S1130740780EF0017007E000E007E000E007E00049
S1130750E007E000E00FE000E00EF001703EFC0373
S113076078FCBF0F3EF81FFF1FE007FE0F0000F8E4
S1130770030000000012C03F0007F0FF001FF8FF55
S1130780013F7CE0037C1E8007700F000FF00F0018
S11307900EE007000EE007000EE007000EE0070081
S11307A00E700E0007781E80033C7CE0811FF0FF72
S11307B0FF0FE0FFFF0300FE3F0000000000000009
S11307C00000000000000000000000000000000025
S11307D0000080C0E0F0F8FCFEFFFFFF0000000016
S11307E00000000000000000000000000000000005
S11307F000000000000000000000000000000000F5
S113080000000000000000000000000000000000E4
S113081000000000000000000000000000000000D4
S113082000000000000080C0E0F0F8FCFEFFFFFFC5
S1130830FFFFFFFFFFFFFFFFC0C0C0C0C0C0C0C0BC
S1130840C0C0C0C0C0C0C0C0C0C0C0C0C0C0C0C0A4
S1130850C0C0C0C0C0C0C0C0C0C0C0C0C0C0C0C094
S1130860C0C0C0C0C0C0C0C0C0C0C0C0C0C0C0C084
S1130870C0C0C0C0C0C00000000080C0E0F0F8FCF0
S1130880FEFFFFFFFFFFFFFFFFFFFFFFFFFFFFFF75
S1130890FFFFFFFFFFFFFFFFFFFFFFFFFFFFFFFF64
S11308A0FFFFFFFFFFFFFFFFFFFFFFFFFFFFFFFF54
S11308B0FFFFFFFFFFFFFFFFFFFFFFFFFFFFFFFF44
S11308C0FFFFFFFFFFFFFFFFFFFFFFFFFFFFFFFF34
S11308D0FFFF081C3E7FFFFFFFFFFFFFFFFFFFFF3F
S11308E0FFFFFFFFFFFFFFFFFFFFFFFFFFFFFFFF14
S11308F0FFFFFFFFFFFFFFFFFFFFFFFFFFFFFFFF04
S1130900FFFFFFFFFFFFFFFFFFFFFFFFFFFFFFFFF3
S1130910FFFFFFFFFFFFFFFFFFFFFFFFFFFFFFFFE3
S1130920FFFFFFFFFFFFFFFFFFFFFFFFFFFF0000D1
S11309300000000103070F1F3F7FFFFFFFFFFFFFC2
S1130940FFFFFFFFFFFFFFFFFFFFFFFFFFFFFFFFB3
S1130950FFFFFFFFFFFFFFFFFFFFFFFFFFFFFFFFA3
S1130960FFFFFFFFFFFFFFFFFFFFFFFFFFFFFFFF93
S1130970FFFFFFFFFFFFFFFFFFFFFFFFFFFFFFFF83
S1130980FFFFFFFFFFFFFFFFFFFF0000000000006D
S1130990000000000000000103070F1F3F7FFFFF5E
S11309A0FFFFFFFFFFFFFFFF010101010101010143
S11309B00101010101010101010101010101010123
S11309C00101010101010101010101010101010113
S11309D00101010101010101010101010101010103
S11309E001010101010100000000000000000000FD
S11309F000000000000000000000000103070F1FBA
S1130A003F7F7F7F00000000000000000000000026
S1130A1000000000000000000000000000000000D2
S1130A2000000000000000000000000000000000C2
S1130A3000000000000000000000000000000000B2
S1130A4000000000000000000000000000000000A2
S1130A500000000000000000000000000000000092
S1130A600000000000000000000000000000000082
S1130A700000000000000000000000000000000072
S1130A80FFFFFFFEFCF8F0E0C08000000000000063
S1130A900000000000000000000000000000C0C0D2
S1130AA0C0C0C0C0C0C0C0C0C0C0C0C0C0C0C0C042
S1130AB0C0C0C0C0C0C0C0C0C0C0C0C0C0C0C0C032
S1130AC0C0C0C0C0C0C0C0C0C0C0C0C0C0C0C0C022
S1130AD0C0C0C0C0C0C0C0C0C0C0C0C0FFFFFFFF16
S1130AE0FFFFFFFFFFFFFFFEFCF8F0E0C080000007
S1130AF000000000000000000000FFFFFFFFFFFFF8
S1130B00FFFFFFFFFFFFFFFFFFFFFFFFFFFFFFFFF1
S1130B10FFFFFFFFFFFFFFFFFFFFFFFFFFFFFFFFE1
S1130B20FFFFFFFFFFFFFFFFFFFFFFFFFFFFFFFFD1
S1130B30FFFFFFFFFFFFFFFFFFFFFFFFFFFFFFFFC1
S1130B40FFFFFFFFFFFFFFFFFFFFFFFEFCF8F0E0EA
S1130B50C08000000000FFFFFFFFFFFFFFFFFFFF5B
S1130B60FFFFFFFFFFFFFFFFFFFFFFFFFFFFFFFF91
S1130B70FFFFFFFFFFFFFFFFFFFFFFFFFFFFFFFF81
S1130B80FFFFFFFFFFFFFFFFFFFFFFFFFFFFFFFF71
S1130B90FFFFFFFFFFFFFFFFFFFFFFFFFFFFFFFF61
S1130BA0FFFFFFFFFFFFFFFFFFFFFFFFFFFF7F3E92
S1130BB01C08FFFFFFFFFFFFFFFFFFFFFFFFFFFF1B
S1130BC0FFFFFFFFFFFFFFFFFFFFFFFFFFFFFFFF31
S1130BD0FFFFFFFFFFFFFFFFFFFFFFFFFFFFFFFF21
S1130BE0FFFFFFFFFFFFFFFFFFFFFFFFFFFFFFFF11
S1130BF0FFFFFFFFFFFFFFFFFFFFFFFFFFFFFFFF01
S1130C00FFFF7F3F1F0F07030100000000000101E9
S1130C1001010101010101010101010101010101C0
S1130C2001010101010101010101010101010101B0
S1130C3001010101010101010101010101010101A0
S1130C40010101010101010101010101FFFFFFFF98
S1130C50FFFFFFFFFFFF7F3F1F0F0703010000009F
S1130C600000000000000000000000000000000080
S1130C700000000000000000000000000000000070
S1130C800000000000000000000000000000000060
S1130C900000000000000000000000000000000050
S1130CA000000000000000007F7F7F3F1F0F07034C
S1130CB0010000000000000000000000000000002F
S1130CC0000000000000008080808084FCFEFEFEA6
S1130CD0FEFEFEFEFEFC000000000000000000001E
S1130CE080C0E0F0F8FCFCFEFEFFFFFFFFFFFFFF0B
S1130CF0FFFFFFFFFFFFFFFFFFFEFEFCFCF8F0E03D
S1130D00C08000000000000000000000FCFEFEFEA9
S1130D10FEFEFEFEFEFC8080808080001F3F3F3F81
S1130D203F3F7FFFFFFFFFFFFFFFFFF9F0E0C080C1
S1130D300000000000FEFFFFFFFFFFFFFFFFFFFFBB
S1130D40FFFFFFFFFFFFFFFFFFFFFFFFFFFFFFFFAF
S1130D50FFFFFFFFFFFFFFFFFE000000000080C059
S1130D60E0F0F9FFFFFFFFFFFFFFFF7F3F3F3F3F43
S1130D703F1F00000000000000000103070F1F3F99
S1130D807F7F7F7F7F7F7F7E0000007FFFFFFFFFED
S1130D90FF3F1F1F1F1F1F1F1F3FFFFFFFFFFFFFFF
S1130DA03F1F1F1F1F1F1F1F3FFFFFFFFFFF7F006E
S1130DB000007E7F7F7F7F7F7F7F3F1F0F070301C0
S1130DC0000000000000000000000000000000001F
S1130DD0000000000080C0E0F0F0F0F0F0F0F0F06F
S1130DE000000101FFFFFFF0E0E0E0E0E0E0E0F000
S1130DF00F0F0F0F0F0FF0E0E0E0E0E0E0E0F0FF96
S1130E00FFFF01010000F0F0F0F0F0F0F0F0E0C0BE
S1130E10800000000000000000000000000000004E
S1130E20C0E0E0E0E0E0F0F8FCFEFFFFFFFFFFFFC2
S1130E307F3F1F0F0703000000000303031F1F1F52
S1130E40FFFFFFFFFFFFFCF8F8F8F8FCFFFFFFFFD0
S1130E50FFFF1F1F1F0303030000000003070F1FF2
S1130E603F7FFFFFFFFFFFFFFEFCF8F0E0E0E0E064
S1130E70E0C000000000070F0F0F0F0FFFFFFFFF80
S1130E80FFFFFFFFFFFC0000000000000000000067
S1130E900000003E7E7EF0F0E087878303030303B7
S1130EA00303838787E0F0F07E7E3E0000000000AD
S1130EB00000000000000000FCFFFFFFFFFFFFFF39
S1130EC0FFFF0F0F0F0F0F070000000000000000CE
S1130ED00000000101010101010101000000000006
S1130EE000000000000000000000000000010307F3
S1130EF00F0F0F0F0F0F0F0F0F0F0703010000004D
S1130F0000000000000000000000000000000001DC
S1130F1001010101010101000000000000000000C6
S1130F200500000000000500005F00000500070048
S1130F30070005147F147F1405242A7F2A12052331
S1130F40130864620536495620500508070300005B
S1130F5005001C224100050041221C000514083E26
S1130F6008140508083E08080500B07000000508CC
S1130F700808080805006060000005201008040245
S1130F80053E5149453E0500427F400005724949EE
S1130F904946052141494D33051814127F10052790
S1130FA045454539053C4A4949310541211109075F
S1130FB005364949493605464949291E05000014A4
S1130FC00000050040340000050814224100051407
S1130FD014141414054122140800050201590906C9
S1130FE0053E415D594E057C1211127C057F49492D
S1130FF04936053E41414122057F4141413E057F3D
S113100049494949057F09090909053E4141517387
S1131010057F0808087F0500417F41000520404105
S11310203F01057F08142241057F40404040057F71
S1131030020C027F057F0408107F053E4141413EBA
S1131040057F09090906053E4151215E057F0919FD
S113105029460526494949320501017F0101053F19
S11310604040403F051F2040201F053F4038403F7F
S113107005631408146305030478040305615149E6
S1131080454305007F414100050204081020050086
S113109041417F00050402010204054040404040F4
S11310A005070B000000052054547840057F2844B0
S11310B0443805384444442805384444287F0538D6
S11310C0545454180500087E09020518A4A49C78F9
S11310D0057F080404780500447D40000520404055
S11310E03D00057F102844000500417F4000057C39
S11310F004780478057C08040478053844444438AA
S113110005FC182424180518242418FC057C08045C
S113111004080548545454240504043F4424053C5D
S11311204040207C051C2040201C053C4030403CB5
S1131130054428102844054C9090907C0544645440
S11311404C44050008364100050000770000050006
S11311504136080005040204080405007F417F00AD
S113116011241FBECFE5D8E0DEBFCDBF10E0A0E65E
S1131170B0E0ECE4FAE302C005900D92A63FB1079B
S1131180D9F725E0A6EFB0E001C01D92A333B20762
S1131190E1F70E9433110C94241D0C9400009091EB
S11311A00B01992381F090911F019F5F90931F0180
S11311B020911D0130911E012F5F3F4F30931E017E
S11311C020931D010FC090911F01915090931F0116
S11311D020911D0130911E012150310930931E01CF
S11311E020931D0181110EC080911F0188231CF4DE
S11311F083E080931F0180911F01843034F11092A9
S11312001F0123C08130E1F480911F0188231CF465
S113121087E080931F0180911F0188302CF0109289
S11312201F0102C08BBB0895E0911F018BB3807F27
S11312300E2E000CFF0BE751FF4F9081892BF2CF4C
S113124080911F018BB3807FEDCFE0911F018BB3A1
S1131250807F0E2E000CFF0BEF50FF4F9081892BE7
S1131260E1CF1F920F920FB60F9211242F933F9349
S11312704F935F936F937F938F939F93AF93BF939A
S1131280EF93FF93809160000E94CF0820911D018D
S113129030911E0180910F01909110012817390798
S11312A039F41092200113BE1CBE89B78D7F89BF0B
S11312B0FF91EF91BF91AF919F918F917F916F912A
S11312C05F914F913F912F910F900FBE0F901F9000
S11312D018951F920F920FB60F9211248F939F931C
S11312E08091270190912801019690932801809381
S11312F027019F918F910F900FBE0F901F9018950B
S11313001F920F920FB60F9211248F939F93809187
S11313100E01882349F08091090190910A010196F8
S113132090930A01809309019F918F910F900FBEB2
S11313300F901F9018951F920F920FB60F921124C1
S11313402F933F934F935F938F939F93AF93BF9349
S113135080910D01811108C089B7806889BF14BCD0
S113136081E080930D012CC0409127015091280108
S113137024B534E1349FC001359F900D1124820FB0
S1131380911D909326018093250114BC109228018D
S11313901092270181E08093770080912101909140
S11313A02201A0912301B09124010196A11DB11D38
S11313B08093210190932201A0932301B0932401EF
S11313C0BF91AF919F918F915F914F913F912F91D9
S11313D00F900FBE0F901F9018958F929F92AF920F
S11313E0BF92CF92DF92EF92FF920F931F93CF930E
S11313F0DF9380910E018111FAC00E9426160FEF2F
S113140027E144E26BE08AE00E94AC1524E146E265
S11314106EE085E20E94AC158091FA009091FB0089
S11314208936910534F025E140E16DE08CE00E94BD
S11314302A168091FA009091FB008E3691053CF0BB
S11314400FEF25E146E16DE082E10E942A168091CA
S1131450FA009091FB00833791053CF00FEF25E1F2
S11314604CE16DE088E10E942A168091FA00909187
S1131470FB00883791053CF00FEF25E142E26DE077
S11314808EE10E942A166FE08BE20E94001220E097
S113149048E065E080E29FE00E942F166091FA0028
S11314A07091FB00072E000C880B990B0E940E1BF9
S11314B020E030E040E251E40E94641A2AE030E087
S11314C040E050E00E945E1985EA90E00E94C51752
S11314D020E040E262E184E590E00E942F166FE193
S11314E084E00E9400128090050190900601A09073
S11314F00701B090080184E688169104A104B104A0
S113150070F0C501B4012AE030E040E050E00E94F0
S1131510911C211531054105510529F45FC024E6CC
S113152030E040E050E0C0E00F2EFAE0CF2ED12CA6
S1131530E12CF12CF02DCA01B901A70196010E94FA
S1131540B31CCF5F2115310541055105A1F784E690
S113155088169104A104B10408F041C004E010E02D
S1131560C0E0D0E088E790E00E94C5172196C0173C
S1131570D107C4F3609105017091060180910701C0
S1131580909108010E940C1B20E030E048EC52E4EA
S11315900E94641A2AE030E040E050E00E945E19A4
S11315A020E048E065E080E29FE00E942F1660E0C2
S11315B080E40E94001260911101709112018091E7
S11315C01301909114012AE030E040E050E00E94C1
S11315D05E190E94C0110E94C01109C0C0E006E05B
S11315E010E00C1B11091016110624F6B9CFDF9177
S11315F0CF911F910F91FF90EF90DF90CF90BF900C
S1131600AF909F908F90089580916000811119C0D0
S11316102091FD003091FE004091FF0050910001A7
S11316206091110170911201809113019091140144
S11316300E94641A0E94D61A7093100160930F01DD
S11316401AC08130C1F42091FD003091FE00409118
S1131650FF0050910001609111017091120180917D
S11316601301909114010E94641A0E94D61A709377
S1131670100160930F0180911D0190911E01209132
S11316800F0130911001821B930B181619061CF4DC
S113169010920B0105C021E020930B01892B71F0FE
S11316A081E08093200183B78D6083BF80916200C5
S11316B08CBF89B7826089BF0E94ED090895CF93DA
S11316C08091270190912801893E9340B4F089B715
S11316D08F7789BF14BC10922801109227011092B1
S11316E026011092250110921101109212011092FC
S11316F013011092140110920D0180917700882338
S113170009F441C08091250190912601892BD9F1DA
S1131710809125019091260181399140A4F1609135
S1131720250170912601072E000C880B990B0E944D
S11317300E1B2091190130911A0140911B01509107
S11317401C010E94C31B9B01AC0160E070E080E8B7
S11317509FE30E94641A26E636E646E650E40E94B9
S1131760C31B20911501309116014091170150912E
S113177018010E94C31B609311017093120180939E
S1131780130190931401C09164006C2F70E080E009
S113179090E00E940E1B20911101309112014091A2
S11317A01301509114010E945F1A882374F46C2F62
S11317B070E080E090E00E940C1B60931101709334
S11317C01201809313019093140110927700CF912A
S11317D00895B59B08C0B69B06C0B79B04C0109281
S11317E0FC0080E00895B59913C08091FC0081113C
S11317F03DC02FEF80E792E0215080409040E1F718
S113180000C00000B59904C081E08093FC002EC0A4
S1131810B69913C08091FC00811126C02FEF80E798
S113182092E0215080409040E1F700C00000B6995A
S113183004C082E08093FC0017C0B79912C0809165
S1131840FC0081110EC02FEF80E792E02150804010
S11318509040E1F700C00000B79903C083E0809393
S1131860FC008091FC00089586B3FBCFB69BFCCFAF
S1131870E4CF8091F700882314F41092F70080914C
S1131880F600863044F08091F7008F5F8093F70074
S11318901092F60019C088235CF48091F7008150FF
S11318A08093F70095E09093F600823069F408C0C5
S11318B08091F700823041F48091F600823024F068
S11318C01092F7001092F6000E9426168091F600FE
S11318D0880F880F880F2FE0280F67E0680F0FEF3D
S11318E045E080E00E942A168091F600880F880F58
S11318F0880F2FE0280F67E0680F4FE78AE70E9400
S11319002A166091F600660F660F660F6A5F262F2F
S11319104FE780E00E9417156091F600660F660F8E
S1131920660F605F262F4FE780E00E94171521E0C5
S113193048E065E080E29FE00E942F168091F70066
S1131940811194C08AE00E94F41181E00E946B121C
S11319508AE790E00E94C5178BE40E94F41160911D
S113196065007091660080E090E00E94F9178AE0BB
S11319700E94F41182E00E946B1282E890E00E94BF
S1131980C5178BE40E94F4116091670070916800A0
S113199080E090E00E94F9178AE00E94F41183E04D
S11319A00E946B128AE890E00E94C5178BE40E94A3
S11319B0F41160916D0070916E0080916F009091B0
S11319C0700024E630E040E050E00E945E198AE0B6
S11319D00E94F41184E00E946B1281E990E00E945D
S11319E0C5178BE40E94F41160917100709172002C
S11319F0809173009091740024E630E040E050E060
S1131A000E945E198AE00E94F41185E00E946B1224
S1131A1087E990E00E94C5178BE40E94F41160915D
S1131A20750070E080E090E00E94F9178AE00E945F
S1131A30F41186E00E946B128FE990E00E94C517B2
S1131A408BE40E94F4116091630070E080E090E008
S1131A500E940E1B20E030E040E251E40E94641A30
S1131A602AE030E040E050E00E945E198091F700E7
S1131A70813009F064C08AE00E94F41181E00E9480
S1131A806B1287EA90E00E94C5178BE40E94F41160
S1131A906091640070E080E090E00E94F9178AE0B1
S1131AA00E94F41182E00E946B1281EB90E00E948C
S1131AB0C5178BE40E94F4116091690070916A006B
S1131AC080916B0090916C0028EE33E040E050E090
S1131AD00E945E198AE00E94F41183E00E946B1256
S1131AE089EB90E00E94C5178BE40E94F411609189
S1131AF0610070E080E090E00E94F9178AE00E94A3
S1131B00F41184E00E946B128CEB90E00E94C517E4
S1131B108BE40E94F4116091620070E080E090E038
S1131B200E94F9178AE00E94F41185E00E946B126A
S1131B3082EC90E00E94C5178BE40E94F41180911E
S1131B40F7008230A1F48AE00E94F41181E00E943F
S1131B506B128CEC90E00E94C5178AE00E94F4118D
S1131B6082E00E946B128BED90E00E94C5170E94E8
S1131B70C0110E94E90B8823E1F3823031F4809193
S1131B80F6008F5F8093F60007C0833029F48091BC
S1131B90F60081508093F6000E94E90B8111FCCF7E
S1131BA00E94390C80916000811104C02091610071
S1131BB030E005C02091610030E0220F331F109205
S1131BC01E0110921D0110921F01C9019595879560
S1131BD0959587959093100180930F0181E08093F0
S1131BE00B018093200183B78D6083BF80916200D5
S1131BF08CBF89B7826089BF809120018111FCCF9D
S1131C004FEF82E597E0415080409040E1F700C0FB
S1131C10000030931E0120931D01109210011092B8
S1131C200F0110920B0181E08093200183B78D6036
S1131C3083BF809162008CBF89B7826089BF809125
S1131C4020018111FCCF10921E0110921D011092EF
S1131C50100110920F0181E080930C010895CF923E
S1131C60DF92EF92FF922BED3FE049E450E4609164
S1131C706D0070916E0080916F00909170000E94D1
S1131C80C31B6B017C016091750070E080E090E003
S1131C900E940E1B9B01AC01C701B6010E94641A8D
S1131CA060931501709316018093170190931801A6
S1131CB08DEB97E3A6E8B7E38093190190931A019B
S1131CC0A0931B01B0931C01D39AD09AD29AD19AB3
S1131CD08C9A8D9ADB9AD89AC59AC69AC79A379ADB
S1131CE0309A319A329A88E090E00E94E61C882368
S1131CF009F46FC060E088E090E00E94FA1C6091F3
S1131D0067007091680080E190E00E940F1D60916F
S1131D1065007091660088E190E00E940F1D60915B
S1131D20640080E290E00E94FA1C6091630088E203
S1131D3090E00E94FA1C6091620080E390E00E94AF
S1131D40FA1C6091610088E390E00E94FA1C6091A3
S1131D50760080E490E00E94FA1C6091750088E4AB
S1131D6090E00E94FA1C6091600080E590E00E947F
S1131D70FA1C40916D0050916E0060916F0070915B
S1131D80700088E590E00E94071D40917100509119
S1131D907200609173007091740080E690E00E947C
S1131DA0071D4091690050916A0060916B00709129
S1131DB06C0088E690E00E94071D4091210150913B
S1131DC02201609123017091240180E790E00E9438
S1131DD0071D80E190E00E94F41C909368008093BA
S1131DE0670088E190E00E94F41C90936600809361
S1131DF0650080E290E00E94E61C8093640088E223
S1131E0090E00E94E61C8093630080E390E00E94CF
S1131E10E61C8093620088E390E00E94E61C8093B5
S1131E20610080E490E00E94E61C8093760088E4E0
S1131E3090E00E94E61C8093750080E590E00E948B
S1131E40E61C8093600088E590E00E94EE1C60939D
S1131E506D0070936E0080936F009093700080E625
S1131E6090E00E94EE1C6093710070937200809366
S1131E7073009093740088E690E00E94EE1C6093D7
S1131E80690070936A0080936B0090936C0080E704
S1131E9090E00E94EE1C60932101709322018093D4
S1131EA023019093240185B58E6085BD84E183BDB3
S1131EB083EA8FBD8BE08EBD8091670090916800AE
S1131EC09BBD8ABD809165009091660099BD88BDD7
S1131ED080916000811122C06091610070E080E017
S1131EE090E00E940E1B9B01AC0160E070E084EB6B
S1131EF093E40E94641A2091690030916A00409131
S1131F006B0050916C000E94641A6093FD00709302
S1131F10FE008093FF009093000123C0813009F5F7
S1131F206091610070E080E090E00E940E1B9B01D4
S1131F30AC0160E070E084E393E40E94641A2091B1
S1131F40690030916A0040916B0050916C000E94CE
S1131F50641A6093FD007093FE008093FF009093D9
S1131F6000010E9409120E942616809176000E94A8
S1131F70EA110E94C011789480910C01811102C071
S1131F800E94D20D85B7886085BF8BB780688BBFF0
S1131F90FF90EF90DF90CF900895882381F00E9406
S1131FA0261667E086E10E9400122FEF47E36CE5F6
S1131FB082E49AE00E94B3130E94C01108950E9423
S1131FC0261667E086E10E9400122FEF47E36CE5D6
S1131FD08EEB97E00E94B3130E94C01108950E94F3
S1131FE0261667E08BE10E9400122FEF44E366E5BA
S1131FF086EC9CE00E94B3130E94C0110895B4992A
S11320000CC0B39B0AC080E00E94CD0F81E0809396
S11320100E0110920A0110920901B3990FC0B49BEA
S11320200DC081E00E94CD0F81E080930E011092DB
S11320300A0110920901B49B31C033C0B4990CC099
S1132040B3990AC00E94EF0F81E080930E011092B1
S11320500A011092090125C080910E01882319F10B
S1132060B39B09C0B49B07C00E9426160E94C011EE
S113207089B7846089BF8091090190910A018D32EA
S1132080914088F010920E0110920A0110920901F9
S113209089B78B7F89BF0E94ED090895B399E0CF7A
S11320A0D1CFB399DFCF089587B970E0161617061C
S11320B08CF420E030E080E090E0369A3699FECF50
S11320C044B155B1840F951F2F5F3F4F2617370733
S11320D0A1F702C080E090E00E947D1CCB0108952E
S11320E00F931F936AE084E00E945410BC01990F7F
S11320F0880B990B0E940E1B2AE939E94CEC52E437
S11321000E94641A20E030E040E250E40E94C31BC5
S113211020E030E040EC50E40E94C31B0E94D61A39
S11321207093F9006093F8002091630030E0621727
S113213073070CF047C0F8941FBC1EBCDB9AD89AF6
S1132140DA9AD99A40912101509122016091230198
S11321507091240180E790E00E94071D8091630044
S113216090E02091F8003091F9002817390744F5E0
S11321706AE084E00E945410BC01990F880B990B0B
S11321800E940E1B2AE939E94CEC52E40E94641ABD
S113219020E030E040E250E40E94C31B20E030E045
S11321A040EC50E40E94C31B0E94D61A7093F900BD
S11321B06093F8002091630030E062177307C4F263
S11321C00E9433118091F8009091F9002091FA0057
S11321D03091FB008217930731F09093FB008093BA
S11321E0FA000E94ED096091210170912201809111
S11321F02301909124010E940C1B0E94301C209109
S113220015013091160140911701509118010E9457
S1132210C31B20E030E040E251E40E94641A0E94B3
S1132220DD1A60930101709302018093030190937E
S113223004010091050110910601209107013091DC
S11322400801601771078207930751F06093050135
S11322507093060180930701909308010E94ED0991
S11322601F910F9108950E942F0E0E9470100E94DA
S11322705F0B0E94040B0E94FF0F0E94E90B88234E
S1132280A1F30E94390C66956695669590E8699F5E
S1132290B0011124680F711DFB01ED5CFE4F4083FA
S11322A0089566956695669590E8699FB001112436
S11322B0680F711DFB01ED5CFE4F80810895FF9254
S11322C00F931F93CF93DF93C82F062F172FF42E4E
S11322D00E94DB190E94D819883031F0803121F036
S11322E081E08093290133C088E70E94E9190E94A4
S11322F0D819883131F0803221F081E080932901AE
S113230026C08C2F0E94E9190E94D819883219F42A
S1132310F11007C01AC08033D9F381E080932901FA
S113232016C0C02FD12F8E010F5F1F4FFA940F0DCF
S1132330111D89910E94E9190E94D819883211F05F
S1132340803319F4C017D107A1F7109229010E9414
S1132350E319DF91CF911F910F91FF900895CF93CF
S1132360DF931F92CDB7DEB7898341E0BE016F5F73
S11323707F4F80E00E945F110F90DF91CF9108950D
S1132380CF93DF9381E20E94AF1180E00E94AF11EE
S11323908FE70E94AF1182E20E94AF1180E00E9499
S11323A0AF1187E00E94AF11C0E0D0E0BE0162959A
S11323B07295707F7627607F76276D5C7E4F40E153
S11323C080E40E945F112196C034D10579F7DF9132
S11323D0CF910895CF93C82F81E80E94AF118C2F1D
S11323E00E94AF11CF910895882314F080932A019D
S11323F0089590912B01903410F480932B0108954B
S1132400CF93C62F0E94F4118C2F0E94F911CF9103
S113241008950E94CE198EEA0E94AF1185ED0E94A4
S1132420AF1180EF0E94AF1188EA0E94AF118FE3D1
S11324300E94AF1183ED0E94AF1180E00E94AF11A2
S11324408DE80E94AF1184E10E94AF1180E40E94E4
S1132450AF1180E20E94AF1180E00E94AF1181EAC7
S11324600E94AF1188EC0E94AF118AED0E94AF1157
S113247082E10E94AF1181E80E94AF118FEF0E94A8
S1132480AF1189ED0E94AF1181EF0E94AF118BED66
S11324900E94AF1180E20E94AF1184EA0E94AF1142
S11324A086EA0E94AF118EE20E94AF118FEA0E9469
S11324B0AF1160E080E00E94001286EA80932C0154
S11324C0109231011092300110922F0110922B01C1
S11324D010922A010895883028F4880F880F880FF5
S11324E080932B01089580912A0108958F929F92E1
S11324F0AF92BF92CF92DF92EF92FF920F931F930E
S1132500CF93DF93062F142F0E940012D0912B013A
S1132510C0912A016D2F8C2F0E9451111F3F91F4FD
S1132520902F9770812C912C540183947501640130
S113253004C0CC0CDD1CEE1CFF1C9A95D2F7482F6E
S11325404C2913C00770C12CD12C7601C394B70158
S1132550A60104C0440F551F661F771F0A95D2F7C2
S11325608A019B010095482F40236D2F8C2F0E94D8
S11325704311DF91CF911F910F91FF90EF90DF9066
S1132580CF90BF90AF909F908F9008953F924F92BD
S11325905F926F927F928F929F92AF92BF92CF92EF
S11325A0DF92EF92FF920F931F93CF93DF93982EB6
S11325B088230CF4C6C044230CF4C3C0603408F070
S11325C0C0C0203408F0BDC011E0812E861A820EEE
S11325D0181B140F462F4770762E741AE82CF12C12
S11325E088E090E0841B9109E816F9067CF488E001
S11325F090E08E199F092FEF30E0590102C0B59485
S1132600A7948A95E2F78A2D682C04C088E0682E86
S1132610641A8FEFA82EB12C02C0AA0CBB1C4A95D9
S1132620E2F73A2C672D892D0E9400121123C9F17B
S1132630512C0F2EFBE2CF2EF1E0DF2EF02DCAE25B
S1132640D1E0A094F6014080B880642D8B2D0E94C7
S113265051110F3F19F4482F432902C0482F4A2132
S11326609B2D9F5F9883642D8B2D0E94431153945F
S11326705112E8CF16C0C85F6C2F892D0E9400123A
S11326801123F1F07A2CF6016081F2018081982FF8
S11326909F5F9083402F0E9443117394711681F0C1
S11326A0F2CFC72D6718A12C0F2EFBE2CF2EF1E03D
S11326B0DF2EF02D0F2EFAE24F2EF1E05F2EF02DDB
S11326C0262D2C0FE22FF0E0CF010896E816F9062C
S11326D094F62815B0F5EE1AFF0A8FEF90E09C01EE
S11326E002C0220F331FEA94E2F77901E0946C2FC1
S11326F0685F892D0E940012112319F1B12C0F2E4D
S1132700FBE2CF2EF1E0DF2EF02DCAE2D1E09E2CC9
S11327109094F601A080F8806A2D8F2D0E945111AB
S11327200F3F19F4482F4E2902C0482F49219F2DED
S11327309F5F98836A2D8F2D0E944311B394B11229
S1132740E8CFDF91CF911F910F91FF90EF90DF9031
S1132750CF90BF90AF909F908F907F906F905F903D
S11327604F903F9008952F923F924F925F926F92B5
S11327707F928F929F92AF92BF92CF92DF92EF920D
S1132780FF920F931F93CF93DF93CDB7DEB72C97B0
S11327900FB6F894DEBF0FBECDBF5C01662E298351
S11327A020912A012F8330912B013A87822F860FA3
S11327B01AF480E8682E621A842F90E007969595A3
S11327C0879595958795959587958D839E839A850D
S11327D0969596959695890F893048F02D813E817E
S11327E0285F3F4FA901481B51095E834D834A84EA
S11327F057E045228D819E81892B09F4FAC09A8580
S11328009C83712C262C312C512C88E090E0FC0107
S1132810E419F109FB83EA830F2EFBE2CF2EF1E0EA
S1132820DF2EF02D0AE211E06C818F810E940012EC
S113283039862886729CC001739C900D11247C01FA
S1132840E218F308662009F43CC09C012A0D3B1DE4
S1132850852C3C872B87EB85FC859490042C01C048
S1132860990C0A94EAF7772079F0F501EE0DFF1D33
S11328702FEFE21AF20A849190E00A8002C0959543
S113288087950A94E2F7982A3981313039F4F601B0
S11328906081F80180810E945111982AF6016081BB
S11328A0F8018081982F9F5F9083492D0E944311E6
S11328B083942B853C852F5F3F4F3C872B87861065
S11328C0CACFE2E3F1E08081882341F0F601608120
S11328D0F80180810E945111482F01C0452DF60155
S11328E06081F80180810E944311FC81F85FFC83C0
S11328F07394872D90E02D813E818217930708F40D
S113290093CF2230310508F474C06F2F8F810E9459
S11329100012272D30E02150310948855985249F24
S1132920C001259F900D349F900D1124662009F459
S11329303EC04501880E991E65015FEFC51AD50A90
S11329406A94C60CD11CC80ED91E0F2EFBE2EF2EC2
S1132950F1E0FF2EF02D0AE211E088E090E05C0146
S1132960A418B1083401F7018080F8019080682D23
S1132970892D0E945111F301449150E00A2C02C0A8
S1132980559547950A94E2F7482BF981F13009F4FB
S1132990482B892D8F5FF8018083682D892D0E9433
S11329A04311FFEF6F1A7F0A6C147D04E1F68091E6
S11329B03201882399F0813041F460912B01809198
S11329C02A010E945111482F0AC060912B01809165
S11329D02A010E945111482F409501C040E06091A6
S11329E02B01EAE2F1E08081982F9F5F90830E949F
S11329F043110E9473126A850E9400122C960FB62E
S1132A00F894DEBF0FBECDBFDF91CF911F910F9120
S1132A10FF90EF90DF90CF90BF90AF909F908F90FA
S1132A207F906F905F904F903F902F900895BF924A
S1132A30CF92DF92EF92FF920F931F93CF93DF9386
S1132A40C82FF62E142F88230CF47CC044230CF4D6
S1132A5079C08FE3861708F475C0203408F072C07B
S1132A60C4130AC0261710F4F22E262F4C2F6F2DF4
S1132A708C2F0E94C61266C062130CC04C1708F457
S1132A805DC0402F6F2D8C2F0E947612CF5F1C17D4
S1132A90C0F758C0261728F4A62FB0E0A21BB1092E
S1132AA004C0A22FB0E0A61BB1091C1728F4EC2F18
S1132AB0F0E0E11BF10904C0E12FF0E0EC1BF109A7
S1132AC0EE24E394EA17FB070CF0E12CEE2031F03E
S1132AD0812F122F282F8C2FCF2DF82E1C1730F476
S1132AE08F2DF22E282F8C2FC12F182FC12ECC1AE8
S1132AF0F21638F4D22EDF18DC2DD695BB24B3940D
S1132B0006C0DF2CD21ADC2DD695BB24BA941C1730
S1132B10C8F0EE2031F0402F6C2F8F2D0E947612DA
S1132B2005C0402F6F2D8C2F0E947612DD1912F4F0
S1132B30FB0CDC0DCF5F1C1760F704C08C2FC42F77
S1132B40182F9FCFDF91CF911F910F91FF90EF909E
S1132B50DF90CF90BF900895DF92EF92FF920F9392
S1132B601F93CF93DF93E82E162FD42EF22ED02F5F
S1132B7088230CF449C044230CF446C0603408F0A4
S1132B8043C08FE3821708F43FC04E1500F11CC008
S1132B904D2F612F8C2F0E947612CF5F0C17C0F738
S1132BA0DE14D8F017C04D2F6F2D8C2F0E94761293
S1132BB0CF5F0C17C0F7F11698F01CC00D2F4D2DE8
S1132BC08D2D0E94C61220C0042FCE2DE1CF0E2DD4
S1132BD0C42FDECF0D2DCE2DE6CF0E2DCD2DE3CF80
S1132BE00D2F212F4E2D6F2D8E2D0E94C612212FB9
S1132BF06F2DE4CF0D2F2F2D4E2D612F8E2D0E9482
S1132C00C6122F2D612FDACFDF91CF911F910F9133
S1132C10FF90EF90DF9008950F931F93CF93DF936E
S1132C20182FD0E000E00BC0412F6D2F8C2F0E9495
S1132C304311CF5FC038C1F7D85FD03411F0C02F33
S1132C40F3CFDF91CF911F910F91089580E00E94FF
S1132C500C1608950F930E94C6120F9108956623CF
S1132C60F4F04034E0F42230D0F490932E018093B9
S1132C702D0160932F014093300150E041505109E0
S1132C80CA0199230CF40796959587959595879590
S1132C90959587958F5F8093310120933201089534
S1132CA02F923F924F925F926F927F928F929F9258
S1132CB0AF92BF92CF92DF92EF92FF920F931F9346
S1132CC0CF93DF93CDB7DEB72B970FB6F894DEBF63
S1132CD00FBECDBF20912A012C8330912B013F835D
S1132CE090913101805220912F01299F900111244C
S1132CF02F5F3F4F829FA001839F500D112459875E
S1132D0048874F5F5F4F5E834D83E0912D01F091C3
S1132D102E01A885B985EA0FFB1F54907F80B7E088
S1132D207B22992309F492C0EF81EB83312C212C6F
S1132D3088E090E09C01271931093A8329830F2EFA
S1132D40F2E38F2EF1E09F2EF02D0F2EFBE2AF2E3B
S1132D50F1E0BF2EF02D0AE211E0672C752C6B8197
S1132D608C810E9400124D815E81430D511D5B8751
S1132D704A877A0151E0E51AF108772009F44FC037
S1132D800F2EF1E3CF2EF1E0DF2EF02D832D362C24
S1132D90672C722C582EADE2B1E02D913C91EA855E
S1132DA0FB85E20FF31FE4914E2E032C01C0440C6B
S1132DB00A94EAF7552081F0F901EE0DFF1D2491E4
S1132DC030E0098002C0359527950A94E2F7422A3B
S1132DD0F6018081E80EF11CD4018C91813039F424
S1132DE0F5016081D8018C910E945111482AF501A6
S1132DF06081D8018C91982F9F5F9C93442D0E94F1
S1132E004311F60180812A853B85280F311D3B87BC
S1132E102A8773947610BFCF762C632C352CD4017B
S1132E208C91811107C0422DF5016081D8018C91EC
S1132E300E944311BB81B85FBB83339480913101FD
S1132E40381608F48CCF572C762C03C0EF81EB8313
S1132E50312C2F81229526952695237030E0809180
S1132E603001829586958695837090E0FF818F0F5F
S1132E70911D2817390709F469C06B818C810E9460
S1132E80001228853985230D311D3A832983552065
S1132E9009F451C0312C0F2EFBE2AF2EF1E0BF2E0E
S1132EA0F02D0AE211E00F2EFDE2CF2EF1E0DF2E2D
S1132EB0F02D88E090E0AC01471951093A010F2E3A
S1132EC0F2E3EF2EF1E0FF2EF02D0F2EF1E38F2E23
S1132ED0F1E09F2EF02DD5012C90F8014080622D59
S1132EE0842D0E945111D601ED91FC9129813A81E2
S1132EF0E20FF31F449150E0062C02C0559547950C
S1132F000A94E2F7482BD7019C91913009F4482B9D
S1132F10842D8F5FF8018083622D842D0E944311DC
S1132F20D4018C91E981FA81E80FF11DFA83E983D8
S1132F3033943510D0CF80913201811107C040E025
S1132F4060912B0180912A010E9443118C818F5F33
S1132F506F81850D0E9400122B960FB6F894DEBF88
S1132F600FBECDBFDF91CF911F910F91FF90EF90D6
S1132F70DF90CF90BF90AF909F908F907F906F9095
S1132F805F904F903F902F900895EF92FF920F9390
S1132F901F93CF93DF93EC018881882319F19091DB
S1132FA02A0120912F0130E0290F311D20383105ED
S1132FB0CCF421960F2EFAE2EF2EF1E0FF2EF02D45
S1132FC00FE211E00AC0F7019081F801208130E09E
S1132FD0290F311D203831052CF40E945016899197
S1132FE08111F1CFDF91CF911F910F91FF90EF905D
S1132FF008950F931F93CF93DF93CDB7DEB72C972C
S11330000FB6F894DEBF0FBECDBF61157105810503
S1133010910521F480E30E94501645C161157105A4
S1133020810520E8920709F43EC1FE0131962CE0A7
S1133030DF011D922A95E9F720E32B872A87298748
S113304028872F832E832D832C832B832A83298304
S113305099235CF49B01AC0188279927DC01821B2E
S1133060930BA40BB50B41E003C0DC01CB0140E0A2
S113307081303AEC93073AE9A3073BE3B30794F0B2
S11330802A812F5F01C0232F9A5CAA49BB43322FA8
S11330903F5F81305AEC95075AE9A5075BE3B50712
S11330A094F72A83811521EE920725EFA20725E0E4
S11330B0B20794F02B812F5F01C0232F915EA54F9F
S11330C0B540322F3F5F811551EE950755EFA507A7
S11330D055E0B50794F72B83803826E9920728E951
S11330E0A207B10594F02C812F5F01C0232F8058D3
S11330F09649A849B109322F3F5F803856E99507B0
S113310058E9A507B10594F72C83803422E492078B
S11331102FE0A207B10594F02D812F5F01C0232F6A
S113312080549244AF40B109322F3F5F803452E45F
S113313095075FE0A507B10594F72D83803A26E84B
S1133140920721E0A207B10594F02E812F5F01C000
S1133150232F805A9648A140B109322F3F5F803A0D
S113316056E8950751E0A507B10594F72E83803101
S113317027E29207A105B1058CF02F812F5F01C0D2
S1133180232F80519742A109B109322F3F5F80312B
S113319057E29507A105B1059CF72F83883E23E0EC
S11331A09207A105B1058CF028852F5F01C0232F5C
S11331B0885E9340A109B109322F3F5F883E53E0F6
S11331C09507A105B1059CF7288784369105A105CB
S11331D0B10584F029852F5F01C0232F84569109FE
S11331E0A109B109322F3F5F84369105A105B105CC
S11331F0A4F729878A309105A105B1057CF02A85B9
S11332002F5F01C0232F0A97A109B109322F3F5F15
S11332108A309105A105B105ACF72A87181619065D
S11332201A061B065CF45B858C019D010150110993
S113323021093109D9F7652F680F6B87898180339C
S113324061F480E08F5FE1E0F0E0EC0FFD1FE80F38
S1133250F11D90819033B1F301C080E0442331F03B
S11332608150FE01E80FF11D9DE291834AE0481B65
S113327020E090E0E1E0F0E0EC0FFD1FE20FF11D33
S1133280DF01A80FB91F3C9130832F5F421790F7DD
S1133290E1E0F0E0EC0FFD1FE20FF11D1082CE0122
S11332A001960E94C5172C960FB6F894DEBF0FBE88
S11332B0CDBFDF91CF911F910F9108958F929F926F
S11332C0AF92BF92CF92DF92EF92FF926B017C019B
S11332D049015A0120E030E0A9010E945F1A8111DE
S11332E00AC080E30E9450168EE20E94501680E3CA
S11332F00E9450164AC020E030E040E05FECC70175
S1133300B6010E94BE1B88230CF43FC020E030E0CD
S113331040E05FE4C701B6010E945F1A8823ACF560
S113332020E030E0A901C701B6010E945F1A88239A
S11333303CF4F7FAF094F7F8F0948DE20E945016FA
S1133340C701B6010E94D61A0E94F9178EE20E94A4
S11333505016C701B6010E94DD1A0E940C1B9B0186
S1133360AC01C701B6010E94F2196B017C01C501D1
S1133370B4010E940C1B9B01AC01C701B6010E9461
S1133380C31B0E94D61A0E94F917FF90EF90DF909A
S1133390CF90BF90AF909F908F900895A19AA09ADC
S11333A0A99AA89A11B88CE080B984E086BF0895E0
S11333B081B1887F089584EA86BF06B607FEFDCFF3
S11333C00E94D819089585ED86BF06B604FCFDCF8A
S11333D0089583B984E886BF06B607FEFDCF0E9430
S11333E0D81908955058BB27AA270E940A1A0C948A
S11333F0841B0E94761B38F00E947D1B20F039F458
S11334009F3F19F426F40C94731B0EF4E095E7FB2C
S11334100C946D1BE92F0E94951B58F3BA17620791
S113342073078407950720F079F4A6F50C94B71B6D
S11334300EF4E0950B2EBA2FA02D0B01B9019001CB
S11334400C01CA01A0011124FF27591B99F0593F0F
S113345050F4503E68F11A16F040A22F232F342F57
S11334604427585FF3CF469537952795A795F040A5
S11334705395C9F77EF41F16BA0B620B730B840BBA
S1133480BAF09150A1F0FF0FBB1F661F771F881F72
S1133490C2F70EC0BA0F621F731F841F48F48795CA
S11334A077956795B795F7959E3F08F0B0CF9395BC
S11334B0880F08F09927EE0F9795879508950E9435
S11334C0491B08F481E008950E94781A0C94841B27
S11334D00E947D1B58F00E94761B40F029F45F3F48
S11334E029F00C946D1B51110C94B81B0C94731B94
S11334F00E94951B68F39923B1F3552391F3951B0F
S1133500550BBB27AA2762177307840738F09F5F00
S11335105F4F220F331F441FAA1FA9F335D00E2E6D
S11335203AF0E0E832D091505040E695001CCAF7DA
S11335302BD0FE2F29D0660F771F881FBB1F26179D
S113354037074807AB07B0E809F0BB0B802DBF0174
S1133550FF2793585F4F3AF09E3F510578F00C9443
S11335606D1B0C94B81B5F3FE4F3983ED4F386952F
S113357077956795B795F7959F5FC9F7880F911D64
S11335809695879597F90895E1E0660F771F881F50
S1133590BB1F621773078407BA0720F0621B730B03
S11335A0840BBA0BEE1F88F7E09508950E94DD1A8C
S11335B06894B1110C94B81B08950E949D1B88F067
S11335C09F5798F0B92F9927B751B0F0E1F0660FE3
S11335D0771F881F991F1AF0BA95C9F714C0B13024
S11335E091F00E94B71BB1E008950C94B71B672FAC
S11335F0782F8827B85F39F0B93FCCF38695779553
S11336006795B395D9F73EF490958095709561953B
S11336107F4F8F4F9F4F0895E89409C097FB3EF466
S113362090958095709561957F4F8F4F9F4F99230B
S1133630A9F0F92F96E9BB279395F6958795779589
S11336406795B795F111F8CFFAF4BB0F11F460FF49
S11336501BC06F5F7F4F8F4F9F4F16C0882311F0A1
S113366096E911C0772321F09EE8872F762F05C0B5
S1133670662371F096E8862F70E060E02AF09A9550
S1133680660F771F881FDAF7880F9695879597F945
S11336900895990F0008550FAA0BE0E8FEEF1616DF
S11336A01706E807F907C0F012161306E407F50732
S11336B098F0621B730B840B950B39F40A2661F0A6
S11336C0232B242B252B21F408950A2609F4A14049
S11336D0A6958FEF811D811D089597F99F6780E856
S11336E070E060E008959FEF80EC089500240A9450
S11336F01616170618060906089500240A941216C9
S11337001306140605060895092E0394000C11F4FB
S1133710882352F0BB0F40F4BF2B11F460FF04C0A8
S11337206F5F7F4F8F4F9F4F089557FD9058440F01
S1133730551F59F05F3F71F04795880F97FB991F0C
S113374061F09F3F79F087950895121613061406C9
S1133750551FF2CF4695F1DF08C016161706180656
S1133760991FF1CF86957105610508940895E89431
S1133770BB2766277727CB0197F908950E94491B39
S113378008F48FEF08950E94D61B0C94841B0E94AA
S1133790761B38F00E947D1B20F0952311F00C94C9
S11337A06D1B0C94731B11240C94B81B0E94951B65
S11337B070F3959FC1F3950F50E0551F629FF00180
S11337C0729FBB27F00DB11D639FAA27F00DB11D99
S11337D0AA1F649F6627B00DA11D661F829F222722
S11337E0B00DA11D621F739FB00DA11D621F839FA9
S11337F0A00D611D221F749F3327A00D611D231F7F
S1133800849F600D211D822F762F6A2F11249F57CC
S113381050409AF0F1F088234AF0EE0FFF1FBB1FCF
S1133820661F771F881F91505040A9F79E3F51058E
S113383080F00C946D1B0C94B81B5F3FE4F3983E2E
S1133840D4F3869577956795B795F795E7959F5F38
S1133850C1F7FE2B880F911D9695879597F90895CA
S11338600E949D1BE8F09E37E8F09639B8F49E3824
S113387048F4672F782F8827985FF9CF8695779536
S1133880679593959539D0F3B62FB1706B0F711D71
S1133890811D20F487957795679593950C94541C16
S11338A00C946F1C0C94B81B882371F4772321F0BB
S11338B09850872B762F07C0662311F499270DC0E3
S11338C09051862B70E060E02AF09A95660F771F7E
S11338D0881FDAF7880F9695879597F908959F3F83
S11338E031F0915020F4879577956795B795880FB7
S11338F0911D9695879597F9089597FB072E16F4D1
S1133900009407D077FD09D00E94D21C07FC05D093
S11339103EF4909581959F4F0895709561957F4FE2
S11339200895A1E21A2EAA1BBB1BFD010DC0AA1FFC
S1133930BB1FEE1FFF1FA217B307E407F50720F014
S1133940A21BB30BE40BF50B661F771F881F991F8F
S11339501A9469F760957095809590959B01AC01D8
S1133960BD01CF010895052E97FB1EF400940E941B
S1133970CA1C57FD07D00E94911C07FC03D04EF4CB
S11339800C94CA1C50954095309521953F4F4F4F4C
S11339905F4F089590958095709561957F4F8F4FF7
S11339A09F4F0895AA1BBB1B51E107C0AA1FBB1F51
S11339B0A617B70710F0A61BB70B881F991F5A95B7
S11339C0A9F780959095BC01CD010895E199FECFAA
S11339D09FBB8EBBE09A99278DB30895A6E1B0E012
S11339E044E050E00C94161DA8E1B0E042E050E041
S11339F00C94161D262FE199FECF9FBB8EBB2DBBC9
S1133A000FB6F894E29AE19A0FBE01960895242F16
S1133A100E94FB1C252F0E94FB1C0C940F1D0E946E
S1133A20FA1C272F0C94FB1CDC01CB01FC01E1994F
S1133A30FECF06C0FFBBEEBBE09A31960DB20D92ED
S10F3A4041505040B8F70895F894FFCFAF
S1133A4C01609650BE000400043333A33F33333378
S1133A5C3F0000803F06FA0130004469675F50570D
S1133A6C4D004172725F50574D005765656C204490
S1133A7C00526174696F004D61676E657473005315
S1133A8C646F776E2056004D6178207370656564A1
S1133A9C004465672F6B6D6800534D20737465701B
S1133AAC730043616C696272617465006F646F6D5D
S1133ABC65746572207265736574006C6F61642043
S1133ACC64656661756C74730005060A020100086E
S1093ADC04070E010800BE
S9030000FC
