:100000000C94B0080C94CD080C94BA090C94CD084B
:100010000C9488090C94CD080C94CD080C94CD0850
:100020000C94CD080C949F090C9450090C94CD08A5
:100030000C94CD080C94CD080C94CD080C94CD08EC
:100040000C94CD080C94CD080C94CD080C94CD08DC
:100050000C94CD081200FE7F00C0FFFF07F8FFFFE1
:100060001FFC01803F3E00007C0E0000700F00006E
:10007000F0070000E0070000E0070000E00F0000CC
:10008000F00E0000703E00007CFC01803FF8FFFF96
:100090001FE0FFFF0300FE7F00000000001200FED3
:1000A0007F00C0FFFF07F8FFFF1FFC01803F3E00FD
:1000B000007C0E0000700F0000F0070000E0070059
:1000C00000E0070000E00F0000F00E0000703E00AE
:1000D000007CFC01803FF8FFFF1FE0FFFF0300FEF4
:1000E0007F00000000001200FE7F00C0FFFF07F845
:1000F000FFFF1FFC01803F3E00007C0E0000700FE0
:100100000000F0070000E0070000E0070000E00F3B
:100110000000F00E0000703E00007CFC01803FF803
:10012000FFFF1FE0FFFF0300FE7F00000000001242
:1001300000FE7F00C0FFFF07F8FFFF1FFC01803FAC
:100140003E00007C0E0000700F0000F0070000E091
:10015000070000E0070000E00F0000F00E00007054
:100160003E00007CFC01803FF8FFFF1FE0FFFF0323
:1001700000FE7F00000000001200FE7F00C0FFFFB5
:1001800007F8FFFF1FFC01803F3E00007C0E0000CF
:10019000700F0000F0070000E0070000E00700001B
:1001A000E00F0000F00E0000703E00007CFC0180BB
:1001B0003FF8FFFF1FE0FFFF0300FE7F000000008D
:1001C000001200FE7F00C0FFFF07F8FFFF1FFC01C9
:1001D000803F3E00007C0E0000700F0000F0070022
:1001E00000E0070000E0070000E00F0000F00E0054
:1001F00000703E00007CFC01803FF8FFFF1FE0FF25
:10020000FF0300FE7F00000000001200FE7F00C020
:10021000FFFF07F8FFFF1FFC01803F3E00007C0E40
:100220000000700F0000F0070000E0070000E0078A
:100230000000E00F0000F00E0000703E00007CFCAB
:1002400001803FF8FFFF1FE0FFFF0300FE7F00007B
:100250000000001200FE7F00C0FFFF07F8FFFF1F35
:10026000FC01803F3E00007C0E0000700F0000F09B
:10027000070000E0070000E0070000E00F0000F0CA
:100280000E0000703E00007CFC01803FF8FFFF1F65
:10029000E0FFFF0300FE7F00000000001200FE7F71
:1002A00000C0FFFF07F8FFFF1FFC01803F3E00007A
:1002B0007C0E0000700F0000F0070000E007000057
:1002C000E0070000E00F0000F00E0000703E0000AC
:1002D0007CFC01803FF8FFFF1FE0FFFF0300FE7F73
:1002E00000000000001200FE7F00C0FFFF07F8FFC3
:1002F000FF1FFC01803F3E00007C0E0000700F00DD
:1003000000F0070000E0070000E0070000E00F0039
:1003100000F00E0000703E00007CFC01803FF8FF02
:10032000FF1FE0FFFF0300FE7F000000000012003F
:10033000FE7F00C0FFFF07F8FFFF1FFC01803F3E6C
:1003400000007C0E0000700F0000F0070000E007C6
:100350000000E0070000E00F0000F00E0000703E1B
:1003600000007CFC01803FF8FFFF1FE0FFFF03005F
:10037000FE7F00000000001200FE7F00C0FFFF07AC
:10038000F8FFFF1FFC01803F3E00007C0E00007064
:100390000F0000F0070000E0070000E0070000E0A9
:1003A0000F0000F00E0000703E00007CFC01803F5A
:1003B000F8FFFF1FE0FFFF0300FE7F0000000000CA
:1003C0001200FE7F00C0FFFF07F8FFFF1FFC018047
:1003D0003F3E00007C0E0000700F0000F0070000A0
:1003E000E0070000E0070000E00F0000F00E000052
:1003F000703E00007CFC01803FF8FFFF1FE0FFFF24
:100400000300FE7F00000000001200FE7F00C0FF1E
:10041000FF07F8FFFF1FFC01803F3E00007C0E003D
:1004200000700F0000F0070000E0070000E0070088
:1004300000E00F0000F00E0000703E00007CFC01A8
:10044000803FF8FFFF1FE0FFFF0300FE7F0000007A
:100450000000090000000000000000000000000093
:100460000000F0000000F0000000F00000000000BC
:10047000000000000000000000000000000000007C
:10048000000000000000000000000000000000006C
:1004900000000000000000000000001200FE7F00CD
:1004A000C0FFFF07F8FFFF1FFC01803F3E00007CFC
:1004B0000E0000700F0000F0070000E0070000E0F1
:1004C000070000E00F0000F00E0000703E00007C0E
:1004D000FC01803FF8FFFF1FE0FFFF0300FE7F00ED
:1004E000000000001200FE7F00C0FFFF07F8FFFFC2
:1004F0001FFC01803F3E00007C0E0000700F0000DA
:10050000F0070000E0070000E0070000E00F000037
:10051000F00E0000703E00007CFC01803FF8FFFF01
:100520001FE0FFFF0300FE7F00000000001200003C
:1005300000000000000000000000000E00000007A6
:10054000000080030000C0030000E0010000F8008C
:100550000000FEFFFFFFFFFFFFFFFFFFFFFF0000A8
:10056000000000000000000000000000000000008B
:1005700000000000000012C00100E0F00100F8FCE3
:100580000100FE3C0000FF1E0080EF0F00C0E707E7
:1005900000E0E10700F0E0070078E007003CE0073A
:1005A000001FE00F800FE01EC007E03EF803E0FCF4
:1005B000FF00E0F07F00E0C00F00E000000000124C
:1005C000C0008003F000800FFC00801F3E00003E52
:1005D0001E0000780F0000F007E000E007E000E0F8
:1005E00007E000E007E000E00FF000E00EF8017027
:1005F0003EFC0378FCBF073EF89FFF1FE007FE0F9D
:100600000000F80300000000120000F0000000FCF1
:10061000000000FF0000C0FF0000F0E70000F8E16C
:1006200000007EE000801FE000E007E000F801E04D
:10063000007E00E000FFFFFFFFFFFFFFFFFFFFFF67
:10064000FF0000E0000000E0000000E0000000E02B
:10065000001200C0800300FF800FF8FF811FFFFF22
:10066000003EFF780078073800F0071C00E0071C08
:1006700000E0071C00E0071C00E0073C00F0073822
:1006800000700778007C07F0013F07E0FF1F07C0FC
:10069000FF070000FE01000000001200FC7F00C008
:1006A000FFFF07F0FFFF0FF880073E3CC001781EF8
:1006B000E000700E7000F0077000E0077000E007C7
:1006C0007000E0077000E00FF000F00EE001783EEF
:1006D000C0073EFC80FF1FF800FF0FE000FC010098
:1006E00000000012070000000700000007000000E3
:1006F00007000000070000F80700C0FF0700FCFF2C
:100700000780FF0707E03F0007F8070007FE00002B
:10071000871F0000E7070000F70100007F000000CE
:100720001F0000000F00000000000000120000F891
:1007300003E007FE0FF81FFF1FFCBF0F3E3EFC0348
:10074000780EF0017007E000E007E000E007E0004D
:10075000E007E000E00FE000E00EF001703EFC0377
:1007600078FCBF0F3EF81FFF1FE007FE0F0000F8E8
:10077000030000000012C03F0007F0FF001FF8FF59
:10078000013F7CE0037C1E8007700F000FF00F001C
:100790000EE007000EE007000EE007000EE0070085
:1007A0000E700E0007781E80033C7CE0811FF0FF76
:1007B000FF0FE0FFFF0300FE3F000000000000000D
:1007C0000000000000000000000000000000000029
:1007D000000080C0E0F0F8FCFEFFFFFF000000001A
:1007E0000000000000000000000000000000000009
:1007F00000000000000000000000000000000000F9
:1008000000000000000000000000000000000000E8
:1008100000000000000000000000000000000000D8
:1008200000000000000080C0E0F0F8FCFEFFFFFFC9
:10083000FFFFFFFFFFFFFFFFC0C0C0C0C0C0C0C0C0
:10084000C0C0C0C0C0C0C0C0C0C0C0C0C0C0C0C0A8
:10085000C0C0C0C0C0C0C0C0C0C0C0C0C0C0C0C098
:10086000C0C0C0C0C0C0C0C0C0C0C0C0C0C0C0C088
:10087000C0C0C0C0C0C00000000080C0E0F0F8FCF4
:10088000FEFFFFFFFFFFFFFFFFFFFFFFFFFFFFFF79
:10089000FFFFFFFFFFFFFFFFFFFFFFFFFFFFFFFF68
:1008A000FFFFFFFFFFFFFFFFFFFFFFFFFFFFFFFF58
:1008B000FFFFFFFFFFFFFFFFFFFFFFFFFFFFFFFF48
:1008C000FFFFFFFFFFFFFFFFFFFFFFFFFFFFFFFF38
:1008D000FFFF081C3E7FFFFFFFFFFFFFFFFFFFFF43
:1008E000FFFFFFFFFFFFFFFFFFFFFFFFFFFFFFFF18
:1008F000FFFFFFFFFFFFFFFFFFFFFFFFFFFFFFFF08
:10090000FFFFFFFFFFFFFFFFFFFFFFFFFFFFFFFFF7
:10091000FFFFFFFFFFFFFFFFFFFFFFFFFFFFFFFFE7
:10092000FFFFFFFFFFFFFFFFFFFFFFFFFFFF0000D5
:100930000000000103070F1F3F7FFFFFFFFFFFFFC6
:10094000FFFFFFFFFFFFFFFFFFFFFFFFFFFFFFFFB7
:10095000FFFFFFFFFFFFFFFFFFFFFFFFFFFFFFFFA7
:10096000FFFFFFFFFFFFFFFFFFFFFFFFFFFFFFFF97
:10097000FFFFFFFFFFFFFFFFFFFFFFFFFFFFFFFF87
:10098000FFFFFFFFFFFFFFFFFFFF00000000000071
:10099000000000000000000103070F1F3F7FFFFF62
:1009A000FFFFFFFFFFFFFFFF010101010101010147
:1009B0000101010101010101010101010101010127
:1009C0000101010101010101010101010101010117
:1009D0000101010101010101010101010101010107
:1009E0000101010101010000000000000000000001
:1009F00000000000000000000000000103070F1FBE
:100A00003F7F7F7F0000000000000000000000002A
:100A100000000000000000000000000000000000D6
:100A200000000000000000000000000000000000C6
:100A300000000000000000000000000000000000B6
:100A400000000000000000000000000000000000A6
:100A50000000000000000000000000000000000096
:100A60000000000000000000000000000000000086
:100A70000000000000000000000000000000000076
:100A8000FFFFFFFEFCF8F0E0C08000000000000067
:100A90000000000000000000000000000000C0C0D6
:100AA000C0C0C0C0C0C0C0C0C0C0C0C0C0C0C0C046
:100AB000C0C0C0C0C0C0C0C0C0C0C0C0C0C0C0C036
:100AC000C0C0C0C0C0C0C0C0C0C0C0C0C0C0C0C026
:100AD000C0C0C0C0C0C0C0C0C0C0C0C0FFFFFFFF1A
:100AE000FFFFFFFFFFFFFFFEFCF8F0E0C08000000B
:100AF00000000000000000000000FFFFFFFFFFFFFC
:100B0000FFFFFFFFFFFFFFFFFFFFFFFFFFFFFFFFF5
:100B1000FFFFFFFFFFFFFFFFFFFFFFFFFFFFFFFFE5
:100B2000FFFFFFFFFFFFFFFFFFFFFFFFFFFFFFFFD5
:100B3000FFFFFFFFFFFFFFFFFFFFFFFFFFFFFFFFC5
:100B4000FFFFFFFFFFFFFFFFFFFFFFFEFCF8F0E0EE
:100B5000C08000000000FFFFFFFFFFFFFFFFFFFF5F
:100B6000FFFFFFFFFFFFFFFFFFFFFFFFFFFFFFFF95
:100B7000FFFFFFFFFFFFFFFFFFFFFFFFFFFFFFFF85
:100B8000FFFFFFFFFFFFFFFFFFFFFFFFFFFFFFFF75
:100B9000FFFFFFFFFFFFFFFFFFFFFFFFFFFFFFFF65
:100BA000FFFFFFFFFFFFFFFFFFFFFFFFFFFF7F3E96
:100BB0001C08FFFFFFFFFFFFFFFFFFFFFFFFFFFF1F
:100BC000FFFFFFFFFFFFFFFFFFFFFFFFFFFFFFFF35
:100BD000FFFFFFFFFFFFFFFFFFFFFFFFFFFFFFFF25
:100BE000FFFFFFFFFFFFFFFFFFFFFFFFFFFFFFFF15
:100BF000FFFFFFFFFFFFFFFFFFFFFFFFFFFFFFFF05
:100C0000FFFF7F3F1F0F07030100000000000101ED
:100C100001010101010101010101010101010101C4
:100C200001010101010101010101010101010101B4
:100C300001010101010101010101010101010101A4
:100C4000010101010101010101010101FFFFFFFF9C
:100C5000FFFFFFFFFFFF7F3F1F0F070301000000A3
:100C60000000000000000000000000000000000084
:100C70000000000000000000000000000000000074
:100C80000000000000000000000000000000000064
:100C90000000000000000000000000000000000054
:100CA00000000000000000007F7F7F3F1F0F070350
:100CB0000100000000000000000000000000000033
:100CC000000000000000008080808084FCFEFEFEAA
:100CD000FEFEFEFEFEFC0000000000000000000022
:100CE00080C0E0F0F8FCFCFEFEFFFFFFFFFFFFFF0F
:100CF000FFFFFFFFFFFFFFFFFFFEFEFCFCF8F0E041
:100D0000C08000000000000000000000FCFEFEFEAD
:100D1000FEFEFEFEFEFC8080808080001F3F3F3F85
:100D20003F3F7FFFFFFFFFFFFFFFFFF9F0E0C080C5
:100D30000000000000FEFFFFFFFFFFFFFFFFFFFFBF
:100D4000FFFFFFFFFFFFFFFFFFFFFFFFFFFFFFFFB3
:100D5000FFFFFFFFFFFFFFFFFE000000000080C05D
:100D6000E0F0F9FFFFFFFFFFFFFFFF7F3F3F3F3F47
:100D70003F1F00000000000000000103070F1F3F9D
:100D80007F7F7F7F7F7F7F7E0000007FFFFFFFFFF1
:100D9000FF3F1F1F1F1F1F1F1F3FFFFFFFFFFFFF03
:100DA0003F1F1F1F1F1F1F1F3FFFFFFFFFFF7F0072
:100DB00000007E7F7F7F7F7F7F7F3F1F0F070301C4
:100DC0000000000000000000000000000000000023
:100DD000000000000080C0E0F0F0F0F0F0F0F0F073
:100DE00000000101FFFFFFF0E0E0E0E0E0E0E0F004
:100DF0000F0F0F0F0F0FF0E0E0E0E0E0E0E0F0FF9A
:100E0000FFFF01010000F0F0F0F0F0F0F0F0E0C0C2
:100E10008000000000000000000000000000000052
:100E2000C0E0E0E0E0E0F0F8FCFEFFFFFFFFFFFFC6
:100E30007F3F1F0F0703000000000303031F1F1F56
:100E4000FFFFFFFFFFFFFCF8F8F8F8FCFFFFFFFFD4
:100E5000FFFF1F1F1F0303030000000003070F1FF6
:100E60003F7FFFFFFFFFFFFFFEFCF8F0E0E0E0E068
:100E7000E0C000000000070F0F0F0F0FFFFFFFFF84
:100E8000FFFFFFFFFFFC000000000000000000006B
:100E90000000003E7E7EF0F0E087878303030303BB
:100EA0000303838787E0F0F07E7E3E0000000000B1
:100EB0000000000000000000FCFFFFFFFFFFFFFF3D
:100EC000FFFF0F0F0F0F0F070000000000000000D2
:100ED000000000010101010101010100000000000A
:100EE00000000000000000000000000000010307F7
:100EF0000F0F0F0F0F0F0F0F0F0F07030100000051
:100F000000000000000000000000000000000001E0
:100F100001010101010101000000000000000000CA
:100F20000500000000000500005F0000050007004C
:100F3000070005147F147F1405242A7F2A12052335
:100F4000130864620536495620500508070300005F
:100F500005001C224100050041221C000514083E2A
:100F600008140508083E08080500B07000000508D0
:100F70000808080805006060000005201008040249
:100F8000053E5149453E0500427F400005724949F2
:100F90004946052141494D33051814127F10052794
:100FA00045454539053C4A49493105412111090763
:100FB00005364949493605464949291E05000014A8
:100FC000000005004034000005081422410005140B
:100FD00014141414054122140800050201590906CD
:100FE000053E415D594E057C1211127C057F494931
:100FF0004936053E41414122057F4141413E057F41
:1010000049494949057F09090909053E414151738B
:10101000057F0808087F0500417F41000520404109
:101020003F01057F08142241057F40404040057F75
:10103000020C027F057F0408107F053E4141413EBE
:10104000057F09090906053E4151215E057F091901
:1010500029460526494949320501017F0101053F1D
:101060004040403F051F2040201F053F4038403F83
:1010700005631408146305030478040305615149EA
:10108000454305007F41410005020408102005008A
:1010900041417F00050402010204054040404040F8
:1010A00005070B000000052054547840057F2844B4
:1010B000443805384444442805384444287F0538DA
:1010C000545454180500087E09020518A4A49C78FD
:1010D000057F080404780500447D40000520404059
:1010E0003D00057F102844000500417F4000057C3D
:1010F00004780478057C08040478053844444438AE
:1011000005FC182424180518242418FC057C080460
:1011100004080548545454240504043F4424053C61
:101120004040207C051C2040201C053C4030403CB9
:10113000054428102844054C9090907C0544645444
:101140004C4405000836410005000077000005000A
:101150004136080005040204080405007F417F00B1
:1011600011241FBECFE5D8E0DEBFCDBF10E0A0E662
:10117000B0E0ECE4F9E302C005900D92A43FB107A2
:10118000D9F725E0A4EFB0E001C01D92A233B20769
:10119000E1F70E9425110C94A41C0C94000090917E
:1011A000FB009923A9F02091FC003091FD002F5FF6
:1011B0003F4F3093FD002093FC002091F9003091C7
:1011C000FA002F5F3F4F3093FA002093F90014C0CC
:1011D0002091FC003091FD00215031093093FD0039
:1011E0002093FC002091F9003091FA002150310940
:1011F0003093FA002093F900811117C08091FC0010
:101200009091FD00992334F483E090E09093FD00E9
:101210008093FC008091FC009091FD0004972CF1DC
:101220001092FD001092FC0020C0813081F5809169
:10123000FC009091FD00992334F487E090E09093B6
:10124000FD008093FC008091FC009091FD000897C8
:10125000BCF01092FD001092FC0012C0F901E851A0
:10126000FF4F8081982B9BBB0895E091FC00F0918B
:10127000FD009BB3907FE051FF4F8081982BF3CF0F
:101280002091FC003091FD009BB3907FE7CF20912F
:10129000FC003091FD009BB3907F813021F7DECFC1
:1012A0001F920F920FB60F9211242F933F934F93DB
:1012B0005F936F937F938F939F93AF93BF93EF93BE
:1012C000FF93809160000E94CF082091F900309137
:1012D000FA0080910F01909110012817390739F415
:1012E0001092110113BE1CBE89B78D7F89BFFF917B
:1012F000EF91BF91AF919F918F917F916F915F918E
:101300004F913F912F910F900FBE0F901F90189506
:101310001F920F920FB60F9211248F939F9380917B
:101320002401909125010196909325018093240139
:101330009F918F910F900FBE0F901F9018951F9245
:101340000F920FB60F9211248F939F9380910E01ED
:10135000882349F080910A0190910B0101969093A6
:101360000B0180930A019F918F910F900FBE0F90F8
:101370001F9018951F920F920FB60F9211242F9362
:101380003F934F935F938F939F93AF93BF938091BE
:101390000D01811108C089B7806889BF14BC81E044
:1013A00080930D012CC0209124013091250144B57A
:1013B00054E1529FC001539F900D1124840F911D41
:1013C000909323018093220114BC10922501109266
:1013D000240181E08093760080911E0190911F018D
:1013E000A0912001B09121010196A11DB11D809312
:1013F0001E0190931F01A0932001B0932101BF9182
:10140000AF919F918F915F914F913F912F910F904D
:101410000FBE0F901F9018958F929F92AF92BF9220
:10142000CF92DF92EF92FF920F93CF93DF93809151
:101430000E018111E6C00E940E160FEF27E144E273
:101440006BE08AE00E94941524E146E26EE085E2BA
:101450000E9494158091F6009091F70089369105CD
:1014600034F025E140E16DE08CE00E94121680919D
:10147000F6009091F7008E3691053CF00FEF25E1D4
:1014800046E16DE082E10E9412168091F600909193
:10149000F700833791053CF00FEF25E14CE16DE05B
:1014A00088E10E9412168091F6009091F70088372B
:1014B00091053CF00FEF25E142E26DE08EE10E94E4
:1014C00012166FE08BE20E94E81120E048E065E030
:1014D00080E29FE00E9417166091F6007091F7007D
:1014E000882777FD8095982F0E94DE1A20E030E053
:1014F00040E251E40E94431A2AE030E040E050E02C
:101500000E94461984EA90E00E94AD1760E180E0F5
:101510000E94E81120E040E262E184E590E00E9450
:1015200017166FE184E00E94E81180900601909008
:101530000701A0900801B090090124E682169104E9
:10154000A104B10468F424E630E040E050E0D0E0CB
:101550000F2EFAE0CF2ED12CE12CF12CF02D0FC064
:10156000C501B4012AE030E040E050E00E94521C86
:10157000211531054105510551F7D0E012C0CA01CE
:10158000B901A70196010E94741CDF5F2115310586
:1015900041055105A1F734E683169104A104B10475
:1015A00050F086E090E09C012D1B3109E9011C16EA
:1015B0001D067CF402C0C4E0D0E0E12CF12C87E7EA
:1015C00090E00E94AD173FEFE31AF30AEC16FD0618
:1015D000B4F3609106017091070180910801909128
:1015E00009010E94DC1A20E030E048EC52E40E943D
:1015F000431A2AE030E040E050E00E9446190E9481
:10160000B211DF91CF910F91FF90EF90DF90CF90CB
:10161000BF90AF909F908F9008958091600081114E
:1016200019C0609112017091130180911401909181
:1016300015012091FE003091FF0040910001509172
:1016400001010E94431A0E94AB1A7093100160932B
:101650000F011AC08130C1F4609112017091130121
:1016600080911401909115012091FE003091FF00AE
:1016700040910001509101010E94431A0E94AB1A4F
:101680007093100160930F018091F9009091FA001E
:1016900020910F0130911001821B930B181619062F
:1016A0001CF41092FB0005C021E02093FB00892B65
:1016B00061F081E08093110183B78D6083BF8091D9
:1016C00062008CBF89B7826089BF0895CF92DF9294
:1016D000EF92FF92CF938091240190912501893E52
:1016E0009340D4F089B78F7789BF14BC109225013D
:1016F000109224018091240190912501909323015F
:101700008093220110921201109213011092140181
:101710001092150110920D0180917600882309F432
:1017200046C08091220190912301892B09F43FC08A
:10173000809122019091230181399140C4F16091FF
:10174000220170912301882777FD8095982F0E94B0
:10175000DE1A20911A0130911B0140911C01509119
:101760001D010E94921B9B01AC0160E070E080E8CB
:101770009FE30E94431A26E636E646E650E40E94BE
:10178000921B209116013091170140911801509140
:1017900019010E94921B462F572F682F792F4093D3
:1017A0001201509313016093140170931501C091BD
:1017B0006400C0901201D0901301E0901401F090E9
:1017C00015016C2F70E080E090E00E94DE1AA70106
:1017D00096010E943F1A882374F46C2F70E080E019
:1017E00090E00E94DC1A60931201709313018093C1
:1017F0001401909315011092760020E048E065E016
:1018000080E29FE00E94171660E080E40E94E811E9
:101810006091120170911301809114019091150152
:101820002AE030E040E050E00E9446190E94B211E8
:10183000CF91FF90EF90DF90CF900895B59B05C0BA
:10184000B69B03C0B7991092F800B59912C0809169
:10185000F80081110EC02FEF80E792E02150804008
:101860009040E1F700C00000B59903C081E080938B
:10187000F800B69912C08091F80081110EC02FEFC8
:1018800080E792E0215080409040E1F700C00000E6
:10189000B69903C082E08093F800B79912C0809196
:1018A000F80081110EC02FEF80E792E021508040B8
:1018B0009040E1F700C00000B79903C083E0809337
:1018C000F8008091F800089580912601882314F48F
:1018D0001092260180912701863044F080912601E4
:1018E0008F5F80932601109227010AC0882344F459
:1018F0008091260181508093260185E08093270105
:101900000E940E1680912701880F880F880F282FBC
:10191000215F682F695F0FEF45E080E00E9412169B
:1019200080912701880F880F880F282F215F682F4B
:10193000695F4FE78AE70E94121660912701660FE0
:10194000660F660F6A5F262F4FE780E00E94FF1444
:1019500060912701660F660F660F605F262F4FE7C5
:1019600080E00E94FF1421E048E065E080E29FE013
:101970000E94171680912601811194C08AE00E946E
:10198000DC1181E00E94531289E790E00E94AD17BC
:101990008BE40E94DC116091690070916A0080E024
:1019A00090E00E94E1178AE00E94DC1182E00E9430
:1019B000531281E890E00E94AD178BE40E94DC1185
:1019C00060916B0070916C0080E090E00E94E117E4
:1019D0008AE00E94DC1183E00E94531289E890E0C3
:1019E0000E94AD178BE40E94DC1160916D00709134
:1019F0006E0080916F009091700024E630E040E02E
:101A000050E00E9446198AE00E94DC1184E00E94A6
:101A1000531280E990E00E94AD178BE40E94DC1124
:101A200060917100709172008091730090917400C8
:101A300024E630E040E050E00E9446198AE00E942F
:101A4000DC1185E00E94531286E990E00E94AD17F8
:101A50008BE40E94DC116091750070E080E090E002
:101A60000E94E1178AE00E94DC1186E00E94531276
:101A70008EE990E00E94AD178BE40E94DC1160912A
:101A8000630070E080E090E00E94DE1A20E030E029
:101A900040E251E40E94431A2AE030E040E050E086
:101AA0000E94461980912601813009F064C08AE0C5
:101AB0000E94DC1181E00E94531286EA90E00E94AD
:101AC000AD178BE40E94DC116091640070E080E04F
:101AD00090E00E94E1178AE00E94DC1182E00E94FF
:101AE000531280EB90E00E94AD178BE40E94DC1152
:101AF0006091650070916600809167009091680028
:101B000028EE33E040E050E00E9446198AE00E944F
:101B1000DC1183E00E94531288EB90E00E94AD1725
:101B20008BE40E94DC116091610070E080E090E045
:101B30000E94E1178AE00E94DC1184E00E945312A7
:101B40008BEB90E00E94AD178BE40E94DC1160915A
:101B5000620070E080E090E00E94E1178AE00E945D
:101B6000DC1185E00E94531281EC90E00E94AD17D9
:101B70008BE40E94DC11809126018230A1F48AE07E
:101B80000E94DC1181E00E9453128BEC90E00E94D5
:101B9000AD178AE00E94DC1182E00E9453128AEDA8
:101BA00090E00E94AD170E94B2110E941E0C882383
:101BB000E1F3823031F4809127018F5F8093270118
:101BC0000EC0833031F4809127018150809327012A
:101BD00006C0813021F40E941E0C8130E1F30E9486
:101BE0001E0C8130C1F0823051F4809169009091D7
:101BF0006A00019690936A0080936900F0CF833069
:101C000071F78091690090916A00019790936A0042
:101C100080936900E4CF0E941E0C8111FCCF0E94CA
:101C2000640CCF93DF9380916000811125C0C09137
:101C30006100D0E0BE01882777FD8095982F0E9433
:101C4000DE1A9B01AC0160E070E084EB93E40E943B
:101C5000431A2091650030916600409167005091D1
:101C600068000E94431A6093FE007093FF00809307
:101C70000001909301012BC0813039F5C0916100C2
:101C8000D0E0BE01882777FD8095982F0E94DE1A4C
:101C90009B01AC0160E070E084E393E40E94431A8E
:101CA0002091650030916600409167005091680076
:101CB0000E94431A6093FE007093FF00809300011E
:101CC00090930101CC0FDD1F02C0C0E0D0E0109264
:101CD000FA001092F9001092FD001092FC00CE0163
:101CE00095958795959587959093100180930F0111
:101CF00081E08093FB008093110183B78D6083BFE7
:101D0000809162008CBF89B7826089BF8091110188
:101D10008111FCCF2FEF82E597E021508040904069
:101D2000E1F700C000001092FD001092FC0010923C
:101D3000100110920F01D093FA00C093F900109295
:101D4000FB0081E08093110183B78D6083BF809198
:101D500062008CBF89B7826089BF809111018111B7
:101D6000FCCF1092FA001092F9001092100110921C
:101D70000F011092FD001092FC00DF91CF910895A9
:101D8000882381F00E940E1667E086E10E94E81128
:101D90002FEF47E36CE582E49AE00E949B130E94D8
:101DA000B21108950E940E1667E086E10E94E811C4
:101DB0002FEF47E36CE58EEB97E00E949B130E94A8
:101DC000B21108950E940E1667E08BE10E94E8119F
:101DD0002FEF44E366E586EC9CE00E949B130E9493
:101DE000B2110895B4990CC0B39B0AC080E00E9460
:101DF000C00E81E080930E0110920B0110920A0137
:101E0000B3990CC0B49B0AC081E00E94C00E81E06F
:101E100080930E0110920B0110920A01B4990BC02D
:101E2000B39909C00E94E20E81E080930E011092E6
:101E30000B0110920A0180910E018823E9F0B39BF7
:101E400009C0B49B07C00E940E160E94B21189B748
:101E5000846089BF80910A0190910B018D3291407D
:101E600058F010920E0110920B0110920A0189B7DE
:101E70008B7F89BF0E940C0A089587B970E01616FF
:101E800017068CF420E030E080E090E0369A369936
:101E9000FECF44B155B1840F951F2F5F3F4F2617DA
:101EA0003707A4F302C080E090E00E943E1C862F1A
:101EB000972F0895E199FECF9FBB8EBB6DBBF89421
:101EC000E29AE19A789408950F931F936AE084E070
:101ED0000E943D0FBC01882777FD8095982F0E94B6
:101EE000DE1A2AE939E94CEC52E40E94431A20E058
:101EF00030E040E250E40E94921B20E030E040ECF1
:101F000050E40E94921B0E94AB1A7093F5006093FC
:101F1000F4002091630030E0621773070CF062C098
:101F2000F8941FBC1EBCDB9AD89ADA9AD99A809191
:101F30001E0190911F01A0912001B0912101682FF5
:101F400087E190E00E945A0F80911E0190911F013D
:101F5000A0912001B0912101692F86E190E00E94BB
:101F60005A0F80911E0190911F01A0912001B09104
:101F700021016A2F85E190E00E945A0F20916300B1
:101F800030E08091F4009091F500821793074CF5B2
:101F90006AE084E00E943D0FBC01882777FD8095B0
:101FA000982F0E94DE1A2AE939E94CEC52E40E948B
:101FB000431A20E030E040E250E40E94921B20E00F
:101FC00030E040EC50E40E94921B0E94AB1A7093E8
:101FD000F5006093F4002091630030E0621773070E
:101FE000BCF278948091F4009091F5002091F60075
:101FF0003091F7008217930731F09093F7008093A8
:10200000F6000E940C0A60911E0170911F018091E0
:102010002001909121010E94DC1A0E94F51B209161
:1020200016013091170140911801509119010E9439
:10203000921B20E030E040E251E40E94431A0E94EB
:10204000B01A60930201709303018093040190938E
:1020500005010091060110910701209108013091BE
:102060000901601771078207930751F06093060119
:102070007093070180930801909309010E940C0A54
:102080001F910F910895E199FECFF8949FBB8EBBED
:10209000E09A78948DB308958F929F92AF92BF92F9
:1020A000CF92DF92EF92FF922BED3FE049E450E4B4
:1020B00060916D0070916E0080916F009091700042
:1020C0000E94921B6B017C016091750070E080E0C2
:1020D00090E00E94DE1A9B01AC01C701B6010E948C
:1020E000431A60931601709317018093180190931F
:1020F00019018DEB97E3A6E8B7E380931A0190935B
:102100001B01A0931C01B0931D01D39AD09AD29ABF
:10211000D19A8C9A8D9ADB9AD89AC59AC69AC79A00
:10212000379A309A319A329A0E94F1110E940E1613
:102130000E94B2118AE090E00E944310882369F166
:1021400061E085E190E00E945A0F6CEC86E190E03E
:102150000E945A0F6CEC87E190E00E945A0F6FEFDB
:102160008EE190E00E945A0F68EC8FE190E00E94AF
:102170005A0F60E080E290E00E945A0F62E381E231
:1021800090E00E945A0F6FEF82E290E00E945A0F97
:1021900060E08AE090E00E945A0F85E190E00E94A2
:1021A0004310882E912CA12CB12C86E190E00E9446
:1021B0004310C82ED12CE12CF12C87E190E00E9435
:1021C0004310540199248824FE2CED2CDC2CCC24C3
:1021D000C80CD91CEA1CFB1CC80ED11CE11CF11C4C
:1021E000C0921E01D0921F01E0922001F0922101C5
:1021F00082E290E00E94431080930C0183EA8FBD3D
:102200008BE08EBD80916B0090916C009BBD8ABD70
:102210008091690090916A0099BD88BD0E94110E5D
:1022200085B7886085BF8BB780688BBF85B58E60AA
:1022300085BD84E183BD7894FF90EF90DF90CF90CF
:10224000BF90AF909F908F9008950E944C100E9475
:10225000640F0E94660B0E940D0B0E94F20E0E94FA
:102260001E0C8823A1F30E94640C66956695669502
:1022700090E8699FB0011124680F711DFB01EE5CAD
:10228000FE4F4083089566956695669590E8699F30
:10229000B0011124680F711DFB01EE5CFE4F8081BF
:1022A0000895FF920F931F93CF93DF93C82F062FAC
:1022B000172FF42E0E94C3190E94C019883031F0E4
:1022C000803121F081E08093280133C088E70E94AB
:1022D000D1190E94C019883131F0803221F081E09B
:1022E0008093280126C08C2F0E94D1190E94C0190A
:1022F000883219F4F11007C01AC08033D9F381E095
:102300008093280116C0C02FD12F8E010F5F1F4F61
:10231000FA940F0D111D89910E94D1190E94C019C4
:10232000883211F0803319F4C017D107A1F7109249
:1023300028010E94CB19DF91CF911F910F91FF903F
:102340000895CF93DF931F92CDB7DEB7898341E025
:10235000BE016F5F7F4F80E00E9451110F90DF91AF
:10236000CF910895CF93DF9381E20E94A11180E085
:102370000E94A1118FE70E94A11182E20E94A11187
:1023800080E00E94A11187E00E94A111C0E0D0E08E
:10239000BE0162957295707F7627607F76276E5CAE
:1023A0007E4F40E180E40E9451112196C034D10556
:1023B00079F7DF91CF910895882314F08093290154
:1023C000089590912A01903410F480932A01089581
:1023D000CF93C62F0E94DC118C2F0E94E111CF9168
:1023E00008950E94B6198EEA0E94A11185ED0E94FF
:1023F000A11180EF0E94A11188EA0E94A1118FE330
:102400000E94A11183ED0E94A11180E00E94A11100
:102410008DE80E94A11184E10E94A11180E40E9434
:10242000A11180E20E94A11180E00E94A11181EA25
:102430000E94A11188EC0E94A1118AED0E94A111B5
:1024400082E10E94A11181E80E94A1118FEF0E94F8
:10245000A11189ED0E94A11181EF0E94A1118BEDC4
:102460000E94A11180E20E94A11184EA0E94A111A0
:1024700086EA0E94A1118EE20E94A1118FEA0E94B9
:10248000A11160E080E00E94E81186EA80932B01B0
:102490001092300110922F0110922E0110922A01F9
:1024A000109229010895883028F4880F880F880F2A
:1024B00080932A0108958091290108958F929F9217
:1024C000AF92BF92CF92DF92EF92FF920F931F9342
:1024D000CF93DF93062F142F0E94E811D0912A0189
:1024E000C09129016D2F8C2F0E9443111F3F91F441
:1024F000902F9770812C912C540183947501640165
:1025000004C0CC0CDD1CEE1CFF1C9A95D2F7482FA2
:102510004C2913C00770C12CD12C7601C394B7018C
:10252000A60104C0440F551F661F771F0A95D2F7F6
:102530008A019B010095482F40236D2F8C2F0E940C
:102540003511DF91CF911F910F91FF90EF90DF90A8
:10255000CF90BF90AF909F908F9008953F924F92F1
:102560005F926F927F928F929F92AF92BF92CF9223
:10257000DF92EF92FF920F931F93CF93DF93982EEA
:1025800088230CF4C6C044230CF4C3C0603408F0A4
:10259000C0C0203408F0BDC011E0812E861A820E22
:1025A000181B140F462F4770762E741AE82CF12C46
:1025B00088E090E0841B9109E816F9067CF488E035
:1025C00090E08E199F092FEF30E0590102C0B594B9
:1025D000A7948A95E2F78A2D682C04C088E0682EBB
:1025E000641A8FEFA82EB12C02C0AA0CBB1C4A950E
:1025F000E2F73A2C672D892D0E94E8111123C9F1C9
:10260000512C0F2EFAE2CF2EF1E0DF2EF02DC9E291
:10261000D1E0A094F6014080B880642D8B2D0E94FB
:1026200043110F3F19F4482F432902C0482F4A2174
:102630009B2D9F5F9883642D8B2D0E9435115394A1
:102640005112E8CF16C0C85F6C2F892D0E94E81187
:102650001123F1F07A2CF6016081F2018081982F2C
:102660009F5F9083402F0E9435117394711681F003
:10267000F2CFC72D6718A12C0F2EFAE2CF2EF1E072
:10268000DF2EF02D0F2EF9E24F2EF1E05F2EF02D10
:10269000262D2C0FE22FF0E0CF010896E816F90660
:1026A00094F62815B0F5EE1AFF0A8FEF90E09C0122
:1026B00002C0220F331FEA94E2F77901E0946C2FF5
:1026C000685F892D0E94E811112319F1B12C0F2E9A
:1026D000FAE2CF2EF1E0DF2EF02DC9E2D1E09E2C00
:1026E0009094F601A080F8806A2D8F2D0E944311EE
:1026F0000F3F19F4482F4E2902C0482F49219F2D22
:102700009F5F98836A2D8F2D0E943511B394B1126B
:10271000E8CFDF91CF911F910F91FF90EF90DF9065
:10272000CF90BF90AF909F908F907F906F905F9071
:102730004F903F9008952F923F924F925F926F92E9
:102740007F928F929F92AF92BF92CF92DF92EF9241
:10275000FF920F931F93CF93DF93CDB7DEB72C97E4
:102760000FB6F894DEBF0FBECDBF5C01662E298385
:10277000209129012F8330912A013A87822F860FD9
:102780001AF480E8682E621A842F90E007969595D7
:10279000879595958795959587958D839E839A8541
:1027A000969596959695890F893048F02D813E81B2
:1027B000285F3F4FA901481B51095E834D834A841E
:1027C00057E045228D819E81892B09F4FAC09A85B4
:1027D0009C83712C262C312C512C88E090E0FC013C
:1027E000E419F109FB83EA830F2EFAE2CF2EF1E020
:1027F000DF2EF02D09E211E06C818F810E94E8113B
:1028000039862886729CC001739C900D11247C012E
:10281000E218F308662009F43CC09C012A0D3B1D18
:10282000852C3C872B87EB85FC859490042C01C07C
:10283000990C0A94EAF7772079F0F501EE0DFF1D67
:102840002FEFE21AF20A849190E00A8002C0959577
:1028500087950A94E2F7982A3981313039F4F601E4
:102860006081F80180810E944311982AF6016081FD
:10287000F8018081982F9F5F9083492D0E94351128
:1028800083942B853C852F5F3F4F3C872B87861099
:10289000CACFE1E3F1E08081882341F0F601608155
:1028A000F80180810E944311482F01C0452DF60197
:1028B0006081F80180810E943511FC81F85FFC8302
:1028C0007394872D90E02D813E818217930708F441
:1028D00093CF2230310508F474C06F2F8F810E948E
:1028E000E811272D30E02150310948855985249F72
:1028F000C001259F900D349F900D1124662009F48E
:102900003EC04501880E991E65015FEFC51AD50AC4
:102910006A94C60CD11CC80ED91E0F2EFAE2EF2EF7
:10292000F1E0FF2EF02D09E211E088E090E05C017B
:10293000A418B1083401F7018080F8019080682D57
:10294000892D0E944311F301449150E00A2C02C0EA
:10295000559547950A94E2F7482BF981F13009F42F
:10296000482B892D8F5FF8018083682D892D0E9467
:102970003511FFEF6F1A7F0A6C147D04E1F6809128
:102980003101882399F0813041F460912A018091CE
:1029900029010E944311482F0AC060912A018091A9
:1029A00029010E944311482F409501C040E06091E9
:1029B0002A01E9E2F1E08081982F9F5F90830E94D5
:1029C00035110E945B126A850E94E8112C960FB6A1
:1029D000F894DEBF0FBECDBFDF91CF911F910F9155
:1029E000FF90EF90DF90CF90BF90AF909F908F902F
:1029F0007F906F905F904F903F902F900895BF927F
:102A0000CF92DF92EF92FF920F931F93CF93DF93BA
:102A1000C82FF62E142F88230CF47CC044230CF40A
:102A200079C08FE3861708F475C0203408F072C0AF
:102A3000C4130AC0261710F4F22E262F4C2F6F2D28
:102A40008C2F0E94AE1266C062130CC04C1708F4A3
:102A50005DC0402F6F2D8C2F0E945E12CF5F1C1720
:102A6000C0F758C0261728F4A62FB0E0A21BB10962
:102A700004C0A22FB0E0A61BB1091C1728F4EC2F4C
:102A8000F0E0E11BF10904C0E12FF0E0EC1BF109DB
:102A9000EE24E394EA17FB070CF0E12CEE2031F072
:102AA000812F122F282F8C2FCF2DF82E1C1730F4AA
:102AB0008F2DF22E282F8C2FC12F182FC12ECC1A1C
:102AC000F21638F4D22EDF18DC2DD695BB24B39441
:102AD00006C0DF2CD21ADC2DD695BB24BA941C1765
:102AE000C8F0EE2031F0402F6C2F8F2D0E945E1227
:102AF00005C0402F6F2D8C2F0E945E12DD1912F43D
:102B0000FB0CDC0DCF5F1C1760F704C08C2FC42FAB
:102B1000182F9FCFDF91CF911F910F91FF90EF90D2
:102B2000DF90CF90BF900895DF92EF92FF920F93C6
:102B30001F93CF93DF93E82E162FD42EF22ED02F93
:102B400088230CF449C044230CF446C0603408F0D8
:102B500043C08FE3821708F43FC04E1500F11CC03C
:102B60004D2F612F8C2F0E945E12CF5F0C17C0F784
:102B7000DE14D8F017C04D2F6F2D8C2F0E945E12DF
:102B8000CF5F0C17C0F7F11698F01CC00D2F4D2D1C
:102B90008D2D0E94AE1220C0042FCE2DE1CF0E2D20
:102BA000C42FDECF0D2DCE2DE6CF0E2DCD2DE3CFB4
:102BB0000D2F212F4E2D6F2D8E2D0E94AE12212F05
:102BC0006F2DE4CF0D2F2F2D4E2D612F8E2D0E94B6
:102BD000AE122F2D612FDACFDF91CF911F910F9180
:102BE000FF90EF90DF9008950F931F93CF93DF93A3
:102BF000182FD0E000E00BC0412F6D2F8C2F0E94CA
:102C00003511CF5FC038C1F7D85FD03411F0C02F75
:102C1000F3CFDF91CF911F910F91089580E00E9433
:102C2000F41508950F930E94AE120F910895662334
:102C3000F4F04034E0F42230D0F490932D018093EE
:102C40002C0160932E0140932F0150E04150510917
:102C5000CA0199230CF407969595879595958795C4
:102C6000959587958F5F809330012093310108956A
:102C70002F923F924F925F926F927F928F929F928C
:102C8000AF92BF92CF92DF92EF92FF920F931F937A
:102C9000CF93DF93CDB7DEB72B970FB6F894DEBF97
:102CA0000FBECDBF209129012C8330912A013F8393
:102CB00090913001805220912E01299F9001112482
:102CC0002F5F3F4F829FA001839F500D1124598792
:102CD00048874F5F5F4F5E834D83E0912C01F091F9
:102CE0002D01A885B985EA0FFB1F54907F80B7E0BE
:102CF0007B22992309F492C0EF81EB83312C212CA4
:102D000088E090E09C01271931093A8329830F2E2E
:102D1000F1E38F2EF1E09F2EF02D0F2EFAE2AF2E71
:102D2000F1E0BF2EF02D09E211E0672C752C6B81CC
:102D30008C810E94E8114D815E81430D511D5B879E
:102D40004A877A0151E0E51AF108772009F44FC06B
:102D50000F2EF0E3CF2EF1E0DF2EF02D832D362C59
:102D6000672C722C582EACE2B1E02D913C91EA8593
:102D7000FB85E20FF31FE4914E2E032C01C0440C9F
:102D80000A94EAF7552081F0F901EE0DFF1D249118
:102D900030E0098002C0359527950A94E2F7422A6F
:102DA000F6018081E80EF11CD4018C91813039F458
:102DB000F5016081D8018C910E944311482AF501E8
:102DC0006081D8018C91982F9F5F9C93442D0E9425
:102DD0003511F60180812A853B85280F311D3B87FF
:102DE0002A8773947610BFCF762C632C352CD401B0
:102DF0008C91811107C0422DF5016081D8018C9121
:102E00000E943511BB81B85FBB8333948091300140
:102E1000381608F48CCF572C762C03C0EF81EB8347
:102E2000312C2F81229526952695237030E08091B4
:102E30002F01829586958695837090E0FF818F0F94
:102E4000911D2817390709F469C06B818C810E9494
:102E5000E81128853985230D311D3A8329835520B2
:102E600009F451C0312C0F2EFAE2AF2EF1E0BF2E43
:102E7000F02D09E211E00F2EFCE2CF2EF1E0DF2E63
:102E8000F02D88E090E0AC01471951093A010F2E6E
:102E9000F1E3EF2EF1E0FF2EF02D0F2EF0E38F2E59
:102EA000F1E09F2EF02DD5012C90F8014080622D8D
:102EB000842D0E944311D601ED91FC9129813A8124
:102EC000E20FF31F449150E0062C02C05595479540
:102ED0000A94E2F7482BD7019C91913009F4482BD2
:102EE000842D8F5FF8018083622D842D0E9435111F
:102EF000D4018C91E981FA81E80FF11DFA83E9830D
:102F000033943510D0CF80913101811107C040E05A
:102F100060912A01809129010E9435118C818F5F77
:102F20006F81850D0E94E8112B960FB6F894DEBFD5
:102F30000FBECDBFDF91CF911F910F91FF90EF900A
:102F4000DF90CF90BF90AF909F908F907F906F90C9
:102F50005F904F903F902F900895EF92FF920F93C4
:102F60001F93CF93DF93EC018881882319F190910F
:102F7000290120912E0130E0290F311D2038310523
:102F8000CCF421960F2EF9E2EF2EF1E0FF2EF02D7A
:102F90000EE211E00AC0F7019081F801208130E0D3
:102FA000290F311D203831052CF40E9438168991E3
:102FB0008111F1CFDF91CF911F910F91FF90EF9091
:102FC00008950F931F93CF93DF93CDB7DEB72C9760
:102FD0000FB6F894DEBF0FBECDBF61157105810538
:102FE000910521F480E30E94381645C161157105F1
:102FF000810520E8920709F43EC1FE0131962CE0DC
:10300000DF011D922A95E9F720E32B872A8729877C
:1030100028872F832E832D832C832B832A83298338
:1030200099235CF49B01AC0188279927DC01821B62
:10303000930BA40BB50B41E003C0DC01CB0140E0D6
:1030400081303AEC93073AE9A3073BE3B30794F0E6
:103050002A812F5F01C0232F9A5CAA49BB43322FDC
:103060003F5F81305AEC95075AE9A5075BE3B50746
:1030700094F72A83811521EE920725EFA20725E018
:10308000B20794F02B812F5F01C0232F915EA54FD3
:10309000B540322F3F5F811551EE950755EFA507DB
:1030A00055E0B50794F72B83803826E9920728E985
:1030B000A207B10594F02C812F5F01C0232F805807
:1030C0009649A849B109322F3F5F803856E99507E4
:1030D00058E9A507B10594F72C83803422E49207C0
:1030E0002FE0A207B10594F02D812F5F01C0232F9F
:1030F00080549244AF40B109322F3F5F803452E494
:1031000095075FE0A507B10594F72D83803A26E87F
:10311000920721E0A207B10594F02E812F5F01C034
:10312000232F805A9648A140B109322F3F5F803A41
:1031300056E8950751E0A507B10594F72E83803135
:1031400027E29207A105B1058CF02F812F5F01C006
:10315000232F80519742A109B109322F3F5F80315F
:1031600057E29507A105B1059CF72F83883E23E020
:103170009207A105B1058CF028852F5F01C0232F90
:10318000885E9340A109B109322F3F5F883E53E02A
:103190009507A105B1059CF7288784369105A105FF
:1031A000B10584F029852F5F01C0232F8456910932
:1031B000A109B109322F3F5F84369105A105B10500
:1031C000A4F729878A309105A105B1057CF02A85ED
:1031D0002F5F01C0232F0A97A109B109322F3F5F4A
:1031E0008A309105A105B105ACF72A871816190692
:1031F0001A061B065CF45B858C019D0101501109C8
:1032000021093109D9F7652F680F6B8789818033D0
:1032100061F480E08F5FE1E0F0E0EC0FFD1FE80F6C
:10322000F11D90819033B1F301C080E0442331F06F
:103230008150FE01E80FF11D9DE291834AE0481B99
:1032400020E090E0E1E0F0E0EC0FFD1FE20FF11D67
:10325000DF01A80FB91F3C9130832F5F421790F711
:10326000E1E0F0E0EC0FFD1FE20FF11D1082CE0156
:1032700001960E94AD172C960FB6F894DEBF0FBED4
:10328000CDBFDF91CF911F910F9108958F929F92A3
:10329000AF92BF92CF92DF92EF92FF926B017C01CF
:1032A00049015A0120E030E0A9010E943F1A811132
:1032B0000AC080E30E9438168EE20E94381680E32E
:1032C0000E9438164AC020E030E040E05FECC701C1
:1032D000B6010E948E1B88230CF43FC020E030E032
:1032E00040E05FE4C701B6010E943F1A8823ACF5B5
:1032F00020E030E0A901C701B6010E943F1A8823EF
:103300003CF4F7FAF094F7F8F0948DE20E94381646
:10331000C701B6010E94AB1A0E94E1178EE20E941B
:103320003816C701B6010E94B01A0E94DC1A9B0130
:10333000AC01C701B6010E94DA196B017C01C5011D
:10334000B4010E94DC1A9B01AC01C701B6010E94C6
:10335000921B0E94AB1A0E94E117FF90EF90DF9042
:10336000CF90BF90AF909F908F900895A19AA09A10
:10337000A99AA89A11B88CE080B984E086BF089514
:1033800081B1887F089584EA86BF06B607FEFDCF27
:103390000E94C019089585ED86BF06B604FCFDCFD6
:1033A000089583B984E886BF06B607FEFDCF0E9464
:1033B000C01908955058BB27AA270ED075C166D1F1
:1033C00030F06BD120F031F49F3F11F41EF45BC15B
:1033D0000EF4E095E7FB51C1E92F77D180F3BA17DE
:1033E000620773078407950718F071F49EF58FC183
:1033F0000EF4E0950B2EBA2FA02D0B01B901900110
:103400000C01CA01A0011124FF27591B99F0593F53
:1034100050F4503E68F11A16F040A22F232F342F9B
:103420004427585FF3CF469537952795A795F040E9
:103430005395C9F77EF41F16BA0B620B730B840BFE
:10344000BAF09150A1F0FF0FBB1F661F771F881FB6
:10345000C2F70EC0BA0F621F731F841F48F487950E
:1034600077956795B795F7959E3F08F0B3CF9395FD
:10347000880F08F09927EE0F979587950895D9D072
:1034800008F481E008950CD00FC107D140F0FED0C0
:1034900030F021F45F3F19F0F0C0511139C1F3C091
:1034A00014D198F39923C9F35523B1F3951B550B08
:1034B000BB27AA2762177307840738F09F5F5F4F07
:1034C000220F331F441FAA1FA9F333D00E2E3AF048
:1034D000E0E830D091505040E695001CCAF729D062
:1034E000FE2F27D0660F771F881FBB1F26173707B1
:1034F0004807AB07B0E809F0BB0B802DBF01FF27E1
:1035000093585F4F2AF09E3F510568F0B6C000C146
:103510005F3FECF3983EDCF3869577956795B7951A
:10352000F7959F5FC9F7880F911D9695879597F935
:103530000895E1E0660F771F881FBB1F62177307AE
:103540008407BA0720F0621B730B840BBA0BEE1FC3
:1035500088F7E095089504D06894B111D9C0089512
:10356000BCD088F09F5790F0B92F9927B751A0F0A1
:10357000D1F0660F771F881F991F1AF0BA95C9F707
:1035800012C0B13081F0C3D0B1E00895C0C0672F40
:10359000782F8827B85F39F0B93FCCF386957795B7
:1035A0006795B395D9F73EF49095809570956195A0
:1035B0007F4F8F4F9F4F0895E89409C097FB3EF4CB
:1035C00090958095709561957F4F8F4F9F4F992370
:1035D000A9F0F92F96E9BB279395F69587957795EE
:1035E0006795B795F111F8CFFAF4BB0F11F460FFAE
:1035F0001BC06F5F7F4F8F4F9F4F16C0882311F006
:1036000096E911C0772321F09EE8872F762F05C019
:10361000662371F096E8862F70E060E02AF09A95B4
:10362000660F771F881FDAF7880F9695879597F9A9
:103630000895990F0008550FAA0BE0E8FEEF161643
:103640001706E807F907C0F012161306E407F50796
:1036500098F0621B730B840B950B39F40A2661F00A
:10366000232B242B252B21F408950A2609F4A140AD
:10367000A6958FEF811D811D089597F99F6780E8BA
:1036800070E060E008959FEF80EC089500240A94B4
:103690001616170618060906089500240A9412162D
:1036A0001306140605060895092E0394000C11F460
:1036B000882352F0BB0F40F4BF2B11F460FF04C00D
:1036C0006F5F7F4F8F4F9F4F089557FD9058440F66
:1036D000551F59F05F3F71F04795880F97FB991F71
:1036E00061F09F3F79F0879508951216130614062E
:1036F000551FF2CF4695F1DF08C0161617061806BB
:10370000991FF1CF86957105610508940895E89495
:10371000BB2766277727CB0197F908958ADF08F43E
:103720008FEF08950BD0C0CFB1DF28F0B6DF18F0CF
:10373000952309F0A2CFA7CF1124EACFC6DFA0F3CB
:10374000959FD1F3950F50E0551F629FF001729F36
:10375000BB27F00DB11D639FAA27F00DB11DAA1F55
:10376000649F6627B00DA11D661F829F2227B00DA2
:10377000A11D621F739FB00DA11D621F839FA00D2D
:10378000611D221F749F3327A00D611D231F849F7D
:10379000600D211D822F762F6A2F11249F575040D4
:1037A0008AF0E1F088234AF0EE0FFF1FBB1F661F6F
:1037B000771F881F91505040A9F79E3F510570F028
:1037C0005CCFA6CF5F3FECF3983EDCF38695779510
:1037D0006795B795F795E7959F5FC1F7FE2B880F23
:1037E000911D9695879597F9089577DFE0F09E37BC
:1037F000D8F09639B8F49E3848F4672F782F882788
:10380000985FF9CF86957795679593959539D0F31D
:10381000B62FB1706B0F711D811D20F487957795C0
:103820006795939502C01CC073CF882371F47723EA
:1038300021F09850872B762F07C0662311F4992723
:103840000DC09051862B70E060E02AF09A95660FCB
:10385000771F881FDAF7880F9695879597F908954F
:103860009F3F31F0915020F4879577956795B795F4
:10387000880F911D9695879597F9089597FB072EC8
:1038800016F4009407D077FD09D00E94901C07FC25
:1038900005D03EF4909581959F4F08957095619560
:1038A0007F4F0895A1E21A2EAA1BBB1BFD010DC07C
:1038B000AA1FBB1FEE1FFF1FA217B307E407F507E0
:1038C00020F0A21BB30BE40BF50B661F771F881FBC
:1038D000991F1A9469F760957095809590959B0152
:1038E000AC01BD01CF010895052E97FB16F400949D
:1038F00007D057FD0DD00E94521C07FC09D07EF462
:1039000090958095709561957F4F8F4F9F4F08954B
:1039100050954095309521953F4F4F4F5F4F0895FB
:10392000AA1BBB1B51E107C0AA1FBB1FA617B707E5
:1039300010F0A61BB70B881F991F5A95A9F7809501
:0C3940009095BC01CD010895F894FFCFD4
:10394C0001609650BE3333A33F000400043333337D
:10395C003F0000803F060130004469675F50574DBF
:10396C00004172725F50574D005765656C204400E2
:10397C00526174696F004D61676E657473005364B6
:10398C006F776E2056004D6178207370656564000A
:10399C004465672F6B6D6800534D207374657073AD
:1039AC000043616C696272617465006F646F6D6570
:1039BC00746572207265736574006C6F6164206449
:1039CC00656661756C74730005060A0201000804D3
:0439DC00070E0108C9
:00000001FF
