:100000000C94910A0C94AE0A0C947C0B0C94AE0ADE
:100010000C944A0B0C94AE0A0C94AE0A0C94AE0AE3
:100020000C94AE0A0C94610B0C94120B0C94AE0A57
:100030000C94AE0A0C94AE0A0C94AE0A0C94AE0A60
:100040000C94AE0A0C94AE0A0C94AE0A0C94AE0A50
:100050000C94AE0A0C000000F01F00FC7F00FEFFB5
:10006000000FE00107C00107C00107C0010FE00158
:10007000FEFF00FC7F00F01F000C000000F01F00DE
:10008000FC7F00FEFF000FE00107C00107C0010771
:10009000C0010FE001FEFF00FC7F00F01F000C001C
:1000A0000000F01F00FC7F00FEFF000FE00107C012
:1000B0000107C00107C0010FE001FEFF00FC7F0047
:1000C000F01F000C000000F01F00FC7F00FEFF008E
:1000D0000FE00107C00107C00107C0010FE001FEEA
:1000E000FF00FC7F00F01F000C000000F01F00FC70
:1000F0007F00FEFF000FE00107C00107C00107C03D
:10010000010FE001FEFF00FC7F00F01F000C00006B
:1001100000F01F00FC7F00FEFF000FE00107C001A0
:1001200007C00107C0010FE001FEFF00FC7F00F0E7
:100130001F000C000000F01F00FC7F00FEFF000FFE
:10014000E00107C00107C00107C0010FE001FEFF89
:1001500000FC7F00F01F000C000000F01F00FC7F7F
:1001600000FEFF000FE00107C00107C00107C0014A
:100170000FE001FEFF00FC7F00F01F000C000000FC
:10018000F01F00FC7F00FEFF000FE00107C0010729
:10019000C00107C0010FE001FEFF00FC7F00F01F5F
:1001A000000C000000F01F00FC7F00FEFF000FE0CD
:1001B0000107C00107C00107C0010FE001FEFF00F9
:1001C000FC7F00F01F000C000000F01F00FC7F000F
:1001D000FEFF000FE00107C00107C00107C0010FCB
:1001E000E001FEFF00FC7F00F01F000C000000F0AB
:1001F0001F00FC7F00FEFF000FE00107C00107C0E9
:100200000107C0010FE001FEFF00FC7F00F01F00AE
:100210000C000000F01F00FC7F00FEFF000FE0015B
:1002200007C00107C00107C0010FE001FEFF00FC8D
:100230007F00F01F000C000000F01F00FC7F00FE9C
:10024000FF000FE00107C00107C00107C0010FE078
:1002500001FEFF00FC7F00F01F000400000000C052
:100260000100C00100C0010000000000000000000B
:100270000000000000000000000000000000000C72
:1002800000800100F801C0FF01FC7F00FF07003F74
:10029000000003000000000000000000000000005B
:1002A000000000000C000000F01F00FC7F00FEFFBB
:1002B000000FE00107C00107C00107C0010FE00106
:1002C000FEFF00FC7F00F01F000C0000000000009B
:1002D0006000007000007800003C00001E0000FF7D
:1002E000FF01FFFF01FFFF010000000000000C0004
:1002F00000003880013CE0013EF0010FF80107FCEE
:100300000107DE0107CF018FC701FEC301FEC10156
:1003100078C0010C0000001838001E78001EF8009C
:100320000FE001C7C101C7C101E7C101FFE3017EC1
:10033000FF003C7F00003E000C000000003E0080FB
:100340003F00C03F00F039007838003E3800FFFF22
:1003500001FFFF01FFFF010038000038000C000022
:1003600000803900FC7900FFF900FFE001E7C001DF
:10037000E7C001E7C001E7E101C7FF00877F000098
:100380001F000C000000F01F00FC7F00FEFF008E2D
:10039000E301C7C101C7C101C7C101CFE3019EFF8E
:1003A000009E7F00183E000C0000000700000700C0
:1003B0000007E00107FC0187FF01E71F00F70300CA
:1003C000FF00003F00001F00000700000C000000BD
:1003D000783C00FEFE00FEFF00CFE70187C30187E7
:1003E000C30187C301CFE701FEFF00FEFE00783C9A
:1003F000000C000000F83000FCF300FEF3008FE773
:100400000107C70107C70107C7018FE300FEFF000F
:10041000FC7F00F01F001200FE7F00C0FFFF07F806
:10042000FFFF1FFC01803F3E00007C0E0000700FAC
:100430000000F0070000E0070000E0070000E00F08
:100440000000F00E0000703E00007CFC01803FF8D0
:10045000FFFF1FE0FFFF0300FE7F0000000000120F
:1004600000FE7F00C0FFFF07F8FFFF1FFC01803F79
:100470003E00007C0E0000700F0000F0070000E05E
:10048000070000E0070000E00F0000F00E00007021
:100490003E00007CFC01803FF8FFFF1FE0FFFF03F0
:1004A00000FE7F00000000001200FE7F00C0FFFF82
:1004B00007F8FFFF1FFC01803F3E00007C0E00009C
:1004C000700F0000F0070000E0070000E0070000E8
:1004D000E00F0000F00E0000703E00007CFC018088
:1004E0003FF8FFFF1FE0FFFF0300FE7F000000005A
:1004F000001200FE7F00C0FFFF07F8FFFF1FFC0196
:10050000803F3E00007C0E0000700F0000F00700EE
:1005100000E0070000E0070000E00F0000F00E0020
:1005200000703E00007CFC01803FF8FFFF1FE0FFF1
:10053000FF0300FE7F00000000001200FE7F00C0ED
:10054000FFFF07F8FFFF1FFC01803F3E00007C0E0D
:100550000000700F0000F0070000E0070000E00757
:100560000000E00F0000F00E0000703E00007CFC78
:1005700001803FF8FFFF1FE0FFFF0300FE7F000048
:100580000000001200FE7F00C0FFFF07F8FFFF1F02
:10059000FC01803F3E00007C0E0000700F0000F068
:1005A000070000E0070000E0070000E00F0000F097
:1005B0000E0000703E00007CFC01803FF8FFFF1F32
:1005C000E0FFFF0300FE7F00000000001200FE7F3E
:1005D00000C0FFFF07F8FFFF1FFC01803F3E000047
:1005E0007C0E0000700F0000F0070000E007000024
:1005F000E0070000E00F0000F00E0000703E000079
:100600007CFC01803FF8FFFF1FE0FFFF0300FE7F3F
:1006100000000000001200FE7F00C0FFFF07F8FF8F
:10062000FF1FFC01803F3E00007C0E0000700F00A9
:1006300000F0070000E0070000E0070000E00F0006
:1006400000F00E0000703E00007CFC01803FF8FFCF
:10065000FF1FE0FFFF0300FE7F000000000012000C
:10066000FE7F00C0FFFF07F8FFFF1FFC01803F3E39
:1006700000007C0E0000700F0000F0070000E00793
:100680000000E0070000E00F0000F00E0000703EE8
:1006900000007CFC01803FF8FFFF1FE0FFFF03002C
:1006A000FE7F00000000001200FE7F00C0FFFF0779
:1006B000F8FFFF1FFC01803F3E00007C0E00007031
:1006C0000F0000F0070000E0070000E0070000E076
:1006D0000F0000F00E0000703E00007CFC01803F27
:1006E000F8FFFF1FE0FFFF0300FE7F000000000097
:1006F0001200FE7F00C0FFFF07F8FFFF1FFC018014
:100700003F3E00007C0E0000700F0000F00700006C
:10071000E0070000E0070000E00F0000F00E00001E
:10072000703E00007CFC01803FF8FFFF1FE0FFFFF0
:100730000300FE7F00000000001200FE7F00C0FFEB
:10074000FF07F8FFFF1FFC01803F3E00007C0E000A
:1007500000700F0000F0070000E0070000E0070055
:1007600000E00F0000F00E0000703E00007CFC0175
:10077000803FF8FFFF1FE0FFFF0300FE7F00000047
:1007800000001200FE7F00C0FFFF07F8FFFF1FFC04
:1007900001803F3E00007C0E0000700F0000F0075B
:1007A0000000E0070000E0070000E00F0000F00E8E
:1007B0000000703E00007CFC01803FF8FFFF1FE05E
:1007C000FFFF0300FE7F00000000001200FE7F001C
:1007D000C0FFFF07F8FFFF1FFC01803F3E00007CC9
:1007E0000E0000700F0000F0070000E0070000E0BE
:1007F000070000E00F0000F00E0000703E00007CDB
:10080000FC01803FF8FFFF1FE0FFFF0300FE7F00B9
:1008100000000000090000000000000000000000CF
:1008200000000000F0000000F0000000F0000000F8
:1008300000000000000000000000000000000000B8
:1008400000000000000000000000000000000000A8
:10085000000000000000000000000000001200FE88
:100860007F00C0FFFF07F8FFFF1FFC01803F3E0035
:10087000007C0E0000700F0000F0070000E0070091
:1008800000E0070000E00F0000F00E0000703E00E6
:10089000007CFC01803FF8FFFF1FE0FFFF0300FE2C
:1008A0007F00000000001200FE7F00C0FFFF07F87D
:1008B000FFFF1FFC01803F3E00007C0E0000700F18
:1008C0000000F0070000E0070000E0070000E00F74
:1008D0000000F00E0000703E00007CFC01803FF83C
:1008E000FFFF1FE0FFFF0300FE7F0000000000127B
:1008F000000000000000000000000000000E0000EA
:100900000007000080030000C0030000E0010000B9
:10091000F8000000FEFFFFFFFFFFFFFFFFFFFFFFEC
:1009200000000000000000000000000000000000C7
:10093000000000000000000012C00100E0F0010013
:10094000F8FC0100FE3C0000FF1E0080EF0F00C01D
:10095000E70700E0E10700F0E0070078E007003C6F
:10096000E007001FE00F800FE01EC007E03EF80325
:10097000E0FCFF00E0F07F00E0C00F00E0000000BE
:100980000012C0008003F000800FFC00801F3E00BA
:10099000003E1E0000780F0000F007E000E007E0D6
:1009A00000E007E000E007E000E00FF000E00EF8F4
:1009B00001703EFC0378FCBF073EF89FFF1FE00775
:1009C000FE0F0000F80300000000120000F000001D
:1009D00000FC000000FF0000C0FF0000F0E7000086
:1009E000F8E100007EE000801FE000E007E000F892
:1009F00001E0007E00E000FFFFFFFFFFFFFFFFFFC1
:100A0000FFFFFF0000E0000000E0000000E0000049
:100A100000E0001200C0800300FF800FF8FF811F7C
:100A2000FFFF003EFF780078073800F0071C00E069
:100A3000071C00E0071C00E0071C00E0073C00F07A
:100A4000073800700778007C07F0013F07E0FF1FC0
:100A500007C0FF070000FE01000000001200FC7F3D
:100A600000C0FFFF07F0FFFF0FF880073E3CC0010A
:100A7000781EE000700E7000F0077000E007700054
:100A8000E0077000E0077000E00FF000F00EE001FA
:100A9000783EC0073EFC80FF1FF800FF0FE000FC1F
:100AA000010000000012070000000700000007001E
:100AB000000007000000070000F80700C0FF070063
:100AC000FCFF0780FF0707E03F0007F8070007FE6D
:100AD0000000871F0000E7070000F70100007F000B
:100AE00000001F0000000F000000000000001200C6
:100AF00000F803E007FE0FF81FFF1FFCBF0F3E3E8C
:100B0000FC03780EF0017007E000E007E000E0076A
:100B1000E000E007E000E00FE000E00EF001703ED2
:100B2000FC0378FCBF0F3EF81FFF1FE007FE0F001D
:100B300000F8030000000012C03F0007F0FF001F94
:100B4000F8FF013F7CE0037C1E8007700F000FF070
:100B50000F000EE007000EE007000EE007000EE0B9
:100B600007000E700E0007781E80033C7CE0811F9A
:100B7000F0FFFF0FE0FFFF0300FE3F00000000005A
:100B80000500000000000500005F000005000700F0
:100B9000070005147F147F1405242A7F2A120523D9
:100BA0001308646205364956205005080703000003
:100BB00005001C224100050041221C000514083ECE
:100BC00008140508083E08080500B0700000050874
:100BD00008080808050060600000052010080402ED
:100BE000053E5149453E0500427F40000572494996
:100BF0004946052141494D33051814127F10052738
:100C000045454539053C4A49493105412111090706
:100C100005364949493605464949291E050000144B
:100C200000000500403400000508142241000514AE
:100C30001414141405412214080005020159090670
:100C4000053E415D594E057C1211127C057F4949D4
:100C50004936053E41414122057F4141413E057FE4
:100C600049494949057F09090909053E414151732F
:100C7000057F0808087F0500417F410005204041AD
:100C80003F01057F08142241057F40404040057F19
:100C9000020C027F057F0408107F053E4141413E62
:100CA000057F09090906053E4151215E057F0919A5
:100CB00029460526494949320501017F0101053FC1
:100CC0004040403F051F2040201F053F4038403F27
:100CD000056314081463050304780403056151498E
:100CE000454305007F41410005020408102005002E
:100CF00041417F000504020102040540404040409C
:100D000005070B000000052054547840057F284457
:100D1000443805384444442805384444287F05387D
:100D2000545454180500087E09020518A4A49C78A0
:100D3000057F080404780500447D400005204040FC
:100D40003D00057F102844000500417F4000057CE0
:100D500004780478057C0804047805384444443851
:100D600005FC182424180518242418FC057C080404
:100D700004080548545454240504043F4424053C05
:100D80004040207C051C2040201C053C4030403C5D
:100D9000054428102844054C9090907C05446454E8
:100DA0004C440500083641000500007700000500AE
:100DB0004136080005040204080405007F417F0055
:100DC0000000000000000000000000000000000023
:100DD0000000000080C0E0F0F8FCFEFFFFFF000014
:100DE0000000000000000000000000000000000003
:100DF00000000000000000000000000000000000F3
:100E000000000000000000000000000000000000E2
:100E100000000000000000000000000000000000D2
:100E2000000000000000000080C0E0F0F8FCFEFFC1
:100E3000FFFFFFFFFFFFFFFFFFFFC0C0C0C0C0C03C
:100E4000C0C0C0C0C0C0C0C0C0C0C0C0C0C0C0C0A2
:100E5000C0C0C0C0C0C0C0C0C0C0C0C0C0C0C0C092
:100E6000C0C0C0C0C0C0C0C0C0C0C0C0C0C0C0C082
:100E7000C0C0C0C0C0C0C0C00000000080C0E0F062
:100E8000F8FCFEFFFFFFFFFFFFFFFFFFFFFFFFFF7D
:100E9000FFFFFFFFFFFFFFFFFFFFFFFFFFFFFFFF62
:100EA000FFFFFFFFFFFFFFFFFFFFFFFFFFFFFFFF52
:100EB000FFFFFFFFFFFFFFFFFFFFFFFFFFFFFFFF42
:100EC000FFFFFFFFFFFFFFFFFFFFFFFFFFFFFFFF32
:100ED000FFFFFFFF081C3E7FFFFFFFFFFFFFFFFF3D
:100EE000FFFFFFFFFFFFFFFFFFFFFFFFFFFFFFFF12
:100EF000FFFFFFFFFFFFFFFFFFFFFFFFFFFFFFFF02
:100F0000FFFFFFFFFFFFFFFFFFFFFFFFFFFFFFFFF1
:100F1000FFFFFFFFFFFFFFFFFFFFFFFFFFFFFFFFE1
:100F2000FFFFFFFFFFFFFFFFFFFFFFFFFFFFFFFFD1
:100F300000000000000103070F1F3F7FFFFFFFFFBE
:100F4000FFFFFFFFFFFFFFFFFFFFFFFFFFFFFFFFB1
:100F5000FFFFFFFFFFFFFFFFFFFFFFFFFFFFFFFFA1
:100F6000FFFFFFFFFFFFFFFFFFFFFFFFFFFFFFFF91
:100F7000FFFFFFFFFFFFFFFFFFFFFFFFFFFFFFFF81
:100F8000FFFFFFFFFFFFFFFFFFFFFFFF000000006D
:100F90000000000000000000000103070F1F3F7F5A
:100FA000FFFFFFFFFFFFFFFFFFFF01010101010145
:100FB0000101010101010101010101010101010121
:100FC0000101010101010101010101010101010111
:100FD0000101010101010101010101010101010101
:100FE00001010101010101010000000000000000F9
:100FF00000000000000000000000000000010307E6
:101000000F1F3F7F7F7F00000000000000000000F6
:1010100000000000000000000000000000000000D0
:1010200000000000000000000000000000000000C0
:1010300000000000000000000000000000000000B0
:1010400000000000000000000000000000000000A0
:101050000000000000000000000000000000000090
:101060000000000000000000000000000000000080
:101070000000000000000000000000000000000070
:101080000000FFFFFFFEFCF8F0E0C0800000000061
:101090000000000000000000000000000000000050
:1010A000C0C0C0C0C0C0C0C0C0C0C0C0C0C0C0C040
:1010B000C0C0C0C0C0C0C0C0C0C0C0C0C0C0C0C030
:1010C000C0C0C0C0C0C0C0C0C0C0C0C0C0C0C0C020
:1010D000C0C0C0C0C0C0C0C0C0C0C0C0C0C0FFFF92
:1010E000FFFFFFFFFFFFFFFFFFFEFCF8F0E0C08007
:1010F000000000000000000000000000FFFFFFFFF4
:10110000FFFFFFFFFFFFFFFFFFFFFFFFFFFFFFFFEF
:10111000FFFFFFFFFFFFFFFFFFFFFFFFFFFFFFFFDF
:10112000FFFFFFFFFFFFFFFFFFFFFFFFFFFFFFFFCF
:10113000FFFFFFFFFFFFFFFFFFFFFFFFFFFFFFFFBF
:10114000FFFFFFFFFFFFFFFFFFFFFFFFFFFEFCF8BA
:10115000F0E0C08000000000FFFFFFFFFFFFFFFF87
:10116000FFFFFFFFFFFFFFFFFFFFFFFFFFFFFFFF8F
:10117000FFFFFFFFFFFFFFFFFFFFFFFFFFFFFFFF7F
:10118000FFFFFFFFFFFFFFFFFFFFFFFFFFFFFFFF6F
:10119000FFFFFFFFFFFFFFFFFFFFFFFFFFFFFFFF5F
:1011A000FFFFFFFFFFFFFFFFFFFFFFFFFFFFFFFF4F
:1011B0007F3E1C08FFFFFFFFFFFFFFFFFFFFFFFF5A
:1011C000FFFFFFFFFFFFFFFFFFFFFFFFFFFFFFFF2F
:1011D000FFFFFFFFFFFFFFFFFFFFFFFFFFFFFFFF1F
:1011E000FFFFFFFFFFFFFFFFFFFFFFFFFFFFFFFF0F
:1011F000FFFFFFFFFFFFFFFFFFFFFFFFFFFFFFFFFF
:10120000FFFFFFFF7F3F1F0F0703010000000000EB
:1012100001010101010101010101010101010101BE
:1012200001010101010101010101010101010101AE
:10123000010101010101010101010101010101019E
:101240000101010101010101010101010101FFFF92
:10125000FFFFFFFFFFFFFFFF7F3F1F0F070301009F
:10126000000000000000000000000000000000007E
:10127000000000000000000000000000000000006E
:10128000000000000000000000000000000000005E
:10129000000000000000000000000000000000004E
:1012A000000000000000000000007F7F7F3F1F0F54
:1012B0000703010000000000000000000000000023
:1012C0000000000000000000008080808084FCFEA0
:1012D000FEFEFEFEFEFEFEFC000000000000000020
:1012E000000080C0E0F0F8FCFCFEFEFFFFFFFFFF07
:1012F000FFFFFFFFFFFFFFFFFFFFFFFEFEFCFCF80D
:10130000F0E0C08000000000000000000000FCFED3
:10131000FEFEFEFEFEFEFEFC8080808080001F3F01
:101320003F3F3F3F7FFFFFFFFFFFFFFFFFF9F0E081
:10133000C0800000000000FEFFFFFFFFFFFFFFFF77
:10134000FFFFFFFFFFFFFFFFFFFFFFFFFFFFFFFFAD
:10135000FFFFFFFFFFFFFFFFFFFFFE000000000099
:1013600080C0E0F0F9FFFFFFFFFFFFFFFF7F3F3F7F
:101370003F3F3F1F00000000000000000103070F77
:101380001F3F7F7F7F7F7F7F7F7E0000007FFFFF8B
:10139000FFFFFF3F1F1F1F1F1F1F1F3FFFFFFFFFFD
:1013A000FFFF3F1F1F1F1F1F1F1F3FFFFFFFFFFFED
:1013B0007F0000007E7F7F7F7F7F7F7F3F1F0F0743
:1013C0000301000000000000000000000000000019
:1013D0000000000000000080C0E0F0F0F0F0F0F04D
:1013E000F0F000000101FFFFFFF0E0E0E0E0E0E0EE
:1013F000E0F00F0F0F0F0F0FF0E0E0E0E0E0E0E0B3
:10140000F0FFFFFF01010000F0F0F0F0F0F0F0F06D
:10141000E0C08000000000000000000000000000AC
:101420000000C0E0E0E0E0E0F0F8FCFEFFFFFFFFBE
:10143000FFFF7F3F1F0F0703000000000303031F90
:101440001F1FFFFFFFFFFFFFFCF8F8F8F8FCFFFF8E
:10145000FFFFFFFF1F1F1F03030300000000030720
:101460000F1F3F7FFFFFFFFFFFFFFEFCF8F0E0E0F4
:10147000E0E0E0C000000000070F0F0F0F0FFFFFBC
:10148000FFFFFFFFFFFFFFFC000000000000000067
:1014900000000000003E7E7EF0F0E08787830303BB
:1014A00003030303838787E0F0F07E7E3E000000A5
:1014B00000000000000000000000FCFFFFFFFFFF35
:1014C000FFFFFFFF0F0F0F0F0F07000000000000CE
:1014D0000000000000010101010101010100000004
:1014E00000000000000000000000000000000001FB
:1014F00003070F0F0F0F0F0F0F0F0F0F0703010041
:1015000000000000000000000000000000000000DB
:1015100000010101010101010100000000000000C3
:10152000000011241FBECFE5D8E0DEBFCDBF11E023
:10153000A0E6B0E0EAEDF3E402C005900D92A0321F
:10154000B107D9F725E0A0E2B1E001C01D92A036B5
:10155000B207E1F70E94A7140C94EB210C94000051
:1015600090913501992381F0909148019F5F90936C
:10157000480120914601309147012F5F3F4F309342
:101580004701209346010FC09091480191509093DC
:101590004801209146013091470121503109309393
:1015A00047012093460181110EC080914801882394
:1015B0001CF483E08093480180914801843034F129
:1015C0001092480123C08130E1F4809148018823C2
:1015D0001CF487E0809348018091480188302CF00A
:1015E0001092480102C08BBB0895E09148018BB373
:1015F000807F0E2E000CFF0BEC5EFE4F9081892B3E
:10160000F2CF809148018BB3807FEDCFE09148010C
:101610008BB3807F0E2E000CFF0BE45EFE4F90819B
:10162000892BE1CF1F920F920FB60F9211242F93A7
:101630003F934F935F936F937F938F939F93AF935A
:10164000BF93EF93FF93809166000E94B00A2091B0
:101650004601309147018091380190913901281756
:10166000390739F41092490113BE1CBE89B78D7F2A
:1016700089BFFF91EF91BF91AF919F918F917F9122
:101680006F915F914F913F912F910F900FBE0F90EF
:101690001F9018951F920F920FB60F9211248F93DF
:1016A0009F93809150019091510101969093510127
:1016B000809350019F918F910F900FBE0F901F90BC
:1016C00018951F920F920FB60F9211248F939F932C
:1016D00080913701882349F0809133019091340142
:1016E000019690933401809333019F918F910F90D5
:1016F0000FBE0F901F9018951F920F920FB60F926A
:1017000011242F933F934F935F938F939F93AF93A6
:10171000BF9380913601882369F140915001509127
:10172000510124B534E1349FC001359F900D11243F
:10173000820F911D90934F0180934E0114BC109223
:1017400051011092500181E080937D0080914A0107
:1017500090914B01A0914C01B0914D010196A11DBA
:10176000B11D80934A0190934B01A0934C01B0931B
:101770004D0107C089B7806889BF14BC81E08093A0
:101780003601BF91AF919F918F915F914F913F91A2
:101790002F910F900FBE0F901F9018958F929F92D0
:1017A000AF92BF92CF92DF92EF92FF920F93CF93BF
:1017B000DF93809137018111F3C00E9405190FEF6B
:1017C00027E144E26BE08AE00E948B1824E146E2C4
:1017D0006EE085E20E948B18809125019091260190
:1017E0008936910534F025E140E16DE08CE00E94FE
:1017F000091980912501909126018E3691053CF0C2
:101800000FEF25E146E16DE082E10E940919809128
:10181000250190912601833791053CF00FEF25E1DA
:101820004CE16DE088E10E940919809125019091B9
:101830002601883791053CF00FEF25E142E26DE08B
:101840008EE10E9409196FE08BE20E94741520E07E
:1018500048E065E080E89BE00E94E5196091250181
:1018600070912601072E000C880B990B0E94C41E54
:1018700020E030E040E251E40E941A1E2AE030E00D
:1018800040E050E00E94141D87EC90E00E947B1B1A
:1018900020E040E262E186E194E00E94E5196FE118
:1018A00084E00E94741580902F0190903001A090E8
:1018B0003101B090320184E688169104A104B1048C
:1018C00070F0C501B4012AE030E040E050E00E9431
:1018D0004720211531054105510529F45BC024E657
:1018E00030E040E050E0C0E00F2EFAE0CF2ED12CE7
:1018F000E12CF12CF02DCA01B901A70196010E943B
:101900004720CF5F2115310541055105A1F784E638
:1019100088169104A104B104F0F5D4E0C0E08EE78C
:1019200090E00E947B1BCF5FCD17CCF360912F011D
:101930007091300180913101909132010E94C21E5C
:1019400020E030E048EC52E40E941A1E2AE030E029
:1019500040E050E00E94141D20E048E065E080E88F
:101960009BE00E94E51960E080E40E94741560919C
:101970003A0170913B0180913C0190913D012AE038
:1019800030E040E050E00E94141D0E9434150E9497
:10199000341506C0C0E0D6E0DC1B1D163CF6BECFF9
:1019A000DF91CF910F91FF90EF90DF90CF90BF909C
:1019B000AF909F908F90089580916600811119C01B
:1019C00020912701309128014091290150912A014D
:1019D00060913A0170913B0180913C0190913D01F1
:1019E0000E941A1E0E94931E709339016093380161
:1019F0001AC08130C1F42091270130912801409113
:101A0000290150912A0160913A0170913B01809126
:101A10003C0190913D010E941A1E0E94931E7093FA
:101A200039016093380180914601909147012091DE
:101A3000380130913901821B930B181619061CF4DA
:101A40001092350105C021E020933501892B71F0FA
:101A500081E08093490183B78D6083BF80916900E5
:101A60008CBF89B7826089BF0E94CE0B0895B59B59
:101A700004C0B69B02C0B79932C0B59934C02FEFED
:101A800080E792E0215080409040E1F700C00000E4
:101A900096B381E0292F207295FD80E0B6990EC0A3
:101AA000222329F12FEF80E792E0215080409040DF
:101AB000E1F700C00000B69B19C01BC0B79920C059
:101AC0002223F1F02FEF80E792E0215080409040F8
:101AD000E1F700C00000B79904C083E0089580E0FA
:101AE000089580E00895B69908C0DCCF82E096B3EF
:101AF0000895B79BE7CF80E00895B79BE3CF80E0E0
:101B00000895882381F00E94051967E086E10E940C
:101B100074152FEF47E36CE584E490E10E942717EA
:101B20000E94341508950E94051967E086E10E941D
:101B300074152FEF47E36CE580EC9DE00E942717BA
:101B40000E94341508950E94051967E08BE10E94F8
:101B500074152FEF44E366E588EC92E10E942717A5
:101B60000E9434150895B4990CC0B39B0AC080E05C
:101B70000E94810D81E08093370110923401109210
:101B80003301B3990FC0B49B0DC081E00E94810D59
:101B900081E0809337011092340110923301B49B9D
:101BA00031C033C0B4990CC0B3990AC00E94A30DD0
:101BB00081E080933701109234011092330125C0E7
:101BC00080913701882319F1B39B09C0B49B07C0EA
:101BD0000E9405190E94341589B7846089BF8091DD
:101BE0003301909134018D32914088F01092370189
:101BF000109234011092330189B78B7F89BF0E9404
:101C0000CE0B0895B399E0CFD1CFB399DFCF08952C
:101C100087B970E0161617068CF420E030E080E0FB
:101C200090E0369A3699FECF44B155B1840F951F96
:101C30002F5F3F4F26173707A1F702C080E090E0E3
:101C40000E943320CB0108950F931F936AE084E034
:101C50000E94080EBC01990F880B990B0E94C41EAC
:101C60002AE939E94CEC52E40E941A1E20E030E0E7
:101C700040E250E40E94791F20E030E040EC50E464
:101C80000E94791F0E948C1E70932401609323018F
:101C900020912501309126012617370731F07093E6
:101CA0002601609325010E94CE0B60914A0170913C
:101CB0004B0180914C0190914D010E94C21E0E94E7
:101CC000E61F20913E0130913F014091400150912B
:101CD00041010E94791F20E030E040E251E40E947F
:101CE0001A1E0E94931E60932B0170932C01809307
:101CF0002D0190932E0100912F0110913001209120
:101D0000310130913201601771078207930751F05A
:101D100060932F01709330018093310190933201D1
:101D20000E94CE0B1F910F9108958F929F92AF92B8
:101D3000BF92EF92FF921F93CF93DF93EC01E62EB9
:101D4000413009F06AC060E00E94C121F12CCE0D43
:101D5000DF1D60916D0070916E00CE010E94D62152
:101D6000CE0DDF1D60916B0070916C00CE010E9462
:101D7000D621CE0DDF1D60916A00CE010E94C121E7
:101D8000CE0DDF1D60916900CE010E94C121CE0DF4
:101D9000DF1D6091670070916800CE010E94D6211E
:101DA000CE0DDF1D60917C00CE010E94C121CE0DC1
:101DB000DF1D60917B00CE010E94C121CE0DDF1D91
:101DC00060916600CE010E94C121CE0DDF1D4091C1
:101DD0007300509174006091750070917600CE018F
:101DE0000E94CE21CE0DDF1D4091770050917800EA
:101DF0006091790070917A00CE010E94CE214091CD
:101E00006F00509170006091710070917200C70175
:101E10008C0F9D1F0E94CE21AFC04111A9C0E62E9C
:101E2000F12CCE0DDF1DCE010E94BB2190936E00E0
:101E300080936D00CE0DDF1DCE010E94BB219093DB
:101E40006C0080936B00CE0DDF1DCE010E94AD2192
:101E500080936A00CE0DDF1DCE010E94AD218093DC
:101E60006900CE0DDF1DCE010E94BB21909368005A
:101E700080936700CE0DDF1DCE010E94AD218093BF
:101E80007C00CE0DDF1DCE010E94AD2180937B0032
:101E9000CE0DDF1DCE010E94AD2180936600CE0DD8
:101EA000DF1DCE010E94B521609373007093740012
:101EB0008093750090937600CE0DDF1DCE010E94B9
:101EC000B5216093770070937800809379009093A8
:101ED0007A00C7018C0F9D1F0E94B52160936F008F
:101EE00070937000809371009093720045C0F12C44
:101EF00011E0CE010E94B52180904A0190904B01E3
:101F0000A0904C01B0904D0186169706A806B90620
:101F100050F460934A0170934B0180934C0190936D
:101F20004D01109322011F5FCE0DDF1D143309F701
:101F300023C0433009F540914A0150914B01609113
:101F40004C0170914D01809122019E018E9D200DCA
:101F5000311D1124C9010E94CE21809122018F5F81
:101F6000833318F48093220107C01092220104C029
:101F7000423009F4BCCFDDCFDF91CF911F91FF90AC
:101F8000EF90BF90AF909F908F900895CF92DF9287
:101F9000EF92FF92CF932BED3FE049E450E4609144
:101FA00073007091740080917500909176000E948A
:101FB000791F6B017C0160917B0070E080E090E014
:101FC0000E94C41E9B01AC01C701B6010E941A1EEB
:101FD00060933E0170933F018093400190934101D3
:101FE0008DEB97E3A6E8B7E380934201909343011A
:101FF000A0934401B0934501D39AD09AD29AD19A32
:102000008C9A8D9ADB9AD89AC59AC69AC79A379AAB
:10201000309A319A329A88E090E00E94AD2188236C
:1020200079F041E064E088E090E00E94950EC3E31F
:1020300043E064E080E890E00E94950EC150C1F753
:1020400040E064E088E090E00E94950E80912201DB
:10205000833310F01092220142E064E080E890E0C7
:102060000E94950E85B58E6085BD84E183BD83EAAF
:102070008FBD8BE08EBD80916D0090916E009BBDF9
:102080008ABD80916B0090916C0099BD88BD809154
:102090006600811123C0609167007091680080E044
:1020A00090E00E94C21E9B01AC0160E070E084EBF6
:1020B00093E40E941A1E20916F00309170004091AD
:1020C0007100509172000E941A1E60932701709354
:1020D00028018093290190932A0124C0813011F5B1
:1020E000609167007091680080E090E00E94C21EDD
:1020F0009B01AC0160E070E084E393E40E941A1E4F
:1021000020916F00309170004091710050917200E9
:102110000E941A1E60932701709328018093290161
:1021200090932A010E947D150E94051980917C00E0
:102130000E945E150E943415789485B7886085BF2B
:102140008BB780688BBFCF91FF90EF90DF90CF90DF
:102150000895CF9380915001909151018139914020
:10216000F4F0F89443E064E080E890E00E94950E7B
:10217000789489B78F7789BF14BC1092510110925F
:10218000500110924F0110924E0110923A0110929C
:102190003B0110923C0110923D011092360180915A
:1021A0007D008823D1F180914E0190914F01892BC0
:1021B000A1F160914E0170914F01072E000C880B28
:1021C000990B0E94C41E209142013091430140911D
:1021D0004401509145010E94791F9B01AC0160E0D0
:1021E00070E080E89FE30E941A1E26E636E646E687
:1021F00050E40E94791F20913E0130913F014091AF
:102200004001509141010E94791F60933A017093FF
:102210003B0180933C0190933D01C0916A006C2F7B
:1022200070E080E090E00E94C41E20913A0130915D
:102230003B0140913C0150913D010E94151E8823B5
:1022400074F46C2F70E080E090E00E94C21E6093F6
:102250003A0170933B0180933C0190933D011092B1
:102260007D00CF910895CF93DF9300D000D01F92CF
:10227000CDB7DEB77C015B016A012D8320E048E029
:1022800065E080E89BE00E94E5190E94051981E065
:102290000E94DF158AE00E946815C8010E947B1B1E
:1022A00088E00E946D158AE50E94681580E890E03C
:1022B0000E947B1B84E10E946D158AE50E946815CF
:1022C00085E890E00E947B1B80E20E946D158AE504
:1022D0000E9468158AE890E00E947B1B87E30E94B9
:1022E0006D1586E00E9468158FE890E00E947B1BC8
:1022F00086E40E94681584E990E00E947B1B8CE1D3
:102300000E9468152D81222309F444C030E0121682
:1023100013068CF480E091E0492E440C942D990F23
:10232000990F940D8F5F482F082E000C550B421704
:10233000530794F301C091E0492E512C612C712C6C
:10234000C301B2010E94C21E69837A838B839C837E
:10235000B70180E090E00E94C21E29813A814B8142
:102360005C810E941A1EA30192010E94141D8FE538
:102370000E946815B50180E090E00E94C21E29818C
:102380003A814B815C810E941A1EA30192010E9436
:10239000141D0DC0B70180E090E00E94AF1B8FE5D7
:1023A0000E946815B50180E090E00E94AF1B0E947A
:1023B00034153FEF83EC99E0315080409040E1F7D5
:1023C00000C0000088E10E946D1585E00E9468153C
:1023D00020E041E16CE084E590E00E94E519C11441
:1023E000D10491F09601912CADECBCEC0E946920D7
:1023F0009C01369527953695279536952795939484
:102400002115310589F701C0912CE114F10409F47B
:102410001AC1198201C009839701ADECBCEC0E947E
:1024200069207C01F694E794F694E794F694E79497
:1024300009810F5FE114F10471F710E0C8010E94F7
:102440008C207C0158011A141B040CF042C080E05F
:1024500090E0E0E0492D50E08417950764F596017F
:10246000ADECBCEC0E946920969587959695879572
:10247000969587959C01220F331F880F991F880F0F
:10248000991F880F991F820F931F9601281B390BE4
:10249000D701AE0FB11DE7FDBA952C939601ADECB7
:1024A000BCEC0E9469206C01D694C794D694C79462
:1024B000D694C79406C0D701AE0FB11DE7FDBA95FB
:1024C0001C92EF5F8E2F0E2E000C990B8A159B0528
:1024D0001CF2015011098DE0089F702C112415E0A9
:1024E000170D8980882014F13D81432E512C89815C
:1024F000C82E880FDD08F701EC0DFD1D6081062E4A
:10250000000C770B880B990B0E94AF1BC414D504E9
:1025100041F49D81992329F089E990E00E947B1B79
:102520001B5F29812150298322230CF74CE0410FA6
:1025300028E268E1812F0E940E190E943415912C27
:102540000F2EF9E05F2EF02D3D81C32ED12C0F2EE2
:10255000F3EF6F2EF02D0E94370D8823E1F38130C9
:1025600051F49394892D092C000C990B8A159B0525
:10257000E9F4912C1BC0833061F4F701E90DF11DE2
:1025800097FCFA9580818F5F8A300CF46BC01082C3
:102590000DC0823059F4F701E90DF11D97FCFA9551
:1025A0008081815012F0808301C050820E94370DDB
:1025B0008111FCCF00E028E344E068E184E00E9460
:1025C0008B1888E10E946D1585E00E9468158820AF
:1025D000FCF089828981082F880F110BF701E00F29
:1025E000F11F6081062E000C770B880B990B0E945F
:1025F000AF1B0C151D0539F49D81992321F089E944
:1026000090E00E947B1B298121502983222314F70B
:10261000972D969C900D112485E0890F3D813323E1
:1026200049F0292D092C000C330B2C153D0514F411
:102630008AE0890F4CE0480F28E268E10E940E19F9
:102640000E94341588CF80E090E00E948C207C01AD
:1026500088248A940F2EF3EF7F2EF02DA12CB12C1D
:1026600018EF64CF8083A2CF80912101882314F4D6
:102670001092210180912001863044F08091210147
:102680008F5F809321011092200119C088235CF490
:102690008091210181508093210195E09093200148
:1026A000823069F408C080912101823041F4809128
:1026B0002001823024F010922101109220010E940A
:1026C000051921E048E065E080E89BE00E94E519FB
:1026D00080912101811181C08AE00E94681581E00A
:1026E0000E94DF158BE990E00E947B1B8BE40E9427
:1026F000681560916B0070916C0080E090E00E9422
:10270000AF1B8AE00E94681582E00E94DF1584EA10
:1027100090E00E947B1B8BE40E94681560916D0025
:1027200070916E0080E090E00E94AF1B8AE00E94F2
:10273000681583E00E94DF158CEA90E00E947B1B05
:102740008BE40E9468156091730070917400809111
:1027500075009091760024E630E040E050E00E9461
:10276000141D8AE00E94681584E00E94DF1583EB47
:1027700090E00E947B1B8BE40E94681560917700BB
:10278000709178008091790090917A0024E630E091
:1027900040E050E00E94141D8AE00E94681585E028
:1027A0000E94DF1589EB90E00E947B1B8BE40E9466
:1027B000681560917B0070E080E090E00E94AF1BA4
:1027C0008AE00E94681586E00E94DF1581EC90E0A7
:1027D0000E947B1B8BE40E9468158091210181304F
:1027E00009F065C08AE00E94681581E00E94DF154B
:1027F00089EC90E00E947B1B8BE40E94681560913D
:102800006A0070E080E090E00E94AF1B8AE00E94C6
:10281000681582E00E94DF1583ED90E00E947B1B2B
:102820008BE40E94681560916F0070917000809138
:1028300071009091720028EE33E040E050E00E9479
:10284000141D8AE00E94681583E00E94DF158BED5D
:1028500090E00E947B1B8BE40E94681560916700EA
:102860007091680080E090E00E94AF1B8AE00E94B7
:10287000681584E00E94DF158EED90E00E947B1BBE
:102880008BE40E9468156091690070E080E090E040
:102890000E94AF1B8AE00E94681585E00E94DF1548
:1028A00084EE90E00E947B1B8BE40E94681580916F
:1028B00021018230A1F48AE00E94681581E00E9423
:1028C000DF158EEE90E00E947B1B8AE00E94681567
:1028D00082E00E94DF158DEF90E00E947B1B6091EB
:1028E0002001660F660F660F2FE0260F695F4FE726
:1028F00080E00E940E190E9434150E94370D882333
:10290000E1F3813079F48091200181111AC00BE04C
:1029100011E022E042ED54E060E070E089E390E3F2
:102920000E943311823031F4809120018F5F8093B7
:10293000200107C0833029F48091200181508093C9
:1029400020010E94370D8111FCCF0E9434130E9498
:10295000C60F0E94240E0E94A9100E94DC0C0E9447
:10296000B30D0E94370D8823A1F30E94341366959E
:102970006695669590E8699FB0011124680F711DF6
:10298000FB01E45AFE4F408308956695669566956F
:1029900090E8699FB0011124680F711DFB01E45A92
:1029A000FE4F80810895FF920F931F93CF93DF9383
:1029B000C82F062F172FF42E0E94911D0E948E1DE6
:1029C000883031F0803121F081E08093520133C0B2
:1029D00088E70E949F1D0E948E1D883131F0803251
:1029E00021F081E08093520126C08C2F0E949F1D10
:1029F0000E948E1D883219F4F11007C01AC080336E
:102A0000D9F381E08093520116C0C02FD12F8E01DF
:102A10000F5F1F4FFA940F0D111D89910E949F1D8A
:102A20000E948E1D883211F0803319F4C017D1072F
:102A3000A1F7109252010E94991DDF91CF911F9131
:102A40000F91FF900895CF93DF931F92CDB7DEB71C
:102A5000898341E0BE016F5F7F4F80E00E94D31405
:102A60000F90DF91CF910895CF93DF9381E20E9481
:102A7000231580E00E9423158FE70E94231582E230
:102A80000E94231580E00E94231587E00E942315F1
:102A9000C0E0D0E0BE0162957295707F7627607FBE
:102AA0007627645A7E4F40E180E40E94D314219639
:102AB000C034D10579F7DF91CF910895CF93C82F16
:102AC00081E80E9423158C2F0E942315CF91089531
:102AD000882314F080935301089590915401903409
:102AE00010F4809354010895CF93C62F0E94681567
:102AF0008C2F0E946D15CF9108950E94841D8EEA3F
:102B00000E94231585ED0E94231580EF0E94231556
:102B100088EA0E9423158FE30E94231583ED0E940B
:102B2000231580E00E9423158DE80E94231584E17F
:102B30000E94231580E40E94231580E20E94231541
:102B400080E00E94231581EA0E94231588EC0E94F0
:102B500023158AED0E94231582E10E94231581E846
:102B60000E9423158FEF0E94231589ED0E942315E3
:102B700081EF0E9423158BED0E94231580E20E94B5
:102B8000231584EA0E94231586EA0E9423158EE20B
:102B90000E9423158FEA0E94231560E080E00E94C6
:102BA000741586EA8093550110925A0110925901CA
:102BB00010925801109254011092530108958830D8
:102BC00028F4880F880F880F80935401089580910E
:102BD000530108958F929F92AF92BF92CF92DF924E
:102BE000EF92FF920F931F93CF93DF93062F142F33
:102BF0000E947415D0915401C09153016D2F8C2FF8
:102C00000E94C5141F3F91F4902F9770812C912C36
:102C1000540183947501640104C0CC0CDD1CEE1CCE
:102C2000FF1C9A95D2F7482F4C2913C00770C12C6E
:102C3000D12C7601C394B701A60104C0440F551FDF
:102C4000661F771F0A95D2F78A019B010095482FCE
:102C500040236D2F8C2F0E94B714DF91CF911F91CD
:102C60000F91FF90EF90DF90CF90BF90AF909F902B
:102C70008F9008953F924F925F926F927F928F92C2
:102C80009F92AF92BF92CF92DF92EF92FF920F93FB
:102C90001F93CF93DF93982E88230CF4C6C0442350
:102CA0000CF4C3C0603408F0C0C0203408F0BDC0CC
:102CB00011E0812E861A820E181B140F462F4770C2
:102CC000762E741AE82CF12C88E090E0841B910990
:102CD000E816F9067CF488E090E08E199F092FEF42
:102CE00030E0590102C0B594A7948A95E2F78A2D85
:102CF000682C04C088E0682E641A8FEFA82EB12CCF
:102D000002C0AA0CBB1C4A95E2F73A2C672D892D0C
:102D10000E9474151123C9F1512C0F2EF4E5CF2E0A
:102D2000F1E0DF2EF02DC3E5D1E0A094F601408064
:102D3000B880642D8B2D0E94C5140F3F19F4482FC5
:102D4000432902C0482F4A219B2D9F5F9883642D01
:102D50008B2D0E94B71453945112E8CF16C0C85F50
:102D60006C2F892D0E9474151123F1F07A2CF60135
:102D70006081F2018081982F9F5F9083402F0E9495
:102D8000B7147394711681F0F2CFC72D6718A12C78
:102D90000F2EF4E5CF2EF1E0DF2EF02D0F2EF3E510
:102DA0004F2EF1E05F2EF02D262D2C0FE22FF0E0BC
:102DB000CF010896E816F90694F62815B0F5EE1A34
:102DC000FF0A8FEF90E09C0102C0220F331FEA94AC
:102DD000E2F77901E0946C2F685F892D0E947415E9
:102DE000112319F1B12C0F2EF4E5CF2EF1E0DF2ED7
:102DF000F02DC3E5D1E09E2C9094F601A080F880E0
:102E00006A2D8F2D0E94C5140F3F19F4482F4E29AB
:102E100002C0482F49219F2D9F5F98836A2D8F2DD7
:102E20000E94B714B394B112E8CFDF91CF911F91F4
:102E30000F91FF90EF90DF90CF90BF90AF909F9059
:102E40008F907F906F905F904F903F9008952F925A
:102E50003F924F925F926F927F928F929F92AF922A
:102E6000BF92CF92DF92EF92FF920F931F93CF9377
:102E7000DF93CDB7DEB72C970FB6F894DEBF0FBE49
:102E8000CDBF5C01662E2983209153012F833091A1
:102E900054013A87822F860F1AF480E8682E621A4E
:102EA000842F90E0079695958795959587959595AC
:102EB00087958D839E839A85969596959695890F8D
:102EC000893048F02D813E81285F3F4FA901481B82
:102ED00051095E834D834A8457E045228D819E814E
:102EE000892B09F4FAC09A859C83712C262C312CED
:102EF000512C88E090E0FC01E419F109FB83EA839E
:102F00000F2EF4E5CF2EF1E0DF2EF02D03E511E0DA
:102F10006C818F810E94741539862886729CC0014D
:102F2000739C900D11247C01E218F308662009F4CB
:102F30003CC09C012A0D3B1D852C3C872B87EB85D3
:102F4000FC859490042C01C0990C0A94EAF7772030
:102F500079F0F501EE0DFF1D2FEFE21AF20A8491D0
:102F600090E00A8002C0959587950A94E2F7982A26
:102F70003981313039F4F6016081F80180810E9495
:102F8000C514982AF6016081F8018081982F9F5F0F
:102F90009083492D0E94B71483942B853C852F5F25
:102FA0003F4F3C872B878610CACFEBE5F1E080814D
:102FB000882341F0F6016081F80180810E94C514E8
:102FC000482F01C0452DF6016081F80180810E94E3
:102FD000B714FC81F85FFC837394872D90E02D81FA
:102FE0003E818217930708F493CF2230310508F40D
:102FF00074C06F2F8F810E947415272D30E02150EF
:10300000310948855985249FC001259F900D349F23
:10301000900D1124662009F43EC04501880E991ECA
:1030200065015FEFC51AD50A6A94C60CD11CC80E9B
:10303000D91E0F2EF4E5EF2EF1E0FF2EF02D03E563
:1030400011E088E090E05C01A418B1083401F701B8
:103050008080F8019080682D892D0E94C514F301AD
:10306000449150E00A2C02C0559547950A94E2F726
:10307000482BF981F13009F4482B892D8F5FF80135
:103080008083682D892D0E94B714FFEF6F1A7F0A85
:103090006C147D04E1F680915B01882399F0813006
:1030A00041F460915401809153010E94C514482F4E
:1030B0000AC060915401809153010E94C514482FA9
:1030C000409501C040E060915401E3E5F1E080816A
:1030D000982F9F5F90830E94B7140E94E7156A851E
:1030E0000E9474152C960FB6F894DEBF0FBECDBFAC
:1030F000DF91CF911F910F91FF90EF90DF90CF90D4
:10310000BF90AF909F908F907F906F905F904F9007
:103110003F902F900895DF92EF92FF920F931F93AD
:10312000CF93DF93E82E162FD42EF22ED02F8823A4
:103130000CF449C044230CF446C0603408F043C08A
:103140008FE3821708F43FC04E1500F11CC04D2FCD
:10315000612F8C2F0E94EA15CF5F0C17C0F7DE1489
:10316000D8F017C04D2F6F2D8C2F0E94EA15CF5F1E
:103170000C17C0F7F11698F01CC00D2F4D2D8D2D9A
:103180000E943A1620C0042FCE2DE1CF0E2DC42F61
:10319000DECF0D2DCE2DE6CF0E2DCD2DE3CF0D2F75
:1031A000212F4E2D6F2D8E2D0E943A16212F6F2D1F
:1031B000E4CF0D2F2F2D4E2D612F8E2D0E943A160C
:1031C0002F2D612FDACFDF91CF911F910F91FF90BB
:1031D000EF90DF9008950F931F93CF93DF93182FF5
:1031E000D0E000E00BC0412F6D2F8C2F0E94B71450
:1031F000CF5FC038C1F7D85FD03411F0C02FF3CF04
:10320000DF91CF911F910F91089580E00E94EB18FC
:1032100008950F930E943A160F9108952F923F92AE
:103220005F926F927F928F929F92AF92BF92CF9256
:10323000DF92EF92FF920F931F93CF93DF93C82EED
:1032400081E0D82EDC18D40EB82EB61AB20E462F56
:103250004770A62EA41A0B2D10E088E090E0841B86
:103260009109081719077CF488E090E0801B910B06
:103270002FEF30E0B90102C0759567958A95E2F7A6
:10328000CB015B2C04C088E0582E541A8FEF682EB7
:1032900001C0660C4A95EAF76A2D8C2D0E947415C0
:1032A000DD20D9F1812C0F2EF4E5EF2EF1E0FF2E79
:1032B000F02DC3E5D1E0F70170809880672D892D4E
:1032C0000E94C514992D9F5F9883482F4625672D2E
:1032D000892D0E94B71483948D10EDCF1EC0C85F56
:1032E0006C2F8C2D0E947415DD2039F1672CF701AD
:1032F0005080F1018080652D882D0E94C514982D85
:103300009F5FF1019083482F4095652D882D0E9485
:10331000B71463946D1489F0EACFCA2D5A18A52CFE
:10332000712C0F2EF4E5EF2EF1E0FF2EF02D0F2E75
:10333000F3E52F2EF1E03F2EF02D8A2D8C0FE82F94
:10334000F0E0DF0118960A171B074CF68B1558F5AD
:103350000E1B1F0B8FEF90E09C0102C0220F331F4A
:103360000A95E2F7B22EB0946C2F685F8C2D0E9404
:103370007415DD20C1F0E12C04E511E0C3E5D1E0D6
:10338000F801C080F8806C2D8F2D0E94C5149F2DF0
:103390009F5F9883482F4B256C2D8F2D0E94B7146B
:1033A000E394ED10EDCFDF91CF911F910F91FF903E
:1033B000EF90DF90CF90BF90AF909F908F907F90D5
:1033C0006F905F903F902F9008956623F4F0403403
:1033D000E0F42230D0F4909357018093560160932B
:1033E00058014093590150E041505109CA019923B5
:1033F0000CF407969595879595958795959587955E
:103400008F5F80935A0120935B0108952F923F9222
:103410004F925F926F927F928F929F92AF92BF92E4
:10342000CF92DF92EF92FF920F931F93CF93DF9390
:10343000CDB7DEB72B970FB6F894DEBF0FBECDBF6A
:10344000209153012C83309154013F8390915A0174
:10345000805220915801299F900111242F5F3F4FE6
:10346000829FA001839F500D1124598748874F5F89
:103470005F4F5E834D83E0915601F0915701A8851F
:10348000B985EA0FFB1F54907F80B7E07B22992318
:1034900009F492C0EF81EB83312C212C88E090E07D
:1034A0009C01271931093A8329830F2EFBE58F2EC2
:1034B000F1E09F2EF02D0F2EF4E5AF2EF1E0BF2EA0
:1034C000F02D03E511E0672C752C6B818C810E9437
:1034D00074154D815E81430D511D5B874A877A01CA
:1034E00051E0E51AF108772009F44FC00F2EFAE5F4
:1034F000CF2EF1E0DF2EF02D832D362C672C722C91
:10350000582EA6E5B1E02D913C91EA85FB85E20FAE
:10351000F31FE4914E2E032C01C0440C0A94EAF7E9
:10352000552081F0F901EE0DFF1D249130E0098056
:1035300002C0359527950A94E2F7422AF601808168
:10354000E80EF11CD4018C91813039F4F5016081D1
:10355000D8018C910E94C514482AF5016081D801D8
:103560008C91982F9F5F9C93442D0E94B714F60175
:1035700080812A853B85280F311D3B872A877394DC
:103580007610BFCF762C632C352CD4018C91811111
:1035900007C0422DF5016081D8018C910E94B714BB
:1035A000BB81B85FBB83339480915A01381608F40D
:1035B0008CCF572C762C03C0EF81EB83312C2F81DD
:1035C000229526952695237030E0809159018295A9
:1035D00086958695837090E0FF818F0F911D281747
:1035E000390709F469C06B818C810E9474152885A4
:1035F0003985230D311D3A832983552009F451C0A3
:10360000312C0F2EF4E5AF2EF1E0BF2EF02D03E5A7
:1036100011E00F2EF6E5CF2EF1E0DF2EF02D88E041
:1036200090E0AC01471951093A010F2EFBE5EF2E4E
:10363000F1E0FF2EF02D0F2EFAE58F2EF1E09F2EF8
:10364000F02DD5012C90F8014080622D842D0E9430
:10365000C514D601ED91FC9129813A81E20FF31F47
:10366000449150E0062C02C0559547950A94E2F724
:10367000482BD7019C91913009F4482B842D8F5F02
:10368000F8018083622D842D0E94B714D4018C919F
:10369000E981FA81E80FF11DFA83E983339435104B
:1036A000D0CF80915B01811107C040E0609154014F
:1036B000809153010E94B7148C818F5F6F81850DBB
:1036C0000E9474152B960FB6F894DEBF0FBECDBFC7
:1036D000DF91CF911F910F91FF90EF90DF90CF90EE
:1036E000BF90AF909F908F907F906F905F904F9022
:1036F0003F902F900895EF92FF920F931F93CF93D7
:10370000DF93EC018881882319F190915301209176
:10371000580130E0290F311D20383105CCF42196B5
:103720000F2EF3E5EF2EF1E0FF2EF02D08E511E06E
:103730000AC0F7019081F801208130E0290F311D86
:10374000203831052CF40E94061A89918111F1CF9D
:10375000DF91CF911F910F91FF90EF9008950F93FC
:103760001F93CF93DF93CDB7DEB72C970FB6F894A6
:10377000DEBF0FBECDBF611571058105910521F436
:1037800080E30E94061A45C161157105810520E894
:10379000920709F43EC1FE0131962CE0DF011D9233
:1037A0002A95E9F720E32B872A87298728872F8303
:1037B0002E832D832C832B832A83298399235CF4E6
:1037C0009B01AC0188279927DC01821B930BA40B7A
:1037D000B50B41E003C0DC01CB0140E081303AECA5
:1037E00093073AE9A3073BE3B30794F02A812F5FDD
:1037F00001C0232F9A5CAA49BB43322F3F5F81301F
:103800005AEC95075AE9A5075BE3B50794F72A83B5
:10381000811521EE920725EFA20725E0B20794F06B
:103820002B812F5F01C0232F915EA54FB540322F12
:103830003F5F811551EE950755EFA50755E0B50798
:1038400094F72B83803826E9920728E9A207B1056F
:1038500094F02C812F5F01C0232F80589649A849EE
:10386000B109322F3F5F803856E9950758E9A5071F
:10387000B10594F72C83803422E492072FE0A2074D
:10388000B10594F02D812F5F01C0232F8054924405
:10389000AF40B109322F3F5F803452E495075FE0BB
:1038A000A507B10594F72D83803A26E8920721E019
:1038B000A207B10594F02E812F5F01C0232F805AFB
:1038C0009648A140B109322F3F5F803A56E89507EC
:1038D00051E0A507B10594F72E83803127E29207C6
:1038E000A105B1058CF02F812F5F01C0232F8051DE
:1038F0009742A109B109322F3F5F803157E2950706
:10390000A105B1059CF72F83883E23E09207A1050E
:10391000B1058CF028852F5F01C0232F885E93406E
:10392000A109B109322F3F5F883E53E09507A105F9
:10393000B1059CF7288784369105A105B10584F06F
:1039400029852F5F01C0232F84569109A109B10950
:10395000322F3F5F84369105A105B105A4F7298771
:103960008A309105A105B1057CF02A852F5F01C041
:10397000232F0A97A109B109322F3F5F8A309105A1
:10398000A105B105ACF72A87181619061A061B06F9
:103990005CF45B858C019D010150110921093109FD
:1039A000D9F7652F680F6B878981803361F480E0D8
:1039B0008F5FE1E0F0E0EC0FFD1FE80FF11D90815B
:1039C0009033B1F301C080E0442331F08150FE0117
:1039D000E80FF11D9DE291834AE0481B20E090E052
:1039E000E1E0F0E0EC0FFD1FE20FF11DDF01A80F99
:1039F000B91F3C9130832F5F421790F7E1E0F0E070
:103A0000EC0FFD1FE20FF11D1082CE0101960E9406
:103A10007B1B2C960FB6F894DEBF0FBECDBFDF9197
:103A2000CF911F910F9108958F929F92AF92BF9265
:103A3000CF92DF92EF92FF926B017C0149015A0114
:103A400020E030E0A9010E94151E81110AC080E328
:103A50000E94061A8EE20E94061A80E30E94061A4D
:103A60004AC020E030E040E05FECC701B6010E94B0
:103A7000741F88230CF43FC020E030E040E05FE496
:103A8000C701B6010E94151E8823ACF520E030E086
:103A9000A901C701B6010E94151E88233CF4F7FA5C
:103AA000F094F7F8F0948DE20E94061AC701B6016F
:103AB0000E948C1E0E94AF1B8EE20E94061AC70154
:103AC000B6010E94931E0E94C21E9B01AC01C70159
:103AD000B6010E94A81D6B017C01C501B4010E94C2
:103AE000C21E9B01AC01C701B6010E94791F0E9452
:103AF0008C1E0E94AF1BFF90EF90DF90CF90BF9085
:103B0000AF909F908F900895A19AA09AA99AA89A91
:103B100011B88CE080B984E086BF089581B1887FB8
:103B2000089584EA86BF06B607FEFDCF0E948E1D6B
:103B3000089585ED86BF06B604FCFDCF089583B9D0
:103B400084E886BF06B607FEFDCF0E948E1D08954D
:103B50005058BB27AA270E94C01D0C943A1F0E94F0
:103B60002C1F38F00E94331F20F039F49F3F19F4C6
:103B700026F40C94291F0EF4E095E7FB0C94231F08
:103B8000E92F0E944B1F58F3BA1762077307840787
:103B9000950720F079F4A6F50C946D1F0EF4E095CE
:103BA0000B2EBA2FA02D0B01B90190010C01CA01F7
:103BB000A0011124FF27591B99F0593F50F4503EA2
:103BC00068F11A16F040A22F232F342F4427585F94
:103BD000F3CF469537952795A795F0405395C9F7AC
:103BE0007EF41F16BA0B620B730B840BBAF0915064
:103BF000A1F0FF0FBB1F661F771F881FC2F70EC003
:103C0000BA0F621F731F841F48F4879577956795D5
:103C1000B795F7959E3F08F0B0CF9395880F08F0C1
:103C20009927EE0F9795879508950E94FF1E08F437
:103C300081E008950E942E1E0C943A1F0E94331FAB
:103C400058F00E942C1F40F029F45F3F29F00C949B
:103C5000231F51110C946E1F0C94291F0E944B1F9F
:103C600068F39923B1F3552391F3951B550BBB27AB
:103C7000AA2762177307840738F09F5F5F4F220FF0
:103C8000331F441FAA1FA9F335D00E2E3AF0E0E8E7
:103C900032D091505040E695001CCAF72BD0FE2F31
:103CA00029D0660F771F881FBB1F261737074807C5
:103CB000AB07B0E809F0BB0B802DBF01FF2793587D
:103CC0005F4F3AF09E3F510578F00C94231F0C94FF
:103CD0006E1F5F3FE4F3983ED4F386957795679522
:103CE000B795F7959F5FC9F7880F911D96958795B2
:103CF00097F90895E1E0660F771F881FBB1F6217D1
:103D000073078407BA0720F0621B730B840BBA0B8E
:103D1000EE1F88F7E09508950E94931E6894B111F4
:103D20000C946E1F08950E94531F88F09F5798F0BF
:103D3000B92F9927B751B0F0E1F0660F771F881FB0
:103D4000991F1AF0BA95C9F714C0B13091F00E94CA
:103D50006D1FB1E008950C946D1F672F782F882791
:103D6000B85F39F0B93FCCF3869577956795B395F1
:103D7000D9F73EF490958095709561957F4F8F4F60
:103D80009F4F0895E89409C097FB3EF49095809565
:103D9000709561957F4F8F4F9F4F9923A9F0F92F11
:103DA00096E9BB279395F695879577956795B7958F
:103DB000F111F8CFFAF4BB0F11F460FF1BC06F5F75
:103DC0007F4F8F4F9F4F16C0882311F096E911C087
:103DD000772321F09EE8872F762F05C0662371F0A8
:103DE00096E8862F70E060E02AF09A95660F771FBC
:103DF000881FDAF7880F9695879597F90895990F98
:103E00000008550FAA0BE0E8FEEF16161706E807A4
:103E1000F907C0F012161306E407F50798F0621BC5
:103E2000730B840B950B39F40A2661F0232B242B9A
:103E3000252B21F408950A2609F4A140A6958FEFB9
:103E4000811D811D089597F99F6780E870E060E00B
:103E500008959FEF80EC089500240A941616170623
:103E600018060906089500240A941216130614066B
:103E700005060895092E0394000C11F4882352F0CE
:103E8000BB0F40F4BF2B11F460FF04C06F5F7F4F86
:103E90008F4F9F4F089557FD9058440F551F59F06D
:103EA0005F3F71F04795880F97FB991F61F09F3F27
:103EB00079F087950895121613061406551FF2CF50
:103EC0004695F1DF08C0161617061806991FF1CFA0
:103ED00086957105610508940895E894BB276627C7
:103EE0007727CB0197F908950E94FF1E08F48FEF02
:103EF00008950E948C1F0C943A1F0E942C1F38F0CA
:103F00000E94331F20F0952311F00C94231F0C9472
:103F1000291F11240C946E1F0E944B1F70F3959F54
:103F2000C1F3950F50E0551F629FF001729FBB27B0
:103F3000F00DB11D639FAA27F00DB11DAA1F649F4C
:103F40006627B00DA11D661F829F2227B00DA11DFF
:103F5000621F739FB00DA11D621F839FA00D611D85
:103F6000221F749F3327A00D611D231F849F600DA6
:103F7000211D822F762F6A2F11249F5750409AF0CF
:103F8000F1F088234AF0EE0FFF1FBB1F661F771F5B
:103F9000881F91505040A9F79E3F510580F00C9426
:103FA000231F0C946E1F5F3FE4F3983ED4F3869575
:103FB00077956795B795F795E7959F5FC1F7FE2BC6
:103FC000880F911D9695879597F908950E94531F24
:103FD000E8F09E37E8F09639B8F49E3848F4672F39
:103FE000782F8827985FF9CF869577956795939571
:103FF0009539D0F3B62FB1706B0F711D811D20F470
:1040000087957795679593950C940A200C942520B5
:104010000C946E1F882371F4772321F09850872B1E
:10402000762F07C0662311F499270DC09051862B77
:1040300070E060E02AF09A95660F771F881FDAF724
:10404000880F9695879597F908959F3F31F0915085
:1040500020F4879577956795B795880F911D96956C
:10406000879597F9089597FB072E16F4009407D0CB
:1040700077FD09D00E94782007FC05D03EF490958A
:1040800081959F4F0895709561957F4F0895A1E2A6
:104090001A2EAA1BBB1BFD010DC0AA1FBB1FEE1FC2
:1040A000FF1FA217B307E407F50720F0A21BB30B0D
:1040B000E40BF50B661F771F881F991F1A9469F789
:1040C00060957095809590959B01AC01BD01CF01E5
:1040D0000895A29FB001B39FC001A39F700D811DE1
:1040E0001124911DB29F700D811D1124911D089501
:1040F000AA1BBB1B51E107C0AA1FBB1FA617B7070E
:1041000010F0A61BB70B881F991F5A95A9F7809529
:104110009095BC01CD0108950F931F93CF93DF932A
:104120008230910510F482E090E0E0915E05F0911C
:104130005F0520E030E0A0E0B0E0309719F1408169
:1041400051810281138148175907C8F084179507D8
:1041500069F4109731F012960C93129713961C93F2
:1041600027C000935E0510935F0522C0211531051D
:1041700019F04217530718F49A01BD01EF01DF014E
:10418000F801DBCF21153105F9F0281B390B24305C
:10419000310580F48A819B816115710521F0FB0155
:1041A0009383828304C090935F0580935E05FE0134
:1041B000329644C0FE01E20FF31F81939193225087
:1041C0003109398328833AC020915C0530915D051F
:1041D000232B41F4209162003091630030935D0500
:1041E00020935C052091600030916100211531051C
:1041F00041F42DB73EB74091640050916500241BF7
:10420000350BE0915C05F0915D05E217F307A0F432
:104210002E1B3F0B2817390778F0AC014E5F5F4F1C
:104220002417350748F04E0F5F1F50935D054093EC
:104230005C058193919302C0E0E0F0E0CF01DF9153
:10424000CF911F910F910895CF93DF93009709F4B9
:1042500081C0FC01329713821282A0915E05B09159
:104260005F05109781F420813181820F931F209187
:104270005C0530915D052817390751F5F0935D0510
:10428000E0935C0567C0ED0120E030E0CE17DF076A
:1042900040F44A815B819E0141155105F1F0EA012C
:1042A000F5CFD383C28340815181840F951FC817F6
:1042B000D90759F488819981840F951F02969183BB
:1042C00080838A819B81938382832115310529F420
:1042D000F0935F05E0935E053DC0E901FB83EA834F
:1042E00049915991C40FD51FEC17FD0761F48081E6
:1042F0009181840F951F0296E901998388838281B9
:1043000093819B838A83E0E0F0E012968D919C91EB
:104310001397009719F0FD01DC01F7CF8D919C9167
:1043200011979D012E5F3F4F820F931F20915C05D7
:1043300030915D052817390769F4309729F41092F8
:104340005F0510925E0502C013821282B0935D0574
:10435000A0935C05DF91CF910895E199FECF9FBBBB
:104360008EBBE09A99278DB30895A6E1B0E044E0B2
:1043700050E00C94DD21A8E1B0E042E050E00C9464
:10438000DD21262FE199FECF9FBB8EBB2DBB0FB643
:10439000F894E29AE19A0FBE01960895242F0E94A4
:1043A000C221252F0E94C2210C94D6210E94C12136
:1043B000272F0C94C221DC01CB01FC01E199FECF37
:1043C00006C0FFBBEEBBE09A31960DB20D92415094
:0A43D0005040B8F70895F894FFCFAD
:1043DA0000006005200001600096BE00040004335E
:1043EA0033A33F3333333F0000803F06FA013000E6
:1043FA0045646974004261636B0053617665006DC0
:10440A00696E3A006D61783A002E004469616C5F0A
:10441A0050574D004172725F50574D005765656C99
:10442A00204400526174696F004D61676E65747350
:10443A000053646F776E2056004D61782073706563
:10444A006564004465672F6B6D6800534D20737473
:10445A006570730043616C696272617465006F64B0
:10446A006F6D65746572207265736574006C6F6137
:10447A00642064656661756C7473004469616C20BC
:10448A0050574D0005060A0201000804070E0108EC
:00000001FF
