:100000000C94A10A0C94BE0A0C94030C0C94BE0A26
:100010000C94D10B0C94BE0A0C94BE0A0C94BE0A2C
:100020000C94BE0A0C94E80B0C94990B0C94BE0A29
:100030000C94BE0A0C94BE0A0C94BE0A0C94BE0A20
:100040000C94BE0A0C94BE0A0C94BE0A0C94BE0A10
:100050000C94BE0AD118F7181D196C19BB19D719C1
:10006000F3190F1A5E1A7E1A9A1AB81AC41AC71A06
:10007000891B111C0C000000F01F00FC7F00FEFF1C
:10008000000FE00107C00107C00107C0010FE00138
:10009000FEFF00FC7F00F01F000C000000F01F00BE
:1000A000FC7F00FEFF000FE00107C00107C0010751
:1000B000C0010FE001FEFF00FC7F00F01F000C00FC
:1000C0000000F01F00FC7F00FEFF000FE00107C0F2
:1000D0000107C00107C0010FE001FEFF00FC7F0027
:1000E000F01F000C000000F01F00FC7F00FEFF006E
:1000F0000FE00107C00107C00107C0010FE001FECA
:10010000FF00FC7F00F01F000C000000F01F00FC4F
:100110007F00FEFF000FE00107C00107C00107C01C
:10012000010FE001FEFF00FC7F00F01F000C00004B
:1001300000F01F00FC7F00FEFF000FE00107C00180
:1001400007C00107C0010FE001FEFF00FC7F00F0C7
:100150001F000C000000F01F00FC7F00FEFF000FDE
:10016000E00107C00107C00107C0010FE001FEFF69
:1001700000FC7F00F01F000C000000F01F00FC7F5F
:1001800000FEFF000FE00107C00107C00107C0012A
:100190000FE001FEFF00FC7F00F01F000C000000DC
:1001A000F01F00FC7F00FEFF000FE00107C0010709
:1001B000C00107C0010FE001FEFF00FC7F00F01F3F
:1001C000000C000000F01F00FC7F00FEFF000FE0AD
:1001D0000107C00107C00107C0010FE001FEFF00D9
:1001E000FC7F00F01F000C000000F01F00FC7F00EF
:1001F000FEFF000FE00107C00107C00107C0010FAB
:10020000E001FEFF00FC7F00F01F000C000000F08A
:100210001F00FC7F00FEFF000FE00107C00107C0C8
:100220000107C0010FE001FEFF00FC7F00F01F008E
:100230000C000000F01F00FC7F00FEFF000FE0013B
:1002400007C00107C00107C0010FE001FEFF00FC6D
:100250007F00F01F000C000000F01F00FC7F00FE7C
:10026000FF000FE00107C00107C00107C0010FE058
:1002700001FEFF00FC7F00F01F000400000000C032
:100280000100C00100C001000000000000000000EB
:100290000000000000000000000000000000000C52
:1002A00000800100F801C0FF01FC7F00FF07003F54
:1002B000000003000000000000000000000000003B
:1002C000000000000C000000F01F00FC7F00FEFF9B
:1002D000000FE00107C00107C00107C0010FE001E6
:1002E000FEFF00FC7F00F01F000C0000000000007B
:1002F0006000007000007800003C00001E0000FF5D
:10030000FF01FFFF01FFFF010000000000000C00E3
:1003100000003880013CE0013EF0010FF80107FCCD
:100320000107DE0107CF018FC701FEC301FEC10136
:1003300078C0010C0000001838001E78001EF8007C
:100340000FE001C7C101C7C101E7C101FFE3017EA1
:10035000FF003C7F00003E000C000000003E0080DB
:100360003F00C03F00F039007838003E3800FFFF02
:1003700001FFFF01FFFF010038000038000C000002
:1003800000803900FC7900FFF900FFE001E7C001BF
:10039000E7C001E7C001E7E101C7FF00877F000078
:1003A0001F000C000000F01F00FC7F00FEFF008E0D
:1003B000E301C7C101C7C101C7C101CFE3019EFF6E
:1003C000009E7F00183E000C0000000700000700A0
:1003D0000007E00107FC0187FF01E71F00F70300AA
:1003E000FF00003F00001F00000700000C0000009D
:1003F000783C00FEFE00FEFF00CFE70187C30187C7
:10040000C30187C301CFE701FEFF00FEFE00783C79
:10041000000C000000F83000FCF300FEF3008FE752
:100420000107C70107C70107C7018FE300FEFF00EF
:10043000FC7F00F01F001200FE7F00C0FFFF07F8E6
:10044000FFFF1FFC01803F3E00007C0E0000700F8C
:100450000000F0070000E0070000E0070000E00FE8
:100460000000F00E0000703E00007CFC01803FF8B0
:10047000FFFF1FE0FFFF0300FE7F000000000012EF
:1004800000FE7F00C0FFFF07F8FFFF1FFC01803F59
:100490003E00007C0E0000700F0000F0070000E03E
:1004A000070000E0070000E00F0000F00E00007001
:1004B0003E00007CFC01803FF8FFFF1FE0FFFF03D0
:1004C00000FE7F00000000001200FE7F00C0FFFF62
:1004D00007F8FFFF1FFC01803F3E00007C0E00007C
:1004E000700F0000F0070000E0070000E0070000C8
:1004F000E00F0000F00E0000703E00007CFC018068
:100500003FF8FFFF1FE0FFFF0300FE7F0000000039
:10051000001200FE7F00C0FFFF07F8FFFF1FFC0175
:10052000803F3E00007C0E0000700F0000F00700CE
:1005300000E0070000E0070000E00F0000F00E0000
:1005400000703E00007CFC01803FF8FFFF1FE0FFD1
:10055000FF0300FE7F00000000001200FE7F00C0CD
:10056000FFFF07F8FFFF1FFC01803F3E00007C0EED
:100570000000700F0000F0070000E0070000E00737
:100580000000E00F0000F00E0000703E00007CFC58
:1005900001803FF8FFFF1FE0FFFF0300FE7F000028
:1005A0000000001200FE7F00C0FFFF07F8FFFF1FE2
:1005B000FC01803F3E00007C0E0000700F0000F048
:1005C000070000E0070000E0070000E00F0000F077
:1005D0000E0000703E00007CFC01803FF8FFFF1F12
:1005E000E0FFFF0300FE7F00000000001200FE7F1E
:1005F00000C0FFFF07F8FFFF1FFC01803F3E000027
:100600007C0E0000700F0000F0070000E007000003
:10061000E0070000E00F0000F00E0000703E000058
:100620007CFC01803FF8FFFF1FE0FFFF0300FE7F1F
:1006300000000000001200FE7F00C0FFFF07F8FF6F
:10064000FF1FFC01803F3E00007C0E0000700F0089
:1006500000F0070000E0070000E0070000E00F00E6
:1006600000F00E0000703E00007CFC01803FF8FFAF
:10067000FF1FE0FFFF0300FE7F00000000001200EC
:10068000FE7F00C0FFFF07F8FFFF1FFC01803F3E19
:1006900000007C0E0000700F0000F0070000E00773
:1006A0000000E0070000E00F0000F00E0000703EC8
:1006B00000007CFC01803FF8FFFF1FE0FFFF03000C
:1006C000FE7F00000000001200FE7F00C0FFFF0759
:1006D000F8FFFF1FFC01803F3E00007C0E00007011
:1006E0000F0000F0070000E0070000E0070000E056
:1006F0000F0000F00E0000703E00007CFC01803F07
:10070000F8FFFF1FE0FFFF0300FE7F000000000076
:100710001200FE7F00C0FFFF07F8FFFF1FFC0180F3
:100720003F3E00007C0E0000700F0000F00700004C
:10073000E0070000E0070000E00F0000F00E0000FE
:10074000703E00007CFC01803FF8FFFF1FE0FFFFD0
:100750000300FE7F00000000001200FE7F00C0FFCB
:10076000FF07F8FFFF1FFC01803F3E00007C0E00EA
:1007700000700F0000F0070000E0070000E0070035
:1007800000E00F0000F00E0000703E00007CFC0155
:10079000803FF8FFFF1FE0FFFF0300FE7F00000027
:1007A00000001200FE7F00C0FFFF07F8FFFF1FFCE4
:1007B00001803F3E00007C0E0000700F0000F0073B
:1007C0000000E0070000E0070000E00F0000F00E6E
:1007D0000000703E00007CFC01803FF8FFFF1FE03E
:1007E000FFFF0300FE7F00000000001200FE7F00FC
:1007F000C0FFFF07F8FFFF1FFC01803F3E00007CA9
:100800000E0000700F0000F0070000E0070000E09D
:10081000070000E00F0000F00E0000703E00007CBA
:10082000FC01803FF8FFFF1FE0FFFF0300FE7F0099
:1008300000000000090000000000000000000000AF
:1008400000000000F0000000F0000000F0000000D8
:100850000000000000000000000000000000000098
:100860000000000000000000000000000000000088
:10087000000000000000000000000000001200FE68
:100880007F00C0FFFF07F8FFFF1FFC01803F3E0015
:10089000007C0E0000700F0000F0070000E0070071
:1008A00000E0070000E00F0000F00E0000703E00C6
:1008B000007CFC01803FF8FFFF1FE0FFFF0300FE0C
:1008C0007F00000000001200FE7F00C0FFFF07F85D
:1008D000FFFF1FFC01803F3E00007C0E0000700FF8
:1008E0000000F0070000E0070000E0070000E00F54
:1008F0000000F00E0000703E00007CFC01803FF81C
:10090000FFFF1FE0FFFF0300FE7F0000000000125A
:10091000000000000000000000000000000E0000C9
:100920000007000080030000C0030000E001000099
:10093000F8000000FEFFFFFFFFFFFFFFFFFFFFFFCC
:1009400000000000000000000000000000000000A7
:10095000000000000000000012C00100E0F00100F3
:10096000F8FC0100FE3C0000FF1E0080EF0F00C0FD
:10097000E70700E0E10700F0E0070078E007003C4F
:10098000E007001FE00F800FE01EC007E03EF80305
:10099000E0FCFF00E0F07F00E0C00F00E00000009E
:1009A0000012C0008003F000800FFC00801F3E009A
:1009B000003E1E0000780F0000F007E000E007E0B6
:1009C00000E007E000E007E000E00FF000E00EF8D4
:1009D00001703EFC0378FCBF073EF89FFF1FE00755
:1009E000FE0F0000F80300000000120000F00000FD
:1009F00000FC000000FF0000C0FF0000F0E7000066
:100A0000F8E100007EE000801FE000E007E000F871
:100A100001E0007E00E000FFFFFFFFFFFFFFFFFFA0
:100A2000FFFFFF0000E0000000E0000000E0000029
:100A300000E0001200C0800300FF800FF8FF811F5C
:100A4000FFFF003EFF780078073800F0071C00E049
:100A5000071C00E0071C00E0071C00E0073C00F05A
:100A6000073800700778007C07F0013F07E0FF1FA0
:100A700007C0FF070000FE01000000001200FC7F1D
:100A800000C0FFFF07F0FFFF0FF880073E3CC001EA
:100A9000781EE000700E7000F0077000E007700034
:100AA000E0077000E0077000E00FF000F00EE001DA
:100AB000783EC0073EFC80FF1FF800FF0FE000FCFF
:100AC00001000000001207000000070000000700FE
:100AD000000007000000070000F80700C0FF070043
:100AE000FCFF0780FF0707E03F0007F8070007FE4D
:100AF0000000871F0000E7070000F70100007F00EB
:100B000000001F0000000F000000000000001200A5
:100B100000F803E007FE0FF81FFF1FFCBF0F3E3E6B
:100B2000FC03780EF0017007E000E007E000E0074A
:100B3000E000E007E000E00FE000E00EF001703EB2
:100B4000FC0378FCBF0F3EF81FFF1FE007FE0F00FD
:100B500000F8030000000012C03F0007F0FF001F74
:100B6000F8FF013F7CE0037C1E8007700F000FF050
:100B70000F000EE007000EE007000EE007000EE099
:100B800007000E700E0007781E80033C7CE0811F7A
:100B9000F0FFFF0FE0FFFF0300FE3F00000000003A
:100BA0000500000000000500005F000005000700D0
:100BB000070005147F147F1405242A7F2A120523B9
:100BC00013086462053649562050050807030000E3
:100BD00005001C224100050041221C000514083EAE
:100BE00008140508083E08080500B0700000050854
:100BF00008080808050060600000052010080402CD
:100C0000053E5149453E0500427F40000572494975
:100C10004946052141494D33051814127F10052717
:100C200045454539053C4A494931054121110907E6
:100C300005364949493605464949291E050000142B
:100C4000000005004034000005081422410005148E
:100C50001414141405412214080005020159090650
:100C6000053E415D594E057C1211127C057F4949B4
:100C70004936053E41414122057F4141413E057FC4
:100C800049494949057F09090909053E414151730F
:100C9000057F0808087F0500417F4100052040418D
:100CA0003F01057F08142241057F40404040057FF9
:100CB000020C027F057F0408107F053E4141413E42
:100CC000057F09090906053E4151215E057F091985
:100CD00029460526494949320501017F0101053FA1
:100CE0004040403F051F2040201F053F4038403F07
:100CF000056314081463050304780403056151496E
:100D0000454305007F41410005020408102005000D
:100D100041417F000504020102040540404040407B
:100D200005070B000000052054547840057F284437
:100D3000443805384444442805384444287F05385D
:100D4000545454180500087E09020518A4A49C7880
:100D5000057F080404780500447D400005204040DC
:100D60003D00057F102844000500417F4000057CC0
:100D700004780478057C0804047805384444443831
:100D800005FC182424180518242418FC057C0804E4
:100D900004080548545454240504043F4424053CE5
:100DA0004040207C051C2040201C053C4030403C3D
:100DB000054428102844054C9090907C05446454C8
:100DC0004C4405000836410005000077000005008E
:100DD0004136080005040204080405007F417F0035
:100DE0000000000000000000000000000000000003
:100DF0000000000080C0E0F0F8FCFEFFFFFF0000F4
:100E000000000000000000000000000000000000E2
:100E100000000000000000000000000000000000D2
:100E200000000000000000000000000000000000C2
:100E300000000000000000000000000000000000B2
:100E4000000000000000000080C0E0F0F8FCFEFFA1
:100E5000FFFFFFFFFFFFFFFFFFFFC0C0C0C0C0C01C
:100E6000C0C0C0C0C0C0C0C0C0C0C0C0C0C0C0C082
:100E7000C0C0C0C0C0C0C0C0C0C0C0C0C0C0C0C072
:100E8000C0C0C0C0C0C0C0C0C0C0C0C0C0C0C0C062
:100E9000C0C0C0C0C0C0C0C00000000080C0E0F042
:100EA000F8FCFEFFFFFFFFFFFFFFFFFFFFFFFFFF5D
:100EB000FFFFFFFFFFFFFFFFFFFFFFFFFFFFFFFF42
:100EC000FFFFFFFFFFFFFFFFFFFFFFFFFFFFFFFF32
:100ED000FFFFFFFFFFFFFFFFFFFFFFFFFFFFFFFF22
:100EE000FFFFFFFFFFFFFFFFFFFFFFFFFFFFFFFF12
:100EF000FFFFFFFF081C3E7FFFFFFFFFFFFFFFFF1D
:100F0000FFFFFFFFFFFFFFFFFFFFFFFFFFFFFFFFF1
:100F1000FFFFFFFFFFFFFFFFFFFFFFFFFFFFFFFFE1
:100F2000FFFFFFFFFFFFFFFFFFFFFFFFFFFFFFFFD1
:100F3000FFFFFFFFFFFFFFFFFFFFFFFFFFFFFFFFC1
:100F4000FFFFFFFFFFFFFFFFFFFFFFFFFFFFFFFFB1
:100F500000000000000103070F1F3F7FFFFFFFFF9E
:100F6000FFFFFFFFFFFFFFFFFFFFFFFFFFFFFFFF91
:100F7000FFFFFFFFFFFFFFFFFFFFFFFFFFFFFFFF81
:100F8000FFFFFFFFFFFFFFFFFFFFFFFFFFFFFFFF71
:100F9000FFFFFFFFFFFFFFFFFFFFFFFFFFFFFFFF61
:100FA000FFFFFFFFFFFFFFFFFFFFFFFF000000004D
:100FB0000000000000000000000103070F1F3F7F3A
:100FC000FFFFFFFFFFFFFFFFFFFF01010101010125
:100FD0000101010101010101010101010101010101
:100FE00001010101010101010101010101010101F1
:100FF00001010101010101010101010101010101E1
:1010000001010101010101010000000000000000D8
:1010100000000000000000000000000000010307C5
:101020000F1F3F7F7F7F00000000000000000000D6
:1010300000000000000000000000000000000000B0
:1010400000000000000000000000000000000000A0
:101050000000000000000000000000000000000090
:101060000000000000000000000000000000000080
:101070000000000000000000000000000000000070
:101080000000000000000000000000000000000060
:101090000000000000000000000000000000000050
:1010A0000000FFFFFFFEFCF8F0E0C0800000000041
:1010B0000000000000000000000000000000000030
:1010C000C0C0C0C0C0C0C0C0C0C0C0C0C0C0C0C020
:1010D000C0C0C0C0C0C0C0C0C0C0C0C0C0C0C0C010
:1010E000C0C0C0C0C0C0C0C0C0C0C0C0C0C0C0C000
:1010F000C0C0C0C0C0C0C0C0C0C0C0C0C0C0FFFF72
:10110000FFFFFFFFFFFFFFFFFFFEFCF8F0E0C080E6
:10111000000000000000000000000000FFFFFFFFD3
:10112000FFFFFFFFFFFFFFFFFFFFFFFFFFFFFFFFCF
:10113000FFFFFFFFFFFFFFFFFFFFFFFFFFFFFFFFBF
:10114000FFFFFFFFFFFFFFFFFFFFFFFFFFFFFFFFAF
:10115000FFFFFFFFFFFFFFFFFFFFFFFFFFFFFFFF9F
:10116000FFFFFFFFFFFFFFFFFFFFFFFFFFFEFCF89A
:10117000F0E0C08000000000FFFFFFFFFFFFFFFF67
:10118000FFFFFFFFFFFFFFFFFFFFFFFFFFFFFFFF6F
:10119000FFFFFFFFFFFFFFFFFFFFFFFFFFFFFFFF5F
:1011A000FFFFFFFFFFFFFFFFFFFFFFFFFFFFFFFF4F
:1011B000FFFFFFFFFFFFFFFFFFFFFFFFFFFFFFFF3F
:1011C000FFFFFFFFFFFFFFFFFFFFFFFFFFFFFFFF2F
:1011D0007F3E1C08FFFFFFFFFFFFFFFFFFFFFFFF3A
:1011E000FFFFFFFFFFFFFFFFFFFFFFFFFFFFFFFF0F
:1011F000FFFFFFFFFFFFFFFFFFFFFFFFFFFFFFFFFF
:10120000FFFFFFFFFFFFFFFFFFFFFFFFFFFFFFFFEE
:10121000FFFFFFFFFFFFFFFFFFFFFFFFFFFFFFFFDE
:10122000FFFFFFFF7F3F1F0F0703010000000000CB
:10123000010101010101010101010101010101019E
:10124000010101010101010101010101010101018E
:10125000010101010101010101010101010101017E
:101260000101010101010101010101010101FFFF72
:10127000FFFFFFFFFFFFFFFF7F3F1F0F070301007F
:10128000000000000000000000000000000000005E
:10129000000000000000000000000000000000004E
:1012A000000000000000000000000000000000003E
:1012B000000000000000000000000000000000002E
:1012C000000000000000000000007F7F7F3F1F0F34
:1012D0000703010000000000000000000000000003
:1012E0000000000000000000008080808084FCFE80
:1012F000FEFEFEFEFEFEFEFC000000000000000000
:10130000000080C0E0F0F8FCFCFEFEFFFFFFFFFFE6
:10131000FFFFFFFFFFFFFFFFFFFFFFFEFEFCFCF8EC
:10132000F0E0C08000000000000000000000FCFEB3
:10133000FEFEFEFEFEFEFEFC8080808080001F3FE1
:101340003F3F3F3F7FFFFFFFFFFFFFFFFFF9F0E061
:10135000C0800000000000FEFFFFFFFFFFFFFFFF57
:10136000FFFFFFFFFFFFFFFFFFFFFFFFFFFFFFFF8D
:10137000FFFFFFFFFFFFFFFFFFFFFE000000000079
:1013800080C0E0F0F9FFFFFFFFFFFFFFFF7F3F3F5F
:101390003F3F3F1F00000000000000000103070F57
:1013A0001F3F7F7F7F7F7F7F7F7E0000007FFFFF6B
:1013B000FFFFFF3F1F1F1F1F1F1F1F3FFFFFFFFFDD
:1013C000FFFF3F1F1F1F1F1F1F1F3FFFFFFFFFFFCD
:1013D0007F0000007E7F7F7F7F7F7F7F3F1F0F0723
:1013E00003010000000000000000000000000000F9
:1013F0000000000000000080C0E0F0F0F0F0F0F02D
:10140000F0F000000101FFFFFFF0E0E0E0E0E0E0CD
:10141000E0F00F0F0F0F0F0FF0E0E0E0E0E0E0E092
:10142000F0FFFFFF01010000F0F0F0F0F0F0F0F04D
:10143000E0C080000000000000000000000000008C
:101440000000C0E0E0E0E0E0F0F8FCFEFFFFFFFF9E
:10145000FFFF7F3F1F0F0703000000000303031F70
:101460001F1FFFFFFFFFFFFFFCF8F8F8F8FCFFFF6E
:10147000FFFFFFFF1F1F1F03030300000000030700
:101480000F1F3F7FFFFFFFFFFFFFFEFCF8F0E0E0D4
:10149000E0E0E0C000000000070F0F0F0F0FFFFF9C
:1014A000FFFFFFFFFFFFFFFC000000000000000047
:1014B00000000000003E7E7EF0F0E087878303039B
:1014C00003030303838787E0F0F07E7E3E00000085
:1014D00000000000000000000000FCFFFFFFFFFF15
:1014E000FFFFFFFF0F0F0F0F0F07000000000000AE
:1014F00000000000000101010101010101000000E4
:1015000000000000000000000000000000000001DA
:1015100003070F0F0F0F0F0F0F0F0F0F0703010020
:1015200000000000000000000000000000000000BB
:1015300000010101010101010100000000000000A3
:10154000000011241FBECFE5D8E0DEBFCDBF12E002
:10155000A0E6B0E0ECE7F2E502C005900D92A437FA
:10156000B107D9F726E0A4E7B2E001C01D92AF3C75
:10157000B207E1F70E940E170C943C290C9400006E
:101580002F923F920F931F93CF93DF93D101139626
:101590008C911397815012968C93129788237CF12B
:1015A0000D911C911197E0E0F0E0682F082E000CDF
:1015B000770B9801260F371FE9012881022E000CB6
:1015C000330B1616170694F490E0A901440F551F2B
:1015D000220F331F220F331F220F331F240F351FFB
:1015E0009F5F492F50E0461757077CF3E20FF31F28
:1015F000815012968C9312978823BCF602C0E0E0CB
:10160000F0E0CF01DF91CF911F910F913F902F908C
:1016100008958AEF8093B10286E08093BB0280E058
:1016200090E0A0E8BFE38093B2029093B302A0934E
:10163000B402B093B50283E393E3A3E3BFE38093E3
:10164000BD029093BE02A093BF02B093C00283E399
:1016500093E3A3EABFE38093AD029093AE02A0931D
:10166000AF02B093B00280E094E09093AC0280931C
:10167000AB029093B7028093B6028EEB8093AA02DE
:1016800086E98093BA0280E690E09093B902809355
:10169000B80282E08093BC02089590917C02992365
:1016A00081F09091A1029F5F9093A10220919F02EF
:1016B0003091A0022F5F3F4F3093A00220939F02F2
:1016C0000FC09091A10291509093A10220919F028E
:1016D0003091A002215031093093A00220939F0243
:1016E0009091A102992324F497E09093A10206C05F
:1016F0009091A102983014F01092A1029BB3907FB8
:10170000823051F4E091A1020E2E000CFF0BED5936
:10171000FD4F8081982B0BC0813049F4E091A102EC
:101720000E2E000CFF0BE559FD4F8081982B9BBBC3
:1017300008951F920F920FB60F9211242F933F938B
:101740004F935F936F937F938F939F93AF93BF93C9
:10175000EF93FF938091BC020E944D0B20919F025A
:101760003091A00280918502909186022817390756
:1017700039F41092A20213BE1CBE89B78D7F89BFB7
:10178000FF91EF91BF91AF919F918F917F916F9159
:101790005F914F913F912F910F900FBE0F901F902F
:1017A00018951F920F920FB60F9211248F939F934B
:1017B0008091A8029091A90201969093A90280932A
:1017C000A8029F918F910F900FBE0F901F901895B8
:1017D0001F920F920FB60F9211248F939F938091B7
:1017E0008402882349F080917A0290917B020196CD
:1017F00090937B0280937A029F918F910F900FBEFE
:101800000F901F9018951F920F920FB60F921124F0
:101810008F939F93809183028823D1F084B5809326
:10182000A50214BC8091A8029091A9029093A702EE
:101830008093A6021092A9021092A8028091A3029E
:101840009091A40201969093A4028093A30207C0F2
:1018500014BC89B7806889BF81E0809383029F911F
:101860008F910F900FBE0F901F901895CF92DF921F
:10187000EF92FF920F93CF93DF93809184028111B7
:10188000ECC00E947A200FEF27E144E26BE08AE08F
:101890000E94002024E146E26EE085E20E940020E2
:1018A00080918002909181028936910534F025E182
:1018B00040E16DE08CE00E947E208091800290915A
:1018C00081028E3691053CF00FEF25E146E16DE097
:1018D00082E10E947E208091800290918102833774
:1018E00091053CF00FEF25E14CE16DE088E10E94AD
:1018F0007E208091800290918102883791053CF092
:101900000FEF25E142E26DE08EE10E947E206FE064
:101910008BE20E94E91C20E048E065E080EA9BE061
:101920000E945A216091800270918102072E000C62
:10193000880B990B0E94392620E030E040E251E408
:101940000E948F252AE030E040E050E00E94892488
:1019500087E690E00E94F02220E040E262E186E328
:1019600094E00E945A216FE184E00E94E91C60919A
:10197000760270917702809178029091790224E644
:1019800030E040E050E00E948327211531054105F9
:101990005105D9F0C0E00F2EFAE0CF2ED12CE12C6A
:1019A000F12CF02DCA01B901A70196010E948327ED
:1019B000CF5F2115310541055105A1F7C2303CF03B
:1019C000D6E0DC1B1D1624F00BC0D4E001C0D4E02F
:1019D000C0E089E690E00E94F022CF5FCD17CCF303
:1019E00060917602709177028091780290917902ED
:1019F00028EE33E040E050E00E948327CA01B9019D
:101A00000E9424238091760290917702A09178021F
:101A1000B09179028115914EA54FB540E0F481E671
:101A200092E00E94F022609176027091770280919C
:101A300078029091790228EE33E040E050E00E9475
:101A4000832724E630E040E050E00E948327CA016B
:101A5000B9010E9424230E94A91CDF91CF910F910C
:101A6000FF90EF90DF90CF90089520918702309102
:101A700088024091890250918A0260918B02709194
:101A80008C0280918D0290918E020E948F250E947F
:101A90000826709386026093850220919F02309100
:101AA000A002C901861B970B99F01AF010927C02D4
:101AB00003C081E080937C0281E08093A20283B71F
:101AC0008D6083BF8091BA028CBF89B7826089BF65
:101AD0000895B59B04C0B69B02C0B79933C0B599B1
:101AE00010C02FEF30E782E0215030408040E1F716
:101AF00000C0000086B385FB992790F981E0892713
:101B0000089596B3892F807496FD0DC09FEF20E74E
:101B100032E0915020403040E1F700C00000B6991B
:101B200016C082E00895B7990FC08FEF90E722E0CA
:101B3000815090402040E1F700C00000B79906C0F6
:101B400083E0089580E0089580E0089580E008959E
:101B50001092A00210929F021092A1024091BC022A
:101B60002091B8023091B902429FC001439F900D6D
:101B700011249695879596958795909386028093E4
:101B8000850281E080937C028093A20283B78D60FE
:101B900083BF8091BA028CBF89B7826089BF809170
:101BA000A2028111FCCF2FEF82E597E02150804007
:101BB0009040E1F700C000004091BC022091B802C3
:101BC0003091B902429FC001439F900D1124909320
:101BD000A00280939F0210928602109285021092BA
:101BE0007C0281E08093A20283B78D6083BF8091E5
:101BF000BA028CBF89B7826089BF8091A20281112D
:101C0000FCCF1092A00210929F02109286021092B6
:101C1000850281E0809366000895882381F00E9408
:101C20007A2067E086E10E94E91C2FEF47E36CE52C
:101C300084E690E10E949C1E0E94A91C08950E94C7
:101C40007A2067E086E10E94E91C2FEF47E36CE50C
:101C500080EE9DE00E949C1E0E94A91C08950E9497
:101C60007A2067E08BE10E94E91C2FEF44E366E5F0
:101C700088EE92E10E949C1E0E94A91C0895B499CE
:101C80000DC0B39B0BC080E00E940D0E81E08093DD
:101C9000840210927B0210927A0221C0B3990DC087
:101CA000B49B0BC081E00E940D0E81E08093840202
:101CB00010927B0210927A0212C0B4990CC0B399B0
:101CC0000AC00E942F0E81E08093840210927B0252
:101CD00010927A0204C0809184028823E9F0B39BB9
:101CE00009C0B49B07C00E947A200E94A91C89B732
:101CF000846089BF80917A0290917B028D329140FD
:101D000058F01092840210927B0210927A0289B7E6
:101D10008B7F89BF0E94360C089587B9E62FF0E0CB
:101D20001E161F068CF420E030E080E090E0369A2A
:101D30003699FECF44B155B1840F951F2F5F3F4FA9
:101D40002E173F07A1F702C080E090E070E00E94EC
:101D50005B27CB0108950F931F936AE084E00E94F4
:101D60008D0EBC0180E090E00E9437262AE939E917
:101D70004CEC52E40E948F2520E030E040E250E439
:101D80000E94EE2620E030E040EC50E40E94EE2677
:101D90000E94012670937F0260937E026436710573
:101DA000CCF5DB9AD89A1BBC1ABC19BC18BC0E9493
:101DB0007A200E94A91C6AE084E00E948D0EBC017A
:101DC00080E090E00E9437262AE939E94CEC52E4A1
:101DD0000E948F2520E030E040E250E40E94EE2691
:101DE00020E030E040EC50E40E94EE2620E030E0BD
:101DF00048EC52E40E948A258823ECF28091AB02E1
:101E00009091AC029BBD8ABD8091B6029091B702C1
:101E100099BD88BD80917E0290917F0220918002C1
:101E2000309181028217930751F090938102809341
:101E3000800280918202811102C00E94360C609162
:101E4000A3027091A40280E090E00E9437262091C6
:101E50008F023091900240919102509192020E9423
:101E6000EE260E940826643671058105910500F171
:101E700000917602109177022091780230917902D8
:101E8000DC01CB01800F911FA21FB31F809376024C
:101E900090937702A0937802B09379021092A402F3
:101EA0001092A30280918202811102C00E94360C1E
:101EB0001F910F9108957F928F929F92AF92BF9240
:101EC000CF92DF92EF92FF920F931F93CF93DF9306
:101ED0008C01762ED42F413009F06BC060E00E9457
:101EE000EF28E72CF12C0E0D1F1D6091AB027091B5
:101EF000AC02C8010E940C290E0D1F1D6091B60294
:101F00007091B702C8010E940C290E0D1F1D60912F
:101F1000AA02C8010E94EF280E0D1F1D6091BA028F
:101F2000C8010E94EF280E0D1F1D6091B80270912C
:101F3000B902C8010E940C290E0D1F1D6091B1024B
:101F4000C8010E94EF280E0D1F1D6091BB02C80141
:101F50000E94EF280E0D1F1D6091BC02C8010E9457
:101F6000EF280E0D1F1D4091BD025091BE026091E1
:101F7000BF027091C002C8010E9400290E0D1F1DF2
:101F80004091B2025091B3026091B4027091B502D7
:101F9000C8010E9400294091AD025091AE026091AB
:101FA000AF027091B002C701800F911F0E940029FB
:101FB00060C141115AC1E62EF12C0E0D1F1DC80142
:101FC0000E94E928813024E0920728F49093AC0223
:101FD0008093AB0206C080E094E09093AC028093C3
:101FE000AB020E0D1F1DC8010E94E928813034E0AC
:101FF000930728F49093B7028093B60206C080E05E
:1020000094E09093B7028093B6020E0D1F1DC80195
:102010000E94DB28843118F08093AA0203C08EEB63
:102020008093AA020E0D1F1DC8010E94DB28823377
:1020300018F08093BA0203C086E98093BA020E0DAD
:102040001F1DC8010E94E9289C0120513109213837
:10205000314028F49093B9028093B80206C080E61C
:1020600090E09093B9028093B8020E0D1F1DC80135
:102070000E94DB28823318F08093B10203C086E906
:102080008093B1020E0D1F1DC8010E94DB289FEF37
:10209000980F903118F48093BB0203C086E08093C0
:1020A000BB020E0D1F1DC8010E94DB289FEF980F79
:1020B000923018F48093BC0203C082E08093BC028B
:1020C0000E0D1F1DC8010E94E3284B015C0120E09A
:1020D00030E040E050E40E94E92618169CF02AE91E
:1020E00039E949E95EE3C501B4010E948A258823E4
:1020F0004CF08092BD029092BE02A092BF02B092BC
:10210000C0020CC083E393E3A3E3BFE38093BD026B
:102110009093BE02A093BF02B093C0020E0D1F1D8C
:10212000C8010E94E3284B015C0120E030E040E858
:102130005FE30E94E92618169CF02DEC3CEC4CEC79
:102140005DE3C501B4010E948A2588234CF080928A
:10215000B2029092B302A092B402B092B5020CC047
:1021600080E090E0A0E8BFE38093B2029093B302D6
:10217000A093B402B093B502C701800F911F0E94D3
:10218000E3286B017C0120E030E040EA50E40E944B
:10219000E92618165CF02DEC3CEC4CEC5DE3C70135
:1021A000B6010E948A2588230CF056C083E393E38E
:1021B000A3EABFE38093AD029093AE02A093AF0277
:1021C000B093B00256C0C72CD12C7801C1E003C037
:1021D000EC0CFD1CCF5FC7010E94E32880907602C3
:1021E00090907702A0907802B090790286169706B8
:1021F000A806B90678F4609376027093770280930C
:10220000780290937902C0937D02C93108F310924D
:102210007D0203C0C931E0F22CC0D33051F54091AA
:1022200076025091770260917802709179028091E4
:102230007D029801879D200D311D1124C9010E9446
:10224000122980917D028F5F893118F480937D027D
:1022500010C010927D020DC0C092AD02D092AE02AD
:10226000E092AF02F092B00204C0423009F4ABCF6A
:10227000D4CFDF91CF911F910F91FF90EF90DF901E
:10228000CF90BF90AF909F908F907F900895CF9206
:10229000DF92EF92FF92CF93D09AD19AD29AD39AAB
:1022A0008C9A8D9ADB9AD89AC59AC69AC79A379A09
:1022B000309A319A329A88E090E00E94DB28882395
:1022C00089F00E94090B41E064E088E090E00E9400
:1022D0005B0FC9E143E064E080E890E00E945B0F9F
:1022E000C150C1F740E064E088E090E00E945B0FDD
:1022F00042E064E080E890E00E945B0F85B58E606C
:1023000085BD8EEF83BD83EA8FBD8BE08EBD80914E
:10231000AB029091AC029BBD8ABD8091B6029091B8
:10232000B70299BD88BD2091BD023091BE02409197
:10233000BF025091C0026091B2027091B3028091CD
:10234000B4029091B5020E94EE262BED3FE049E4E5
:1023500050E40E94EE266B017C016091BB0270E0AC
:1023600080E090E00E9439269B01AC01C701B601D4
:102370000E948F2560938F02709390028093910248
:10238000909392028DEB97E3A6E8B7E380939302D4
:1023900090939402A0939502B09396022091BC0270
:1023A0008091B8029091B902289FB001299F700DC9
:1023B000112480E090E00E9437269B01AC0160E090
:1023C00070E084EB93E40E948F252091AD02309160
:1023D000AE024091AF025091B0020E948F256093EF
:1023E0008702709388028093890290938A020E94E8
:1023F000F21C0E947A208091B1020E94D31C0E949C
:10240000A91C789480916600811102C00E94A80DD9
:1024100085B7886085BF8BB780688BBFCF91FF90F1
:10242000EF90DF90CF900895CF92DF92EF92FF92DE
:10243000CF93DF93C091BB02D0E02091A6023091F0
:10244000A702E091A802F091A9028CE390E0BE01FE
:102450000E946F27260F371F2E173F0788F4209101
:10246000A8023091A902AFEFB0E00E94AB276093C1
:102470009B0270939C0280939D0290939E0218C0D1
:102480002091A6023091A7024091A502AFEFB0E0E3
:102490000E94AB27DC01CB01840F911DA11DB11D52
:1024A00080939B0290939C02A0939D02B0939E0206
:1024B00060919B0270919C0280919D0290919E027E
:1024C0006115710581059105A1F10E9437262091C2
:1024D00093023091940240919502509196020E948D
:1024E000EE269B01AC0160E070E080E89FE30E9473
:1024F0008F2560939702709398028093990290932E
:102500009A0220918F023091900240919102509155
:1025100092020E94EE2626E636E646E650E40E9447
:10252000EE2660938B0270938C0280938D029093C1
:102530008E022091A8023091A9028CED95E0BE0197
:102540000E946F276217730708F062C089B78F7700
:1025500089BF14BC1092A9021092A8021092A7027F
:102560001092A60210929B0210929C0210929D0261
:1025700010929E0210928B0210928C0210928D0289
:1025800010928E021092830210929702109298027B
:102590001092990210929A021092A5026091A302E1
:1025A0007091A40280E090E00E94372620918F0273
:1025B0003091900240919102509192020E94EE2639
:1025C0006B017C01609176027091770280917802B4
:1025D000909179020E9437269B01AC01C701B60198
:1025E0000E941E250E94082660937602709377024F
:1025F00080937802909379021092A4021092A30221
:10260000F89443E064E080E890E00E945B0F7894E7
:10261000C091AA026C2F70E080E090E00E94392601
:1026200020918B0230918C0240918D0250918E024C
:102630000E948A25882374F46C2F70E080E090E07B
:102640000E94372660938B0270938C0280938D02D8
:1026500090938E02DF91CF91FF90EF90DF90CF901B
:1026600008952F923F924F925F926F927F928F9236
:102670009F92AF92BF92CF92DF92EF92FF920F9311
:102680001F93CF93DF93CDB7DEB72E970FB6F89495
:10269000DEBF0FBECDBF5C014B015A874987D22EEA
:1026A00020E048E065E080EA9BE00E945A210E9419
:1026B0007A2081E00E94541D8AE00E94DD1CC8013E
:1026C0000E94F02268E18AE50E94E91C8BE690E016
:1026D0000E94F02264E28AE50E94E91C80E790E013
:1026E0000E94F02260E38AE50E94E91C85E790E001
:1026F0000E94F022DD2009F468C02D2D30E0121672
:102700001306BCF480E001E010E0A801440F551F5F
:10271000000F111F000F111F000F111F040F151FB5
:102720008F5F482F082E000C550B421753076CF390
:1027300002C001E010E069E286E00E94E91C8AE73D
:1027400090E00E94F0222801612C712CC301B2019B
:102750000E9437266D837E838F839887B40180E043
:1027600090E00E9437262D813E814F8158850E943E
:102770008F25A30192010E94892463E386E00E94D1
:10278000E91C8FE790E00E94F022B50180E090E024
:102790000E9437262D813E814F8158850E948F25CA
:1027A000A30192010E94892429852B873A853C87C1
:1027B000AD86BE860F2EFDE05F2EF02DED2CF12CA8
:1027C0000F2EF3EFCF2EF02D1BC069E286E00E94A2
:1027D000E91C8AE790E00E94F022B40180E090E0DA
:1027E0000E94242363E386E00E94E91C8FE790E0C7
:1027F0000E94F022B50180E090E00E942423D4CF13
:1028000089859A85892B99F02B853C8500E0ADEC74
:10281000BCEC0E94AB279C013695279536952795F1
:10282000369527950F5F2115310589F701C000E026
:102830001C82A114B10409F4BFC12D853E85662414
:10284000639401C0682EADECBCEC0E94AB279C01E8
:1028500036952795369527953695279581E0860DEF
:102860002115310579F76C82712CC3010E94BA27BA
:102870009A8389831B82161417040CF04DC0EB85D4
:10288000FC8560E070E080E0402F50E06417750741
:102890007CF569807A80680E711C87FD7A949F01AF
:1028A000ADECBCEC0E94AB279695879596958795E5
:1028B000969587959C01220F331F880F991F880FCB
:1028C000991F880F991F820F931FDF01A81BB90B57
:1028D000CD01D3018C939F01ADECBCEC0E94AB27E2
:1028E000FC01F695E795F695E795F695E79507C00F
:1028F000A981BA81A80FB11D87FDBA951C928B8161
:102900008F5F8B83682F082E000C770B2C8130E0B3
:10291000621773070CF4BACF64E185E00E94E91CEA
:1029200020E041E16CE084E790E00E945A218C8134
:102930000FEF080F059D002D11240B5F81508B8335
:1029400088230CF1E981FA81E80FF11D87FDFA95E2
:102950006081062E000C770B880B990B0E942423B4
:102960008B81082E000C990B8E159F0539F4DD2004
:1029700029F081E692E00E94F0220B5F8B8181506A
:102980008B838823FCF64CE0400F24E264E1802F27
:102990000E9483200E94A91C0E94690D8111FCCF16
:1029A00000E00E94690D882309F4FAC0813009F023
:1029B00085C00F5F202F002E000C330B8C8190E020
:1029C0002817390709F0A6C09E012F5F3F4F190154
:1029D0000E94C00AA816B90608F412CF88159905F6
:1029E00008F40ECF0E94690D8111FCCF24E241E171
:1029F00064E185E00E94832010E00E94690D882335
:102A000091F1833021F4115072F512E02CC0823024
:102A100029F41F5F13303CF110E025C0813019F517
:102A2000111116C000E021E244E765E186E50E944D
:102A300000202DE244E761E286E50E94002029E3C0
:102A400044E76DE286E50E9400200E94A91C62C056
:102A5000113009F4AEC0123031F4CE0101961C01E0
:102A60000E94C00AB1C000E021E244E765E186E5CA
:102A70000E9400202DE244E761E286E50E940020EA
:102A800029E344E76DE286E50E940020612F660F8E
:102A9000610F660F660F21E2260F6B5E0FEF44E7B2
:102AA00086E50E9400200E94A91C0E94690D8111E8
:102AB000FCCF0E94690D8823E1F39FCF8330A1F4FE
:102AC000E981FA81802F002E000C990BE80FF91F85
:102AD00020812F5F2083E981FA81E80FF91F80812F
:102AE0008A30C4F0108216C08230A1F4E981FA81E4
:102AF000802F002E000C990BE80FF91F2081215028
:102B00002083E981FA81E80FF91F8081882314F47A
:102B100099E0908364E185E00E94E91C8C818150FA
:102B20008B83882304F1E981FA81E80FF11D87FD89
:102B3000FA956081062E000C770B880B990B0E948A
:102B400024238B81082E000C990B8E159F0531F4E0
:102B5000DD2021F081E692E00E94F0228B818150FD
:102B60008B83882304F78C8181500C9D902D112438
:102B7000859D900D112485E0890FDD2049F0202FDF
:102B8000002E000C330B2E153F0514F48AE0890F3C
:102B90004CE0480F24E264E10E9483200E94A91CBB
:102BA0000E94690D8111FCCF0E94690D8823E1F319
:102BB000F8CE89859A8508C080E090E00E94BA2707
:102BC0009A8389831B82A8CE2E960FB6F894DEBF17
:102BD0000FBECDBFDF91CF911F910F91FF90EF906E
:102BE000DF90CF90BF90AF909F908F907F906F902D
:102BF0005F904F903F902F9008950E947A2020E0A0
:102C000048E065E080EA9BE00E945A2181E00E9452
:102C1000541D84E00E94DD1C84E890E00E94F022B4
:102C20008AE10E94DD1C60918B0270918C02809180
:102C30008D0290918E022AE030E040E050E00E9448
:102C4000892488E30E94DD1C88E890E00E94F0223D
:102C500082E50E94DD1C60917E0270917F02072E4A
:102C6000000C880B990B0E94392620E030E040E2EE
:102C700051E40E948F2524E630E040E050E00E94BD
:102C8000892482E00E94541D84E00E94DD1C8CE8AF
:102C900090E00E94F0228AE10E94DD1C6091970280
:102CA000709198028091990290919A022AE030E006
:102CB00040E050E00E94892488E30E94DD1C80E906
:102CC00090E00E94F02282E50E94DD1C60919B0250
:102CD00070919C0280919D0290919E020E942423FB
:102CE00083E00E94541D84E00E94DD1C84E990E092
:102CF0000E94F0228AE10E94DD1C60919F02709187
:102D0000A002072E000C880B990B0E94242388E355
:102D10000E94DD1C88E990E00E94F02282E50E947A
:102D2000DD1C6091A8027091A90280E090E00E94F1
:102D3000242384E00E94541D84E00E94DD1C8CE961
:102D400090E00E94F0228AE10E94DD1C60918502E1
:102D50007091860280E090E00E94242388E30E9424
:102D6000DD1C80EA90E00E94F02282E50E94DD1CDA
:102D70006091A6027091A70280E090E00E94242357
:102D800085E00E94541D84E00E94DD1C84EA90E0EE
:102D90000E94F0228AE10E94DD1C6091A102062EB1
:102DA000000C770B880B990B0E94242386E00E946D
:102DB000541D84E00E94DD1C88EA90E00E94F0220D
:102DC0008AE10E94DD1C6091A3027091A40280E060
:102DD00090E00E94242388E30E94DD1C8CEA90E0AE
:102DE0000E94F02282E50E94DD1C609176027091C3
:102DF000770280917802909179020E94372620E034
:102E000030E04AE754E40E948F2524E630E040E0B9
:102E100050E00E9489240E94A91C08950E94471135
:102E200080918202811102C00E94360C0E94AB0E7A
:102E30000E9414120E94350D80918202811103C0FC
:102E40000E943F0E02C00E94FD150E94690D88235A
:102E500069F30E942C17EACF80917502863054F0F6
:102E6000809174028F5F8093740210927502823099
:102E7000D9F424C088235CF480917402815080933B
:102E8000740295E090937502823071F408C08091CD
:102E90007402823049F48091750284307CF0109283
:102EA0007402109275020AC080917402882334F46F
:102EB00082E08093740283E0809375020E947A20FE
:102EC00020E048E065E080EA9BE00E945A21809182
:102ED0007402811189C08AE00E94DD1C81E00E9499
:102EE000541D80EB90E00E94F02285E50E94DD1CDD
:102EF0006091B6027091B70280E090E00E942423B6
:102F00008AE00E94DD1C82E00E94541D89EB90E063
:102F10000E94F02285E50E94DD1C6091AB02709159
:102F2000AC0280E090E00E9424238AE00E94DD1C35
:102F300083E00E94541D83EC90E00E94F02285E51E
:102F40000E94DD1C6091BD027091BE028091BF02A3
:102F50009091C00228EE33E040E050E00E948924C6
:102F60008AE00E94DD1C84E00E94541D8BEC90E0FE
:102F70000E94F02285E50E94DD1C6091B2027091F2
:102F8000B3028091B4029091B50228EE33E040E0A4
:102F900050E00E9489248AE00E94DD1C85E00E94A6
:102FA000541D81ED90E00E94F02285E50E94DD1C19
:102FB0006091BB0270E080E090E00E9424238AE0F0
:102FC0000E94DD1C86E00E94541D89ED90E00E9465
:102FD000F02285E50E94DD1C6091BC0270E080E07B
:102FE00090E00E942423AAC0813009F07AC08AE0D0
:102FF0000E94DD1C81E00E94541D83EE90E00E943F
:10300000F02285E50E94DD1C6091AA0270E080E05C
:1030100090E00E9424238AE00E94DD1C82E00E944E
:10302000541D8DEE90E00E94F02285E50E94DD1C8B
:103030006091AD027091AE028091AF029091B002AA
:1030400028EE33E040E050E00E9489248AE00E94AC
:10305000DD1C83E00E94541D85EF90E00E94F02269
:1030600085E50E94DD1C6091B8027091B90280E094
:1030700090E00E9424238AE00E94DD1C84E00E94EC
:10308000541D8EEF90E00E94F02285E50E94DD1C29
:103090006091BA0270E080E090E00E9424238AE010
:1030A0000E94DD1C85E00E94541D8AE091E00E9490
:1030B000F02285E50E94DD1C6091B10270E080E0A5
:1030C00090E00E9424238AE00E94DD1C86E00E949A
:1030D000541D87E191E00E94F02285E50E94DD1CED
:1030E0002DC0823059F58AE00E94DD1C81E00E94EB
:1030F000541D82E291E00E94F02285E50E94DD1CD1
:103100008AE00E94DD1C82E00E94541D82E391E06F
:103110000E94F0228AE00E94DD1C83E00E94541D80
:1031200081E491E00E94F0228AE00E94DD1C84E0AC
:103130000E94541D8FE491E00E94F022609175027C
:10314000660F660F660F2FE0260F695F4FE780E07E
:103150000E9483200E94A91C0E94690D8111FCCF4E
:103160000E94690D8823E1F3813009F060C38091EA
:103170007402082E000C990BFC01EE0FFF1FE80FE4
:10318000F91FEE0FFF1F80917502E80FF11D87FDFB
:10319000FA95E031F10508F059C3E65DFF4F0C9454
:1031A000A5274091B6025091B70204E511E020E056
:1031B00060E070E080E094E00E9431132091B6025C
:1031C0003091B7028217930709F440C39093B70276
:1031D0008093B60241E064E088E090E00E945B0FDB
:1031E0008091B6029091B70299BD88BD2FC34091DE
:1031F000AB025091AC0203E611E020E060E070E029
:1032000080E094E00E9431132091AB023091AC0237
:103210008217930709F41AC39093AC028093AB0210
:1032200041E064E088E090E00E945B0F8091AB0297
:103230009091AC029BBD8ABD09C320E030E04AE713
:1032400054E46091BD027091BE028091BF029091E2
:10325000C0020E94EE260E94082603E711E023E048
:10326000AB016CE271E080ED97E00E943113BC018C
:1032700080E090E00E9437266B017C0120E030E086
:103280004AE754E46091BD027091BE028091BF0292
:103290009091C0020E94EE269B01AC01C701B601CD
:1032A0000E948A25882309F4D1C220E030E04AE751
:1032B00054E4C701B6010E948F256093BD0270934C
:1032C000BE028093BF029093C00241E064E088E0B8
:1032D00090E00E945B0FBAC220E030E04AE754E47D
:1032E0006091B2027091B3028091B4029091B502E4
:1032F0000E94EE260E94082606E811E023E0AB01BA
:1033000064E670E088EE93E00E943113BC0180E037
:1033100090E00E9437266B017C0120E030E04AE714
:1033200054E46091B2027091B3028091B402909122
:10333000B5020E94EE269B01AC01C701B6010E94B6
:103340008A25882309F482C220E030E04AE754E469
:10335000C701B6010E948F256093B2027093B30239
:103360008093B4029093B50241E064E088E090E07D
:103370000E945B0F6BC24091BB0250E001E911E07B
:1033800020E061E070E080E190E00E943113209144
:10339000BB0230E08217930709F458C28093BB0246
:1033A00041E064E088E090E00E945B0F4FC24091F2
:1033B000BC0250E002EA11E020E061E070E08FEF33
:1033C00090E00E9431132091BC0230E082179307F5
:1033D00009F43CC28093BC0241E064E088E090E0E4
:1033E0000E945B0F33C24091AA0250E001EB11E052
:1033F00020E064E170E08FEF90E00E9431132091B3
:10340000AA0230E08217930709F420C28093AA022F
:1034100041E064E088E090E00E945B0F17C220E08A
:1034200030E04AE754E46091AD027091AE028091C1
:10343000AF029091B0020E94EE260E9408260FEB88
:1034400011E023E0AB0164E670E088E893E10E94BC
:103450003113BC0180E090E00E9437266B017C01B3
:1034600020E030E04AE754E46091AD027091AE0292
:103470008091AF029091B0020E94EE269B01AC01B8
:10348000C701B6010E948A25882309F4DFC120E024
:1034900030E04AE754E4C701B6010E948F256093EB
:1034A000AD027093AE028093AF029093B00241E000
:1034B00064E088E090E00E945B0FC8C14091B802D0
:1034C0005091B90200ED11E020E060E170E080E988
:1034D00091E00E9431132091B8023091B902821715
:1034E000930709F4B3C19093B9028093B80241E005
:1034F00064E088E090E00E945B0FA8C14091BA02AE
:1035000050E004EE11E020E062E370E08FEF90E025
:103510000E9431132091BA0230E08217930709F418
:1035200095C18093BA0241E064E088E090E00E9497
:103530005B0F8CC14091B10250E00AE011E020E045
:1035400062E370E08FEF90E00E9431132091B102AE
:1035500030E08217930709F479C18093B1020E9489
:10356000D31C41E064E088E090E00E945B0F6EC1F4
:103570009091820281E08927809382020E94690DE6
:103580008111FCCF0E940E170E94A80D5FC10E94FE
:103590007A2082E00E94541D8DE20E94DD1C88EF9B
:1035A00091E00E94F02284E00E94541D82E20E9479
:1035B000DD1C8EEF91E00E94F02286E00E94541DF7
:1035C0008CE10E94DD1C88E092E00E94F02284E5FC
:1035D0000E94DD1C8BE092E00E94F022F12C0F2E65
:1035E000FBE3EF2EF02D14E1D9E6C1E0FE9C802D27
:1035F00011244EE2480F0FEF29E36DE28C5E0E942A
:103600000020F11003C04D2F8FE402C04EE2812F45
:1036100000E029E36DE20E9400200E94A91C0E94A4
:10362000690D8111FCCF0E94690D9EEF980F9230B9
:1036300030F4FC260E94690D8111FCCFD7CF813078
:1036400091F7FF2009F402C10E947A2081E00E94D4
:10365000541D88E00E94DD1C8FE092E00E94F02261
:1036600083E00E94541D82E00E94DD1C81E292E012
:103670000E94F0220E94A91C1092760210927702FA
:10368000109278021092790210927D021092A40298
:103690001092A302C12CD12C7601C39443E064E0C4
:1036A00080E890E00E945B0F83E50E94DD1CC7016B
:1036B000B6010E9424238FE292E00E94F02269E189
:1036C00070E080E090E00E9424230E94A91C8FEF0C
:1036D000C81AD80AE80AF80A8AE1C816D104E1042F
:1036E000F104E1F610927D0286E00E94541D8DE205
:1036F0000E94DD1C81E392E00E94F0220E94A91C3E
:103700000E94690D8111FCCF0E94690D8823E1F3AD
:103710009DC00E947A2082E00E94541D88E20E948F
:10372000DD1C87E392E00E94F02284E00E94541D99
:1037300084E10E94DD1C8FE392E00E94F02286E08B
:103740000E94541D8CE10E94DD1C88E092E00E94E2
:10375000F02284E50E94DD1C8BE092E00E94F022C2
:10376000F12C0F2EFBE3EF2EF02DC4E119E6D1E092
:10377000FE9C802D11244EE2480F0FEF29E36DE2ED
:103780008C5E0E940020F11003C0412F8FE402C024
:103790004EE28C2F00E029E36DE20E9400200E949F
:1037A000A91C0E94690D8111FCCF0E94690D9EEF3A
:1037B000980F923030F4FD260E94690D8111FCCFE4
:1037C000D7CF813091F7FF2009F440C00E947A20C2
:1037D00083E00E94541D88E00E94DD1C8FE492E08B
:1037E0000E94F0220E94A91C0E94090B41E064E0A3
:1037F00088E090E00E945B0F85E00E94541D8DE2FE
:103800000E94DD1C81E392E00E94F0220E94A91C2C
:103810000E94690D8111FCCF0E94690D8823E1F39C
:1038200015C00E94690D8111FCCF0E940E178230D5
:1038300031F4809175028F5F8093750207C08330E9
:1038400029F4809175028150809375020E94690D60
:103850008823E1F30E942C1766956695669590E89B
:10386000699FB0011124680F711DFB01E553FD4FE5
:103870004083089566956695669590E8699FB001C6
:103880001124680F711DFB01E553FD4F80810895E0
:10389000FF920F931F93CF93DF93C82F062F172FFD
:1038A000F42E0E9406250E940325883031F08031D5
:1038B00021F081E08093C10233C088E70E94142583
:1038C0000E940325883131F0803221F081E080931D
:1038D000C10226C08C2F0E9414250E940325883225
:1038E00019F4F11007C01AC08033D9F381E0809336
:1038F000C10216C0C02FD12F8E010F5F1F4FFA9447
:103900000F0D111D89910E9414250E9403258832F4
:1039100011F0803319F4C017D107A1F71092C1023A
:103920000E940E25DF91CF911F910F91FF90089576
:10393000CF93DF931F92CDB7DEB7898341E0BE01FD
:103940006F5F7F4F80E00E94481C0F90DF91CF9106
:103950000895CF93DF9381E20E94981C80E00E943B
:10396000981C8FE70E94981C82E20E94981C80E0BD
:103970000E94981C87E00E94981CC0E0D0E0BE0125
:1039800062957295707F7627607F762765537D4FAD
:1039900040E180E40E94481C2196C034D10579F7AB
:1039A000DF91CF910895CF93C82F81E80E94981C92
:1039B0008C2F0E94981CCF910895882314F0809337
:1039C000C20208959091C302903410F48093C30210
:1039D0000895CF93C62F0E94DD1C8C2F0E94E21CFD
:1039E000CF9108950E94F9248EEA0E94981C85EDDB
:1039F0000E94981C80EF0E94981C88EA0E94981CE4
:103A00008FE30E94981C83ED0E94981C80E00E9426
:103A1000981C8DE80E94981C84E10E94981C80E408
:103A20000E94981C80E20E94981C80E00E94981CD2
:103A300081EA0E94981C88EC0E94981C8AED0E94E2
:103A4000981C82E10E94981C81E80E94981C8FEFCC
:103A50000E94981C89ED0E94981C81EF0E94981C7E
:103A60008BED0E94981C80E20E94981C84EA0E94C0
:103A7000981C86EA0E94981C8EE20E94981C8FEA8D
:103A80000E94981C60E080E00E94E91C86EA809316
:103A9000C4021092C9021092C8021092C70210927A
:103AA000C3021092C2020895883028F4880F880F4C
:103AB000880F8093C30208958091C20208958F9267
:103AC0009F92AF92BF92CF92DF92EF92FF920F93AD
:103AD0001F93CF93DF93062F142F0E94E91CD091E0
:103AE000C302C091C2026D2F8C2F0E943A1C1F3F4F
:103AF00091F4902F9770812C912C5401839475012F
:103B0000640104C0CC0CDD1CEE1CFF1C9A95D2F79E
:103B1000482F4C2913C00770C12CD12C7601C394B7
:103B2000B701A60104C0440F551F661F771F0A95F1
:103B3000D2F78A019B010095482F40236D2F8C2FCF
:103B40000E942C1CDF91CF911F910F91FF90EF905D
:103B5000DF90CF90BF90AF909F908F9008953F924D
:103B60004F925F926F927F928F929F92AF92BF928D
:103B7000CF92DF92EF92FF920F931F93CF93DF9339
:103B8000982E88230CF4C6C044230CF4C3C06034C0
:103B900008F0C0C0203408F0BDC011E0812E861AA4
:103BA000820E181B140F462F4770762E741AE82CBD
:103BB000F12C88E090E0841B9109E816F9067CF46A
:103BC00088E090E08E199F092FEF30E0590102C084
:103BD000B594A7948A95E2F78A2D682C04C088E0F2
:103BE000682E641A8FEFA82EB12C02C0AA0CBB1C41
:103BF0004A95E2F73A2C672D892D0E94E91C112382
:103C0000C9F1512C0F2EF3ECCF2EF2E0DF2EF02D68
:103C1000C2ECD2E0A094F6014080B880642D8B2DD8
:103C20000E943A1C0F3F19F4482F432902C0482F25
:103C30004A219B2D9F5F9883642D8B2D0E942C1C05
:103C400053945112E8CF16C0C85F6C2F892D0E9483
:103C5000E91C1123F1F07A2CF6016081F2018081D8
:103C6000982F9F5F9083402F0E942C1C7394711695
:103C700081F0F2CFC72D6718A12C0F2EF3ECCF2EB9
:103C8000F2E0DF2EF02D0F2EF2EC4F2EF2E05F2E41
:103C9000F02D262D2C0FE22FF0E0CF010896E8162C
:103CA000F90694F62815B0F5EE1AFF0A8FEF90E0AA
:103CB0009C0102C0220F331FEA94E2F77901E094DD
:103CC0006C2F685F892D0E94E91C112319F1B12C1A
:103CD0000F2EF3ECCF2EF2E0DF2EF02DC2ECD2E06F
:103CE0009E2C9094F601A080F8806A2D8F2D0E9462
:103CF0003A1C0F3F19F4482F4E2902C0482F492182
:103D00009F2D9F5F98836A2D8F2D0E942C1CB3944A
:103D1000B112E8CFDF91CF911F910F91FF90EF90FB
:103D2000DF90CF90BF90AF909F908F907F906F90DB
:103D30005F904F903F9008952F923F924F925F92E5
:103D40006F927F928F929F92AF92BF92CF92DF92AB
:103D5000EF92FF920F931F93CF93DF93CDB7DEB710
:103D60002C970FB6F894DEBF0FBECDBF5C01662E58
:103D700029832091C2022F833091C3023A87822F78
:103D8000860F1AF480E8682E621A842F90E0079656
:103D90009595879595958795959587958D839E8320
:103DA0009A85969596959695890F893048F02D813C
:103DB0003E81285F3F4FA901481B51095E834D8317
:103DC0004A8457E045228D819E81892B09F4FAC0EF
:103DD0009A859C83712C262C312C512C88E090E004
:103DE000FC01E419F109FB83EA830F2EF3ECCF2EDB
:103DF000F2E0DF2EF02D02EC12E06C818F810E9448
:103E0000E91C39862886729CC001739C900D112490
:103E10007C01E218F308662009F43CC09C012A0DDD
:103E20003B1D852C3C872B87EB85FC859490042CCF
:103E300001C0990C0A94EAF7772079F0F501EE0DAC
:103E4000FF1D2FEFE21AF20A849190E00A8002C06F
:103E5000959587950A94E2F7982A3981313039F49B
:103E6000F6016081F80180810E943A1C982AF601CF
:103E70006081F8018081982F9F5F9083492D0E9477
:103E80002C1C83942B853C852F5F3F4F3C872B87D1
:103E90008610CACFEAECF2E08081882341F0F60177
:103EA0006081F80180810E943A1C482F01C0452D95
:103EB000F6016081F80180810E942C1CFC81F85F72
:103EC000FC837394872D90E02D813E8182179307A8
:103ED00008F493CF2230310508F474C06F2F8F811E
:103EE0000E94E91C272D30E0215031094885598571
:103EF000249FC001259F900D349F900D11246620B2
:103F000009F43EC04501880E991E65015FEFC51A90
:103F1000D50A6A94C60CD11CC80ED91E0F2EF3EC1C
:103F2000EF2EF2E0FF2EF02D02EC12E088E090E0A0
:103F30005C01A418B1083401F7018080F801908079
:103F4000682D892D0E943A1CF301449150E00A2CFF
:103F500002C0559547950A94E2F7482BF981F13054
:103F600009F4482B892D8F5FF8018083682D892DF6
:103F70000E942C1CFFEF6F1A7F0A6C147D04E1F67F
:103F80008091CA02882399F0813041F46091C30284
:103F90008091C2020E943A1C482F0AC06091C3025D
:103FA0008091C2020E943A1C482F409501C040E017
:103FB0006091C302E2ECF2E08081982F9F5F9083D2
:103FC0000E942C1C0E945C1D6A850E94E91C2C9694
:103FD0000FB6F894DEBF0FBECDBFDF91CF911F911A
:103FE0000F91FF90EF90DF90CF90BF90AF909F9098
:103FF0008F907F906F905F904F903F902F9008959B
:10400000DF92EF92FF920F931F93CF93DF93E82EEF
:10401000162FD42EF22ED02F88230CF449C044231F
:104020000CF446C0603408F043C08FE3821708F4F4
:104030003FC04E1500F11CC04D2F612F8C2F0E94E8
:104040005F1DCF5F0C17C0F7DE14D8F017C04D2FDF
:104050006F2D8C2F0E945F1DCF5F0C17C0F7F116DC
:1040600098F01CC00D2F4D2D8D2D0E94AF1D20C02E
:10407000042FCE2DE1CF0E2DC42FDECF0D2DCE2D52
:10408000E6CF0E2DCD2DE3CF0D2F212F4E2D6F2DF1
:104090008E2D0E94AF1D212F6F2DE4CF0D2F2F2DC0
:1040A0004E2D612F8E2D0E94AF1D2F2D612FDACF47
:1040B000DF91CF911F910F91FF90EF90DF900895C6
:1040C0000F931F93CF93DF93182FD0E000E00BC026
:1040D000412F6D2F8C2F0E942C1CCF5FC038C1F751
:1040E000D85FD03411F0C02FF3CFDF91CF911F9163
:1040F0000F91089580E00E94602008950F930E9420
:10410000AF1D0F9108952F923F925F926F927F9211
:104110008F929F92AF92BF92CF92DF92EF92FF92D7
:104120000F931F93CF93DF93C82E81E0D82EDC1816
:10413000D40EB82EB61AB20E462F4770A62EA41A69
:104140000B2D10E088E090E0841B910908171907F7
:104150007CF488E090E0801B910B2FEF30E0B901F8
:1041600002C0759567958A95E2F7CB015B2C04C078
:1041700088E0582E541A8FEF682E01C0660C4A95BD
:10418000EAF76A2D8C2D0E94E91CDD20D9F1812CE3
:104190000F2EF3ECEF2EF2E0FF2EF02DC2ECD2E06A
:1041A000F70170809880672D892D0E943A1C992D07
:1041B0009F5F9883482F4625672D892D0E942C1CD0
:1041C00083948D10EDCF1EC0C85F6C2F8C2D0E9484
:1041D000E91CDD2039F1672CF7015080F101808066
:1041E000652D882D0E943A1C982D9F5FF1019083C8
:1041F000482F4095652D882D0E942C1C63946D14CA
:1042000089F0EACFCA2D5A18A52C712C0F2EF3EC89
:10421000EF2EF2E0FF2EF02D0F2EF2EC2F2EF2E01B
:104220003F2EF02D8A2D8C0FE82FF0E0DF0118963D
:104230000A171B074CF68B1558F50E1B1F0B8FEF3B
:1042400090E09C0102C0220F331F0A95E2F7B22EC4
:10425000B0946C2F685F8C2D0E94E91CDD20C1F0AA
:10426000E12C03EC12E0C2ECD2E0F801C080F8804F
:104270006C2D8F2D0E943A1C9F2D9F5F9883482F95
:104280004B256C2D8F2D0E942C1CE394ED10EDCF4F
:10429000DF91CF911F910F91FF90EF90DF90CF9022
:1042A000BF90AF909F908F907F906F905F903F9066
:1042B0002F9008956623F4F04034E0F42230D0F4D7
:1042C0009093C6028093C5026093C7024093C802D0
:1042D00050E041505109CA0199230CF40796959575
:1042E000879595958795959587958F5F8093C9025A
:1042F0002093CA0208952F923F924F925F926F923D
:104300007F928F929F92AF92BF92CF92DF92EF9265
:10431000FF920F931F93CF93DF93CDB7DEB72B9709
:104320000FB6F894DEBF0FBECDBF2091C2022C8322
:104330003091C3023F839091C90280522091C702FD
:10434000299F900111242F5F3F4F829FA001839FDF
:10435000500D1124598748874F5F5F4F5E834D830F
:10436000E091C502F091C602A885B985EA0FFB1F4E
:1043700054907F80B7E07B22992309F492C0EF81AB
:10438000EB83312C212C88E090E09C012719310926
:104390003A8329830F2EFAEC8F2EF2E09F2EF02D18
:1043A0000F2EF3ECAF2EF2E0BF2EF02D02EC12E058
:1043B000672C752C6B818C810E94E91C4D815E817C
:1043C000430D511D5B874A877A0151E0E51AF108D8
:1043D000772009F44FC00F2EF9ECCF2EF2E0DF2E3C
:1043E000F02D832D362C672C722C582EA5ECB2E0C4
:1043F0002D913C91EA85FB85E20FF31FE4914E2E4F
:10440000032C01C0440C0A94EAF7552081F0F9010D
:10441000EE0DFF1D249130E0098002C035952795EF
:104420000A94E2F7422AF6018081E80EF11CD401D9
:104430008C91813039F4F5016081D8018C910E9412
:104440003A1C482AF5016081D8018C91982F9F5F12
:104450009C93442D0E942C1CF60180812A853B856B
:10446000280F311D3B872A8773947610BFCF762C97
:10447000632C352CD4018C91811107C0422DF5019C
:104480006081D8018C910E942C1CBB81B85FBB83DA
:1044900033948091C902381608F48CCF572C762CAF
:1044A00003C0EF81EB83312C2F8122952695269531
:1044B000237030E08091C80282958695869583703E
:1044C00090E0FF818F0F911D2817390709F469C00B
:1044D0006B818C810E94E91C28853985230D311D53
:1044E0003A832983552009F451C0312C0F2EF3EC67
:1044F000AF2EF2E0BF2EF02D02EC12E00F2EF5EC05
:10450000CF2EF2E0DF2EF02D88E090E0AC014719CD
:1045100051093A010F2EFAECEF2EF2E0FF2EF02DAA
:104520000F2EF9EC8F2EF2E09F2EF02DD5012C905E
:10453000F8014080622D842D0E943A1CD601ED9135
:10454000FC9129813A81E20FF31F449150E0062C3F
:1045500002C0559547950A94E2F7482BD7019C91E4
:10456000913009F4482B842D8F5FF8018083622DF0
:10457000842D0E942C1CD4018C91E981FA81E80FD2
:10458000F11DFA83E98333943510D0CF8091CA02AC
:10459000811107C040E06091C3028091C2020E9475
:1045A0002C1C8C818F5F6F81850D0E94E91C2B96DE
:1045B0000FB6F894DEBF0FBECDBFDF91CF911F9134
:1045C0000F91FF90EF90DF90CF90BF90AF909F90B2
:1045D0008F907F906F905F904F903F902F900895B5
:1045E000EF92FF920F931F93CF93DF93EC0188819B
:1045F000882319F19091C2022091C70230E0290F5F
:10460000311D20383105CCF421960F2EF2ECEF2E1F
:10461000F2E0FF2EF02D07EC12E00AC0F7019081C6
:10462000F801208130E0290F311D203831052CF4AC
:104630000E947B2189918111F1CFDF91CF911F9150
:104640000F91FF90EF9008950F931F93CF93DF93F7
:10465000CDB7DEB72C970FB6F894DEBF0FBECDBF37
:10466000611571058105910521F480E30E947B218C
:1046700045C161157105810520E8920709F43EC125
:10468000FE0131962CE0DF011D922A95E9F720E327
:104690002B872A87298728872F832E832D832C8396
:1046A0002B832A83298399235CF49B01AC018827FF
:1046B0009927DC01821B930BA40BB50B41E003C0CF
:1046C000DC01CB0140E081303AEC93073AE9A307E3
:1046D0003BE3B30794F02A812F5F01C0232F9A5C3C
:1046E000AA49BB43322F3F5F81305AEC95075AE904
:1046F000A5075BE3B50794F72A83811521EE92079E
:1047000025EFA20725E0B20794F02B812F5F01C0AF
:10471000232F915EA54FB540322F3F5F811551EE9B
:10472000950755EFA50755E0B50794F72B8380381B
:1047300026E9920728E9A207B10594F02C812F5FA2
:1047400001C0232F80589649A849B109322F3F5FF5
:10475000803856E9950758E9A507B10594F72C83E9
:10476000803422E492072FE0A207B10594F02D8156
:104770002F5F01C0232F80549244AF40B109322FE4
:104780003F5F803452E495075FE0A507B10594F7D9
:104790002D83803A26E8920721E0A207B10594F024
:1047A0002E812F5F01C0232F805A9648A140B10966
:1047B000322F3F5F803A56E8950751E0A507B105D3
:1047C00094F72E83803127E29207A105B1058CF082
:1047D0002F812F5F01C0232F80519742A109B1097A
:1047E000322F3F5F803157E29507A105B1059CF755
:1047F0002F83883E23E09207A105B1058CF0288520
:104800002F5F01C0232F885E9340A109B109322F89
:104810003F5F883E53E09507A105B1059CF72887C7
:1048200084369105A105B10584F029852F5F01C06B
:10483000232F84569109A109B109322F3F5F843695
:104840009105A105B105A4F729878A309105A10535
:10485000B1057CF02A852F5F01C0232F0A97A1099B
:10486000B109322F3F5F8A309105A105B105ACF740
:104870002A87181619061A061B065CF45B858C013C
:104880009D010150110921093109D9F7652F680FE0
:104890006B878981803361F480E08F5FE1E0F0E035
:1048A000EC0FFD1FE80FF11D90819033B1F301C0B3
:1048B00080E0442331F08150FE01E80FF11D9DE2BC
:1048C00091834AE0481B20E090E0E1E0F0E0EC0F4B
:1048D000FD1FE20FF11DDF01A80FB91F3C913083CE
:1048E0002F5F421790F7E1E0F0E0EC0FFD1FE20FC1
:1048F000F11D1082CE0101960E94F0222C960FB677
:10490000F894DEBF0FBECDBFDF91CF911F910F9105
:1049100008958F929F92AF92BF92CF92DF92EF92C3
:10492000FF926B017C0149015A0120E030E0A901AE
:104930000E948A2581110AC080E30E947B218EE2B9
:104940000E947B2180E30E947B214AC020E030E06E
:1049500040E05FECC701B6010E94E92688230CF411
:104960003FC020E030E040E05FE4C701B6010E94B4
:104970008A258823ACF520E030E0A901C701B60103
:104980000E948A2588233CF4F7FAF094F7F8F09413
:104990008DE20E947B21C701B6010E9401260E9480
:1049A00024238EE20E947B21C701B6010E940826C3
:1049B0000E9437269B01AC01C701B6010E941D254C
:1049C0006B017C01C501B4010E9437269B01AC013B
:1049D000C701B6010E94EE260E9401260E942423F0
:1049E000FF90EF90DF90CF90BF90AF909F908F900F
:1049F0000895A19AA09AA99AA89A11B88CE080B9B2
:104A000084E086BF089581B1887F089584EA86BFD7
:104A100006B607FEFDCF0E940325089585ED86BFEB
:104A200006B604FCFDCF089583B984E886BF06B6B8
:104A300007FEFDCF0E94032508955058BB27AA27E3
:104A40000E9435250C94AF260E94A12638F00E94C2
:104A5000A82620F039F49F3F19F426F40C949E26E2
:104A60000EF4E095E7FB0C949826E92F0E94C026EF
:104A700058F3BA17620773078407950720F079F493
:104A8000A6F50C94E2260EF4E0950B2EBA2FA02D7D
:104A90000B01B90190010C01CA01A0011124FF27EB
:104AA000591B99F0593F50F4503E68F11A16F040E6
:104AB000A22F232F342F4427585FF3CF46953795E5
:104AC0002795A795F0405395C9F77EF41F16BA0BAA
:104AD000620B730B840BBAF09150A1F0FF0FBB1F58
:104AE000661F771F881FC2F70EC0BA0F621F731FA1
:104AF000841F48F4879577956795B795F7959E3FFE
:104B000008F0B0CF9395880F08F09927EE0F97958E
:104B1000879508950E94742608F481E008950E9404
:104B2000A3250C94AF260E94A82658F00E94A12627
:104B300040F029F45F3F29F00C94982651110C9411
:104B4000E3260C949E260E94C02668F39923B1F3B5
:104B5000552391F3951B550BBB27AA2762177307A3
:104B6000840738F09F5F5F4F220F331F441FAA1F37
:104B7000A9F335D00E2E3AF0E0E832D091505040F3
:104B8000E695001CCAF72BD0FE2F29D0660F771FA1
:104B9000881FBB1F261737074807AB07B0E809F087
:104BA000BB0B802DBF01FF2793585F4F3AF09E3F0C
:104BB000510578F00C9498260C94E3265F3FE4F3BB
:104BC000983ED4F3869577956795B795F7959F5F4F
:104BD000C9F7880F911D9695879597F90895E1E09B
:104BE000660F771F881FBB1F621773078407BA07FA
:104BF00020F0621B730B840BBA0BEE1F88F7E09555
:104C000008950E9408266894B1110C94E326089533
:104C10000E94C82688F09F5798F0B92F9927B7515E
:104C2000B0F0E1F0660F771F881F991F1AF0BA9550
:104C3000C9F714C0B13091F00E94E226B1E00895A6
:104C40000C94E226672F782F8827B85F39F0B93F98
:104C5000CCF3869577956795B395D9F73EF4909503
:104C60008095709561957F4F8F4F9F4F0895E89481
:104C700009C097FB3EF490958095709561957F4FA4
:104C80008F4F9F4F9923A9F0F92F96E9BB27939552
:104C9000F695879577956795B795F111F8CFFAF462
:104CA000BB0F11F460FF1BC06F5F7F4F8F4F9F4F93
:104CB00016C0882311F096E911C0772321F09EE8F1
:104CC000872F762F05C0662371F096E8862F70E057
:104CD00060E02AF09A95660F771F881FDAF7880F31
:104CE0009695879597F90895990F0008550FAA0B87
:104CF000E0E8FEEF16161706E807F907C0F01216EF
:104D00001306E407F50798F0621B730B840B950BF1
:104D100039F40A2661F0232B242B252B21F4089546
:104D20000A2609F4A140A6958FEF811D811D0895E3
:104D300097F99F6780E870E060E008959FEF80EC4E
:104D4000089500240A9416161706180609060895F1
:104D500000240A9412161306140605060895092E57
:104D60000394000C11F4882352F0BB0F40F4BF2BC6
:104D700011F460FF04C06F5F7F4F8F4F9F4F089506
:104D800057FD9058440F551F59F05F3F71F04795FC
:104D9000880F97FB991F61F09F3F79F087950895E1
:104DA000121613061406551FF2CF4695F1DF08C000
:104DB000161617061806991FF1CF8695710561051D
:104DC00008940895E894BB2766277727CB0197F9C5
:104DD00008950E94742608F48FEF08950E94012719
:104DE0000C94AF260E94A12638F00E94A82620F03D
:104DF000952311F00C9498260C949E2611240C9463
:104E0000E3260E94C02670F3959FC1F3950F50E0F2
:104E1000551F629FF001729FBB27F00DB11D639F6C
:104E2000AA27F00DB11DAA1F649F6627B00DA11D12
:104E3000661F829F2227B00DA11D621F739FB00DB8
:104E4000A11D621F839FA00D611D221F749F332728
:104E5000A00D611D231F849F600D211D822F762FC1
:104E60006A2F11249F5750409AF0F1F088234AF09E
:104E7000EE0FFF1FBB1F661F771F881F915050400A
:104E8000A9F79E3F510580F00C9498260C94E326D8
:104E90005F3FE4F3983ED4F3869577956795B79591
:104EA000F795E7959F5FC1F7FE2B880F911D9695AB
:104EB000879597F90895AA1BBB1B51E107C0AA1F4C
:104EC000BB1FA617B70710F0A61BB70B881F991FAB
:104ED0005A95A9F780959095BC01CD01089597FB4F
:104EE000072E16F4009407D077FD09D00E945B27A7
:104EF00007FC05D03EF4909581959F4F08957095DD
:104F000061957F4F0895A1E21A2EAA1BBB1BFD01DC
:104F10000DC0AA1FBB1FEE1FFF1FA217B307E40798
:104F2000F50720F0A21BB30BE40BF50B661F771FF0
:104F3000881F991F1A9469F76095709580959095D0
:104F40009B01AC01BD01CF010895EE0FFF1F05903D
:104F5000F491E02D0994A29FB001B39FC001A39FDB
:104F6000700D811D1124911DB29F700D811D1124A2
:104F7000911D08950F931F93CF93DF938230910576
:104F800010F482E090E0E091CD06F091CE0620E0B2
:104F900030E0A0E0B0E0309719F14081518102810A
:104FA000138148175907C8F08417950769F41097BB
:104FB00031F012960C93129713961C9327C000930E
:104FC000CD061093CE0622C02115310519F04217E7
:104FD000530718F49A01BD01EF01DF01F801DBCF9F
:104FE00021153105F9F0281B390B2430310580F4E7
:104FF0008A819B816115710521F0FB019383828376
:1050000004C09093CE068093CD06FE01329644C034
:10501000FE01E20FF31F81939193225031093983EE
:1050200028833AC02091CB063091CC06232B41F443
:1050300020916200309163003093CC062093CB0620
:1050400020916000309161002115310541F42DB7A8
:105050003EB74091640050916500241B350BE091F0
:10506000CB06F091CC06E217F307A0F42E1B3F0B02
:105070002817390778F0AC014E5F5F4F24173507CA
:1050800048F04E0F5F1F5093CC064093CB068193A0
:10509000919302C0E0E0F0E0CF01DF91CF911F914A
:1050A0000F910895CF93DF93009709F481C0FC011D
:1050B000329713821282A091CD06B091CE0610973E
:1050C00081F420813181820F931F2091CB06309192
:1050D000CC062817390751F5F093CC06E093CB06A0
:1050E00067C0ED0120E030E0CE17DF0740F44A81D1
:1050F0005B819E0141155105F1F0EA01F5CFD383A3
:10510000C28340815181840F951FC817D90759F474
:1051100088819981840F951F0296918380838A816B
:105120009B81938382832115310529F4F093CE0668
:10513000E093CD063DC0E901FB83EA834991599193
:10514000C40FD51FEC17FD0761F480819181840F96
:10515000951F0296E90199838883828193819B83BD
:105160008A83E0E0F0E012968D919C91139700976E
:1051700019F0FD01DC01F7CF8D919C9111979D01F4
:105180002E5F3F4F820F931F2091CB063091CC06AC
:105190002817390769F4309729F41092CE06109237
:1051A000CD0602C013821282B093CC06A093CB0628
:1051B000DF91CF910895E199FECF9FBB8EBBE09A1E
:1051C00099278DB30895A6E1B0E044E050E00C9437
:1051D0002129A8E1B0E042E050E00C942129262FDB
:1051E000E199FECF9FBB8EBBE09A01970DB20216EC
:1051F00031F02DBB0FB6F894E29AE19A0FBE0895F4
:105200000396272F0E94F0280E94EF28252F0E9446
:10521000F028242F0C94F0280196272F0E94F028C4
:105220000C94EF28242F0E943029252F0E9430292A
:105230000C941A290E942F29272F0C943029DC0165
:10524000CB01FC01E199FECF06C0FFBBEEBBE09AAB
:1052500031960DB20D9241505040B8F70895262F67
:10526000E199FECF9FBB8EBB2DBB0FB6F894E29A9F
:0C527000E19A0FBE01960895F894FFCF5C
:10527C000000CF0620000156003000456469740020
:10528C004261636B0053617665006D696E3A006D27
:10529C0061783A0053706400556274004672710074
:1052AC005374500053747000537452006E53740056
:1052BC005352740050687300545274004D696C0062
:1052CC004469616C2050574D004172726F772050C9
:1052DC00574D00576865656C204400526174696FC6
:1052EC00004D61676E6574730053746570206D6F4B
:1052FC006465004D61782073706565640044656772
:10530C002F6B6D6800534D2073746570730053746C
:10531C00657020696E7465722E004C434420636F77
:10532C006E7472617374004465627567206D6F648E
:10533C00650043616C696272617465206172726FA1
:10534C0077004F646F6D6574657220726573657458
:10535C00004C6F61642064656661756C7473004504
:10536C00786974004469616C206C696768742050BA
:10537C00574D004172726F77206C696768742050CA
:10538C00574D00576865656C204469616D6574659F
:10539C007220286D29004765617220726174696FF3
:1053AC00004D61676E657473206F6E20776865655C
:1053BC006C00312D66756C6C2C20322D68616C661E
:1053CC00004D6178696D756D20737065656400447E
:1053DC0065677265657320706572206B6D2F680050
:1053EC0053746570706572206D6F746F7220737476
:1053FC00657073005374657020696E7465727661A4
:10540C006C205836347573005245534554004F4444
:10541C004F4D455445523F004E4F00594553005295
:10542C0045534554494E47204F444F4D45544552E2
:10543C000043656C6C7320636C6561726564002F4E
:10544C0000444F4E452100524553544F52450044A1
:10545C00454641554C542076616C7565733F004C44
:10546C004F4144494E472044454641554C54532ED8
:10547C002E2E0005060A020100080406020004068E
:04548C000200040016
:00000001FF
