S00E00007370656564332E73726563D2
S11300000C94A10A0C94BE0A0C94A40C0C94BE0A81
S11300100C94720C0C94BE0A0C94BE0A0C94BE0A86
S11300200C94BE0A0C94890C0C943A0C0C94BE0AE1
S11300300C94BE0A0C94BE0A0C94BE0A0C94BE0A1C
S11300400C94BE0A0C94BE0A0C94BE0A0C94BE0A0C
S11300500C94BE0AB119D719FD194C1A9B1AB71A78
S1130060D31AEF1A3E1B5E1B7A1B981BA41BA71BFB
S1130070171C4D1C0C000000F01F00FC7F00FEFF4D
S1130080000FE00107C00107C00107C0010FE00134
S1130090FEFF00FC7F00F01F000C000000F01F00BA
S11300A0FC7F00FEFF000FE00107C00107C001074D
S11300B0C0010FE001FEFF00FC7F00F01F000C00F8
S11300C00000F01F00FC7F00FEFF000FE00107C0EE
S11300D00107C00107C0010FE001FEFF00FC7F0023
S11300E0F01F000C000000F01F00FC7F00FEFF006A
S11300F00FE00107C00107C00107C0010FE001FEC6
S1130100FF00FC7F00F01F000C000000F01F00FC4B
S11301107F00FEFF000FE00107C00107C00107C018
S1130120010FE001FEFF00FC7F00F01F000C000047
S113013000F01F00FC7F00FEFF000FE00107C0017C
S113014007C00107C0010FE001FEFF00FC7F00F0C3
S11301501F000C000000F01F00FC7F00FEFF000FDA
S1130160E00107C00107C00107C0010FE001FEFF65
S113017000FC7F00F01F000C000000F01F00FC7F5B
S113018000FEFF000FE00107C00107C00107C00126
S11301900FE001FEFF00FC7F00F01F000C000000D8
S11301A0F01F00FC7F00FEFF000FE00107C0010705
S11301B0C00107C0010FE001FEFF00FC7F00F01F3B
S11301C0000C000000F01F00FC7F00FEFF000FE0A9
S11301D00107C00107C00107C0010FE001FEFF00D5
S11301E0FC7F00F01F000C000000F01F00FC7F00EB
S11301F0FEFF000FE00107C00107C00107C0010FA7
S1130200E001FEFF00FC7F00F01F000C000000F086
S11302101F00FC7F00FEFF000FE00107C00107C0C4
S11302200107C0010FE001FEFF00FC7F00F01F008A
S11302300C000000F01F00FC7F00FEFF000FE00137
S113024007C00107C00107C0010FE001FEFF00FC69
S11302507F00F01F000C000000F01F00FC7F00FE78
S1130260FF000FE00107C00107C00107C0010FE054
S113027001FEFF00FC7F00F01F000400000000C02E
S11302800100C00100C001000000000000000000E7
S11302900000000000000000000000000000000C4E
S11302A000800100F801C0FF01FC7F00FF07003F50
S11302B00000030000000000000000000000000037
S11302C0000000000C000000F01F00FC7F00FEFF97
S11302D0000FE00107C00107C00107C0010FE001E2
S11302E0FEFF00FC7F00F01F000C00000000000077
S11302F06000007000007800003C00001E0000FF59
S1130300FF01FFFF01FFFF010000000000000C00DF
S113031000003880013CE0013EF0010FF80107FCC9
S11303200107DE0107CF018FC701FEC301FEC10132
S113033078C0010C0000001838001E78001EF80078
S11303400FE001C7C101C7C101E7C101FFE3017E9D
S1130350FF003C7F00003E000C000000003E0080D7
S11303603F00C03F00F039007838003E3800FFFFFE
S113037001FFFF01FFFF010038000038000C0000FE
S113038000803900FC7900FFF900FFE001E7C001BB
S1130390E7C001E7C001E7E101C7FF00877F000074
S11303A01F000C000000F01F00FC7F00FEFF008E09
S11303B0E301C7C101C7C101C7C101CFE3019EFF6A
S11303C0009E7F00183E000C00000007000007009C
S11303D00007E00107FC0187FF01E71F00F70300A6
S11303E0FF00003F00001F00000700000C00000099
S11303F0783C00FEFE00FEFF00CFE70187C30187C3
S1130400C30187C301CFE701FEFF00FEFE00783C75
S1130410000C000000F83000FCF300FEF3008FE74E
S11304200107C70107C70107C7018FE300FEFF00EB
S1130430FC7F00F01F001200FE7F00C0FFFF07F8E2
S1130440FFFF1FFC01803F3E00007C0E0000700F88
S11304500000F0070000E0070000E0070000E00FE4
S11304600000F00E0000703E00007CFC01803FF8AC
S1130470FFFF1FE0FFFF0300FE7F000000000012EB
S113048000FE7F00C0FFFF07F8FFFF1FFC01803F55
S11304903E00007C0E0000700F0000F0070000E03A
S11304A0070000E0070000E00F0000F00E000070FD
S11304B03E00007CFC01803FF8FFFF1FE0FFFF03CC
S11304C000FE7F00000000001200FE7F00C0FFFF5E
S11304D007F8FFFF1FFC01803F3E00007C0E000078
S11304E0700F0000F0070000E0070000E0070000C4
S11304F0E00F0000F00E0000703E00007CFC018064
S11305003FF8FFFF1FE0FFFF0300FE7F0000000035
S1130510001200FE7F00C0FFFF07F8FFFF1FFC0171
S1130520803F3E00007C0E0000700F0000F00700CA
S113053000E0070000E0070000E00F0000F00E00FC
S113054000703E00007CFC01803FF8FFFF1FE0FFCD
S1130550FF0300FE7F00000000001200FE7F00C0C9
S1130560FFFF07F8FFFF1FFC01803F3E00007C0EE9
S11305700000700F0000F0070000E0070000E00733
S11305800000E00F0000F00E0000703E00007CFC54
S113059001803FF8FFFF1FE0FFFF0300FE7F000024
S11305A00000001200FE7F00C0FFFF07F8FFFF1FDE
S11305B0FC01803F3E00007C0E0000700F0000F044
S11305C0070000E0070000E0070000E00F0000F073
S11305D00E0000703E00007CFC01803FF8FFFF1F0E
S11305E0E0FFFF0300FE7F00000000001200FE7F1A
S11305F000C0FFFF07F8FFFF1FFC01803F3E000023
S11306007C0E0000700F0000F0070000E0070000FF
S1130610E0070000E00F0000F00E0000703E000054
S11306207CFC01803FF8FFFF1FE0FFFF0300FE7F1B
S113063000000000001200FE7F00C0FFFF07F8FF6B
S1130640FF1FFC01803F3E00007C0E0000700F0085
S113065000F0070000E0070000E0070000E00F00E2
S113066000F00E0000703E00007CFC01803FF8FFAB
S1130670FF1FE0FFFF0300FE7F00000000001200E8
S1130680FE7F00C0FFFF07F8FFFF1FFC01803F3E15
S113069000007C0E0000700F0000F0070000E0076F
S11306A00000E0070000E00F0000F00E0000703EC4
S11306B000007CFC01803FF8FFFF1FE0FFFF030008
S11306C0FE7F00000000001200FE7F00C0FFFF0755
S11306D0F8FFFF1FFC01803F3E00007C0E0000700D
S11306E00F0000F0070000E0070000E0070000E052
S11306F00F0000F00E0000703E00007CFC01803F03
S1130700F8FFFF1FE0FFFF0300FE7F000000000072
S11307101200FE7F00C0FFFF07F8FFFF1FFC0180EF
S11307203F3E00007C0E0000700F0000F007000048
S1130730E0070000E0070000E00F0000F00E0000FA
S1130740703E00007CFC01803FF8FFFF1FE0FFFFCC
S11307500300FE7F00000000001200FE7F00C0FFC7
S1130760FF07F8FFFF1FFC01803F3E00007C0E00E6
S113077000700F0000F0070000E0070000E0070031
S113078000E00F0000F00E0000703E00007CFC0151
S1130790803FF8FFFF1FE0FFFF0300FE7F00000023
S11307A000001200FE7F00C0FFFF07F8FFFF1FFCE0
S11307B001803F3E00007C0E0000700F0000F00737
S11307C00000E0070000E0070000E00F0000F00E6A
S11307D00000703E00007CFC01803FF8FFFF1FE03A
S11307E0FFFF0300FE7F00000000001200FE7F00F8
S11307F0C0FFFF07F8FFFF1FFC01803F3E00007CA5
S11308000E0000700F0000F0070000E0070000E099
S1130810070000E00F0000F00E0000703E00007CB6
S1130820FC01803FF8FFFF1FE0FFFF0300FE7F0095
S113083000000000090000000000000000000000AB
S113084000000000F0000000F0000000F0000000D4
S11308500000000000000000000000000000000094
S11308600000000000000000000000000000000084
S1130870000000000000000000000000001200FE64
S11308807F00C0FFFF07F8FFFF1FFC01803F3E0011
S1130890007C0E0000700F0000F0070000E007006D
S11308A000E0070000E00F0000F00E0000703E00C2
S11308B0007CFC01803FF8FFFF1FE0FFFF0300FE08
S11308C07F00000000001200FE7F00C0FFFF07F859
S11308D0FFFF1FFC01803F3E00007C0E0000700FF4
S11308E00000F0070000E0070000E0070000E00F50
S11308F00000F00E0000703E00007CFC01803FF818
S1130900FFFF1FE0FFFF0300FE7F00000000001256
S1130910000000000000000000000000000E0000C5
S11309200007000080030000C0030000E001000095
S1130930F8000000FEFFFFFFFFFFFFFFFFFFFFFFC8
S113094000000000000000000000000000000000A3
S1130950000000000000000012C00100E0F00100EF
S1130960F8FC0100FE3C0000FF1E0080EF0F00C0F9
S1130970E70700E0E10700F0E0070078E007003C4B
S1130980E007001FE00F800FE01EC007E03EF80301
S1130990E0FCFF00E0F07F00E0C00F00E00000009A
S11309A00012C0008003F000800FFC00801F3E0096
S11309B0003E1E0000780F0000F007E000E007E0B2
S11309C000E007E000E007E000E00FF000E00EF8D0
S11309D001703EFC0378FCBF073EF89FFF1FE00751
S11309E0FE0F0000F80300000000120000F00000F9
S11309F000FC000000FF0000C0FF0000F0E7000062
S1130A00F8E100007EE000801FE000E007E000F86D
S1130A1001E0007E00E000FFFFFFFFFFFFFFFFFF9C
S1130A20FFFFFF0000E0000000E0000000E0000025
S1130A3000E0001200C0800300FF800FF8FF811F58
S1130A40FFFF003EFF780078073800F0071C00E045
S1130A50071C00E0071C00E0071C00E0073C00F056
S1130A60073800700778007C07F0013F07E0FF1F9C
S1130A7007C0FF070000FE01000000001200FC7F19
S1130A8000C0FFFF07F0FFFF0FF880073E3CC001E6
S1130A90781EE000700E7000F0077000E007700030
S1130AA0E0077000E0077000E00FF000F00EE001D6
S1130AB0783EC0073EFC80FF1FF800FF0FE000FCFB
S1130AC001000000001207000000070000000700FA
S1130AD0000007000000070000F80700C0FF07003F
S1130AE0FCFF0780FF0707E03F0007F8070007FE49
S1130AF00000871F0000E7070000F70100007F00E7
S1130B0000001F0000000F000000000000001200A1
S1130B1000F803E007FE0FF81FFF1FFCBF0F3E3E67
S1130B20FC03780EF0017007E000E007E000E00746
S1130B30E000E007E000E00FE000E00EF001703EAE
S1130B40FC0378FCBF0F3EF81FFF1FE007FE0F00F9
S1130B5000F8030000000012C03F0007F0FF001F70
S1130B60F8FF013F7CE0037C1E8007700F000FF04C
S1130B700F000EE007000EE007000EE007000EE095
S1130B8007000E700E0007781E80033C7CE0811F76
S1130B90F0FFFF0FE0FFFF0300FE3F000000000036
S1130BA00500000000000500005F000005000700CC
S1130BB0070005147F147F1405242A7F2A120523B5
S1130BC013086462053649562050050807030000DF
S1130BD005001C224100050041221C000514083EAA
S1130BE008140508083E08080500B0700000050850
S1130BF008080808050060600000052010080402C9
S1130C00053E5149453E0500427F40000572494971
S1130C104946052141494D33051814127F10052713
S1130C2045454539053C4A494931054121110907E2
S1130C3005364949493605464949291E0500001427
S1130C40000005004034000005081422410005148A
S1130C50141414140541221408000502015909064C
S1130C60053E415D594E057C1211127C057F4949B0
S1130C704936053E41414122057F4141413E057FC0
S1130C8049494949057F09090909053E414151730B
S1130C90057F0808087F0500417F41000520404189
S1130CA03F01057F08142241057F40404040057FF5
S1130CB0020C027F057F0408107F053E4141413E3E
S1130CC0057F09090906053E4151215E057F091981
S1130CD029460526494949320501017F0101053F9D
S1130CE04040403F051F2040201F053F4038403F03
S1130CF0056314081463050304780403056151496A
S1130D00454305007F414100050204081020050009
S1130D1041417F0005040201020405404040404077
S1130D2005070B000000052054547840057F284433
S1130D30443805384444442805384444287F053859
S1130D40545454180500087E09020518A4A49C787C
S1130D50057F080404780500447D400005204040D8
S1130D603D00057F102844000500417F4000057CBC
S1130D7004780478057C080404780538444444382D
S1130D8005FC182424180518242418FC057C0804E0
S1130D9004080548545454240504043F4424053CE1
S1130DA04040207C051C2040201C053C4030403C39
S1130DB0054428102844054C9090907C05446454C4
S1130DC04C4405000836410005000077000005008A
S1130DD04136080005040204080405007F417F0031
S1130DE000000000000000000000000000000000FF
S1130DF00000000080C0E0F0F8FCFEFFFFFF0000F0
S1130E0000000000000000000000000000000000DE
S1130E1000000000000000000000000000000000CE
S1130E2000000000000000000000000000000000BE
S1130E3000000000000000000000000000000000AE
S1130E40000000000000000080C0E0F0F8FCFEFF9D
S1130E50FFFFFFFFFFFFFFFFFFFFC0C0C0C0C0C018
S1130E60C0C0C0C0C0C0C0C0C0C0C0C0C0C0C0C07E
S1130E70C0C0C0C0C0C0C0C0C0C0C0C0C0C0C0C06E
S1130E80C0C0C0C0C0C0C0C0C0C0C0C0C0C0C0C05E
S1130E90C0C0C0C0C0C0C0C00000000080C0E0F03E
S1130EA0F8FCFEFFFFFFFFFFFFFFFFFFFFFFFFFF59
S1130EB0FFFFFFFFFFFFFFFFFFFFFFFFFFFFFFFF3E
S1130EC0FFFFFFFFFFFFFFFFFFFFFFFFFFFFFFFF2E
S1130ED0FFFFFFFFFFFFFFFFFFFFFFFFFFFFFFFF1E
S1130EE0FFFFFFFFFFFFFFFFFFFFFFFFFFFFFFFF0E
S1130EF0FFFFFFFF081C3E7FFFFFFFFFFFFFFFFF19
S1130F00FFFFFFFFFFFFFFFFFFFFFFFFFFFFFFFFED
S1130F10FFFFFFFFFFFFFFFFFFFFFFFFFFFFFFFFDD
S1130F20FFFFFFFFFFFFFFFFFFFFFFFFFFFFFFFFCD
S1130F30FFFFFFFFFFFFFFFFFFFFFFFFFFFFFFFFBD
S1130F40FFFFFFFFFFFFFFFFFFFFFFFFFFFFFFFFAD
S1130F5000000000000103070F1F3F7FFFFFFFFF9A
S1130F60FFFFFFFFFFFFFFFFFFFFFFFFFFFFFFFF8D
S1130F70FFFFFFFFFFFFFFFFFFFFFFFFFFFFFFFF7D
S1130F80FFFFFFFFFFFFFFFFFFFFFFFFFFFFFFFF6D
S1130F90FFFFFFFFFFFFFFFFFFFFFFFFFFFFFFFF5D
S1130FA0FFFFFFFFFFFFFFFFFFFFFFFF0000000049
S1130FB00000000000000000000103070F1F3F7F36
S1130FC0FFFFFFFFFFFFFFFFFFFF01010101010121
S1130FD001010101010101010101010101010101FD
S1130FE001010101010101010101010101010101ED
S1130FF001010101010101010101010101010101DD
S113100001010101010101010000000000000000D4
S113101000000000000000000000000000010307C1
S11310200F1F3F7F7F7F00000000000000000000D2
S113103000000000000000000000000000000000AC
S1131040000000000000000000000000000000009C
S1131050000000000000000000000000000000008C
S1131060000000000000000000000000000000007C
S1131070000000000000000000000000000000006C
S1131080000000000000000000000000000000005C
S1131090000000000000000000000000000000004C
S11310A00000FFFFFFFEFCF8F0E0C080000000003D
S11310B0000000000000000000000000000000002C
S11310C0C0C0C0C0C0C0C0C0C0C0C0C0C0C0C0C01C
S11310D0C0C0C0C0C0C0C0C0C0C0C0C0C0C0C0C00C
S11310E0C0C0C0C0C0C0C0C0C0C0C0C0C0C0C0C0FC
S11310F0C0C0C0C0C0C0C0C0C0C0C0C0C0C0FFFF6E
S1131100FFFFFFFFFFFFFFFFFFFEFCF8F0E0C080E2
S1131110000000000000000000000000FFFFFFFFCF
S1131120FFFFFFFFFFFFFFFFFFFFFFFFFFFFFFFFCB
S1131130FFFFFFFFFFFFFFFFFFFFFFFFFFFFFFFFBB
S1131140FFFFFFFFFFFFFFFFFFFFFFFFFFFFFFFFAB
S1131150FFFFFFFFFFFFFFFFFFFFFFFFFFFFFFFF9B
S1131160FFFFFFFFFFFFFFFFFFFFFFFFFFFEFCF896
S1131170F0E0C08000000000FFFFFFFFFFFFFFFF63
S1131180FFFFFFFFFFFFFFFFFFFFFFFFFFFFFFFF6B
S1131190FFFFFFFFFFFFFFFFFFFFFFFFFFFFFFFF5B
S11311A0FFFFFFFFFFFFFFFFFFFFFFFFFFFFFFFF4B
S11311B0FFFFFFFFFFFFFFFFFFFFFFFFFFFFFFFF3B
S11311C0FFFFFFFFFFFFFFFFFFFFFFFFFFFFFFFF2B
S11311D07F3E1C08FFFFFFFFFFFFFFFFFFFFFFFF36
S11311E0FFFFFFFFFFFFFFFFFFFFFFFFFFFFFFFF0B
S11311F0FFFFFFFFFFFFFFFFFFFFFFFFFFFFFFFFFB
S1131200FFFFFFFFFFFFFFFFFFFFFFFFFFFFFFFFEA
S1131210FFFFFFFFFFFFFFFFFFFFFFFFFFFFFFFFDA
S1131220FFFFFFFF7F3F1F0F0703010000000000C7
S1131230010101010101010101010101010101019A
S1131240010101010101010101010101010101018A
S1131250010101010101010101010101010101017A
S11312600101010101010101010101010101FFFF6E
S1131270FFFFFFFFFFFFFFFF7F3F1F0F070301007B
S1131280000000000000000000000000000000005A
S1131290000000000000000000000000000000004A
S11312A0000000000000000000000000000000003A
S11312B0000000000000000000000000000000002A
S11312C0000000000000000000007F7F7F3F1F0F30
S11312D007030100000000000000000000000000FF
S11312E00000000000000000008080808084FCFE7C
S11312F0FEFEFEFEFEFEFEFC0000000000000000FC
S1131300000080C0E0F0F8FCFCFEFEFFFFFFFFFFE2
S1131310FFFFFFFFFFFFFFFFFFFFFFFEFEFCFCF8E8
S1131320F0E0C08000000000000000000000FCFEAF
S1131330FEFEFEFEFEFEFEFC8080808080001F3FDD
S11313403F3F3F3F7FFFFFFFFFFFFFFFFFF9F0E05D
S1131350C0800000000000FEFFFFFFFFFFFFFFFF53
S1131360FFFFFFFFFFFFFFFFFFFFFFFFFFFFFFFF89
S1131370FFFFFFFFFFFFFFFFFFFFFE000000000075
S113138080C0E0F0F9FFFFFFFFFFFFFFFF7F3F3F5B
S11313903F3F3F1F00000000000000000103070F53
S11313A01F3F7F7F7F7F7F7F7F7E0000007FFFFF67
S11313B0FFFFFF3F1F1F1F1F1F1F1F3FFFFFFFFFD9
S11313C0FFFF3F1F1F1F1F1F1F1F3FFFFFFFFFFFC9
S11313D07F0000007E7F7F7F7F7F7F7F3F1F0F071F
S11313E003010000000000000000000000000000F5
S11313F00000000000000080C0E0F0F0F0F0F0F029
S1131400F0F000000101FFFFFFF0E0E0E0E0E0E0C9
S1131410E0F00F0F0F0F0F0FF0E0E0E0E0E0E0E08E
S1131420F0FFFFFF01010000F0F0F0F0F0F0F0F049
S1131430E0C0800000000000000000000000000088
S11314400000C0E0E0E0E0E0F0F8FCFEFFFFFFFF9A
S1131450FFFF7F3F1F0F0703000000000303031F6C
S11314601F1FFFFFFFFFFFFFFCF8F8F8F8FCFFFF6A
S1131470FFFFFFFF1F1F1F030303000000000307FC
S11314800F1F3F7FFFFFFFFFFFFFFEFCF8F0E0E0D0
S1131490E0E0E0C000000000070F0F0F0F0FFFFF98
S11314A0FFFFFFFFFFFFFFFC000000000000000043
S11314B000000000003E7E7EF0F0E0878783030397
S11314C003030303838787E0F0F07E7E3E00000081
S11314D000000000000000000000FCFFFFFFFFFF11
S11314E0FFFFFFFF0F0F0F0F0F07000000000000AA
S11314F000000000000101010101010101000000E0
S113150000000000000000000000000000000001D6
S113151003070F0F0F0F0F0F0F0F0F0F070301001C
S113152000000000000000000000000000000000B7
S1131530000101010101010101000000000000009F
S1131540000011241FBECFE5D8E0DEBFCDBF12E0FE
S1131550A0E6B0E0E4EFF2E502C005900D92A637F4
S1131560B107D9F726E0A6E7B2E001C01D92A23D7B
S1131570B207E1F70E94EE170C9478290C9400004E
S11315802F923F920F931F93CF93DF93D101139622
S11315908C911397815012968C93129788237CF127
S11315A00D911C911197E0E0F0E0682F082E000CDB
S11315B0770B9801260F371FE9012881022E000CB2
S11315C0330B1616170694F490E0A901440F551F27
S11315D0220F331F220F331F220F331F240F351FF7
S11315E09F5F492F50E0461757077CF3E20FF31F24
S11315F0815012968C9312978823BCF602C0E0E0C7
S1131600F0E0CF01DF91CF911F910F913F902F9088
S113161008952F923F928F929F92AF92BF92CF9252
S1131620DF92EF92FF920F931F93CF93DF93E10129
S113163020E048E065E080EA9BE00E94962169E2B0
S113164086E00E94251D86E690E00E942C2363E339
S113165086E00E94251D8BE690E00E942C2348859D
S1131660442309F44DC050E014161506CCF480E070
S113167001E010E09801220F331F6801CC0CDD1C3F
S1131680CC0CDD1CCC0CDD1C89010C0D1D1D8F5FE9
S1131690282F082E000C330B241735075CF302C0E7
S11316A001E010E069E28EE10E94251D6801E12C51
S11316B0F12CC701B6010E9473264B015C016E81B7
S11316C07F8180E090E00E947326A50194010E942E
S11316D0CB25A70196010E94C52463E38EE10E94F5
S11316E0251D6C817D8180E090E00E947326A50118
S11316F094010E94CB25A70196010E94C52414C021
S113170069E28EE10E94251D6E817F8180E090E078
S11317100E94602363E38EE10E94251D6C817D811C
S113172080E090E00E94602320E041E16CE084E7E7
S113173090E00E949621DF91CF911F910F91FF902D
S1131740EF90DF90CF90BF90AF909F908F903F909D
S11317502F9008958AEF8093B30286E08093BE02AF
S113176080E090E0A0E8BFE38093B6029093B702D4
S1131770A093B802B093B90283E393E3A3E3BFE376
S11317808093C0029093C102A093C202B093C3029B
S113179083E393E3A3EABFE38093AD029093AE02A5
S11317A0A093AF02B093B00280E094E09093B502AE
S11317B08093B4029093BC028093BB028EEB80931F
S11317C0BA0286E98093BD0280E690E09093B2026B
S11317D08093B10282E08093BF02089590917F02CA
S11317E0992381F09091A4029F5F9093A402209189
S11317F0A2023091A3022F5F3F4F3093A3022093A4
S1131800A2020FC09091A40291509093A40220913F
S1131810A2023091A302215031093093A3022093F4
S1131820A2029091A402992324F497E09093A40235
S113183006C09091A402983014F01092A4029BB3B5
S1131840907F823051F4E091A4020E2E000CFF0B25
S1131850EA59FD4F8081982B0BC0813049F4E09107
S1131860A4020E2E000CFF0BE259FD4F8081982B31
S11318709BBB08951F920F920FB60F9211242F93C2
S11318803F934F935F936F937F938F939F93AF9304
S1131890BF93EF93FF938091BF020E94EE0B2091C0
S11318A0A2023091A30280918802909189022817A4
S11318B0390739F41092A50289B78D7F89BF13BE09
S11318C01CBEFF91EF91BF91AF919F918F917F913A
S11318D06F915F914F913F912F910F900FBE0F9099
S11318E01F9018951F920F920FB60F9211248F9389
S11318F09F938091AB029091AC0201969093AC02BD
S11319008093AB029F918F910F900FBE0F901F9009
S113191018951F920F920FB60F9211248F939F93D5
S113192080918702882349F080917D0290917E0204
S1131930019690937E0280937D029F918F910F90E8
S11319400FBE0F901F9018951F920F920FB60F9213
S113195011248F939F93809186028823D1F084B5BC
S11319608093A80214BC8091AB029091AC02909336
S1131970AA028093A9021092AC021092AB02809149
S1131980A6029091A70201969093A7028093A602C3
S113199007C014BC89B7806889BF81E08093860240
S11319A09F918F910F900FBE0F901F901895CF921B
S11319B0DF92EF92FF920F93CF93DF938091870290
S11319C08111ECC00E94B6200FEF27E144E26BE0E6
S11319D08AE00E943C2024E146E26EE085E20E9417
S11319E03C2080918302909184028936910534F0E1
S11319F025E140E16DE08CE00E94BA2080918302F1
S1131A00909184028E3691053CF00FEF25E146E17A
S1131A106DE082E10E94BA20809183029091840259
S1131A20833791053CF00FEF25E14CE16DE088E14F
S1131A300E94BA2080918302909184028837910594
S1131A403CF00FEF25E142E26DE08EE10E94BA2006
S1131A506FE08BE20E94251D20E048E065E080EA0B
S1131A609BE00E9496216091830270918402072E6C
S1131A70000C880B990B0E94752620E030E040E2B0
S1131A8051E40E94CB252AE030E040E050E00E947F
S1131A90C52480E790E00E942C2320E040E262E12C
S1131AA086E394E00E9496216FE184E00E94251D64
S1131AB06091790270917A0280917B0290917C020C
S1131AC024E630E040E050E00E94BF2721153105B4
S1131AD041055105D9F0C0E00F2EFAE0CF2ED12CEC
S1131AE0E12CF12CF02DCA01B901A70196010E9445
S1131AF0BF27CF5F2115310541055105A1F7C2303C
S1131B003CF0D6E0DC1B1D1624F00BC0D4E001C071
S1131B10D4E0C0E082E790E00E942C23CF5FCD1791
S1131B20CCF36091790270917A0280917B0290915A
S1131B307C0228EE33E040E050E00E94BF27CA0157
S1131B40B9010E9460238091790290917A02A09158
S1131B507B02B0917C028115914EA54FB540E0F413
S1131B6084E692E00E942C236091790270917A02BB
S1131B7080917B0290917C0228EE33E040E050E0BB
S1131B800E94BF2724E630E040E050E00E94BF27D7
S1131B90CA01B9010E9460230E94E51CDF91CF9124
S1131BA00F91FF90EF90DF90CF90089520918A02DB
S1131BB030918B0240918C0250918D0260918E0283
S1131BC070918F0280919002909191020E94CB2596
S1131BD00E94442670938902609388022091A20295
S1131BE03091A302C901861B970B99F01AF0109249
S1131BF07F0203C081E080937F0281E08093A5028D
S1131C0083B78D6083BF8091BD028CBF89B782602A
S1131C1089BF0895B59B04C0B69B02C0B79933C071
S1131C20B59910C02FEF30E782E02150304080405A
S1131C30E1F700C0000086B385FB992790F981E0A5
S1131C408927089596B3892F807496FD0DC09FEF60
S1131C5020E732E0915020403040E1F700C000001E
S1131C60B69916C082E00895B7990FC08FEF90E738
S1131C7022E0815090402040E1F700C00000B79975
S1131C8006C083E0089580E0089580E0089580E030
S1131C900895EF92FF920F931F93CF93DF937C01EC
S1131CA0062FEA01122F0E94B62082E00E94901DA6
S1131CB0802F0E94191DC7010E942C2384E00E94DA
S1131CC0901D812F0E94191DCE010E942C2386E0B5
S1131CD00E94901D8CE10E94191D84E790E00E94EF
S1131CE02C2384E50E94191D87E790E00E942C2391
S1131CF00FEF29E34EE26DE284E10E943C200E9452
S1131D00E51C0E940A0E8111FCCFC0E011E0DBE368
S1131D100F2EF9E6EF2EF02D0F2EF4E1FF2EF02D0D
S1131D200E940A0E9EEF980F9230F8F4C127CD9FBF
S1131D30802D11244EE2480F0FEF29E36DE28C5EF3
S1131D400E943C20CC2319F04EE28F2D02C04E2D70
S1131D508FE400E029E36DE20E943C200E94E51C30
S1131D600E940A0E8111FCCFDBCF8130C9F68C2F83
S1131D70DF91CF911F910F91FF90EF9008951092F2
S1131D80A3021092A2021092A4024091BF022091D9
S1131D90B1023091B202429FC001439F900D1124C1
S1131DA09695879596958795909389028093880256
S1131DB081E080937F028093A50283B78D6083BF07
S1131DC08091BD028CBF89B7826089BF8091A502D2
S1131DD08111FCCF2FEF82E597E0215080409040A5
S1131DE0E1F700C000004091BF022091B1023091A0
S1131DF0B202429FC001439F900D11249093A3020D
S1131E008093A202109289021092880210927F029B
S1131E1081E08093A50283B78D6083BF8091BD026A
S1131E208CBF89B7826089BF8091A5028111FCCFE4
S1131E301092A3021092A2021092890210928802B8
S1131E4081E0809378020895882381F00E94B6206F
S1131E5067E086E10E94251D2FEF47E36CE584E6E9
S1131E6090E10E94D81E0E94E51C08950E94B620AD
S1131E7067E086E10E94251D2FEF47E36CE580EEC5
S1131E809DE00E94D81E0E94E51C08950E94B62081
S1131E9067E08BE10E94251D2FEF44E366E588EEA1
S1131EA092E10E94D81E0E94E51C0895B4990DC0C9
S1131EB0B39B0BC080E00E94240F81E080938702D3
S1131EC010927E0210927D0221C0B3990DC0B49B82
S1131ED00BC081E00E94240F81E08093870210925E
S1131EE07E0210927D0212C0B4990CC0B3990AC04C
S1131EF00E94460F81E08093870210927E02109226
S1131F007D0204C0809187028823E9F0B39B09C055
S1131F10B49B07C00E94B6200E94E51C89B7846068
S1131F2089BF80917D0290917E028D32914058F05C
S1131F301092870210927E0210927D0289B78B7FE5
S1131F4089BF0E94D70C089587B9E62FF0E01E16CA
S1131F501F068CF420E030E080E090E0369A369959
S1131F60FECF44B155B1840F951F2F5F3F4F2E17FD
S1131F703F07A1F702C080E090E070E00E9497273D
S1131F80CB0108950F931F936AE084E00E94A40F8D
S1131F90BC0180E090E00E9473262AE939E94CEC08
S1131FA052E40E94CB2520E030E040E250E40E945D
S1131FB02A2720E030E040EC50E40E942A270E94C7
S1131FC03D26709382026093810264367105ECF5BC
S1131FD080918502811139C0DB9AD89A1BBC1ABC46
S1131FE019BC18BC0E94B6200E94E51C6AE084E07B
S1131FF00E94A40FBC0180E090E00E9473262AE9AD
S113200039E94CEC52E40E94CB2520E030E040E278
S113201050E40E942A2720E030E040EC50E40E9483
S11320202A2720E030E048EC52E40E94C6258823A9
S1132030ECF28091B4029091B5029BBD8ABD80916F
S1132040BB029091BC0299BD88BD809181029091A0
S1132050820220918302309184028217930751F007
S1132060909384028093830280918502811102C03F
S11320700E94D70C6091A6027091A70280E090E0C4
S11320800E9473262091920230919302409194020F
S1132090509195020E942A270E94442664367105B5
S11320A08105910500F10091790210917A02209145
S11320B07B0230917C02DC01CB01800F911FA21FB7
S11320C0B31F8093790290937A02A0937B02B0931A
S11320D07C021092A7021092A602809185028111BF
S11320E002C00E94D70C1F910F9108958F929F9266
S11320F0AF92BF92EF92FF920F931F93CF93DF9310
S1132100EC01162F413009F06BC060E00E942B29CE
S1132110012F10E0C00FD11F6091B4027091B5027D
S1132120CE010E944829C00FD11F6091BB0270915B
S1132130BC02CE010E944829C00FD11F6091BA028F
S1132140CE010E942B29C00FD11F6091BD02CE0188
S11321500E942B29C00FD11F6091B1027091B2026D
S1132160CE010E944829C00FD11F6091B302CE0155
S11321700E942B29C00FD11F6091BE02CE010E9484
S11321802B29C00FD11F6091BF02CE010E942B29C1
S1132190C00FD11F4091C0025091C1026091C20290
S11321A07091C302CE010E943C29C00FD11F4091FF
S11321B0B6025091B7026091B8027091B902CE0193
S11321C00E943C294091AD025091AE026091AF0251
S11321D07091B002C8018C0F9D1F0E943C295DC103
S11321E0411110C1062F10E0C00FD11FCE010E9473
S11321F02529813024E0920728F49093B502809336
S1132200B40206C080E094E09093B5028093B402D7
S1132210C00FD11FCE010E942529813034E09307DD
S113222028F49093BC028093BB0206C080E094E043
S11322309093BC028093BB02C00FD11FCE010E94B9
S11322401729843118F08093BA0203C08EEB80936F
S1132250BA02C00FD11FCE010E941729823318F091
S11322608093BD0203C086E98093BD02C00FD11FD5
S1132270CE010E9425299C01205131092138314089
S113228028F49093B2028093B10206C080E690E0F5
S11322909093B2028093B102C00FD11FCE010E946D
S11322A01729823318F08093B30203C086E9809320
S11322B0B302C00FD11FCE010E9417299FEF980FC0
S11322C0903118F48093BE0203C086E08093BE026E
S11322D0C00FD11FCE010E9417299FEF980F923093
S11322E018F48093BF0203C082E08093BF02C00F42
S11322F0D11FCE010E941F294B015C0120E030E078
S113230040E050E40E94252718169CF02DEC3CEC8C
S11323104CEC5DE3C501B4010E94C62588234CF052
S11323208092C0029092C102A092C202B092C302F3
S11323300CC083E393E3A3E3BFE38093C0029093D1
S1132340C102A093C202B093C302C00FD11FCE0139
S11323500E941F294B015C0120E030E040E85FE36C
S11323600E94252718169CF02DEC3CEC4CEC5DE308
S1132370C501B4010E94C62588234CF08092B602A0
S11323809092B702A092B802B092B9020CC080E059
S113239090E0A0E8BFE38093B6029093B702A093C5
S11323A0B802B093B902C8018C0F9D1F0E941F2967
S11323B04B015C0120E030E040EA50E40E94252714
S11323C018169CF02DEC3CEC4CEC5DE3C501B4011B
S11323D00E94C62588234CF08092AD029092AE02F2
S11323E0A092AF02B092B00258C083E393E3A3EA91
S11323F0BFE38093AD029093AE02A093AF02B0937B
S1132400B0024BC0423059F510928002E62EF12CF6
S113241011E003C0CE0DDF1D1F5FCE010E941F29F6
S11324208090790290907A02A0907B02B0907C0216
S113243086169706A806B90678F460937902709315
S11324407A0280937B0290937C021093800219316C
S113245008F31092800221C01931E0F21EC043300B
S1132460E1F44091790250917A0260917B0270917B
S11324707C02809180029E01819F200D311D1124D8
S1132480C9010E944E29809180028F5F893118F41E
S11324908093800202C010928002DF91CF911F913D
S11324A00F91FF90EF90BF90AF909F908F90089501
S11324B0CF92DF92EF92FF92CF93D09AD19AD29A91
S11324C0D39A8C9A8D9ADB9AD89AC59AC69AC79A47
S11324D0379A309A319A329A88E090E00E9417290C
S11324E0882389F00E94AA0B41E064E088E090E030
S11324F00E947610C9E143E064E080E890E00E9425
S11325007610C150C1F740E064E088E090E00E949A
S1132510761042E064E080E890E00E94761085B591
S11325208E6085BD8EEF83BD83EA8FBD8BE08EBD4B
S11325308091B4029091B5029BBD8ABD8091BB028B
S11325409091BC0299BD88BD2091C0023091C10216
S11325504091C2025091C3026091B6027091B702D9
S11325608091B8029091B9020E942A272BED3FE096
S113257049E450E40E942A276B017C016091BE0269
S113258070E080E090E00E9475269B01AC01C701D9
S1132590B6010E94CB2560939202709393028093BC
S11325A09402909395028DEB97E3A6E8B7E38093AA
S11325B0960290939702A0939802B0939902209167
S11325C0BF028091B1029091B202289FB001299F6D
S11325D0700D112480E090E00E9473269B01AC01F1
S11325E060E070E084EB93E40E94CB252091AD027F
S11325F03091AE024091AF025091B0020E94CB25BF
S113260060938A0270938B0280938C0290938D0264
S11326100E942E1D0E94B6208091B3020E940F1DBD
S11326200E94E51C789480917802811102C00E9476
S1132630BF0E85B7886085BF8BB780688BBFCF918D
S1132640FF90EF90DF90CF900895CF92DF92EF92BA
S1132650FF92CF93DF93C091BE02D0E02091A902F4
S11326603091AA02E091AB02F091AC028CE390E0CD
S1132670BE010E94AB27260F371F2E173F0788F491
S11326802091AB023091AC02AFEFB0E00E94E7279B
S113269060939E0270939F028093A0029093A10284
S11326A018C02091A9023091AA024091A802AFEF6C
S11326B0B0E00E94E727DC01CB01840F911DA11D2E
S11326C0B11D80939E0290939F02A093A002B093A9
S11326D0A10260919E0270919F028091A00290914C
S11326E0A1026115710581059105A1F10E9473266E
S11326F0209196023091970240919802509199024C
S11327000E942A279B01AC0160E070E080E89FE30F
S11327100E94CB2560939A0270939B0280939C0243
S113272090939D02209192023091930240919402E1
S1132730509195020E942A2726E636E646E650E4A2
S11327400E942A2760938E0270938F0280939002D6
S1132750909391022091AB023091AC028CED95E004
S1132760BE010E94AB276217730708F062C089B7E5
S11327708F7789BF14BC1092AC021092AB021092F6
S1132780AA021092A90210929E0210929F02109225
S1132790A0021092A10210928E0210928F02109247
S11327A09002109291021092860210929A02109254
S11327B09B0210929C0210929D021092A8026091BA
S11327C0A6027091A70280E090E00E9473262091F7
S11327D092023091930240919402509195020E948A
S11327E02A276B017C016091790270917A028091B1
S11327F07B0290917C020E9473269B01AC01C7016D
S1132800B6010E945A250E9444266093790270936F
S11328107A0280937B0290937C021092A70210921A
S1132820A602F89443E064E080E890E00E94761009
S11328307894C091BA026C2F70E080E090E00E941E
S1132840752620918E0230918F0240919002509112
S113285091020E94C625882374F46C2F70E080E0F6
S113286090E00E94732660938E0270938F0280938F
S1132870900290939102DF91CF91FF90EF90DF90BF
S1132880CF9008952F923F926F927F928F929F9252
S1132890AF92BF92CF92DF92EF92FF920F931F936A
S11328A0CF93DF93CDB7DEB729970FB6F894DEBF89
S11328B00FBECDBF7A019E838D8378876F8329876E
S11328C00E94B62020E048E065E080EA9BE00E9498
S11328D0962181E00E94901D8AE00E94191DC80182
S11328E00E942C2368E18AE50E94251D8BE790E075
S11328F00E942C2364E28AE50E94251D80E890E072
S11329000E942C2360E38AE50E94251D85E890E05F
S11329100E942C239E2CAF2C772473940F2EFDE061
S11329206F2EF02D0F2EF3EFBF2EF02D0F2EF9E0AA
S11329308F2EF02DE114F10499F0292D3A2D00E0A9
S1132940ADECBCEC0E94E7279C01369527953695A3
S11329502795369527950F5F2115310589F701C015
S113296000E02D813E811C822115310509F4CDC181
S1132970C72C01C0C82EADECBCEC0E94E7279C011B
S113298036952795369527953695279581E08C0DB4
S11329902115310579F7CC82D12CC6010E94F62786
S11329A09A8389831B821C141D040CF04CC0E92DEE
S11329B0FA2D60E070E080E0402F50E06417750766
S11329C074F5C980DA80C80ED11C87FDDA949F01A2
S11329D0ADECBCEC0E94E727969587959695879574
S11329E0969587959C01220F331F880F991F880F96
S11329F0991F880F991F820F931F9F01281B390B62
S1132A00D6012C939F01ADECBCEC0E94E727FC019E
S1132A10F695E795F695E795F695E79507C0A981AC
S1132A20BA81A80FB11D87FDBA951C928B818F5F67
S1132A308B83682F082E000C770B2C8130E06217F3
S1132A4073070CF4BBCF64E185E00E94251D20E0F0
S1132A5041E16CE084E790E00E9496218C810FEFC5
S1132A60080F069D002D11240B5F81508B83882352
S1132A7024F1E981FA81E80FF11D87FDFA9560815F
S1132A80062E000C770B880B990B0E946023298576
S1132A908B81082E000C990B422F50E08417950768
S1132AA039F4222329F084E692E00E942C230B5F60
S1132AB08B8181508B838823E4F64CE0400F24E221
S1132AC064E1802F0E94BF209E012F5F3F4F1901B8
S1132AD00E94090B0E94E51C0E940A0E8111FCCF82
S1132AE0D12C0E940A0E882309F403C1813009F015
S1132AF085C0D3942D2D0D2C000C330B8C8190E0CC
S1132B002817390709F0A5C0CE0101961C010E94BF
S1132B10C00A2D813E812817390708F40BCF2F8175
S1132B2038858217930708F405CF24E241E164E174
S1132B3085E00E94BF200E940A0E8111FCCF10E0A4
S1132B400E940A0E833021F411506AF512E02BC062
S1132B50823029F41F5F133034F110E024C0813037
S1132B6011F5111115C000E021E244E765E186E5A5
S1132B700E943C202DE244E761E286E50E943C206D
S1132B8029E344E76DE286E50E943C20D12C61C034
S1132B90113009F4B7C0123031F4DE0111961D0171
S1132BA00E94C00ABAC000E021E244E765E186E57C
S1132BB00E943C202DE244E761E286E50E943C202D
S1132BC029E344E76DE286E50E943C20612F660F0D
S1132BD0610F660F660F21E2260F6B5E0FEF44E76D
S1132BE086E50E943C200E94E51C0E940A0E811189
S1132BF0FCCF0E940A0E8823E1F3A2CF8330A1F414
S1132C00E981FA818D2D0D2C000C990BE80FF91F29
S1132C1020812F5F2083E981FA81E80FF91F8081E9
S1132C208A30BCF0108215C0823099F4E981FA81AF
S1132C308D2D0D2C000C990BE80FF91F20812150CC
S1132C402083E981FA81E80FF91F808188230CF43D
S1132C50808264E185E00E94251D8C8181508B83F4
S1132C60882314F1E981FA81E80FF11D87FDFA95B3
S1132C706081062E000C770B880B990B0E94602351
S1132C808985882361F02B81022E000C330B90E0A0
S1132C902817390721F484E692E00E942C238B81C3
S1132CA081508B838823F4F68C818150DB9C902D9A
S1132CB01124869D900D112485E0890F29852223F6
S1132CC051F030E04D2D0D2C000C550B42175307DD
S1132CD014F48AE0890F4CE0480F24E264E10E9476
S1132CE0BF209E012F5F3F4F19010E94090B0E94D4
S1132CF0E51C0E940A0E8111FCCF0E940A0E882353
S1132D00E1F3EFCE8E2D9F2D08C080E090E00E946D
S1132D10F6279A8389831B8296CE29960FB6F89458
S1132D20DEBF0FBECDBFDF91CF911F910F91FF90FA
S1132D30EF90DF90CF90BF90AF909F908F907F9057
S1132D406F903F902F900895CF930E94B62020E07B
S1132D5048E065E080EA9BE00E94962180E00E94C2
S1132D60901D84E00E94191D8AE890E00E942C23A3
S1132D708AE10E94191D60918E0270918F028091E8
S1132D809002909191022AE030E040E050E00E94ED
S1132D90C5248CE30E94191D8EE890E00E942C2328
S1132DA086E50E94191D6091810270918202072EAE
S1132DB0000C880B990B0E94752620E030E040E25D
S1132DC051E40E94CB2524E630E040E050E00E942C
S1132DD0C52481E00E94901D84E00E94191D82E9AF
S1132DE090E00E942C238AE10E94191D60919A02AE
S1132DF070919B0280919C0290919D022AE030E0A8
S1132E0040E050E00E94C5248CE30E94191D86E92D
S1132E1090E00E942C2386E50E94191D60919E0279
S1132E2070919F028091A0029091A1020E94602360
S1132E3082E00E94901D84E00E94191D8AE990E0BE
S1132E400E942C238AE10E94191D6091A2027091B4
S1132E50A302072E000C880B990B0E9460238CE3BD
S1132E600E94191D8EE990E00E942C2386E50E94A1
S1132E70191D6091AB027091AC0280E090E00E9459
S1132E80602383E00E94901D84E00E94191D82EA61
S1132E9090E00E942C238AE10E94191D609188020F
S1132EA07091890280E090E00E9460238CE30E948C
S1132EB0191D86EA90E00E942C2386E50E94191DC4
S1132EC06091A9027091AA0280E090E00E946023C0
S1132ED084E00E94901D84E00E94191D8AEA90E01B
S1132EE00E942C238AE10E94191D6091A402062EDF
S1132EF0000C770B880B990B0E9460238CE30E94D3
S1132F00191D8EEA90E00E942C2386E50E94191D6B
S1132F1082EB90E00E942C2366B3669566956695D5
S1132F20C1E06C27862F90E0A0E0B0E0BC01CD01A9
S1132F3061707727882799270E94602384EB90E0AB
S1132F400E942C2366B362956F706C27862F90E0E5
S1132F50A0E0B0E0BC01CD016170772788279927F4
S1132F600E94602385E00E94901D84E00E94191D48
S1132F7087EB90E00E942C238AE10E94191D609146
S1132F80A6027091A70280E090E00E94602386E090
S1132F900E94901D84E00E94191D8BEB90E00E941A
S1132FA02C238AE10E94191D6091790270917A02A2
S1132FB080917B0290917C020E94732620E030E095
S1132FC04AE754E40E94CB2524E630E040E050E098
S1132FD00E94C5240E94E51CCF9108950E945812B6
S1132FE080918502811102C00E94D70C0E94C20FF9
S1132FF00E9425130E94D60D80918502811103C081
S11330000E94560F02C00E94A4160E940A0E882332
S113301069F30E940C18EACF80917702863054F04D
S1133020809176028F5F80937602109277028230CD
S1133030D9F424C088235CF4809176028150809373
S1133040760295E090937702823071F408C0809103
S11330507602823049F48091770284307CF01092B9
S11330607602109277020AC080917602882334F4A3
S113307082E08093760283E0809377020E94B620F8
S113308020E048E065E080EA9BE00E949621809180
S11330907602811189C08AE00E94191D81E00E9494
S11330A0901D8FEB90E00E942C2388E50E94191D4F
S11330B06091BB027091BC0280E090E00E946023AA
S11330C08AE00E94191D82E00E94901D88EC90E025
S11330D00E942C2388E50E94191D6091B40270910E
S11330E0B50280E090E00E9460238AE00E94191DEE
S11330F083E00E94901D82ED90E00E942C2388E5DD
S11331000E94191D6091C0027091C1028091C20297
S11331109091C30228EE33E040E050E00E94C524C1
S11331208AE00E94191D84E00E94901D8EED90E0BB
S11331300E942C2388E50E94191D6091B6027091AB
S1133140B7028091B8029091B90228EE33E040E0D2
S113315050E00E94C5248AE00E94191D85E00E9467
S1133160901D89EE90E00E942C2388E50E94191D91
S11331706091BE0270E080E090E00E9460238AE0EB
S11331800E94191D86E00E94901D81EF90E00E942C
S11331902C2388E50E94191D6091BF0270E080E035
S11331A090E00E946023AAC0813009F07AC08AE0CE
S11331B00E94191D81E00E94901D8BEF90E00E94F7
S11331C02C2388E50E94191D6091BA0270E080E00A
S11331D090E00E9460238AE00E94191D82E00E9410
S11331E0901D85E091E00E942C2388E50E94191D22
S11331F06091AD027091AE028091AF029091B002E5
S113320028EE33E040E050E00E94C5248AE00E94AA
S1133210191D83E00E94901D8DE091E00E942C23F3
S113322088E50E94191D6091B1027091B20280E09C
S113323090E00E9460238AE00E94191D84E00E94AD
S1133240901D86E191E00E942C2388E50E94191DBF
S11332506091BD0270E080E090E00E9460238AE00B
S11332600E94191D85E00E94901D83E291E00E9456
S11332702C2388E50E94191D6091B30270E080E060
S113328090E00E9460238AE00E94191D86E00E945B
S1133290901D80E391E00E942C2388E50E94191D73
S11332A02DC0823059F58AE00E94191D81E00E94E8
S11332B0901D8BE391E00E942C2388E50E94191D48
S11332C08AE00E94191D82E00E94901D8BE491E027
S11332D00E942C238AE00E94191D83E00E94901D05
S11332E08AE591E00E942C238AE00E94191D84E063
S11332F00E94901D80E890E00E942C236091770248
S1133300660F660F660F2FE0260F695F4FE780E0B8
S11333100E94BF200E94E51C0E940A0E8111FCCF6E
S11333200E940A0E8823E1F3813009F0BCC2809127
S11333307602082E000C990BFC01EE0FFF1FE80F1C
S1133340F91FEE0FFF1F80917702E80FF11D87FD33
S1133350FA95E031F10508F0B5C2E65DFF4F0C9433
S1133360E1274091BB025091BC0208E611E020E045
S113337060E070E080E094E00E9442142091BB027F
S11333803091BC028217930709F49CC29093BC024B
S11333908093BB0241E064E088E090E00E947610F4
S11333A08091BB029091BC0299BD88BD8BC24091B3
S11333B0B4025091B50207E711E020E060E070E04C
S11333C080E094E00E9442142091B4023091B5024E
S11333D08217930709F476C29093B5028093B402DE
S11333E041E064E088E090E00E9476108091B402AD
S11333F09091B5029BBD8ABD65C220E030E04AE7EA
S113340054E46091C0027091C1028091C202909113
S1133410C3020E942A270E94442607E811E023E001
S1133420AB0164E670E080ED97E00E944214BC01B9
S113343080E090E00E9473266B017C0120E030E084
S11334404AE754E46091C0027091C1028091C202C3
S11334509091C3020E942A279B01AC01C701B601C7
S11334600E94C625882309F42DC220E030E04AE7F3
S113347054E4C701B6010E94CB256093C002709347
S1133480C1028093C2029093C30241E064E088E0E9
S113349090E00E94761016C220E030E04AE754E43F
S11334A06091B6027091B7028091B8029091B9020E
S11334B00E942A270E9444260EED10E023E0AB016F
S11334C064E670E088EE93E00E944214BC0180E060
S11334D090E00E9473266B017C0120E030E04AE713
S11334E054E46091B6027091B7028091B802909151
S11334F0B9020E942A279B01AC01C701B6010E94B0
S1133500C625882309F4DEC120E030E04AE754E40C
S1133510C701B6010E94CB256093B6027093B7022F
S11335208093B8029093B90241E064E088E090E0AF
S11335300E947610C7C14091BE0250E00AE911E032
S113354020E061E070E080E190E00E94421420916C
S1133550BE0230E08217930709F4B4C18093BE021F
S113356041E064E088E090E00E947610ABC14091B5
S1133570BF0250E00BEA11E020E061E070E08FEF61
S113358090E00E9442142091BF0230E0821793071A
S113359009F498C18093BF0241E064E088E090E0C0
S11335A00E9476108FC14091BA0250E00AEB11E0FC
S11335B020E064E170E08FEF90E00E9442142091DB
S11335C0BA0230E08217930709F47CC18093BA02EF
S11335D041E064E088E090E00E94761073C120E04E
S11335E030E04AE754E46091AD027091AE028091FC
S11335F0AF029091B0020E942A270E94442608EC50
S113360011E023E0AB0164E670E088E893E10E94F6
S11336104214BC0180E090E00E9473266B017C019F
S113362020E030E04AE754E46091AD027091AE02CC
S11336308091AF029091B0020E942A279B01AC01B5
S1133640C701B6010E94C625882309F43BC120E0C6
S113365030E04AE754E4C701B6010E94CB256093E9
S1133660AD027093AE028093AF029093B00241E03A
S113367064E088E090E00E94761024C14091B10299
S11336805091B20209ED11E020E060E170E080E9C0
S113369091E00E9442142091B1023091B20282174B
S11336A0930709F40FC19093B2028093B10241E0F1
S11336B064E088E090E00E94761004C14091BD026D
S11336C050E00DEE11E020E062E370E08FEF90E057
S11336D00E9442142091BD0230E08217930709F43E
S11336E0F1C08093BD0241E064E088E090E00E9474
S11336F07610E8C04091B30250E003E211E020E00C
S113370062E370E08FEF90E00E9442142091B302D4
S113371030E08217930709F4D5C08093B3020E9466
S11337200F1D41E064E088E090E00E947610CAC07A
S11337309091850281E08927809385020E940A0E78
S11337408111FCCF0E94EE170E94BF0EBBC022E283
S113375041E052E06DE28BE092E00E94490E882342
S113376009F4B0C00E94B62081E00E94901D86E05A
S11337700E94191D81E192E00E942C2383E00E94A3
S1133780901D82E00E94191D84E292E00E942C2385
S11337900E94E51C1092790210927A0210927B0228
S11337A010927C02109280021092A7021092A6023C
S11337B0C12CD12C7601C39443E064E080E890E00E
S11337C00E94761083E50E94191DC701B6010E946C
S11337D0602382E392E00E942C2369E170E080E0A0
S11337E090E00E9460230E94E51C8FEFC81AD80A5B
S11337F0E80AF80A8AE1C816D104E104F104E1F602
S11338001092800286E00E94901D8DE20E94191D94
S113381084E392E00E942C230E94E51C0E940A0E7D
S11338208111FCCF0E940A0E8823E1F34BC024E1EE
S11338304AE352E068E28AE492E00E94490E882357
S113384009F440C00E94B62083E00E94901D88E0E5
S11338500E94191D82E592E00E942C230E94E51C1F
S11338600E94AA0B41E064E088E090E00E94761098
S113387085E00E94901D8DE20E94191D84E392E070
S11338800E942C230E94E51C0E940A0E8111FCCF89
S11338900E940A0E8823E1F315C00E940A0E8111CA
S11338A0FCCF0E94EE17823031F4809177028F5F53
S11338B08093770207C0833029F480917702815086
S11338C0809377020E940A0E8823E1F30E940C1869
S11338D066956695669590E8699FB0011124680F16
S11338E0711DFB01E253FD4F408308956695669573
S11338F0669590E8699FB0011124680F711DFB0162
S1133900E253FD4F80810895FF920F931F93CF934D
S1133910DF93C82F062F172FF42E0E9442250E94F2
S11339203F25883031F0803121F081E08093C4025A
S113393033C088E70E9450250E943F25883131F02A
S1133940803221F081E08093C40226C08C2F0E9433
S113395050250E943F25883219F4F11007C01AC07F
S11339608033D9F381E08093C40216C0C02FD12FD5
S11339708E010F5F1F4FFA940F0D111D89910E9444
S113398050250E943F25883211F0803319F4C01766
S1133990D107A1F71092C4020E944A25DF91CF916A
S11339A01F910F91FF900895CF93DF931F92CDB78E
S11339B0DEB7898341E0BE016F5F7F4F80E00E94E4
S11339C0841C0F90DF91CF910895CF93DF9381E210
S11339D00E94D41C80E00E94D41C8FE70E94D41C57
S11339E082E20E94D41C80E00E94D41C87E00E94E2
S11339F0D41CC0E0D0E0BE0162957295707F76273A
S1133A00607F762762537D4F40E180E40E94841CEE
S1133A102196C034D10579F7DF91CF910895CF93E2
S1133A20C82F81E80E94D41C8C2F0E94D41CCF91F3
S1133A300895882314F08093C50208959091C602D6
S1133A40903410F48093C6020895CF93C62F0E9439
S1133A50191D8C2F0E941E1DCF9108950E9435259B
S1133A608EEA0E94D41C85ED0E94D41C80EF0E9433
S1133A70D41C88EA0E94D41C8FE30E94D41C83EDDA
S1133A800E94D41C80E00E94D41C8DE80E94D41CA7
S1133A9084E10E94D41C80E40E94D41C80E20E9431
S1133AA0D41C80E00E94D41C81EA0E94D41C88ECBF
S1133AB00E94D41C8AED0E94D41C82E10E94D41C72
S1133AC081E80E94D41C8FEF0E94D41C89ED0E94CF
S1133AD0D41C81EF0E94D41C8BED0E94D41C80E284
S1133AE00E94D41C84EA0E94D41C86EA0E94D41C3E
S1133AF08EE20E94D41C8FEA0E94D41C60E080E015
S1133B000E94251D86EA8093C7021092CC0210926F
S1133B10CB021092CA021092C6021092C5020895F6
S1133B20883028F4880F880F880F8093C602089580
S1133B308091C50208958F929F92AF92BF92CF92C7
S1133B40DF92EF92FF920F931F93CF93DF93062F91
S1133B50142F0E94251DD091C602C091C5026D2F5D
S1133B608C2F0E94761C1F3F91F4902F9770812C0C
S1133B70912C540183947501640104C0CC0CDD1CA8
S1133B80EE1CFF1C9A95D2F7482F4C2913C00770DE
S1133B90C12CD12C7601C394B701A60104C0440FF3
S1133BA0551F661F771F0A95D2F78A019B0100955E
S1133BB0482F40236D2F8C2F0E94681CDF91CF91DA
S1133BC01F910F91FF90EF90DF90CF90BF90AF9037
S1133BD09F908F9008953F924F925F926F927F9241
S1133BE08F929F92AF92BF92CF92DF92EF92FF9209
S1133BF00F931F93CF93DF93982E88230CF4C6C0A2
S1133C0044230CF4C3C0603408F0C0C0203408F06E
S1133C10BDC011E0812E861A820E181B140F462F88
S1133C204770762E741AE82CF12C88E090E0841BFF
S1133C309109E816F9067CF488E090E08E199F0952
S1133C402FEF30E0590102C0B594A7948A95E2F7AA
S1133C508A2D682C04C088E0682E641A8FEFA82E81
S1133C60B12C02C0AA0CBB1C4A95E2F73A2C672D72
S1133C70892D0E94251D1123C9F1512C0F2EF6EC1C
S1133C80CF2EF2E0DF2EF02DC5ECD2E0A094F601A9
S1133C904080B880642D8B2D0E94761C0F3F19F450
S1133CA0482F432902C0482F4A219B2D9F5F9883A8
S1133CB0642D8B2D0E94681C53945112E8CF16C0BA
S1133CC0C85F6C2F892D0E94251D1123F1F07A2CD9
S1133CD0F6016081F2018081982F9F5F9083402FCD
S1133CE00E94681C7394711681F0F2CFC72D671877
S1133CF0A12C0F2EF6ECCF2EF2E0DF2EF02D0F2E9E
S1133D00F5EC4F2EF2E05F2EF02D262D2C0FE22F36
S1133D10F0E0CF010896E816F90694F62815B0F5F8
S1133D20EE1AFF0A8FEF90E09C0102C0220F331FAE
S1133D30EA94E2F77901E0946C2F685F892D0E9480
S1133D40251D112319F1B12C0F2EF6ECCF2EF2E024
S1133D50DF2EF02DC5ECD2E09E2C9094F601A080CD
S1133D60F8806A2D8F2D0E94761C0F3F19F4482F7E
S1133D704E2902C0482F49219F2D9F5F98836A2DA9
S1133D808F2D0E94681CB394B112E8CFDF91CF91BC
S1133D901F910F91FF90EF90DF90CF90BF90AF9065
S1133DA09F908F907F906F905F904F903F90089579
S1133DB02F923F924F925F926F927F928F929F9237
S1133DC0AF92BF92CF92DF92EF92FF920F931F9325
S1133DD0CF93DF93CDB7DEB72C970FB6F894DEBF41
S1133DE00FBECDBF5C01662E29832091C5022F83AF
S1133DF03091C6023A87822F860F1AF480E8682E23
S1133E00621A842F90E007969595879595958795E6
S1133E10959587958D839E839A8596959695969587
S1133E20890F893048F02D813E81285F3F4FA901D9
S1133E30481B51095E834D834A8457E045228D8196
S1133E409E81892B09F4FAC09A859C83712C262CB7
S1133E50312C512C88E090E0FC01E419F109FB833A
S1133E60EA830F2EF6ECCF2EF2E0DF2EF02D05ECD8
S1133E7012E06C818F810E94251D39862886729CF0
S1133E80C001739C900D11247C01E218F308662094
S1133E9009F43CC09C012A0D3B1D852C3C872B87D3
S1133EA0EB85FC859490042C01C0990C0A94EAF7E4
S1133EB0772079F0F501EE0DFF1D2FEFE21AF20ADB
S1133EC0849190E00A8002C0959587950A94E2F760
S1133ED0982A3981313039F4F6016081F801808102
S1133EE00E94761C982AF6016081F8018081982F3F
S1133EF09F5F9083492D0E94681C83942B853C8589
S1133F002F5F3F4F3C872B878610CACFEDECF2E042
S1133F108081882341F0F6016081F80180810E944C
S1133F20761C482F01C0452DF6016081F80180817F
S1133F300E94681CFC81F85FFC837394872D90E0D9
S1133F402D813E818217930708F493CF22303105E7
S1133F5008F474C06F2F8F810E94251D272D30E037
S1133F602150310948855985249FC001259F900D12
S1133F70349F900D1124662009F43EC04501880E3B
S1133F80991E65015FEFC51AD50A6A94C60CD11C47
S1133F90C80ED91E0F2EF6ECEF2EF2E0FF2EF02DF8
S1133FA005EC12E088E090E05C01A418B10834014B
S1133FB0F7018080F8019080682D892D0E94761C7D
S1133FC0F301449150E00A2C02C0559547950A9498
S1133FD0E2F7482BF981F13009F4482B892D8F5FE2
S1133FE0F8018083682D892D0E94681CFFEF6F1AE9
S1133FF07F0A6C147D04E1F68091CD02882399F048
S1134000813041F46091C6028091C5020E94761C01
S1134010482F0AC06091C6028091C5020E94761C96
S1134020482F409501C040E06091C602E5ECF2E003
S11340308081982F9F5F90830E94681C0E94981D26
S11340406A850E94251D2C960FB6F894DEBF0FBE1C
S1134050CDBFDF91CF911F910F91FF90EF90DF9033
S1134060CF90BF90AF909F908F907F906F905F9014
S11340704F903F902F900895DF92EF92FF920F930D
S11340801F93CF93DF93E82E162FD42EF22ED02F2A
S113409088230CF449C044230CF446C0603408F06F
S11340A043C08FE3821708F43FC04E1500F11CC0D3
S11340B04D2F612F8C2F0E949B1DCF5F0C17C0F7D3
S11340C0DE14D8F017C04D2F6F2D8C2F0E949B1D2E
S11340D0CF5F0C17C0F7F11698F01CC00D2F4D2DB3
S11340E08D2D0E94EB1D20C0042FCE2DE1CF0E2D6F
S11340F0C42FDECF0D2DCE2DE6CF0E2DCD2DE3CF4B
S11341000D2F212F4E2D6F2D8E2D0E94EB1D212F53
S11341106F2DE4CF0D2F2F2D4E2D612F8E2D0E944C
S1134120EB1D2F2D612FDACFDF91CF911F910F91CE
S1134130FF90EF90DF9008950F931F93CF93DF9339
S1134140182FD0E000E00BC0412F6D2F8C2F0E9460
S1134150681CCF5FC038C1F7D85FD03411F0C02FCE
S1134160F3CFDF91CF911F910F91089580E00E94CA
S11341709C2008950F930E94EB1D0F9108952F9298
S11341803F925F926F927F928F929F92AF92BF9273
S1134190CF92DF92EF92FF920F931F93CF93DF930F
S11341A0C82E81E0D82EDC18D40EB82EB61AB20E62
S11341B0462F4770A62EA41A0B2D10E088E090E03D
S11341C0841B9109081719077CF488E090E0801B90
S11341D0910B2FEF30E0B90102C0759567958A9570
S11341E0E2F7CB015B2C04C088E0582E541A8FEF01
S11341F0682E01C0660C4A95EAF76A2D8C2D0E9440
S1134200251DDD20D9F1812C0F2EF6ECEF2EF2E0E6
S1134210FF2EF02DC5ECD2E0F70170809880672D59
S1134220892D0E94761C992D9F5F9883482F4625DF
S1134230672D892D0E94681C83948D10EDCF1EC0BC
S1134240C85F6C2F8C2D0E94251DDD2039F1672C51
S1134250F7015080F1018080652D882D0E94761C25
S1134260982D9F5FF1019083482F4095652D882DEF
S11342700E94681C63946D1489F0EACFCA2D5A1801
S1134280A52C712C0F2EF6ECEF2EF2E0FF2EF02D64
S11342900F2EF5EC2F2EF2E03F2EF02D8A2D8C0FF1
S11342A0E82FF0E0DF0118960A171B074CF68B1570
S11342B058F50E1B1F0B8FEF90E09C0102C0220FDC
S11342C0331F0A95E2F7B22EB0946C2F685F8C2DE1
S11342D00E94251DDD20C1F0E12C06EC12E0C5ECA6
S11342E0D2E0F801C080F8806C2D8F2D0E94761CDE
S11342F09F2D9F5F9883482F4B256C2D8F2D0E94F7
S1134300681CE394ED10EDCFDF91CF911F910F91D5
S1134310FF90EF90DF90CF90BF90AF909F908F90E1
S11343207F906F905F903F902F9008956623F4F0F4
S11343304034E0F42230D0F49093C9028093C80250
S11343406093CA024093CB0250E041505109CA0124
S113435099230CF40796959587959595879595954A
S113436087958F5F8093CC022093CD0208952F927E
S11343703F924F925F926F927F928F929F92AF92F1
S1134380BF92CF92DF92EF92FF920F931F93CF933E
S1134390DF93CDB7DEB72B970FB6F894DEBF0FBE11
S11343A0CDBF2091C5022C833091C6023F839091EA
S11343B0CC0280522091CA02299F900111242F5FC0
S11343C03F4F829FA001839F500D11245987488736
S11343D04F5F5F4F5E834D83E091C802F091C90245
S11343E0A885B985EA0FFB1F54907F80B7E07B2234
S11343F0992309F492C0EF81EB83312C212C88E0BE
S113440090E09C01271931093A8329830F2EFDEC92
S11344108F2EF2E09F2EF02D0F2EF6ECAF2EF2E051
S1134420BF2EF02D05EC12E0672C752C6B818C816E
S11344300E94251D4D815E81430D511D5B874A8776
S11344407A0151E0E51AF108772009F44FC00F2EE4
S1134450FCECCF2EF2E0DF2EF02D832D362C672CD2
S1134460722C582EA8ECB2E02D913C91EA85FB8584
S1134470E20FF31FE4914E2E032C01C0440C0A9466
S1134480EAF7552081F0F901EE0DFF1D249130E08B
S1134490098002C0359527950A94E2F7422AF6016D
S11344A08081E80EF11CD4018C91813039F4F5013E
S11344B06081D8018C910E94761C482AF5016081A4
S11344C0D8018C91982F9F5F9C93442D0E94681C67
S11344D0F60180812A853B85280F311D3B872A8779
S11344E073947610BFCF762C632C352CD4018C9129
S11344F0811107C0422DF5016081D8018C910E9481
S1134500681CBB81B85FBB8333948091CC0238169E
S113451008F48CCF572C762C03C0EF81EB83312C1D
S11345202F81229526952695237030E08091CB0229
S1134530829586958695837090E0FF818F0F911DFB
S11345402817390709F469C06B818C810E94251DE5
S113455028853985230D311D3A832983552009F493
S113456051C0312C0F2EF6ECAF2EF2E0BF2EF02D01
S113457005EC12E00F2EF8ECCF2EF2E0DF2EF02D3A
S113458088E090E0AC01471951093A010F2EFDEC87
S1134590EF2EF2E0FF2EF02D0F2EFCEC8F2EF2E02A
S11345A09F2EF02DD5012C90F8014080622D842D92
S11345B00E94761CD601ED91FC9129813A81E20F8B
S11345C0F31F449150E0062C02C0559547950A9478
S11345D0E2F7482BD7019C91913009F4482B842DA4
S11345E08F5FF8018083622D842D0E94681CD401A2
S11345F08C91E981FA81E80FF11DFA83E983339400
S11346003510D0CF8091CD02811107C040E0609178
S1134610C6028091C5020E94681C8C818F5F6F81E5
S1134620850D0E94251D2B960FB6F894DEBF0FBE94
S1134630CDBFDF91CF911F910F91FF90EF90DF904D
S1134640CF90BF90AF909F908F907F906F905F902E
S11346504F903F902F900895EF92FF920F931F93E6
S1134660CF93DF93EC018881882319F19091C502DF
S11346702091CA0230E0290F311D20383105CCF4D5
S113468021960F2EF5ECEF2EF2E0FF2EF02D0AEC22
S113469012E00AC0F7019081F801208130E0290F6F
S11346A0311D203831052CF40E94B72189918111E4
S11346B0F1CFDF91CF911F910F91FF90EF9008956B
S11346C00F931F93CF93DF93CDB7DEB72C970FB61D
S11346D0F894DEBF0FBECDBF61157105810591054C
S11346E021F480E30E94B72145C16115710581055C
S11346F020E8920709F43EC1FE0131962CE0DF0167
S11347001D922A95E9F720E32B872A872987288792
S11347102F832E832D832C832B832A832983992310
S11347205CF49B01AC0188279927DC01821B930B65
S1134730A40BB50B41E003C0DC01CB0140E08130A8
S11347403AEC93073AE9A3073BE3B30794F02A81D1
S11347502F5F01C0232F9A5CAA49BB43322F3F5FCE
S113476081305AEC95075AE9A5075BE3B50794F73E
S11347702A83811521EE920725EFA20725E0B207CF
S113478094F02B812F5F01C0232F915EA54FB5407C
S1134790322F3F5F811551EE950755EFA50755E080
S11347A0B50794F72B83803826E9920728E9A207F6
S11347B0B10594F02C812F5F01C0232F80589649B6
S11347C0A849B109322F3F5F803856E9950758E967
S11347D0A507B10594F72C83803422E492072FE0D7
S11347E0A207B10594F02D812F5F01C0232F8054BF
S11347F09244AF40B109322F3F5F803452E49507B1
S11348005FE0A507B10594F72D83803A26E8920767
S113481021E0A207B10594F02E812F5F01C0232F60
S1134820805A9648A140B109322F3F5F803A56E83A
S1134830950751E0A507B10594F72E83803127E24F
S11348409207A105B1058CF02F812F5F01C0232FA2
S113485080519742A109B109322F3F5F803157E25D
S11348609507A105B1059CF72F83883E23E09207A5
S1134870A105B1058CF028852F5F01C0232F885E28
S11348809340A109B109322F3F5F883E53E0950759
S1134890A105B1059CF7288784369105A105B105CA
S11348A084F029852F5F01C0232F84569109A10923
S11348B0B109322F3F5F84369105A105B105A4F7F4
S11348C029878A309105A105B1057CF02A852F5FDF
S11348D001C0232F0A97A109B109322F3F5F8A3003
S11348E09105A105B105ACF72A87181619061A0611
S11348F01B065CF45B858C019D01015011092109A3
S11349003109D9F7652F680F6B878981803361F48A
S113491080E08F5FE1E0F0E0EC0FFD1FE80FF11D98
S113492090819033B1F301C080E0442331F0815091
S1134930FE01E80FF11D9DE291834AE0481B20E04F
S113494090E0E1E0F0E0EC0FFD1FE20FF11DDF016C
S1134950A80FB91F3C9130832F5F421790F7E1E015
S1134960F0E0EC0FFD1FE20FF11D1082CE01019665
S11349700E942C232C960FB6F894DEBF0FBECDBF39
S1134980DF91CF911F910F9108958F929F92AF92D3
S1134990BF92CF92DF92EF92FF926B017C014901AB
S11349A05A0120E030E0A9010E94C62581110AC005
S11349B080E30E94B7218EE20E94B72180E30E9427
S11349C0B7214AC020E030E040E05FECC701B60107
S11349D00E94252788230CF43FC020E030E040E00B
S11349E05FE4C701B6010E94C6258823ACF520E028
S11349F030E0A901C701B6010E94C62588233CF412
S1134A00F7FAF094F7F8F0948DE20E94B721C70109
S1134A10B6010E943D260E9460238EE20E94B721C7
S1134A20C701B6010E9444260E9473269B01AC0173
S1134A30C701B6010E9459256B017C01C501B4016F
S1134A400E9473269B01AC01C701B6010E942A276C
S1134A500E943D260E946023FF90EF90DF90CF904C
S1134A60BF90AF909F908F900895A19AA09AA99A11
S1134A70A89A11B88CE080B984E086BF089581B10A
S1134A80887F089584EA86BF06B607FEFDCF0E949C
S1134A903F25089585ED86BF06B604FCFDCF089535
S1134AA083B984E886BF06B607FEFDCF0E943F2582
S1134AB008955058BB27AA270E9471250C94EB2611
S1134AC00E94DD2638F00E94E42620F039F49F3F4E
S1134AD019F426F40C94DA260EF4E095E7FB0C9412
S1134AE0D426E92F0E94FC2658F3BA1762077307ED
S1134AF08407950720F079F4A6F50C941E270EF48C
S1134B00E0950B2EBA2FA02D0B01B90190010C01D9
S1134B10CA01A0011124FF27591B99F0593F50F4F1
S1134B20503E68F11A16F040A22F232F342F442749
S1134B30585FF3CF469537952795A795F040539541
S1134B40C9F77EF41F16BA0B620B730B840BBAF011
S1134B509150A1F0FF0FBB1F661F771F881FC2F77C
S1134B600EC0BA0F621F731F841F48F48795779590
S1134B706795B795F7959E3F08F0B0CF9395880F4A
S1134B8008F09927EE0F9795879508950E94B0260F
S1134B9008F481E008950E94DF250C94EB260E941E
S1134BA0E42658F00E94DD2640F029F45F3F29F006
S1134BB00C94D42651110C941F270C94DA260E94CD
S1134BC0FC2668F39923B1F3552391F3951B550BF8
S1134BD0BB27AA2762177307840738F09F5F5F4FCC
S1134BE0220F331F441FAA1FA9F335D00E2E3AF00B
S1134BF0E0E832D091505040E695001CCAF72BD023
S1134C00FE2F29D0660F771F881FBB1F2617370773
S1134C104807AB07B0E809F0BB0B802DBF01FF27A5
S1134C2093585F4F3AF09E3F510578F00C94D42688
S1134C300C941F275F3FE4F3983ED4F38695779551
S1134C406795B795F7959F5FC9F7880F911D96955E
S1134C50879597F90895E1E0660F771F881FBB1FBA
S1134C60621773078407BA0720F0621B730B840B67
S1134C70BA0BEE1F88F7E09508950E9444266894C5
S1134C80B1110C941F2708950E94042788F09F57A0
S1134C9098F0B92F9927B751B0F0E1F0660F771F5C
S1134CA0881F991F1AF0BA95C9F714C0B13091F052
S1134CB00E941E27B1E008950C941E27672F782FB9
S1134CC08827B85F39F0B93FCCF386957795679517
S1134CD0B395D9F73EF490958095709561957F4F83
S1134CE08F4F9F4F0895E89409C097FB3EF4909529
S1134CF08095709561957F4F8F4F9F4F9923A9F0B1
S1134D00F92F96E9BB279395F6958795779567953F
S1134D10B795F111F8CFFAF4BB0F11F460FF1BC083
S1134D206F5F7F4F8F4F9F4F16C0882311F096E916
S1134D3011C0772321F09EE8872F762F05C06623C4
S1134D4071F096E8862F70E060E02AF09A95660F7D
S1134D50771F881FDAF7880F9695879597F9089536
S1134D60990F0008550FAA0BE0E8FEEF1616170678
S1134D70E807F907C0F012161306E407F50798F0E0
S1134D80621B730B840B950B39F40A2661F0232BF9
S1134D90242B252B21F408950A2609F4A140A69575
S1134DA08FEF811D811D089597F99F6780E870E05A
S1134DB060E008959FEF80EC089500240A9416168D
S1134DC0170618060906089500240A9412161306F5
S1134DD0140605060895092E0394000C11F4882383
S1134DE052F0BB0F40F4BF2B11F460FF04C06F5F9F
S1134DF07F4F8F4F9F4F089557FD9058440F551F75
S1134E0059F05F3F71F04795880F97FB991F61F048
S1134E109F3F79F087950895121613061406551FBF
S1134E20F2CF4695F1DF08C0161617061806991F2B
S1134E30F1CF86957105610508940895E894BB2720
S1134E4066277727CB0197F908950E94B02608F4C6
S1134E508FEF08950E943D270C94EB260E94DD26D7
S1134E6038F00E94E42620F0952311F00C94D42607
S1134E700C94DA2611240C941F270E94FC2670F34C
S1134E80959FC1F3950F50E0551F629FF001729FEB
S1134E90BB27F00DB11D639FAA27F00DB11DAA1FFA
S1134EA0649F6627B00DA11D661F829F2227B00D47
S1134EB0A11D621F739FB00DA11D621F839FA00DD2
S1134EC0611D221F749F3327A00D611D231F849F22
S1134ED0600D211D822F762F6A2F11249F57504079
S1134EE09AF0F1F088234AF0EE0FFF1FBB1F661FF4
S1134EF0771F881F91505040A9F79E3F510580F0BD
S1134F000C94D4260C941F275F3FE4F3983ED4F30B
S1134F10869577956795B795F795E7959F5FC1F760
S1134F20FE2B880F911D9695879597F90895AA1BD6
S1134F30BB1B51E107C0AA1FBB1FA617B70710F080
S1134F40A61BB70B881F991F5A95A9F780959095B2
S1134F50BC01CD01089597FB072E16F4009407D0E9
S1134F6077FD09D00E94972707FC05D03EF4909561
S1134F7081959F4F0895709561957F4F0895A1E2A3
S1134F801A2EAA1BBB1BFD010DC0AA1FBB1FEE1FBF
S1134F90FF1FA217B307E407F50720F0A21BB30B0A
S1134FA0E40BF50B661F771F881F991F1A9469F786
S1134FB060957095809590959B01AC01BD01CF01E2
S1134FC00895EE0FFF1F0590F491E02D0994A29F20
S1134FD0B001B39FC001A39F700D811D1124911DC9
S1134FE0B29F700D811D1124911D08950F931F937D
S1134FF0CF93DF938230910510F482E090E0E0914A
S1135000D006F091D10620E030E0A0E0B0E0309787
S113501019F1408151810281138148175907C8F061
S11350208417950769F4109731F012960C93129730
S113503013961C9327C00093D0061093D10622C068
S11350402115310519F04217530718F49A01BD01CF
S1135050EF01DF01F801DBCF21153105F9F0281B41
S1135060390B2430310580F48A819B8161157105E7
S113507021F0FB019383828304C09093D106809333
S1135080D006FE01329644C0FE01E20FF31F819365
S1135090919322503109398328833AC02091CE0656
S11350A03091CF06232B41F42091620030916300AC
S11350B03093CF062093CE0620916000309161009A
S11350C02115310541F42DB73EB74091640050914C
S11350D06500241B350BE091CE06F091CF06E21754
S11350E0F307A0F42E1B3F0B2817390778F0AC0107
S11350F04E5F5F4F2417350748F04E0F5F1F5093E4
S1135100CF064093CE068193919302C0E0E0F0E095
S1135110CF01DF91CF911F910F910895CF93DF932A
S1135120009709F481C0FC01329713821282A09186
S1135130D006B091D106109781F420813181820F7D
S1135140931F2091CE063091CF062817390751F5C9
S1135150F093CF06E093CE0667C0ED0120E030E087
S1135160CE17DF0740F44A815B819E01411551054A
S1135170F1F0EA01F5CFD383C28340815181840FDA
S1135180951FC817D90759F488819981840F951FF1
S11351900296918380838A819B81938382832115E4
S11351A0310529F4F093D106E093D0063DC0E9011E
S11351B0FB83EA8349915991C40FD51FEC17FD076E
S11351C061F480819181840F951F0296E90199838E
S11351D08883828193819B838A83E0E0F0E0129646
S11351E08D919C911397009719F0FD01DC01F7CF85
S11351F08D919C9111979D012E5F3F4F820F931FBC
S11352002091CE063091CF062817390769F43097DC
S113521029F41092D1061092D00602C01382128291
S1135220B093CF06A093CE06DF91CF910895E19974
S1135230FECF9FBB8EBBE09A99278DB30895A6E15C
S1135240B0E044E050E00C945D29A8E1B0E042E015
S113525050E00C945D29262FE199FECF9FBB8EBBB5
S1135260E09A01970DB2021631F02DBB0FB6F894F7
S1135270E29AE19A0FBE08950396272F0E942C29E3
S11352800E942B29252F0E942C29242F0C942C2991
S11352900196272F0E942C290C942B29242F0E943D
S11352A06C29252F0E946C290C9456290E946B2985
S11352B0272F0C946C29DC01CB01FC01E199FECF72
S11352C006C0FFBBEEBBE09A31960DB20D92415081
S11352D05040B8F70895262FE199FECF9FBB8EBBAF
S11352E02DBB0FB6F894E29AE19A0FBE0196089589
S10752F0F894FFCF5C
S11352F40000D20620006D696E3A006D61783A00B0
S1135304560030004E4F00594553004564697400FB
S1135314457869740053617665005370640055627E
S113532474004672710053745000537470005374C3
S113533452006E53740074525000506873005472D7
S11353446E004C00205200534163004D696C0044CC
S113535469616C2050574D004172726F7720505729
S11353644D00576865656C206469616D2E0047655E
S1135374617220726174696F004D61676E65747344
S11353840053746570206D6F6465004D61782073FB
S113539470656564004465672F6B6D6800534D2028
S11353A47374657073005374657020696E746572E8
S11353B4762E004C434420636F6E747261737400E0
S11353C44465627567206D6F64650043616C69624E
S11353D472617465206172726F77004F646F6D65DA
S11353E4746572207265736574004C6F6164206423
S11353F4656661756C7473004469616C206C6967DB
S113540468742050574D004172726F77206C69673D
S113541468742050574D00576865656C2044696171
S11354246D6574657220286D29004D61676E65741D
S113543473206F6E20776865656C00312D66756C1A
S11354446C2C20322D68616C66004D6178696D7531
S11354546D207370656564004465677265657320C7
S1135464706572206B6D2F6800537465707065727B
S1135474206D6F746F722073746570730053746558
S11354847020696E74657276616C20583634757355
S1135494004F444F4D455445523F005245534554E3
S11354A400524553455454494E47204F444F4D45AB
S11354B45445520043656C6C7320636C656172657A
S11354C464002F00444F4E45210044454641554C49
S11354D4542076616C7565733F00524553544F52A2
S11354E445004C4F4144494E472044454641554CA0
S11354F454532E2E2E0005060A0201000804060247
S10955040004060200048D
S9030000FC
