:100000000C94A10A0C94BE0A0C94A60C0C94BE0A83
:100010000C94740C0C94BE0A0C94BE0A0C94BE0A88
:100020000C94BE0A0C948B0C0C943C0C0C94BE0AE1
:100030000C94BE0A0C94BE0A0C94BE0A0C94BE0A20
:100040000C94BE0A0C94BE0A0C94BE0A0C94BE0A10
:100050000C94BE0AA119C719ED193C1A8B1AA71ADC
:10006000C31ADF1A2E1B4E1B6A1B881B941B971B7F
:10007000071C3D1C0C000000F01F00FC7F00FEFF71
:10008000000FE00107C00107C00107C0010FE00138
:10009000FEFF00FC7F00F01F000C000000F01F00BE
:1000A000FC7F00FEFF000FE00107C00107C0010751
:1000B000C0010FE001FEFF00FC7F00F01F000C00FC
:1000C0000000F01F00FC7F00FEFF000FE00107C0F2
:1000D0000107C00107C0010FE001FEFF00FC7F0027
:1000E000F01F000C000000F01F00FC7F00FEFF006E
:1000F0000FE00107C00107C00107C0010FE001FECA
:10010000FF00FC7F00F01F000C000000F01F00FC4F
:100110007F00FEFF000FE00107C00107C00107C01C
:10012000010FE001FEFF00FC7F00F01F000C00004B
:1001300000F01F00FC7F00FEFF000FE00107C00180
:1001400007C00107C0010FE001FEFF00FC7F00F0C7
:100150001F000C000000F01F00FC7F00FEFF000FDE
:10016000E00107C00107C00107C0010FE001FEFF69
:1001700000FC7F00F01F000C000000F01F00FC7F5F
:1001800000FEFF000FE00107C00107C00107C0012A
:100190000FE001FEFF00FC7F00F01F000C000000DC
:1001A000F01F00FC7F00FEFF000FE00107C0010709
:1001B000C00107C0010FE001FEFF00FC7F00F01F3F
:1001C000000C000000F01F00FC7F00FEFF000FE0AD
:1001D0000107C00107C00107C0010FE001FEFF00D9
:1001E000FC7F00F01F000C000000F01F00FC7F00EF
:1001F000FEFF000FE00107C00107C00107C0010FAB
:10020000E001FEFF00FC7F00F01F000C000000F08A
:100210001F00FC7F00FEFF000FE00107C00107C0C8
:100220000107C0010FE001FEFF00FC7F00F01F008E
:100230000C000000F01F00FC7F00FEFF000FE0013B
:1002400007C00107C00107C0010FE001FEFF00FC6D
:100250007F00F01F000C000000F01F00FC7F00FE7C
:10026000FF000FE00107C00107C00107C0010FE058
:1002700001FEFF00FC7F00F01F000400000000C032
:100280000100C00100C001000000000000000000EB
:100290000000000000000000000000000000000C52
:1002A00000800100F801C0FF01FC7F00FF07003F54
:1002B000000003000000000000000000000000003B
:1002C000000000000C000000F01F00FC7F00FEFF9B
:1002D000000FE00107C00107C00107C0010FE001E6
:1002E000FEFF00FC7F00F01F000C0000000000007B
:1002F0006000007000007800003C00001E0000FF5D
:10030000FF01FFFF01FFFF010000000000000C00E3
:1003100000003880013CE0013EF0010FF80107FCCD
:100320000107DE0107CF018FC701FEC301FEC10136
:1003300078C0010C0000001838001E78001EF8007C
:100340000FE001C7C101C7C101E7C101FFE3017EA1
:10035000FF003C7F00003E000C000000003E0080DB
:100360003F00C03F00F039007838003E3800FFFF02
:1003700001FFFF01FFFF010038000038000C000002
:1003800000803900FC7900FFF900FFE001E7C001BF
:10039000E7C001E7C001E7E101C7FF00877F000078
:1003A0001F000C000000F01F00FC7F00FEFF008E0D
:1003B000E301C7C101C7C101C7C101CFE3019EFF6E
:1003C000009E7F00183E000C0000000700000700A0
:1003D0000007E00107FC0187FF01E71F00F70300AA
:1003E000FF00003F00001F00000700000C0000009D
:1003F000783C00FEFE00FEFF00CFE70187C30187C7
:10040000C30187C301CFE701FEFF00FEFE00783C79
:10041000000C000000F83000FCF300FEF3008FE752
:100420000107C70107C70107C7018FE300FEFF00EF
:10043000FC7F00F01F001200FE7F00C0FFFF07F8E6
:10044000FFFF1FFC01803F3E00007C0E0000700F8C
:100450000000F0070000E0070000E0070000E00FE8
:100460000000F00E0000703E00007CFC01803FF8B0
:10047000FFFF1FE0FFFF0300FE7F000000000012EF
:1004800000FE7F00C0FFFF07F8FFFF1FFC01803F59
:100490003E00007C0E0000700F0000F0070000E03E
:1004A000070000E0070000E00F0000F00E00007001
:1004B0003E00007CFC01803FF8FFFF1FE0FFFF03D0
:1004C00000FE7F00000000001200FE7F00C0FFFF62
:1004D00007F8FFFF1FFC01803F3E00007C0E00007C
:1004E000700F0000F0070000E0070000E0070000C8
:1004F000E00F0000F00E0000703E00007CFC018068
:100500003FF8FFFF1FE0FFFF0300FE7F0000000039
:10051000001200FE7F00C0FFFF07F8FFFF1FFC0175
:10052000803F3E00007C0E0000700F0000F00700CE
:1005300000E0070000E0070000E00F0000F00E0000
:1005400000703E00007CFC01803FF8FFFF1FE0FFD1
:10055000FF0300FE7F00000000001200FE7F00C0CD
:10056000FFFF07F8FFFF1FFC01803F3E00007C0EED
:100570000000700F0000F0070000E0070000E00737
:100580000000E00F0000F00E0000703E00007CFC58
:1005900001803FF8FFFF1FE0FFFF0300FE7F000028
:1005A0000000001200FE7F00C0FFFF07F8FFFF1FE2
:1005B000FC01803F3E00007C0E0000700F0000F048
:1005C000070000E0070000E0070000E00F0000F077
:1005D0000E0000703E00007CFC01803FF8FFFF1F12
:1005E000E0FFFF0300FE7F00000000001200FE7F1E
:1005F00000C0FFFF07F8FFFF1FFC01803F3E000027
:100600007C0E0000700F0000F0070000E007000003
:10061000E0070000E00F0000F00E0000703E000058
:100620007CFC01803FF8FFFF1FE0FFFF0300FE7F1F
:1006300000000000001200FE7F00C0FFFF07F8FF6F
:10064000FF1FFC01803F3E00007C0E0000700F0089
:1006500000F0070000E0070000E0070000E00F00E6
:1006600000F00E0000703E00007CFC01803FF8FFAF
:10067000FF1FE0FFFF0300FE7F00000000001200EC
:10068000FE7F00C0FFFF07F8FFFF1FFC01803F3E19
:1006900000007C0E0000700F0000F0070000E00773
:1006A0000000E0070000E00F0000F00E0000703EC8
:1006B00000007CFC01803FF8FFFF1FE0FFFF03000C
:1006C000FE7F00000000001200FE7F00C0FFFF0759
:1006D000F8FFFF1FFC01803F3E00007C0E00007011
:1006E0000F0000F0070000E0070000E0070000E056
:1006F0000F0000F00E0000703E00007CFC01803F07
:10070000F8FFFF1FE0FFFF0300FE7F000000000076
:100710001200FE7F00C0FFFF07F8FFFF1FFC0180F3
:100720003F3E00007C0E0000700F0000F00700004C
:10073000E0070000E0070000E00F0000F00E0000FE
:10074000703E00007CFC01803FF8FFFF1FE0FFFFD0
:100750000300FE7F00000000001200FE7F00C0FFCB
:10076000FF07F8FFFF1FFC01803F3E00007C0E00EA
:1007700000700F0000F0070000E0070000E0070035
:1007800000E00F0000F00E0000703E00007CFC0155
:10079000803FF8FFFF1FE0FFFF0300FE7F00000027
:1007A00000001200FE7F00C0FFFF07F8FFFF1FFCE4
:1007B00001803F3E00007C0E0000700F0000F0073B
:1007C0000000E0070000E0070000E00F0000F00E6E
:1007D0000000703E00007CFC01803FF8FFFF1FE03E
:1007E000FFFF0300FE7F00000000001200FE7F00FC
:1007F000C0FFFF07F8FFFF1FFC01803F3E00007CA9
:100800000E0000700F0000F0070000E0070000E09D
:10081000070000E00F0000F00E0000703E00007CBA
:10082000FC01803FF8FFFF1FE0FFFF0300FE7F0099
:1008300000000000090000000000000000000000AF
:1008400000000000F0000000F0000000F0000000D8
:100850000000000000000000000000000000000098
:100860000000000000000000000000000000000088
:10087000000000000000000000000000001200FE68
:100880007F00C0FFFF07F8FFFF1FFC01803F3E0015
:10089000007C0E0000700F0000F0070000E0070071
:1008A00000E0070000E00F0000F00E0000703E00C6
:1008B000007CFC01803FF8FFFF1FE0FFFF0300FE0C
:1008C0007F00000000001200FE7F00C0FFFF07F85D
:1008D000FFFF1FFC01803F3E00007C0E0000700FF8
:1008E0000000F0070000E0070000E0070000E00F54
:1008F0000000F00E0000703E00007CFC01803FF81C
:10090000FFFF1FE0FFFF0300FE7F0000000000125A
:10091000000000000000000000000000000E0000C9
:100920000007000080030000C0030000E001000099
:10093000F8000000FEFFFFFFFFFFFFFFFFFFFFFFCC
:1009400000000000000000000000000000000000A7
:10095000000000000000000012C00100E0F00100F3
:10096000F8FC0100FE3C0000FF1E0080EF0F00C0FD
:10097000E70700E0E10700F0E0070078E007003C4F
:10098000E007001FE00F800FE01EC007E03EF80305
:10099000E0FCFF00E0F07F00E0C00F00E00000009E
:1009A0000012C0008003F000800FFC00801F3E009A
:1009B000003E1E0000780F0000F007E000E007E0B6
:1009C00000E007E000E007E000E00FF000E00EF8D4
:1009D00001703EFC0378FCBF073EF89FFF1FE00755
:1009E000FE0F0000F80300000000120000F00000FD
:1009F00000FC000000FF0000C0FF0000F0E7000066
:100A0000F8E100007EE000801FE000E007E000F871
:100A100001E0007E00E000FFFFFFFFFFFFFFFFFFA0
:100A2000FFFFFF0000E0000000E0000000E0000029
:100A300000E0001200C0800300FF800FF8FF811F5C
:100A4000FFFF003EFF780078073800F0071C00E049
:100A5000071C00E0071C00E0071C00E0073C00F05A
:100A6000073800700778007C07F0013F07E0FF1FA0
:100A700007C0FF070000FE01000000001200FC7F1D
:100A800000C0FFFF07F0FFFF0FF880073E3CC001EA
:100A9000781EE000700E7000F0077000E007700034
:100AA000E0077000E0077000E00FF000F00EE001DA
:100AB000783EC0073EFC80FF1FF800FF0FE000FCFF
:100AC00001000000001207000000070000000700FE
:100AD000000007000000070000F80700C0FF070043
:100AE000FCFF0780FF0707E03F0007F8070007FE4D
:100AF0000000871F0000E7070000F70100007F00EB
:100B000000001F0000000F000000000000001200A5
:100B100000F803E007FE0FF81FFF1FFCBF0F3E3E6B
:100B2000FC03780EF0017007E000E007E000E0074A
:100B3000E000E007E000E00FE000E00EF001703EB2
:100B4000FC0378FCBF0F3EF81FFF1FE007FE0F00FD
:100B500000F8030000000012C03F0007F0FF001F74
:100B6000F8FF013F7CE0037C1E8007700F000FF050
:100B70000F000EE007000EE007000EE007000EE099
:100B800007000E700E0007781E80033C7CE0811F7A
:100B9000F0FFFF0FE0FFFF0300FE3F00000000003A
:100BA0000500000000000500005F000005000700D0
:100BB000070005147F147F1405242A7F2A120523B9
:100BC00013086462053649562050050807030000E3
:100BD00005001C224100050041221C000514083EAE
:100BE00008140508083E08080500B0700000050854
:100BF00008080808050060600000052010080402CD
:100C0000053E5149453E0500427F40000572494975
:100C10004946052141494D33051814127F10052717
:100C200045454539053C4A494931054121110907E6
:100C300005364949493605464949291E050000142B
:100C4000000005004034000005081422410005148E
:100C50001414141405412214080005020159090650
:100C6000053E415D594E057C1211127C057F4949B4
:100C70004936053E41414122057F4141413E057FC4
:100C800049494949057F09090909053E414151730F
:100C9000057F0808087F0500417F4100052040418D
:100CA0003F01057F08142241057F40404040057FF9
:100CB000020C027F057F0408107F053E4141413E42
:100CC000057F09090906053E4151215E057F091985
:100CD00029460526494949320501017F0101053FA1
:100CE0004040403F051F2040201F053F4038403F07
:100CF000056314081463050304780403056151496E
:100D0000454305007F41410005020408102005000D
:100D100041417F000504020102040540404040407B
:100D200005070B000000052054547840057F284437
:100D3000443805384444442805384444287F05385D
:100D4000545454180500087E09020518A4A49C7880
:100D5000057F080404780500447D400005204040DC
:100D60003D00057F102844000500417F4000057CC0
:100D700004780478057C0804047805384444443831
:100D800005FC182424180518242418FC057C0804E4
:100D900004080548545454240504043F4424053CE5
:100DA0004040207C051C2040201C053C4030403C3D
:100DB000054428102844054C9090907C05446454C8
:100DC0004C4405000836410005000077000005008E
:100DD0004136080005040204080405007F417F0035
:100DE0000000000000000000000000000000000003
:100DF0000000000080C0E0F0F8FCFEFFFFFF0000F4
:100E000000000000000000000000000000000000E2
:100E100000000000000000000000000000000000D2
:100E200000000000000000000000000000000000C2
:100E300000000000000000000000000000000000B2
:100E4000000000000000000080C0E0F0F8FCFEFFA1
:100E5000FFFFFFFFFFFFFFFFFFFFC0C0C0C0C0C01C
:100E6000C0C0C0C0C0C0C0C0C0C0C0C0C0C0C0C082
:100E7000C0C0C0C0C0C0C0C0C0C0C0C0C0C0C0C072
:100E8000C0C0C0C0C0C0C0C0C0C0C0C0C0C0C0C062
:100E9000C0C0C0C0C0C0C0C00000000080C0E0F042
:100EA000F8FCFEFFFFFFFFFFFFFFFFFFFFFFFFFF5D
:100EB000FFFFFFFFFFFFFFFFFFFFFFFFFFFFFFFF42
:100EC000FFFFFFFFFFFFFFFFFFFFFFFFFFFFFFFF32
:100ED000FFFFFFFFFFFFFFFFFFFFFFFFFFFFFFFF22
:100EE000FFFFFFFFFFFFFFFFFFFFFFFFFFFFFFFF12
:100EF000FFFFFFFF081C3E7FFFFFFFFFFFFFFFFF1D
:100F0000FFFFFFFFFFFFFFFFFFFFFFFFFFFFFFFFF1
:100F1000FFFFFFFFFFFFFFFFFFFFFFFFFFFFFFFFE1
:100F2000FFFFFFFFFFFFFFFFFFFFFFFFFFFFFFFFD1
:100F3000FFFFFFFFFFFFFFFFFFFFFFFFFFFFFFFFC1
:100F4000FFFFFFFFFFFFFFFFFFFFFFFFFFFFFFFFB1
:100F500000000000000103070F1F3F7FFFFFFFFF9E
:100F6000FFFFFFFFFFFFFFFFFFFFFFFFFFFFFFFF91
:100F7000FFFFFFFFFFFFFFFFFFFFFFFFFFFFFFFF81
:100F8000FFFFFFFFFFFFFFFFFFFFFFFFFFFFFFFF71
:100F9000FFFFFFFFFFFFFFFFFFFFFFFFFFFFFFFF61
:100FA000FFFFFFFFFFFFFFFFFFFFFFFF000000004D
:100FB0000000000000000000000103070F1F3F7F3A
:100FC000FFFFFFFFFFFFFFFFFFFF01010101010125
:100FD0000101010101010101010101010101010101
:100FE00001010101010101010101010101010101F1
:100FF00001010101010101010101010101010101E1
:1010000001010101010101010000000000000000D8
:1010100000000000000000000000000000010307C5
:101020000F1F3F7F7F7F00000000000000000000D6
:1010300000000000000000000000000000000000B0
:1010400000000000000000000000000000000000A0
:101050000000000000000000000000000000000090
:101060000000000000000000000000000000000080
:101070000000000000000000000000000000000070
:101080000000000000000000000000000000000060
:101090000000000000000000000000000000000050
:1010A0000000FFFFFFFEFCF8F0E0C0800000000041
:1010B0000000000000000000000000000000000030
:1010C000C0C0C0C0C0C0C0C0C0C0C0C0C0C0C0C020
:1010D000C0C0C0C0C0C0C0C0C0C0C0C0C0C0C0C010
:1010E000C0C0C0C0C0C0C0C0C0C0C0C0C0C0C0C000
:1010F000C0C0C0C0C0C0C0C0C0C0C0C0C0C0FFFF72
:10110000FFFFFFFFFFFFFFFFFFFEFCF8F0E0C080E6
:10111000000000000000000000000000FFFFFFFFD3
:10112000FFFFFFFFFFFFFFFFFFFFFFFFFFFFFFFFCF
:10113000FFFFFFFFFFFFFFFFFFFFFFFFFFFFFFFFBF
:10114000FFFFFFFFFFFFFFFFFFFFFFFFFFFFFFFFAF
:10115000FFFFFFFFFFFFFFFFFFFFFFFFFFFFFFFF9F
:10116000FFFFFFFFFFFFFFFFFFFFFFFFFFFEFCF89A
:10117000F0E0C08000000000FFFFFFFFFFFFFFFF67
:10118000FFFFFFFFFFFFFFFFFFFFFFFFFFFFFFFF6F
:10119000FFFFFFFFFFFFFFFFFFFFFFFFFFFFFFFF5F
:1011A000FFFFFFFFFFFFFFFFFFFFFFFFFFFFFFFF4F
:1011B000FFFFFFFFFFFFFFFFFFFFFFFFFFFFFFFF3F
:1011C000FFFFFFFFFFFFFFFFFFFFFFFFFFFFFFFF2F
:1011D0007F3E1C08FFFFFFFFFFFFFFFFFFFFFFFF3A
:1011E000FFFFFFFFFFFFFFFFFFFFFFFFFFFFFFFF0F
:1011F000FFFFFFFFFFFFFFFFFFFFFFFFFFFFFFFFFF
:10120000FFFFFFFFFFFFFFFFFFFFFFFFFFFFFFFFEE
:10121000FFFFFFFFFFFFFFFFFFFFFFFFFFFFFFFFDE
:10122000FFFFFFFF7F3F1F0F0703010000000000CB
:10123000010101010101010101010101010101019E
:10124000010101010101010101010101010101018E
:10125000010101010101010101010101010101017E
:101260000101010101010101010101010101FFFF72
:10127000FFFFFFFFFFFFFFFF7F3F1F0F070301007F
:10128000000000000000000000000000000000005E
:10129000000000000000000000000000000000004E
:1012A000000000000000000000000000000000003E
:1012B000000000000000000000000000000000002E
:1012C000000000000000000000007F7F7F3F1F0F34
:1012D0000703010000000000000000000000000003
:1012E0000000000000000000008080808084FCFE80
:1012F000FEFEFEFEFEFEFEFC000000000000000000
:10130000000080C0E0F0F8FCFCFEFEFFFFFFFFFFE6
:10131000FFFFFFFFFFFFFFFFFFFFFFFEFEFCFCF8EC
:10132000F0E0C08000000000000000000000FCFEB3
:10133000FEFEFEFEFEFEFEFC8080808080001F3FE1
:101340003F3F3F3F7FFFFFFFFFFFFFFFFFF9F0E061
:10135000C0800000000000FEFFFFFFFFFFFFFFFF57
:10136000FFFFFFFFFFFFFFFFFFFFFFFFFFFFFFFF8D
:10137000FFFFFFFFFFFFFFFFFFFFFE000000000079
:1013800080C0E0F0F9FFFFFFFFFFFFFFFF7F3F3F5F
:101390003F3F3F1F00000000000000000103070F57
:1013A0001F3F7F7F7F7F7F7F7F7E0000007FFFFF6B
:1013B000FFFFFF3F1F1F1F1F1F1F1F3FFFFFFFFFDD
:1013C000FFFF3F1F1F1F1F1F1F1F3FFFFFFFFFFFCD
:1013D0007F0000007E7F7F7F7F7F7F7F3F1F0F0723
:1013E00003010000000000000000000000000000F9
:1013F0000000000000000080C0E0F0F0F0F0F0F02D
:10140000F0F000000101FFFFFFF0E0E0E0E0E0E0CD
:10141000E0F00F0F0F0F0F0FF0E0E0E0E0E0E0E092
:10142000F0FFFFFF01010000F0F0F0F0F0F0F0F04D
:10143000E0C080000000000000000000000000008C
:101440000000C0E0E0E0E0E0F0F8FCFEFFFFFFFF9E
:10145000FFFF7F3F1F0F0703000000000303031F70
:101460001F1FFFFFFFFFFFFFFCF8F8F8F8FCFFFF6E
:10147000FFFFFFFF1F1F1F03030300000000030700
:101480000F1F3F7FFFFFFFFFFFFFFEFCF8F0E0E0D4
:10149000E0E0E0C000000000070F0F0F0F0FFFFF9C
:1014A000FFFFFFFFFFFFFFFC000000000000000047
:1014B00000000000003E7E7EF0F0E087878303039B
:1014C00003030303838787E0F0F07E7E3E00000085
:1014D00000000000000000000000FCFFFFFFFFFF15
:1014E000FFFFFFFF0F0F0F0F0F07000000000000AE
:1014F00000000000000101010101010101000000E4
:1015000000000000000000000000000000000001DA
:1015100003070F0F0F0F0F0F0F0F0F0F0703010020
:1015200000000000000000000000000000000000BB
:1015300000010101010101010100000000000000A3
:10154000000011241FBECFE5D8E0DEBFCDBF12E002
:10155000A0E6B0E0E4EDF2E502C005900D92A83AF5
:10156000B107D9F727E0A8EAB2E001C01D92A43084
:10157000B207E1F70E94D5170C9468290C9400007B
:101580002F923F920F931F93CF93DF93D101139626
:101590008C911397815012968C93129788237CF12B
:1015A0000D911C911197E0E0F0E0682F082E000CDF
:1015B000770B9801260F371FE9012881022E000CB6
:1015C000330B1616170694F490E0A901440F551F2B
:1015D000220F331F220F331F220F331F240F351FFB
:1015E0009F5F492F50E0461757077CF3E20FF31F28
:1015F000815012968C9312978823BCF602C0E0E0CB
:10160000F0E0CF01DF91CF911F910F913F902F908C
:1016100008952F923F928F929F92AF92BF92CF9256
:10162000DF92EF92FF920F931F93CF93DF93E1012D
:1016300020E048E065E080EA9BE00E94862169E2C4
:1016400086E00E94151D86E690E00E941C2363E35D
:1016500086E00E94151D8BE690E00E941C234885C1
:10166000442309F44DC050E014161506CCF480E074
:1016700001E010E09801220F331F6801CC0CDD1C43
:10168000CC0CDD1CCC0CDD1C89010C0D1D1D8F5FED
:10169000282F082E000C330B241735075CF302C0EB
:1016A00001E010E069E28EE10E94151D6801E12C65
:1016B000F12CC701B6010E9463264B015C016E81CB
:1016C0007F8180E090E00E946326A50194010E9442
:1016D000BB25A70196010E94B52463E38EE10E9419
:1016E000151D6C817D8180E090E00E946326A5013C
:1016F00094010E94BB25A70196010E94B52414C045
:1017000069E28EE10E94151D6E817F8180E090E08C
:101710000E94502363E38EE10E94151D6C817D8140
:1017200080E090E00E94502320E041E16CE084E7FB
:1017300090E00E948621DF91CF911F910F91FF9041
:10174000EF90DF90CF90BF90AF909F908F903F90A1
:101750002F9008958AEF8093E50286E08093EE0251
:1017600080E090E0A0E8BFE38093E6029093E70278
:10177000A093E802B093E90283E393E3A3E3BFE31A
:101780008093F2029093F302A093F402B093F502D7
:1017900083E393E3A3EABFE38093DF029093E00245
:1017A000A093E102B093E2028FEF93E09093F102F5
:1017B0008093F00280E890E09093EC028093EB023B
:1017C0008EEB8093EA0286E98093ED0280E690E05A
:1017D0009093E4028093E30282E08093EF02089505
:1017E0009091B302992381F09091D6029F5F9093DC
:1017F000D6022091D4023091D5022F5F3F4F309313
:10180000D5022093D4020FC09091D60291509093AC
:10181000D6022091D4023091D50221503109309363
:10182000D5022093D4029091D602992324F497E014
:101830009093D60206C09091D602983014F0109280
:10184000D6029BB3907F823051F4E091D6020E2EE7
:10185000000CFF0BE856FD4F8081982B0BC08130A8
:1018600049F4E091D6020E2E000CFF0BE056FD4F1E
:101870008081982B9BBB08951F920F920FB60F92F9
:1018800011242F933F934F935F936F937F938F9385
:101890009F93AF93BF93EF93FF938091EF020E94CA
:1018A000F00B2091D4023091D5028091BA02909130
:1018B000BB022817390739F41092D70289B78D7FF8
:1018C00089BF13BE1CBEFF91EF91BF91AF919F9155
:1018D0008F917F916F915F914F913F912F910F90D9
:1018E0000FBE0F901F9018951F920F920FB60F9278
:1018F00011248F939F938091DD029091DE020196D7
:101900009093DE028093DD029F918F910F900FBE26
:101910000F901F9018951F920F920FB60F921124DF
:101920008F939F938091B902882349F08091B102EF
:101930009091B20201969093B2028093B1029F916E
:101940008F910F900FBE0F901F9018951F920F92BE
:101950000FB60F9211248F939F938091B802882322
:10196000D1F084B58093DA0214BC8091DD029091AD
:10197000DE029093DC028093DB021092DE02109272
:10198000DD028091D8029091D90201969093D902FC
:101990008093D80207C014BC89B7806889BF81E0F2
:1019A0008093B8029F918F910F900FBE0F901F9060
:1019B0001895CF92DF92EF92FF920F93CF93DF9320
:1019C0008091B9028111E6C00E94A6200FEF27E1A5
:1019D00041E26BE08AE00E942C2024E143E26EE0C9
:1019E00082E20E942C204091B5025091B602EEE8AE
:1019F000F2E028E932E0C0E0819190E04817590711
:101A00000CF0C65FE217F307B9F7CC2379F04DEC81
:101A1000C49F412D1124469546954695440F455F38
:101A20000FEF25E16DE08CE00E94AA206EE08BE4D0
:101A30000E94151D20E048E065E080EA9BE00E94DE
:101A400086216091B5027091B602072E000C880BBA
:101A5000990B0E94652620E030E040E251E40E94AC
:101A6000BB252AE030E040E050E00E94B52480E74A
:101A700090E00E941C236EE089E20E94151D6C2FED
:101A800070E080E090E00E94502382E790E00E94A6
:101A90001C2320E040E262E186E394E00E9486217C
:101AA0006FE184E00E94151D6091AD027091AE025D
:101AB0008091AF029091B00224E630E040E050E027
:101AC0000E94AF272115310541055105D9F0C0E02D
:101AD0000F2EFAE0CF2ED12CE12CF12CF02DCA01E3
:101AE000B901A70196010E94AF27CF5F21153105EB
:101AF00041055105A1F7C2303CF0D6E0DC1B1D16B4
:101B000024F00BC0D4E001C0D4E0C0E084E790E052
:101B10000E941C23CF5FCD17CCF36091AD02709172
:101B2000AE028091AF029091B00228EE33E040E027
:101B300050E00E94AF27CA01B9010E945023809152
:101B4000AD029091AE02A091AF02B091B0028115AA
:101B5000914EA54FB540E0F48CE892E00E941C2322
:101B60006091AD027091AE028091AF029091B0028F
:101B700028EE33E040E050E00E94AF2724E630E05A
:101B800040E050E00E94AF27CA01B9010E945023F3
:101B90000E94D51CDF91CF910F91FF90EF90DF90C5
:101BA000CF9008952091BC023091BD024091BE02B9
:101BB0005091BF026091C0027091C1028091C20237
:101BC0009091C3020E94BB250E9434267093BB02F1
:101BD0006093BA022091D4023091D502C901861BCC
:101BE000970B99F01AF01092B30203C081E0809332
:101BF000B30281E08093D70283B78D6083BF809169
:101C0000ED028CBF89B7826089BF0895B59B04C07F
:101C1000B69B02C0B79929C0B5990BC02FEF80E7DA
:101C200092E0215080409040E1F700C00000B59B59
:101C30001EC0B6990BC02FEF80E792E02150804084
:101C40009040E1F700C00000B69B13C0B79913C0E5
:101C50002FEF80E792E0215080409040E1F700C0F4
:101C60000000B79B0AC080E0089580E0089581E0FD
:101C7000089582E0089580E0089583E00895EF924A
:101C8000FF920F931F93CF93DF937C01062FEA01FE
:101C9000122F0E94A62082E00E94801D802F0E94A9
:101CA000091DC7010E941C2384E00E94801D812F12
:101CB0000E94091DCE010E941C2386E00E94801D07
:101CC0008CE10E94091D86E790E00E941C2384E5B8
:101CD0000E94091D89E790E00E941C230FEF29E371
:101CE0004EE26DE284E10E942C200E94D51C0E94ED
:101CF000060E8111FCCFC0E011E0DBE30F2EF9E608
:101D0000EF2EF02D0F2EF4E1FF2EF02D0E94060E87
:101D10009EEF980F9230F8F4C127CD9F802D1124AB
:101D20004EE2480F0FEF29E36DE28C5E0E942C20FB
:101D3000CC2319F04EE28F2D02C04E2D8FE400E02F
:101D400029E36DE20E942C200E94D51C0E94060E01
:101D50008111FCCFDBCF8130C9F68C2FDF91CF9181
:101D60001F910F91FF90EF9008951092D50210925D
:101D7000D4021092D6024091EF022091E3023091FA
:101D8000E402429FC001439F900D112496958795D0
:101D9000969587959093BB028093BA0281E08093D9
:101DA000B3028093D70283B78D6083BF8091ED0229
:101DB0008CBF89B7826089BF8091D7028111FCCF27
:101DC0002FEF82E597E0215080409040E1F700C07E
:101DD00000004091EF022091E3023091E402429F23
:101DE000C001439F900D11249093D5028093D4029B
:101DF0001092BB021092BA021092B30281E080935B
:101E0000D70283B78D6083BF8091ED028CBF89B705
:101E1000826089BF8091D7028111FCCF1092D502D8
:101E20001092D4021092BB021092BA0281E0809309
:101E3000AC020895882381F00E94A62067E086E125
:101E40000E94151D2FEF47E36CE584E690E10E94A8
:101E5000C81E0E94D51C08950E94A62067E086E156
:101E60000E94151D2FEF47E36CE580EE9DE00E9478
:101E7000C81E0E94D51C08950E94A62067E08BE131
:101E80000E94151D2FEF44E366E588EE92E10E9463
:101E9000C81E0E94D51C0895B4990DC0B39B0BC0F9
:101EA00080E00E941A0F81E08093B9021092B20282
:101EB0001092B10221C0B3990DC0B49B0BC081E058
:101EC0000E941A0F81E08093B9021092B202109220
:101ED000B10212C0B4990CC0B3990AC00E943C0F61
:101EE00081E08093B9021092B2021092B10204C054
:101EF0008091B9028823E9F0B39B09C0B49B07C065
:101F00000E94A6200E94D51C89B7846089BF809159
:101F1000B1029091B2028D32914058F01092B90204
:101F20001092B2021092B10289B78B7F89BF0E94D2
:101F3000D90C089587B9E62FF0E01E161F068CF421
:101F400020E030E080E090E0369A3699FECF44B150
:101F500055B1840F951F2F5F3F4F2E173F07A1F7F5
:101F600002C080E090E070E00E948727CB010895D6
:101F70000F931F936AE084E00E949A0FBC0180E0F7
:101F800090E00E9463262AE939E94CEC52E40E9471
:101F9000BB2520E030E040E250E40E941A2720E018
:101FA00030E040EC50E40E941A270E942D267093E6
:101FB000A9026093A80264367105ECF58091B7021E
:101FC000811139C0DB9AD89A1BBC1ABC19BC18BC49
:101FD0000E94A6200E94D51C6AE084E00E949A0F0D
:101FE000BC0180E090E00E9463262AE939E94CECCC
:101FF00052E40E94BB2520E030E040E250E40E9421
:102000001A2720E030E040EC50E40E941A2720E03C
:1020100030E048EC52E40E94B6258823ECF280912F
:10202000F0029091F1029BBD8ABD8091EB029091EC
:10203000EC0299BD88BD8091A8029091A9022091DF
:10204000B5023091B6028217930751F09093B60211
:102050008093B5028091B702811102C00E94D90C11
:102060006091D8027091D90280E090E00E946326CE
:102070002091C4023091C5024091C6025091C7021E
:102080000E941A270E943426643671058105910545
:1020900000F10091AD021091AE022091AF0230919B
:1020A000B002DC01CB01800F911FA21FB31F8093F0
:1020B000AD029093AE02A093AF02B093B002109223
:1020C000D9021092D8028091B702811102C00E94F9
:1020D000D90C1F910F9108958F929F92AF92BF924A
:1020E000EF92FF921F93CF93DF93EC01E62E4130E6
:1020F00009F06AC060E00E941B29F12CCE0DDF1DA3
:102100006091F0027091F102CE010E943829CE0D4B
:10211000DF1D6091EB027091EC02CE010E94382924
:10212000CE0DDF1D6091EA02CE010E941B29CE0D6B
:10213000DF1D6091ED02CE010E941B29CE0DDF1D37
:102140006091E3027091E402CE010E943829CE0D25
:10215000DF1D6091E502CE010E941B29CE0DDF1D1F
:102160006091EE02CE010E941B29CE0DDF1D609111
:10217000EF02CE010E941B29CE0DDF1D4091F2021D
:102180005091F3026091F4027091F502CE010E9429
:102190002C29CE0DDF1D4091E6025091E70260919F
:1021A000E8027091E902CE010E942C294091DF02E1
:1021B0005091E0026091E1027091E202C7018C0F40
:1021C0009D1F0E942C295DC1411110C1E62EF12CEA
:1021D000CE0DDF1DCE010E941529811524E0920746
:1021E00028F49093F1028093F00206C08FEF93E001
:1021F0009093F1028093F002CE0DDF1DCE010E947C
:102200001529811534E0930728F49093EC0280930C
:10221000EB0206C080E890E09093EC028093EB0222
:10222000CE0DDF1DCE010E940729843118F0809366
:10223000EA0203C08EEB8093EA02CE0DDF1DCE01D1
:102240000E940729823318F08093ED0203C086E9CB
:102250008093ED02CE0DDF1DCE010E9415299C0159
:10226000205131092138314028F49093E4028093C1
:10227000E30206C080E690E09093E4028093E302DC
:10228000CE0DDF1DCE010E940729823318F0809306
:10229000E50203C08AEF8093E502CE0DDF1DCE017B
:1022A0000E9407299FEF980F903118F48093EE0257
:1022B00003C086E08093EE02CE0DDF1DCE010E94AA
:1022C00007299FEF980F923018F48093EF0203C014
:1022D00082E08093EF02CE0DDF1DCE010E940F2918
:1022E0004B015C0120E030E040E050E40E94152703
:1022F00018169CF02DEC3CEC4CEC5DE3C501B401F0
:102300000E94B62588234CF08092F2029092F3024C
:10231000A092F402B092F5020CC083E393E3A3E32E
:10232000BFE38093F2029093F302A093F402B09380
:10233000F502CE0DDF1DCE010E940F294B015C017D
:1023400020E030E040E85FE30E94152718169CF07B
:102350002DEC3CEC4CEC5DE3C501B4010E94B625CC
:1023600088234CF08092E6029092E702A092E80265
:10237000B092E9020CC080E090E0A0E8BFE3809357
:10238000E6029093E702A093E802B093E902C70146
:102390008C0F9D1F0E940F294B015C0120E030E053
:1023A00040EA50E40E94152718169CF02DEC3CECF6
:1023B0004CEC5DE3C501B4010E94B62588234CF0C6
:1023C0008092DF029092E002A092E102B092E202DB
:1023D00058C083E393E3A3EABFE38093DF029093C3
:1023E000E002A093E102B093E2024BC0423059F503
:1023F0001092B402E62EF12C11E003C0CE0DDF1DC9
:102400001F5FCE010E940F298090AD029090AE0216
:10241000A090AF02B090B00286169706A806B90643
:1024200078F46093AD027093AE028093AF02909304
:10243000B0021093B402143608F31092B40221C013
:102440001436E0F21EC04330E1F44091AD025091E9
:10245000AE026091AF027091B0028091B4029E0111
:102460008E9D200D311D1124C9010E943E298091AD
:10247000B4028F5F843618F48093B40202C01092C5
:10248000B402DF91CF911F91FF90EF90BF90AF907A
:102490009F908F900895CF92DF92EF92FF92CF930B
:1024A000D09AD19AD29AD39A8C9A8D9ADB9AD89A4A
:1024B000C59AC69AC79A379A309A319A329A88E062
:1024C00090E00E940729882389F00E94AA0B41E02E
:1024D00064E088E090E00E946C10C4E643E064E0B1
:1024E00080E890E00E946C10C150C1F740E064E0C9
:1024F00088E090E00E946C1042E064E080E890E0A8
:102500000E946C1085B58E6085BD8EEF83BD83EA19
:102510008FBD8BE08EBD8091F0029091F1029BBD4A
:102520008ABD8091EB029091EC0299BD88BD20910B
:10253000F2023091F3024091F4025091F502609161
:10254000E6027091E7028091E8029091E9020E9410
:102550001A272BED3FE049E450E40E941A276B0153
:102560007C016091EE0270E080E090E00E946526C0
:102570009B01AC01C701B6010E94BB256093C40258
:102580007093C5028093C6029093C7028DEB97E3C8
:10259000A6E8B7E38093C8029093C902A093CA0249
:1025A000B093CB022091EF028091E3029091E4027C
:1025B000289FB001299F700D112480E090E00E94B7
:1025C00063269B01AC0160E070E084EB93E40E9421
:1025D000BB252091DF023091E0024091E102509151
:1025E000E2020E94BB256093BC027093BD028093FF
:1025F000BE029093BF020E941E1D0E94A6208091E1
:10260000E5020E94FF1C0E94D51C78948091AC02C8
:10261000811102C00E94B50E85B7886085BF8BB757
:1026200080688BBFCF91FF90EF90DF90CF9008959F
:10263000CF92DF92EF92FF92CF93DF93C091EE02A1
:10264000D0E02091DB023091DC02E091DD02F091DC
:10265000DE028CE390E0BE010E949B27260F371F0D
:102660002E173F0788F42091DD023091DE02AFEF94
:10267000B0E00E94D7276093D0027093D10280937C
:10268000D2029093D30218C02091DB023091DC0279
:102690004091DA02AFEFB0E00E94D727DC01CB0116
:1026A000840F911DA11DB11D8093D0029093D10282
:1026B000A093D202B093D3026091D0027091D10264
:1026C0008091D2029091D302611571058105910527
:1026D000A1F10E9463262091C8023091C902409165
:1026E000CA025091CB020E941A279B01AC0160E004
:1026F00070E080E89FE30E94BB256093CC0270935A
:10270000CD028093CE029093CF022091C4023091EB
:10271000C5024091C6025091C7020E941A2726E6C0
:1027200036E646E650E40E941A276093C002709392
:10273000C1028093C2029093C3022091DD023091C6
:10274000DE028CED95E0BE010E949B2762177307A5
:1027500008F062C089B78F7789BF14BC1092DE027F
:102760001092DD021092DC021092DB021092D00275
:102770001092D1021092D2021092D3021092C00293
:102780001092C1021092C2021092C3021092B802BB
:102790001092CC021092CD021092CE021092CF0273
:1027A0001092DA026091D8027091D90280E090E034
:1027B0000E9463262091C4023091C5024091C60256
:1027C0005091C7020E941A276B017C016091AD02F3
:1027D0007091AE028091AF029091B0020E94632688
:1027E0009B01AC01C701B6010E944A250E94342614
:1027F0006093AD027093AE028093AF029093B002EB
:102800001092D9021092D802F89443E064E080E874
:1028100090E00E946C107894C091EA026C2F70E0F6
:1028200080E090E00E9465262091C0023091C102B4
:102830004091C2025091C3020E94B625882374F4CD
:102840006C2F70E080E090E00E9463266093C002ED
:102850007093C1028093C2029093C302DF91CF9123
:10286000FF90EF90DF90CF9008952F923F926F925C
:102870007F928F929F92AF92BF92CF92DF92EF9210
:10288000FF920F931F93CF93DF93CDB7DEB72997B6
:102890000FB6F894DEBF0FBECDBF7A019E838D8345
:1028A00078876F8329870E94A62020E048E065E0B2
:1028B00080EA9BE00E94862181E00E94801D8AE0E0
:1028C0000E94091DC8010E941C2368E18AE50E943C
:1028D000151D8DE790E00E941C2364E28AE50E94AA
:1028E000151D82E890E00E941C2360E38AE50E94A7
:1028F000151D87E890E00E941C239E2CAF2C7724A6
:1029000073940F2EFDE06F2EF02D0F2EF3EFBF2EE0
:10291000F02D0F2EF9E08F2EF02DE114F10499F037
:10292000292D3A2D00E0ADECBCEC0E94D7279C018C
:102930003695279536952795369527950F5F21155E
:10294000310589F701C000E02D813E811C822115EF
:10295000310509F4CDC1C72C01C0C82EADECBCECCB
:102960000E94D7279C013695279536952795369551
:10297000279581E08C0D2115310579F7CC82D12C7A
:10298000C6010E94E6279A8389831B821C141D04BA
:102990000CF04CC0E92DFA2D60E070E080E0402F93
:1029A00050E06417750774F5C980DA80C80ED11C31
:1029B00087FDDA949F01ADECBCEC0E94D727969579
:1029C000879596958795969587959C01220F331F3D
:1029D000880F991F880F991F880F991F820F931FC7
:1029E0009F01281B390BD6012C939F01ADECBCEC49
:1029F0000E94D727FC01F695E795F695E795F695A1
:102A0000E79507C0A981BA81A80FB11D87FDBA95C6
:102A10001C928B818F5F8B83682F082E000C770BA5
:102A20002C8130E0621773070CF4BBCF64E185E0C2
:102A30000E94151D20E041E16CE084E790E00E94D7
:102A400086218C810FEF080F069D002D11240B5F4E
:102A500081508B83882324F1E981FA81E80FF11DED
:102A600087FDFA956081062E000C770B880B990B79
:102A70000E94502329858B81082E000C990B422F30
:102A800050E08417950739F4222329F08CE892E06E
:102A90000E941C230B5F8B8181508B838823E4F67B
:102AA0004CE0400F24E264E1802F0E94AF209E01A1
:102AB0002F5F3F4F19010E94090B0E94D51C0E94F5
:102AC000060E8111FCCFD12C0E94060E882309F43A
:102AD00003C1813009F085C0D3942D2D0D2C000C3D
:102AE000330B8C8190E02817390709F0A5C0CE017F
:102AF00001961C010E94C00A2D813E8128173907CA
:102B000008F40BCF2F8138858217930708F405CF7F
:102B100024E241E164E185E00E94AF200E94060EBC
:102B20008111FCCF10E00E94060E833021F4115079
:102B30006AF512E02BC0823029F41F5F133034F1A4
:102B400010E024C0813011F5111115C000E021E220
:102B500044E765E186E50E942C202DE244E761E22E
:102B600086E50E942C2029E344E76DE286E50E9479
:102B70002C20D12C61C0113009F4B7C0123031F4CF
:102B8000DE0111961D010E94C00ABAC000E021E2D8
:102B900044E765E186E50E942C202DE244E761E2EE
:102BA00086E50E942C2029E344E76DE286E50E9439
:102BB0002C20612F660F610F660F660F21E2260F32
:102BC0006B5E0FEF44E786E50E942C200E94D51C27
:102BD0000E94060E8111FCCF0E94060E8823E1F3AD
:102BE000A2CF8330A1F4E981FA818D2D0D2C000C48
:102BF000990BE80FF91F20812F5F2083E981FA816B
:102C0000E80FF91F80818A30BCF0108215C0823035
:102C100099F4E981FA818D2D0D2C000C990BE80FA8
:102C2000F91F208121502083E981FA81E80FF91FE3
:102C3000808188230CF4808264E185E00E94151D68
:102C40008C8181508B83882314F1E981FA81E80F0C
:102C5000F11D87FDFA956081062E000C770B880B1D
:102C6000990B0E9450238985882361F02B81022EC5
:102C7000000C330B90E02817390721F48CE892E020
:102C80000E941C238B8181508B838823F4F68C81D6
:102C90008150DB9C902D1124869D900D112485E0A0
:102CA000890F2985222351F030E04D2D0D2C000C89
:102CB000550B4217530714F48AE0890F4CE0480F74
:102CC00024E264E10E94AF209E012F5F3F4F190173
:102CD0000E94090B0E94D51C0E94060E8111FCCF98
:102CE0000E94060E8823E1F3EFCE8E2D9F2D08C0A3
:102CF00080E090E00E94E6279A8389831B8296CE2B
:102D000029960FB6F894DEBF0FBECDBFDF91CF91ED
:102D10001F910F91FF90EF90DF90CF90BF90AF90F9
:102D20009F908F907F906F903F902F900895CF93BA
:102D30000E94A62020E048E065E080EA9BE00E9437
:102D4000862180E00E94801D84E00E94091D8CE89D
:102D500090E00E941C238AE10E94091D6091C0023C
:102D60007091C1028091C2029091C3022AE030E0CA
:102D700040E050E00E94B5248CE30E94091D80E9E8
:102D800090E00E941C2386E50E94091D6091B50217
:102D90007091B602072E000C880B990B0E946526D5
:102DA00020E030E040E251E40E94BB2524E630E020
:102DB00040E050E00E94B52481E00E94801D84E044
:102DC0000E94091D84E990E00E941C238AE10E9470
:102DD000091D6091CC027091CD028091CE0290913C
:102DE000CF022AE030E040E050E00E94B5248CE3BE
:102DF0000E94091D88E990E00E941C2386E50E943C
:102E0000091D6091D0027091D1028091D2029091FF
:102E1000D3020E94502382E00E94801D84E00E9421
:102E2000091D8CE990E00E941C238AE10E94091D83
:102E30006091D4027091D502072E000C880B990B7B
:102E40000E9450238CE30E94091D80EA90E00E94BA
:102E50001C2386E50E94091D6091DD027091DE024F
:102E600080E090E00E94502383E00E94801D84E077
:102E70000E94091D84EA90E00E941C238AE10E94BE
:102E8000091D6091BA027091BB0280E090E00E943F
:102E900050238CE30E94091D88EA90E00E941C23C5
:102EA00086E50E94091D6091DB027091DC0280E0E2
:102EB00090E00E94502384E00E94801D84E00E94E4
:102EC000091D8CEA90E00E941C238AE10E94091DE2
:102ED0006091D602062E000C770B880B990B0E948E
:102EE00050238CE30E94091D80EB90E00E941C237C
:102EF00086E50E94091D84EB90E00E941C2366B3C6
:102F0000669566956695C1E06C27862F90E0A0E0F7
:102F1000B0E0BC01CD0161707727882799270E9416
:102F2000502386EB90E00E941C2366B362956F707D
:102F30006C27862F90E0A0E0B0E0BC01CD0161706D
:102F40007727882799270E94502385E00E94801DBB
:102F500084E00E94091D89EB90E00E941C238AE115
:102F60000E94091D6091D8027091D90280E090E022
:102F70000E94502386E00E94801D84E00E94091D6B
:102F80008DEB90E00E941C238AE10E94091D609154
:102F9000AD027091AE028091AF029091B0020E949A
:102FA00050230E94D51CCF9108950E944B1280910E
:102FB000B702811102C00E94D90C0E94B80F0E9472
:102FC00018130E94D20D8091B702811103C00E9494
:102FD0004C0F02C00E9497160E94060E813069F7BE
:102FE0000E94F317EACF8091AB02863054F08091B3
:102FF000AA028F5F8093AA021092AB028230D9F4AA
:1030000024C088235CF48091AA0281508093AA0294
:1030100095E09093AB02823071F408C08091AA02CF
:10302000823049F48091AB0284307CF01092AA0285
:103030001092AB020AC08091AA02882334F482E085
:103040008093AA0283E08093AB020E94A62020E036
:1030500048E065E080EA9BE00E9486218091AA0218
:10306000811189C08AE00E94091D81E00E94801DB3
:1030700081EC90E00E941C238BE50E94091D609169
:10308000EB027091EC0280E090E00E9450238AE015
:103090000E94091D82E00E94801D8CEC90E00E943D
:1030A0001C238BE50E94091D6091F0027091F102D2
:1030B00080E090E00E9450238AE00E94091D83E096
:1030C0000E94801D87ED90E00E941C238BE50E94EA
:1030D000091D6091F2027091F3028091F4029091C7
:1030E000F50228EE33E040E050E00E94B5248AE08B
:1030F0000E94091D84E00E94801D83EE90E00E94E2
:103100001C238BE50E94091D6091E6027091E70285
:103110008091E8029091E90228EE33E040E050E02F
:103120000E94B5248AE00E94091D85E00E94801D4E
:103130008EEE90E00E941C238BE50E94091D609199
:10314000EE0270E080E090E00E9450238AE00E944E
:10315000091D86E00E94801D86EF90E00E941C23DE
:103160008BE50E94091D6091EF0270E080E090E025
:103170000E945023B3C0813009F083C08AE00E94CE
:10318000091D81E00E94801D80E091E00E941C23C7
:103190008BE50E94091D6091EA0270E080E090E0FA
:1031A0000E9450238AE00E94091D82E00E94801D37
:1031B0008AE091E00E941C238BE50E94091D60912A
:1031C000DF027091E0028091E1029091E20228EE2C
:1031D00033E040E050E00E94B5248AE00E94091DDF
:1031E00083E00E94801D88E191E00E941C238BE512
:1031F0000E94091D6091E3027091E40280E090E07A
:103200000E9450238AE00E94091D84E00E94801DD4
:1032100084E291E00E941C238BE50E94091D6091CD
:10322000ED0270E080E090E00E9450238AE00E946E
:10323000091D85E00E94801D82E391E00E941C230D
:103240008BE50E94091D6091E50270E080E090E04E
:103250000E9450238AE00E94091D86E00E94801D82
:103260008091B702882329F08FE391E00E941C230C
:1032700004C08BE491E00E941C238BE50E94091D91
:103280002DC0823059F58AE00E94091D81E00E941C
:10329000801D86E591E00E941C238BE50E94091D9C
:1032A0008AE00E94091D82E00E94801D85E691E06F
:1032B0000E941C238AE00E94091D83E00E94801D59
:1032C00084E791E00E941C238AE00E94091D84E0AB
:1032D0000E94801D82E890E00E941C236091AB0256
:1032E000660F660F660F2FE0260F695F4FE780E0DD
:1032F0000E94AF200E94D51C0E94060E8111FCCFB7
:103300000E94060E8823E1F3813009F0BCC280914F
:10331000AA02082E000C990BFC01EE0FFF1FE80F0C
:10332000F91FEE0FFF1F8091AB02E80FF11D87FD23
:10333000FA95E031F10508F0B5C2E65DFF4F0C9457
:10334000D1274091EB025091EC0202E811E020E01D
:1033500060E070E08FEF93E00E9435142091EB0263
:103360003091EC028217930709F49CC29093EC020F
:103370008093EB0241E064E088E090E00E946C10F2
:103380008091EB029091EC0299BD88BD8BC2409177
:10339000F0025091F10201E911E020E060E070E0FC
:1033A0008FEF93E00E9435142091F0023091F102EA
:1033B0008217930709F476C29093F1028093F0028A
:1033C00041E064E088E090E00E946C108091F0029F
:1033D0009091F1029BBD8ABD65C220E030E04AE7D2
:1033E00054E46091F2027091F3028091F4029091A2
:1033F000F5020E941A270E94342600EA11E023E019
:10340000AB0164E670E080ED97E00E943514BC01EA
:1034100080E090E00E9463266B017C0120E030E0B8
:103420004AE754E46091F2027091F3028091F40251
:103430009091F5020E941A279B01AC01C701B601C9
:103440000E94B625882309F42DC220E030E04AE727
:1034500054E4C701B6010E94BB256093F202709349
:10346000F3028093F4029093F50241E064E088E077
:1034700090E00E946C1016C220E030E04AE754E46D
:103480006091E6027091E7028091E8029091E90272
:103490000E941A270E94342603EE10E023E0AB01BD
:1034A00064E670E088EE93E00E943514BC0180E091
:1034B00090E00E9463266B017C0120E030E04AE747
:1034C00054E46091E6027091E7028091E8029091E5
:1034D000E9020E941A279B01AC01C701B6010E94B4
:1034E000B625882309F4DEC120E030E04AE754E441
:1034F000C701B6010E94BB256093E6027093E70204
:103500008093E8029093E90241E064E088E090E073
:103510000E946C10C7C14091EE0250E003EB11E035
:1035200020E061E070E080E190E00E94351420919D
:10353000EE0230E08217930709F4B4C18093EE02E3
:1035400041E064E088E090E00E946C10ABC14091E3
:10355000EF0250E004EC11E020E061E070E082E076
:1035600090E00E9435142091EF0230E0821793071B
:1035700009F498C18093EF0241E064E088E090E0B4
:103580000E946C108FC14091EA0250E003ED11E0FF
:1035900020E064E170E08FEF90E00E94351420910C
:1035A000EA0230E08217930709F47CC18093EA02B3
:1035B00041E064E088E090E00E946C1073C120E07C
:1035C00030E04AE754E46091DF027091E0028091BC
:1035D000E1029091E2020E941A270E94342601EE35
:1035E00011E023E0AB0164E670E088E893E10E941B
:1035F0003514BC0180E090E00E9463266B017C01E1
:1036000020E030E04AE754E46091DF027091E0028C
:103610008091E1029091E2020E941A279B01AC0185
:10362000C701B6010E94B625882309F43BC120E0FA
:1036300030E04AE754E4C701B6010E94BB2560931D
:10364000DF027093E0028093E1029093E20241E096
:1036500064E088E090E00E946C1024C14091E30295
:103660005091E40202EF11E020E060E170E080E9B7
:1036700091E00E9435142091E3023091E402821718
:10368000930709F40FC19093E4028093E30241E0B1
:1036900064E088E090E00E946C1004C14091ED026B
:1036A00050E006E012E020E062E370E08FEF90E08F
:1036B0000E9435142091ED0230E08217930709F43F
:1036C000F1C08093ED0241E064E088E090E00E9468
:1036D0006C10E8C04091E50250E00AE112E020E001
:1036E00062E370E08FEF90E00E9435142091E502D4
:1036F00030E08217930709F4D5C08093E5020E9459
:10370000FF1C41E064E088E090E00E946C10CAC0B9
:103710009091B70281E089278093B7020E94060E3C
:103720008111FCCF0E94D5170E94B50EBBC022E2CA
:103730004AE252E06DE284E392E00E943F0E882369
:1037400009F4B0C00E94A62081E00E94801D86E09E
:103750000E94091D8AE392E00E941C2383E00E94DC
:10376000801D82E00E94091D8DE492E00E941C23CE
:103770000E94D51C1092AD021092AE021092AF02C0
:103780001092B0021092B4021092D9021092D80294
:10379000C12CD12C7601C39443E064E080E890E032
:1037A0000E946C1083E50E94091DC701B6010E94AA
:1037B00050238AE592E00E941C2364E670E080E0DA
:1037C00090E00E9450230E94D51C8FEFC81AD80A9F
:1037D000E80AF80A85E6C816D104E104F104E1F626
:1037E0001092B40286E00E94801D8DE20E94091DA5
:1037F0008CE592E00E941C230E94D51C0E94060EBC
:103800008111FCCF0E94060E8823E1F34BC024E116
:1038100042E652E068E282E792E00E943F0E88238F
:1038200009F440C00E94A62083E00E94801D88E029
:103830000E94091D8AE792E00E941C230E94D51C69
:103840000E94AA0B41E064E088E090E00E946C10C6
:1038500085E00E94801D8DE20E94091D8CE592E0AA
:103860000E941C230E94D51C0E94060E8111FCCFD1
:103870000E94060E8823E1F315C00E94060E8111F6
:10388000FCCF0E94D517823031F48091AB028F5F5C
:103890008093AB0207C0833029F48091AB02815042
:1038A0008093AB020E94060E8823E1F30E94F31777
:1038B00066956695669590E8699FB0011124680F3A
:1038C000711DFB01E050FD4F40830895669566959C
:1038D000669590E8699FB0011124680F711DFB0186
:1038E000E050FD4F80810895FF920F931F93CF9377
:1038F000DF93C82F062F172FF42E0E9432250E9427
:103900002F25883031F0803121F081E08093F6025C
:1039100033C088E70E9440250E942F25883131F06E
:10392000803221F081E08093F60226C08C2F0E9425
:1039300040250E942F25883219F4F11007C01AC0C3
:103940008033D9F381E08093F60216C0C02FD12FC7
:103950008E010F5F1F4FFA940F0D111D89910E9468
:1039600040250E942F25883211F0803319F4C017AA
:10397000D107A1F71092F6020E943A25DF91CF916C
:103980001F910F91FF900895CF93DF931F92CDB7B2
:10399000DEB7898341E0BE016F5F7F4F80E00E9408
:1039A000741C0F90DF91CF910895CF93DF9381E244
:1039B0000E94C41C80E00E94C41C8FE70E94C41CAB
:1039C00082E20E94C41C80E00E94C41C87E00E9426
:1039D000C41CC0E0D0E0BE0162957295707F76276E
:1039E000607F762760507D4F40E180E40E94741C28
:1039F0002196C034D10579F7DF91CF910895CF9307
:103A0000C82F81E80E94C41C8C2F0E94C41CCF9137
:103A10000895882314F08093F70208959091F80296
:103A2000903410F48093F8020895CF93C62F0E942B
:103A3000091D8C2F0E940E1DCF9108950E942525EF
:103A40008EEA0E94C41C85ED0E94C41C80EF0E9477
:103A5000C41C88EA0E94C41C8FE30E94C41C83ED2E
:103A60000E94C41C80E00E94C41C8DE80E94C41CFB
:103A700084E10E94C41C80E40E94C41C80E20E9475
:103A8000C41C80E00E94C41C81EA0E94C41C88EC13
:103A90000E94C41C8AED0E94C41C82E10E94C41CC6
:103AA00081E80E94C41C8FEF0E94C41C89ED0E9413
:103AB000C41C81EF0E94C41C8BED0E94C41C80E2D8
:103AC0000E94C41C84EA0E94C41C86EA0E94C41C92
:103AD0008EE20E94C41C8FEA0E94C41C60E080E059
:103AE0000E94151D86EA8093F9021092FE02109240
:103AF000FD021092FC021092F8021092F702089553
:103B0000883028F4880F880F880F8093F802089572
:103B10008091F70208958F929F92AF92BF92CF92B9
:103B2000DF92EF92FF920F931F93CF93DF93062FB5
:103B3000142F0E94151DD091F802C091F7026D2F2D
:103B40008C2F0E94661C1F3F91F4902F9770812C40
:103B5000912C540183947501640104C0CC0CDD1CCC
:103B6000EE1CFF1C9A95D2F7482F4C2913C0077002
:103B7000C12CD12C7601C394B701A60104C0440F17
:103B8000551F661F771F0A95D2F78A019B01009582
:103B9000482F40236D2F8C2F0E94581CDF91CF910E
:103BA0001F910F91FF90EF90DF90CF90BF90AF905B
:103BB0009F908F9008953F924F925F926F927F9265
:103BC0008F929F92AF92BF92CF92DF92EF92FF922D
:103BD0000F931F93CF93DF93982E88230CF4C6C0C6
:103BE00044230CF4C3C0603408F0C0C0203408F093
:103BF000BDC011E0812E861A820E181B140F462FAD
:103C00004770762E741AE82CF12C88E090E0841B23
:103C10009109E816F9067CF488E090E08E199F0976
:103C20002FEF30E0590102C0B594A7948A95E2F7CE
:103C30008A2D682C04C088E0682E641A8FEFA82EA5
:103C4000B12C02C0AA0CBB1C4A95E2F73A2C672D96
:103C5000892D0E94151D1123C9F1512C0F2EF8EF4B
:103C6000CF2EF2E0DF2EF02DC7EFD2E0A094F601C8
:103C70004080B880642D8B2D0E94661C0F3F19F484
:103C8000482F432902C0482F4A219B2D9F5F9883CC
:103C9000642D8B2D0E94581C53945112E8CF16C0EE
:103CA000C85F6C2F892D0E94151D1123F1F07A2C0D
:103CB000F6016081F2018081982F9F5F9083402FF1
:103CC0000E94581C7394711681F0F2CFC72D6718AB
:103CD000A12C0F2EF8EFCF2EF2E0DF2EF02D0F2EBD
:103CE000F7EF4F2EF2E05F2EF02D262D2C0FE22F56
:103CF000F0E0CF010896E816F90694F62815B0F51D
:103D0000EE1AFF0A8FEF90E09C0102C0220F331FD2
:103D1000EA94E2F77901E0946C2F685F892D0E94A4
:103D2000151D112319F1B12C0F2EF8EFCF2EF2E053
:103D3000DF2EF02DC7EFD2E09E2C9094F601A080EC
:103D4000F8806A2D8F2D0E94661C0F3F19F4482FB2
:103D50004E2902C0482F49219F2D9F5F98836A2DCD
:103D60008F2D0E94581CB394B112E8CFDF91CF91F0
:103D70001F910F91FF90EF90DF90CF90BF90AF9089
:103D80009F908F907F906F905F904F903F9008959D
:103D90002F923F924F925F926F927F928F929F925B
:103DA000AF92BF92CF92DF92EF92FF920F931F9349
:103DB000CF93DF93CDB7DEB72C970FB6F894DEBF65
:103DC0000FBECDBF5C01662E29832091F7022F83A1
:103DD0003091F8023A87822F860F1AF480E8682E15
:103DE000621A842F90E0079695958795959587950B
:103DF000959587958D839E839A85969596959695AC
:103E0000890F893048F02D813E81285F3F4FA901FD
:103E1000481B51095E834D834A8457E045228D81BA
:103E20009E81892B09F4FAC09A859C83712C262CDB
:103E3000312C512C88E090E0FC01E419F109FB835E
:103E4000EA830F2EF8EFCF2EF2E0DF2EF02D07EFF2
:103E500012E06C818F810E94151D39862886729C24
:103E6000C001739C900D11247C01E218F3086620B8
:103E700009F43CC09C012A0D3B1D852C3C872B87F7
:103E8000EB85FC859490042C01C0990C0A94EAF708
:103E9000772079F0F501EE0DFF1D2FEFE21AF20AFF
:103EA000849190E00A8002C0959587950A94E2F784
:103EB000982A3981313039F4F6016081F801808126
:103EC0000E94661C982AF6016081F8018081982F73
:103ED0009F5F9083492D0E94581C83942B853C85BD
:103EE0002F5F3F4F3C872B878610CACFEFEFF2E062
:103EF0008081882341F0F6016081F80180810E9471
:103F0000661C482F01C0452DF6016081F8018081B3
:103F10000E94581CFC81F85FFC837394872D90E00D
:103F20002D813E818217930708F493CF223031050B
:103F300008F474C06F2F8F810E94151D272D30E06B
:103F40002150310948855985249FC001259F900D36
:103F5000349F900D1124662009F43EC04501880E5F
:103F6000991E65015FEFC51AD50A6A94C60CD11C6B
:103F7000C80ED91E0F2EF8EFEF2EF2E0FF2EF02D17
:103F800007EF12E088E090E05C01A418B10834016A
:103F9000F7018080F8019080682D892D0E94661CB1
:103FA000F301449150E00A2C02C0559547950A94BC
:103FB000E2F7482BF981F13009F4482B892D8F5F06
:103FC000F8018083682D892D0E94581CFFEF6F1A1D
:103FD0007F0A6C147D04E1F68091FF02882399F03A
:103FE000813041F46091F8028091F7020E94661CD2
:103FF000482F0AC06091F8028091F7020E94661C67
:10400000482F409501C040E06091F802E7EFF2E0F0
:104010008081982F9F5F90830E94581C0E94881D6A
:104020006A850E94151D2C960FB6F894DEBF0FBE50
:10403000CDBFDF91CF911F910F91FF90EF90DF9057
:10404000CF90BF90AF909F908F907F906F905F9038
:104050004F903F902F900895DF92EF92FF920F9331
:104060001F93CF93DF93E82E162FD42EF22ED02F4E
:1040700088230CF449C044230CF446C0603408F093
:1040800043C08FE3821708F43FC04E1500F11CC0F7
:104090004D2F612F8C2F0E948B1DCF5F0C17C0F707
:1040A000DE14D8F017C04D2F6F2D8C2F0E948B1D62
:1040B000CF5F0C17C0F7F11698F01CC00D2F4D2DD7
:1040C0008D2D0E94DB1D20C0042FCE2DE1CF0E2DA3
:1040D000C42FDECF0D2DCE2DE6CF0E2DCD2DE3CF6F
:1040E0000D2F212F4E2D6F2D8E2D0E94DB1D212F88
:1040F0006F2DE4CF0D2F2F2D4E2D612F8E2D0E9471
:10410000DB1D2F2D612FDACFDF91CF911F910F9102
:10411000FF90EF90DF9008950F931F93CF93DF935D
:10412000182FD0E000E00BC0412F6D2F8C2F0E9484
:10413000581CCF5FC038C1F7D85FD03411F0C02F02
:10414000F3CFDF91CF911F910F91089580E00E94EE
:104150008C2008950F930E94DB1D0F9108952F92DC
:104160003F925F926F927F928F929F92AF92BF9297
:10417000CF92DF92EF92FF920F931F93CF93DF9333
:10418000C82E81E0D82EDC18D40EB82EB61AB20E86
:10419000462F4770A62EA41A0B2D10E088E090E061
:1041A000841B9109081719077CF488E090E0801BB4
:1041B000910B2FEF30E0B90102C0759567958A9594
:1041C000E2F7CB015B2C04C088E0582E541A8FEF25
:1041D000682E01C0660C4A95EAF76A2D8C2D0E9464
:1041E000151DDD20D9F1812C0F2EF8EFEF2EF2E016
:1041F000FF2EF02DC7EFD2E0F70170809880672D79
:10420000892D0E94661C992D9F5F9883482F462513
:10421000672D892D0E94581C83948D10EDCF1EC0F0
:10422000C85F6C2F8C2D0E94151DDD2039F1672C85
:10423000F7015080F1018080652D882D0E94661C59
:10424000982D9F5FF1019083482F4095652D882D13
:104250000E94581C63946D1489F0EACFCA2D5A1835
:10426000A52C712C0F2EF8EFEF2EF2E0FF2EF02D83
:104270000F2EF7EF2F2EF2E03F2EF02D8A2D8C0F10
:10428000E82FF0E0DF0118960A171B074CF68B1594
:1042900058F50E1B1F0B8FEF90E09C0102C0220F00
:1042A000331F0A95E2F7B22EB0946C2F685F8C2D05
:1042B0000E94151DDD20C1F0E12C08EF12E0C7EFD0
:1042C000D2E0F801C080F8806C2D8F2D0E94661C12
:1042D0009F2D9F5F9883482F4B256C2D8F2D0E941B
:1042E000581CE394ED10EDCFDF91CF911F910F910A
:1042F000FF90EF90DF90CF90BF90AF909F908F9006
:104300007F906F905F903F902F9008956623F4F018
:104310004034E0F42230D0F49093FB028093FA0210
:104320006093FC024093FD0250E041505109CA01E4
:1043300099230CF40796959587959595879595956E
:1043400087958F5F8093FE022093FF0208952F923E
:104350003F924F925F926F927F928F929F92AF9215
:10436000BF92CF92DF92EF92FF920F931F93CF9362
:10437000DF93CDB7DEB72B970FB6F894DEBF0FBE35
:10438000CDBF2091F7022C833091F8023F839091AA
:10439000FE0280522091FC02299F900111242F5F80
:1043A0003F4F829FA001839F500D1124598748875A
:1043B0004F5F5F4F5E834D83E091FA02F091FB0205
:1043C000A885B985EA0FFB1F54907F80B7E07B2258
:1043D000992309F492C0EF81EB83312C212C88E0E2
:1043E00090E09C01271931093A8329830F2EFFEFB2
:1043F0008F2EF2E09F2EF02D0F2EF8EFAF2EF2E071
:10440000BF2EF02D07EF12E0672C752C6B818C818D
:104410000E94151D4D815E81430D511D5B874A87AA
:104420007A0151E0E51AF108772009F44FC00F2E08
:10443000FEEFCF2EF2E0DF2EF02D832D362C672CF1
:10444000722C582EAAEFB2E02D913C91EA85FB85A3
:10445000E20FF31FE4914E2E032C01C0440C0A948A
:10446000EAF7552081F0F901EE0DFF1D249130E0AF
:10447000098002C0359527950A94E2F7422AF60191
:104480008081E80EF11CD4018C91813039F4F50162
:104490006081D8018C910E94661C482AF5016081D8
:1044A000D8018C91982F9F5F9C93442D0E94581C9B
:1044B000F60180812A853B85280F311D3B872A879D
:1044C00073947610BFCF762C632C352CD4018C914D
:1044D000811107C0422DF5016081D8018C910E94A5
:1044E000581CBB81B85FBB8333948091FE023816A1
:1044F00008F48CCF572C762C03C0EF81EB83312C42
:104500002F81229526952695237030E08091FD021B
:10451000829586958695837090E0FF818F0F911D1F
:104520002817390709F469C06B818C810E94151D19
:1045300028853985230D311D3A832983552009F4B7
:1045400051C0312C0F2EF8EFAF2EF2E0BF2EF02D20
:1045500007EF12E00F2EFAEFCF2EF2E0DF2EF02D54
:1045600088E090E0AC01471951093A010F2EFFEFA6
:10457000EF2EF2E0FF2EF02D0F2EFEEF8F2EF2E049
:104580009F2EF02DD5012C90F8014080622D842DB6
:104590000E94661CD601ED91FC9129813A81E20FBF
:1045A000F31F449150E0062C02C0559547950A949C
:1045B000E2F7482BD7019C91913009F4482B842DC8
:1045C0008F5FF8018083622D842D0E94581CD401D6
:1045D0008C91E981FA81E80FF11DFA83E983339424
:1045E0003510D0CF8091FF02811107C040E060916B
:1045F000F8028091F7020E94581C8C818F5F6F81B6
:10460000850D0E94151D2B960FB6F894DEBF0FBEC8
:10461000CDBFDF91CF911F910F91FF90EF90DF9071
:10462000CF90BF90AF909F908F907F906F905F9052
:104630004F903F902F900895EF92FF920F931F930A
:10464000CF93DF93EC018881882319F19091F702D1
:104650002091FC0230E0290F311D20383105CCF4C7
:1046600021960F2EF7EFEF2EF2E0FF2EF02D0CEF3C
:1046700012E00AC0F7019081F801208130E0290F93
:10468000311D203831052CF40E94A7218991811118
:10469000F1CFDF91CF911F910F91FF90EF9008958F
:1046A0000F931F93CF93DF93CDB7DEB72C970FB641
:1046B000F894DEBF0FBECDBF611571058105910570
:1046C00021F480E30E94A72145C161157105810590
:1046D00020E8920709F43EC1FE0131962CE0DF018B
:1046E0001D922A95E9F720E32B872A8729872887B7
:1046F0002F832E832D832C832B832A832983992335
:104700005CF49B01AC0188279927DC01821B930B89
:10471000A40BB50B41E003C0DC01CB0140E08130CC
:104720003AEC93073AE9A3073BE3B30794F02A81F5
:104730002F5F01C0232F9A5CAA49BB43322F3F5FF2
:1047400081305AEC95075AE9A5075BE3B50794F762
:104750002A83811521EE920725EFA20725E0B207F3
:1047600094F02B812F5F01C0232F915EA54FB540A0
:10477000322F3F5F811551EE950755EFA50755E0A4
:10478000B50794F72B83803826E9920728E9A2071A
:10479000B10594F02C812F5F01C0232F80589649DA
:1047A000A849B109322F3F5F803856E9950758E98B
:1047B000A507B10594F72C83803422E492072FE0FB
:1047C000A207B10594F02D812F5F01C0232F8054E3
:1047D0009244AF40B109322F3F5F803452E49507D5
:1047E0005FE0A507B10594F72D83803A26E892078C
:1047F00021E0A207B10594F02E812F5F01C0232F85
:10480000805A9648A140B109322F3F5F803A56E85E
:10481000950751E0A507B10594F72E83803127E273
:104820009207A105B1058CF02F812F5F01C0232FC6
:1048300080519742A109B109322F3F5F803157E281
:104840009507A105B1059CF72F83883E23E09207C9
:10485000A105B1058CF028852F5F01C0232F885E4C
:104860009340A109B109322F3F5F883E53E095077D
:10487000A105B1059CF7288784369105A105B105EE
:1048800084F029852F5F01C0232F84569109A10947
:10489000B109322F3F5F84369105A105B105A4F718
:1048A00029878A309105A105B1057CF02A852F5F03
:1048B00001C0232F0A97A109B109322F3F5F8A3027
:1048C0009105A105B105ACF72A87181619061A0635
:1048D0001B065CF45B858C019D01015011092109C7
:1048E0003109D9F7652F680F6B878981803361F4AF
:1048F00080E08F5FE1E0F0E0EC0FFD1FE80FF11DBD
:1049000090819033B1F301C080E0442331F08150B5
:10491000FE01E80FF11D9DE291834AE0481B20E073
:1049200090E0E1E0F0E0EC0FFD1FE20FF11DDF0190
:10493000A80FB91F3C9130832F5F421790F7E1E039
:10494000F0E0EC0FFD1FE20FF11D1082CE01019689
:104950000E941C232C960FB6F894DEBF0FBECDBF6D
:10496000DF91CF911F910F9108958F929F92AF92F7
:10497000BF92CF92DF92EF92FF926B017C014901CF
:104980005A0120E030E0A9010E94B62581110AC039
:1049900080E30E94A7218EE20E94A72180E30E946B
:1049A000A7214AC020E030E040E05FECC701B6013B
:1049B0000E94152788230CF43FC020E030E040E03F
:1049C0005FE4C701B6010E94B6258823ACF520E05C
:1049D00030E0A901C701B6010E94B62588233CF446
:1049E000F7FAF094F7F8F0948DE20E94A721C7013E
:1049F000B6010E942D260E9450238EE20E94A7211C
:104A0000C701B6010E9434260E9463269B01AC01B7
:104A1000C701B6010E9449256B017C01C501B401A3
:104A20000E9463269B01AC01C701B6010E941A27B0
:104A30000E942D260E945023FF90EF90DF90CF9090
:104A4000BF90AF909F908F900895A19AA09AA99A35
:104A5000A89A11B88CE080B984E086BF089581B12E
:104A6000887F089584EA86BF06B607FEFDCF0E94C0
:104A70002F25089585ED86BF06B604FCFDCF089569
:104A800083B984E886BF06B607FEFDCF0E942F25B6
:104A900008955058BB27AA270E9461250C94DB2655
:104AA0000E94CD2638F00E94D42620F039F49F3F92
:104AB00019F426F40C94CA260EF4E095E7FB0C9446
:104AC000C426E92F0E94EC2658F3BA176207730731
:104AD0008407950720F079F4A6F50C940E270EF4C0
:104AE000E0950B2EBA2FA02D0B01B90190010C01FE
:104AF000CA01A0011124FF27591B99F0593F50F416
:104B0000503E68F11A16F040A22F232F342F44276D
:104B1000585FF3CF469537952795A795F040539565
:104B2000C9F77EF41F16BA0B620B730B840BBAF035
:104B30009150A1F0FF0FBB1F661F771F881FC2F7A0
:104B40000EC0BA0F621F731F841F48F487957795B4
:104B50006795B795F7959E3F08F0B0CF9395880F6E
:104B600008F09927EE0F9795879508950E94A02643
:104B700008F481E008950E94CF250C94DB260E9462
:104B8000D42658F00E94CD2640F029F45F3F29F04A
:104B90000C94C42651110C940F270C94CA260E9421
:104BA000EC2668F39923B1F3552391F3951B550B2C
:104BB000BB27AA2762177307840738F09F5F5F4FF0
:104BC000220F331F441FAA1FA9F335D00E2E3AF02F
:104BD000E0E832D091505040E695001CCAF72BD047
:104BE000FE2F29D0660F771F881FBB1F2617370798
:104BF0004807AB07B0E809F0BB0B802DBF01FF27CA
:104C000093585F4F3AF09E3F510578F00C94C426BC
:104C10000C940F275F3FE4F3983ED4F38695779585
:104C20006795B795F7959F5FC9F7880F911D969582
:104C3000879597F90895E1E0660F771F881FBB1FDE
:104C4000621773078407BA0720F0621B730B840B8B
:104C5000BA0BEE1F88F7E09508950E9434266894F9
:104C6000B1110C940F2708950E94F42688F09F57E5
:104C700098F0B92F9927B751B0F0E1F0660F771F80
:104C8000881F991F1AF0BA95C9F714C0B13091F076
:104C90000E940E27B1E008950C940E27672F782FFD
:104CA0008827B85F39F0B93FCCF38695779567953B
:104CB000B395D9F73EF490958095709561957F4FA7
:104CC0008F4F9F4F0895E89409C097FB3EF490954D
:104CD0008095709561957F4F8F4F9F4F9923A9F0D5
:104CE000F92F96E9BB279395F69587957795679564
:104CF000B795F111F8CFFAF4BB0F11F460FF1BC0A8
:104D00006F5F7F4F8F4F9F4F16C0882311F096E93A
:104D100011C0772321F09EE8872F762F05C06623E8
:104D200071F096E8862F70E060E02AF09A95660FA1
:104D3000771F881FDAF7880F9695879597F908955A
:104D4000990F0008550FAA0BE0E8FEEF161617069C
:104D5000E807F907C0F012161306E407F50798F004
:104D6000621B730B840B950B39F40A2661F0232B1D
:104D7000242B252B21F408950A2609F4A140A69599
:104D80008FEF811D811D089597F99F6780E870E07E
:104D900060E008959FEF80EC089500240A941616B1
:104DA000170618060906089500240A941216130619
:104DB000140605060895092E0394000C11F48823A7
:104DC00052F0BB0F40F4BF2B11F460FF04C06F5FC3
:104DD0007F4F8F4F9F4F089557FD9058440F551F99
:104DE00059F05F3F71F04795880F97FB991F61F06D
:104DF0009F3F79F087950895121613061406551FE4
:104E0000F2CF4695F1DF08C0161617061806991F4F
:104E1000F1CF86957105610508940895E894BB2744
:104E200066277727CB0197F908950E94A02608F4FA
:104E30008FEF08950E942D270C94DB260E94CD262B
:104E400038F00E94D42620F0952311F00C94C4264B
:104E50000C94CA2611240C940F270E94EC2670F3A0
:104E6000959FC1F3950F50E0551F629FF001729F0F
:104E7000BB27F00DB11D639FAA27F00DB11DAA1F1E
:104E8000649F6627B00DA11D661F829F2227B00D6B
:104E9000A11D621F739FB00DA11D621F839FA00DF6
:104EA000611D221F749F3327A00D611D231F849F46
:104EB000600D211D822F762F6A2F11249F5750409D
:104EC0009AF0F1F088234AF0EE0FFF1FBB1F661F18
:104ED000771F881F91505040A9F79E3F510580F0E1
:104EE0000C94C4260C940F275F3FE4F3983ED4F350
:104EF000869577956795B795F795E7959F5FC1F785
:104F0000FE2B880F911D9695879597F90895AA1BFA
:104F1000BB1B51E107C0AA1FBB1FA617B70710F0A4
:104F2000A61BB70B881F991F5A95A9F780959095D6
:104F3000BC01CD01089597FB072E16F4009407D00D
:104F400077FD09D00E94872707FC05D03EF4909595
:104F500081959F4F0895709561957F4F0895A1E2C7
:104F60001A2EAA1BBB1BFD010DC0AA1FBB1FEE1FE3
:104F7000FF1FA217B307E407F50720F0A21BB30B2E
:104F8000E40BF50B661F771F881F991F1A9469F7AA
:104F900060957095809590959B01AC01BD01CF0106
:104FA0000895EE0FFF1F0590F491E02D0994A29F44
:104FB000B001B39FC001A39F700D811D1124911DED
:104FC000B29F700D811D1124911D08950F931F93A1
:104FD000CF93DF938230910510F482E090E0E0916E
:104FE0000207F091030720E030E0A0E0B0E0309746
:104FF00019F1408151810281138148175907C8F086
:105000008417950769F4109731F012960C93129754
:1050100013961C9327C0009302071093030722C026
:105020002115310519F04217530718F49A01BD01F3
:10503000EF01DF01F801DBCF21153105F9F0281B65
:10504000390B2430310580F48A819B81611571050B
:1050500021F0FB019383828304C090930307809324
:105060000207FE01329644C0FE01E20FF31F819356
:10507000919322503109398328833AC02091000747
:1050800030910107232B41F420916200309163009D
:105090003093010720930007209160003091610058
:1050A0002115310541F42DB73EB740916400509170
:1050B0006500241B350BE0910007F0910107E21712
:1050C000F307A0F42E1B3F0B2817390778F0AC012B
:1050D0004E5F5F4F2417350748F04E0F5F1F509308
:1050E0000107409300078193919302C0E0E0F0E054
:1050F000CF01DF91CF911F910F910895CF93DF934F
:10510000009709F481C0FC01329713821282A091AA
:105110000207B0910307109781F420813181820F3B
:10512000931F20910007309101072817390751F587
:10513000F0930107E093000767C0ED0120E030E045
:10514000CE17DF0740F44A815B819E01411551056E
:10515000F1F0EA01F5CFD383C28340815181840FFE
:10516000951FC817D90759F488819981840F951F15
:105170000296918380838A819B8193838283211508
:10518000310529F4F0930307E09302073DC0E901DC
:10519000FB83EA8349915991C40FD51FEC17FD0792
:1051A00061F480819181840F951F0296E9019983B2
:1051B0008883828193819B838A83E0E0F0E012966A
:1051C0008D919C911397009719F0FD01DC01F7CFA9
:1051D0008D919C9111979D012E5F3F4F820F931FE0
:1051E00020910007309101072817390769F430979B
:1051F00029F4109203071092020702C01382128250
:10520000B0930107A0930007DF91CF910895E19932
:10521000FECF9FBB8EBBE09A99278DB30895A6E180
:10522000B0E044E050E00C944D29A8E1B0E042E049
:1052300050E00C944D29262FE199FECF9FBB8EBBE9
:10524000E09A01970DB2021631F02DBB0FB6F8941B
:10525000E29AE19A0FBE08950396272F0E941C2917
:105260000E941B29252F0E941C29242F0C941C29E5
:105270000196272F0E941C290C941B29242F0E9481
:105280005C29252F0E945C290C9446290E945B29E9
:10529000272F0C945C29DC01CB01FC01E199FECFA6
:1052A00006C0FFBBEEBBE09A31960DB20D924150A5
:1052B0005040B8F70895262FE199FECF9FBB8EBBD3
:1052C0002DBB0FB6F894E29AE19A0FBE01960895AD
:0452D000F894FFCF80
:1052D4000000040720006D696E3A006D61783A00A1
:1052E4005600250030004E4F00594553004564696F
:1052F40074004578697400536176650053706400E6
:1053040055627400467271005374500053747000F7
:10531400537452006E5374007452500050687300FA
:1053240054726E004C002052005354720052756E39
:10533400004469616C206C696768740048616E643C
:10534400206C6967687400576865656C20646961DE
:105354006D2E004765617220726174696F004D6142
:10536400676E6574730053746570206D6F646500B7
:105374004D6178207370656564004465672E207004
:105384006572206B6D2F68004D6F746F722073749B
:10539400657073005374657020696E74657276610C
:1053A4006C004F6C6564206272696768742E004EED
:1053B4006F726D616C206D6F646500446562756722
:1053C400206D6F64650043616C696272617465206D
:1053D40068616E64005265736574206F646F6D65F7
:1053E400746572004C6F61642064656661756C74E9
:1053F40073004469616C206C696768742050574D70
:105404000048616E64206C696768742050574D00D1
:10541400576865656C204469616D65746572202800
:105424006D29004D61676E657473206F6E20776817
:1054340065656C00312D66756C6C2C20322D6861AD
:105444006C66004D6178696D756D20737065656477
:10545400004465677265657320706572206B6D2FFB
:10546400680053746570706572206D6F746F72207C
:105474007374657073005374657020696E7465721B
:1054840076616C205836347573004F4C4544206265
:1054940072696768746E657373004F444F4D455469
:1054A40045523F00524553455400524553455454C8
:1054B400494E47204F444F4D455445520043656C77
:1054C4006C7320657261736564002F00444F4E4510
:1054D400210044454641554C542076616C756573F2
:1054E4003F00524553544F5245004C4F4144494E9E
:1054F400472044454641554C54532E2E2E0071747A
:105504007677797A7B7C7D7E05060A0201000804A1
:08551400060200040602000477
:00000001FF
