:100000000C94A10A0C94BE0A0C94030C0C94BE0A26
:100010000C94D10B0C94BE0A0C94BE0A0C94BE0A2C
:100020000C94BE0A0C94E80B0C94990B0C94BE0A29
:100030000C94BE0A0C94BE0A0C94BE0A0C94BE0A20
:100040000C94BE0A0C94BE0A0C94BE0A0C94BE0A10
:100050000C94BE0A73189918BF180E195D197919F6
:100060009519B119001A201A3C1A5A1A661A691AF7
:10007000261BB11B0C000000F01F00FC7F00FEFFE0
:10008000000FE00107C00107C00107C0010FE00138
:10009000FEFF00FC7F00F01F000C000000F01F00BE
:1000A000FC7F00FEFF000FE00107C00107C0010751
:1000B000C0010FE001FEFF00FC7F00F01F000C00FC
:1000C0000000F01F00FC7F00FEFF000FE00107C0F2
:1000D0000107C00107C0010FE001FEFF00FC7F0027
:1000E000F01F000C000000F01F00FC7F00FEFF006E
:1000F0000FE00107C00107C00107C0010FE001FECA
:10010000FF00FC7F00F01F000C000000F01F00FC4F
:100110007F00FEFF000FE00107C00107C00107C01C
:10012000010FE001FEFF00FC7F00F01F000C00004B
:1001300000F01F00FC7F00FEFF000FE00107C00180
:1001400007C00107C0010FE001FEFF00FC7F00F0C7
:100150001F000C000000F01F00FC7F00FEFF000FDE
:10016000E00107C00107C00107C0010FE001FEFF69
:1001700000FC7F00F01F000C000000F01F00FC7F5F
:1001800000FEFF000FE00107C00107C00107C0012A
:100190000FE001FEFF00FC7F00F01F000C000000DC
:1001A000F01F00FC7F00FEFF000FE00107C0010709
:1001B000C00107C0010FE001FEFF00FC7F00F01F3F
:1001C000000C000000F01F00FC7F00FEFF000FE0AD
:1001D0000107C00107C00107C0010FE001FEFF00D9
:1001E000FC7F00F01F000C000000F01F00FC7F00EF
:1001F000FEFF000FE00107C00107C00107C0010FAB
:10020000E001FEFF00FC7F00F01F000C000000F08A
:100210001F00FC7F00FEFF000FE00107C00107C0C8
:100220000107C0010FE001FEFF00FC7F00F01F008E
:100230000C000000F01F00FC7F00FEFF000FE0013B
:1002400007C00107C00107C0010FE001FEFF00FC6D
:100250007F00F01F000C000000F01F00FC7F00FE7C
:10026000FF000FE00107C00107C00107C0010FE058
:1002700001FEFF00FC7F00F01F000400000000C032
:100280000100C00100C001000000000000000000EB
:100290000000000000000000000000000000000C52
:1002A00000800100F801C0FF01FC7F00FF07003F54
:1002B000000003000000000000000000000000003B
:1002C000000000000C000000F01F00FC7F00FEFF9B
:1002D000000FE00107C00107C00107C0010FE001E6
:1002E000FEFF00FC7F00F01F000C0000000000007B
:1002F0006000007000007800003C00001E0000FF5D
:10030000FF01FFFF01FFFF010000000000000C00E3
:1003100000003880013CE0013EF0010FF80107FCCD
:100320000107DE0107CF018FC701FEC301FEC10136
:1003300078C0010C0000001838001E78001EF8007C
:100340000FE001C7C101C7C101E7C101FFE3017EA1
:10035000FF003C7F00003E000C000000003E0080DB
:100360003F00C03F00F039007838003E3800FFFF02
:1003700001FFFF01FFFF010038000038000C000002
:1003800000803900FC7900FFF900FFE001E7C001BF
:10039000E7C001E7C001E7E101C7FF00877F000078
:1003A0001F000C000000F01F00FC7F00FEFF008E0D
:1003B000E301C7C101C7C101C7C101CFE3019EFF6E
:1003C000009E7F00183E000C0000000700000700A0
:1003D0000007E00107FC0187FF01E71F00F70300AA
:1003E000FF00003F00001F00000700000C0000009D
:1003F000783C00FEFE00FEFF00CFE70187C30187C7
:10040000C30187C301CFE701FEFF00FEFE00783C79
:10041000000C000000F83000FCF300FEF3008FE752
:100420000107C70107C70107C7018FE300FEFF00EF
:10043000FC7F00F01F001200FE7F00C0FFFF07F8E6
:10044000FFFF1FFC01803F3E00007C0E0000700F8C
:100450000000F0070000E0070000E0070000E00FE8
:100460000000F00E0000703E00007CFC01803FF8B0
:10047000FFFF1FE0FFFF0300FE7F000000000012EF
:1004800000FE7F00C0FFFF07F8FFFF1FFC01803F59
:100490003E00007C0E0000700F0000F0070000E03E
:1004A000070000E0070000E00F0000F00E00007001
:1004B0003E00007CFC01803FF8FFFF1FE0FFFF03D0
:1004C00000FE7F00000000001200FE7F00C0FFFF62
:1004D00007F8FFFF1FFC01803F3E00007C0E00007C
:1004E000700F0000F0070000E0070000E0070000C8
:1004F000E00F0000F00E0000703E00007CFC018068
:100500003FF8FFFF1FE0FFFF0300FE7F0000000039
:10051000001200FE7F00C0FFFF07F8FFFF1FFC0175
:10052000803F3E00007C0E0000700F0000F00700CE
:1005300000E0070000E0070000E00F0000F00E0000
:1005400000703E00007CFC01803FF8FFFF1FE0FFD1
:10055000FF0300FE7F00000000001200FE7F00C0CD
:10056000FFFF07F8FFFF1FFC01803F3E00007C0EED
:100570000000700F0000F0070000E0070000E00737
:100580000000E00F0000F00E0000703E00007CFC58
:1005900001803FF8FFFF1FE0FFFF0300FE7F000028
:1005A0000000001200FE7F00C0FFFF07F8FFFF1FE2
:1005B000FC01803F3E00007C0E0000700F0000F048
:1005C000070000E0070000E0070000E00F0000F077
:1005D0000E0000703E00007CFC01803FF8FFFF1F12
:1005E000E0FFFF0300FE7F00000000001200FE7F1E
:1005F00000C0FFFF07F8FFFF1FFC01803F3E000027
:100600007C0E0000700F0000F0070000E007000003
:10061000E0070000E00F0000F00E0000703E000058
:100620007CFC01803FF8FFFF1FE0FFFF0300FE7F1F
:1006300000000000001200FE7F00C0FFFF07F8FF6F
:10064000FF1FFC01803F3E00007C0E0000700F0089
:1006500000F0070000E0070000E0070000E00F00E6
:1006600000F00E0000703E00007CFC01803FF8FFAF
:10067000FF1FE0FFFF0300FE7F00000000001200EC
:10068000FE7F00C0FFFF07F8FFFF1FFC01803F3E19
:1006900000007C0E0000700F0000F0070000E00773
:1006A0000000E0070000E00F0000F00E0000703EC8
:1006B00000007CFC01803FF8FFFF1FE0FFFF03000C
:1006C000FE7F00000000001200FE7F00C0FFFF0759
:1006D000F8FFFF1FFC01803F3E00007C0E00007011
:1006E0000F0000F0070000E0070000E0070000E056
:1006F0000F0000F00E0000703E00007CFC01803F07
:10070000F8FFFF1FE0FFFF0300FE7F000000000076
:100710001200FE7F00C0FFFF07F8FFFF1FFC0180F3
:100720003F3E00007C0E0000700F0000F00700004C
:10073000E0070000E0070000E00F0000F00E0000FE
:10074000703E00007CFC01803FF8FFFF1FE0FFFFD0
:100750000300FE7F00000000001200FE7F00C0FFCB
:10076000FF07F8FFFF1FFC01803F3E00007C0E00EA
:1007700000700F0000F0070000E0070000E0070035
:1007800000E00F0000F00E0000703E00007CFC0155
:10079000803FF8FFFF1FE0FFFF0300FE7F00000027
:1007A00000001200FE7F00C0FFFF07F8FFFF1FFCE4
:1007B00001803F3E00007C0E0000700F0000F0073B
:1007C0000000E0070000E0070000E00F0000F00E6E
:1007D0000000703E00007CFC01803FF8FFFF1FE03E
:1007E000FFFF0300FE7F00000000001200FE7F00FC
:1007F000C0FFFF07F8FFFF1FFC01803F3E00007CA9
:100800000E0000700F0000F0070000E0070000E09D
:10081000070000E00F0000F00E0000703E00007CBA
:10082000FC01803FF8FFFF1FE0FFFF0300FE7F0099
:1008300000000000090000000000000000000000AF
:1008400000000000F0000000F0000000F0000000D8
:100850000000000000000000000000000000000098
:100860000000000000000000000000000000000088
:10087000000000000000000000000000001200FE68
:100880007F00C0FFFF07F8FFFF1FFC01803F3E0015
:10089000007C0E0000700F0000F0070000E0070071
:1008A00000E0070000E00F0000F00E0000703E00C6
:1008B000007CFC01803FF8FFFF1FE0FFFF0300FE0C
:1008C0007F00000000001200FE7F00C0FFFF07F85D
:1008D000FFFF1FFC01803F3E00007C0E0000700FF8
:1008E0000000F0070000E0070000E0070000E00F54
:1008F0000000F00E0000703E00007CFC01803FF81C
:10090000FFFF1FE0FFFF0300FE7F0000000000125A
:10091000000000000000000000000000000E0000C9
:100920000007000080030000C0030000E001000099
:10093000F8000000FEFFFFFFFFFFFFFFFFFFFFFFCC
:1009400000000000000000000000000000000000A7
:10095000000000000000000012C00100E0F00100F3
:10096000F8FC0100FE3C0000FF1E0080EF0F00C0FD
:10097000E70700E0E10700F0E0070078E007003C4F
:10098000E007001FE00F800FE01EC007E03EF80305
:10099000E0FCFF00E0F07F00E0C00F00E00000009E
:1009A0000012C0008003F000800FFC00801F3E009A
:1009B000003E1E0000780F0000F007E000E007E0B6
:1009C00000E007E000E007E000E00FF000E00EF8D4
:1009D00001703EFC0378FCBF073EF89FFF1FE00755
:1009E000FE0F0000F80300000000120000F00000FD
:1009F00000FC000000FF0000C0FF0000F0E7000066
:100A0000F8E100007EE000801FE000E007E000F871
:100A100001E0007E00E000FFFFFFFFFFFFFFFFFFA0
:100A2000FFFFFF0000E0000000E0000000E0000029
:100A300000E0001200C0800300FF800FF8FF811F5C
:100A4000FFFF003EFF780078073800F0071C00E049
:100A5000071C00E0071C00E0071C00E0073C00F05A
:100A6000073800700778007C07F0013F07E0FF1FA0
:100A700007C0FF070000FE01000000001200FC7F1D
:100A800000C0FFFF07F0FFFF0FF880073E3CC001EA
:100A9000781EE000700E7000F0077000E007700034
:100AA000E0077000E0077000E00FF000F00EE001DA
:100AB000783EC0073EFC80FF1FF800FF0FE000FCFF
:100AC00001000000001207000000070000000700FE
:100AD000000007000000070000F80700C0FF070043
:100AE000FCFF0780FF0707E03F0007F8070007FE4D
:100AF0000000871F0000E7070000F70100007F00EB
:100B000000001F0000000F000000000000001200A5
:100B100000F803E007FE0FF81FFF1FFCBF0F3E3E6B
:100B2000FC03780EF0017007E000E007E000E0074A
:100B3000E000E007E000E00FE000E00EF001703EB2
:100B4000FC0378FCBF0F3EF81FFF1FE007FE0F00FD
:100B500000F8030000000012C03F0007F0FF001F74
:100B6000F8FF013F7CE0037C1E8007700F000FF050
:100B70000F000EE007000EE007000EE007000EE099
:100B800007000E700E0007781E80033C7CE0811F7A
:100B9000F0FFFF0FE0FFFF0300FE3F00000000003A
:100BA0000500000000000500005F000005000700D0
:100BB000070005147F147F1405242A7F2A120523B9
:100BC00013086462053649562050050807030000E3
:100BD00005001C224100050041221C000514083EAE
:100BE00008140508083E08080500B0700000050854
:100BF00008080808050060600000052010080402CD
:100C0000053E5149453E0500427F40000572494975
:100C10004946052141494D33051814127F10052717
:100C200045454539053C4A494931054121110907E6
:100C300005364949493605464949291E050000142B
:100C4000000005004034000005081422410005148E
:100C50001414141405412214080005020159090650
:100C6000053E415D594E057C1211127C057F4949B4
:100C70004936053E41414122057F4141413E057FC4
:100C800049494949057F09090909053E414151730F
:100C9000057F0808087F0500417F4100052040418D
:100CA0003F01057F08142241057F40404040057FF9
:100CB000020C027F057F0408107F053E4141413E42
:100CC000057F09090906053E4151215E057F091985
:100CD00029460526494949320501017F0101053FA1
:100CE0004040403F051F2040201F053F4038403F07
:100CF000056314081463050304780403056151496E
:100D0000454305007F41410005020408102005000D
:100D100041417F000504020102040540404040407B
:100D200005070B000000052054547840057F284437
:100D3000443805384444442805384444287F05385D
:100D4000545454180500087E09020518A4A49C7880
:100D5000057F080404780500447D400005204040DC
:100D60003D00057F102844000500417F4000057CC0
:100D700004780478057C0804047805384444443831
:100D800005FC182424180518242418FC057C0804E4
:100D900004080548545454240504043F4424053CE5
:100DA0004040207C051C2040201C053C4030403C3D
:100DB000054428102844054C9090907C05446454C8
:100DC0004C4405000836410005000077000005008E
:100DD0004136080005040204080405007F417F0035
:100DE0000000000000000000000000000000000003
:100DF0000000000080C0E0F0F8FCFEFFFFFF0000F4
:100E000000000000000000000000000000000000E2
:100E100000000000000000000000000000000000D2
:100E200000000000000000000000000000000000C2
:100E300000000000000000000000000000000000B2
:100E4000000000000000000080C0E0F0F8FCFEFFA1
:100E5000FFFFFFFFFFFFFFFFFFFFC0C0C0C0C0C01C
:100E6000C0C0C0C0C0C0C0C0C0C0C0C0C0C0C0C082
:100E7000C0C0C0C0C0C0C0C0C0C0C0C0C0C0C0C072
:100E8000C0C0C0C0C0C0C0C0C0C0C0C0C0C0C0C062
:100E9000C0C0C0C0C0C0C0C00000000080C0E0F042
:100EA000F8FCFEFFFFFFFFFFFFFFFFFFFFFFFFFF5D
:100EB000FFFFFFFFFFFFFFFFFFFFFFFFFFFFFFFF42
:100EC000FFFFFFFFFFFFFFFFFFFFFFFFFFFFFFFF32
:100ED000FFFFFFFFFFFFFFFFFFFFFFFFFFFFFFFF22
:100EE000FFFFFFFFFFFFFFFFFFFFFFFFFFFFFFFF12
:100EF000FFFFFFFF081C3E7FFFFFFFFFFFFFFFFF1D
:100F0000FFFFFFFFFFFFFFFFFFFFFFFFFFFFFFFFF1
:100F1000FFFFFFFFFFFFFFFFFFFFFFFFFFFFFFFFE1
:100F2000FFFFFFFFFFFFFFFFFFFFFFFFFFFFFFFFD1
:100F3000FFFFFFFFFFFFFFFFFFFFFFFFFFFFFFFFC1
:100F4000FFFFFFFFFFFFFFFFFFFFFFFFFFFFFFFFB1
:100F500000000000000103070F1F3F7FFFFFFFFF9E
:100F6000FFFFFFFFFFFFFFFFFFFFFFFFFFFFFFFF91
:100F7000FFFFFFFFFFFFFFFFFFFFFFFFFFFFFFFF81
:100F8000FFFFFFFFFFFFFFFFFFFFFFFFFFFFFFFF71
:100F9000FFFFFFFFFFFFFFFFFFFFFFFFFFFFFFFF61
:100FA000FFFFFFFFFFFFFFFFFFFFFFFF000000004D
:100FB0000000000000000000000103070F1F3F7F3A
:100FC000FFFFFFFFFFFFFFFFFFFF01010101010125
:100FD0000101010101010101010101010101010101
:100FE00001010101010101010101010101010101F1
:100FF00001010101010101010101010101010101E1
:1010000001010101010101010000000000000000D8
:1010100000000000000000000000000000010307C5
:101020000F1F3F7F7F7F00000000000000000000D6
:1010300000000000000000000000000000000000B0
:1010400000000000000000000000000000000000A0
:101050000000000000000000000000000000000090
:101060000000000000000000000000000000000080
:101070000000000000000000000000000000000070
:101080000000000000000000000000000000000060
:101090000000000000000000000000000000000050
:1010A0000000FFFFFFFEFCF8F0E0C0800000000041
:1010B0000000000000000000000000000000000030
:1010C000C0C0C0C0C0C0C0C0C0C0C0C0C0C0C0C020
:1010D000C0C0C0C0C0C0C0C0C0C0C0C0C0C0C0C010
:1010E000C0C0C0C0C0C0C0C0C0C0C0C0C0C0C0C000
:1010F000C0C0C0C0C0C0C0C0C0C0C0C0C0C0FFFF72
:10110000FFFFFFFFFFFFFFFFFFFEFCF8F0E0C080E6
:10111000000000000000000000000000FFFFFFFFD3
:10112000FFFFFFFFFFFFFFFFFFFFFFFFFFFFFFFFCF
:10113000FFFFFFFFFFFFFFFFFFFFFFFFFFFFFFFFBF
:10114000FFFFFFFFFFFFFFFFFFFFFFFFFFFFFFFFAF
:10115000FFFFFFFFFFFFFFFFFFFFFFFFFFFFFFFF9F
:10116000FFFFFFFFFFFFFFFFFFFFFFFFFFFEFCF89A
:10117000F0E0C08000000000FFFFFFFFFFFFFFFF67
:10118000FFFFFFFFFFFFFFFFFFFFFFFFFFFFFFFF6F
:10119000FFFFFFFFFFFFFFFFFFFFFFFFFFFFFFFF5F
:1011A000FFFFFFFFFFFFFFFFFFFFFFFFFFFFFFFF4F
:1011B000FFFFFFFFFFFFFFFFFFFFFFFFFFFFFFFF3F
:1011C000FFFFFFFFFFFFFFFFFFFFFFFFFFFFFFFF2F
:1011D0007F3E1C08FFFFFFFFFFFFFFFFFFFFFFFF3A
:1011E000FFFFFFFFFFFFFFFFFFFFFFFFFFFFFFFF0F
:1011F000FFFFFFFFFFFFFFFFFFFFFFFFFFFFFFFFFF
:10120000FFFFFFFFFFFFFFFFFFFFFFFFFFFFFFFFEE
:10121000FFFFFFFFFFFFFFFFFFFFFFFFFFFFFFFFDE
:10122000FFFFFFFF7F3F1F0F0703010000000000CB
:10123000010101010101010101010101010101019E
:10124000010101010101010101010101010101018E
:10125000010101010101010101010101010101017E
:101260000101010101010101010101010101FFFF72
:10127000FFFFFFFFFFFFFFFF7F3F1F0F070301007F
:10128000000000000000000000000000000000005E
:10129000000000000000000000000000000000004E
:1012A000000000000000000000000000000000003E
:1012B000000000000000000000000000000000002E
:1012C000000000000000000000007F7F7F3F1F0F34
:1012D0000703010000000000000000000000000003
:1012E0000000000000000000008080808084FCFE80
:1012F000FEFEFEFEFEFEFEFC000000000000000000
:10130000000080C0E0F0F8FCFCFEFEFFFFFFFFFFE6
:10131000FFFFFFFFFFFFFFFFFFFFFFFEFEFCFCF8EC
:10132000F0E0C08000000000000000000000FCFEB3
:10133000FEFEFEFEFEFEFEFC8080808080001F3FE1
:101340003F3F3F3F7FFFFFFFFFFFFFFFFFF9F0E061
:10135000C0800000000000FEFFFFFFFFFFFFFFFF57
:10136000FFFFFFFFFFFFFFFFFFFFFFFFFFFFFFFF8D
:10137000FFFFFFFFFFFFFFFFFFFFFE000000000079
:1013800080C0E0F0F9FFFFFFFFFFFFFFFF7F3F3F5F
:101390003F3F3F1F00000000000000000103070F57
:1013A0001F3F7F7F7F7F7F7F7F7E0000007FFFFF6B
:1013B000FFFFFF3F1F1F1F1F1F1F1F3FFFFFFFFFDD
:1013C000FFFF3F1F1F1F1F1F1F1F3FFFFFFFFFFFCD
:1013D0007F0000007E7F7F7F7F7F7F7F3F1F0F0723
:1013E00003010000000000000000000000000000F9
:1013F0000000000000000080C0E0F0F0F0F0F0F02D
:10140000F0F000000101FFFFFFF0E0E0E0E0E0E0CD
:10141000E0F00F0F0F0F0F0FF0E0E0E0E0E0E0E092
:10142000F0FFFFFF01010000F0F0F0F0F0F0F0F04D
:10143000E0C080000000000000000000000000008C
:101440000000C0E0E0E0E0E0F0F8FCFEFFFFFFFF9E
:10145000FFFF7F3F1F0F0703000000000303031F70
:101460001F1FFFFFFFFFFFFFFCF8F8F8F8FCFFFF6E
:10147000FFFFFFFF1F1F1F03030300000000030700
:101480000F1F3F7FFFFFFFFFFFFFFEFCF8F0E0E0D4
:10149000E0E0E0C000000000070F0F0F0F0FFFFF9C
:1014A000FFFFFFFFFFFFFFFC000000000000000047
:1014B00000000000003E7E7EF0F0E087878303039B
:1014C00003030303838787E0F0F07E7E3E00000085
:1014D00000000000000000000000FCFFFFFFFFFF15
:1014E000FFFFFFFF0F0F0F0F0F07000000000000AE
:1014F00000000000000101010101010101000000E4
:1015000000000000000000000000000000000001DA
:1015100003070F0F0F0F0F0F0F0F0F0F0703010020
:1015200000000000000000000000000000000000BB
:1015300000010101010101010100000000000000A3
:10154000000011241FBECFE5D8E0DEBFCDBF12E002
:10155000A0E6B0E0E6E5F2E502C005900D92A03706
:10156000B107D9F726E0A0E7B2E001C01D92A03D87
:10157000B207E1F70E94B0160C9429290C940000E0
:101580002F923F920F931F93CF93DF93D101139626
:101590008C911397815012968C93129788237CF12B
:1015A0000D911C911197E0E0F0E0682F082E000CDF
:1015B000770B9801260F371FE9012881022E000CB6
:1015C000330B1616170694F490E0A901440F551F2B
:1015D000220F331F220F331F220F331F240F351FFB
:1015E0009F5F492F50E0461757077CF3E20FF31F28
:1015F000815012968C9312978823BCF602C0E0E0CB
:10160000F0E0CF01DF91CF911F910F913F902F908C
:1016100008958AEF8093B20286E08093BC0280E056
:1016200090E0A0E8BFE38093B3029093B402A0934C
:10163000B502B093B60283E393E3A3E3BFE38093E1
:10164000BE029093BF02A093C002B093C10283E395
:1016500093E3A3EABFE38093AE029093AF02A0931B
:10166000B002B093B10280E094E09093AD02809319
:10167000AC029093B8028093B7028EEB8093AB02DA
:1016800086E98093BB0280E690E09093BA02809353
:10169000B90282E08093BD02089590917C02992363
:1016A00081F090919C029F5F90939C0220919A02FE
:1016B00030919B022F5F3F4F30939B0220939A0201
:1016C0000FC090919C02915090939C0220919A029D
:1016D00030919B022150310930939B0220939A0252
:1016E00090919C02992324F497E090939C0206C069
:1016F00090919C02983014F010929C029BB3907FC2
:10170000823051F4E0919C020E2E000CFF0BE05A47
:10171000FD4F8081982B0BC0813049F4E0919C02F1
:101720000E2E000CFF0BE859FD4F8081982B9BBBC0
:1017300008951F920F920FB60F9211242F933F938B
:101740004F935F936F937F938F939F93AF93BF93C9
:10175000EF93FF938091BD020E944D0B20919A025E
:1017600030919B028091840290918502281739075D
:1017700039F410929D0213BE1CBE89B78D7F89BFBC
:10178000FF91EF91BF91AF919F918F917F916F9159
:101790005F914F913F912F910F900FBE0F901F902F
:1017A00018951F920F920FB60F9211248F939F934B
:1017B0008091A9029091AA0201969093AA02809327
:1017C000A9029F918F910F900FBE0F901F901895B7
:1017D0001F920F920FB60F9211248F939F938091B7
:1017E0008302882349F080917A0290917B020196CE
:1017F00090937B0280937A029F918F910F900FBEFE
:101800000F901F9018951F920F920FB60F921124F0
:101810008F939F93AF93BF9380918202882321F18E
:1018200084B58093A20214BC8091A9029091AA026F
:101830009093A8028093A7021092AA021092A90284
:1018400080919E0290919F02A091A002B091A1026E
:101850000196A11DB11D80939E0290939F02A093BB
:10186000A002B093A10207C014BC89B7806889BFE9
:1018700081E080938202BF91AF919F918F910F90F1
:101880000FBE0F901F9018958F929F92AF92BF92AC
:10189000CF92DF92EF92FF920F93CF93DF938091DD
:1018A00083028111D8C00E941A200FEF27E144E281
:1018B0006BE08AE00E94A01F24E146E26EE085E230
:1018C0000E94A01F8091800290918102893691052B
:1018D00034F025E140E16DE08CE00E941E20809113
:1018E0008002909181028E3691053CF00FEF25E148
:1018F00046E16DE082E10E941E208091800290917D
:101900008102833791053CF00FEF25E14CE16DE05A
:1019100088E10E941E208091800290918102883788
:1019200091053CF00FEF25E142E26DE08EE10E946F
:101930001E206FE08BE20E94891C20E048E065E0F9
:1019400080EA9BE00E94FA206091800270918102FF
:10195000072E000C880B990B0E94D92520E030E05F
:1019600040E251E40E942F252AE030E040E050E0C0
:101970000E94292488E690E00E94902220E040E224
:1019800062E186E394E00E94FA206FE184E00E9425
:10199000891C8090760290907702A0907802B09097
:1019A000790284E688169104A104B10470F0C5019F
:1019B000B4012AE030E040E050E00E947027211599
:1019C00031054105510529F440C024E630E040E0EE
:1019D00050E0C0E00F2EFAE0CF2ED12CE12CF12CFC
:1019E000F02DCA01B901A70196010E947027CF5FAF
:1019F0002115310541055105A1F784E688169104AA
:101A0000A104B10418F5D4E0C0E08AE690E00E9499
:101A10009022CF5FCD17CCF3609176027091770260
:101A200080917802909179020E94D72520E030E0E1
:101A300048EC52E40E942F252AE030E040E050E0DC
:101A40000E9429240E94491C06C0C0E0D6E0DC1B8D
:101A50001D1614F7D9CFDF91CF910F91FF90EF9022
:101A6000DF90CF90BF90AF909F908F90089520917E
:101A700086023091870240918802509189026091DC
:101A80008A0270918B0280918C0290918D020E944B
:101A90002F250E94A82570938502609384022091CF
:101AA0009A0230919B02C901861B970B99F01AF09C
:101AB00010927C0203C081E080937C0281E08093DD
:101AC0009D0283B78D6083BF8091BB028CBF89B7B5
:101AD000826089BF0895B59B04C0B69B02C0B799C8
:101AE0002AC0B5990DC08FE99FE00197F1F700C0BA
:101AF000000086B385FB992790F981E08927089536
:101B000096B3892F807496FD0AC0EFE9FFE0319704
:101B1000F1F700C00000B69913C082E00895B799AC
:101B20000CC08FE99FE00197F1F700C00000B79962
:101B300006C083E0089580E0089580E0089580E085
:101B4000089510929B0210929A0210929C0240916A
:101B5000BD022091B9023091BA02429FC001439F59
:101B6000900D11249695879596958795909385026B
:101B70008093840281E080937C0280939D0283B7EE
:101B80008D6083BF8091BB028CBF89B7826089BFA3
:101B900080919D028111FCCF2FEF82E597E02150CB
:101BA00080409040E1F700C000004091BD022091CC
:101BB000B9023091BA02429FC001439F900D112497
:101BC00090939B0280939A02109285021092840255
:101BD00010927C0281E080939D0283B78D6083BF69
:101BE0008091BB028CBF89B7826089BF80919D02C2
:101BF0008111FCCF10929B0210929A0210928502E2
:101C00001092840281E0809366000895882381F019
:101C10000E941A2067E086E10E94891C2FEF47E3AB
:101C20006CE584E690E10E943C1E0E94491C0895E8
:101C30000E941A2067E086E10E94891C2FEF47E38B
:101C40006CE580EE9DE00E943C1E0E94491C0895B8
:101C50000E941A2067E08BE10E94891C2FEF44E369
:101C600066E588EE92E10E943C1E0E94491C0895A0
:101C7000B4990DC0B39B0BC080E00E94060E81E0BA
:101C80008093830210927B0210927A0221C0B39952
:101C90000DC0B49B0BC081E00E94060E81E08093D2
:101CA000830210927B0210927A0212C0B4990CC087
:101CB000B3990AC00E94280E81E08093830210929B
:101CC0007B0210927A0204C0809183028823E9F09B
:101CD000B39B09C0B49B07C00E941A200E94491CF4
:101CE00089B7846089BF80917A0290917B028D329E
:101CF000914058F01092830210927B0210927A0267
:101D000089B78B7F89BF0E94440C089587B9E62F5D
:101D1000F0E01E161F068CF420E030E080E090E03A
:101D2000369A3699FECF44B155B1840F951F2F5F77
:101D30003F4F2E173F07A1F702C080E090E070E010
:101D40000E944827CB0108950F931F936AE084E017
:101D50000E94860EBC0180E090E00E94D7252AE90F
:101D600039E94CEC52E40E942F2520E030E040E2BB
:101D700050E40E948E2620E030E040EC50E40E94C7
:101D80008E260E94A12570937F0260937E026436A6
:101D90007105CCF5DB9AD89A1BBC1ABC19BC18BCCF
:101DA0000E941A200E94491C6AE084E00E94860E6C
:101DB000BC0180E090E00E94D7252AE939E94CEC8B
:101DC00052E40E942F2520E030E040E250E40E94DF
:101DD0008E2620E030E040EC50E40E948E2620E089
:101DE00030E048EC52E40E942A258823ECF28091EE
:101DF000AC029091AD029BBD8ABD8091B7029091DB
:101E0000B80299BD88BD80917E0290917F02209199
:101E10008002309181028217930751F090938102E2
:101E20008093800280916700811102C00E94440C5F
:101E300060919E0270919F028091A0029091A102F8
:101E40000E94D7250E94FB2620918E0230918F029E
:101E500040919002509191020E948E2620E030E045
:101E600040E251E40E942F250E94A825609372024F
:101E700070937302809374029093750200917602BE
:101E800010917702209178023091790260177107E2
:101E90008207930771F060937602709377028093C4
:101EA00078029093790280916700811102C00E94AC
:101EB000440C1F910F9108958F929F92AF92BF9201
:101EC000DF92EF92FF920F931F93CF93DF93EC017A
:101ED000D62E042F413009F06BC060E00E94DC2850
:101EE0000D2D10E0C00FD11F6091AC027091AD02BA
:101EF000CE010E94F928C00FD11F6091B7027091E6
:101F0000B802CE010E94F928C00FD11F6091AB0228
:101F1000CE010E94DC28C00FD11F6091BB02CE0110
:101F20000E94DC28C00FD11F6091B9027091BA02E3
:101F3000CE010E94F928C00FD11F6091B202CE01DC
:101F40000E94DC28C00FD11F6091BC02CE010E940C
:101F5000DC28C00FD11F6091BD02CE010E94DC2899
:101F6000C00FD11F4091BE025091BF026091C002CC
:101F70007091C102CE010E94ED28C00FD11F409187
:101F8000B3025091B4026091B5027091B602CE01D5
:101F90000E94ED284091AE025091AF026091B002D4
:101FA0007091B102C8018C0F9D1F0E94ED2865C180
:101FB00041115FC1062F10E0C00FD11FCE010E945A
:101FC000D628813024E0920728F49093AD028093C4
:101FD000AC0206C080E094E09093AD028093AC0226
:101FE000C00FD11FCE010E94D628813034E0930764
:101FF00028F49093B8028093B70206C080E094E082
:102000009093B8028093B702C00FD11FCE010E94F7
:10201000C828843118F08093AB0203C08EEB809304
:10202000AB02C00FD11FCE010E94C828823318F026
:102030008093BB0203C086E98093BB02C00FD11F0F
:10204000CE010E94D6289C0120513109213831400F
:1020500028F49093BA028093B90206C080E690E01B
:102060009093BA028093B902C00FD11FCE010E9493
:10207000C828823318F08093B20203C086E98093A7
:10208000B202C00FD11FCE010E94C8289FEF980F47
:10209000903118F48093BC0203C086E08093BC02A8
:1020A000C00FD11FCE010E94C8289FEF980F923019
:1020B00018F48093BD0203C082E08093BD02C00F7C
:1020C000D11FCE010E94D0284B015C0120E030E0FE
:1020D00040E050E40E94892618169CF02AE939E96C
:1020E00049E95EE3C501B4010E942A2588234CF02A
:1020F0008092BE029092BF02A092C002B092C10232
:102100000CC083E393E3A3E3BFE38093BE02909309
:10211000BF02A093C002B093C102C00FD11FCE0175
:102120000E94D0284B015C0120E030E040E85FE3F2
:102130000E94892618169CF02DEC3CEC4CEC5DE3DB
:10214000C501B4010E942A2588234CF08092B30275
:102150009092B402A092B502B092B6020CC080E098
:1021600090E0A0E8BFE38093B3029093B402A09301
:10217000B502B093B602C8018C0F9D1F0E94D028F3
:102180004B015C0120E030E040EA50E40E948926E7
:1021900018165CF02DEC3CEC4CEC5DE3C501B40191
:1021A0000E942A2588230CF05BC083E393E3A3EA13
:1021B000BFE38093AE029093AF02A093B002B093BE
:1021C000B1025BC01F5F03C011E0ED2CF12C2FEFBB
:1021D000210F2E9DC0012F9D900D11248C0F9D1F4E
:1021E0000E94D02880909E0290909F02A090A00212
:1021F000B090A10286169706A806B90678F46093F7
:102200009E0270939F028093A0029093A10210936C
:102210007D021530B8F210927D0203C0153090F2A5
:102220002CC0033051F540919E0250919F02609165
:10223000A0027091A10280917D029E018D9D200DD2
:10224000311D1124C9010E94FF2880917D028F5FFA
:10225000853018F480937D0210C010927D020DC06D
:102260008092AE029092AF02A092B002B092B10200
:1022700004C0423009F4A8CFD4CFDF91CF911F9191
:102280000F91FF90EF90DF90BF90AF909F908F9055
:102290000895CF92DF92EF92FF92CF93D09AD19A86
:1022A000D29AD39A8C9A8D9ADB9AD89AC59AC69A62
:1022B000C79A379A309A319A329A88E090E00E9411
:1022C000C828882389F00E94090B41E064E088E077
:1022D00090E00E945C0FC5E043E064E080E890E09D
:1022E0000E945C0FC150C1F740E064E088E090E0DC
:1022F0000E945C0F42E064E080E890E00E945C0F86
:102300002091BE023091BF024091C0025091C102A3
:102310006091B3027091B4028091B5029091B602BF
:102320000E948E262BED3FE049E450E40E948E2669
:102330006B017C016091BC0270E080E090E00E9443
:10234000D9259B01AC01C701B6010E942F256093DE
:102350008E0270938F0280939002909391028DEB86
:1023600097E3A6E8B7E38093920290939302A09339
:102370009402B093950285B58E6085BD8EEF83BDC6
:1023800083EA8FBD8BE08EBD8091AC029091AD024F
:102390009BBD8ABD8091B7029091B80299BD88BD5E
:1023A0002091BD028091B9029091BA02289FB0019C
:1023B000299F700D112480E090E00E94D7259B0199
:1023C000AC0160E070E084EB93E40E942F25209143
:1023D000AE023091AF024091B0025091B1020E9422
:1023E0002F256093860270938702809388029093D2
:1023F00089020E94921C0E941A208091B2020E94BF
:10240000731C0E94491C789480916600811102C05F
:102410000E94A10D85B7886085BF8BB780688BBF90
:10242000CF91FF90EF90DF90CF900895CF93809160
:10243000A7029091A8022091A9023091AA020A96BF
:102440008217930788F42091A9023091AA02AFEF76
:10245000B0E00E9498276093A3027093A402809337
:10246000A5029093A60218C02091A7023091A8025D
:102470004091A202AFEFB0E00E949827DC01CB01AF
:10248000840F911DA11DB11D8093A3029093A402FE
:10249000A093A502B093A6026091A3027091A4023A
:1024A0008091A5029091A6026115710581059105A3
:1024B000B1F10E94D7252091920230919302409170
:1024C0009402509195020E948E269B01AC0160E01F
:1024D00070E080E89FE30E942F256093960270933E
:1024E0009702809398029093990226E636E646E694
:1024F00050E40E948E269B01AC0160918E02709187
:102500008F0280919002909191020E948E2660939A
:102510008A0270938B0280938C0290938D0220919B
:10252000A9023091AA026091BC0270E08CED95E0A6
:102530000E945C276217730780F589B78F7789BF80
:1025400014BC1092AA021092A9021092A802109232
:10255000A7021092A3021092A4021092A502109258
:10256000A60210928A0210928B0210928C02109294
:102570008D0210928202109296021092970210928F
:102580009802109299021092A202F89443E064E03B
:1025900080E890E00E945C0F7894C091AB026C2FB1
:1025A00070E080E090E00E94D92520918A0230916D
:1025B0008B0240918C0250918D020E942A25882323
:1025C00074F46C2F70E080E090E00E94D725609357
:1025D0008A0270938B0280938C0290938D02CF912C
:1025E00008952F923F924F925F926F927F928F92B7
:1025F0009F92AF92BF92CF92DF92EF92FF920F9392
:102600001F93CF93DF93CDB7DEB72E970FB6F89415
:10261000DEBF0FBECDBF5C014B015A874987D22E6A
:1026200020E048E065E080EA9BE00E94FA200E94FA
:102630001A2081E00E94F41C8AE00E947D1CC801DF
:102640000E94902268E18AE50E94891C8CE690E055
:102650000E94902264E28AE50E94891C81E790E052
:102660000E94902260E38AE50E94891C86E790E040
:102670000E949022DD2009F468C02D2D30E0121652
:102680001306BCF480E001E010E0A801440F551FE0
:10269000000F111F000F111F000F111F040F151F36
:1026A0008F5F482F082E000C550B421753076CF311
:1026B00002C001E010E069E286E00E94891C8BE71D
:1026C00090E00E9490222801612C712CC301B2017C
:1026D0000E94D7256D837E838F839887B40180E025
:1026E00090E00E94D7252D813E814F8158850E9420
:1026F0002F25A30192010E94292463E386E00E9412
:10270000891C80E890E00E949022B50180E090E072
:102710000E94D7252D813E814F8158850E942F250B
:10272000A30192010E94292429852B873A853C87A1
:10273000AD86BE860F2EFDE05F2EF02DED2CF12C28
:102740000F2EF3EFCF2EF02D1BC069E286E00E9422
:10275000891C8BE790E00E949022B40180E090E019
:102760000E94C42263E386E00E94891C80E890E016
:102770000E949022B50180E090E00E94C422D4CF54
:1027800089859A85892B99F02B853C8500E0ADECF5
:10279000BCEC0E9498279C01369527953695279585
:1027A000369527950F5F2115310589F701C000E0A7
:1027B0001C82A114B10409F4BFC12D853E85662495
:1027C000639401C0682EADECBCEC0E9498279C017C
:1027D00036952795369527953695279581E0860D70
:1027E0002115310579F76C82712CC3010E94A7274E
:1027F0009A8389831B82161417040CF04DC0EB8555
:10280000FC8560E070E080E0402F50E064177507C1
:102810007CF569807A80680E711C87FD7A949F012F
:10282000ADECBCEC0E949827969587959695879578
:10283000969587959C01220F331F880F991F880F4B
:10284000991F880F991F820F931FDF01A81BB90BD7
:10285000CD01D3018C939F01ADECBCEC0E94982775
:10286000FC01F695E795F695E795F695E79507C08F
:10287000A981BA81A80FB11D87FDBA951C928B81E1
:102880008F5F8B83682F082E000C770B2C8130E034
:10289000621773070CF4BACF64E185E00E94891CCB
:1028A00020E041E16CE084E790E00E94FA208C8116
:1028B0000FEF080F059D002D11240B5F81508B83B6
:1028C00088230CF1E981FA81E80FF11D87FDFA9563
:1028D0006081062E000C770B880B990B0E94C42296
:1028E0008B81082E000C990B8E159F0539F4DD2085
:1028F00029F08EE592E00E9490220B5F8B8181503F
:102900008B838823FCF64CE0400F24E264E1802FA7
:102910000E9423200E94491C0E946B0D8111FCCF54
:1029200000E00E946B0D882309F4FAC0813009F0A1
:1029300085C00F5F202F002E000C330B8C8190E0A0
:102940002817390709F0A6C09E012F5F3F4F1901D4
:102950000E94C00AA816B90608F412CF8815990576
:1029600008F40ECF0E946B0D8111FCCF24E241E1EF
:1029700064E185E00E94232010E00E946B0D882313
:1029800091F1833021F4115072F512E02CC08230A5
:1029900029F41F5F13303CF110E025C0813019F598
:1029A000111116C000E021E244E765E186E50E94CE
:1029B000A01F2DE244E761E286E50E94A01F29E303
:1029C00044E76DE286E50E94A01F0E94491C62C098
:1029D000113009F4AEC0123031F4CE0101961C0161
:1029E0000E94C00AB1C000E021E244E765E186E54B
:1029F0000E94A01F2DE244E761E286E50E94A01F2D
:102A000029E344E76DE286E50E94A01F612F660F6F
:102A1000610F660F660F21E2260F6B5E0FEF44E732
:102A200086E50E94A01F0E94491C0E946B0D811127
:102A3000FCCF0E946B0D8823E1F39FCF8330A1F47C
:102A4000E981FA81802F002E000C990BE80FF91F05
:102A500020812F5F2083E981FA81E80FF91F8081AF
:102A60008A30C4F0108216C08230A1F4E981FA8164
:102A7000802F002E000C990BE80FF91F20812150A8
:102A80002083E981FA81E80FF91F8081882314F4FB
:102A900099E0908364E185E00E94891C8C818150DB
:102AA0008B83882304F1E981FA81E80FF11D87FD0A
:102AB000FA956081062E000C770B880B990B0E940B
:102AC000C4228B81082E000C990B8E159F0531F4C2
:102AD000DD2021F08EE592E00E9490228B818150D2
:102AE0008B83882304F78C8181500C9D902D1124B9
:102AF000859D900D112485E0890FDD2049F0202F60
:102B0000002E000C330B2E153F0514F48AE0890FBC
:102B10004CE0480F24E264E10E9423200E94491CFB
:102B20000E946B0D8111FCCF0E946B0D8823E1F395
:102B3000F8CE89859A8508C080E090E00E94A7279A
:102B40009A8389831B82A8CE2E960FB6F894DEBF97
:102B50000FBECDBFDF91CF911F910F91FF90EF90EE
:102B6000DF90CF90BF90AF909F908F907F906F90AD
:102B70005F904F903F902F9008950E941A2020E080
:102B800048E065E080EA9BE00E94FA2081E00E9434
:102B9000F41C84E00E947D1C85E890E00E94902255
:102BA0008AE10E947D1C60918A0270918B02809163
:102BB0008C0290918D022AE030E040E050E00E94CB
:102BC000292488E30E947D1C89E890E00E949022DD
:102BD00082E50E947D1C60917E0270917F02072E2B
:102BE000000C880B990B0E94D92520E030E040E2D0
:102BF00051E40E942F2524E630E040E050E00E949E
:102C0000292482E00E94F41C84E00E947D1C8DE84F
:102C100090E00E9490228AE10E947D1C60919602C1
:102C20007091970280919802909199022AE030E089
:102C300040E050E00E94292488E30E947D1C81E945
:102C400090E00E94902282E50E947D1C6091A30288
:102C50007091A4028091A5029091A6020E94C422C4
:102C600083E00E94F41C84E00E947D1C85E990E0D2
:102C70000E9490228AE10E947D1C60919A027091CC
:102C80009B02072E000C880B990B0E94C42288E33C
:102C90000E947D1C89E990E00E94902282E50E94BA
:102CA0007D1C6091A9027091AA0280E090E00E94D0
:102CB000C42284E00E94F41C84E00E947D1C8DE903
:102CC00090E00E9490228AE10E947D1C6091840223
:102CD0007091850280E090E00E94C42288E30E9407
:102CE0007D1C81EA90E00E94902282E50E947D1C7A
:102CF0006091A7027091A80280E090E00E94C42237
:102D000085E00E94F41C84E00E947D1C85EA90E02E
:102D10000E9490228AE10E947D1C60919C02062EF6
:102D2000000C770B880B990B0E94C42286E00E944E
:102D3000F41C84E00E947D1C89EA90E00E949022AD
:102D40008AE10E947D1C60919E0270919F02809199
:102D5000A0029091A1020E94C4220E94491C0895E1
:102D60000E94491180916700811102C00E94440CA9
:102D70000E94A40E0E9416120E94370D80916700D7
:102D8000811103C00E94380E02C00E94BD150E942E
:102D90006B0D882369F30E94CE16EACF80917102F1
:102DA000863054F0809170028F5F80937002109291
:102DB00071028230D9F424C088235CF480917002BF
:102DC00081508093700295E090937102823071F48B
:102DD00008C080917002823049F480917102843081
:102DE0007CF010927002109271020AC08091700201
:102DF000882334F482E08093700283E08093710230
:102E00000E941A2020E048E065E080EA9BE00E94F2
:102E1000FA2080917002811189C08AE00E947D1C95
:102E200081E00E94F41C8DEA90E00E94902285E5EA
:102E30000E947D1C6091B7027091B80280E090E022
:102E40000E94C4228AE00E947D1C82E00E94F41C41
:102E500086EB90E00E94902285E50E947D1C6091A7
:102E6000AC027091AD0280E090E00E94C4228AE042
:102E70000E947D1C83E00E94F41C80EC90E00E9484
:102E8000902285E50E947D1C6091BE027091BF0278
:102E90008091C0029091C10228EE33E040E050E002
:102EA0000E9429248AE00E947D1C84E00E94F41C78
:102EB00088EC90E00E94902285E50E947D1C609144
:102EC000B3027091B4028091B5029091B60228EEDF
:102ED00033E040E050E00E9429248AE00E947D1CFB
:102EE00085E00E94F41C8EEC90E00E94902285E523
:102EF0000E947D1C6091BC0270E080E090E00E9426
:102F0000C4228AE00E947D1C86E00E94F41C86EDAB
:102F100090E00E94902285E50E947D1C6091BD0298
:102F200070E080E090E00E94C422AAC0813009F0E5
:102F30007AC08AE00E947D1C81E00E94F41C80EE31
:102F400090E00E94902285E50E947D1C6091AB027A
:102F500070E080E090E00E94C4228AE00E947D1C24
:102F600082E00E94F41C8AEE90E00E94902285E5A7
:102F70000E947D1C6091AE027091AF028091B00200
:102F80009091B10228EE33E040E050E00E94292405
:102F90008AE00E947D1C83E00E94F41C82EF90E096
:102FA0000E94902285E50E947D1C6091B90270917B
:102FB000BA0280E090E00E94C4228AE00E947D1C58
:102FC00084E00E94F41C8BEF90E00E94902285E543
:102FD0000E947D1C6091BB0270E080E090E00E9446
:102FE000C4228AE00E947D1C85E00E94F41C87E0D8
:102FF00091E00E94902285E50E947D1C6091B202C2
:1030000070E080E090E00E94C4228AE00E947D1C73
:1030100086E00E94F41C84E191E00E94902285E504
:103020000E947D1C2DC0823059F58AE00E947D1CD3
:1030300081E00E94F41C8FE191E00E94902285E5DE
:103040000E947D1C8AE00E947D1C82E00E94F41C8C
:103050008FE291E00E9490228AE00E947D1C83E032
:103060000E94F41C8EE391E00E9490228AE00E946C
:103070007D1C84E00E94F41C8CE491E00E9490226C
:1030800060917102660F660F660F2FE0260F695F71
:103090004FE780E00E9423200E94491C0E946B0D94
:1030A0008111FCCF0E946B0D8823E1F3813009F080
:1030B0005EC380917002082E000C990BFC01EE0F8C
:1030C000FF1FE80FF91FEE0FFF1F80917102E80F3D
:1030D000F11D87FDFA95E031F10508F057C3E65D73
:1030E000FF4F0C9492274091B7025091B80201E52E
:1030F00011E020E060E070E080E094E00E94F112D6
:103100002091B7023091B8028217930709F43EC3A9
:103110009093B8028093B70241E064E088E090E0C9
:103120000E945C0F8091B7029091B80299BD88BD52
:103130002DC34091AC025091AD0200E611E020E0B9
:1031400060E070E080E094E00E94F1122091AC0217
:103150003091AD028217930709F418C39093AD0222
:103160008093AC0241E064E088E090E00E945C0F54
:103170008091AC029091AD029BBD8ABD07C320E057
:1031800030E04AE754E46091BE027091BF02809142
:10319000C0029091C1020E948E260E94A82500E7DD
:1031A00011E023E0AB016CE271E080ED97E00E945A
:1031B000F112BC0180E090E00E94D7256B017C01F8
:1031C00020E030E04AE754E46091BE027091BF0213
:1031D0008091C0029091C1020E948E269B01AC0199
:1031E000C701B6010E942A25882309F4CFC220E036
:1031F00030E04AE754E4C701B6010E942F256093EE
:10320000BE027093BF028093C0029093C10241E05E
:1032100064E088E090E00E945C0FB8C220E030E0FB
:103220004AE754E46091B3027091B4028091B50210
:103230009091B6020E948E260E94A82503E811E014
:1032400023E0AB0164E670E088EE93E00E94F112A7
:10325000BC0180E090E00E94D7256B017C0120E05A
:1032600030E04AE754E46091B3027091B402809177
:10327000B5029091B6020E948E269B01AC01C70157
:10328000B6010E942A25882309F480C220E030E09C
:103290004AE754E4C701B6010E942F256093B302A8
:1032A0007093B4028093B5029093B60241E064E05B
:1032B00088E090E00E945C0F69C24091BC0250E03F
:1032C0000EE811E020E061E070E080E190E00E9413
:1032D000F1122091BC0230E08217930709F456C224
:1032E0008093BC0241E064E088E090E00E945C0FC3
:1032F0004DC24091BD0250E00FE911E020E061E0D5
:1033000070E08FEF90E00E94F1122091BD0230E05A
:103310008217930709F43AC28093BD0241E064E04A
:1033200088E090E00E945C0F31C24091AB0250E017
:103330000EEA11E020E064E170E080E991E00E9493
:10334000F1122091AB0230E08217930709F41EC2FC
:103350008093AB0241E064E088E090E00E945C0F63
:1033600015C220E030E04AE754E46091AE0270916B
:10337000AF028091B0029091B1020E948E260E940D
:10338000A8250CEB11E023E0AB0164E670E088E8CF
:1033900093E10E94F112BC0180E090E00E94D725E9
:1033A0006B017C0120E030E04AE754E46091AE021A
:1033B0007091AF028091B0029091B1020E948E266E
:1033C0009B01AC01C701B6010E942A25882309F49C
:1033D000DDC120E030E04AE754E4C701B6010E94B5
:1033E0002F256093AE027093AF028093B00290934A
:1033F000B10241E064E088E090E00E945C0FC6C149
:103400004091B9025091BA020DEC11E020E060E168
:1034100070E080E991E00E94F1122091B9023091B0
:10342000BA028217930709F4B1C19093BA0280934C
:10343000B90241E064E088E090E00E945C0FA6C120
:103440004091BB0250E001EE11E020E062E370E049
:103450008FEF90E00E94F1122091BB0230E08217C2
:10346000930709F493C18093BB0241E064E088E0D4
:1034700090E00E945C0F8AC14091B20250E007E0E8
:1034800011E020E062E370E08FEF90E00E94F11223
:103490002091B20230E08217930709F477C180933C
:1034A000B2020E94731C41E064E088E090E00E9458
:1034B0005C0F6CC19091670081E089278093670061
:1034C0000E946B0D8111FCCF0E94B0160E94A10DCD
:1034D0005DC10E941A2082E00E94F41C8DE20E94CD
:1034E0007D1C85EF91E00E94902284E00E94F41CF4
:1034F00082E20E947D1C8BEF91E00E94902286E088
:103500000E94F41C8CE10E947D1C85E092E00E94E8
:10351000902284E50E947D1C88E092E00E94902227
:10352000C0E00F2EFBE3FF2EF02D0F2EF4E1CF2E87
:10353000F02D19E6D1E0CF9D802D11244EE2480FE9
:103540000FEF29E36DE28C5E0E94A01FC11103C042
:10355000412F8FE402C04EE28C2D00E029E36DE2A2
:103560000E94A01F0E94491C0E946B0D8111FCCF7C
:103570000E946B0D9EEF980F923030F4CD270E9481
:103580006B0D8111FCCFD7CF813091F7CC2309F49B
:10359000FDC00E941A2081E00E94F41C88E00E9475
:1035A0007D1C8CE092E00E94902283E00E94F41C3B
:1035B00082E00E947D1C8EE192E00E9490220E9497
:1035C000491C10929E0210929F021092A00210922B
:1035D000A102C12CD12C7601C39443E064E080E8C1
:1035E00090E00E945C0F83E50E947D1CC701B6013C
:1035F0000E94C4228CE292E00E94902265E070E07A
:1036000080E090E00E94C4220E94491C8FEFC81AFB
:10361000D80AE80AF80A86E0C816D104E104F104E1
:10362000E1F686E00E94F41C8DE20E947D1C8EE291
:1036300092E00E9490220E94491C0E946B0D811111
:10364000FCCF0E946B0D8823E1F3A0C00E941A20DA
:1036500082E00E94F41C88E20E947D1C84E392E0D8
:103660000E94902284E00E94F41C84E10E947D1C50
:103670008CE392E00E94902286E00E94F41C8CE190
:103680000E947D1C85E092E00E94902284E50E94C9
:103690007D1C88E092E00E949022C0E00F2EFBE3A8
:1036A000FF2EF02D0F2EF4E1CF2EF02D19E6D1E0F4
:1036B000CF9D802D11244EE2480F0FEF29E36DE2DC
:1036C0008C5E0E94A01FC11103C0412F8FE402C075
:1036D0004EE28C2D00E029E36DE20E94A01F0E94C3
:1036E000491C0E946B0D8111FCCF0E946B0D9EEF57
:1036F000980F923030F4CD270E946B0D8111FCCFD2
:10370000D7CF813091F7CC2309F440C00E941A2012
:1037100083E00E94F41C88E00E947D1C8CE492E00F
:103720000E9490220E94491C0E94090B41E064E023
:1037300088E090E00E945C0F85E00E94F41C8DE21E
:103740000E947D1C8EE292E00E9490220E94491C01
:103750000E946B0D8111FCCF0E946B0D8823E1F359
:1037600015C00E946B0D8111FCCF0E94B0168230F3
:1037700031F4809171028F5F8093710207C08330B2
:1037800029F4809171028150809371020E946B0D27
:103790008823E1F30E94CE1666956695669590E8BB
:1037A000699FB0011124680F711DFB01E453FD4FA7
:1037B0004083089566956695669590E8699FB00187
:1037C0001124680F711DFB01E453FD4F80810895A2
:1037D000FF920F931F93CF93DF93C82F062F172FBE
:1037E000F42E0E94A6240E94A324883031F0803158
:1037F00021F081E08093C20233C088E70E94B424A4
:103800000E94A324883131F0803221F081E080933E
:10381000C20226C08C2F0E94B4240E94A3248832A6
:1038200019F4F11007C01AC08033D9F381E08093F6
:10383000C20216C0C02FD12F8E010F5F1F4FFA9406
:103840000F0D111D89910E94B4240E94A324883277
:1038500011F0803319F4C017D107A1F71092C202FA
:103860000E94AE24DF91CF911F910F91FF90089598
:10387000CF93DF931F92CDB7DEB7898341E0BE01BE
:103880006F5F7F4F80E00E94E81B0F90DF91CF9128
:103890000895CF93DF9381E20E94381C80E00E945C
:1038A000381C8FE70E94381C82E20E94381C80E09E
:1038B0000E94381C87E00E94381CC0E0D0E0BE01A6
:1038C00062957295707F7627607F762764537D4F6F
:1038D00040E180E40E94E81B2196C034D10579F7CD
:1038E000DF91CF910895CF93C82F81E80E94381CB3
:1038F0008C2F0E94381CCF910895882314F0809358
:10390000C30208959091C402903410F48093C402CD
:103910000895CF93C62F0E947D1C8C2F0E94821C7D
:10392000CF9108950E9499248EEA0E94381C85ED5B
:103930000E94381C80EF0E94381C88EA0E94381CC4
:103940008FE30E94381C83ED0E94381C80E00E94A7
:10395000381C8DE80E94381C84E10E94381C80E4E9
:103960000E94381C80E20E94381C80E00E94381CB3
:1039700081EA0E94381C88EC0E94381C8AED0E9463
:10398000381C82E10E94381C81E80E94381C8FEFAD
:103990000E94381C89ED0E94381C81EF0E94381C5F
:1039A0008BED0E94381C80E20E94381C84EA0E9441
:1039B000381C86EA0E94381C8EE20E94381C8FEA6E
:1039C0000E94381C60E080E00E94891C86EA809397
:1039D000C5021092CA021092C9021092C802109237
:1039E000C4021092C3020895883028F4880F880F0B
:1039F000880F8093C40208958091C30208958F9226
:103A00009F92AF92BF92CF92DF92EF92FF920F936D
:103A10001F93CF93DF93062F142F0E94891CD09100
:103A2000C402C091C3026D2F8C2F0E94DA1B1F3F6E
:103A300091F4902F9770812C912C540183947501EF
:103A4000640104C0CC0CDD1CEE1CFF1C9A95D2F75F
:103A5000482F4C2913C00770C12CD12C7601C39478
:103A6000B701A60104C0440F551F661F771F0A95B2
:103A7000D2F78A019B010095482F40236D2F8C2F90
:103A80000E94CC1BDF91CF911F910F91FF90EF907F
:103A9000DF90CF90BF90AF909F908F9008953F920E
:103AA0004F925F926F927F928F929F92AF92BF924E
:103AB000CF92DF92EF92FF920F931F93CF93DF93FA
:103AC000982E88230CF4C6C044230CF4C3C0603481
:103AD00008F0C0C0203408F0BDC011E0812E861A65
:103AE000820E181B140F462F4770762E741AE82C7E
:103AF000F12C88E090E0841B9109E816F9067CF42B
:103B000088E090E08E199F092FEF30E0590102C044
:103B1000B594A7948A95E2F78A2D682C04C088E0B2
:103B2000682E641A8FEFA82EB12C02C0AA0CBB1C01
:103B30004A95E2F73A2C672D892D0E94891C1123A2
:103B4000C9F1512C0F2EF4ECCF2EF2E0DF2EF02D28
:103B5000C3ECD2E0A094F6014080B880642D8B2D98
:103B60000E94DA1B0F3F19F4482F432902C0482F47
:103B70004A219B2D9F5F9883642D8B2D0E94CC1B27
:103B800053945112E8CF16C0C85F6C2F892D0E9444
:103B9000891C1123F1F07A2CF6016081F2018081F9
:103BA000982F9F5F9083402F0E94CC1B73947116B7
:103BB00081F0F2CFC72D6718A12C0F2EF4ECCF2E79
:103BC000F2E0DF2EF02D0F2EF3EC4F2EF2E05F2E01
:103BD000F02D262D2C0FE22FF0E0CF010896E816ED
:103BE000F90694F62815B0F5EE1AFF0A8FEF90E06B
:103BF0009C0102C0220F331FEA94E2F77901E0949E
:103C00006C2F685F892D0E94891C112319F1B12C3A
:103C10000F2EF4ECCF2EF2E0DF2EF02DC3ECD2E02D
:103C20009E2C9094F601A080F8806A2D8F2D0E9422
:103C3000DA1B0F3F19F4482F4E2902C0482F4921A3
:103C40009F2D9F5F98836A2D8F2D0E94CC1BB3946C
:103C5000B112E8CFDF91CF911F910F91FF90EF90BC
:103C6000DF90CF90BF90AF909F908F907F906F909C
:103C70005F904F903F9008952F923F924F925F92A6
:103C80006F927F928F929F92AF92BF92CF92DF926C
:103C9000EF92FF920F931F93CF93DF93CDB7DEB7D1
:103CA0002C970FB6F894DEBF0FBECDBF5C01662E19
:103CB00029832091C3022F833091C4023A87822F37
:103CC000860F1AF480E8682E621A842F90E0079617
:103CD0009595879595958795959587958D839E83E1
:103CE0009A85969596959695890F893048F02D81FD
:103CF0003E81285F3F4FA901481B51095E834D83D8
:103D00004A8457E045228D819E81892B09F4FAC0AF
:103D10009A859C83712C262C312C512C88E090E0C4
:103D2000FC01E419F109FB83EA830F2EF4ECCF2E9A
:103D3000F2E0DF2EF02D03EC12E06C818F810E9407
:103D4000891C39862886729CC001739C900D1124B1
:103D50007C01E218F308662009F43CC09C012A0D9E
:103D60003B1D852C3C872B87EB85FC859490042C90
:103D700001C0990C0A94EAF7772079F0F501EE0D6D
:103D8000FF1D2FEFE21AF20A849190E00A8002C030
:103D9000959587950A94E2F7982A3981313039F45C
:103DA000F6016081F80180810E94DA1B982AF601F1
:103DB0006081F8018081982F9F5F9083492D0E9438
:103DC000CC1B83942B853C852F5F3F4F3C872B87F3
:103DD0008610CACFEBECF2E08081882341F0F60137
:103DE0006081F80180810E94DA1B482F01C0452DB7
:103DF000F6016081F80180810E94CC1BFC81F85F94
:103E0000FC837394872D90E02D813E818217930768
:103E100008F493CF2230310508F474C06F2F8F81DE
:103E20000E94891C272D30E0215031094885598591
:103E3000249FC001259F900D349F900D1124662072
:103E400009F43EC04501880E991E65015FEFC51A51
:103E5000D50A6A94C60CD11CC80ED91E0F2EF4ECDC
:103E6000EF2EF2E0FF2EF02D03EC12E088E090E060
:103E70005C01A418B1083401F7018080F80190803A
:103E8000682D892D0E94DA1BF301449150E00A2C21
:103E900002C0559547950A94E2F7482BF981F13015
:103EA00009F4482B892D8F5FF8018083682D892DB7
:103EB0000E94CC1BFFEF6F1A7F0A6C147D04E1F6A1
:103EC0008091CB02882399F0813041F46091C40243
:103ED0008091C3020E94DA1B482F0AC06091C4027D
:103EE0008091C3020E94DA1B482F409501C040E038
:103EF0006091C402E3ECF2E08081982F9F5F908391
:103F00000E94CC1B0E94FC1C6A850E94891C2C9676
:103F10000FB6F894DEBF0FBECDBFDF91CF911F91DA
:103F20000F91FF90EF90DF90CF90BF90AF909F9058
:103F30008F907F906F905F904F903F902F9008955B
:103F4000DF92EF92FF920F931F93CF93DF93E82EB0
:103F5000162FD42EF22ED02F88230CF449C04423E0
:103F60000CF446C0603408F043C08FE3821708F4B5
:103F70003FC04E1500F11CC04D2F612F8C2F0E94A9
:103F8000FF1CCF5F0C17C0F7DE14D8F017C04D2F01
:103F90006F2D8C2F0E94FF1CCF5F0C17C0F7F116FE
:103FA00098F01CC00D2F4D2D8D2D0E944F1D20C04F
:103FB000042FCE2DE1CF0E2DC42FDECF0D2DCE2D13
:103FC000E6CF0E2DCD2DE3CF0D2F212F4E2D6F2DB2
:103FD0008E2D0E944F1D212F6F2DE4CF0D2F2F2DE1
:103FE0004E2D612F8E2D0E944F1D2F2D612FDACF68
:103FF000DF91CF911F910F91FF90EF90DF90089587
:104000000F931F93CF93DF93182FD0E000E00BC0E6
:10401000412F6D2F8C2F0E94CC1BCF5FC038C1F772
:10402000D85FD03411F0C02FF3CFDF91CF911F9123
:104030000F91089580E00E94002008950F930E9440
:104040004F1D0F9108952F923F925F926F927F9232
:104050008F929F92AF92BF92CF92DF92EF92FF9298
:104060000F931F93CF93DF93C82E81E0D82EDC18D7
:10407000D40EB82EB61AB20E462F4770A62EA41A2A
:104080000B2D10E088E090E0841B910908171907B8
:104090007CF488E090E0801B910B2FEF30E0B901B9
:1040A00002C0759567958A95E2F7CB015B2C04C039
:1040B00088E0582E541A8FEF682E01C0660C4A957E
:1040C000EAF76A2D8C2D0E94891CDD20D9F1812C04
:1040D0000F2EF4ECEF2EF2E0FF2EF02DC3ECD2E029
:1040E000F70170809880672D892D0E94DA1B992D29
:1040F0009F5F9883482F4625672D892D0E94CC1BF2
:1041000083948D10EDCF1EC0C85F6C2F8C2D0E9444
:10411000891CDD2039F1672CF7015080F101808086
:10412000652D882D0E94DA1B982D9F5FF1019083E9
:10413000482F4095652D882D0E94CC1B63946D14EB
:1041400089F0EACFCA2D5A18A52C712C0F2EF4EC49
:10415000EF2EF2E0FF2EF02D0F2EF3EC2F2EF2E0DB
:104160003F2EF02D8A2D8C0FE82FF0E0DF011896FE
:104170000A171B074CF68B1558F50E1B1F0B8FEFFC
:1041800090E09C0102C0220F331F0A95E2F7B22E85
:10419000B0946C2F685F8C2D0E94891CDD20C1F0CB
:1041A000E12C04EC12E0C3ECD2E0F801C080F8800E
:1041B0006C2D8F2D0E94DA1B9F2D9F5F9883482FB7
:1041C0004B256C2D8F2D0E94CC1BE394ED10EDCF71
:1041D000DF91CF911F910F91FF90EF90DF90CF90E3
:1041E000BF90AF909F908F907F906F905F903F9027
:1041F0002F9008956623F4F04034E0F42230D0F498
:104200009093C7028093C6026093C8024093C9028C
:1042100050E041505109CA0199230CF40796959535
:10422000879595958795959587958F5F8093CA0219
:104230002093CB0208952F923F924F925F926F92FC
:104240007F928F929F92AF92BF92CF92DF92EF9226
:10425000FF920F931F93CF93DF93CDB7DEB72B97CA
:104260000FB6F894DEBF0FBECDBF2091C3022C83E2
:104270003091C4023F839091CA0280522091C802BB
:10428000299F900111242F5F3F4F829FA001839FA0
:10429000500D1124598748874F5F5F4F5E834D83D0
:1042A000E091C602F091C702A885B985EA0FFB1F0D
:1042B00054907F80B7E07B22992309F492C0EF816C
:1042C000EB83312C212C88E090E09C0127193109E7
:1042D0003A8329830F2EFBEC8F2EF2E09F2EF02DD8
:1042E0000F2EF4ECAF2EF2E0BF2EF02D03EC12E017
:1042F000672C752C6B818C810E94891C4D815E819D
:10430000430D511D5B874A877A0151E0E51AF10898
:10431000772009F44FC00F2EFAECCF2EF2E0DF2EFB
:10432000F02D832D362C672C722C582EA6ECB2E083
:104330002D913C91EA85FB85E20FF31FE4914E2E0F
:10434000032C01C0440C0A94EAF7552081F0F901CE
:10435000EE0DFF1D249130E0098002C035952795B0
:104360000A94E2F7422AF6018081E80EF11CD4019A
:104370008C91813039F4F5016081D8018C910E94D3
:10438000DA1B482AF5016081D8018C91982F9F5F34
:104390009C93442D0E94CC1BF60180812A853B858D
:1043A000280F311D3B872A8773947610BFCF762C58
:1043B000632C352CD4018C91811107C0422DF5015D
:1043C0006081D8018C910E94CC1BBB81B85FBB83FC
:1043D00033948091CA02381608F48CCF572C762C6F
:1043E00003C0EF81EB83312C2F81229526952695F2
:1043F000237030E08091C9028295869586958370FE
:1044000090E0FF818F0F911D2817390709F469C0CB
:104410006B818C810E94891C28853985230D311D73
:104420003A832983552009F451C0312C0F2EF4EC26
:10443000AF2EF2E0BF2EF02D03EC12E00F2EF6ECC3
:10444000CF2EF2E0DF2EF02D88E090E0AC0147198E
:1044500051093A010F2EFBECEF2EF2E0FF2EF02D6A
:104460000F2EFAEC8F2EF2E09F2EF02DD5012C901E
:10447000F8014080622D842D0E94DA1BD601ED9157
:10448000FC9129813A81E20FF31F449150E0062C00
:1044900002C0559547950A94E2F7482BD7019C91A5
:1044A000913009F4482B842D8F5FF8018083622DB1
:1044B000842D0E94CC1BD4018C91E981FA81E80FF4
:1044C000F11DFA83E98333943510D0CF8091CB026C
:1044D000811107C040E06091C4028091C3020E9434
:1044E000CC1B8C818F5F6F81850D0E94891C2B9660
:1044F0000FB6F894DEBF0FBECDBFDF91CF911F91F5
:104500000F91FF90EF90DF90CF90BF90AF909F9072
:104510008F907F906F905F904F903F902F90089575
:10452000EF92FF920F931F93CF93DF93EC0188815B
:10453000882319F19091C3022091C80230E0290F1D
:10454000311D20383105CCF421960F2EF3ECEF2EDF
:10455000F2E0FF2EF02D08EC12E00AC0F701908186
:10456000F801208130E0290F311D203831052CF46D
:104570000E941B2189918111F1CFDF91CF911F9171
:104580000F91FF90EF9008950F931F93CF93DF93B8
:10459000CDB7DEB72C970FB6F894DEBF0FBECDBFF8
:1045A000611571058105910521F480E30E941B21AD
:1045B00045C161157105810520E8920709F43EC1E6
:1045C000FE0131962CE0DF011D922A95E9F720E3E8
:1045D0002B872A87298728872F832E832D832C8357
:1045E0002B832A83298399235CF49B01AC018827C0
:1045F0009927DC01821B930BA40BB50B41E003C090
:10460000DC01CB0140E081303AEC93073AE9A307A3
:104610003BE3B30794F02A812F5F01C0232F9A5CFC
:10462000AA49BB43322F3F5F81305AEC95075AE9C4
:10463000A5075BE3B50794F72A83811521EE92075E
:1046400025EFA20725E0B20794F02B812F5F01C070
:10465000232F915EA54FB540322F3F5F811551EE5C
:10466000950755EFA50755E0B50794F72B838038DC
:1046700026E9920728E9A207B10594F02C812F5F63
:1046800001C0232F80589649A849B109322F3F5FB6
:10469000803856E9950758E9A507B10594F72C83AA
:1046A000803422E492072FE0A207B10594F02D8117
:1046B0002F5F01C0232F80549244AF40B109322FA5
:1046C0003F5F803452E495075FE0A507B10594F79A
:1046D0002D83803A26E8920721E0A207B10594F0E5
:1046E0002E812F5F01C0232F805A9648A140B10927
:1046F000322F3F5F803A56E8950751E0A507B10594
:1047000094F72E83803127E29207A105B1058CF042
:104710002F812F5F01C0232F80519742A109B1093A
:10472000322F3F5F803157E29507A105B1059CF715
:104730002F83883E23E09207A105B1058CF02885E0
:104740002F5F01C0232F885E9340A109B109322F4A
:104750003F5F883E53E09507A105B1059CF7288788
:1047600084369105A105B10584F029852F5F01C02C
:10477000232F84569109A109B109322F3F5F843656
:104780009105A105B105A4F729878A309105A105F6
:10479000B1057CF02A852F5F01C0232F0A97A1095C
:1047A000B109322F3F5F8A309105A105B105ACF701
:1047B0002A87181619061A061B065CF45B858C01FD
:1047C0009D010150110921093109D9F7652F680FA1
:1047D0006B878981803361F480E08F5FE1E0F0E0F6
:1047E000EC0FFD1FE80FF11D90819033B1F301C074
:1047F00080E0442331F08150FE01E80FF11D9DE27D
:1048000091834AE0481B20E090E0E1E0F0E0EC0F0B
:10481000FD1FE20FF11DDF01A80FB91F3C9130838E
:104820002F5F421790F7E1E0F0E0EC0FFD1FE20F81
:10483000F11D1082CE0101960E9490222C960FB697
:10484000F894DEBF0FBECDBFDF91CF911F910F91C6
:1048500008958F929F92AF92BF92CF92DF92EF9284
:10486000FF926B017C0149015A0120E030E0A9016F
:104870000E942A2581110AC080E30E941B218EE23A
:104880000E941B2180E30E941B214AC020E030E0EF
:1048900040E05FECC701B6010E94892688230CF432
:1048A0003FC020E030E040E05FE4C701B6010E9475
:1048B0002A258823ACF520E030E0A901C701B60124
:1048C0000E942A2588233CF4F7FAF094F7F8F09434
:1048D0008DE20E941B21C701B6010E94A1250E9402
:1048E000C4228EE20E941B21C701B6010E94A825A6
:1048F0000E94D7259B01AC01C701B6010E94BD24CF
:104900006B017C01C501B4010E94D7259B01AC015C
:10491000C701B6010E948E260E94A1250E94C422D2
:10492000FF90EF90DF90CF90BF90AF909F908F90CF
:104930000895A19AA09AA99AA89A11B88CE080B972
:1049400084E086BF089581B1887F089584EA86BF98
:1049500006B607FEFDCF0E94A324089585ED86BF0D
:1049600006B604FCFDCF089583B984E886BF06B679
:1049700007FEFDCF0E94A32408955058BB27AA2705
:104980000E94D5240C944F260E94412638F00E94A4
:10499000482620F039F49F3F19F426F40C943E2663
:1049A0000EF4E095E7FB0C943826E92F0E94602670
:1049B00058F3BA17620773078407950720F079F454
:1049C000A6F50C9482260EF4E0950B2EBA2FA02D9E
:1049D0000B01B90190010C01CA01A0011124FF27AC
:1049E000591B99F0593F50F4503E68F11A16F040A7
:1049F000A22F232F342F4427585FF3CF46953795A6
:104A00002795A795F0405395C9F77EF41F16BA0B6A
:104A1000620B730B840BBAF09150A1F0FF0FBB1F18
:104A2000661F771F881FC2F70EC0BA0F621F731F61
:104A3000841F48F4879577956795B795F7959E3FBE
:104A400008F0B0CF9395880F08F09927EE0F97954F
:104A5000879508950E94142608F481E008950E9425
:104A600043250C944F260E94482658F00E94412668
:104A700040F029F45F3F29F00C94382651110C9432
:104A800083260C943E260E94602668F39923B1F396
:104A9000552391F3951B550BBB27AA276217730764
:104AA000840738F09F5F5F4F220F331F441FAA1FF8
:104AB000A9F335D00E2E3AF0E0E832D091505040B4
:104AC000E695001CCAF72BD0FE2F29D0660F771F62
:104AD000881FBB1F261737074807AB07B0E809F048
:104AE000BB0B802DBF01FF2793585F4F3AF09E3FCD
:104AF000510578F00C9438260C9483265F3FE4F33C
:104B0000983ED4F3869577956795B795F7959F5F0F
:104B1000C9F7880F911D9695879597F90895E1E05B
:104B2000660F771F881FBB1F621773078407BA07BA
:104B300020F0621B730B840BBA0BEE1F88F7E09515
:104B400008950E94A8256894B1110C9483260895B5
:104B50000E94682688F09F5798F0B92F9927B7517F
:104B6000B0F0E1F0660F771F881F991F1AF0BA9511
:104B7000C9F714C0B13091F00E948226B1E00895C7
:104B80000C948226672F782F8827B85F39F0B93FB9
:104B9000CCF3869577956795B395D9F73EF49095C4
:104BA0008095709561957F4F8F4F9F4F0895E89442
:104BB00009C097FB3EF490958095709561957F4F65
:104BC0008F4F9F4F9923A9F0F92F96E9BB27939513
:104BD000F695879577956795B795F111F8CFFAF423
:104BE000BB0F11F460FF1BC06F5F7F4F8F4F9F4F54
:104BF00016C0882311F096E911C0772321F09EE8B2
:104C0000872F762F05C0662371F096E8862F70E017
:104C100060E02AF09A95660F771F881FDAF7880FF1
:104C20009695879597F90895990F0008550FAA0B47
:104C3000E0E8FEEF16161706E807F907C0F01216AF
:104C40001306E407F50798F0621B730B840B950BB2
:104C500039F40A2661F0232B242B252B21F4089507
:104C60000A2609F4A140A6958FEF811D811D0895A4
:104C700097F99F6780E870E060E008959FEF80EC0F
:104C8000089500240A9416161706180609060895B2
:104C900000240A9412161306140605060895092E18
:104CA0000394000C11F4882352F0BB0F40F4BF2B87
:104CB00011F460FF04C06F5F7F4F8F4F9F4F0895C7
:104CC00057FD9058440F551F59F05F3F71F04795BD
:104CD000880F97FB991F61F09F3F79F087950895A2
:104CE000121613061406551FF2CF4695F1DF08C0C1
:104CF000161617061806991FF1CF869571056105DE
:104D000008940895E894BB2766277727CB0197F985
:104D100008950E94142608F48FEF08950E94A1269A
:104D20000C944F260E94412638F00E94482620F01D
:104D3000952311F00C9438260C943E2611240C94E3
:104D400083260E94602670F3959FC1F3950F50E073
:104D5000551F629FF001729FBB27F00DB11D639F2D
:104D6000AA27F00DB11DAA1F649F6627B00DA11DD3
:104D7000661F829F2227B00DA11D621F739FB00D79
:104D8000A11D621F839FA00D611D221F749F3327E9
:104D9000A00D611D231F849F600D211D822F762F82
:104DA0006A2F11249F5750409AF0F1F088234AF05F
:104DB000EE0FFF1FBB1F661F771F881F91505040CB
:104DC000A9F79E3F510580F00C9438260C94832659
:104DD0005F3FE4F3983ED4F3869577956795B79552
:104DE000F795E7959F5FC1F7FE2B880F911D96956C
:104DF000879597F908950E946826E8F09E37E8F0B5
:104E00009639B8F49E3848F4672F782F8827985F32
:104E1000F9CF86957795679593959539D0F3B62F09
:104E2000B1706B0F711D811D20F487957795679583
:104E300093950C941F270C943A270C94832688236F
:104E400071F4772321F09850872B762F07C06623C3
:104E500011F499270DC09051862B70E060E02AF084
:104E60009A95660F771F881FDAF7880F96958795B2
:104E700097F908959F3F31F0915020F487957795E9
:104E80006795B795880F911D9695879597F9089521
:104E9000AA1BBB1B51E107C0AA1FBB1FA617B70760
:104EA00010F0A61BB70B881F991F5A95A9F780957C
:104EB0009095BC01CD01089597FB072E16F4009440
:104EC00007D077FD09D00E94482707FC05D03EF4A3
:104ED000909581959F4F0895709561957F4F0895A6
:104EE000A1E21A2EAA1BBB1BFD010DC0AA1FBB1FEE
:104EF000EE1FFF1FA217B307E407F50720F0A21B60
:104F0000B30BE40BF50B661F771F881F991F1A94CC
:104F100069F760957095809590959B01AC01BD01F6
:104F2000CF010895EE0FFF1F0590F491E02D099435
:104F3000A29FB001B39FC001A39F700D811D1124DA
:104F4000911DB29F700D811D1124911D08950F9325
:104F50001F93CF93DF938230910510F482E090E0AD
:104F6000E091CE06F091CF0620E030E0A0E0B0E086
:104F7000309719F1408151810281138148175907F7
:104F8000C8F08417950769F4109731F012960C93C6
:104F9000129713961C9327C00093CE061093CF064A
:104FA00022C02115310519F04217530718F49A0150
:104FB000BD01EF01DF01F801DBCF21153105F9F06B
:104FC000281B390B2430310580F48A819B816115BF
:104FD000710521F0FB019383828304C09093CF0677
:104FE0008093CE06FE01329644C0FE01E20FF31F0D
:104FF0008193919322503109398328833AC02091BB
:10500000CC063091CD06232B41F4209162003091E3
:1050100063003093CD062093CC0620916000309140
:1050200061002115310541F42DB73EB74091640070
:1050300050916500241B350BE091CC06F091CD0614
:10504000E217F307A0F42E1B3F0B2817390778F05F
:10505000AC014E5F5F4F2417350748F04E0F5F1FBE
:105060005093CD064093CC068193919302C0E0E02B
:10507000F0E0CF01DF91CF911F910F910895CF9371
:10508000DF93009709F481C0FC01329713821282EA
:10509000A091CE06B091CF06109781F42081318186
:1050A000820F931F2091CC063091CD062817390727
:1050B00051F5F093CD06E093CC0667C0ED0120E0FA
:1050C00030E0CE17DF0740F44A815B819E01411535
:1050D0005105F1F0EA01F5CFD383C28340815181BC
:1050E000840F951FC817D90759F488819981840FB7
:1050F000951F0296918380838A819B81938382830B
:105100002115310529F4F093CF06E093CE063DC07A
:10511000E901FB83EA8349915991C40FD51FEC172C
:10512000FD0761F480819181840F951F0296E9014A
:1051300099838883828193819B838A83E0E0F0E076
:1051400012968D919C911397009719F0FD01DC0147
:10515000F7CF8D919C9111979D012E5F3F4F820F4C
:10516000931F2091CC063091CD062817390769F49A
:10517000309729F41092CF061092CE0602C0138207
:105180001282B093CD06A093CC06DF91CF91089503
:10519000E199FECF9FBB8EBBE09A99278DB308950E
:1051A000A6E1B0E044E050E00C940E29A8E1B0E0A4
:1051B00042E050E00C940E29262FE199FECF9FBBD0
:1051C0008EBBE09A01970DB2021631F02DBB0FB6DF
:1051D000F894E29AE19A0FBE08950396272F0E9451
:1051E000DD280E94DC28252F0E94DD28242F0C9426
:1051F000DD280196272F0E94DD280C94DC28242F1F
:105200000E941D29252F0E941D290C9407290E9408
:105210001C29272F0C941D29DC01CB01FC01E199ED
:10522000FECF06C0FFBBEEBBE09A31960DB20D92E9
:1052300041505040B8F70895262FE199FECF9FBB0B
:105240008EBB2DBB0FB6F894E29AE19A0FBE019681
:065250000895F894FFCF61
:105256000000D00620000101560030004564697444
:10526600004261636B0053617665006D696E3A00BA
:105276006D61783A0053706400556274004672712D
:10528600005374500053747000537452006E53747C
:10529600005352740050687300545274004469619C
:1052A6006C2050574D004172726F772050574D0059
:1052B600576865656C204400526174696F004D61E2
:1052C600676E6574730053746570206D6F64650056
:1052D6004D6178207370656564004465672F6B6D5A
:1052E6006800534D207374657073005374657020A5
:1052F600696E7465722E004C434420636F6E74723F
:10530600617374004465627567206D6F6465004360
:10531600616C696272617465206172726F77004FA9
:10532600646F6D65746572207265736574004C6F89
:1053360061642064656661756C7473004578697490
:10534600004469616C206C696768742050574D0091
:105356004172726F77206C696768742050574D00F0
:10536600576865656C204469616D657465722028AF
:105376006D29004765617220726174696F004D6125
:10538600676E657473206F6E20776865656C003193
:105396002D66756C6C2C20322D68616C66004D6133
:1053A60078696D756D207370656564004465677214
:1053B60065657320706572206B6D2F680053746588
:1053C60070706572206D6F746F7220737465707380
:1053D600005374657020696E74657276616C20582E
:1053E60036347573005245534554004F444F4D456E
:1053F6005445523F004E4F005945530052455345C0
:1054060054494E47204F444F4D455445520043653D
:105416006C6C7320636C6561726564002F00444F89
:105426004E452100524553544F524500444546418E
:10543600554C542076616C7565733F004C4F414462
:10544600494E472044454641554C54532E2E2E0076
:1054560005060A020100080406020004060200040A
:00000001FF
