S00E00007370656564332E73726563D2
S11300000C94A10A0C94BE0A0C94A40C0C94BE0A81
S11300100C94720C0C94BE0A0C94BE0A0C94BE0A86
S11300200C94BE0A0C94890C0C943A0C0C94BE0AE1
S11300300C94BE0A0C94BE0A0C94BE0A0C94BE0A1C
S11300400C94BE0A0C94BE0A0C94BE0A0C94BE0A0C
S11300500C94BE0AA519CB19F119401A8F1AAB1AC0
S1130060C71AE31A321B521B6E1B8C1B981B9B1B5B
S11300700B1C411C0C000000F01F00FC7F00FEFF65
S1130080000FE00107C00107C00107C0010FE00134
S1130090FEFF00FC7F00F01F000C000000F01F00BA
S11300A0FC7F00FEFF000FE00107C00107C001074D
S11300B0C0010FE001FEFF00FC7F00F01F000C00F8
S11300C00000F01F00FC7F00FEFF000FE00107C0EE
S11300D00107C00107C0010FE001FEFF00FC7F0023
S11300E0F01F000C000000F01F00FC7F00FEFF006A
S11300F00FE00107C00107C00107C0010FE001FEC6
S1130100FF00FC7F00F01F000C000000F01F00FC4B
S11301107F00FEFF000FE00107C00107C00107C018
S1130120010FE001FEFF00FC7F00F01F000C000047
S113013000F01F00FC7F00FEFF000FE00107C0017C
S113014007C00107C0010FE001FEFF00FC7F00F0C3
S11301501F000C000000F01F00FC7F00FEFF000FDA
S1130160E00107C00107C00107C0010FE001FEFF65
S113017000FC7F00F01F000C000000F01F00FC7F5B
S113018000FEFF000FE00107C00107C00107C00126
S11301900FE001FEFF00FC7F00F01F000C000000D8
S11301A0F01F00FC7F00FEFF000FE00107C0010705
S11301B0C00107C0010FE001FEFF00FC7F00F01F3B
S11301C0000C000000F01F00FC7F00FEFF000FE0A9
S11301D00107C00107C00107C0010FE001FEFF00D5
S11301E0FC7F00F01F000C000000F01F00FC7F00EB
S11301F0FEFF000FE00107C00107C00107C0010FA7
S1130200E001FEFF00FC7F00F01F000C000000F086
S11302101F00FC7F00FEFF000FE00107C00107C0C4
S11302200107C0010FE001FEFF00FC7F00F01F008A
S11302300C000000F01F00FC7F00FEFF000FE00137
S113024007C00107C00107C0010FE001FEFF00FC69
S11302507F00F01F000C000000F01F00FC7F00FE78
S1130260FF000FE00107C00107C00107C0010FE054
S113027001FEFF00FC7F00F01F000400000000C02E
S11302800100C00100C001000000000000000000E7
S11302900000000000000000000000000000000C4E
S11302A000800100F801C0FF01FC7F00FF07003F50
S11302B00000030000000000000000000000000037
S11302C0000000000C000000F01F00FC7F00FEFF97
S11302D0000FE00107C00107C00107C0010FE001E2
S11302E0FEFF00FC7F00F01F000C00000000000077
S11302F06000007000007800003C00001E0000FF59
S1130300FF01FFFF01FFFF010000000000000C00DF
S113031000003880013CE0013EF0010FF80107FCC9
S11303200107DE0107CF018FC701FEC301FEC10132
S113033078C0010C0000001838001E78001EF80078
S11303400FE001C7C101C7C101E7C101FFE3017E9D
S1130350FF003C7F00003E000C000000003E0080D7
S11303603F00C03F00F039007838003E3800FFFFFE
S113037001FFFF01FFFF010038000038000C0000FE
S113038000803900FC7900FFF900FFE001E7C001BB
S1130390E7C001E7C001E7E101C7FF00877F000074
S11303A01F000C000000F01F00FC7F00FEFF008E09
S11303B0E301C7C101C7C101C7C101CFE3019EFF6A
S11303C0009E7F00183E000C00000007000007009C
S11303D00007E00107FC0187FF01E71F00F70300A6
S11303E0FF00003F00001F00000700000C00000099
S11303F0783C00FEFE00FEFF00CFE70187C30187C3
S1130400C30187C301CFE701FEFF00FEFE00783C75
S1130410000C000000F83000FCF300FEF3008FE74E
S11304200107C70107C70107C7018FE300FEFF00EB
S1130430FC7F00F01F001200FE7F00C0FFFF07F8E2
S1130440FFFF1FFC01803F3E00007C0E0000700F88
S11304500000F0070000E0070000E0070000E00FE4
S11304600000F00E0000703E00007CFC01803FF8AC
S1130470FFFF1FE0FFFF0300FE7F000000000012EB
S113048000FE7F00C0FFFF07F8FFFF1FFC01803F55
S11304903E00007C0E0000700F0000F0070000E03A
S11304A0070000E0070000E00F0000F00E000070FD
S11304B03E00007CFC01803FF8FFFF1FE0FFFF03CC
S11304C000FE7F00000000001200FE7F00C0FFFF5E
S11304D007F8FFFF1FFC01803F3E00007C0E000078
S11304E0700F0000F0070000E0070000E0070000C4
S11304F0E00F0000F00E0000703E00007CFC018064
S11305003FF8FFFF1FE0FFFF0300FE7F0000000035
S1130510001200FE7F00C0FFFF07F8FFFF1FFC0171
S1130520803F3E00007C0E0000700F0000F00700CA
S113053000E0070000E0070000E00F0000F00E00FC
S113054000703E00007CFC01803FF8FFFF1FE0FFCD
S1130550FF0300FE7F00000000001200FE7F00C0C9
S1130560FFFF07F8FFFF1FFC01803F3E00007C0EE9
S11305700000700F0000F0070000E0070000E00733
S11305800000E00F0000F00E0000703E00007CFC54
S113059001803FF8FFFF1FE0FFFF0300FE7F000024
S11305A00000001200FE7F00C0FFFF07F8FFFF1FDE
S11305B0FC01803F3E00007C0E0000700F0000F044
S11305C0070000E0070000E0070000E00F0000F073
S11305D00E0000703E00007CFC01803FF8FFFF1F0E
S11305E0E0FFFF0300FE7F00000000001200FE7F1A
S11305F000C0FFFF07F8FFFF1FFC01803F3E000023
S11306007C0E0000700F0000F0070000E0070000FF
S1130610E0070000E00F0000F00E0000703E000054
S11306207CFC01803FF8FFFF1FE0FFFF0300FE7F1B
S113063000000000001200FE7F00C0FFFF07F8FF6B
S1130640FF1FFC01803F3E00007C0E0000700F0085
S113065000F0070000E0070000E0070000E00F00E2
S113066000F00E0000703E00007CFC01803FF8FFAB
S1130670FF1FE0FFFF0300FE7F00000000001200E8
S1130680FE7F00C0FFFF07F8FFFF1FFC01803F3E15
S113069000007C0E0000700F0000F0070000E0076F
S11306A00000E0070000E00F0000F00E0000703EC4
S11306B000007CFC01803FF8FFFF1FE0FFFF030008
S11306C0FE7F00000000001200FE7F00C0FFFF0755
S11306D0F8FFFF1FFC01803F3E00007C0E0000700D
S11306E00F0000F0070000E0070000E0070000E052
S11306F00F0000F00E0000703E00007CFC01803F03
S1130700F8FFFF1FE0FFFF0300FE7F000000000072
S11307101200FE7F00C0FFFF07F8FFFF1FFC0180EF
S11307203F3E00007C0E0000700F0000F007000048
S1130730E0070000E0070000E00F0000F00E0000FA
S1130740703E00007CFC01803FF8FFFF1FE0FFFFCC
S11307500300FE7F00000000001200FE7F00C0FFC7
S1130760FF07F8FFFF1FFC01803F3E00007C0E00E6
S113077000700F0000F0070000E0070000E0070031
S113078000E00F0000F00E0000703E00007CFC0151
S1130790803FF8FFFF1FE0FFFF0300FE7F00000023
S11307A000001200FE7F00C0FFFF07F8FFFF1FFCE0
S11307B001803F3E00007C0E0000700F0000F00737
S11307C00000E0070000E0070000E00F0000F00E6A
S11307D00000703E00007CFC01803FF8FFFF1FE03A
S11307E0FFFF0300FE7F00000000001200FE7F00F8
S11307F0C0FFFF07F8FFFF1FFC01803F3E00007CA5
S11308000E0000700F0000F0070000E0070000E099
S1130810070000E00F0000F00E0000703E00007CB6
S1130820FC01803FF8FFFF1FE0FFFF0300FE7F0095
S113083000000000090000000000000000000000AB
S113084000000000F0000000F0000000F0000000D4
S11308500000000000000000000000000000000094
S11308600000000000000000000000000000000084
S1130870000000000000000000000000001200FE64
S11308807F00C0FFFF07F8FFFF1FFC01803F3E0011
S1130890007C0E0000700F0000F0070000E007006D
S11308A000E0070000E00F0000F00E0000703E00C2
S11308B0007CFC01803FF8FFFF1FE0FFFF0300FE08
S11308C07F00000000001200FE7F00C0FFFF07F859
S11308D0FFFF1FFC01803F3E00007C0E0000700FF4
S11308E00000F0070000E0070000E0070000E00F50
S11308F00000F00E0000703E00007CFC01803FF818
S1130900FFFF1FE0FFFF0300FE7F00000000001256
S1130910000000000000000000000000000E0000C5
S11309200007000080030000C0030000E001000095
S1130930F8000000FEFFFFFFFFFFFFFFFFFFFFFFC8
S113094000000000000000000000000000000000A3
S1130950000000000000000012C00100E0F00100EF
S1130960F8FC0100FE3C0000FF1E0080EF0F00C0F9
S1130970E70700E0E10700F0E0070078E007003C4B
S1130980E007001FE00F800FE01EC007E03EF80301
S1130990E0FCFF00E0F07F00E0C00F00E00000009A
S11309A00012C0008003F000800FFC00801F3E0096
S11309B0003E1E0000780F0000F007E000E007E0B2
S11309C000E007E000E007E000E00FF000E00EF8D0
S11309D001703EFC0378FCBF073EF89FFF1FE00751
S11309E0FE0F0000F80300000000120000F00000F9
S11309F000FC000000FF0000C0FF0000F0E7000062
S1130A00F8E100007EE000801FE000E007E000F86D
S1130A1001E0007E00E000FFFFFFFFFFFFFFFFFF9C
S1130A20FFFFFF0000E0000000E0000000E0000025
S1130A3000E0001200C0800300FF800FF8FF811F58
S1130A40FFFF003EFF780078073800F0071C00E045
S1130A50071C00E0071C00E0071C00E0073C00F056
S1130A60073800700778007C07F0013F07E0FF1F9C
S1130A7007C0FF070000FE01000000001200FC7F19
S1130A8000C0FFFF07F0FFFF0FF880073E3CC001E6
S1130A90781EE000700E7000F0077000E007700030
S1130AA0E0077000E0077000E00FF000F00EE001D6
S1130AB0783EC0073EFC80FF1FF800FF0FE000FCFB
S1130AC001000000001207000000070000000700FA
S1130AD0000007000000070000F80700C0FF07003F
S1130AE0FCFF0780FF0707E03F0007F8070007FE49
S1130AF00000871F0000E7070000F70100007F00E7
S1130B0000001F0000000F000000000000001200A1
S1130B1000F803E007FE0FF81FFF1FFCBF0F3E3E67
S1130B20FC03780EF0017007E000E007E000E00746
S1130B30E000E007E000E00FE000E00EF001703EAE
S1130B40FC0378FCBF0F3EF81FFF1FE007FE0F00F9
S1130B5000F8030000000012C03F0007F0FF001F70
S1130B60F8FF013F7CE0037C1E8007700F000FF04C
S1130B700F000EE007000EE007000EE007000EE095
S1130B8007000E700E0007781E80033C7CE0811F76
S1130B90F0FFFF0FE0FFFF0300FE3F000000000036
S1130BA00500000000000500005F000005000700CC
S1130BB0070005147F147F1405242A7F2A120523B5
S1130BC013086462053649562050050807030000DF
S1130BD005001C224100050041221C000514083EAA
S1130BE008140508083E08080500B0700000050850
S1130BF008080808050060600000052010080402C9
S1130C00053E5149453E0500427F40000572494971
S1130C104946052141494D33051814127F10052713
S1130C2045454539053C4A494931054121110907E2
S1130C3005364949493605464949291E0500001427
S1130C40000005004034000005081422410005148A
S1130C50141414140541221408000502015909064C
S1130C60053E415D594E057C1211127C057F4949B0
S1130C704936053E41414122057F4141413E057FC0
S1130C8049494949057F09090909053E414151730B
S1130C90057F0808087F0500417F41000520404189
S1130CA03F01057F08142241057F40404040057FF5
S1130CB0020C027F057F0408107F053E4141413E3E
S1130CC0057F09090906053E4151215E057F091981
S1130CD029460526494949320501017F0101053F9D
S1130CE04040403F051F2040201F053F4038403F03
S1130CF0056314081463050304780403056151496A
S1130D00454305007F414100050204081020050009
S1130D1041417F0005040201020405404040404077
S1130D2005070B000000052054547840057F284433
S1130D30443805384444442805384444287F053859
S1130D40545454180500087E09020518A4A49C787C
S1130D50057F080404780500447D400005204040D8
S1130D603D00057F102844000500417F4000057CBC
S1130D7004780478057C080404780538444444382D
S1130D8005FC182424180518242418FC057C0804E0
S1130D9004080548545454240504043F4424053CE1
S1130DA04040207C051C2040201C053C4030403C39
S1130DB0054428102844054C9090907C05446454C4
S1130DC04C4405000836410005000077000005008A
S1130DD04136080005040204080405007F417F0031
S1130DE000000000000000000000000000000000FF
S1130DF00000000080C0E0F0F8FCFEFFFFFF0000F0
S1130E0000000000000000000000000000000000DE
S1130E1000000000000000000000000000000000CE
S1130E2000000000000000000000000000000000BE
S1130E3000000000000000000000000000000000AE
S1130E40000000000000000080C0E0F0F8FCFEFF9D
S1130E50FFFFFFFFFFFFFFFFFFFFC0C0C0C0C0C018
S1130E60C0C0C0C0C0C0C0C0C0C0C0C0C0C0C0C07E
S1130E70C0C0C0C0C0C0C0C0C0C0C0C0C0C0C0C06E
S1130E80C0C0C0C0C0C0C0C0C0C0C0C0C0C0C0C05E
S1130E90C0C0C0C0C0C0C0C00000000080C0E0F03E
S1130EA0F8FCFEFFFFFFFFFFFFFFFFFFFFFFFFFF59
S1130EB0FFFFFFFFFFFFFFFFFFFFFFFFFFFFFFFF3E
S1130EC0FFFFFFFFFFFFFFFFFFFFFFFFFFFFFFFF2E
S1130ED0FFFFFFFFFFFFFFFFFFFFFFFFFFFFFFFF1E
S1130EE0FFFFFFFFFFFFFFFFFFFFFFFFFFFFFFFF0E
S1130EF0FFFFFFFF081C3E7FFFFFFFFFFFFFFFFF19
S1130F00FFFFFFFFFFFFFFFFFFFFFFFFFFFFFFFFED
S1130F10FFFFFFFFFFFFFFFFFFFFFFFFFFFFFFFFDD
S1130F20FFFFFFFFFFFFFFFFFFFFFFFFFFFFFFFFCD
S1130F30FFFFFFFFFFFFFFFFFFFFFFFFFFFFFFFFBD
S1130F40FFFFFFFFFFFFFFFFFFFFFFFFFFFFFFFFAD
S1130F5000000000000103070F1F3F7FFFFFFFFF9A
S1130F60FFFFFFFFFFFFFFFFFFFFFFFFFFFFFFFF8D
S1130F70FFFFFFFFFFFFFFFFFFFFFFFFFFFFFFFF7D
S1130F80FFFFFFFFFFFFFFFFFFFFFFFFFFFFFFFF6D
S1130F90FFFFFFFFFFFFFFFFFFFFFFFFFFFFFFFF5D
S1130FA0FFFFFFFFFFFFFFFFFFFFFFFF0000000049
S1130FB00000000000000000000103070F1F3F7F36
S1130FC0FFFFFFFFFFFFFFFFFFFF01010101010121
S1130FD001010101010101010101010101010101FD
S1130FE001010101010101010101010101010101ED
S1130FF001010101010101010101010101010101DD
S113100001010101010101010000000000000000D4
S113101000000000000000000000000000010307C1
S11310200F1F3F7F7F7F00000000000000000000D2
S113103000000000000000000000000000000000AC
S1131040000000000000000000000000000000009C
S1131050000000000000000000000000000000008C
S1131060000000000000000000000000000000007C
S1131070000000000000000000000000000000006C
S1131080000000000000000000000000000000005C
S1131090000000000000000000000000000000004C
S11310A00000FFFFFFFEFCF8F0E0C080000000003D
S11310B0000000000000000000000000000000002C
S11310C0C0C0C0C0C0C0C0C0C0C0C0C0C0C0C0C01C
S11310D0C0C0C0C0C0C0C0C0C0C0C0C0C0C0C0C00C
S11310E0C0C0C0C0C0C0C0C0C0C0C0C0C0C0C0C0FC
S11310F0C0C0C0C0C0C0C0C0C0C0C0C0C0C0FFFF6E
S1131100FFFFFFFFFFFFFFFFFFFEFCF8F0E0C080E2
S1131110000000000000000000000000FFFFFFFFCF
S1131120FFFFFFFFFFFFFFFFFFFFFFFFFFFFFFFFCB
S1131130FFFFFFFFFFFFFFFFFFFFFFFFFFFFFFFFBB
S1131140FFFFFFFFFFFFFFFFFFFFFFFFFFFFFFFFAB
S1131150FFFFFFFFFFFFFFFFFFFFFFFFFFFFFFFF9B
S1131160FFFFFFFFFFFFFFFFFFFFFFFFFFFEFCF896
S1131170F0E0C08000000000FFFFFFFFFFFFFFFF63
S1131180FFFFFFFFFFFFFFFFFFFFFFFFFFFFFFFF6B
S1131190FFFFFFFFFFFFFFFFFFFFFFFFFFFFFFFF5B
S11311A0FFFFFFFFFFFFFFFFFFFFFFFFFFFFFFFF4B
S11311B0FFFFFFFFFFFFFFFFFFFFFFFFFFFFFFFF3B
S11311C0FFFFFFFFFFFFFFFFFFFFFFFFFFFFFFFF2B
S11311D07F3E1C08FFFFFFFFFFFFFFFFFFFFFFFF36
S11311E0FFFFFFFFFFFFFFFFFFFFFFFFFFFFFFFF0B
S11311F0FFFFFFFFFFFFFFFFFFFFFFFFFFFFFFFFFB
S1131200FFFFFFFFFFFFFFFFFFFFFFFFFFFFFFFFEA
S1131210FFFFFFFFFFFFFFFFFFFFFFFFFFFFFFFFDA
S1131220FFFFFFFF7F3F1F0F0703010000000000C7
S1131230010101010101010101010101010101019A
S1131240010101010101010101010101010101018A
S1131250010101010101010101010101010101017A
S11312600101010101010101010101010101FFFF6E
S1131270FFFFFFFFFFFFFFFF7F3F1F0F070301007B
S1131280000000000000000000000000000000005A
S1131290000000000000000000000000000000004A
S11312A0000000000000000000000000000000003A
S11312B0000000000000000000000000000000002A
S11312C0000000000000000000007F7F7F3F1F0F30
S11312D007030100000000000000000000000000FF
S11312E00000000000000000008080808084FCFE7C
S11312F0FEFEFEFEFEFEFEFC0000000000000000FC
S1131300000080C0E0F0F8FCFCFEFEFFFFFFFFFFE2
S1131310FFFFFFFFFFFFFFFFFFFFFFFEFEFCFCF8E8
S1131320F0E0C08000000000000000000000FCFEAF
S1131330FEFEFEFEFEFEFEFC8080808080001F3FDD
S11313403F3F3F3F7FFFFFFFFFFFFFFFFFF9F0E05D
S1131350C0800000000000FEFFFFFFFFFFFFFFFF53
S1131360FFFFFFFFFFFFFFFFFFFFFFFFFFFFFFFF89
S1131370FFFFFFFFFFFFFFFFFFFFFE000000000075
S113138080C0E0F0F9FFFFFFFFFFFFFFFF7F3F3F5B
S11313903F3F3F1F00000000000000000103070F53
S11313A01F3F7F7F7F7F7F7F7F7E0000007FFFFF67
S11313B0FFFFFF3F1F1F1F1F1F1F1F3FFFFFFFFFD9
S11313C0FFFF3F1F1F1F1F1F1F1F3FFFFFFFFFFFC9
S11313D07F0000007E7F7F7F7F7F7F7F3F1F0F071F
S11313E003010000000000000000000000000000F5
S11313F00000000000000080C0E0F0F0F0F0F0F029
S1131400F0F000000101FFFFFFF0E0E0E0E0E0E0C9
S1131410E0F00F0F0F0F0F0FF0E0E0E0E0E0E0E08E
S1131420F0FFFFFF01010000F0F0F0F0F0F0F0F049
S1131430E0C0800000000000000000000000000088
S11314400000C0E0E0E0E0E0F0F8FCFEFFFFFFFF9A
S1131450FFFF7F3F1F0F0703000000000303031F6C
S11314601F1FFFFFFFFFFFFFFCF8F8F8F8FCFFFF6A
S1131470FFFFFFFF1F1F1F030303000000000307FC
S11314800F1F3F7FFFFFFFFFFFFFFEFCF8F0E0E0D0
S1131490E0E0E0C000000000070F0F0F0F0FFFFF98
S11314A0FFFFFFFFFFFFFFFC000000000000000043
S11314B000000000003E7E7EF0F0E0878783030397
S11314C003030303838787E0F0F07E7E3E00000081
S11314D000000000000000000000FCFFFFFFFFFF11
S11314E0FFFFFFFF0F0F0F0F0F07000000000000AA
S11314F000000000000101010101010101000000E0
S113150000000000000000000000000000000001D6
S113151003070F0F0F0F0F0F0F0F0F0F070301001C
S113152000000000000000000000000000000000B7
S1131530000101010101010101000000000000009F
S1131540000011241FBECFE5D8E0DEBFCDBF12E0FE
S1131550A0E6B0E0ECEDF2E502C005900D92AA3AE7
S1131560B107D9F727E0AAEAB2E001C01D92A5307D
S1131570B207E1F70E94D9170C946C290C9400006F
S11315802F923F920F931F93CF93DF93D101139622
S11315908C911397815012968C93129788237CF127
S11315A00D911C911197E0E0F0E0682F082E000CDB
S11315B0770B9801260F371FE9012881022E000CB2
S11315C0330B1616170694F490E0A901440F551F27
S11315D0220F331F220F331F220F331F240F351FF7
S11315E09F5F492F50E0461757077CF3E20FF31F24
S11315F0815012968C9312978823BCF602C0E0E0C7
S1131600F0E0CF01DF91CF911F910F913F902F9088
S113161008952F923F928F929F92AF92BF92CF9252
S1131620DF92EF92FF920F931F93CF93DF93E10129
S113163020E048E065E080EA9BE00E948A2169E2BC
S113164086E00E94191D87E690E00E94202363E350
S113165086E00E94191D8CE690E00E9420234885B4
S1131660442309F44DC050E014161506CCF480E070
S113167001E010E09801220F331F6801CC0CDD1C3F
S1131680CC0CDD1CCC0CDD1C89010C0D1D1D8F5FE9
S1131690282F082E000C330B241735075CF302C0E7
S11316A001E010E069E28EE10E94191D6801E12C5D
S11316B0F12CC701B6010E9467264B015C016E81C3
S11316C07F8180E090E00E946726A50194010E943A
S11316D0BF25A70196010E94B92463E38EE10E940D
S11316E0191D6C817D8180E090E00E946726A50130
S11316F094010E94BF25A70196010E94B92414C039
S113170069E28EE10E94191D6E817F8180E090E084
S11317100E94542363E38EE10E94191D6C817D8134
S113172080E090E00E94542320E041E16CE084E7F3
S113173090E00E948A21DF91CF911F910F91FF9039
S1131740EF90DF90CF90BF90AF909F908F903F909D
S11317502F9008958AEF8093E60286E08093EF024B
S113176080E090E0A0E8BFE38093E7029093E80272
S1131770A093E902B093EA0283E393E3A3E3BFE314
S11317808093F3029093F402A093F502B093F602CF
S113179083E393E3A3EABFE38093E0029093E1023F
S11317A0A093E202B093E30280E094E09093F2020B
S11317B08093F1029093ED028093EC028EEB809380
S11317C0EB0286E98093EE0280E690E09093E502D6
S11317D08093E40282E08093F00208959091B40231
S11317E0992381F09091D7029F5F9093D702209123
S11317F0D5023091D6022F5F3F4F3093D60220930B
S1131800D5020FC09091D70291509093D7022091A6
S1131810D5023091D602215031093093D60220935B
S1131820D5029091D702992324F497E09093D7029C
S113183006C09091D702983014F01092D7029BB34F
S1131840907F823051F4E091D7020E2E000CFF0BF2
S1131850E756FD4F8081982B0BC0813049F4E0910D
S1131860D7020E2E000CFF0BEF55FD4F8081982BF5
S11318709BBB08951F920F920FB60F9211242F93C2
S11318803F934F935F936F937F938F939F93AF9304
S1131890BF93EF93FF938091F0020E94EE0B20918F
S11318A0D5023091D6028091BB029091BC022817D8
S11318B0390739F41092D80289B78D7F89BF13BED6
S11318C01CBEFF91EF91BF91AF919F918F917F913A
S11318D06F915F914F913F912F910F900FBE0F9099
S11318E01F9018951F920F920FB60F9211248F9389
S11318F09F938091DE029091DF0201969093DF0224
S11319008093DE029F918F910F900FBE0F901F90D6
S113191018951F920F920FB60F9211248F939F93D5
S11319208091BA02882349F08091B2029091B30267
S113193001969093B3028093B2029F918F910F907E
S11319400FBE0F901F9018951F920F920FB60F9213
S113195011248F939F938091B9028823D1F084B589
S11319608093DB0214BC8091DE029091DF0290939D
S1131970DD028093DC021092DF021092DE0280917D
S1131980D9029091DA0201969093DA028093D902F7
S113199007C014BC89B7806889BF81E08093B9020D
S11319A09F918F910F900FBE0F901F901895CF921B
S11319B0DF92EF92FF920F93CF93DF938091BA025D
S11319C08111E6C00E94AA200FEF27E141E26BE0FB
S11319D08AE00E94302024E143E26EE082E20E9429
S11319E030204091B6025091B702EFE8F2E029E9C5
S11319F032E0C0E0819190E0481759070CF0C65FCF
S1131A00E217F307B9F7CC2379F04DECC49F412DCD
S1131A101124469546954695440F455F0FEF25E101
S1131A206DE08CE00E94AE206EE08BE40E94191DF4
S1131A3020E048E065E080EA9BE00E948A21609112
S1131A40B6027091B702072E000C880B990B0E9406
S1131A50692620E030E040E251E40E94BF252AE0FC
S1131A6030E040E050E00E94B92481E790E00E9419
S1131A7020236EE089E20E94191D6C2F70E080E043
S1131A8090E00E94542383E790E00E94202320E00A
S1131A9040E262E186E394E00E948A216FE184E0FF
S1131AA00E94191D6091AE027091AF028091B00244
S1131AB09091B10224E630E040E050E00E94B32768
S1131AC02115310541055105D9F0C0E00F2EFAE08A
S1131AD0CF2ED12CE12CF12CF02DCA01B901A70194
S1131AE096010E94B327CF5F2115310541055105A9
S1131AF0A1F7C2303CF0D6E0DC1B1D1624F00BC06D
S1131B00D4E001C0D4E0C0E085E790E00E94202347
S1131B10CF5FCD17CCF36091AE027091AF0280918C
S1131B20B0029091B10228EE33E040E050E00E9410
S1131B30B327CA01B9010E9454238091AE02909147
S1131B40AF02A091B002B091B1028115914EA54FA0
S1131B50B540E0F48DE892E00E9420236091AE024B
S1131B607091AF028091B0029091B10228EE33E0FF
S1131B7040E050E00E94B32724E630E040E050E02B
S1131B800E94B327CA01B9010E9454230E94D91CA0
S1131B90DF91CF910F91FF90EF90DF90CF90089558
S1131BA02091BD023091BE024091BF025091C0020B
S1131BB06091C1027091C2028091C3029091C402EB
S1131BC00E94BF250E9438267093BC026093BB021A
S1131BD02091D5023091D602C901861B970B99F04A
S1131BE01AF01092B40203C081E08093B40281E041
S1131BF08093D80283B78D6083BF8091EE028CBF3F
S1131C0089B7826089BF0895B59B04C0B69B02C0A2
S1131C10B79933C0B59910C02FEF30E782E0215057
S1131C2030408040E1F700C0000086B385FB99276F
S1131C3090F981E08927089596B3892F807496FDE1
S1131C400DC09FEF20E732E0915020403040E1F793
S1131C5000C00000B69916C082E00895B7990FC07D
S1131C608FEF90E722E0815090402040E1F700C0E0
S1131C700000B79906C083E0089580E0089580E0ED
S1131C80089580E00895EF92FF920F931F93CF93EE
S1131C90DF937C01062FEA01122F0E94AA2082E022
S1131CA00E94841D802F0E940D1DC7010E942023C5
S1131CB084E00E94841D812F0E940D1DCE010E948C
S1131CC0202386E00E94841D8CE10E940D1D87E77D
S1131CD090E00E94202384E50E940D1D8AE790E095
S1131CE00E9420230FEF29E34EE26DE284E10E947B
S1131CF030200E94D91C0E94040E8111FCCFC0E048
S1131D0011E0DBE30F2EF9E6EF2EF02D0F2EF4E1B8
S1131D10FF2EF02D0E94040E9EEF980F9230F8F4DF
S1131D20C127CD9F802D11244EE2480F0FEF29E3E8
S1131D306DE28C5E0E943020CC2319F04EE28F2D90
S1131D4002C04E2D8FE400E029E36DE20E943020B2
S1131D500E94D91C0E94040E8111FCCFDBCF81307C
S1131D60C9F68C2FDF91CF911F910F91FF90EF90C7
S1131D7008951092D6021092D5021092D702409183
S1131D80F0022091E4023091E502429FC001439F9A
S1131D90900D112496958795969587959093BC02FE
S1131DA08093BB0281E08093B4028093D80283B70E
S1131DB08D6083BF8091EE028CBF89B7826089BF3A
S1131DC08091D8028111FCCF2FEF82E597E021505A
S1131DD080409040E1F700C000004091F002209163
S1131DE0E4023091E502429FC001439F900D11240B
S1131DF09093D6028093D5021092BC021092BB023B
S1131E001092B40281E08093D80283B78D6083BFBF
S1131E108091EE028CBF89B7826089BF8091D8021D
S1131E208111FCCF1092D6021092D5021092BC02FE
S1131E301092BB0281E0809366000895882381F0AC
S1131E400E94AA2067E086E10E94191D2FEF47E354
S1131E506CE584E690E10E94CC1E0E94D91C089592
S1131E600E94AA2067E086E10E94191D2FEF47E334
S1131E706CE580EE9DE00E94CC1E0E94D91C089562
S1131E800E94AA2067E083E10E94191D2FEF44E31A
S1131E9066E588EE92E10E94CC1E0E94D91C08954A
S1131EA0B4990DC0B39B0BC080E00E941E0F81E06B
S1131EB08093BA021092B3021092B20221C0B39975
S1131EC00DC0B49B0BC081E00E941E0F81E0809383
S1131ED0BA021092B3021092B20212C0B4990CC0AA
S1131EE0B3990AC00E94400F81E08093BA02109215
S1131EF0B3021092B20204C08091BA028823E9F0BE
S1131F00B39B09C0B49B07C00E94AA200E94D91C9D
S1131F1089B7846089BF8091B2029091B3028D32F7
S1131F20914058F01092BA021092B3021092B20289
S1131F3089B78B7F89BF0E94D70C089587B9E62F94
S1131F40F0E01E161F068CF420E030E080E090E004
S1131F50369A3699FECF44B155B1840F951F2F5F41
S1131F603F4F2E173F07A1F702C080E090E070E0DA
S1131F700E948B27CB0108950F931F936AE084E09E
S1131F800E949E0FBC0180E090E00E9467262AE92F
S1131F9039E94CEC52E40E94BF2520E030E040E2F5
S1131FA050E40E941E2720E030E040EC50E40E9400
S1131FB01E270E9431267093AB026093AA026436F6
S1131FC07105ECF58091B802811139C0DB9AD89A79
S1131FD01BBC1ABC19BC18BC0E94AA200E94D91CA4
S1131FE06AE084E00E949E0FBC0180E090E00E94C1
S1131FF067262AE939E94CEC52E40E94BF2520E027
S113200030E040E250E40E941E2720E030E040EC43
S113201050E40E941E2720E030E048EC52E40E9485
S1132020BA258823ECF28091F1029091F2029BBDD3
S11320308ABD8091EC029091ED0299BD88BD80919A
S1132040AA029091AB022091B6023091B702821796
S1132050930751F09093B7028093B6028091B8022F
S1132060811102C00E94D70C6091D9027091DA02EA
S113207080E090E00E9467262091C5023091C6025C
S11320804091C7025091C8020E941E270E94382620
S1132090643671058105910500F10091AE0210913D
S11320A0AF022091B0023091B102DC01CB01800F6C
S11320B0911FA21FB31F8093AE029093AF02A0930F
S11320C0B002B093B1021092DA021092D902809158
S11320D0B802811102C00E94D70C1F910F9108957C
S11320E08F929F92AF92BF92EF92FF921F93CF93E2
S11320F0DF93EC01E62E413009F06AC060E00E94F3
S11321001F29F12CCE0DDF1D6091F1027091F202B6
S1132110CE010E943C29CE0DDF1D6091EC0270912E
S1132120ED02CE010E943C29CE0DDF1D6091EB0231
S1132130CE010E941F29CE0DDF1D6091EE02CE015B
S11321400E941F29CE0DDF1D6091E4027091E5020B
S1132150CE010E943C29CE0DDF1D6091E602CE0126
S11321600E941F29CE0DDF1D6091EF02CE010E9457
S11321701F29CE0DDF1D6091F002CE010E941F29A0
S1132180CE0DDF1D4091F3025091F4026091F502EF
S11321907091F602CE010E943029CE0DDF1D4091D0
S11321A0E7025091E8026091E9027091EA02CE01DF
S11321B00E9430294091E0025091E1026091E202D4
S11321C07091E302C7018C0F9D1F0E9430295DC1ED
S11321D0411110C1E62EF12CCE0DDF1DCE010E945F
S11321E01929813024E0920728F49093F202809315
S11321F0F10206C080E094E09093F2028093F10231
S1132200CE0DDF1DCE010E941929813034E09307E1
S113221028F49093ED028093EC0206C080E094E0F1
S11322209093ED028093EC02CE0DDF1DCE010E944F
S11322300B29843118F08093EB0203C08EEB80935A
S1132240EB02CE0DDF1DCE010E940B29823318F064
S11322508093EE0203C086E98093EE02CE0DDF1D6B
S1132260CE010E9419299C012051310921383140A5
S113227028F49093E5028093E40206C080E690E09F
S11322809093E5028093E402CE0DDF1DCE010E94FF
S11322900B29823318F08093E60203C08AEF8093FF
S11322A0E602CE0DDF1DCE010E940B299FEF980F91
S11322B0903118F48093EF0203C086E08093EF021C
S11322C0CE0DDF1DCE010E940B299FEF980F923097
S11322D018F48093F00203C082E08093F002CE0DE4
S11322E0DF1DCE010E9413294B015C0120E030E088
S11322F040E050E40E94192718169CF02DEC3CECA9
S11323004CEC5DE3C501B4010E94BA2588234CF06E
S11323108092F3029092F402A092F502B092F60237
S11323200CC083E393E3A3E3BFE38093F3029093AE
S1132330F402A093F502B093F602CE0DDF1DCE0198
S11323400E9413294B015C0120E030E040E85FE388
S11323500E94192718169CF02DEC3CEC4CEC5DE324
S1132360C501B4010E94BA2588234CF08092E7028B
S11323709092E802A092E902B092EA020CC080E0D6
S113238090E0A0E8BFE38093E7029093E802A09373
S1132390E902B093EA02C7018C0F9D1F0E94132922
S11323A04B015C0120E030E040EA50E40E94192730
S11323B018169CF02DEC3CEC4CEC5DE3C501B4012B
S11323C00E94BA2588234CF08092E0029092E102A8
S11323D0A092E202B092E30258C083E393E3A3EA3B
S11323E0BFE38093E0029093E102A093E202B093F2
S11323F0E3024BC0423059F51092B502E62EF12C9F
S113240011E003C0CE0DDF1D1F5FCE010E94132912
S11324108090AE029090AF02A090B002B090B10252
S113242086169706A806B90678F46093AE027093F0
S1132430AF028093B0029093B1021093B5021436A8
S113244008F31092B50221C01436E0F21EC04330E6
S1132450E1F44091AE025091AF026091B0027091EC
S1132460B1028091B5029E018E9D200D311D112473
S1132470C9010E9442298091B5028F5F843618F405
S11324808093B50202C01092B502DF91CF911F91E3
S1132490FF90EF90BF90AF909F908F900895CF9250
S11324A0DF92EF92FF92CF93D09AD19AD29AD39A95
S11324B08C9A8D9ADB9AD89AC59AC69AC79A379AF3
S11324C0309A319A329A88E090E00E940B2988234E
S11324D089F00E94AA0B41E064E088E090E00E9449
S11324E07010C4E643E064E080E890E00E9470105D
S11324F0C150C1F740E064E088E090E00E947010B1
S113250042E064E080E890E00E94701085B58E603F
S113251085BD8EEF83BD83EA8FBD8BE08EBD809138
S1132520F1029091F2029BBD8ABD8091EC029091E0
S1132530ED0299BD88BD2091F3023091F4024091DF
S1132540F5025091F6026091E7027091E8028091E1
S1132550E9029091EA020E941E272BED3FE049E434
S113256050E40E941E276B017C016091EF0270E031
S113257080E090E00E9469269B01AC01C701B6018E
S11325800E94BF256093C5027093C6028093C70260
S11325909093C8028DEB97E3A6E8B7E38093C90252
S11325A09093CA02A093CB02B093CC022091F00284
S11325B08091E4029091E502289FB001299F700D5B
S11325C0112480E090E00E9467269B01AC0160E04A
S11325D070E084EB93E40E94BF252091E0023091E7
S11325E0E1024091E2025091E3020E94BF25609310
S11325F0BD027093BE028093BF029093C0020E94FA
S1132600221D0E94AA208091E6020E94031D0E94BE
S1132610D91C789480916600811102C00E94B90E81
S113262085B7886085BF8BB780688BBFCF91FF90DB
S1132630EF90DF90CF900895CF92DF92EF92FF92C8
S1132640CF93DF93C091EF02D0E02091DC02309170
S1132650DD02E091DE02F091DF028CE390E0BE0146
S11326600E949F27260F371F2E173F0788F42091BB
S1132670DE023091DF02AFEFB0E00E94DB2760930F
S1132680D1027093D2028093D3029093D40218C0E3
S11326902091DC023091DD024091DB02AFEFB0E02B
S11326A00E94DB27DC01CB01840F911DA11DB11D0C
S11326B08093D1029093D202A093D302B093D40218
S11326C06091D1027091D2028091D3029091D40290
S11326D06115710581059105A1F10E94672620917C
S11326E0C9023091CA024091CB025091CC020E949F
S11326F01E279B01AC0160E070E080E89FE30E942C
S1132700BF256093CD027093CE028093CF02909345
S1132710D0022091C5023091C6024091C702509167
S1132720C8020E941E2726E636E646E650E40E94CA
S11327301E276093C1027093C2028093C3029093D8
S1132740C4022091DE023091DF028CED95E0BE01DF
S11327500E949F276217730708F062C089B78F77BA
S113276089BF14BC1092DF021092DE021092DD02C7
S11327701092DC021092D1021092D2021092D30273
S11327801092D4021092C1021092C2021092C3029B
S11327901092C4021092B9021092CD021092CE028D
S11327A01092CF021092D0021092DB026091D902F3
S11327B07091DA0280E090E00E9467262091C502C1
S11327C03091C6024091C7025091C8020E941E2750
S11327D06B017C016091AE027091AF028091B002F6
S11327E09091B1020E9467269B01AC01C701B6011A
S11327F00E944E250E9438266093AE027093AF0269
S11328008093B0029093B1021092DA021092D9022E
S1132810F89443E064E080E890E00E9470107894BB
S1132820C091EB026C2F70E080E090E00E9469267A
S11328302091C1023091C2024091C3025091C4025E
S11328400E94BA25882374F46C2F70E080E090E035
S11328500E9467266093C1027093C2028093C302F0
S11328609093C402DF91CF91FF90EF90DF90CF90CF
S113287008952F923F926F927F928F929F92AF9280
S1132880BF92CF92DF92EF92FF920F931F93CF9359
S1132890DF93CDB7DEB729970FB6F894DEBF0FBE2E
S11328A0CDBF7A019E838D8378876F8329870E94A9
S11328B0AA2020E048E065E080EA9BE00E948A21AB
S11328C081E00E94841D8AE00E940D1DC8010E94BF
S11328D0202368E18AE50E94191D8EE790E00E949A
S11328E0202364E28AE50E94191D83E890E00E9497
S11328F0202360E38AE50E94191D88E890E00E9485
S113290020239E2CAF2C772473940F2EFDE06F2E82
S1132910F02D0F2EF3EFBF2EF02D0F2EF9E08F2E9A
S1132920F02DE114F10499F0292D3A2D00E0ADECDD
S1132930BCEC0E94DB279C0136952795369527959C
S1132940369527950F5F2115310589F701C000E001
S11329502D813E811C822115310509F4CDC1C72C7E
S113296001C0C82EADECBCEC0E94DB279C0136955F
S11329702795369527953695279581E08C0D211559
S1132980310579F7CC82D12CC6010E94EA279A83BB
S113299089831B821C141D040CF04CC0E92DFA2DF4
S11329A060E070E080E0402F50E06417750774F534
S11329B0C980DA80C80ED11C87FDDA949F01ADEC82
S11329C0BCEC0E94DB2796958795969587959695FE
S11329D087959C01220F331F880F991F880F991F19
S11329E0880F991F820F931F9F01281B390BD60153
S11329F02C939F01ADECBCEC0E94DB27FC01F69507
S1132A00E795F695E795F695E79507C0A981BA810C
S1132A10A80FB11D87FDBA951C928B818F5F8B83A4
S1132A20682F082E000C770B2C8130E06217730797
S1132A300CF4BBCF64E185E00E94191D20E041E164
S1132A406CE084E790E00E948A218C810FEF080FEC
S1132A50069D002D11240B5F81508B83882324F164
S1132A60E981FA81E80FF11D87FDFA956081062E50
S1132A70000C770B880B990B0E94542329858B81BA
S1132A80082E000C990B422F50E08417950739F457
S1132A90222329F08DE892E00E9420230B5F8B8192
S1132AA081508B838823E4F64CE0400F24E264E1F8
S1132AB0802F0E94B3209E012F5F3F4F19010E9477
S1132AC0090B0E94D91C0E94040E8111FCCFD12C49
S1132AD00E94040E882309F403C1813009F085C0E3
S1132AE0D3942D2D0D2C000C330B8C8190E02817E2
S1132AF0390709F0A5C0CE0101961C010E94C00A45
S1132B002D813E812817390708F40BCF2F81388592
S1132B108217930708F405CF24E241E164E185E0DC
S1132B200E94B3200E94040E8111FCCF10E00E9489
S1132B30040E833021F411506AF512E02BC0823068
S1132B4029F41F5F133034F110E024C0813011F5F3
S1132B50111115C000E021E244E765E186E50E9419
S1132B6030202DE244E761E286E50E94302029E32B
S1132B7044E76DE286E50E943020D12C61C011301B
S1132B8009F4B7C0123031F4DE0111961D010E9420
S1132B90C00ABAC000E021E244E765E186E50E948C
S1132BA030202DE244E761E286E50E94302029E3EB
S1132BB044E76DE286E50E943020612F660F610FC5
S1132BC0660F660F21E2260F6B5E0FEF44E786E582
S1132BD00E9430200E94D91C0E94040E8111FCCF57
S1132BE00E94040E8823E1F3A2CF8330A1F4E9818B
S1132BF0FA818D2D0D2C000C990BE80FF91F208103
S1132C002F5F2083E981FA81E80FF91F80818A30E0
S1132C10BCF0108215C0823099F4E981FA818D2DBF
S1132C200D2C000C990BE80FF91F208121502083F3
S1132C30E981FA81E80FF91F808188230CF48082EE
S1132C4064E185E00E94191D8C8181508B83882367
S1132C5014F1E981FA81E80FF11D87FDFA9560818D
S1132C60062E000C770B880B990B0E945423898540
S1132C70882361F02B81022E000C330B90E028177F
S1132C80390721F48DE892E00E9420238B81815042
S1132C908B838823F4F68C818150DB9C902D112446
S1132CA0869D900D112485E0890F2985222351F0FA
S1132CB030E04D2D0D2C000C550B4217530714F426
S1132CC08AE0890F4CE0480F24E264E10E94B320BB
S1132CD09E012F5F3F4F19010E94090B0E94D91CCE
S1132CE00E94040E8111FCCF0E94040E8823E1F39C
S1132CF0EFCE8E2D9F2D08C080E090E00E94EA2741
S1132D009A8389831B8296CE29960FB6F894DEBFE8
S1132D100FBECDBFDF91CF911F910F91FF90EF9028
S1132D20DF90CF90BF90AF909F908F907F906F90E7
S1132D303F902F900895CF930E94AA2020E048E06E
S1132D4065E080EA9BE00E948A2180E00E94841D65
S1132D5084E00E940D1D8DE890E00E9420238AE10A
S1132D600E940D1D6091C1027091C2028091C30244
S1132D709091C4022AE030E040E050E00E94B9247F
S1132D808CE30E940D1D81E990E00E94202386E5DA
S1132D900E940D1D6091B6027091B702072E000CBF
S1132DA0880B990B0E94692620E030E040E251E450
S1132DB00E94BF2524E630E040E050E00E94B924A0
S1132DC081E00E94841D84E00E940D1D85E990E04D
S1132DD00E9420238AE10E940D1D6091CD02709112
S1132DE0CE028091CF029091D0022AE030E040E000
S1132DF050E00E94B9248CE30E940D1D89E990E003
S1132E000E94202386E50E940D1D6091D1027091DD
S1132E10D2028091D3029091D4020E94542382E082
S1132E200E94841D84E00E940D1D8DE990E00E94A3
S1132E3020238AE10E940D1D6091D5027091D60273
S1132E40072E000C880B990B0E9454238CE30E94DC
S1132E500D1D81EA90E00E94202386E50E940D1D4D
S1132E606091DE027091DF0280E090E00E945423C2
S1132E7083E00E94841D84E00E940D1D85EA90E099
S1132E800E9420238AE10E940D1D6091BB02709173
S1132E90BC0280E090E00E9454238CE30E940D1D4C
S1132EA089EA90E00E94202386E50E940D1D60912E
S1132EB0DC027091DD0280E090E00E94542384E003
S1132EC00E94841D84E00E940D1D8DEA90E00E9402
S1132ED020238AE10E940D1D6091D702062E000C6A
S1132EE0770B880B990B0E9454238CE30E940D1DD1
S1132EF081EB90E00E94202386E50E940D1D85EB66
S1132F0090E00E94202366B3669566956695C1E0BD
S1132F106C27862F90E0A0E0B0E0BC01CD01617089
S1132F207727882799270E94542387EB90E00E94F3
S1132F30202366B362956F706C27862F90E0A0E023
S1132F40B0E0BC01CD0161707727882799270E94E2
S1132F50542385E00E94841D84E00E940D1D8AEBA9
S1132F6090E00E9420238AE10E940D1D6091D90205
S1132F707091DA0280E090E00E94542386E00E947F
S1132F80841D84E00E940D1D8EEB90E00E9420239E
S1132F908AE10E940D1D6091AE027091AF02809192
S1132FA0B0029091B1020E9454230E94D91CCF9187
S1132FB008950E944F128091B802811102C00E94AC
S1132FC0D70C0E94BC0F0E941C130E94D00D80914C
S1132FD0B802811103C00E94500F02C00E949B16C8
S1132FE00E94040E813069F70E94F717EACF80919E
S1132FF0AD02863054F08091AC028F5F8093AC02B6
S11330001092AD028230D9F424C088235CF48091FC
S1133010AC0281508093AC0295E09093AD02823073
S113302071F408C08091AC02823049F48091AD0201
S113303084307CF01092AC021092AD020AC08091F0
S1133040AC02882334F482E08093AC0283E0809362
S1133050AD020E94AA2020E048E065E080EA9BE0FF
S11330600E948A218091AC02811189C08AE00E9469
S11330700D1D81E00E94841D82EC90E00E942023BB
S11330808BE50E940D1D6091EC027091ED0280E0D1
S113309090E00E9454238AE00E940D1D82E00E9469
S11330A0841D8DEC90E00E9420238BE50E940D1D71
S11330B06091F1027091F20280E090E00E9454234A
S11330C08AE00E940D1D83E00E94841D88ED90E03B
S11330D00E9420238BE50E940D1D6091F3027091E4
S11330E0F4028091F5029091F60228EE33E040E07C
S11330F050E00E94B9248AE00E940D1D84E00E94E1
S1133100841D84EE90E00E9420238BE50E940D1D17
S11331106091E7027091E8028091E9029091EA02DD
S113312028EE33E040E050E00E94B9248AE00E9497
S11331300D1D85E00E94841D8FEE90E00E942023E7
S11331408BE50E940D1D6091EF0270E080E090E03D
S11331500E9454238AE00E940D1D86E00E94841D73
S113316087EF90E00E9420238BE50E940D1D609163
S1133170F00270E080E090E00E945423B3C08130FC
S113318009F083C08AE00E940D1D81E00E94841D25
S113319081E091E00E9420238BE50E940D1D609147
S11331A0EB0270E080E090E00E9454238AE00E94E9
S11331B00D1D82E00E94841D8BE091E00E9420237B
S11331C08BE50E940D1D6091E0027091E1028091F7
S11331D0E2029091E30228EE33E040E050E00E94E6
S11331E0B9248AE00E940D1D83E00E94841D89E1B8
S11331F091E00E9420238BE50E940D1D6091E40262
S11332007091E50280E090E00E9454238AE00E94DD
S11332100D1D84E00E94841D85E291E00E9420231C
S11332208BE50E940D1D6091EE0270E080E090E05D
S11332300E9454238AE00E940D1D85E00E94841D93
S113324083E391E00E9420238BE50E940D1D609191
S1133250E60270E080E090E00E9454238AE00E943D
S11332600D1D86E00E94841D8091B802882329F0F8
S113327080E491E00E94202304C08CE491E00E9449
S113328020238BE50E940D1D2DC0823059F58AE064
S11332900E940D1D81E00E94841D87E591E00E943B
S11332A020238BE50E940D1D8AE00E940D1D82E003
S11332B00E94841D86E691E00E9420238AE00E94F9
S11332C00D1D83E00E94841D85E791E00E94202368
S11332D08AE00E940D1D84E00E94841D83E890E032
S11332E00E9420236091AD02660F660F660F2FE0E7
S11332F0260F695F4FE780E00E94B3200E94D91C2B
S11333000E94040E8111FCCF0E94040E8823E1F375
S1133310813009F0BCC28091AC02082E000C990BDC
S1133320FC01EE0FFF1FE80FF91FEE0FFF1F809146
S1133330AD02E80FF11D87FDFA95E031F10508F0C3
S1133340B5C2E65DFF4F0C94D5274091EC02509135
S1133350ED0203E811E020E060E070E080E094E03A
S11333600E9439142091EC023091ED0282179307E8
S113337009F49CC29093ED028093EC0241E064E076
S113338088E090E00E9470108091EC029091ED0230
S113339099BD88BD8BC24091F1025091F20202E9BD
S11333A011E020E060E070E080E094E00E943914D5
S11333B02091F1023091F2028217930709F476C248
S11333C09093F2028093F10241E064E088E090E09F
S11333D00E9470108091F1029091F2029BBD8ABD0F
S11333E065C220E030E04AE754E46091F302709152
S11333F0F4028091F5029091F6020E941E270E9429
S1133400382601EA11E023E0AB0164E670E080EDC8
S113341097E00E943914BC0180E090E00E94672686
S11334206B017C0120E030E04AE754E46091F30250
S11334307091F4028091F5029091F6020E941E2789
S11334409B01AC01C701B6010E94BA25882309F487
S11334502DC220E030E04AE754E4C701B6010E94DF
S1133460BF256093F3027093F4028093F502909366
S1133470F60241E064E088E090E00E94701016C219
S113348020E030E04AE754E46091E7027091E802FA
S11334908091E9029091EA020E941E270E94382638
S11334A004EE10E023E0AB0164E670E088EE93E004
S11334B00E943914BC0180E090E00E9467266B01F1
S11334C07C0120E030E04AE754E46091E702709127
S11334D0E8028091E9029091EA020E941E279B0172
S11334E0AC01C701B6010E94BA25882309F4DEC1E4
S11334F020E030E04AE754E4C701B6010E94BF254A
S11335006093E7027093E8028093E9029093EA02E1
S113351041E064E088E090E00E947010C7C14091EF
S1133520EF0250E004EB11E020E061E070E080E1A4
S113353090E00E9439142091EF0230E08217930743
S113354009F4B4C18093EF0241E064E088E090E0C4
S11335500E947010ABC14091F00250E005EC11E004
S113356020E061E070E082E090E00E943914209154
S1133570F00230E08217930709F498C18093F002B7
S113358041E064E088E090E00E9470108FC14091B7
S1133590EB0250E004ED11E020E064E170E08FEF15
S11335A090E00E9439142091EB0230E082179307D7
S11335B009F47CC18093EB0241E064E088E090E090
S11335C00E94701073C120E030E04AE754E4609137
S11335D0E0027091E1028091E2029091E3020E9484
S11335E01E270E94382602EE11E023E0AB0164E6B8
S11335F070E088E893E10E943914BC0180E090E017
S11336000E9467266B017C0120E030E04AE754E425
S11336106091E0027091E1028091E2029091E302F4
S11336200E941E279B01AC01C701B6010E94BA2566
S1133630882309F43BC120E030E04AE754E4C701A1
S1133640B6010E94BF256093E0027093E10280936B
S1133650E2029093E30241E064E088E090E00E949B
S1133660701024C14091E4025091E50203EF11E08F
S113367020E060E170E080E991E00E94391420913B
S1133680E4023091E5028217930709F40FC1909385
S1133690E5028093E40241E064E088E090E00E9467
S11336A0701004C14091EE0250E007E012E020E007
S11336B062E370E08FEF90E00E9439142091EE02F3
S11336C030E08217930709F4F1C08093EE0241E0E1
S11336D064E088E090E00E947010E8C04091E60247
S11336E050E00BE112E020E062E370E08FEF90E045
S11336F00E9439142091E60230E08217930709F4FE
S1133700D5C08093E6020E94031D41E064E088E096
S113371090E00E947010CAC09091B80281E089279D
S11337208093B8020E94040E8111FCCF0E94D91725
S11337300E94B90EBBC022E24BE252E06DE285E387
S113374092E00E94430E882309F4B0C00E94AA208C
S113375081E00E94841D86E00E940D1D8BE392E0AF
S11337600E94202383E00E94841D82E00E940D1D9C
S11337708EE492E00E9420230E94D91C1092AE0293
S11337801092AF021092B0021092B1021092B502E0
S11337901092DA021092D902C12CD12C7601C39472
S11337A043E064E080E890E00E94701083E50E94AA
S11337B00D1DC701B6010E9454238BE592E00E94BF
S11337C0202364E670E080E090E00E9454230E948D
S11337D0D91C8FEFC81AD80AE80AF80A85E6C81671
S11337E0D104E104F104E1F61092B50286E00E94EE
S11337F0841D8DE20E940D1D8DE592E00E94202320
S11338000E94D91C0E94040E8111FCCF0E94040E58
S11338108823E1F34BC024E143E652E068E283E706
S113382092E00E94430E882309F440C00E94AA201B
S113383083E00E94841D88E00E940D1D8BE792E0C6
S11338400E9420230E94D91C0E94AA0B41E064E03C
S113385088E090E00E94701085E00E94841D8DE253
S11338600E940D1D8DE592E00E9420230E94D91C28
S11338700E94040E8111FCCF0E94040E8823E1F300
S113388015C00E94040E8111FCCF0E94D91782300A
S113389031F48091AD028F5F8093AD0207C0833015
S11338A029F48091AD0281508093AD020E94040EF0
S11338B08823E1F30E94F71766956695669590E86C
S11338C0699FB0011124680F711DFB01EF5FFC4F6C
S11338D04083089566956695669590E8699FB00162
S11338E01124680F711DFB01EF5FFC4F8081089567
S11338F0FF920F931F93CF93DF93C82F062F172F99
S1133900F42E0E9436250E943325883031F0803110
S113391021F081E08093F70233C088E70E944425B8
S11339200E943325883131F0803221F081E0809388
S1133930F70226C08C2F0E9444250E94332588322A
S113394019F4F11007C01AC08033D9F381E08093D1
S1133950F70216C0C02FD12F8E010F5F1F4FFA94AC
S11339600F0D111D89910E9444250E943325883230
S113397011F0803319F4C017D107A1F71092F702A0
S11339800E943E25DF91CF911F910F91FF900895E2
S1133990CF93DF931F92CDB7DEB7898341E0BE0199
S11339A06F5F7F4F80E00E94781C0F90DF91CF9172
S11339B00895CF93DF9381E20E94C81C80E00E94A7
S11339C0C81C8FE70E94C81C82E20E94C81C80E0C9
S11339D00E94C81C87E00E94C81CC0E0D0E0BE0161
S11339E062957295707F7627607F76276F5F7C4F34
S11339F040E180E40E94781C2196C034D10579F717
S1133A00DF91CF910895CF93C82F81E80E94C81CFD
S1133A108C2F0E94C81CCF910895882314F08093A2
S1133A20F80208959091F902903410F48093F90209
S1133A300895CF93C62F0E940D1D8C2F0E94121D36
S1133A40CF9108950E9429258EEA0E94C81C85ED15
S1133A500E94C81C80EF0E94C81C88EA0E94C81CEF
S1133A608FE30E94C81C83ED0E94C81C80E00E9462
S1133A70C81C8DE80E94C81C84E10E94C81C80E414
S1133A800E94C81C80E20E94C81C80E00E94C81CDE
S1133A9081EA0E94C81C88EC0E94C81C8AED0E941E
S1133AA0C81C82E10E94C81C81E80E94C81C8FEFD8
S1133AB00E94C81C89ED0E94C81C81EF0E94C81C8A
S1133AC08BED0E94C81C80E20E94C81C84EA0E94FC
S1133AD0C81C86EA0E94C81C8EE20E94C81C8FEA99
S1133AE00E94C81C60E080E00E94191D86EA809351
S1133AF0FA021092FF021092FE021092FD0210923E
S1133B00F9021092F8020895883028F4880F880F7B
S1133B10880F8093F90208958091F80208958F9296
S1133B209F92AF92BF92CF92DF92EF92FF920F9348
S1133B301F93CF93DF93062F142F0E94191DD0914A
S1133B40F902C091F8026D2F8C2F0E946A1C1F3F4E
S1133B5091F4902F9770812C912C540183947501CA
S1133B60640104C0CC0CDD1CEE1CFF1C9A95D2F73A
S1133B70482F4C2913C00770C12CD12C7601C39453
S1133B80B701A60104C0440F551F661F771F0A958D
S1133B90D2F78A019B010095482F40236D2F8C2F6B
S1133BA00E945C1CDF91CF911F910F91FF90EF90C9
S1133BB0DF90CF90BF90AF909F908F9008953F92E9
S1133BC04F925F926F927F928F929F92AF92BF9229
S1133BD0CF92DF92EF92FF920F931F93CF93DF93D5
S1133BE0982E88230CF4C6C044230CF4C3C060345C
S1133BF008F0C0C0203408F0BDC011E0812E861A40
S1133C00820E181B140F462F4770762E741AE82C58
S1133C10F12C88E090E0841B9109E816F9067CF405
S1133C2088E090E08E199F092FEF30E0590102C01F
S1133C30B594A7948A95E2F78A2D682C04C088E08D
S1133C40682E641A8FEFA82EB12C02C0AA0CBB1CDC
S1133C504A95E2F73A2C672D892D0E94191D1123EC
S1133C60C9F1512C0F2EF9EFCF2EF2E0DF2EF02DFB
S1133C70C8EFD2E0A094F6014080B880642D8B2D6B
S1133C800E946A1C0F3F19F4482F432902C0482F91
S1133C904A219B2D9F5F9883642D8B2D0E945C1C71
S1133CA053945112E8CF16C0C85F6C2F892D0E941F
S1133CB0191D1123F1F07A2CF6016081F201808143
S1133CC0982F9F5F9083402F0E945C1C7394711601
S1133CD081F0F2CFC72D6718A12C0F2EF9EFCF2E4C
S1133CE0F2E0DF2EF02D0F2EF8EF4F2EF2E05F2ED4
S1133CF0F02D262D2C0FE22FF0E0CF010896E816C8
S1133D00F90694F62815B0F5EE1AFF0A8FEF90E045
S1133D109C0102C0220F331FEA94E2F77901E09478
S1133D206C2F685F892D0E94191D112319F1B12C84
S1133D300F2EF9EFCF2EF2E0DF2EF02DC8EFD2E0F8
S1133D409E2C9094F601A080F8806A2D8F2D0E94FD
S1133D506A1C0F3F19F4482F4E2902C0482F4921ED
S1133D609F2D9F5F98836A2D8F2D0E945C1CB394B6
S1133D70B112E8CFDF91CF911F910F91FF90EF9097
S1133D80DF90CF90BF90AF909F908F907F906F9077
S1133D905F904F903F9008952F923F924F925F9281
S1133DA06F927F928F929F92AF92BF92CF92DF9247
S1133DB0EF92FF920F931F93CF93DF93CDB7DEB7AC
S1133DC02C970FB6F894DEBF0FBECDBF5C01662EF4
S1133DD029832091F8022F833091F9023A87822FA8
S1133DE0860F1AF480E8682E621A842F90E00796F2
S1133DF09595879595958795959587958D839E83BC
S1133E009A85969596959695890F893048F02D81D7
S1133E103E81285F3F4FA901481B51095E834D83B2
S1133E204A8457E045228D819E81892B09F4FAC08A
S1133E309A859C83712C262C312C512C88E090E09F
S1133E40FC01E419F109FB83EA830F2EF9EFCF2E6D
S1133E50F2E0DF2EF02D08EF12E06C818F810E94DA
S1133E60191D39862886729CC001739C900D1124FB
S1133E707C01E218F308662009F43CC09C012A0D79
S1133E803B1D852C3C872B87EB85FC859490042C6B
S1133E9001C0990C0A94EAF7772079F0F501EE0D48
S1133EA0FF1D2FEFE21AF20A849190E00A8002C00B
S1133EB0959587950A94E2F7982A3981313039F437
S1133EC0F6016081F80180810E946A1C982AF6013B
S1133ED06081F8018081982F9F5F9083492D0E9413
S1133EE05C1C83942B853C852F5F3F4F3C872B873D
S1133EF08610CACFE0E0F3E08081882341F0F60128
S1133F006081F80180810E946A1C482F01C0452D00
S1133F10F6016081F80180810E945C1CFC81F85FDD
S1133F20FC837394872D90E02D813E818217930743
S1133F3008F493CF2230310508F474C06F2F8F81B9
S1133F400E94191D272D30E02150310948855985DB
S1133F50249FC001259F900D349F900D112466204D
S1133F6009F43EC04501880E991E65015FEFC51A2C
S1133F70D50A6A94C60CD11CC80ED91E0F2EF9EFAF
S1133F80EF2EF2E0FF2EF02D08EF12E088E090E033
S1133F905C01A418B1083401F7018080F801908015
S1133FA0682D892D0E946A1CF301449150E00A2C6B
S1133FB002C0559547950A94E2F7482BF981F130F0
S1133FC009F4482B892D8F5FF8018083682D892D92
S1133FD00E945C1CFFEF6F1A7F0A6C147D04E1F6EB
S1133FE080910003882399F0813041F46091F902B3
S1133FF08091F8020E946A1C482F0AC06091F9025D
S11340008091F8020E946A1C482F409501C040E04C
S11340106091F902E8EFF2E08081982F9F5F90832E
S11340200E945C1C0E948C1D6A850E94191D2C969E
S11340300FB6F894DEBF0FBECDBFDF91CF911F91B5
S11340400F91FF90EF90DF90CF90BF90AF909F9033
S11340508F907F906F905F904F903F902F90089536
S1134060DF92EF92FF920F931F93CF93DF93E82E8B
S1134070162FD42EF22ED02F88230CF449C04423BB
S11340800CF446C0603408F043C08FE3821708F490
S11340903FC04E1500F11CC04D2F612F8C2F0E9484
S11340A08F1DCF5F0C17C0F7DE14D8F017C04D2F4B
S11340B06F2D8C2F0E948F1DCF5F0C17C0F7F11648
S11340C098F01CC00D2F4D2D8D2D0E94DF1D20C09A
S11340D0042FCE2DE1CF0E2DC42FDECF0D2DCE2DEE
S11340E0E6CF0E2DCD2DE3CF0D2F212F4E2D6F2D8D
S11340F08E2D0E94DF1D212F6F2DE4CF0D2F2F2D2C
S11341004E2D612F8E2D0E94DF1D2F2D612FDACFB2
S1134110DF91CF911F910F91FF90EF90DF90089561
S11341200F931F93CF93DF93182FD0E000E00BC0C1
S1134130412F6D2F8C2F0E945C1CCF5FC038C1F7BC
S1134140D85FD03411F0C02FF3CFDF91CF911F91FE
S11341500F91089580E00E94902008950F930E948B
S1134160DF1D0F9108952F923F925F926F927F927D
S11341708F929F92AF92BF92CF92DF92EF92FF9273
S11341800F931F93CF93DF93C82E81E0D82EDC18B2
S1134190D40EB82EB61AB20E462F4770A62EA41A05
S11341A00B2D10E088E090E0841B91090817190793
S11341B07CF488E090E0801B910B2FEF30E0B90194
S11341C002C0759567958A95E2F7CB015B2C04C014
S11341D088E0582E541A8FEF682E01C0660C4A9559
S11341E0EAF76A2D8C2D0E94191DDD20D9F1812C4E
S11341F00F2EF9EFEF2EF2E0FF2EF02DC8EFD2E0F4
S1134200F70170809880672D892D0E946A1C992D72
S11342109F5F9883482F4625672D892D0E945C1C3B
S113422083948D10EDCF1EC0C85F6C2F8C2D0E941F
S1134230191DDD2039F1672CF7015080F1018080D0
S1134240652D882D0E946A1C982D9F5FF101908333
S1134250482F4095652D882D0E945C1C63946D1435
S113426089F0EACFCA2D5A18A52C712C0F2EF9EF1C
S1134270EF2EF2E0FF2EF02D0F2EF8EF2F2EF2E0AE
S11342803F2EF02D8A2D8C0FE82FF0E0DF011896D9
S11342900A171B074CF68B1558F50E1B1F0B8FEFD7
S11342A090E09C0102C0220F331F0A95E2F7B22E60
S11342B0B0946C2F685F8C2D0E94191DDD20C1F015
S11342C0E12C09EF12E0C8EFD2E0F801C080F880D9
S11342D06C2D8F2D0E946A1C9F2D9F5F9883482F01
S11342E04B256C2D8F2D0E945C1CE394ED10EDCFBB
S11342F0DF91CF911F910F91FF90EF90DF90CF90BE
S1134300BF90AF909F908F907F906F905F903F9001
S11343102F9008956623F4F04034E0F42230D0F472
S11343209093FC028093FB026093FD024093FE0293
S113433050E041505109CA0199230CF40796959510
S1134340879595958795959587958F5F8093FF02BF
S11343502093000308952F923F924F925F926F92A1
S11343607F928F929F92AF92BF92CF92DF92EF9201
S1134370FF920F931F93CF93DF93CDB7DEB72B97A5
S11343800FB6F894DEBF0FBECDBF2091F8022C8388
S11343903091F9023F839091FF0280522091FD02F7
S11343A0299F900111242F5F3F4F829FA001839F7B
S11343B0500D1124598748874F5F5F4F5E834D83AB
S11343C0E091FB02F091FC02A885B985EA0FFB1F7E
S11343D054907F80B7E07B22992309F492C0EF8147
S11343E0EB83312C212C88E090E09C0127193109C2
S11343F03A8329830F2EF0E08F2EF3E09F2EF02DC9
S11344000F2EF9EFAF2EF2E0BF2EF02D08EF12E0E1
S1134410672C752C6B818C810E94191D4D815E81E6
S1134420430D511D5B874A877A0151E0E51AF10873
S1134430772009F44FC00F2EFFEFCF2EF2E0DF2ECE
S1134440F02D832D362C672C722C582EABEFB2E056
S11344502D913C91EA85FB85E20FF31FE4914E2EEA
S1134460032C01C0440C0A94EAF7552081F0F901A9
S1134470EE0DFF1D249130E0098002C0359527958B
S11344800A94E2F7422AF6018081E80EF11CD40175
S11344908C91813039F4F5016081D8018C910E94AE
S11344A06A1C482AF5016081D8018C91982F9F5F7E
S11344B09C93442D0E945C1CF60180812A853B85D7
S11344C0280F311D3B872A8773947610BFCF762C33
S11344D0632C352CD4018C91811107C0422DF50138
S11344E06081D8018C910E945C1CBB81B85FBB8346
S11344F033948091FF02381608F48CCF572C762C15
S113450003C0EF81EB83312C2F81229526952695CC
S1134510237030E08091FE028295869586958370A3
S113452090E0FF818F0F911D2817390709F469C0A6
S11345306B818C810E94191D28853985230D311DBD
S11345403A832983552009F451C0312C0F2EF9EFF9
S1134550AF2EF2E0BF2EF02D08EF12E00F2EFBEF8E
S1134560CF2EF2E0DF2EF02D88E090E0AC01471969
S113457051093A010F2EF0E0EF2EF3E0FF2EF02D5B
S11345800F2EFFEF8F2EF2E09F2EF02DD5012C90F1
S1134590F8014080622D842D0E946A1CD601ED91A1
S11345A0FC9129813A81E20FF31F449150E0062CDB
S11345B002C0559547950A94E2F7482BD7019C9180
S11345C0913009F4482B842D8F5FF8018083622D8C
S11345D0842D0E945C1CD4018C91E981FA81E80F3E
S11345E0F11DFA83E98333943510D0CF8091000311
S11345F0811107C040E06091F9028091F8020E94A5
S11346005C1C8C818F5F6F81850D0E94191D2B9618
S11346100FB6F894DEBF0FBECDBFDF91CF911F91CF
S11346200F91FF90EF90DF90CF90BF90AF909F904D
S11346308F907F906F905F904F903F902F90089550
S1134640EF92FF920F931F93CF93DF93EC01888136
S1134650882319F19091F8022091FD0230E0290F8E
S1134660311D20383105CCF421960F2EF8EFEF2EB2
S1134670F2E0FF2EF02D0DEF12E00AC0F701908159
S1134680F801208130E0290F311D203831052CF448
S11346900E94AB2189918111F1CFDF91CF911F91BC
S11346A00F91FF90EF9008950F931F93CF93DF9393
S11346B0CDB7DEB72C970FB6F894DEBF0FBECDBFD3
S11346C0611571058105910521F480E30E94AB21F8
S11346D045C161157105810520E8920709F43EC1C1
S11346E0FE0131962CE0DF011D922A95E9F720E3C3
S11346F02B872A87298728872F832E832D832C8332
S11347002B832A83298399235CF49B01AC0188279A
S11347109927DC01821B930BA40BB50B41E003C06A
S1134720DC01CB0140E081303AEC93073AE9A3077E
S11347303BE3B30794F02A812F5F01C0232F9A5CD7
S1134740AA49BB43322F3F5F81305AEC95075AE99F
S1134750A5075BE3B50794F72A83811521EE920739
S113476025EFA20725E0B20794F02B812F5F01C04B
S1134770232F915EA54FB540322F3F5F811551EE37
S1134780950755EFA50755E0B50794F72B838038B7
S113479026E9920728E9A207B10594F02C812F5F3E
S11347A001C0232F80589649A849B109322F3F5F91
S11347B0803856E9950758E9A507B10594F72C8385
S11347C0803422E492072FE0A207B10594F02D81F2
S11347D02F5F01C0232F80549244AF40B109322F80
S11347E03F5F803452E495075FE0A507B10594F775
S11347F02D83803A26E8920721E0A207B10594F0C0
S11348002E812F5F01C0232F805A9648A140B10901
S1134810322F3F5F803A56E8950751E0A507B1056E
S113482094F72E83803127E29207A105B1058CF01D
S11348302F812F5F01C0232F80519742A109B10915
S1134840322F3F5F803157E29507A105B1059CF7F0
S11348502F83883E23E09207A105B1058CF02885BB
S11348602F5F01C0232F885E9340A109B109322F25
S11348703F5F883E53E09507A105B1059CF7288763
S113488084369105A105B10584F029852F5F01C007
S1134890232F84569109A109B109322F3F5F843631
S11348A09105A105B105A4F729878A309105A105D1
S11348B0B1057CF02A852F5F01C0232F0A97A10937
S11348C0B109322F3F5F8A309105A105B105ACF7DC
S11348D02A87181619061A061B065CF45B858C01D8
S11348E09D010150110921093109D9F7652F680F7C
S11348F06B878981803361F480E08F5FE1E0F0E0D1
S1134900EC0FFD1FE80FF11D90819033B1F301C04E
S113491080E0442331F08150FE01E80FF11D9DE257
S113492091834AE0481B20E090E0E1E0F0E0EC0FE6
S1134930FD1FE20FF11DDF01A80FB91F3C91308369
S11349402F5F421790F7E1E0F0E0EC0FFD1FE20F5C
S1134950F11D1082CE0101960E9420232C960FB6E1
S1134960F894DEBF0FBECDBFDF91CF911F910F91A1
S113497008958F929F92AF92BF92CF92DF92EF925F
S1134980FF926B017C0149015A0120E030E0A9014A
S11349900E94BA2581110AC080E30E94AB218EE2F5
S11349A00E94AB2180E30E94AB214AC020E030E0AA
S11349B040E05FECC701B6010E94192788230CF47C
S11349C03FC020E030E040E05FE4C701B6010E9450
S11349D0BA258823ACF520E030E0A901C701B6016F
S11349E00E94BA2588233CF4F7FAF094F7F8F0947F
S11349F08DE20E94AB21C701B6010E9431260E94BC
S1134A0054238EE20E94AB21C701B6010E943826CE
S1134A100E9467269B01AC01C701B6010E944D2587
S1134A206B017C01C501B4010E9467269B01AC01A6
S1134A30C701B6010E941E270E9431260E945423FA
S1134A40FF90EF90DF90CF90BF90AF909F908F90AA
S1134A500895A19AA09AA99AA89A11B88CE080B94D
S1134A6084E086BF089581B1887F089584EA86BF73
S1134A7006B607FEFDCF0E943325089585ED86BF57
S1134A8006B604FCFDCF089583B984E886BF06B654
S1134A9007FEFDCF0E94332508955058BB27AA274F
S1134AA00E9465250C94DF260E94D12638F00E94CE
S1134AB0D82620F039F49F3F19F426F40C94CE261E
S1134AC00EF4E095E7FB0C94C826E92F0E94F0262B
S1134AD058F3BA17620773078407950720F079F42F
S1134AE0A6F50C9412270EF4E0950B2EBA2FA02DE8
S1134AF00B01B90190010C01CA01A0011124FF2787
S1134B00591B99F0593F50F4503E68F11A16F04081
S1134B10A22F232F342F4427585FF3CF4695379580
S1134B202795A795F0405395C9F77EF41F16BA0B45
S1134B30620B730B840BBAF09150A1F0FF0FBB1FF3
S1134B40661F771F881FC2F70EC0BA0F621F731F3C
S1134B50841F48F4879577956795B795F7959E3F99
S1134B6008F0B0CF9395880F08F09927EE0F97952A
S1134B70879508950E94A42608F481E008950E9470
S1134B80D3250C94DF260E94D82658F00E94D12603
S1134B9040F029F45F3F29F00C94C82651110C947D
S1134BA013270C94CE260E94F02668F39923B1F3C0
S1134BB0552391F3951B550BBB27AA27621773073F
S1134BC0840738F09F5F5F4F220F331F441FAA1FD3
S1134BD0A9F335D00E2E3AF0E0E832D0915050408F
S1134BE0E695001CCAF72BD0FE2F29D0660F771F3D
S1134BF0881FBB1F261737074807AB07B0E809F023
S1134C00BB0B802DBF01FF2793585F4F3AF09E3FA7
S1134C10510578F00C94C8260C9413275F3FE4F3F5
S1134C20983ED4F3869577956795B795F7959F5FEA
S1134C30C9F7880F911D9695879597F90895E1E036
S1134C40660F771F881FBB1F621773078407BA0795
S1134C5020F0621B730B840BBA0BEE1F88F7E095F0
S1134C6008950E9438266894B1110C94132708956E
S1134C700E94F82688F09F5798F0B92F9927B751CA
S1134C80B0F0E1F0660F771F881F991F1AF0BA95EC
S1134C90C9F714C0B13091F00E941227B1E0089511
S1134CA00C941227672F782F8827B85F39F0B93F03
S1134CB0CCF3869577956795B395D9F73EF490959F
S1134CC08095709561957F4F8F4F9F4F0895E8941D
S1134CD009C097FB3EF490958095709561957F4F40
S1134CE08F4F9F4F9923A9F0F92F96E9BB279395EE
S1134CF0F695879577956795B795F111F8CFFAF4FE
S1134D00BB0F11F460FF1BC06F5F7F4F8F4F9F4F2E
S1134D1016C0882311F096E911C0772321F09EE88C
S1134D20872F762F05C0662371F096E8862F70E0F2
S1134D3060E02AF09A95660F771F881FDAF7880FCC
S1134D409695879597F90895990F0008550FAA0B22
S1134D50E0E8FEEF16161706E807F907C0F012168A
S1134D601306E407F50798F0621B730B840B950B8D
S1134D7039F40A2661F0232B242B252B21F40895E2
S1134D800A2609F4A140A6958FEF811D811D08957F
S1134D9097F99F6780E870E060E008959FEF80ECEA
S1134DA0089500240A94161617061806090608958D
S1134DB000240A9412161306140605060895092EF3
S1134DC00394000C11F4882352F0BB0F40F4BF2B62
S1134DD011F460FF04C06F5F7F4F8F4F9F4F0895A2
S1134DE057FD9058440F551F59F05F3F71F0479598
S1134DF0880F97FB991F61F09F3F79F0879508957D
S1134E00121613061406551FF2CF4695F1DF08C09B
S1134E10161617061806991FF1CF869571056105B8
S1134E2008940895E894BB2766277727CB0197F960
S1134E3008950E94A42608F48FEF08950E94312754
S1134E400C94DF260E94D12638F00E94D82620F048
S1134E50952311F00C94C8260C94CE2611240C949E
S1134E6013270E94F02670F3959FC1F3950F50E02D
S1134E70551F629FF001729FBB27F00DB11D639F08
S1134E80AA27F00DB11DAA1F649F6627B00DA11DAE
S1134E90661F829F2227B00DA11D621F739FB00D54
S1134EA0A11D621F839FA00D611D221F749F3327C4
S1134EB0A00D611D231F849F600D211D822F762F5D
S1134EC06A2F11249F5750409AF0F1F088234AF03A
S1134ED0EE0FFF1FBB1F661F771F881F91505040A6
S1134EE0A9F79E3F510580F00C94C8260C94132713
S1134EF05F3FE4F3983ED4F3869577956795B7952D
S1134F00F795E7959F5FC1F7FE2B880F911D969546
S1134F10879597F90895AA1BBB1B51E107C0AA1FE7
S1134F20BB1FA617B70710F0A61BB70B881F991F46
S1134F305A95A9F780959095BC01CD01089597FBEA
S1134F40072E16F4009407D077FD09D00E948B2712
S1134F5007FC05D03EF4909581959F4F0895709578
S1134F6061957F4F0895A1E21A2EAA1BBB1BFD0178
S1134F700DC0AA1FBB1FEE1FFF1FA217B307E40734
S1134F80F50720F0A21BB30BE40BF50B661F771F8C
S1134F90881F991F1A9469F760957095809590956C
S1134FA09B01AC01BD01CF010895EE0FFF1F0590D9
S1134FB0F491E02D0994A29FB001B39FC001A39F77
S1134FC0700D811D1124911DB29F700D811D11243E
S1134FD0911D08950F931F93CF93DF938230910512
S1134FE010F482E090E0E0910307F091040720E0E0
S1134FF030E0A0E0B0E0309719F1408151810281A6
S1135000138148175907C8F08417950769F4109756
S113501031F012960C93129713961C9327C00093A9
S113502003071093040722C02115310519F0421714
S1135030530718F49A01BD01EF01DF01F801DBCF3A
S113504021153105F9F0281B390B2430310580F482
S11350508A819B816115710521F0FB019383828311
S113506004C09093040780930307FE01329644C062
S1135070FE01E20FF31F819391932250310939838A
S113508028833AC02091010730910207232B41F471
S1135090209162003091630030930207209301074E
S11350A020916000309161002115310541F42DB744
S11350B03EB74091640050916500241B350BE0918C
S11350C00107F0910207E217F307A0F42E1B3F0B30
S11350D02817390778F0AC014E5F5F4F2417350766
S11350E048F04E0F5F1F50930207409301078193CE
S11350F0919302C0E0E0F0E0CF01DF91CF911F91E6
S11351000F910895CF93DF93009709F481C0FC01B8
S1135110329713821282A0910307B091040710976B
S113512081F420813181820F931F209101073091F6
S113513002072817390751F5F0930207E093010796
S113514067C0ED0120E030E0CE17DF0740F44A816C
S11351505B819E0141155105F1F0EA01F5CFD3833E
S1135160C28340815181840F951FC817D90759F410
S113517088819981840F951F0296918380838A8107
S11351809B81938382832115310529F4F0930407CD
S1135190E09303073DC0E901FB83EA8349915991F8
S11351A0C40FD51FEC17FD0761F480819181840F32
S11351B0951F0296E90199838883828193819B8359
S11351C08A83E0E0F0E012968D919C91139700970A
S11351D019F0FD01DC01F7CF8D919C9111979D0190
S11351E02E5F3F4F820F931F2091010730910207DA
S11351F02817390769F4309729F41092040710929C
S1135200030702C013821282B0930207A09301071E
S1135210DF91CF910895E199FECF9FBB8EBBE09AB9
S113522099278DB30895A6E1B0E044E050E00C94D2
S11352305129A8E1B0E042E050E00C945129262F16
S1135240E199FECF9FBB8EBBE09A01970DB2021687
S113525031F02DBB0FB6F894E29AE19A0FBE08958F
S11352600396272F0E9420290E941F29252F0E9480
S11352702029242F0C9420290196272F0E942029CD
S11352800C941F29242F0E946029252F0E94602935
S11352900C944A290E945F29272F0C946029DC0171
S11352A0CB01FC01E199FECF06C0FFBBEEBBE09A47
S11352B031960DB20D9241505040B8F70895262F03
S11352C0E199FECF9FBB8EBB2DBB0FB6F894E29A3B
S10F52D0E19A0FBE01960895F894FFCFF8
S11352DC000005072000016D696E3A006D61783A93
S11352EC005600250030004E4F00594553004564CC
S11352FC6974004578697400536176650053706471
S113530C00556274004672710053745000537470EB
S113531C00537452006E53740074525000506873EE
S113532C0054726E004C002052005354720052759B
S113533C6E004469616C206C696768740048616E26
S113534C64206C6967687400576865656C206469CF
S113535C616D2E004765617220726174696F004D36
S113536C61676E6574730053746570206D6F64654A
S113537C004D6178207370656564004465672E2068
S113538C706572206B6D2F68004D6F746F72207393
S113539C74657073005374657020696E74657276ED
S11353AC616C004F6C6564206272696768742E00CE
S11353BC4E6F726D616C206D6F646500446562752F
S11353CC67206D6F64650043616C6962726174651A
S11353DC2068616E64005265736574206F646F6D30
S11353EC65746572004C6F61642064656661756CEC
S11353FC7473004469616C206C696768742050573D
S113540C4D0048616E64206C696768742050574D78
S113541C00576865656C204469616D65746572201C
S113542C286D29004D61676E657473206F6E20774B
S113543C6865656C00312D66756C6C2C20322D689A
S113544C616C66004D6178696D756D20737065656E
S113545C64004465677265657320706572206B6DBA
S113546C2F680053746570706572206D6F746F7261
S113547C207374657073005374657020696E746561
S113548C7276616C205836347573004F4C45442049
S113549C6272696768746E657373004F444F4D454F
S11354AC5445523F005245534554005245534554BC
S11354BC54494E47204F444F4D4554455200436583
S11354CC6C6C7320657261736564002F00444F4EDD
S11354DC45210044454641554C542076616C756514
S11354EC733F00524553544F5245004C4F4144496D
S11354FC4E472044454641554C54532E2E2E007194
S113550C747677797A7B7C7D7E05060A0201000825
S10D551C0406020004060200040065
S9030000FC
